{
	"SimpleSwap.sol": {
		"SimpleSwap": {
			"abi": [
				{
					"inputs": [
						{
							"internalType": "address",
							"name": "_tokenA",
							"type": "address"
						},
						{
							"internalType": "address",
							"name": "_tokenB",
							"type": "address"
						},
						{
							"internalType": "address",
							"name": "_lpToken",
							"type": "address"
						}
					],
					"stateMutability": "nonpayable",
					"type": "constructor"
				},
				{
					"anonymous": false,
					"inputs": [
						{
							"indexed": true,
							"internalType": "address",
							"name": "provider",
							"type": "address"
						},
						{
							"indexed": false,
							"internalType": "uint256",
							"name": "amountA",
							"type": "uint256"
						},
						{
							"indexed": false,
							"internalType": "uint256",
							"name": "amountB",
							"type": "uint256"
						},
						{
							"indexed": false,
							"internalType": "uint256",
							"name": "liquidity",
							"type": "uint256"
						}
					],
					"name": "LiquidityAdded",
					"type": "event"
				},
				{
					"anonymous": false,
					"inputs": [
						{
							"indexed": true,
							"internalType": "address",
							"name": "provider",
							"type": "address"
						},
						{
							"indexed": false,
							"internalType": "uint256",
							"name": "amountA",
							"type": "uint256"
						},
						{
							"indexed": false,
							"internalType": "uint256",
							"name": "amountB",
							"type": "uint256"
						},
						{
							"indexed": false,
							"internalType": "uint256",
							"name": "liquidity",
							"type": "uint256"
						}
					],
					"name": "LiquidityRemoved",
					"type": "event"
				},
				{
					"inputs": [
						{
							"internalType": "address",
							"name": "_tokenA",
							"type": "address"
						},
						{
							"internalType": "address",
							"name": "_tokenB",
							"type": "address"
						},
						{
							"internalType": "uint256",
							"name": "amountADesired",
							"type": "uint256"
						},
						{
							"internalType": "uint256",
							"name": "amountBDesired",
							"type": "uint256"
						},
						{
							"internalType": "uint256",
							"name": "amountAMin",
							"type": "uint256"
						},
						{
							"internalType": "uint256",
							"name": "amountBMin",
							"type": "uint256"
						},
						{
							"internalType": "address",
							"name": "to",
							"type": "address"
						},
						{
							"internalType": "uint256",
							"name": "deadline",
							"type": "uint256"
						}
					],
					"name": "addLiquidity",
					"outputs": [
						{
							"internalType": "uint256",
							"name": "amountA",
							"type": "uint256"
						},
						{
							"internalType": "uint256",
							"name": "amountB",
							"type": "uint256"
						},
						{
							"internalType": "uint256",
							"name": "liquidity",
							"type": "uint256"
						}
					],
					"stateMutability": "nonpayable",
					"type": "function"
				},
				{
					"inputs": [
						{
							"internalType": "address",
							"name": "tokenIn",
							"type": "address"
						},
						{
							"internalType": "address",
							"name": "tokenOut",
							"type": "address"
						},
						{
							"internalType": "uint256",
							"name": "amountIn",
							"type": "uint256"
						}
					],
					"name": "getAmountOut",
					"outputs": [
						{
							"internalType": "uint256",
							"name": "amountOut",
							"type": "uint256"
						}
					],
					"stateMutability": "view",
					"type": "function"
				},
				{
					"inputs": [
						{
							"internalType": "address",
							"name": "base",
							"type": "address"
						},
						{
							"internalType": "address",
							"name": "quote",
							"type": "address"
						}
					],
					"name": "getPrice",
					"outputs": [
						{
							"internalType": "uint256",
							"name": "price",
							"type": "uint256"
						}
					],
					"stateMutability": "view",
					"type": "function"
				},
				{
					"inputs": [],
					"name": "lpToken",
					"outputs": [
						{
							"internalType": "contract ILPToken",
							"name": "",
							"type": "address"
						}
					],
					"stateMutability": "view",
					"type": "function"
				},
				{
					"inputs": [],
					"name": "owner",
					"outputs": [
						{
							"internalType": "address",
							"name": "",
							"type": "address"
						}
					],
					"stateMutability": "view",
					"type": "function"
				},
				{
					"inputs": [
						{
							"internalType": "address",
							"name": "_tokenA",
							"type": "address"
						},
						{
							"internalType": "address",
							"name": "_tokenB",
							"type": "address"
						},
						{
							"internalType": "uint256",
							"name": "liquidity",
							"type": "uint256"
						},
						{
							"internalType": "uint256",
							"name": "amountAMin",
							"type": "uint256"
						},
						{
							"internalType": "uint256",
							"name": "amountBMin",
							"type": "uint256"
						},
						{
							"internalType": "address",
							"name": "to",
							"type": "address"
						},
						{
							"internalType": "uint256",
							"name": "deadline",
							"type": "uint256"
						}
					],
					"name": "removeLiquidity",
					"outputs": [
						{
							"internalType": "uint256",
							"name": "amountA",
							"type": "uint256"
						},
						{
							"internalType": "uint256",
							"name": "amountB",
							"type": "uint256"
						}
					],
					"stateMutability": "nonpayable",
					"type": "function"
				},
				{
					"inputs": [],
					"name": "reserveA",
					"outputs": [
						{
							"internalType": "uint256",
							"name": "",
							"type": "uint256"
						}
					],
					"stateMutability": "view",
					"type": "function"
				},
				{
					"inputs": [],
					"name": "reserveB",
					"outputs": [
						{
							"internalType": "uint256",
							"name": "",
							"type": "uint256"
						}
					],
					"stateMutability": "view",
					"type": "function"
				},
				{
					"inputs": [
						{
							"internalType": "uint256",
							"name": "amountIn",
							"type": "uint256"
						},
						{
							"internalType": "uint256",
							"name": "amountOutMin",
							"type": "uint256"
						},
						{
							"internalType": "address[]",
							"name": "path",
							"type": "address[]"
						},
						{
							"internalType": "address",
							"name": "to",
							"type": "address"
						},
						{
							"internalType": "uint256",
							"name": "deadline",
							"type": "uint256"
						}
					],
					"name": "swapExactTokensForTokens",
					"outputs": [
						{
							"internalType": "uint256[]",
							"name": "amounts",
							"type": "uint256[]"
						}
					],
					"stateMutability": "nonpayable",
					"type": "function"
				},
				{
					"inputs": [],
					"name": "tokenA",
					"outputs": [
						{
							"internalType": "address",
							"name": "",
							"type": "address"
						}
					],
					"stateMutability": "view",
					"type": "function"
				},
				{
					"inputs": [],
					"name": "tokenB",
					"outputs": [
						{
							"internalType": "address",
							"name": "",
							"type": "address"
						}
					],
					"stateMutability": "view",
					"type": "function"
				},
				{
					"inputs": [],
					"name": "totalLiquidity",
					"outputs": [
						{
							"internalType": "uint256",
							"name": "total",
							"type": "uint256"
						}
					],
					"stateMutability": "view",
					"type": "function"
				}
			],
			"devdoc": {
				"kind": "dev",
				"methods": {
					"addLiquidity(address,address,uint256,uint256,uint256,uint256,address,uint256)": {
						"params": {
							"_tokenA": "Address of token A (must match contract tokenA)",
							"_tokenB": "Address of token B (must match contract tokenB)",
							"amountADesired": "Desired amount of token A to add",
							"amountAMin": "Minimum amount of token A accepted (slippage protection)",
							"amountBDesired": "Desired amount of token B to add",
							"amountBMin": "Minimum amount of token B accepted (slippage protection)",
							"deadline": "Timestamp by which transaction must be mined",
							"to": "Address receiving LP tokens"
						},
						"returns": {
							"amountA": "Actual amount of token A added",
							"amountB": "Actual amount of token B added",
							"liquidity": "Amount of LP tokens minted to `to`"
						}
					},
					"constructor": {
						"params": {
							"_lpToken": "Address of LP token contract",
							"_tokenA": "Address of token A",
							"_tokenB": "Address of token B"
						}
					},
					"getAmountOut(address,address,uint256)": {
						"params": {
							"amountIn": "Amount of input tokens",
							"tokenIn": "Input token address",
							"tokenOut": "Output token address"
						},
						"returns": {
							"amountOut": "Expected output token amount"
						}
					},
					"getPrice(address,address)": {
						"params": {
							"base": "Token to price (numerator)",
							"quote": "Token as reference (denominator)"
						},
						"returns": {
							"price": "Current price scaled by 1e18"
						}
					},
					"removeLiquidity(address,address,uint256,uint256,uint256,address,uint256)": {
						"params": {
							"_tokenA": "Address of token A (must match contract tokenA)",
							"_tokenB": "Address of token B (must match contract tokenB)",
							"amountAMin": "Minimum amount of token A accepted (slippage protection)",
							"amountBMin": "Minimum amount of token B accepted (slippage protection)",
							"deadline": "Timestamp by which transaction must be mined",
							"liquidity": "Amount of LP tokens to burn",
							"to": "Address to send withdrawn tokens"
						},
						"returns": {
							"amountA": "Amount of token A returned",
							"amountB": "Amount of token B returned"
						}
					},
					"swapExactTokensForTokens(uint256,uint256,address[],address,uint256)": {
						"params": {
							"amountIn": "Exact amount of input tokens",
							"amountOutMin": "Minimum acceptable output tokens (slippage protection)",
							"deadline": "Timestamp by which transaction must be mined",
							"path": "Array of token addresses [input, output]",
							"to": "Recipient address for output tokens"
						},
						"returns": {
							"amounts": "Array with input and output token amounts"
						}
					},
					"totalLiquidity()": {
						"returns": {
							"total": "Total liquidity in pool"
						}
					}
				},
				"title": "SimpleSwap - Basic AMM for token swaps and liquidity management",
				"version": 1
			},
			"evm": {
				"assembly": "    /* \"SimpleSwap.sol\":1978:12389  contract SimpleSwap {... */\n  mstore(0x40, 0xc0)\n    /* \"SimpleSwap.sol\":3057:3317  constructor(address _tokenA, address _tokenB, address _lpToken) {... */\n  callvalue\n  dup1\n  iszero\n  tag_1\n  jumpi\n  revert(0x00, 0x00)\ntag_1:\n  pop\n  mload(0x40)\n  sub(codesize, bytecodeSize)\n  dup1\n  bytecodeSize\n  dup4\n  codecopy\n  dup2\n  dup2\n  add\n  0x40\n  mstore\n  dup2\n  add\n  swap1\n  tag_2\n  swap2\n  swap1\n  tag_3\n  jump\t// in\ntag_2:\n    /* \"SimpleSwap.sol\":3151:3158  _tokenB */\n  dup2\n    /* \"SimpleSwap.sol\":3140:3158  _tokenA != _tokenB */\n  0xffffffffffffffffffffffffffffffffffffffff\n  and\n    /* \"SimpleSwap.sol\":3140:3147  _tokenA */\n  dup4\n    /* \"SimpleSwap.sol\":3140:3158  _tokenA != _tokenB */\n  0xffffffffffffffffffffffffffffffffffffffff\n  and\n  sub\n    /* \"SimpleSwap.sol\":3132:3187  require(_tokenA != _tokenB, \"Tokens must be different\") */\n  tag_6\n  jumpi\n  mload(0x40)\n  0x08c379a000000000000000000000000000000000000000000000000000000000\n  dup2\n  mstore\n  0x04\n  add\n  tag_7\n  swap1\n  tag_8\n  jump\t// in\ntag_7:\n  mload(0x40)\n  dup1\n  swap2\n  sub\n  swap1\n  revert\ntag_6:\n    /* \"SimpleSwap.sol\":3207:3214  _tokenA */\n  dup3\n    /* \"SimpleSwap.sol\":3198:3214  tokenA = _tokenA */\n  0xffffffffffffffffffffffffffffffffffffffff\n  and\n  0x80\n  dup2\n  0xffffffffffffffffffffffffffffffffffffffff\n  and\n  dup2\n  mstore\n  pop\n  pop\n    /* \"SimpleSwap.sol\":3234:3241  _tokenB */\n  dup2\n    /* \"SimpleSwap.sol\":3225:3241  tokenB = _tokenB */\n  0xffffffffffffffffffffffffffffffffffffffff\n  and\n  0xa0\n  dup2\n  0xffffffffffffffffffffffffffffffffffffffff\n  and\n  dup2\n  mstore\n  pop\n  pop\n    /* \"SimpleSwap.sol\":3260:3270  msg.sender */\n  caller\n    /* \"SimpleSwap.sol\":3252:3257  owner */\n  0x00\n  0x00\n    /* \"SimpleSwap.sol\":3252:3270  owner = msg.sender */\n  0x0100\n  exp\n  dup2\n  sload\n  dup2\n  0xffffffffffffffffffffffffffffffffffffffff\n  mul\n  not\n  and\n  swap1\n  dup4\n  0xffffffffffffffffffffffffffffffffffffffff\n  and\n  mul\n  or\n  swap1\n  sstore\n  pop\n    /* \"SimpleSwap.sol\":3300:3308  _lpToken */\n  dup1\n    /* \"SimpleSwap.sol\":3281:3288  lpToken */\n  0x01\n  0x00\n    /* \"SimpleSwap.sol\":3281:3309  lpToken = ILPToken(_lpToken) */\n  0x0100\n  exp\n  dup2\n  sload\n  dup2\n  0xffffffffffffffffffffffffffffffffffffffff\n  mul\n  not\n  and\n  swap1\n  dup4\n  0xffffffffffffffffffffffffffffffffffffffff\n  and\n  mul\n  or\n  swap1\n  sstore\n  pop\n    /* \"SimpleSwap.sol\":3057:3317  constructor(address _tokenA, address _tokenB, address _lpToken) {... */\n  pop\n  pop\n  pop\n    /* \"SimpleSwap.sol\":1978:12389  contract SimpleSwap {... */\n  jump(tag_9)\n    /* \"#utility.yul\":88:205   */\ntag_11:\n    /* \"#utility.yul\":197:198   */\n  0x00\n    /* \"#utility.yul\":194:195   */\n  0x00\n    /* \"#utility.yul\":187:199   */\n  revert\n    /* \"#utility.yul\":334:460   */\ntag_13:\n    /* \"#utility.yul\":371:378   */\n  0x00\n    /* \"#utility.yul\":411:453   */\n  0xffffffffffffffffffffffffffffffffffffffff\n    /* \"#utility.yul\":404:409   */\n  dup3\n    /* \"#utility.yul\":400:454   */\n  and\n    /* \"#utility.yul\":389:454   */\n  swap1\n  pop\n    /* \"#utility.yul\":334:460   */\n  swap2\n  swap1\n  pop\n  jump\t// out\n    /* \"#utility.yul\":466:562   */\ntag_14:\n    /* \"#utility.yul\":503:510   */\n  0x00\n    /* \"#utility.yul\":532:556   */\n  tag_26\n    /* \"#utility.yul\":550:555   */\n  dup3\n    /* \"#utility.yul\":532:556   */\n  tag_13\n  jump\t// in\ntag_26:\n    /* \"#utility.yul\":521:556   */\n  swap1\n  pop\n    /* \"#utility.yul\":466:562   */\n  swap2\n  swap1\n  pop\n  jump\t// out\n    /* \"#utility.yul\":568:690   */\ntag_15:\n    /* \"#utility.yul\":641:665   */\n  tag_28\n    /* \"#utility.yul\":659:664   */\n  dup2\n    /* \"#utility.yul\":641:665   */\n  tag_14\n  jump\t// in\ntag_28:\n    /* \"#utility.yul\":634:639   */\n  dup2\n    /* \"#utility.yul\":631:666   */\n  eq\n    /* \"#utility.yul\":621:684   */\n  tag_29\n  jumpi\n    /* \"#utility.yul\":680:681   */\n  0x00\n    /* \"#utility.yul\":677:678   */\n  0x00\n    /* \"#utility.yul\":670:682   */\n  revert\n    /* \"#utility.yul\":621:684   */\ntag_29:\n    /* \"#utility.yul\":568:690   */\n  pop\n  jump\t// out\n    /* \"#utility.yul\":696:839   */\ntag_16:\n    /* \"#utility.yul\":753:758   */\n  0x00\n    /* \"#utility.yul\":784:790   */\n  dup2\n    /* \"#utility.yul\":778:791   */\n  mload\n    /* \"#utility.yul\":769:791   */\n  swap1\n  pop\n    /* \"#utility.yul\":800:833   */\n  tag_31\n    /* \"#utility.yul\":827:832   */\n  dup2\n    /* \"#utility.yul\":800:833   */\n  tag_15\n  jump\t// in\ntag_31:\n    /* \"#utility.yul\":696:839   */\n  swap3\n  swap2\n  pop\n  pop\n  jump\t// out\n    /* \"#utility.yul\":845:1508   */\ntag_3:\n    /* \"#utility.yul\":933:939   */\n  0x00\n    /* \"#utility.yul\":941:947   */\n  0x00\n    /* \"#utility.yul\":949:955   */\n  0x00\n    /* \"#utility.yul\":998:1000   */\n  0x60\n    /* \"#utility.yul\":986:995   */\n  dup5\n    /* \"#utility.yul\":977:984   */\n  dup7\n    /* \"#utility.yul\":973:996   */\n  sub\n    /* \"#utility.yul\":969:1001   */\n  slt\n    /* \"#utility.yul\":966:1085   */\n  iszero\n  tag_33\n  jumpi\n    /* \"#utility.yul\":1004:1083   */\n  tag_34\n  tag_11\n  jump\t// in\ntag_34:\n    /* \"#utility.yul\":966:1085   */\ntag_33:\n    /* \"#utility.yul\":1124:1125   */\n  0x00\n    /* \"#utility.yul\":1149:1213   */\n  tag_35\n    /* \"#utility.yul\":1205:1212   */\n  dup7\n    /* \"#utility.yul\":1196:1202   */\n  dup3\n    /* \"#utility.yul\":1185:1194   */\n  dup8\n    /* \"#utility.yul\":1181:1203   */\n  add\n    /* \"#utility.yul\":1149:1213   */\n  tag_16\n  jump\t// in\ntag_35:\n    /* \"#utility.yul\":1139:1213   */\n  swap4\n  pop\n    /* \"#utility.yul\":1095:1223   */\n  pop\n    /* \"#utility.yul\":1262:1264   */\n  0x20\n    /* \"#utility.yul\":1288:1352   */\n  tag_36\n    /* \"#utility.yul\":1344:1351   */\n  dup7\n    /* \"#utility.yul\":1335:1341   */\n  dup3\n    /* \"#utility.yul\":1324:1333   */\n  dup8\n    /* \"#utility.yul\":1320:1342   */\n  add\n    /* \"#utility.yul\":1288:1352   */\n  tag_16\n  jump\t// in\ntag_36:\n    /* \"#utility.yul\":1278:1352   */\n  swap3\n  pop\n    /* \"#utility.yul\":1233:1362   */\n  pop\n    /* \"#utility.yul\":1401:1403   */\n  0x40\n    /* \"#utility.yul\":1427:1491   */\n  tag_37\n    /* \"#utility.yul\":1483:1490   */\n  dup7\n    /* \"#utility.yul\":1474:1480   */\n  dup3\n    /* \"#utility.yul\":1463:1472   */\n  dup8\n    /* \"#utility.yul\":1459:1481   */\n  add\n    /* \"#utility.yul\":1427:1491   */\n  tag_16\n  jump\t// in\ntag_37:\n    /* \"#utility.yul\":1417:1491   */\n  swap2\n  pop\n    /* \"#utility.yul\":1372:1501   */\n  pop\n    /* \"#utility.yul\":845:1508   */\n  swap3\n  pop\n  swap3\n  pop\n  swap3\n  jump\t// out\n    /* \"#utility.yul\":1514:1683   */\ntag_17:\n    /* \"#utility.yul\":1598:1609   */\n  0x00\n    /* \"#utility.yul\":1632:1638   */\n  dup3\n    /* \"#utility.yul\":1627:1630   */\n  dup3\n    /* \"#utility.yul\":1620:1639   */\n  mstore\n    /* \"#utility.yul\":1672:1676   */\n  0x20\n    /* \"#utility.yul\":1667:1670   */\n  dup3\n    /* \"#utility.yul\":1663:1677   */\n  add\n    /* \"#utility.yul\":1648:1677   */\n  swap1\n  pop\n    /* \"#utility.yul\":1514:1683   */\n  swap3\n  swap2\n  pop\n  pop\n  jump\t// out\n    /* \"#utility.yul\":1689:1863   */\ntag_18:\n    /* \"#utility.yul\":1829:1855   */\n  0x546f6b656e73206d75737420626520646966666572656e740000000000000000\n    /* \"#utility.yul\":1825:1826   */\n  0x00\n    /* \"#utility.yul\":1817:1823   */\n  dup3\n    /* \"#utility.yul\":1813:1827   */\n  add\n    /* \"#utility.yul\":1806:1856   */\n  mstore\n    /* \"#utility.yul\":1689:1863   */\n  pop\n  jump\t// out\n    /* \"#utility.yul\":1869:2235   */\ntag_19:\n    /* \"#utility.yul\":2011:2014   */\n  0x00\n    /* \"#utility.yul\":2032:2099   */\n  tag_41\n    /* \"#utility.yul\":2096:2098   */\n  0x18\n    /* \"#utility.yul\":2091:2094   */\n  dup4\n    /* \"#utility.yul\":2032:2099   */\n  tag_17\n  jump\t// in\ntag_41:\n    /* \"#utility.yul\":2025:2099   */\n  swap2\n  pop\n    /* \"#utility.yul\":2108:2201   */\n  tag_42\n    /* \"#utility.yul\":2197:2200   */\n  dup3\n    /* \"#utility.yul\":2108:2201   */\n  tag_18\n  jump\t// in\ntag_42:\n    /* \"#utility.yul\":2226:2228   */\n  0x20\n    /* \"#utility.yul\":2221:2224   */\n  dup3\n    /* \"#utility.yul\":2217:2229   */\n  add\n    /* \"#utility.yul\":2210:2229   */\n  swap1\n  pop\n    /* \"#utility.yul\":1869:2235   */\n  swap2\n  swap1\n  pop\n  jump\t// out\n    /* \"#utility.yul\":2241:2660   */\ntag_8:\n    /* \"#utility.yul\":2407:2411   */\n  0x00\n    /* \"#utility.yul\":2445:2447   */\n  0x20\n    /* \"#utility.yul\":2434:2443   */\n  dup3\n    /* \"#utility.yul\":2430:2448   */\n  add\n    /* \"#utility.yul\":2422:2448   */\n  swap1\n  pop\n    /* \"#utility.yul\":2494:2503   */\n  dup2\n    /* \"#utility.yul\":2488:2492   */\n  dup2\n    /* \"#utility.yul\":2484:2504   */\n  sub\n    /* \"#utility.yul\":2480:2481   */\n  0x00\n    /* \"#utility.yul\":2469:2478   */\n  dup4\n    /* \"#utility.yul\":2465:2482   */\n  add\n    /* \"#utility.yul\":2458:2505   */\n  mstore\n    /* \"#utility.yul\":2522:2653   */\n  tag_44\n    /* \"#utility.yul\":2648:2652   */\n  dup2\n    /* \"#utility.yul\":2522:2653   */\n  tag_19\n  jump\t// in\ntag_44:\n    /* \"#utility.yul\":2514:2653   */\n  swap1\n  pop\n    /* \"#utility.yul\":2241:2660   */\n  swap2\n  swap1\n  pop\n  jump\t// out\n    /* \"SimpleSwap.sol\":1978:12389  contract SimpleSwap {... */\ntag_9:\n  mload(0x80)\n  mload(0xa0)\n  codecopy(0x00, dataOffset(sub_0), dataSize(sub_0))\n  0x00\n  assignImmutable(\"0x52f7a9acb346ac5a585f690689611848c26ca2f22b293bc6ea3f80896e3f8940\")\n  0x00\n  assignImmutable(\"0xc5bf1d490d2f4e87cc1d5184cd59114bcef0e857ac09f6d840a1caed5b52d973\")\n  return(0x00, dataSize(sub_0))\nstop\n\nsub_0: assembly {\n        /* \"SimpleSwap.sol\":1978:12389  contract SimpleSwap {... */\n      mstore(0x40, 0x80)\n      callvalue\n      dup1\n      iszero\n      tag_1\n      jumpi\n      revert(0x00, 0x00)\n    tag_1:\n      pop\n      jumpi(tag_2, lt(calldatasize, 0x04))\n      shr(0xe0, calldataload(0x00))\n      dup1\n      0x5fcbd285\n      gt\n      tag_15\n      jumpi\n      dup1\n      0x5fcbd285\n      eq\n      tag_9\n      jumpi\n      dup1\n      0x8da5cb5b\n      eq\n      tag_10\n      jumpi\n      dup1\n      0xac41865a\n      eq\n      tag_11\n      jumpi\n      dup1\n      0xbaa2abde\n      eq\n      tag_12\n      jumpi\n      dup1\n      0xdc5fa6c5\n      eq\n      tag_13\n      jumpi\n      dup1\n      0xe8e33700\n      eq\n      tag_14\n      jumpi\n      jump(tag_2)\n    tag_15:\n      dup1\n      0x0fc63d10\n      eq\n      tag_3\n      jumpi\n      dup1\n      0x15770f92\n      eq\n      tag_4\n      jumpi\n      dup1\n      0x19e36f3b\n      eq\n      tag_5\n      jumpi\n      dup1\n      0x38ed1739\n      eq\n      tag_6\n      jumpi\n      dup1\n      0x4aa06652\n      eq\n      tag_7\n      jumpi\n      dup1\n      0x5f64b55b\n      eq\n      tag_8\n      jumpi\n    tag_2:\n      revert(0x00, 0x00)\n        /* \"SimpleSwap.sol\":2084:2115  address public immutable tokenA */\n    tag_3:\n      tag_16\n      tag_17\n      jump\t// in\n    tag_16:\n      mload(0x40)\n      tag_18\n      swap2\n      swap1\n      tag_19\n      jump\t// in\n    tag_18:\n      mload(0x40)\n      dup1\n      swap2\n      sub\n      swap1\n      return\n        /* \"SimpleSwap.sol\":12270:12386  function totalLiquidity() public view returns (uint total) {... */\n    tag_4:\n      tag_20\n      tag_21\n      jump\t// in\n    tag_20:\n      mload(0x40)\n      tag_22\n      swap2\n      swap1\n      tag_23\n      jump\t// in\n    tag_22:\n      mload(0x40)\n      dup1\n      swap2\n      sub\n      swap1\n      return\n        /* \"SimpleSwap.sol\":2513:2533  uint public reserveB */\n    tag_5:\n      tag_24\n      tag_25\n      jump\t// in\n    tag_24:\n      mload(0x40)\n      tag_26\n      swap2\n      swap1\n      tag_23\n      jump\t// in\n    tag_26:\n      mload(0x40)\n      dup1\n      swap2\n      sub\n      swap1\n      return\n        /* \"SimpleSwap.sol\":8645:10478  function swapExactTokensForTokens(... */\n    tag_6:\n      tag_27\n      0x04\n      dup1\n      calldatasize\n      sub\n      dup2\n      add\n      swap1\n      tag_28\n      swap2\n      swap1\n      tag_29\n      jump\t// in\n    tag_28:\n      tag_30\n      jump\t// in\n    tag_27:\n      mload(0x40)\n      tag_31\n      swap2\n      swap1\n      tag_32\n      jump\t// in\n    tag_31:\n      mload(0x40)\n      dup1\n      swap2\n      sub\n      swap1\n      return\n        /* \"SimpleSwap.sol\":11460:12144  function getAmountOut(address tokenIn, address tokenOut, uint amountIn) external view returns (uint amountOut) {... */\n    tag_7:\n      tag_33\n      0x04\n      dup1\n      calldatasize\n      sub\n      dup2\n      add\n      swap1\n      tag_34\n      swap2\n      swap1\n      tag_35\n      jump\t// in\n    tag_34:\n      tag_36\n      jump\t// in\n    tag_33:\n      mload(0x40)\n      tag_37\n      swap2\n      swap1\n      tag_23\n      jump\t// in\n    tag_37:\n      mload(0x40)\n      dup1\n      swap2\n      sub\n      swap1\n      return\n        /* \"SimpleSwap.sol\":2170:2201  address public immutable tokenB */\n    tag_8:\n      tag_38\n      tag_39\n      jump\t// in\n    tag_38:\n      mload(0x40)\n      tag_40\n      swap2\n      swap1\n      tag_19\n      jump\t// in\n    tag_40:\n      mload(0x40)\n      dup1\n      swap2\n      sub\n      swap1\n      return\n        /* \"SimpleSwap.sol\":2338:2361  ILPToken public lpToken */\n    tag_9:\n      tag_41\n      tag_42\n      jump\t// in\n    tag_41:\n      mload(0x40)\n      tag_43\n      swap2\n      swap1\n      tag_44\n      jump\t// in\n    tag_43:\n      mload(0x40)\n      dup1\n      swap2\n      sub\n      swap1\n      return\n        /* \"SimpleSwap.sol\":2248:2268  address public owner */\n    tag_10:\n      tag_45\n      tag_46\n      jump\t// in\n    tag_45:\n      mload(0x40)\n      tag_47\n      swap2\n      swap1\n      tag_19\n      jump\t// in\n    tag_47:\n      mload(0x40)\n      dup1\n      swap2\n      sub\n      swap1\n      return\n        /* \"SimpleSwap.sol\":10727:11162  function getPrice(address base, address quote) external view returns (uint price) {... */\n    tag_11:\n      tag_48\n      0x04\n      dup1\n      calldatasize\n      sub\n      dup2\n      add\n      swap1\n      tag_49\n      swap2\n      swap1\n      tag_50\n      jump\t// in\n    tag_49:\n      tag_51\n      jump\t// in\n    tag_48:\n      mload(0x40)\n      tag_52\n      swap2\n      swap1\n      tag_23\n      jump\t// in\n    tag_52:\n      mload(0x40)\n      dup1\n      swap2\n      sub\n      swap1\n      return\n        /* \"SimpleSwap.sol\":6759:8152  function removeLiquidity(... */\n    tag_12:\n      tag_53\n      0x04\n      dup1\n      calldatasize\n      sub\n      dup2\n      add\n      swap1\n      tag_54\n      swap2\n      swap1\n      tag_55\n      jump\t// in\n    tag_54:\n      tag_56\n      jump\t// in\n    tag_53:\n      mload(0x40)\n      tag_57\n      swap3\n      swap2\n      swap1\n      tag_58\n      jump\t// in\n    tag_57:\n      mload(0x40)\n      dup1\n      swap2\n      sub\n      swap1\n      return\n        /* \"SimpleSwap.sol\":2428:2448  uint public reserveA */\n    tag_13:\n      tag_59\n      tag_60\n      jump\t// in\n    tag_59:\n      mload(0x40)\n      tag_61\n      swap2\n      swap1\n      tag_23\n      jump\t// in\n    tag_61:\n      mload(0x40)\n      dup1\n      swap2\n      sub\n      swap1\n      return\n        /* \"SimpleSwap.sol\":4142:6062  function addLiquidity(... */\n    tag_14:\n      tag_62\n      0x04\n      dup1\n      calldatasize\n      sub\n      dup2\n      add\n      swap1\n      tag_63\n      swap2\n      swap1\n      tag_64\n      jump\t// in\n    tag_63:\n      tag_65\n      jump\t// in\n    tag_62:\n      mload(0x40)\n      tag_66\n      swap4\n      swap3\n      swap2\n      swap1\n      tag_67\n      jump\t// in\n    tag_66:\n      mload(0x40)\n      dup1\n      swap2\n      sub\n      swap1\n      return\n        /* \"SimpleSwap.sol\":2084:2115  address public immutable tokenA */\n    tag_17:\n      immutable(\"0xc5bf1d490d2f4e87cc1d5184cd59114bcef0e857ac09f6d840a1caed5b52d973\")\n      dup2\n      jump\t// out\n        /* \"SimpleSwap.sol\":12270:12386  function totalLiquidity() public view returns (uint total) {... */\n    tag_21:\n        /* \"SimpleSwap.sol\":12317:12327  uint total */\n      0x00\n        /* \"SimpleSwap.sol\":12348:12378  Math.sqrt(reserveA * reserveB) */\n      tag_69\n        /* \"SimpleSwap.sol\":12369:12377  reserveB */\n      sload(0x03)\n        /* \"SimpleSwap.sol\":12358:12366  reserveA */\n      sload(0x02)\n        /* \"SimpleSwap.sol\":12358:12377  reserveA * reserveB */\n      tag_70\n      swap2\n      swap1\n      tag_71\n      jump\t// in\n    tag_70:\n        /* \"SimpleSwap.sol\":12348:12357  Math.sqrt */\n      tag_72\n        /* \"SimpleSwap.sol\":12348:12378  Math.sqrt(reserveA * reserveB) */\n      jump\t// in\n    tag_69:\n        /* \"SimpleSwap.sol\":12340:12378  total = Math.sqrt(reserveA * reserveB) */\n      swap1\n      pop\n        /* \"SimpleSwap.sol\":12270:12386  function totalLiquidity() public view returns (uint total) {... */\n      swap1\n      jump\t// out\n        /* \"SimpleSwap.sol\":2513:2533  uint public reserveB */\n    tag_25:\n      sload(0x03)\n      dup2\n      jump\t// out\n        /* \"SimpleSwap.sol\":8645:10478  function swapExactTokensForTokens(... */\n    tag_30:\n        /* \"SimpleSwap.sol\":8835:8856  uint[] memory amounts */\n      0x60\n        /* \"SimpleSwap.sol\":8896:8904  deadline */\n      dup2\n        /* \"SimpleSwap.sol\":8877:8892  block.timestamp */\n      timestamp\n        /* \"SimpleSwap.sol\":8877:8904  block.timestamp <= deadline */\n      gt\n      iszero\n        /* \"SimpleSwap.sol\":8869:8928  require(block.timestamp <= deadline, \"Transaction expired\") */\n      tag_74\n      jumpi\n      mload(0x40)\n      0x08c379a000000000000000000000000000000000000000000000000000000000\n      dup2\n      mstore\n      0x04\n      add\n      tag_75\n      swap1\n      tag_76\n      jump\t// in\n    tag_75:\n      mload(0x40)\n      dup1\n      swap2\n      sub\n      swap1\n      revert\n    tag_74:\n        /* \"SimpleSwap.sol\":8962:8963  2 */\n      0x02\n        /* \"SimpleSwap.sol\":8947:8951  path */\n      dup6\n      dup6\n        /* \"SimpleSwap.sol\":8947:8958  path.length */\n      swap1\n      pop\n        /* \"SimpleSwap.sol\":8947:8963  path.length == 2 */\n      eq\n        /* \"SimpleSwap.sol\":8939:9001  require(path.length == 2, \"Only direct token swaps supported\") */\n      tag_77\n      jumpi\n      mload(0x40)\n      0x08c379a000000000000000000000000000000000000000000000000000000000\n      dup2\n      mstore\n      0x04\n      add\n      tag_78\n      swap1\n      tag_79\n      jump\t// in\n    tag_78:\n      mload(0x40)\n      dup1\n      swap2\n      sub\n      swap1\n      revert\n    tag_77:\n        /* \"SimpleSwap.sol\":9014:9027  address input */\n      0x00\n        /* \"SimpleSwap.sol\":9030:9034  path */\n      dup6\n      dup6\n        /* \"SimpleSwap.sol\":9035:9036  0 */\n      0x00\n        /* \"SimpleSwap.sol\":9030:9037  path[0] */\n      dup2\n      dup2\n      lt\n      tag_80\n      jumpi\n      tag_81\n      tag_82\n      jump\t// in\n    tag_81:\n    tag_80:\n      swap1\n      pop\n      0x20\n      mul\n      add\n      0x20\n      dup2\n      add\n      swap1\n      tag_83\n      swap2\n      swap1\n      tag_84\n      jump\t// in\n    tag_83:\n        /* \"SimpleSwap.sol\":9014:9037  address input = path[0] */\n      swap1\n      pop\n        /* \"SimpleSwap.sol\":9048:9062  address output */\n      0x00\n        /* \"SimpleSwap.sol\":9065:9069  path */\n      dup7\n      dup7\n        /* \"SimpleSwap.sol\":9070:9071  1 */\n      0x01\n        /* \"SimpleSwap.sol\":9065:9072  path[1] */\n      dup2\n      dup2\n      lt\n      tag_85\n      jumpi\n      tag_86\n      tag_82\n      jump\t// in\n    tag_86:\n    tag_85:\n      swap1\n      pop\n      0x20\n      mul\n      add\n      0x20\n      dup2\n      add\n      swap1\n      tag_87\n      swap2\n      swap1\n      tag_84\n      jump\t// in\n    tag_87:\n        /* \"SimpleSwap.sol\":9048:9072  address output = path[1] */\n      swap1\n      pop\n        /* \"SimpleSwap.sol\":9115:9121  tokenA */\n      immutable(\"0xc5bf1d490d2f4e87cc1d5184cd59114bcef0e857ac09f6d840a1caed5b52d973\")\n        /* \"SimpleSwap.sol\":9106:9121  input == tokenA */\n      0xffffffffffffffffffffffffffffffffffffffff\n      and\n        /* \"SimpleSwap.sol\":9106:9111  input */\n      dup3\n        /* \"SimpleSwap.sol\":9106:9121  input == tokenA */\n      0xffffffffffffffffffffffffffffffffffffffff\n      and\n      eq\n        /* \"SimpleSwap.sol\":9106:9141  input == tokenA && output == tokenB */\n      dup1\n      iszero\n      tag_88\n      jumpi\n      pop\n        /* \"SimpleSwap.sol\":9135:9141  tokenB */\n      immutable(\"0x52f7a9acb346ac5a585f690689611848c26ca2f22b293bc6ea3f80896e3f8940\")\n        /* \"SimpleSwap.sol\":9125:9141  output == tokenB */\n      0xffffffffffffffffffffffffffffffffffffffff\n      and\n        /* \"SimpleSwap.sol\":9125:9131  output */\n      dup2\n        /* \"SimpleSwap.sol\":9125:9141  output == tokenB */\n      0xffffffffffffffffffffffffffffffffffffffff\n      and\n      eq\n        /* \"SimpleSwap.sol\":9106:9141  input == tokenA && output == tokenB */\n    tag_88:\n        /* \"SimpleSwap.sol\":9105:9183  (input == tokenA && output == tokenB) || (input == tokenB && output == tokenA) */\n      dup1\n      tag_89\n      jumpi\n      pop\n        /* \"SimpleSwap.sol\":9156:9162  tokenB */\n      immutable(\"0x52f7a9acb346ac5a585f690689611848c26ca2f22b293bc6ea3f80896e3f8940\")\n        /* \"SimpleSwap.sol\":9147:9162  input == tokenB */\n      0xffffffffffffffffffffffffffffffffffffffff\n      and\n        /* \"SimpleSwap.sol\":9147:9152  input */\n      dup3\n        /* \"SimpleSwap.sol\":9147:9162  input == tokenB */\n      0xffffffffffffffffffffffffffffffffffffffff\n      and\n      eq\n        /* \"SimpleSwap.sol\":9147:9182  input == tokenB && output == tokenA */\n      dup1\n      iszero\n      tag_90\n      jumpi\n      pop\n        /* \"SimpleSwap.sol\":9176:9182  tokenA */\n      immutable(\"0xc5bf1d490d2f4e87cc1d5184cd59114bcef0e857ac09f6d840a1caed5b52d973\")\n        /* \"SimpleSwap.sol\":9166:9182  output == tokenA */\n      0xffffffffffffffffffffffffffffffffffffffff\n      and\n        /* \"SimpleSwap.sol\":9166:9172  output */\n      dup2\n        /* \"SimpleSwap.sol\":9166:9182  output == tokenA */\n      0xffffffffffffffffffffffffffffffffffffffff\n      and\n      eq\n        /* \"SimpleSwap.sol\":9147:9182  input == tokenB && output == tokenA */\n    tag_90:\n        /* \"SimpleSwap.sol\":9105:9183  (input == tokenA && output == tokenB) || (input == tokenB && output == tokenA) */\n    tag_89:\n        /* \"SimpleSwap.sol\":9083:9229  require(... */\n      tag_91\n      jumpi\n      mload(0x40)\n      0x08c379a000000000000000000000000000000000000000000000000000000000\n      dup2\n      mstore\n      0x04\n      add\n      tag_92\n      swap1\n      tag_93\n      jump\t// in\n    tag_92:\n      mload(0x40)\n      dup1\n      swap2\n      sub\n      swap1\n      revert\n    tag_91:\n        /* \"SimpleSwap.sol\":9303:9308  input */\n      dup2\n        /* \"SimpleSwap.sol\":9296:9322  IERC20(input).transferFrom */\n      0xffffffffffffffffffffffffffffffffffffffff\n      and\n      0x23b872dd\n        /* \"SimpleSwap.sol\":9323:9333  msg.sender */\n      caller\n        /* \"SimpleSwap.sol\":9343:9347  this */\n      address\n        /* \"SimpleSwap.sol\":9350:9358  amountIn */\n      dup13\n        /* \"SimpleSwap.sol\":9296:9359  IERC20(input).transferFrom(msg.sender, address(this), amountIn) */\n      mload(0x40)\n      dup5\n      0xffffffff\n      and\n      0xe0\n      shl\n      dup2\n      mstore\n      0x04\n      add\n      tag_94\n      swap4\n      swap3\n      swap2\n      swap1\n      tag_95\n      jump\t// in\n    tag_94:\n      0x20\n      mload(0x40)\n      dup1\n      dup4\n      sub\n      dup2\n      0x00\n      dup8\n      gas\n      call\n      iszero\n      dup1\n      iszero\n      tag_97\n      jumpi\n      returndatacopy(0x00, 0x00, returndatasize)\n      revert(0x00, returndatasize)\n    tag_97:\n      pop\n      pop\n      pop\n      pop\n      mload(0x40)\n      returndatasize\n      not(0x1f)\n      0x1f\n      dup3\n      add\n      and\n      dup3\n      add\n      dup1\n      0x40\n      mstore\n      pop\n      dup2\n      add\n      swap1\n      tag_98\n      swap2\n      swap1\n      tag_99\n      jump\t// in\n    tag_98:\n        /* \"SimpleSwap.sol\":9288:9383  require(IERC20(input).transferFrom(msg.sender, address(this), amountIn), \"TransferFrom failed\") */\n      tag_100\n      jumpi\n      mload(0x40)\n      0x08c379a000000000000000000000000000000000000000000000000000000000\n      dup2\n      mstore\n      0x04\n      add\n      tag_101\n      swap1\n      tag_102\n      jump\t// in\n    tag_101:\n      mload(0x40)\n      dup1\n      swap2\n      sub\n      swap1\n      revert\n    tag_100:\n        /* \"SimpleSwap.sol\":9396:9416  uint amountInWithFee */\n      0x00\n        /* \"SimpleSwap.sol\":9430:9433  997 */\n      0x03e5\n        /* \"SimpleSwap.sol\":9419:9427  amountIn */\n      dup11\n        /* \"SimpleSwap.sol\":9419:9433  amountIn * 997 */\n      tag_103\n      swap2\n      swap1\n      tag_71\n      jump\t// in\n    tag_103:\n        /* \"SimpleSwap.sol\":9396:9433  uint amountInWithFee = amountIn * 997 */\n      swap1\n      pop\n        /* \"SimpleSwap.sol\":9456:9470  uint numerator */\n      0x00\n        /* \"SimpleSwap.sol\":9481:9497  uint denominator */\n      0x00\n        /* \"SimpleSwap.sol\":9508:9522  uint amountOut */\n      0x00\n        /* \"SimpleSwap.sol\":9548:9554  tokenA */\n      immutable(\"0xc5bf1d490d2f4e87cc1d5184cd59114bcef0e857ac09f6d840a1caed5b52d973\")\n        /* \"SimpleSwap.sol\":9539:9554  input == tokenA */\n      0xffffffffffffffffffffffffffffffffffffffff\n      and\n        /* \"SimpleSwap.sol\":9539:9544  input */\n      dup7\n        /* \"SimpleSwap.sol\":9539:9554  input == tokenA */\n      0xffffffffffffffffffffffffffffffffffffffff\n      and\n      sub\n        /* \"SimpleSwap.sol\":9535:10202  if (input == tokenA) {... */\n      tag_104\n      jumpi\n        /* \"SimpleSwap.sol\":9601:9609  reserveB */\n      sload(0x03)\n        /* \"SimpleSwap.sol\":9583:9598  amountInWithFee */\n      dup5\n        /* \"SimpleSwap.sol\":9583:9609  amountInWithFee * reserveB */\n      tag_105\n      swap2\n      swap1\n      tag_71\n      jump\t// in\n    tag_105:\n        /* \"SimpleSwap.sol\":9571:9609  numerator = amountInWithFee * reserveB */\n      swap3\n      pop\n        /* \"SimpleSwap.sol\":9656:9671  amountInWithFee */\n      dup4\n        /* \"SimpleSwap.sol\":9649:9653  1000 */\n      0x03e8\n        /* \"SimpleSwap.sol\":9638:9646  reserveA */\n      sload(0x02)\n        /* \"SimpleSwap.sol\":9638:9653  reserveA * 1000 */\n      tag_106\n      swap2\n      swap1\n      tag_71\n      jump\t// in\n    tag_106:\n        /* \"SimpleSwap.sol\":9638:9671  reserveA * 1000 + amountInWithFee */\n      tag_107\n      swap2\n      swap1\n      tag_108\n      jump\t// in\n    tag_107:\n        /* \"SimpleSwap.sol\":9624:9671  denominator = reserveA * 1000 + amountInWithFee */\n      swap2\n      pop\n        /* \"SimpleSwap.sol\":9710:9721  denominator */\n      dup2\n        /* \"SimpleSwap.sol\":9698:9707  numerator */\n      dup4\n        /* \"SimpleSwap.sol\":9698:9721  numerator / denominator */\n      tag_109\n      swap2\n      swap1\n      tag_110\n      jump\t// in\n    tag_109:\n        /* \"SimpleSwap.sol\":9686:9721  amountOut = numerator / denominator */\n      swap1\n      pop\n        /* \"SimpleSwap.sol\":9757:9769  amountOutMin */\n      dup12\n        /* \"SimpleSwap.sol\":9744:9753  amountOut */\n      dup2\n        /* \"SimpleSwap.sol\":9744:9769  amountOut >= amountOutMin */\n      lt\n      iszero\n        /* \"SimpleSwap.sol\":9736:9793  require(amountOut >= amountOutMin, \"Insufficient output\") */\n      tag_111\n      jumpi\n      mload(0x40)\n      0x08c379a000000000000000000000000000000000000000000000000000000000\n      dup2\n      mstore\n      0x04\n      add\n      tag_112\n      swap1\n      tag_113\n      jump\t// in\n    tag_112:\n      mload(0x40)\n      dup1\n      swap2\n      sub\n      swap1\n      revert\n    tag_111:\n        /* \"SimpleSwap.sol\":9820:9828  amountIn */\n      dup13\n        /* \"SimpleSwap.sol\":9808:9816  reserveA */\n      0x02\n      0x00\n        /* \"SimpleSwap.sol\":9808:9828  reserveA += amountIn */\n      dup3\n      dup3\n      sload\n      tag_114\n      swap2\n      swap1\n      tag_108\n      jump\t// in\n    tag_114:\n      swap3\n      pop\n      pop\n      dup2\n      swap1\n      sstore\n      pop\n        /* \"SimpleSwap.sol\":9855:9864  amountOut */\n      dup1\n        /* \"SimpleSwap.sol\":9843:9851  reserveB */\n      0x03\n      0x00\n        /* \"SimpleSwap.sol\":9843:9864  reserveB -= amountOut */\n      dup3\n      dup3\n      sload\n      tag_115\n      swap2\n      swap1\n      tag_116\n      jump\t// in\n    tag_115:\n      swap3\n      pop\n      pop\n      dup2\n      swap1\n      sstore\n      pop\n        /* \"SimpleSwap.sol\":9535:10202  if (input == tokenA) {... */\n      jump(tag_117)\n    tag_104:\n        /* \"SimpleSwap.sol\":9927:9935  reserveA */\n      sload(0x02)\n        /* \"SimpleSwap.sol\":9909:9924  amountInWithFee */\n      dup5\n        /* \"SimpleSwap.sol\":9909:9935  amountInWithFee * reserveA */\n      tag_118\n      swap2\n      swap1\n      tag_71\n      jump\t// in\n    tag_118:\n        /* \"SimpleSwap.sol\":9897:9935  numerator = amountInWithFee * reserveA */\n      swap3\n      pop\n        /* \"SimpleSwap.sol\":9982:9997  amountInWithFee */\n      dup4\n        /* \"SimpleSwap.sol\":9975:9979  1000 */\n      0x03e8\n        /* \"SimpleSwap.sol\":9964:9972  reserveB */\n      sload(0x03)\n        /* \"SimpleSwap.sol\":9964:9979  reserveB * 1000 */\n      tag_119\n      swap2\n      swap1\n      tag_71\n      jump\t// in\n    tag_119:\n        /* \"SimpleSwap.sol\":9964:9997  reserveB * 1000 + amountInWithFee */\n      tag_120\n      swap2\n      swap1\n      tag_108\n      jump\t// in\n    tag_120:\n        /* \"SimpleSwap.sol\":9950:9997  denominator = reserveB * 1000 + amountInWithFee */\n      swap2\n      pop\n        /* \"SimpleSwap.sol\":10036:10047  denominator */\n      dup2\n        /* \"SimpleSwap.sol\":10024:10033  numerator */\n      dup4\n        /* \"SimpleSwap.sol\":10024:10047  numerator / denominator */\n      tag_121\n      swap2\n      swap1\n      tag_110\n      jump\t// in\n    tag_121:\n        /* \"SimpleSwap.sol\":10012:10047  amountOut = numerator / denominator */\n      swap1\n      pop\n        /* \"SimpleSwap.sol\":10083:10095  amountOutMin */\n      dup12\n        /* \"SimpleSwap.sol\":10070:10079  amountOut */\n      dup2\n        /* \"SimpleSwap.sol\":10070:10095  amountOut >= amountOutMin */\n      lt\n      iszero\n        /* \"SimpleSwap.sol\":10062:10119  require(amountOut >= amountOutMin, \"Insufficient output\") */\n      tag_122\n      jumpi\n      mload(0x40)\n      0x08c379a000000000000000000000000000000000000000000000000000000000\n      dup2\n      mstore\n      0x04\n      add\n      tag_123\n      swap1\n      tag_113\n      jump\t// in\n    tag_123:\n      mload(0x40)\n      dup1\n      swap2\n      sub\n      swap1\n      revert\n    tag_122:\n        /* \"SimpleSwap.sol\":10146:10154  amountIn */\n      dup13\n        /* \"SimpleSwap.sol\":10134:10142  reserveB */\n      0x03\n      0x00\n        /* \"SimpleSwap.sol\":10134:10154  reserveB += amountIn */\n      dup3\n      dup3\n      sload\n      tag_124\n      swap2\n      swap1\n      tag_108\n      jump\t// in\n    tag_124:\n      swap3\n      pop\n      pop\n      dup2\n      swap1\n      sstore\n      pop\n        /* \"SimpleSwap.sol\":10181:10190  amountOut */\n      dup1\n        /* \"SimpleSwap.sol\":10169:10177  reserveA */\n      0x02\n      0x00\n        /* \"SimpleSwap.sol\":10169:10190  reserveA -= amountOut */\n      dup3\n      dup3\n      sload\n      tag_125\n      swap2\n      swap1\n      tag_116\n      jump\t// in\n    tag_125:\n      swap3\n      pop\n      pop\n      dup2\n      swap1\n      sstore\n      pop\n        /* \"SimpleSwap.sol\":9535:10202  if (input == tokenA) {... */\n    tag_117:\n        /* \"SimpleSwap.sol\":10277:10283  output */\n      dup5\n        /* \"SimpleSwap.sol\":10270:10293  IERC20(output).transfer */\n      0xffffffffffffffffffffffffffffffffffffffff\n      and\n      0xa9059cbb\n        /* \"SimpleSwap.sol\":10294:10296  to */\n      dup11\n        /* \"SimpleSwap.sol\":10298:10307  amountOut */\n      dup4\n        /* \"SimpleSwap.sol\":10270:10308  IERC20(output).transfer(to, amountOut) */\n      mload(0x40)\n      dup4\n      0xffffffff\n      and\n      0xe0\n      shl\n      dup2\n      mstore\n      0x04\n      add\n      tag_126\n      swap3\n      swap2\n      swap1\n      tag_127\n      jump\t// in\n    tag_126:\n      0x20\n      mload(0x40)\n      dup1\n      dup4\n      sub\n      dup2\n      0x00\n      dup8\n      gas\n      call\n      iszero\n      dup1\n      iszero\n      tag_129\n      jumpi\n      returndatacopy(0x00, 0x00, returndatasize)\n      revert(0x00, returndatasize)\n    tag_129:\n      pop\n      pop\n      pop\n      pop\n      mload(0x40)\n      returndatasize\n      not(0x1f)\n      0x1f\n      dup3\n      add\n      and\n      dup3\n      add\n      dup1\n      0x40\n      mstore\n      pop\n      dup2\n      add\n      swap1\n      tag_130\n      swap2\n      swap1\n      tag_99\n      jump\t// in\n    tag_130:\n        /* \"SimpleSwap.sol\":10262:10335  require(IERC20(output).transfer(to, amountOut), \"Transfer output failed\") */\n      tag_131\n      jumpi\n      mload(0x40)\n      0x08c379a000000000000000000000000000000000000000000000000000000000\n      dup2\n      mstore\n      0x04\n      add\n      tag_132\n      swap1\n      tag_133\n      jump\t// in\n    tag_132:\n      mload(0x40)\n      dup1\n      swap2\n      sub\n      swap1\n      revert\n    tag_131:\n        /* \"SimpleSwap.sol\":10402:10403  1 */\n      0x01\n        /* \"SimpleSwap.sol\":10390:10404  new uint [](1) */\n      0xffffffffffffffff\n      dup2\n      gt\n      iszero\n      tag_134\n      jumpi\n      tag_135\n      tag_136\n      jump\t// in\n    tag_135:\n    tag_134:\n      mload(0x40)\n      swap1\n      dup1\n      dup3\n      mstore\n      dup1\n      0x20\n      mul\n      0x20\n      add\n      dup3\n      add\n      0x40\n      mstore\n      dup1\n      iszero\n      tag_137\n      jumpi\n      dup2\n      0x20\n      add\n      0x20\n      dup3\n      mul\n      dup1\n      calldatasize\n      dup4\n      calldatacopy\n      dup1\n      dup3\n      add\n      swap2\n      pop\n      pop\n      swap1\n      pop\n    tag_137:\n      pop\n        /* \"SimpleSwap.sol\":10380:10404  amounts = new uint [](1) */\n      swap7\n      pop\n        /* \"SimpleSwap.sol\":10429:10437  amountIn */\n      dup13\n        /* \"SimpleSwap.sol\":10416:10423  amounts */\n      dup8\n        /* \"SimpleSwap.sol\":10424:10425  0 */\n      0x00\n        /* \"SimpleSwap.sol\":10416:10426  amounts[0] */\n      dup2\n      mload\n      dup2\n      lt\n      tag_138\n      jumpi\n      tag_139\n      tag_82\n      jump\t// in\n    tag_139:\n    tag_138:\n      0x20\n      mul\n      0x20\n      add\n      add\n        /* \"SimpleSwap.sol\":10416:10437  amounts[0] = amountIn */\n      dup2\n      dup2\n      mstore\n      pop\n      pop\n        /* \"SimpleSwap.sol\":10461:10470  amountOut */\n      dup1\n        /* \"SimpleSwap.sol\":10448:10455  amounts */\n      dup8\n        /* \"SimpleSwap.sol\":10456:10457  1 */\n      0x01\n        /* \"SimpleSwap.sol\":10448:10458  amounts[1] */\n      dup2\n      mload\n      dup2\n      lt\n      tag_140\n      jumpi\n      tag_141\n      tag_82\n      jump\t// in\n    tag_141:\n    tag_140:\n      0x20\n      mul\n      0x20\n      add\n      add\n        /* \"SimpleSwap.sol\":10448:10470  amounts[1] = amountOut */\n      dup2\n      dup2\n      mstore\n      pop\n      pop\n        /* \"SimpleSwap.sol\":8858:10478  {... */\n      pop\n      pop\n      pop\n      pop\n      pop\n      pop\n        /* \"SimpleSwap.sol\":8645:10478  function swapExactTokensForTokens(... */\n      swap7\n      swap6\n      pop\n      pop\n      pop\n      pop\n      pop\n      pop\n      jump\t// out\n        /* \"SimpleSwap.sol\":11460:12144  function getAmountOut(address tokenIn, address tokenOut, uint amountIn) external view returns (uint amountOut) {... */\n    tag_36:\n        /* \"SimpleSwap.sol\":11555:11569  uint amountOut */\n      0x00\n        /* \"SimpleSwap.sol\":11601:11602  0 */\n      0x00\n        /* \"SimpleSwap.sol\":11590:11598  amountIn */\n      dup3\n        /* \"SimpleSwap.sol\":11590:11602  amountIn > 0 */\n      gt\n        /* \"SimpleSwap.sol\":11582:11620  require(amountIn > 0, \"Invalid input\") */\n      tag_143\n      jumpi\n      mload(0x40)\n      0x08c379a000000000000000000000000000000000000000000000000000000000\n      dup2\n      mstore\n      0x04\n      add\n      tag_144\n      swap1\n      tag_145\n      jump\t// in\n    tag_144:\n      mload(0x40)\n      dup1\n      swap2\n      sub\n      swap1\n      revert\n    tag_143:\n        /* \"SimpleSwap.sol\":11665:11671  tokenA */\n      immutable(\"0xc5bf1d490d2f4e87cc1d5184cd59114bcef0e857ac09f6d840a1caed5b52d973\")\n        /* \"SimpleSwap.sol\":11654:11671  tokenIn == tokenA */\n      0xffffffffffffffffffffffffffffffffffffffff\n      and\n        /* \"SimpleSwap.sol\":11654:11661  tokenIn */\n      dup5\n        /* \"SimpleSwap.sol\":11654:11671  tokenIn == tokenA */\n      0xffffffffffffffffffffffffffffffffffffffff\n      and\n      eq\n        /* \"SimpleSwap.sol\":11654:11693  tokenIn == tokenA && tokenOut == tokenB */\n      dup1\n      iszero\n      tag_146\n      jumpi\n      pop\n        /* \"SimpleSwap.sol\":11687:11693  tokenB */\n      immutable(\"0x52f7a9acb346ac5a585f690689611848c26ca2f22b293bc6ea3f80896e3f8940\")\n        /* \"SimpleSwap.sol\":11675:11693  tokenOut == tokenB */\n      0xffffffffffffffffffffffffffffffffffffffff\n      and\n        /* \"SimpleSwap.sol\":11675:11683  tokenOut */\n      dup4\n        /* \"SimpleSwap.sol\":11675:11693  tokenOut == tokenB */\n      0xffffffffffffffffffffffffffffffffffffffff\n      and\n      eq\n        /* \"SimpleSwap.sol\":11654:11693  tokenIn == tokenA && tokenOut == tokenB */\n    tag_146:\n        /* \"SimpleSwap.sol\":11653:11739  (tokenIn == tokenA && tokenOut == tokenB) || (tokenIn == tokenB && tokenOut == tokenA) */\n      dup1\n      tag_147\n      jumpi\n      pop\n        /* \"SimpleSwap.sol\":11710:11716  tokenB */\n      immutable(\"0x52f7a9acb346ac5a585f690689611848c26ca2f22b293bc6ea3f80896e3f8940\")\n        /* \"SimpleSwap.sol\":11699:11716  tokenIn == tokenB */\n      0xffffffffffffffffffffffffffffffffffffffff\n      and\n        /* \"SimpleSwap.sol\":11699:11706  tokenIn */\n      dup5\n        /* \"SimpleSwap.sol\":11699:11716  tokenIn == tokenB */\n      0xffffffffffffffffffffffffffffffffffffffff\n      and\n      eq\n        /* \"SimpleSwap.sol\":11699:11738  tokenIn == tokenB && tokenOut == tokenA */\n      dup1\n      iszero\n      tag_148\n      jumpi\n      pop\n        /* \"SimpleSwap.sol\":11732:11738  tokenA */\n      immutable(\"0xc5bf1d490d2f4e87cc1d5184cd59114bcef0e857ac09f6d840a1caed5b52d973\")\n        /* \"SimpleSwap.sol\":11720:11738  tokenOut == tokenA */\n      0xffffffffffffffffffffffffffffffffffffffff\n      and\n        /* \"SimpleSwap.sol\":11720:11728  tokenOut */\n      dup4\n        /* \"SimpleSwap.sol\":11720:11738  tokenOut == tokenA */\n      0xffffffffffffffffffffffffffffffffffffffff\n      and\n      eq\n        /* \"SimpleSwap.sol\":11699:11738  tokenIn == tokenB && tokenOut == tokenA */\n    tag_148:\n        /* \"SimpleSwap.sol\":11653:11739  (tokenIn == tokenA && tokenOut == tokenB) || (tokenIn == tokenB && tokenOut == tokenA) */\n    tag_147:\n        /* \"SimpleSwap.sol\":11631:11781  require(... */\n      tag_149\n      jumpi\n      mload(0x40)\n      0x08c379a000000000000000000000000000000000000000000000000000000000\n      dup2\n      mstore\n      0x04\n      add\n      tag_150\n      swap1\n      tag_151\n      jump\t// in\n    tag_150:\n      mload(0x40)\n      dup1\n      swap2\n      sub\n      swap1\n      revert\n    tag_149:\n        /* \"SimpleSwap.sol\":11794:11808  uint reserveIn */\n      0x00\n        /* \"SimpleSwap.sol\":11823:11829  tokenA */\n      immutable(\"0xc5bf1d490d2f4e87cc1d5184cd59114bcef0e857ac09f6d840a1caed5b52d973\")\n        /* \"SimpleSwap.sol\":11812:11829  tokenIn == tokenA */\n      0xffffffffffffffffffffffffffffffffffffffff\n      and\n        /* \"SimpleSwap.sol\":11812:11819  tokenIn */\n      dup6\n        /* \"SimpleSwap.sol\":11812:11829  tokenIn == tokenA */\n      0xffffffffffffffffffffffffffffffffffffffff\n      and\n      eq\n        /* \"SimpleSwap.sol\":11811:11852  (tokenIn == tokenA) ? reserveA : reserveB */\n      tag_152\n      jumpi\n        /* \"SimpleSwap.sol\":11844:11852  reserveB */\n      sload(0x03)\n        /* \"SimpleSwap.sol\":11811:11852  (tokenIn == tokenA) ? reserveA : reserveB */\n      jump(tag_153)\n    tag_152:\n        /* \"SimpleSwap.sol\":11833:11841  reserveA */\n      sload(0x02)\n        /* \"SimpleSwap.sol\":11811:11852  (tokenIn == tokenA) ? reserveA : reserveB */\n    tag_153:\n        /* \"SimpleSwap.sol\":11794:11852  uint reserveIn = (tokenIn == tokenA) ? reserveA : reserveB */\n      swap1\n      pop\n        /* \"SimpleSwap.sol\":11863:11878  uint reserveOut */\n      0x00\n        /* \"SimpleSwap.sol\":11894:11900  tokenA */\n      immutable(\"0xc5bf1d490d2f4e87cc1d5184cd59114bcef0e857ac09f6d840a1caed5b52d973\")\n        /* \"SimpleSwap.sol\":11882:11900  tokenOut == tokenA */\n      0xffffffffffffffffffffffffffffffffffffffff\n      and\n        /* \"SimpleSwap.sol\":11882:11890  tokenOut */\n      dup6\n        /* \"SimpleSwap.sol\":11882:11900  tokenOut == tokenA */\n      0xffffffffffffffffffffffffffffffffffffffff\n      and\n      eq\n        /* \"SimpleSwap.sol\":11881:11923  (tokenOut == tokenA) ? reserveA : reserveB */\n      tag_154\n      jumpi\n        /* \"SimpleSwap.sol\":11915:11923  reserveB */\n      sload(0x03)\n        /* \"SimpleSwap.sol\":11881:11923  (tokenOut == tokenA) ? reserveA : reserveB */\n      jump(tag_155)\n    tag_154:\n        /* \"SimpleSwap.sol\":11904:11912  reserveA */\n      sload(0x02)\n        /* \"SimpleSwap.sol\":11881:11923  (tokenOut == tokenA) ? reserveA : reserveB */\n    tag_155:\n        /* \"SimpleSwap.sol\":11863:11923  uint reserveOut = (tokenOut == tokenA) ? reserveA : reserveB */\n      swap1\n      pop\n        /* \"SimpleSwap.sol\":11956:11957  0 */\n      0x00\n        /* \"SimpleSwap.sol\":11944:11953  reserveIn */\n      dup3\n        /* \"SimpleSwap.sol\":11944:11957  reserveIn > 0 */\n      gt\n        /* \"SimpleSwap.sol\":11944:11975  reserveIn > 0 && reserveOut > 0 */\n      dup1\n      iszero\n      tag_156\n      jumpi\n      pop\n        /* \"SimpleSwap.sol\":11974:11975  0 */\n      0x00\n        /* \"SimpleSwap.sol\":11961:11971  reserveOut */\n      dup2\n        /* \"SimpleSwap.sol\":11961:11975  reserveOut > 0 */\n      gt\n        /* \"SimpleSwap.sol\":11944:11975  reserveIn > 0 && reserveOut > 0 */\n    tag_156:\n        /* \"SimpleSwap.sol\":11936:11992  require(reserveIn > 0 && reserveOut > 0, \"No liquidity\") */\n      tag_157\n      jumpi\n      mload(0x40)\n      0x08c379a000000000000000000000000000000000000000000000000000000000\n      dup2\n      mstore\n      0x04\n      add\n      tag_158\n      swap1\n      tag_159\n      jump\t// in\n    tag_158:\n      mload(0x40)\n      dup1\n      swap2\n      sub\n      swap1\n      revert\n    tag_157:\n        /* \"SimpleSwap.sol\":12005:12025  uint amountInWithFee */\n      0x00\n        /* \"SimpleSwap.sol\":12039:12042  997 */\n      0x03e5\n        /* \"SimpleSwap.sol\":12028:12036  amountIn */\n      dup6\n        /* \"SimpleSwap.sol\":12028:12042  amountIn * 997 */\n      tag_160\n      swap2\n      swap1\n      tag_71\n      jump\t// in\n    tag_160:\n        /* \"SimpleSwap.sol\":12005:12042  uint amountInWithFee = amountIn * 997 */\n      swap1\n      pop\n        /* \"SimpleSwap.sol\":12120:12135  amountInWithFee */\n      dup1\n        /* \"SimpleSwap.sol\":12113:12117  1000 */\n      0x03e8\n        /* \"SimpleSwap.sol\":12101:12110  reserveIn */\n      dup5\n        /* \"SimpleSwap.sol\":12101:12117  reserveIn * 1000 */\n      tag_161\n      swap2\n      swap1\n      tag_71\n      jump\t// in\n    tag_161:\n        /* \"SimpleSwap.sol\":12101:12135  reserveIn * 1000 + amountInWithFee */\n      tag_162\n      swap2\n      swap1\n      tag_108\n      jump\t// in\n    tag_162:\n        /* \"SimpleSwap.sol\":12086:12096  reserveOut */\n      dup3\n        /* \"SimpleSwap.sol\":12068:12083  amountInWithFee */\n      dup3\n        /* \"SimpleSwap.sol\":12068:12096  amountInWithFee * reserveOut */\n      tag_163\n      swap2\n      swap1\n      tag_71\n      jump\t// in\n    tag_163:\n        /* \"SimpleSwap.sol\":12067:12136  (amountInWithFee * reserveOut) / (reserveIn * 1000 + amountInWithFee) */\n      tag_164\n      swap2\n      swap1\n      tag_110\n      jump\t// in\n    tag_164:\n        /* \"SimpleSwap.sol\":12055:12136  amountOut = (amountInWithFee * reserveOut) / (reserveIn * 1000 + amountInWithFee) */\n      swap4\n      pop\n        /* \"SimpleSwap.sol\":11571:12144  {... */\n      pop\n      pop\n      pop\n        /* \"SimpleSwap.sol\":11460:12144  function getAmountOut(address tokenIn, address tokenOut, uint amountIn) external view returns (uint amountOut) {... */\n      swap4\n      swap3\n      pop\n      pop\n      pop\n      jump\t// out\n        /* \"SimpleSwap.sol\":2170:2201  address public immutable tokenB */\n    tag_39:\n      immutable(\"0x52f7a9acb346ac5a585f690689611848c26ca2f22b293bc6ea3f80896e3f8940\")\n      dup2\n      jump\t// out\n        /* \"SimpleSwap.sol\":2338:2361  ILPToken public lpToken */\n    tag_42:\n      0x01\n      0x00\n      swap1\n      sload\n      swap1\n      0x0100\n      exp\n      swap1\n      div\n      0xffffffffffffffffffffffffffffffffffffffff\n      and\n      dup2\n      jump\t// out\n        /* \"SimpleSwap.sol\":2248:2268  address public owner */\n    tag_46:\n      0x00\n      0x00\n      swap1\n      sload\n      swap1\n      0x0100\n      exp\n      swap1\n      div\n      0xffffffffffffffffffffffffffffffffffffffff\n      and\n      dup2\n      jump\t// out\n        /* \"SimpleSwap.sol\":10727:11162  function getPrice(address base, address quote) external view returns (uint price) {... */\n    tag_51:\n        /* \"SimpleSwap.sol\":10797:10807  uint price */\n      0x00\n        /* \"SimpleSwap.sol\":10836:10841  quote */\n      dup2\n        /* \"SimpleSwap.sol\":10828:10841  base != quote */\n      0xffffffffffffffffffffffffffffffffffffffff\n      and\n        /* \"SimpleSwap.sol\":10828:10832  base */\n      dup4\n        /* \"SimpleSwap.sol\":10828:10841  base != quote */\n      0xffffffffffffffffffffffffffffffffffffffff\n      and\n      sub\n        /* \"SimpleSwap.sol\":10820:10864  require(base != quote, \"Tokens must differ\") */\n      tag_166\n      jumpi\n      mload(0x40)\n      0x08c379a000000000000000000000000000000000000000000000000000000000\n      dup2\n      mstore\n      0x04\n      add\n      tag_167\n      swap1\n      tag_168\n      jump\t// in\n    tag_167:\n      mload(0x40)\n      dup1\n      swap2\n      sub\n      swap1\n      revert\n    tag_166:\n        /* \"SimpleSwap.sol\":10899:10900  0 */\n      0x00\n        /* \"SimpleSwap.sol\":10883:10901  base != address(0) */\n      0xffffffffffffffffffffffffffffffffffffffff\n      and\n        /* \"SimpleSwap.sol\":10883:10887  base */\n      dup4\n        /* \"SimpleSwap.sol\":10883:10901  base != address(0) */\n      0xffffffffffffffffffffffffffffffffffffffff\n      and\n      eq\n      iszero\n        /* \"SimpleSwap.sol\":10883:10924  base != address(0) && quote != address(0) */\n      dup1\n      iszero\n      tag_169\n      jumpi\n      pop\n        /* \"SimpleSwap.sol\":10922:10923  0 */\n      0x00\n        /* \"SimpleSwap.sol\":10905:10924  quote != address(0) */\n      0xffffffffffffffffffffffffffffffffffffffff\n      and\n        /* \"SimpleSwap.sol\":10905:10910  quote */\n      dup3\n        /* \"SimpleSwap.sol\":10905:10924  quote != address(0) */\n      0xffffffffffffffffffffffffffffffffffffffff\n      and\n      eq\n      iszero\n        /* \"SimpleSwap.sol\":10883:10924  base != address(0) && quote != address(0) */\n    tag_169:\n        /* \"SimpleSwap.sol\":10875:10944  require(base != address(0) && quote != address(0), \"Invalid address\") */\n      tag_170\n      jumpi\n      mload(0x40)\n      0x08c379a000000000000000000000000000000000000000000000000000000000\n      dup2\n      mstore\n      0x04\n      add\n      tag_171\n      swap1\n      tag_172\n      jump\t// in\n    tag_171:\n      mload(0x40)\n      dup1\n      swap2\n      sub\n      swap1\n      revert\n    tag_170:\n        /* \"SimpleSwap.sol\":10957:10964  uint rA */\n      0x00\n        /* \"SimpleSwap.sol\":10974:10978  base */\n      dup4\n        /* \"SimpleSwap.sol\":10967:10989  IERC20(base).balanceOf */\n      0xffffffffffffffffffffffffffffffffffffffff\n      and\n      0x70a08231\n        /* \"SimpleSwap.sol\":10998:11002  this */\n      address\n        /* \"SimpleSwap.sol\":10967:11004  IERC20(base).balanceOf(address(this)) */\n      mload(0x40)\n      dup3\n      0xffffffff\n      and\n      0xe0\n      shl\n      dup2\n      mstore\n      0x04\n      add\n      tag_173\n      swap2\n      swap1\n      tag_19\n      jump\t// in\n    tag_173:\n      0x20\n      mload(0x40)\n      dup1\n      dup4\n      sub\n      dup2\n      dup7\n      gas\n      staticcall\n      iszero\n      dup1\n      iszero\n      tag_175\n      jumpi\n      returndatacopy(0x00, 0x00, returndatasize)\n      revert(0x00, returndatasize)\n    tag_175:\n      pop\n      pop\n      pop\n      pop\n      mload(0x40)\n      returndatasize\n      not(0x1f)\n      0x1f\n      dup3\n      add\n      and\n      dup3\n      add\n      dup1\n      0x40\n      mstore\n      pop\n      dup2\n      add\n      swap1\n      tag_176\n      swap2\n      swap1\n      tag_177\n      jump\t// in\n    tag_176:\n        /* \"SimpleSwap.sol\":10957:11004  uint rA = IERC20(base).balanceOf(address(this)) */\n      swap1\n      pop\n        /* \"SimpleSwap.sol\":11015:11022  uint rB */\n      0x00\n        /* \"SimpleSwap.sol\":11032:11037  quote */\n      dup4\n        /* \"SimpleSwap.sol\":11025:11048  IERC20(quote).balanceOf */\n      0xffffffffffffffffffffffffffffffffffffffff\n      and\n      0x70a08231\n        /* \"SimpleSwap.sol\":11057:11061  this */\n      address\n        /* \"SimpleSwap.sol\":11025:11063  IERC20(quote).balanceOf(address(this)) */\n      mload(0x40)\n      dup3\n      0xffffffff\n      and\n      0xe0\n      shl\n      dup2\n      mstore\n      0x04\n      add\n      tag_178\n      swap2\n      swap1\n      tag_19\n      jump\t// in\n    tag_178:\n      0x20\n      mload(0x40)\n      dup1\n      dup4\n      sub\n      dup2\n      dup7\n      gas\n      staticcall\n      iszero\n      dup1\n      iszero\n      tag_180\n      jumpi\n      returndatacopy(0x00, 0x00, returndatasize)\n      revert(0x00, returndatasize)\n    tag_180:\n      pop\n      pop\n      pop\n      pop\n      mload(0x40)\n      returndatasize\n      not(0x1f)\n      0x1f\n      dup3\n      add\n      and\n      dup3\n      add\n      dup1\n      0x40\n      mstore\n      pop\n      dup2\n      add\n      swap1\n      tag_181\n      swap2\n      swap1\n      tag_177\n      jump\t// in\n    tag_181:\n        /* \"SimpleSwap.sol\":11015:11063  uint rB = IERC20(quote).balanceOf(address(this)) */\n      swap1\n      pop\n        /* \"SimpleSwap.sol\":11089:11090  0 */\n      0x00\n        /* \"SimpleSwap.sol\":11084:11086  rA */\n      dup3\n        /* \"SimpleSwap.sol\":11084:11090  rA > 0 */\n      gt\n        /* \"SimpleSwap.sol\":11084:11100  rA > 0 && rB > 0 */\n      dup1\n      iszero\n      tag_182\n      jumpi\n      pop\n        /* \"SimpleSwap.sol\":11099:11100  0 */\n      0x00\n        /* \"SimpleSwap.sol\":11094:11096  rB */\n      dup2\n        /* \"SimpleSwap.sol\":11094:11100  rB > 0 */\n      gt\n        /* \"SimpleSwap.sol\":11084:11100  rA > 0 && rB > 0 */\n    tag_182:\n        /* \"SimpleSwap.sol\":11076:11117  require(rA > 0 && rB > 0, \"No liquidity\") */\n      tag_183\n      jumpi\n      mload(0x40)\n      0x08c379a000000000000000000000000000000000000000000000000000000000\n      dup2\n      mstore\n      0x04\n      add\n      tag_184\n      swap1\n      tag_159\n      jump\t// in\n    tag_184:\n      mload(0x40)\n      dup1\n      swap2\n      sub\n      swap1\n      revert\n    tag_183:\n        /* \"SimpleSwap.sol\":11152:11154  rA */\n      dup2\n        /* \"SimpleSwap.sol\":11144:11148  1e18 */\n      0x0de0b6b3a7640000\n        /* \"SimpleSwap.sol\":11139:11141  rB */\n      dup3\n        /* \"SimpleSwap.sol\":11139:11148  rB * 1e18 */\n      tag_185\n      swap2\n      swap1\n      tag_71\n      jump\t// in\n    tag_185:\n        /* \"SimpleSwap.sol\":11138:11154  (rB * 1e18) / rA */\n      tag_186\n      swap2\n      swap1\n      tag_110\n      jump\t// in\n    tag_186:\n        /* \"SimpleSwap.sol\":11130:11154  price = (rB * 1e18) / rA */\n      swap3\n      pop\n        /* \"SimpleSwap.sol\":10809:11162  {... */\n      pop\n      pop\n        /* \"SimpleSwap.sol\":10727:11162  function getPrice(address base, address quote) external view returns (uint price) {... */\n      swap3\n      swap2\n      pop\n      pop\n      jump\t// out\n        /* \"SimpleSwap.sol\":6759:8152  function removeLiquidity(... */\n    tag_56:\n        /* \"SimpleSwap.sol\":6983:6995  uint amountA */\n      0x00\n        /* \"SimpleSwap.sol\":6997:7009  uint amountB */\n      0x00\n        /* \"SimpleSwap.sol\":7041:7047  tokenA */\n      immutable(\"0xc5bf1d490d2f4e87cc1d5184cd59114bcef0e857ac09f6d840a1caed5b52d973\")\n        /* \"SimpleSwap.sol\":7030:7047  _tokenA == tokenA */\n      0xffffffffffffffffffffffffffffffffffffffff\n      and\n        /* \"SimpleSwap.sol\":7030:7037  _tokenA */\n      dup10\n        /* \"SimpleSwap.sol\":7030:7047  _tokenA == tokenA */\n      0xffffffffffffffffffffffffffffffffffffffff\n      and\n      eq\n        /* \"SimpleSwap.sol\":7030:7068  _tokenA == tokenA && _tokenB == tokenB */\n      dup1\n      iszero\n      tag_188\n      jumpi\n      pop\n        /* \"SimpleSwap.sol\":7062:7068  tokenB */\n      immutable(\"0x52f7a9acb346ac5a585f690689611848c26ca2f22b293bc6ea3f80896e3f8940\")\n        /* \"SimpleSwap.sol\":7051:7068  _tokenB == tokenB */\n      0xffffffffffffffffffffffffffffffffffffffff\n      and\n        /* \"SimpleSwap.sol\":7051:7058  _tokenB */\n      dup9\n        /* \"SimpleSwap.sol\":7051:7068  _tokenB == tokenB */\n      0xffffffffffffffffffffffffffffffffffffffff\n      and\n      eq\n        /* \"SimpleSwap.sol\":7030:7068  _tokenA == tokenA && _tokenB == tokenB */\n    tag_188:\n        /* \"SimpleSwap.sol\":7022:7087  require(_tokenA == tokenA && _tokenB == tokenB, \"Invalid tokens\") */\n      tag_189\n      jumpi\n      mload(0x40)\n      0x08c379a000000000000000000000000000000000000000000000000000000000\n      dup2\n      mstore\n      0x04\n      add\n      tag_190\n      swap1\n      tag_151\n      jump\t// in\n    tag_190:\n      mload(0x40)\n      dup1\n      swap2\n      sub\n      swap1\n      revert\n    tag_189:\n        /* \"SimpleSwap.sol\":7125:7133  deadline */\n      dup3\n        /* \"SimpleSwap.sol\":7106:7121  block.timestamp */\n      timestamp\n        /* \"SimpleSwap.sol\":7106:7133  block.timestamp <= deadline */\n      gt\n      iszero\n        /* \"SimpleSwap.sol\":7098:7157  require(block.timestamp <= deadline, \"Transaction expired\") */\n      tag_191\n      jumpi\n      mload(0x40)\n      0x08c379a000000000000000000000000000000000000000000000000000000000\n      dup2\n      mstore\n      0x04\n      add\n      tag_192\n      swap1\n      tag_76\n      jump\t// in\n    tag_192:\n      mload(0x40)\n      dup1\n      swap2\n      sub\n      swap1\n      revert\n    tag_191:\n        /* \"SimpleSwap.sol\":7190:7191  0 */\n      0x00\n        /* \"SimpleSwap.sol\":7176:7192  to != address(0) */\n      0xffffffffffffffffffffffffffffffffffffffff\n      and\n        /* \"SimpleSwap.sol\":7176:7178  to */\n      dup5\n        /* \"SimpleSwap.sol\":7176:7192  to != address(0) */\n      0xffffffffffffffffffffffffffffffffffffffff\n      and\n      sub\n        /* \"SimpleSwap.sol\":7168:7214  require(to != address(0), \"Invalid recipient\") */\n      tag_193\n      jumpi\n      mload(0x40)\n      0x08c379a000000000000000000000000000000000000000000000000000000000\n      dup2\n      mstore\n      0x04\n      add\n      tag_194\n      swap1\n      tag_195\n      jump\t// in\n    tag_194:\n      mload(0x40)\n      dup1\n      swap2\n      sub\n      swap1\n      revert\n    tag_193:\n        /* \"SimpleSwap.sol\":7266:7275  liquidity */\n      dup7\n        /* \"SimpleSwap.sol\":7233:7240  lpToken */\n      0x01\n      0x00\n      swap1\n      sload\n      swap1\n      0x0100\n      exp\n      swap1\n      div\n      0xffffffffffffffffffffffffffffffffffffffff\n      and\n        /* \"SimpleSwap.sol\":7233:7250  lpToken.balanceOf */\n      0xffffffffffffffffffffffffffffffffffffffff\n      and\n      0x70a08231\n        /* \"SimpleSwap.sol\":7251:7261  msg.sender */\n      caller\n        /* \"SimpleSwap.sol\":7233:7262  lpToken.balanceOf(msg.sender) */\n      mload(0x40)\n      dup3\n      0xffffffff\n      and\n      0xe0\n      shl\n      dup2\n      mstore\n      0x04\n      add\n      tag_196\n      swap2\n      swap1\n      tag_19\n      jump\t// in\n    tag_196:\n      0x20\n      mload(0x40)\n      dup1\n      dup4\n      sub\n      dup2\n      dup7\n      gas\n      staticcall\n      iszero\n      dup1\n      iszero\n      tag_198\n      jumpi\n      returndatacopy(0x00, 0x00, returndatasize)\n      revert(0x00, returndatasize)\n    tag_198:\n      pop\n      pop\n      pop\n      pop\n      mload(0x40)\n      returndatasize\n      not(0x1f)\n      0x1f\n      dup3\n      add\n      and\n      dup3\n      add\n      dup1\n      0x40\n      mstore\n      pop\n      dup2\n      add\n      swap1\n      tag_199\n      swap2\n      swap1\n      tag_177\n      jump\t// in\n    tag_199:\n        /* \"SimpleSwap.sol\":7233:7275  lpToken.balanceOf(msg.sender) >= liquidity */\n      lt\n      iszero\n        /* \"SimpleSwap.sol\":7225:7300  require(lpToken.balanceOf(msg.sender) >= liquidity, \"Not enough liquidity\") */\n      tag_200\n      jumpi\n      mload(0x40)\n      0x08c379a000000000000000000000000000000000000000000000000000000000\n      dup2\n      mstore\n      0x04\n      add\n      tag_201\n      swap1\n      tag_202\n      jump\t// in\n    tag_201:\n      mload(0x40)\n      dup1\n      swap2\n      sub\n      swap1\n      revert\n    tag_200:\n        /* \"SimpleSwap.sol\":7313:7326  uint totalLiq */\n      0x00\n        /* \"SimpleSwap.sol\":7329:7336  lpToken */\n      0x01\n      0x00\n      swap1\n      sload\n      swap1\n      0x0100\n      exp\n      swap1\n      div\n      0xffffffffffffffffffffffffffffffffffffffff\n      and\n        /* \"SimpleSwap.sol\":7329:7348  lpToken.totalSupply */\n      0xffffffffffffffffffffffffffffffffffffffff\n      and\n      0x18160ddd\n        /* \"SimpleSwap.sol\":7329:7350  lpToken.totalSupply() */\n      mload(0x40)\n      dup2\n      0xffffffff\n      and\n      0xe0\n      shl\n      dup2\n      mstore\n      0x04\n      add\n      0x20\n      mload(0x40)\n      dup1\n      dup4\n      sub\n      dup2\n      dup7\n      gas\n      staticcall\n      iszero\n      dup1\n      iszero\n      tag_204\n      jumpi\n      returndatacopy(0x00, 0x00, returndatasize)\n      revert(0x00, returndatasize)\n    tag_204:\n      pop\n      pop\n      pop\n      pop\n      mload(0x40)\n      returndatasize\n      not(0x1f)\n      0x1f\n      dup3\n      add\n      and\n      dup3\n      add\n      dup1\n      0x40\n      mstore\n      pop\n      dup2\n      add\n      swap1\n      tag_205\n      swap2\n      swap1\n      tag_177\n      jump\t// in\n    tag_205:\n        /* \"SimpleSwap.sol\":7313:7350  uint totalLiq = lpToken.totalSupply() */\n      swap1\n      pop\n        /* \"SimpleSwap.sol\":7380:7381  0 */\n      0x00\n        /* \"SimpleSwap.sol\":7369:7377  totalLiq */\n      dup2\n        /* \"SimpleSwap.sol\":7369:7381  totalLiq > 0 */\n      gt\n        /* \"SimpleSwap.sol\":7361:7398  require(totalLiq > 0, \"No liquidity\") */\n      tag_206\n      jumpi\n      mload(0x40)\n      0x08c379a000000000000000000000000000000000000000000000000000000000\n      dup2\n      mstore\n      0x04\n      add\n      tag_207\n      swap1\n      tag_159\n      jump\t// in\n    tag_207:\n      mload(0x40)\n      dup1\n      swap2\n      sub\n      swap1\n      revert\n    tag_206:\n        /* \"SimpleSwap.sol\":7501:7509  totalLiq */\n      dup1\n        /* \"SimpleSwap.sol\":7489:7497  reserveA */\n      sload(0x02)\n        /* \"SimpleSwap.sol\":7477:7486  liquidity */\n      dup10\n        /* \"SimpleSwap.sol\":7477:7497  liquidity * reserveA */\n      tag_208\n      swap2\n      swap1\n      tag_71\n      jump\t// in\n    tag_208:\n        /* \"SimpleSwap.sol\":7476:7509  (liquidity * reserveA) / totalLiq */\n      tag_209\n      swap2\n      swap1\n      tag_110\n      jump\t// in\n    tag_209:\n        /* \"SimpleSwap.sol\":7466:7509  amountA = (liquidity * reserveA) / totalLiq */\n      swap3\n      pop\n        /* \"SimpleSwap.sol\":7555:7563  totalLiq */\n      dup1\n        /* \"SimpleSwap.sol\":7543:7551  reserveB */\n      sload(0x03)\n        /* \"SimpleSwap.sol\":7531:7540  liquidity */\n      dup10\n        /* \"SimpleSwap.sol\":7531:7551  liquidity * reserveB */\n      tag_210\n      swap2\n      swap1\n      tag_71\n      jump\t// in\n    tag_210:\n        /* \"SimpleSwap.sol\":7530:7563  (liquidity * reserveB) / totalLiq */\n      tag_211\n      swap2\n      swap1\n      tag_110\n      jump\t// in\n    tag_211:\n        /* \"SimpleSwap.sol\":7520:7563  amountB = (liquidity * reserveB) / totalLiq */\n      swap2\n      pop\n        /* \"SimpleSwap.sol\":7595:7605  amountAMin */\n      dup7\n        /* \"SimpleSwap.sol\":7584:7591  amountA */\n      dup4\n        /* \"SimpleSwap.sol\":7584:7605  amountA >= amountAMin */\n      lt\n      iszero\n        /* \"SimpleSwap.sol\":7576:7629  require(amountA >= amountAMin, \"Slippage: A too low\") */\n      tag_212\n      jumpi\n      mload(0x40)\n      0x08c379a000000000000000000000000000000000000000000000000000000000\n      dup2\n      mstore\n      0x04\n      add\n      tag_213\n      swap1\n      tag_214\n      jump\t// in\n    tag_213:\n      mload(0x40)\n      dup1\n      swap2\n      sub\n      swap1\n      revert\n    tag_212:\n        /* \"SimpleSwap.sol\":7659:7669  amountBMin */\n      dup6\n        /* \"SimpleSwap.sol\":7648:7655  amountB */\n      dup3\n        /* \"SimpleSwap.sol\":7648:7669  amountB >= amountBMin */\n      lt\n      iszero\n        /* \"SimpleSwap.sol\":7640:7693  require(amountB >= amountBMin, \"Slippage: B too low\") */\n      tag_215\n      jumpi\n      mload(0x40)\n      0x08c379a000000000000000000000000000000000000000000000000000000000\n      dup2\n      mstore\n      0x04\n      add\n      tag_216\n      swap1\n      tag_217\n      jump\t// in\n    tag_216:\n      mload(0x40)\n      dup1\n      swap2\n      sub\n      swap1\n      revert\n    tag_215:\n        /* \"SimpleSwap.sol\":7746:7753  amountA */\n      dup3\n        /* \"SimpleSwap.sol\":7734:7742  reserveA */\n      0x02\n      0x00\n        /* \"SimpleSwap.sol\":7734:7753  reserveA -= amountA */\n      dup3\n      dup3\n      sload\n      tag_218\n      swap2\n      swap1\n      tag_116\n      jump\t// in\n    tag_218:\n      swap3\n      pop\n      pop\n      dup2\n      swap1\n      sstore\n      pop\n        /* \"SimpleSwap.sol\":7776:7783  amountB */\n      dup2\n        /* \"SimpleSwap.sol\":7764:7772  reserveB */\n      0x03\n      0x00\n        /* \"SimpleSwap.sol\":7764:7783  reserveB -= amountB */\n      dup3\n      dup3\n      sload\n      tag_219\n      swap2\n      swap1\n      tag_116\n      jump\t// in\n    tag_219:\n      swap3\n      pop\n      pop\n      dup2\n      swap1\n      sstore\n      pop\n        /* \"SimpleSwap.sol\":7835:7842  lpToken */\n      0x01\n      0x00\n      swap1\n      sload\n      swap1\n      0x0100\n      exp\n      swap1\n      div\n      0xffffffffffffffffffffffffffffffffffffffff\n      and\n        /* \"SimpleSwap.sol\":7835:7847  lpToken.burn */\n      0xffffffffffffffffffffffffffffffffffffffff\n      and\n      0x9dc29fac\n        /* \"SimpleSwap.sol\":7848:7858  msg.sender */\n      caller\n        /* \"SimpleSwap.sol\":7860:7869  liquidity */\n      dup11\n        /* \"SimpleSwap.sol\":7835:7870  lpToken.burn(msg.sender, liquidity) */\n      mload(0x40)\n      dup4\n      0xffffffff\n      and\n      0xe0\n      shl\n      dup2\n      mstore\n      0x04\n      add\n      tag_220\n      swap3\n      swap2\n      swap1\n      tag_127\n      jump\t// in\n    tag_220:\n      0x00\n      mload(0x40)\n      dup1\n      dup4\n      sub\n      dup2\n      0x00\n      dup8\n      dup1\n      extcodesize\n      iszero\n      dup1\n      iszero\n      tag_221\n      jumpi\n      revert(0x00, 0x00)\n    tag_221:\n      pop\n      gas\n      call\n      iszero\n      dup1\n      iszero\n      tag_223\n      jumpi\n      returndatacopy(0x00, 0x00, returndatasize)\n      revert(0x00, returndatasize)\n    tag_223:\n      pop\n      pop\n      pop\n      pop\n        /* \"SimpleSwap.sol\":7939:7945  tokenA */\n      immutable(\"0xc5bf1d490d2f4e87cc1d5184cd59114bcef0e857ac09f6d840a1caed5b52d973\")\n        /* \"SimpleSwap.sol\":7932:7955  IERC20(tokenA).transfer */\n      0xffffffffffffffffffffffffffffffffffffffff\n      and\n      0xa9059cbb\n        /* \"SimpleSwap.sol\":7956:7958  to */\n      dup7\n        /* \"SimpleSwap.sol\":7960:7967  amountA */\n      dup6\n        /* \"SimpleSwap.sol\":7932:7968  IERC20(tokenA).transfer(to, amountA) */\n      mload(0x40)\n      dup4\n      0xffffffff\n      and\n      0xe0\n      shl\n      dup2\n      mstore\n      0x04\n      add\n      tag_224\n      swap3\n      swap2\n      swap1\n      tag_127\n      jump\t// in\n    tag_224:\n      0x20\n      mload(0x40)\n      dup1\n      dup4\n      sub\n      dup2\n      0x00\n      dup8\n      gas\n      call\n      iszero\n      dup1\n      iszero\n      tag_226\n      jumpi\n      returndatacopy(0x00, 0x00, returndatasize)\n      revert(0x00, returndatasize)\n    tag_226:\n      pop\n      pop\n      pop\n      pop\n      mload(0x40)\n      returndatasize\n      not(0x1f)\n      0x1f\n      dup3\n      add\n      and\n      dup3\n      add\n      dup1\n      0x40\n      mstore\n      pop\n      dup2\n      add\n      swap1\n      tag_227\n      swap2\n      swap1\n      tag_99\n      jump\t// in\n    tag_227:\n        /* \"SimpleSwap.sol\":7924:7995  require(IERC20(tokenA).transfer(to, amountA), \"Transfer tokenA failed\") */\n      tag_228\n      jumpi\n      mload(0x40)\n      0x08c379a000000000000000000000000000000000000000000000000000000000\n      dup2\n      mstore\n      0x04\n      add\n      tag_229\n      swap1\n      tag_230\n      jump\t// in\n    tag_229:\n      mload(0x40)\n      dup1\n      swap2\n      sub\n      swap1\n      revert\n    tag_228:\n        /* \"SimpleSwap.sol\":8021:8027  tokenB */\n      immutable(\"0x52f7a9acb346ac5a585f690689611848c26ca2f22b293bc6ea3f80896e3f8940\")\n        /* \"SimpleSwap.sol\":8014:8037  IERC20(tokenB).transfer */\n      0xffffffffffffffffffffffffffffffffffffffff\n      and\n      0xa9059cbb\n        /* \"SimpleSwap.sol\":8038:8040  to */\n      dup7\n        /* \"SimpleSwap.sol\":8042:8049  amountB */\n      dup5\n        /* \"SimpleSwap.sol\":8014:8050  IERC20(tokenB).transfer(to, amountB) */\n      mload(0x40)\n      dup4\n      0xffffffff\n      and\n      0xe0\n      shl\n      dup2\n      mstore\n      0x04\n      add\n      tag_231\n      swap3\n      swap2\n      swap1\n      tag_127\n      jump\t// in\n    tag_231:\n      0x20\n      mload(0x40)\n      dup1\n      dup4\n      sub\n      dup2\n      0x00\n      dup8\n      gas\n      call\n      iszero\n      dup1\n      iszero\n      tag_233\n      jumpi\n      returndatacopy(0x00, 0x00, returndatasize)\n      revert(0x00, returndatasize)\n    tag_233:\n      pop\n      pop\n      pop\n      pop\n      mload(0x40)\n      returndatasize\n      not(0x1f)\n      0x1f\n      dup3\n      add\n      and\n      dup3\n      add\n      dup1\n      0x40\n      mstore\n      pop\n      dup2\n      add\n      swap1\n      tag_234\n      swap2\n      swap1\n      tag_99\n      jump\t// in\n    tag_234:\n        /* \"SimpleSwap.sol\":8006:8077  require(IERC20(tokenB).transfer(to, amountB), \"Transfer tokenB failed\") */\n      tag_235\n      jumpi\n      mload(0x40)\n      0x08c379a000000000000000000000000000000000000000000000000000000000\n      dup2\n      mstore\n      0x04\n      add\n      tag_236\n      swap1\n      tag_237\n      jump\t// in\n    tag_236:\n      mload(0x40)\n      dup1\n      swap2\n      sub\n      swap1\n      revert\n    tag_235:\n        /* \"SimpleSwap.sol\":8112:8114  to */\n      dup5\n        /* \"SimpleSwap.sol\":8095:8144  LiquidityRemoved(to, amountA, amountB, liquidity) */\n      0xffffffffffffffffffffffffffffffffffffffff\n      and\n      0x1dc8bb69df2b8e91fbdcbfcf93d951b3f0000f085a95fe3f7946d6161439245d\n        /* \"SimpleSwap.sol\":8116:8123  amountA */\n      dup5\n        /* \"SimpleSwap.sol\":8125:8132  amountB */\n      dup5\n        /* \"SimpleSwap.sol\":8134:8143  liquidity */\n      dup12\n        /* \"SimpleSwap.sol\":8095:8144  LiquidityRemoved(to, amountA, amountB, liquidity) */\n      mload(0x40)\n      tag_238\n      swap4\n      swap3\n      swap2\n      swap1\n      tag_67\n      jump\t// in\n    tag_238:\n      mload(0x40)\n      dup1\n      swap2\n      sub\n      swap1\n      log2\n        /* \"SimpleSwap.sol\":7011:8152  {... */\n      pop\n        /* \"SimpleSwap.sol\":6759:8152  function removeLiquidity(... */\n      swap8\n      pop\n      swap8\n      swap6\n      pop\n      pop\n      pop\n      pop\n      pop\n      pop\n      jump\t// out\n        /* \"SimpleSwap.sol\":2428:2448  uint public reserveA */\n    tag_60:\n      sload(0x02)\n      dup2\n      jump\t// out\n        /* \"SimpleSwap.sol\":4142:6062  function addLiquidity(... */\n    tag_65:\n        /* \"SimpleSwap.sol\":4398:4410  uint amountA */\n      0x00\n        /* \"SimpleSwap.sol\":4412:4424  uint amountB */\n      0x00\n        /* \"SimpleSwap.sol\":4426:4440  uint liquidity */\n      0x00\n        /* \"SimpleSwap.sol\":4472:4478  tokenA */\n      immutable(\"0xc5bf1d490d2f4e87cc1d5184cd59114bcef0e857ac09f6d840a1caed5b52d973\")\n        /* \"SimpleSwap.sol\":4461:4478  _tokenA == tokenA */\n      0xffffffffffffffffffffffffffffffffffffffff\n      and\n        /* \"SimpleSwap.sol\":4461:4468  _tokenA */\n      dup12\n        /* \"SimpleSwap.sol\":4461:4478  _tokenA == tokenA */\n      0xffffffffffffffffffffffffffffffffffffffff\n      and\n      eq\n        /* \"SimpleSwap.sol\":4461:4499  _tokenA == tokenA && _tokenB == tokenB */\n      dup1\n      iszero\n      tag_240\n      jumpi\n      pop\n        /* \"SimpleSwap.sol\":4493:4499  tokenB */\n      immutable(\"0x52f7a9acb346ac5a585f690689611848c26ca2f22b293bc6ea3f80896e3f8940\")\n        /* \"SimpleSwap.sol\":4482:4499  _tokenB == tokenB */\n      0xffffffffffffffffffffffffffffffffffffffff\n      and\n        /* \"SimpleSwap.sol\":4482:4489  _tokenB */\n      dup11\n        /* \"SimpleSwap.sol\":4482:4499  _tokenB == tokenB */\n      0xffffffffffffffffffffffffffffffffffffffff\n      and\n      eq\n        /* \"SimpleSwap.sol\":4461:4499  _tokenA == tokenA && _tokenB == tokenB */\n    tag_240:\n        /* \"SimpleSwap.sol\":4453:4518  require(_tokenA == tokenA && _tokenB == tokenB, \"Invalid tokens\") */\n      tag_241\n      jumpi\n      mload(0x40)\n      0x08c379a000000000000000000000000000000000000000000000000000000000\n      dup2\n      mstore\n      0x04\n      add\n      tag_242\n      swap1\n      tag_151\n      jump\t// in\n    tag_242:\n      mload(0x40)\n      dup1\n      swap2\n      sub\n      swap1\n      revert\n    tag_241:\n        /* \"SimpleSwap.sol\":4556:4564  deadline */\n      dup4\n        /* \"SimpleSwap.sol\":4537:4552  block.timestamp */\n      timestamp\n        /* \"SimpleSwap.sol\":4537:4564  block.timestamp <= deadline */\n      gt\n      iszero\n        /* \"SimpleSwap.sol\":4529:4588  require(block.timestamp <= deadline, \"Transaction expired\") */\n      tag_243\n      jumpi\n      mload(0x40)\n      0x08c379a000000000000000000000000000000000000000000000000000000000\n      dup2\n      mstore\n      0x04\n      add\n      tag_244\n      swap1\n      tag_76\n      jump\t// in\n    tag_244:\n      mload(0x40)\n      dup1\n      swap2\n      sub\n      swap1\n      revert\n    tag_243:\n        /* \"SimpleSwap.sol\":4621:4622  0 */\n      0x00\n        /* \"SimpleSwap.sol\":4607:4623  to != address(0) */\n      0xffffffffffffffffffffffffffffffffffffffff\n      and\n        /* \"SimpleSwap.sol\":4607:4609  to */\n      dup6\n        /* \"SimpleSwap.sol\":4607:4623  to != address(0) */\n      0xffffffffffffffffffffffffffffffffffffffff\n      and\n      sub\n        /* \"SimpleSwap.sol\":4599:4645  require(to != address(0), \"Invalid recipient\") */\n      tag_245\n      jumpi\n      mload(0x40)\n      0x08c379a000000000000000000000000000000000000000000000000000000000\n      dup2\n      mstore\n      0x04\n      add\n      tag_246\n      swap1\n      tag_195\n      jump\t// in\n    tag_246:\n      mload(0x40)\n      dup1\n      swap2\n      sub\n      swap1\n      revert\n    tag_245:\n        /* \"SimpleSwap.sol\":4674:4675  0 */\n      0x00\n        /* \"SimpleSwap.sol\":4662:4670  reserveA */\n      sload(0x02)\n        /* \"SimpleSwap.sol\":4662:4675  reserveA == 0 */\n      eq\n        /* \"SimpleSwap.sol\":4662:4692  reserveA == 0 && reserveB == 0 */\n      dup1\n      iszero\n      tag_247\n      jumpi\n      pop\n        /* \"SimpleSwap.sol\":4691:4692  0 */\n      0x00\n        /* \"SimpleSwap.sol\":4679:4687  reserveB */\n      sload(0x03)\n        /* \"SimpleSwap.sol\":4679:4692  reserveB == 0 */\n      eq\n        /* \"SimpleSwap.sol\":4662:4692  reserveA == 0 && reserveB == 0 */\n    tag_247:\n        /* \"SimpleSwap.sol\":4658:5478  if (reserveA == 0 && reserveB == 0) {... */\n      iszero\n      tag_248\n      jumpi\n        /* \"SimpleSwap.sol\":4763:4777  amountADesired */\n      dup9\n        /* \"SimpleSwap.sol\":4753:4777  amountA = amountADesired */\n      swap3\n      pop\n        /* \"SimpleSwap.sol\":4802:4816  amountBDesired */\n      dup8\n        /* \"SimpleSwap.sol\":4792:4816  amountB = amountBDesired */\n      swap2\n      pop\n        /* \"SimpleSwap.sol\":4658:5478  if (reserveA == 0 && reserveB == 0) {... */\n      jump(tag_249)\n    tag_248:\n        /* \"SimpleSwap.sol\":4907:4926  uint amountBOptimal */\n      0x00\n        /* \"SimpleSwap.sol\":4959:4967  reserveA */\n      sload(0x02)\n        /* \"SimpleSwap.sol\":4947:4955  reserveB */\n      sload(0x03)\n        /* \"SimpleSwap.sol\":4930:4944  amountADesired */\n      dup12\n        /* \"SimpleSwap.sol\":4930:4955  amountADesired * reserveB */\n      tag_250\n      swap2\n      swap1\n      tag_71\n      jump\t// in\n    tag_250:\n        /* \"SimpleSwap.sol\":4929:4967  (amountADesired * reserveB) / reserveA */\n      tag_251\n      swap2\n      swap1\n      tag_110\n      jump\t// in\n    tag_251:\n        /* \"SimpleSwap.sol\":4907:4967  uint amountBOptimal = (amountADesired * reserveB) / reserveA */\n      swap1\n      pop\n        /* \"SimpleSwap.sol\":5004:5018  amountBDesired */\n      dup9\n        /* \"SimpleSwap.sol\":4986:5000  amountBOptimal */\n      dup2\n        /* \"SimpleSwap.sol\":4986:5018  amountBOptimal <= amountBDesired */\n      gt\n        /* \"SimpleSwap.sol\":4982:5467  if (amountBOptimal <= amountBDesired) {... */\n      tag_252\n      jumpi\n        /* \"SimpleSwap.sol\":5065:5075  amountBMin */\n      dup7\n        /* \"SimpleSwap.sol\":5047:5061  amountBOptimal */\n      dup2\n        /* \"SimpleSwap.sol\":5047:5075  amountBOptimal >= amountBMin */\n      lt\n      iszero\n        /* \"SimpleSwap.sol\":5039:5099  require(amountBOptimal >= amountBMin, \"Slippage: B too low\") */\n      tag_253\n      jumpi\n      mload(0x40)\n      0x08c379a000000000000000000000000000000000000000000000000000000000\n      dup2\n      mstore\n      0x04\n      add\n      tag_254\n      swap1\n      tag_217\n      jump\t// in\n    tag_254:\n      mload(0x40)\n      dup1\n      swap2\n      sub\n      swap1\n      revert\n    tag_253:\n        /* \"SimpleSwap.sol\":5128:5142  amountADesired */\n      dup10\n        /* \"SimpleSwap.sol\":5118:5142  amountA = amountADesired */\n      swap4\n      pop\n        /* \"SimpleSwap.sol\":5171:5185  amountBOptimal */\n      dup1\n        /* \"SimpleSwap.sol\":5161:5185  amountB = amountBOptimal */\n      swap3\n      pop\n        /* \"SimpleSwap.sol\":4982:5467  if (amountBOptimal <= amountBDesired) {... */\n      jump(tag_255)\n    tag_252:\n        /* \"SimpleSwap.sol\":5226:5245  uint amountAOptimal */\n      0x00\n        /* \"SimpleSwap.sol\":5278:5286  reserveB */\n      sload(0x03)\n        /* \"SimpleSwap.sol\":5266:5274  reserveA */\n      sload(0x02)\n        /* \"SimpleSwap.sol\":5249:5263  amountBDesired */\n      dup12\n        /* \"SimpleSwap.sol\":5249:5274  amountBDesired * reserveA */\n      tag_256\n      swap2\n      swap1\n      tag_71\n      jump\t// in\n    tag_256:\n        /* \"SimpleSwap.sol\":5248:5286  (amountBDesired * reserveA) / reserveB */\n      tag_257\n      swap2\n      swap1\n      tag_110\n      jump\t// in\n    tag_257:\n        /* \"SimpleSwap.sol\":5226:5286  uint amountAOptimal = (amountBDesired * reserveA) / reserveB */\n      swap1\n      pop\n        /* \"SimpleSwap.sol\":5331:5341  amountAMin */\n      dup9\n        /* \"SimpleSwap.sol\":5313:5327  amountAOptimal */\n      dup2\n        /* \"SimpleSwap.sol\":5313:5341  amountAOptimal >= amountAMin */\n      lt\n      iszero\n        /* \"SimpleSwap.sol\":5305:5365  require(amountAOptimal >= amountAMin, \"Slippage: A too low\") */\n      tag_258\n      jumpi\n      mload(0x40)\n      0x08c379a000000000000000000000000000000000000000000000000000000000\n      dup2\n      mstore\n      0x04\n      add\n      tag_259\n      swap1\n      tag_214\n      jump\t// in\n    tag_259:\n      mload(0x40)\n      dup1\n      swap2\n      sub\n      swap1\n      revert\n    tag_258:\n        /* \"SimpleSwap.sol\":5394:5408  amountAOptimal */\n      dup1\n        /* \"SimpleSwap.sol\":5384:5408  amountA = amountAOptimal */\n      swap5\n      pop\n        /* \"SimpleSwap.sol\":5437:5451  amountBDesired */\n      dup10\n        /* \"SimpleSwap.sol\":5427:5451  amountB = amountBDesired */\n      swap4\n      pop\n        /* \"SimpleSwap.sol\":5207:5467  {... */\n      pop\n        /* \"SimpleSwap.sol\":4982:5467  if (amountBOptimal <= amountBDesired) {... */\n    tag_255:\n        /* \"SimpleSwap.sol\":4834:5478  {... */\n      pop\n        /* \"SimpleSwap.sol\":4658:5478  if (reserveA == 0 && reserveB == 0) {... */\n    tag_249:\n        /* \"SimpleSwap.sol\":5557:5563  tokenA */\n      immutable(\"0xc5bf1d490d2f4e87cc1d5184cd59114bcef0e857ac09f6d840a1caed5b52d973\")\n        /* \"SimpleSwap.sol\":5550:5577  IERC20(tokenA).transferFrom */\n      0xffffffffffffffffffffffffffffffffffffffff\n      and\n      0x23b872dd\n        /* \"SimpleSwap.sol\":5578:5588  msg.sender */\n      caller\n        /* \"SimpleSwap.sol\":5598:5602  this */\n      address\n        /* \"SimpleSwap.sol\":5605:5612  amountA */\n      dup7\n        /* \"SimpleSwap.sol\":5550:5613  IERC20(tokenA).transferFrom(msg.sender, address(this), amountA) */\n      mload(0x40)\n      dup5\n      0xffffffff\n      and\n      0xe0\n      shl\n      dup2\n      mstore\n      0x04\n      add\n      tag_260\n      swap4\n      swap3\n      swap2\n      swap1\n      tag_95\n      jump\t// in\n    tag_260:\n      0x20\n      mload(0x40)\n      dup1\n      dup4\n      sub\n      dup2\n      0x00\n      dup8\n      gas\n      call\n      iszero\n      dup1\n      iszero\n      tag_262\n      jumpi\n      returndatacopy(0x00, 0x00, returndatasize)\n      revert(0x00, returndatasize)\n    tag_262:\n      pop\n      pop\n      pop\n      pop\n      mload(0x40)\n      returndatasize\n      not(0x1f)\n      0x1f\n      dup3\n      add\n      and\n      dup3\n      add\n      dup1\n      0x40\n      mstore\n      pop\n      dup2\n      add\n      swap1\n      tag_263\n      swap2\n      swap1\n      tag_99\n      jump\t// in\n    tag_263:\n        /* \"SimpleSwap.sol\":5542:5640  require(IERC20(tokenA).transferFrom(msg.sender, address(this), amountA), \"Transfer tokenA failed\") */\n      tag_264\n      jumpi\n      mload(0x40)\n      0x08c379a000000000000000000000000000000000000000000000000000000000\n      dup2\n      mstore\n      0x04\n      add\n      tag_265\n      swap1\n      tag_230\n      jump\t// in\n    tag_265:\n      mload(0x40)\n      dup1\n      swap2\n      sub\n      swap1\n      revert\n    tag_264:\n        /* \"SimpleSwap.sol\":5666:5672  tokenB */\n      immutable(\"0x52f7a9acb346ac5a585f690689611848c26ca2f22b293bc6ea3f80896e3f8940\")\n        /* \"SimpleSwap.sol\":5659:5686  IERC20(tokenB).transferFrom */\n      0xffffffffffffffffffffffffffffffffffffffff\n      and\n      0x23b872dd\n        /* \"SimpleSwap.sol\":5687:5697  msg.sender */\n      caller\n        /* \"SimpleSwap.sol\":5707:5711  this */\n      address\n        /* \"SimpleSwap.sol\":5714:5721  amountB */\n      dup6\n        /* \"SimpleSwap.sol\":5659:5722  IERC20(tokenB).transferFrom(msg.sender, address(this), amountB) */\n      mload(0x40)\n      dup5\n      0xffffffff\n      and\n      0xe0\n      shl\n      dup2\n      mstore\n      0x04\n      add\n      tag_266\n      swap4\n      swap3\n      swap2\n      swap1\n      tag_95\n      jump\t// in\n    tag_266:\n      0x20\n      mload(0x40)\n      dup1\n      dup4\n      sub\n      dup2\n      0x00\n      dup8\n      gas\n      call\n      iszero\n      dup1\n      iszero\n      tag_268\n      jumpi\n      returndatacopy(0x00, 0x00, returndatasize)\n      revert(0x00, returndatasize)\n    tag_268:\n      pop\n      pop\n      pop\n      pop\n      mload(0x40)\n      returndatasize\n      not(0x1f)\n      0x1f\n      dup3\n      add\n      and\n      dup3\n      add\n      dup1\n      0x40\n      mstore\n      pop\n      dup2\n      add\n      swap1\n      tag_269\n      swap2\n      swap1\n      tag_99\n      jump\t// in\n    tag_269:\n        /* \"SimpleSwap.sol\":5651:5749  require(IERC20(tokenB).transferFrom(msg.sender, address(this), amountB), \"Transfer tokenB failed\") */\n      tag_270\n      jumpi\n      mload(0x40)\n      0x08c379a000000000000000000000000000000000000000000000000000000000\n      dup2\n      mstore\n      0x04\n      add\n      tag_271\n      swap1\n      tag_237\n      jump\t// in\n    tag_271:\n      mload(0x40)\n      dup1\n      swap2\n      sub\n      swap1\n      revert\n    tag_270:\n        /* \"SimpleSwap.sol\":5802:5809  amountA */\n      dup3\n        /* \"SimpleSwap.sol\":5790:5798  reserveA */\n      0x02\n      0x00\n        /* \"SimpleSwap.sol\":5790:5809  reserveA += amountA */\n      dup3\n      dup3\n      sload\n      tag_272\n      swap2\n      swap1\n      tag_108\n      jump\t// in\n    tag_272:\n      swap3\n      pop\n      pop\n      dup2\n      swap1\n      sstore\n      pop\n        /* \"SimpleSwap.sol\":5832:5839  amountB */\n      dup2\n        /* \"SimpleSwap.sol\":5820:5828  reserveB */\n      0x03\n      0x00\n        /* \"SimpleSwap.sol\":5820:5839  reserveB += amountB */\n      dup3\n      dup3\n      sload\n      tag_273\n      swap2\n      swap1\n      tag_108\n      jump\t// in\n    tag_273:\n      swap3\n      pop\n      pop\n      dup2\n      swap1\n      sstore\n      pop\n        /* \"SimpleSwap.sol\":5923:5951  Math.sqrt(amountA * amountB) */\n      tag_274\n        /* \"SimpleSwap.sol\":5943:5950  amountB */\n      dup3\n        /* \"SimpleSwap.sol\":5933:5940  amountA */\n      dup5\n        /* \"SimpleSwap.sol\":5933:5950  amountA * amountB */\n      tag_275\n      swap2\n      swap1\n      tag_71\n      jump\t// in\n    tag_275:\n        /* \"SimpleSwap.sol\":5923:5932  Math.sqrt */\n      tag_72\n        /* \"SimpleSwap.sol\":5923:5951  Math.sqrt(amountA * amountB) */\n      jump\t// in\n    tag_274:\n        /* \"SimpleSwap.sol\":5911:5951  liquidity = Math.sqrt(amountA * amountB) */\n      swap1\n      pop\n        /* \"SimpleSwap.sol\":5962:5969  lpToken */\n      0x01\n      0x00\n      swap1\n      sload\n      swap1\n      0x0100\n      exp\n      swap1\n      div\n      0xffffffffffffffffffffffffffffffffffffffff\n      and\n        /* \"SimpleSwap.sol\":5962:5974  lpToken.mint */\n      0xffffffffffffffffffffffffffffffffffffffff\n      and\n      0x40c10f19\n        /* \"SimpleSwap.sol\":5975:5977  to */\n      dup7\n        /* \"SimpleSwap.sol\":5979:5988  liquidity */\n      dup4\n        /* \"SimpleSwap.sol\":5962:5989  lpToken.mint(to, liquidity) */\n      mload(0x40)\n      dup4\n      0xffffffff\n      and\n      0xe0\n      shl\n      dup2\n      mstore\n      0x04\n      add\n      tag_276\n      swap3\n      swap2\n      swap1\n      tag_127\n      jump\t// in\n    tag_276:\n      0x00\n      mload(0x40)\n      dup1\n      dup4\n      sub\n      dup2\n      0x00\n      dup8\n      dup1\n      extcodesize\n      iszero\n      dup1\n      iszero\n      tag_277\n      jumpi\n      revert(0x00, 0x00)\n    tag_277:\n      pop\n      gas\n      call\n      iszero\n      dup1\n      iszero\n      tag_279\n      jumpi\n      returndatacopy(0x00, 0x00, returndatasize)\n      revert(0x00, returndatasize)\n    tag_279:\n      pop\n      pop\n      pop\n      pop\n        /* \"SimpleSwap.sol\":6022:6024  to */\n      dup5\n        /* \"SimpleSwap.sol\":6007:6054  LiquidityAdded(to, amountA, amountB, liquidity) */\n      0xffffffffffffffffffffffffffffffffffffffff\n      and\n      0x64b83944e79c3ce8d4c297411de637c3e102d064677aac0c163976ebdcd6f50e\n        /* \"SimpleSwap.sol\":6026:6033  amountA */\n      dup5\n        /* \"SimpleSwap.sol\":6035:6042  amountB */\n      dup5\n        /* \"SimpleSwap.sol\":6044:6053  liquidity */\n      dup5\n        /* \"SimpleSwap.sol\":6007:6054  LiquidityAdded(to, amountA, amountB, liquidity) */\n      mload(0x40)\n      tag_280\n      swap4\n      swap3\n      swap2\n      swap1\n      tag_67\n      jump\t// in\n    tag_280:\n      mload(0x40)\n      dup1\n      swap2\n      sub\n      swap1\n      log2\n        /* \"SimpleSwap.sol\":4142:6062  function addLiquidity(... */\n      swap9\n      pop\n      swap9\n      pop\n      swap9\n      swap6\n      pop\n      pop\n      pop\n      pop\n      pop\n      pop\n      jump\t// out\n        /* \"SimpleSwap.sol\":1111:1414  function sqrt(uint y) internal pure returns (uint z) {... */\n    tag_72:\n        /* \"SimpleSwap.sol\":1156:1162  uint z */\n      0x00\n        /* \"SimpleSwap.sol\":1183:1184  3 */\n      0x03\n        /* \"SimpleSwap.sol\":1179:1180  y */\n      dup3\n        /* \"SimpleSwap.sol\":1179:1184  y > 3 */\n      gt\n        /* \"SimpleSwap.sol\":1175:1407  if (y > 3) {... */\n      iszero\n      tag_282\n      jumpi\n        /* \"SimpleSwap.sol\":1205:1206  y */\n      dup2\n        /* \"SimpleSwap.sol\":1201:1206  z = y */\n      swap1\n      pop\n        /* \"SimpleSwap.sol\":1221:1227  uint x */\n      0x00\n        /* \"SimpleSwap.sol\":1238:1239  1 */\n      0x01\n        /* \"SimpleSwap.sol\":1234:1235  2 */\n      0x02\n        /* \"SimpleSwap.sol\":1230:1231  y */\n      dup5\n        /* \"SimpleSwap.sol\":1230:1235  y / 2 */\n      tag_283\n      swap2\n      swap1\n      tag_110\n      jump\t// in\n    tag_283:\n        /* \"SimpleSwap.sol\":1230:1239  y / 2 + 1 */\n      tag_284\n      swap2\n      swap1\n      tag_108\n      jump\t// in\n    tag_284:\n        /* \"SimpleSwap.sol\":1221:1239  uint x = y / 2 + 1 */\n      swap1\n      pop\n        /* \"SimpleSwap.sol\":1254:1346  while (x < z) {... */\n    tag_285:\n        /* \"SimpleSwap.sol\":1265:1266  z */\n      dup2\n        /* \"SimpleSwap.sol\":1261:1262  x */\n      dup2\n        /* \"SimpleSwap.sol\":1261:1266  x < z */\n      lt\n        /* \"SimpleSwap.sol\":1254:1346  while (x < z) {... */\n      iszero\n      tag_286\n      jumpi\n        /* \"SimpleSwap.sol\":1291:1292  x */\n      dup1\n        /* \"SimpleSwap.sol\":1287:1292  z = x */\n      swap2\n      pop\n        /* \"SimpleSwap.sol\":1329:1330  2 */\n      0x02\n        /* \"SimpleSwap.sol\":1324:1325  x */\n      dup2\n        /* \"SimpleSwap.sol\":1320:1321  x */\n      dup3\n        /* \"SimpleSwap.sol\":1316:1317  y */\n      dup6\n        /* \"SimpleSwap.sol\":1316:1321  y / x */\n      tag_287\n      swap2\n      swap1\n      tag_110\n      jump\t// in\n    tag_287:\n        /* \"SimpleSwap.sol\":1316:1325  y / x + x */\n      tag_288\n      swap2\n      swap1\n      tag_108\n      jump\t// in\n    tag_288:\n        /* \"SimpleSwap.sol\":1315:1330  (y / x + x) / 2 */\n      tag_289\n      swap2\n      swap1\n      tag_110\n      jump\t// in\n    tag_289:\n        /* \"SimpleSwap.sol\":1311:1330  x = (y / x + x) / 2 */\n      swap1\n      pop\n        /* \"SimpleSwap.sol\":1254:1346  while (x < z) {... */\n      jump(tag_285)\n    tag_286:\n        /* \"SimpleSwap.sol\":1186:1357  {... */\n      pop\n        /* \"SimpleSwap.sol\":1175:1407  if (y > 3) {... */\n      jump(tag_290)\n    tag_282:\n        /* \"SimpleSwap.sol\":1372:1373  0 */\n      0x00\n        /* \"SimpleSwap.sol\":1367:1368  y */\n      dup3\n        /* \"SimpleSwap.sol\":1367:1373  y != 0 */\n      eq\n        /* \"SimpleSwap.sol\":1363:1407  if (y != 0) {... */\n      tag_291\n      jumpi\n        /* \"SimpleSwap.sol\":1394:1395  1 */\n      0x01\n        /* \"SimpleSwap.sol\":1390:1395  z = 1 */\n      swap1\n      pop\n        /* \"SimpleSwap.sol\":1363:1407  if (y != 0) {... */\n    tag_291:\n        /* \"SimpleSwap.sol\":1175:1407  if (y > 3) {... */\n    tag_290:\n        /* \"SimpleSwap.sol\":1111:1414  function sqrt(uint y) internal pure returns (uint z) {... */\n      swap2\n      swap1\n      pop\n      jump\t// out\n        /* \"#utility.yul\":7:133   */\n    tag_292:\n        /* \"#utility.yul\":44:51   */\n      0x00\n        /* \"#utility.yul\":84:126   */\n      0xffffffffffffffffffffffffffffffffffffffff\n        /* \"#utility.yul\":77:82   */\n      dup3\n        /* \"#utility.yul\":73:127   */\n      and\n        /* \"#utility.yul\":62:127   */\n      swap1\n      pop\n        /* \"#utility.yul\":7:133   */\n      swap2\n      swap1\n      pop\n      jump\t// out\n        /* \"#utility.yul\":139:235   */\n    tag_293:\n        /* \"#utility.yul\":176:183   */\n      0x00\n        /* \"#utility.yul\":205:229   */\n      tag_364\n        /* \"#utility.yul\":223:228   */\n      dup3\n        /* \"#utility.yul\":205:229   */\n      tag_292\n      jump\t// in\n    tag_364:\n        /* \"#utility.yul\":194:229   */\n      swap1\n      pop\n        /* \"#utility.yul\":139:235   */\n      swap2\n      swap1\n      pop\n      jump\t// out\n        /* \"#utility.yul\":241:359   */\n    tag_294:\n        /* \"#utility.yul\":328:352   */\n      tag_366\n        /* \"#utility.yul\":346:351   */\n      dup2\n        /* \"#utility.yul\":328:352   */\n      tag_293\n      jump\t// in\n    tag_366:\n        /* \"#utility.yul\":323:326   */\n      dup3\n        /* \"#utility.yul\":316:353   */\n      mstore\n        /* \"#utility.yul\":241:359   */\n      pop\n      pop\n      jump\t// out\n        /* \"#utility.yul\":365:587   */\n    tag_19:\n        /* \"#utility.yul\":458:462   */\n      0x00\n        /* \"#utility.yul\":496:498   */\n      0x20\n        /* \"#utility.yul\":485:494   */\n      dup3\n        /* \"#utility.yul\":481:499   */\n      add\n        /* \"#utility.yul\":473:499   */\n      swap1\n      pop\n        /* \"#utility.yul\":509:580   */\n      tag_368\n        /* \"#utility.yul\":577:578   */\n      0x00\n        /* \"#utility.yul\":566:575   */\n      dup4\n        /* \"#utility.yul\":562:579   */\n      add\n        /* \"#utility.yul\":553:559   */\n      dup5\n        /* \"#utility.yul\":509:580   */\n      tag_294\n      jump\t// in\n    tag_368:\n        /* \"#utility.yul\":365:587   */\n      swap3\n      swap2\n      pop\n      pop\n      jump\t// out\n        /* \"#utility.yul\":593:670   */\n    tag_295:\n        /* \"#utility.yul\":630:637   */\n      0x00\n        /* \"#utility.yul\":659:664   */\n      dup2\n        /* \"#utility.yul\":648:664   */\n      swap1\n      pop\n        /* \"#utility.yul\":593:670   */\n      swap2\n      swap1\n      pop\n      jump\t// out\n        /* \"#utility.yul\":676:794   */\n    tag_296:\n        /* \"#utility.yul\":763:787   */\n      tag_371\n        /* \"#utility.yul\":781:786   */\n      dup2\n        /* \"#utility.yul\":763:787   */\n      tag_295\n      jump\t// in\n    tag_371:\n        /* \"#utility.yul\":758:761   */\n      dup3\n        /* \"#utility.yul\":751:788   */\n      mstore\n        /* \"#utility.yul\":676:794   */\n      pop\n      pop\n      jump\t// out\n        /* \"#utility.yul\":800:1022   */\n    tag_23:\n        /* \"#utility.yul\":893:897   */\n      0x00\n        /* \"#utility.yul\":931:933   */\n      0x20\n        /* \"#utility.yul\":920:929   */\n      dup3\n        /* \"#utility.yul\":916:934   */\n      add\n        /* \"#utility.yul\":908:934   */\n      swap1\n      pop\n        /* \"#utility.yul\":944:1015   */\n      tag_373\n        /* \"#utility.yul\":1012:1013   */\n      0x00\n        /* \"#utility.yul\":1001:1010   */\n      dup4\n        /* \"#utility.yul\":997:1014   */\n      add\n        /* \"#utility.yul\":988:994   */\n      dup5\n        /* \"#utility.yul\":944:1015   */\n      tag_296\n      jump\t// in\n    tag_373:\n        /* \"#utility.yul\":800:1022   */\n      swap3\n      swap2\n      pop\n      pop\n      jump\t// out\n        /* \"#utility.yul\":1109:1226   */\n    tag_298:\n        /* \"#utility.yul\":1218:1219   */\n      0x00\n        /* \"#utility.yul\":1215:1216   */\n      0x00\n        /* \"#utility.yul\":1208:1220   */\n      revert\n        /* \"#utility.yul\":1232:1349   */\n    tag_299:\n        /* \"#utility.yul\":1341:1342   */\n      0x00\n        /* \"#utility.yul\":1338:1339   */\n      0x00\n        /* \"#utility.yul\":1331:1343   */\n      revert\n        /* \"#utility.yul\":1355:1477   */\n    tag_300:\n        /* \"#utility.yul\":1428:1452   */\n      tag_378\n        /* \"#utility.yul\":1446:1451   */\n      dup2\n        /* \"#utility.yul\":1428:1452   */\n      tag_295\n      jump\t// in\n    tag_378:\n        /* \"#utility.yul\":1421:1426   */\n      dup2\n        /* \"#utility.yul\":1418:1453   */\n      eq\n        /* \"#utility.yul\":1408:1471   */\n      tag_379\n      jumpi\n        /* \"#utility.yul\":1467:1468   */\n      0x00\n        /* \"#utility.yul\":1464:1465   */\n      0x00\n        /* \"#utility.yul\":1457:1469   */\n      revert\n        /* \"#utility.yul\":1408:1471   */\n    tag_379:\n        /* \"#utility.yul\":1355:1477   */\n      pop\n      jump\t// out\n        /* \"#utility.yul\":1483:1622   */\n    tag_301:\n        /* \"#utility.yul\":1529:1534   */\n      0x00\n        /* \"#utility.yul\":1567:1573   */\n      dup2\n        /* \"#utility.yul\":1554:1574   */\n      calldataload\n        /* \"#utility.yul\":1545:1574   */\n      swap1\n      pop\n        /* \"#utility.yul\":1583:1616   */\n      tag_381\n        /* \"#utility.yul\":1610:1615   */\n      dup2\n        /* \"#utility.yul\":1583:1616   */\n      tag_300\n      jump\t// in\n    tag_381:\n        /* \"#utility.yul\":1483:1622   */\n      swap3\n      swap2\n      pop\n      pop\n      jump\t// out\n        /* \"#utility.yul\":1628:1745   */\n    tag_302:\n        /* \"#utility.yul\":1737:1738   */\n      0x00\n        /* \"#utility.yul\":1734:1735   */\n      0x00\n        /* \"#utility.yul\":1727:1739   */\n      revert\n        /* \"#utility.yul\":1751:1868   */\n    tag_303:\n        /* \"#utility.yul\":1860:1861   */\n      0x00\n        /* \"#utility.yul\":1857:1858   */\n      0x00\n        /* \"#utility.yul\":1850:1862   */\n      revert\n        /* \"#utility.yul\":1874:1991   */\n    tag_304:\n        /* \"#utility.yul\":1983:1984   */\n      0x00\n        /* \"#utility.yul\":1980:1981   */\n      0x00\n        /* \"#utility.yul\":1973:1985   */\n      revert\n        /* \"#utility.yul\":2014:2582   */\n    tag_305:\n        /* \"#utility.yul\":2087:2095   */\n      0x00\n        /* \"#utility.yul\":2097:2103   */\n      0x00\n        /* \"#utility.yul\":2147:2150   */\n      dup4\n        /* \"#utility.yul\":2140:2144   */\n      0x1f\n        /* \"#utility.yul\":2132:2138   */\n      dup5\n        /* \"#utility.yul\":2128:2145   */\n      add\n        /* \"#utility.yul\":2124:2151   */\n      slt\n        /* \"#utility.yul\":2114:2236   */\n      tag_386\n      jumpi\n        /* \"#utility.yul\":2155:2234   */\n      tag_387\n      tag_302\n      jump\t// in\n    tag_387:\n        /* \"#utility.yul\":2114:2236   */\n    tag_386:\n        /* \"#utility.yul\":2268:2274   */\n      dup3\n        /* \"#utility.yul\":2255:2275   */\n      calldataload\n        /* \"#utility.yul\":2245:2275   */\n      swap1\n      pop\n        /* \"#utility.yul\":2298:2316   */\n      0xffffffffffffffff\n        /* \"#utility.yul\":2290:2296   */\n      dup2\n        /* \"#utility.yul\":2287:2317   */\n      gt\n        /* \"#utility.yul\":2284:2401   */\n      iszero\n      tag_388\n      jumpi\n        /* \"#utility.yul\":2320:2399   */\n      tag_389\n      tag_303\n      jump\t// in\n    tag_389:\n        /* \"#utility.yul\":2284:2401   */\n    tag_388:\n        /* \"#utility.yul\":2434:2438   */\n      0x20\n        /* \"#utility.yul\":2426:2432   */\n      dup4\n        /* \"#utility.yul\":2422:2439   */\n      add\n        /* \"#utility.yul\":2410:2439   */\n      swap2\n      pop\n        /* \"#utility.yul\":2488:2491   */\n      dup4\n        /* \"#utility.yul\":2480:2484   */\n      0x20\n        /* \"#utility.yul\":2472:2478   */\n      dup3\n        /* \"#utility.yul\":2468:2485   */\n      mul\n        /* \"#utility.yul\":2458:2466   */\n      dup4\n        /* \"#utility.yul\":2454:2486   */\n      add\n        /* \"#utility.yul\":2451:2492   */\n      gt\n        /* \"#utility.yul\":2448:2576   */\n      iszero\n      tag_390\n      jumpi\n        /* \"#utility.yul\":2495:2574   */\n      tag_391\n      tag_304\n      jump\t// in\n    tag_391:\n        /* \"#utility.yul\":2448:2576   */\n    tag_390:\n        /* \"#utility.yul\":2014:2582   */\n      swap3\n      pop\n      swap3\n      swap1\n      pop\n      jump\t// out\n        /* \"#utility.yul\":2588:2710   */\n    tag_306:\n        /* \"#utility.yul\":2661:2685   */\n      tag_393\n        /* \"#utility.yul\":2679:2684   */\n      dup2\n        /* \"#utility.yul\":2661:2685   */\n      tag_293\n      jump\t// in\n    tag_393:\n        /* \"#utility.yul\":2654:2659   */\n      dup2\n        /* \"#utility.yul\":2651:2686   */\n      eq\n        /* \"#utility.yul\":2641:2704   */\n      tag_394\n      jumpi\n        /* \"#utility.yul\":2700:2701   */\n      0x00\n        /* \"#utility.yul\":2697:2698   */\n      0x00\n        /* \"#utility.yul\":2690:2702   */\n      revert\n        /* \"#utility.yul\":2641:2704   */\n    tag_394:\n        /* \"#utility.yul\":2588:2710   */\n      pop\n      jump\t// out\n        /* \"#utility.yul\":2716:2855   */\n    tag_307:\n        /* \"#utility.yul\":2762:2767   */\n      0x00\n        /* \"#utility.yul\":2800:2806   */\n      dup2\n        /* \"#utility.yul\":2787:2807   */\n      calldataload\n        /* \"#utility.yul\":2778:2807   */\n      swap1\n      pop\n        /* \"#utility.yul\":2816:2849   */\n      tag_396\n        /* \"#utility.yul\":2843:2848   */\n      dup2\n        /* \"#utility.yul\":2816:2849   */\n      tag_306\n      jump\t// in\n    tag_396:\n        /* \"#utility.yul\":2716:2855   */\n      swap3\n      swap2\n      pop\n      pop\n      jump\t// out\n        /* \"#utility.yul\":2861:4002   */\n    tag_29:\n        /* \"#utility.yul\":2983:2989   */\n      0x00\n        /* \"#utility.yul\":2991:2997   */\n      0x00\n        /* \"#utility.yul\":2999:3005   */\n      0x00\n        /* \"#utility.yul\":3007:3013   */\n      0x00\n        /* \"#utility.yul\":3015:3021   */\n      0x00\n        /* \"#utility.yul\":3023:3029   */\n      0x00\n        /* \"#utility.yul\":3072:3075   */\n      0xa0\n        /* \"#utility.yul\":3060:3069   */\n      dup8\n        /* \"#utility.yul\":3051:3058   */\n      dup10\n        /* \"#utility.yul\":3047:3070   */\n      sub\n        /* \"#utility.yul\":3043:3076   */\n      slt\n        /* \"#utility.yul\":3040:3160   */\n      iszero\n      tag_398\n      jumpi\n        /* \"#utility.yul\":3079:3158   */\n      tag_399\n      tag_298\n      jump\t// in\n    tag_399:\n        /* \"#utility.yul\":3040:3160   */\n    tag_398:\n        /* \"#utility.yul\":3199:3200   */\n      0x00\n        /* \"#utility.yul\":3224:3277   */\n      tag_400\n        /* \"#utility.yul\":3269:3276   */\n      dup10\n        /* \"#utility.yul\":3260:3266   */\n      dup3\n        /* \"#utility.yul\":3249:3258   */\n      dup11\n        /* \"#utility.yul\":3245:3267   */\n      add\n        /* \"#utility.yul\":3224:3277   */\n      tag_301\n      jump\t// in\n    tag_400:\n        /* \"#utility.yul\":3214:3277   */\n      swap7\n      pop\n        /* \"#utility.yul\":3170:3287   */\n      pop\n        /* \"#utility.yul\":3326:3328   */\n      0x20\n        /* \"#utility.yul\":3352:3405   */\n      tag_401\n        /* \"#utility.yul\":3397:3404   */\n      dup10\n        /* \"#utility.yul\":3388:3394   */\n      dup3\n        /* \"#utility.yul\":3377:3386   */\n      dup11\n        /* \"#utility.yul\":3373:3395   */\n      add\n        /* \"#utility.yul\":3352:3405   */\n      tag_301\n      jump\t// in\n    tag_401:\n        /* \"#utility.yul\":3342:3405   */\n      swap6\n      pop\n        /* \"#utility.yul\":3297:3415   */\n      pop\n        /* \"#utility.yul\":3482:3484   */\n      0x40\n        /* \"#utility.yul\":3471:3480   */\n      dup8\n        /* \"#utility.yul\":3467:3485   */\n      add\n        /* \"#utility.yul\":3454:3486   */\n      calldataload\n        /* \"#utility.yul\":3513:3531   */\n      0xffffffffffffffff\n        /* \"#utility.yul\":3505:3511   */\n      dup2\n        /* \"#utility.yul\":3502:3532   */\n      gt\n        /* \"#utility.yul\":3499:3616   */\n      iszero\n      tag_402\n      jumpi\n        /* \"#utility.yul\":3535:3614   */\n      tag_403\n      tag_299\n      jump\t// in\n    tag_403:\n        /* \"#utility.yul\":3499:3616   */\n    tag_402:\n        /* \"#utility.yul\":3648:3728   */\n      tag_404\n        /* \"#utility.yul\":3720:3727   */\n      dup10\n        /* \"#utility.yul\":3711:3717   */\n      dup3\n        /* \"#utility.yul\":3700:3709   */\n      dup11\n        /* \"#utility.yul\":3696:3718   */\n      add\n        /* \"#utility.yul\":3648:3728   */\n      tag_305\n      jump\t// in\n    tag_404:\n        /* \"#utility.yul\":3630:3728   */\n      swap5\n      pop\n      swap5\n      pop\n        /* \"#utility.yul\":3425:3738   */\n      pop\n        /* \"#utility.yul\":3777:3779   */\n      0x60\n        /* \"#utility.yul\":3803:3856   */\n      tag_405\n        /* \"#utility.yul\":3848:3855   */\n      dup10\n        /* \"#utility.yul\":3839:3845   */\n      dup3\n        /* \"#utility.yul\":3828:3837   */\n      dup11\n        /* \"#utility.yul\":3824:3846   */\n      add\n        /* \"#utility.yul\":3803:3856   */\n      tag_307\n      jump\t// in\n    tag_405:\n        /* \"#utility.yul\":3793:3856   */\n      swap3\n      pop\n        /* \"#utility.yul\":3748:3866   */\n      pop\n        /* \"#utility.yul\":3905:3908   */\n      0x80\n        /* \"#utility.yul\":3932:3985   */\n      tag_406\n        /* \"#utility.yul\":3977:3984   */\n      dup10\n        /* \"#utility.yul\":3968:3974   */\n      dup3\n        /* \"#utility.yul\":3957:3966   */\n      dup11\n        /* \"#utility.yul\":3953:3975   */\n      add\n        /* \"#utility.yul\":3932:3985   */\n      tag_301\n      jump\t// in\n    tag_406:\n        /* \"#utility.yul\":3922:3985   */\n      swap2\n      pop\n        /* \"#utility.yul\":3876:3995   */\n      pop\n        /* \"#utility.yul\":2861:4002   */\n      swap3\n      swap6\n      pop\n      swap3\n      swap6\n      pop\n      swap3\n      swap6\n      jump\t// out\n        /* \"#utility.yul\":4008:4122   */\n    tag_308:\n        /* \"#utility.yul\":4075:4081   */\n      0x00\n        /* \"#utility.yul\":4109:4114   */\n      dup2\n        /* \"#utility.yul\":4103:4115   */\n      mload\n        /* \"#utility.yul\":4093:4115   */\n      swap1\n      pop\n        /* \"#utility.yul\":4008:4122   */\n      swap2\n      swap1\n      pop\n      jump\t// out\n        /* \"#utility.yul\":4128:4312   */\n    tag_309:\n        /* \"#utility.yul\":4227:4238   */\n      0x00\n        /* \"#utility.yul\":4261:4267   */\n      dup3\n        /* \"#utility.yul\":4256:4259   */\n      dup3\n        /* \"#utility.yul\":4249:4268   */\n      mstore\n        /* \"#utility.yul\":4301:4305   */\n      0x20\n        /* \"#utility.yul\":4296:4299   */\n      dup3\n        /* \"#utility.yul\":4292:4306   */\n      add\n        /* \"#utility.yul\":4277:4306   */\n      swap1\n      pop\n        /* \"#utility.yul\":4128:4312   */\n      swap3\n      swap2\n      pop\n      pop\n      jump\t// out\n        /* \"#utility.yul\":4318:4450   */\n    tag_310:\n        /* \"#utility.yul\":4385:4389   */\n      0x00\n        /* \"#utility.yul\":4408:4411   */\n      dup2\n        /* \"#utility.yul\":4400:4411   */\n      swap1\n      pop\n        /* \"#utility.yul\":4438:4442   */\n      0x20\n        /* \"#utility.yul\":4433:4436   */\n      dup3\n        /* \"#utility.yul\":4429:4443   */\n      add\n        /* \"#utility.yul\":4421:4443   */\n      swap1\n      pop\n        /* \"#utility.yul\":4318:4450   */\n      swap2\n      swap1\n      pop\n      jump\t// out\n        /* \"#utility.yul\":4456:4564   */\n    tag_311:\n        /* \"#utility.yul\":4533:4557   */\n      tag_411\n        /* \"#utility.yul\":4551:4556   */\n      dup2\n        /* \"#utility.yul\":4533:4557   */\n      tag_295\n      jump\t// in\n    tag_411:\n        /* \"#utility.yul\":4528:4531   */\n      dup3\n        /* \"#utility.yul\":4521:4558   */\n      mstore\n        /* \"#utility.yul\":4456:4564   */\n      pop\n      pop\n      jump\t// out\n        /* \"#utility.yul\":4570:4749   */\n    tag_312:\n        /* \"#utility.yul\":4639:4649   */\n      0x00\n        /* \"#utility.yul\":4660:4706   */\n      tag_413\n        /* \"#utility.yul\":4702:4705   */\n      dup4\n        /* \"#utility.yul\":4694:4700   */\n      dup4\n        /* \"#utility.yul\":4660:4706   */\n      tag_311\n      jump\t// in\n    tag_413:\n        /* \"#utility.yul\":4738:4742   */\n      0x20\n        /* \"#utility.yul\":4733:4736   */\n      dup4\n        /* \"#utility.yul\":4729:4743   */\n      add\n        /* \"#utility.yul\":4715:4743   */\n      swap1\n      pop\n        /* \"#utility.yul\":4570:4749   */\n      swap3\n      swap2\n      pop\n      pop\n      jump\t// out\n        /* \"#utility.yul\":4755:4868   */\n    tag_313:\n        /* \"#utility.yul\":4825:4829   */\n      0x00\n        /* \"#utility.yul\":4857:4861   */\n      0x20\n        /* \"#utility.yul\":4852:4855   */\n      dup3\n        /* \"#utility.yul\":4848:4862   */\n      add\n        /* \"#utility.yul\":4840:4862   */\n      swap1\n      pop\n        /* \"#utility.yul\":4755:4868   */\n      swap2\n      swap1\n      pop\n      jump\t// out\n        /* \"#utility.yul\":4904:5636   */\n    tag_314:\n        /* \"#utility.yul\":5023:5026   */\n      0x00\n        /* \"#utility.yul\":5052:5106   */\n      tag_416\n        /* \"#utility.yul\":5100:5105   */\n      dup3\n        /* \"#utility.yul\":5052:5106   */\n      tag_308\n      jump\t// in\n    tag_416:\n        /* \"#utility.yul\":5122:5208   */\n      tag_417\n        /* \"#utility.yul\":5201:5207   */\n      dup2\n        /* \"#utility.yul\":5196:5199   */\n      dup6\n        /* \"#utility.yul\":5122:5208   */\n      tag_309\n      jump\t// in\n    tag_417:\n        /* \"#utility.yul\":5115:5208   */\n      swap4\n      pop\n        /* \"#utility.yul\":5232:5288   */\n      tag_418\n        /* \"#utility.yul\":5282:5287   */\n      dup4\n        /* \"#utility.yul\":5232:5288   */\n      tag_310\n      jump\t// in\n    tag_418:\n        /* \"#utility.yul\":5311:5318   */\n      dup1\n        /* \"#utility.yul\":5342:5343   */\n      0x00\n        /* \"#utility.yul\":5327:5611   */\n    tag_419:\n        /* \"#utility.yul\":5352:5358   */\n      dup4\n        /* \"#utility.yul\":5349:5350   */\n      dup2\n        /* \"#utility.yul\":5346:5359   */\n      lt\n        /* \"#utility.yul\":5327:5611   */\n      iszero\n      tag_421\n      jumpi\n        /* \"#utility.yul\":5428:5434   */\n      dup2\n        /* \"#utility.yul\":5422:5435   */\n      mload\n        /* \"#utility.yul\":5455:5518   */\n      tag_422\n        /* \"#utility.yul\":5514:5517   */\n      dup9\n        /* \"#utility.yul\":5499:5512   */\n      dup3\n        /* \"#utility.yul\":5455:5518   */\n      tag_312\n      jump\t// in\n    tag_422:\n        /* \"#utility.yul\":5448:5518   */\n      swap8\n      pop\n        /* \"#utility.yul\":5541:5601   */\n      tag_423\n        /* \"#utility.yul\":5594:5600   */\n      dup4\n        /* \"#utility.yul\":5541:5601   */\n      tag_313\n      jump\t// in\n    tag_423:\n        /* \"#utility.yul\":5531:5601   */\n      swap3\n      pop\n        /* \"#utility.yul\":5387:5611   */\n      pop\n        /* \"#utility.yul\":5374:5375   */\n      0x01\n        /* \"#utility.yul\":5371:5372   */\n      dup2\n        /* \"#utility.yul\":5367:5376   */\n      add\n        /* \"#utility.yul\":5362:5376   */\n      swap1\n      pop\n        /* \"#utility.yul\":5327:5611   */\n      jump(tag_419)\n    tag_421:\n        /* \"#utility.yul\":5331:5345   */\n      pop\n        /* \"#utility.yul\":5627:5630   */\n      dup6\n        /* \"#utility.yul\":5620:5630   */\n      swap4\n      pop\n        /* \"#utility.yul\":5028:5636   */\n      pop\n      pop\n      pop\n        /* \"#utility.yul\":4904:5636   */\n      swap3\n      swap2\n      pop\n      pop\n      jump\t// out\n        /* \"#utility.yul\":5642:6015   */\n    tag_32:\n        /* \"#utility.yul\":5785:5789   */\n      0x00\n        /* \"#utility.yul\":5823:5825   */\n      0x20\n        /* \"#utility.yul\":5812:5821   */\n      dup3\n        /* \"#utility.yul\":5808:5826   */\n      add\n        /* \"#utility.yul\":5800:5826   */\n      swap1\n      pop\n        /* \"#utility.yul\":5872:5881   */\n      dup2\n        /* \"#utility.yul\":5866:5870   */\n      dup2\n        /* \"#utility.yul\":5862:5882   */\n      sub\n        /* \"#utility.yul\":5858:5859   */\n      0x00\n        /* \"#utility.yul\":5847:5856   */\n      dup4\n        /* \"#utility.yul\":5843:5860   */\n      add\n        /* \"#utility.yul\":5836:5883   */\n      mstore\n        /* \"#utility.yul\":5900:6008   */\n      tag_425\n        /* \"#utility.yul\":6003:6007   */\n      dup2\n        /* \"#utility.yul\":5994:6000   */\n      dup5\n        /* \"#utility.yul\":5900:6008   */\n      tag_314\n      jump\t// in\n    tag_425:\n        /* \"#utility.yul\":5892:6008   */\n      swap1\n      pop\n        /* \"#utility.yul\":5642:6015   */\n      swap3\n      swap2\n      pop\n      pop\n      jump\t// out\n        /* \"#utility.yul\":6021:6640   */\n    tag_35:\n        /* \"#utility.yul\":6098:6104   */\n      0x00\n        /* \"#utility.yul\":6106:6112   */\n      0x00\n        /* \"#utility.yul\":6114:6120   */\n      0x00\n        /* \"#utility.yul\":6163:6165   */\n      0x60\n        /* \"#utility.yul\":6151:6160   */\n      dup5\n        /* \"#utility.yul\":6142:6149   */\n      dup7\n        /* \"#utility.yul\":6138:6161   */\n      sub\n        /* \"#utility.yul\":6134:6166   */\n      slt\n        /* \"#utility.yul\":6131:6250   */\n      iszero\n      tag_427\n      jumpi\n        /* \"#utility.yul\":6169:6248   */\n      tag_428\n      tag_298\n      jump\t// in\n    tag_428:\n        /* \"#utility.yul\":6131:6250   */\n    tag_427:\n        /* \"#utility.yul\":6289:6290   */\n      0x00\n        /* \"#utility.yul\":6314:6367   */\n      tag_429\n        /* \"#utility.yul\":6359:6366   */\n      dup7\n        /* \"#utility.yul\":6350:6356   */\n      dup3\n        /* \"#utility.yul\":6339:6348   */\n      dup8\n        /* \"#utility.yul\":6335:6357   */\n      add\n        /* \"#utility.yul\":6314:6367   */\n      tag_307\n      jump\t// in\n    tag_429:\n        /* \"#utility.yul\":6304:6367   */\n      swap4\n      pop\n        /* \"#utility.yul\":6260:6377   */\n      pop\n        /* \"#utility.yul\":6416:6418   */\n      0x20\n        /* \"#utility.yul\":6442:6495   */\n      tag_430\n        /* \"#utility.yul\":6487:6494   */\n      dup7\n        /* \"#utility.yul\":6478:6484   */\n      dup3\n        /* \"#utility.yul\":6467:6476   */\n      dup8\n        /* \"#utility.yul\":6463:6485   */\n      add\n        /* \"#utility.yul\":6442:6495   */\n      tag_307\n      jump\t// in\n    tag_430:\n        /* \"#utility.yul\":6432:6495   */\n      swap3\n      pop\n        /* \"#utility.yul\":6387:6505   */\n      pop\n        /* \"#utility.yul\":6544:6546   */\n      0x40\n        /* \"#utility.yul\":6570:6623   */\n      tag_431\n        /* \"#utility.yul\":6615:6622   */\n      dup7\n        /* \"#utility.yul\":6606:6612   */\n      dup3\n        /* \"#utility.yul\":6595:6604   */\n      dup8\n        /* \"#utility.yul\":6591:6613   */\n      add\n        /* \"#utility.yul\":6570:6623   */\n      tag_301\n      jump\t// in\n    tag_431:\n        /* \"#utility.yul\":6560:6623   */\n      swap2\n      pop\n        /* \"#utility.yul\":6515:6633   */\n      pop\n        /* \"#utility.yul\":6021:6640   */\n      swap3\n      pop\n      swap3\n      pop\n      swap3\n      jump\t// out\n        /* \"#utility.yul\":6646:6706   */\n    tag_315:\n        /* \"#utility.yul\":6674:6677   */\n      0x00\n        /* \"#utility.yul\":6695:6700   */\n      dup2\n        /* \"#utility.yul\":6688:6700   */\n      swap1\n      pop\n        /* \"#utility.yul\":6646:6706   */\n      swap2\n      swap1\n      pop\n      jump\t// out\n        /* \"#utility.yul\":6712:6854   */\n    tag_316:\n        /* \"#utility.yul\":6762:6771   */\n      0x00\n        /* \"#utility.yul\":6795:6848   */\n      tag_434\n        /* \"#utility.yul\":6813:6847   */\n      tag_435\n        /* \"#utility.yul\":6822:6846   */\n      tag_436\n        /* \"#utility.yul\":6840:6845   */\n      dup5\n        /* \"#utility.yul\":6822:6846   */\n      tag_292\n      jump\t// in\n    tag_436:\n        /* \"#utility.yul\":6813:6847   */\n      tag_315\n      jump\t// in\n    tag_435:\n        /* \"#utility.yul\":6795:6848   */\n      tag_292\n      jump\t// in\n    tag_434:\n        /* \"#utility.yul\":6782:6848   */\n      swap1\n      pop\n        /* \"#utility.yul\":6712:6854   */\n      swap2\n      swap1\n      pop\n      jump\t// out\n        /* \"#utility.yul\":6860:6986   */\n    tag_317:\n        /* \"#utility.yul\":6910:6919   */\n      0x00\n        /* \"#utility.yul\":6943:6980   */\n      tag_438\n        /* \"#utility.yul\":6974:6979   */\n      dup3\n        /* \"#utility.yul\":6943:6980   */\n      tag_316\n      jump\t// in\n    tag_438:\n        /* \"#utility.yul\":6930:6980   */\n      swap1\n      pop\n        /* \"#utility.yul\":6860:6986   */\n      swap2\n      swap1\n      pop\n      jump\t// out\n        /* \"#utility.yul\":6992:7134   */\n    tag_318:\n        /* \"#utility.yul\":7058:7067   */\n      0x00\n        /* \"#utility.yul\":7091:7128   */\n      tag_440\n        /* \"#utility.yul\":7122:7127   */\n      dup3\n        /* \"#utility.yul\":7091:7128   */\n      tag_317\n      jump\t// in\n    tag_440:\n        /* \"#utility.yul\":7078:7128   */\n      swap1\n      pop\n        /* \"#utility.yul\":6992:7134   */\n      swap2\n      swap1\n      pop\n      jump\t// out\n        /* \"#utility.yul\":7140:7303   */\n    tag_319:\n        /* \"#utility.yul\":7243:7296   */\n      tag_442\n        /* \"#utility.yul\":7290:7295   */\n      dup2\n        /* \"#utility.yul\":7243:7296   */\n      tag_318\n      jump\t// in\n    tag_442:\n        /* \"#utility.yul\":7238:7241   */\n      dup3\n        /* \"#utility.yul\":7231:7297   */\n      mstore\n        /* \"#utility.yul\":7140:7303   */\n      pop\n      pop\n      jump\t// out\n        /* \"#utility.yul\":7309:7563   */\n    tag_44:\n        /* \"#utility.yul\":7418:7422   */\n      0x00\n        /* \"#utility.yul\":7456:7458   */\n      0x20\n        /* \"#utility.yul\":7445:7454   */\n      dup3\n        /* \"#utility.yul\":7441:7459   */\n      add\n        /* \"#utility.yul\":7433:7459   */\n      swap1\n      pop\n        /* \"#utility.yul\":7469:7556   */\n      tag_444\n        /* \"#utility.yul\":7553:7554   */\n      0x00\n        /* \"#utility.yul\":7542:7551   */\n      dup4\n        /* \"#utility.yul\":7538:7555   */\n      add\n        /* \"#utility.yul\":7529:7535   */\n      dup5\n        /* \"#utility.yul\":7469:7556   */\n      tag_319\n      jump\t// in\n    tag_444:\n        /* \"#utility.yul\":7309:7563   */\n      swap3\n      swap2\n      pop\n      pop\n      jump\t// out\n        /* \"#utility.yul\":7569:8043   */\n    tag_50:\n        /* \"#utility.yul\":7637:7643   */\n      0x00\n        /* \"#utility.yul\":7645:7651   */\n      0x00\n        /* \"#utility.yul\":7694:7696   */\n      0x40\n        /* \"#utility.yul\":7682:7691   */\n      dup4\n        /* \"#utility.yul\":7673:7680   */\n      dup6\n        /* \"#utility.yul\":7669:7692   */\n      sub\n        /* \"#utility.yul\":7665:7697   */\n      slt\n        /* \"#utility.yul\":7662:7781   */\n      iszero\n      tag_446\n      jumpi\n        /* \"#utility.yul\":7700:7779   */\n      tag_447\n      tag_298\n      jump\t// in\n    tag_447:\n        /* \"#utility.yul\":7662:7781   */\n    tag_446:\n        /* \"#utility.yul\":7820:7821   */\n      0x00\n        /* \"#utility.yul\":7845:7898   */\n      tag_448\n        /* \"#utility.yul\":7890:7897   */\n      dup6\n        /* \"#utility.yul\":7881:7887   */\n      dup3\n        /* \"#utility.yul\":7870:7879   */\n      dup7\n        /* \"#utility.yul\":7866:7888   */\n      add\n        /* \"#utility.yul\":7845:7898   */\n      tag_307\n      jump\t// in\n    tag_448:\n        /* \"#utility.yul\":7835:7898   */\n      swap3\n      pop\n        /* \"#utility.yul\":7791:7908   */\n      pop\n        /* \"#utility.yul\":7947:7949   */\n      0x20\n        /* \"#utility.yul\":7973:8026   */\n      tag_449\n        /* \"#utility.yul\":8018:8025   */\n      dup6\n        /* \"#utility.yul\":8009:8015   */\n      dup3\n        /* \"#utility.yul\":7998:8007   */\n      dup7\n        /* \"#utility.yul\":7994:8016   */\n      add\n        /* \"#utility.yul\":7973:8026   */\n      tag_307\n      jump\t// in\n    tag_449:\n        /* \"#utility.yul\":7963:8026   */\n      swap2\n      pop\n        /* \"#utility.yul\":7918:8036   */\n      pop\n        /* \"#utility.yul\":7569:8043   */\n      swap3\n      pop\n      swap3\n      swap1\n      pop\n      jump\t// out\n        /* \"#utility.yul\":8049:9252   */\n    tag_55:\n        /* \"#utility.yul\":8162:8168   */\n      0x00\n        /* \"#utility.yul\":8170:8176   */\n      0x00\n        /* \"#utility.yul\":8178:8184   */\n      0x00\n        /* \"#utility.yul\":8186:8192   */\n      0x00\n        /* \"#utility.yul\":8194:8200   */\n      0x00\n        /* \"#utility.yul\":8202:8208   */\n      0x00\n        /* \"#utility.yul\":8210:8216   */\n      0x00\n        /* \"#utility.yul\":8259:8262   */\n      0xe0\n        /* \"#utility.yul\":8247:8256   */\n      dup9\n        /* \"#utility.yul\":8238:8245   */\n      dup11\n        /* \"#utility.yul\":8234:8257   */\n      sub\n        /* \"#utility.yul\":8230:8263   */\n      slt\n        /* \"#utility.yul\":8227:8347   */\n      iszero\n      tag_451\n      jumpi\n        /* \"#utility.yul\":8266:8345   */\n      tag_452\n      tag_298\n      jump\t// in\n    tag_452:\n        /* \"#utility.yul\":8227:8347   */\n    tag_451:\n        /* \"#utility.yul\":8386:8387   */\n      0x00\n        /* \"#utility.yul\":8411:8464   */\n      tag_453\n        /* \"#utility.yul\":8456:8463   */\n      dup11\n        /* \"#utility.yul\":8447:8453   */\n      dup3\n        /* \"#utility.yul\":8436:8445   */\n      dup12\n        /* \"#utility.yul\":8432:8454   */\n      add\n        /* \"#utility.yul\":8411:8464   */\n      tag_307\n      jump\t// in\n    tag_453:\n        /* \"#utility.yul\":8401:8464   */\n      swap8\n      pop\n        /* \"#utility.yul\":8357:8474   */\n      pop\n        /* \"#utility.yul\":8513:8515   */\n      0x20\n        /* \"#utility.yul\":8539:8592   */\n      tag_454\n        /* \"#utility.yul\":8584:8591   */\n      dup11\n        /* \"#utility.yul\":8575:8581   */\n      dup3\n        /* \"#utility.yul\":8564:8573   */\n      dup12\n        /* \"#utility.yul\":8560:8582   */\n      add\n        /* \"#utility.yul\":8539:8592   */\n      tag_307\n      jump\t// in\n    tag_454:\n        /* \"#utility.yul\":8529:8592   */\n      swap7\n      pop\n        /* \"#utility.yul\":8484:8602   */\n      pop\n        /* \"#utility.yul\":8641:8643   */\n      0x40\n        /* \"#utility.yul\":8667:8720   */\n      tag_455\n        /* \"#utility.yul\":8712:8719   */\n      dup11\n        /* \"#utility.yul\":8703:8709   */\n      dup3\n        /* \"#utility.yul\":8692:8701   */\n      dup12\n        /* \"#utility.yul\":8688:8710   */\n      add\n        /* \"#utility.yul\":8667:8720   */\n      tag_301\n      jump\t// in\n    tag_455:\n        /* \"#utility.yul\":8657:8720   */\n      swap6\n      pop\n        /* \"#utility.yul\":8612:8730   */\n      pop\n        /* \"#utility.yul\":8769:8771   */\n      0x60\n        /* \"#utility.yul\":8795:8848   */\n      tag_456\n        /* \"#utility.yul\":8840:8847   */\n      dup11\n        /* \"#utility.yul\":8831:8837   */\n      dup3\n        /* \"#utility.yul\":8820:8829   */\n      dup12\n        /* \"#utility.yul\":8816:8838   */\n      add\n        /* \"#utility.yul\":8795:8848   */\n      tag_301\n      jump\t// in\n    tag_456:\n        /* \"#utility.yul\":8785:8848   */\n      swap5\n      pop\n        /* \"#utility.yul\":8740:8858   */\n      pop\n        /* \"#utility.yul\":8897:8900   */\n      0x80\n        /* \"#utility.yul\":8924:8977   */\n      tag_457\n        /* \"#utility.yul\":8969:8976   */\n      dup11\n        /* \"#utility.yul\":8960:8966   */\n      dup3\n        /* \"#utility.yul\":8949:8958   */\n      dup12\n        /* \"#utility.yul\":8945:8967   */\n      add\n        /* \"#utility.yul\":8924:8977   */\n      tag_301\n      jump\t// in\n    tag_457:\n        /* \"#utility.yul\":8914:8977   */\n      swap4\n      pop\n        /* \"#utility.yul\":8868:8987   */\n      pop\n        /* \"#utility.yul\":9026:9029   */\n      0xa0\n        /* \"#utility.yul\":9053:9106   */\n      tag_458\n        /* \"#utility.yul\":9098:9105   */\n      dup11\n        /* \"#utility.yul\":9089:9095   */\n      dup3\n        /* \"#utility.yul\":9078:9087   */\n      dup12\n        /* \"#utility.yul\":9074:9096   */\n      add\n        /* \"#utility.yul\":9053:9106   */\n      tag_307\n      jump\t// in\n    tag_458:\n        /* \"#utility.yul\":9043:9106   */\n      swap3\n      pop\n        /* \"#utility.yul\":8997:9116   */\n      pop\n        /* \"#utility.yul\":9155:9158   */\n      0xc0\n        /* \"#utility.yul\":9182:9235   */\n      tag_459\n        /* \"#utility.yul\":9227:9234   */\n      dup11\n        /* \"#utility.yul\":9218:9224   */\n      dup3\n        /* \"#utility.yul\":9207:9216   */\n      dup12\n        /* \"#utility.yul\":9203:9225   */\n      add\n        /* \"#utility.yul\":9182:9235   */\n      tag_301\n      jump\t// in\n    tag_459:\n        /* \"#utility.yul\":9172:9235   */\n      swap2\n      pop\n        /* \"#utility.yul\":9126:9245   */\n      pop\n        /* \"#utility.yul\":8049:9252   */\n      swap3\n      swap6\n      swap9\n      swap2\n      swap5\n      swap8\n      pop\n      swap3\n      swap6\n      pop\n      jump\t// out\n        /* \"#utility.yul\":9258:9590   */\n    tag_58:\n        /* \"#utility.yul\":9379:9383   */\n      0x00\n        /* \"#utility.yul\":9417:9419   */\n      0x40\n        /* \"#utility.yul\":9406:9415   */\n      dup3\n        /* \"#utility.yul\":9402:9420   */\n      add\n        /* \"#utility.yul\":9394:9420   */\n      swap1\n      pop\n        /* \"#utility.yul\":9430:9501   */\n      tag_461\n        /* \"#utility.yul\":9498:9499   */\n      0x00\n        /* \"#utility.yul\":9487:9496   */\n      dup4\n        /* \"#utility.yul\":9483:9500   */\n      add\n        /* \"#utility.yul\":9474:9480   */\n      dup6\n        /* \"#utility.yul\":9430:9501   */\n      tag_296\n      jump\t// in\n    tag_461:\n        /* \"#utility.yul\":9511:9583   */\n      tag_462\n        /* \"#utility.yul\":9579:9581   */\n      0x20\n        /* \"#utility.yul\":9568:9577   */\n      dup4\n        /* \"#utility.yul\":9564:9582   */\n      add\n        /* \"#utility.yul\":9555:9561   */\n      dup5\n        /* \"#utility.yul\":9511:9583   */\n      tag_296\n      jump\t// in\n    tag_462:\n        /* \"#utility.yul\":9258:9590   */\n      swap4\n      swap3\n      pop\n      pop\n      pop\n      jump\t// out\n        /* \"#utility.yul\":9596:10945   */\n    tag_64:\n        /* \"#utility.yul\":9718:9724   */\n      0x00\n        /* \"#utility.yul\":9726:9732   */\n      0x00\n        /* \"#utility.yul\":9734:9740   */\n      0x00\n        /* \"#utility.yul\":9742:9748   */\n      0x00\n        /* \"#utility.yul\":9750:9756   */\n      0x00\n        /* \"#utility.yul\":9758:9764   */\n      0x00\n        /* \"#utility.yul\":9766:9772   */\n      0x00\n        /* \"#utility.yul\":9774:9780   */\n      0x00\n        /* \"#utility.yul\":9823:9826   */\n      0x0100\n        /* \"#utility.yul\":9811:9820   */\n      dup10\n        /* \"#utility.yul\":9802:9809   */\n      dup12\n        /* \"#utility.yul\":9798:9821   */\n      sub\n        /* \"#utility.yul\":9794:9827   */\n      slt\n        /* \"#utility.yul\":9791:9911   */\n      iszero\n      tag_464\n      jumpi\n        /* \"#utility.yul\":9830:9909   */\n      tag_465\n      tag_298\n      jump\t// in\n    tag_465:\n        /* \"#utility.yul\":9791:9911   */\n    tag_464:\n        /* \"#utility.yul\":9950:9951   */\n      0x00\n        /* \"#utility.yul\":9975:10028   */\n      tag_466\n        /* \"#utility.yul\":10020:10027   */\n      dup12\n        /* \"#utility.yul\":10011:10017   */\n      dup3\n        /* \"#utility.yul\":10000:10009   */\n      dup13\n        /* \"#utility.yul\":9996:10018   */\n      add\n        /* \"#utility.yul\":9975:10028   */\n      tag_307\n      jump\t// in\n    tag_466:\n        /* \"#utility.yul\":9965:10028   */\n      swap9\n      pop\n        /* \"#utility.yul\":9921:10038   */\n      pop\n        /* \"#utility.yul\":10077:10079   */\n      0x20\n        /* \"#utility.yul\":10103:10156   */\n      tag_467\n        /* \"#utility.yul\":10148:10155   */\n      dup12\n        /* \"#utility.yul\":10139:10145   */\n      dup3\n        /* \"#utility.yul\":10128:10137   */\n      dup13\n        /* \"#utility.yul\":10124:10146   */\n      add\n        /* \"#utility.yul\":10103:10156   */\n      tag_307\n      jump\t// in\n    tag_467:\n        /* \"#utility.yul\":10093:10156   */\n      swap8\n      pop\n        /* \"#utility.yul\":10048:10166   */\n      pop\n        /* \"#utility.yul\":10205:10207   */\n      0x40\n        /* \"#utility.yul\":10231:10284   */\n      tag_468\n        /* \"#utility.yul\":10276:10283   */\n      dup12\n        /* \"#utility.yul\":10267:10273   */\n      dup3\n        /* \"#utility.yul\":10256:10265   */\n      dup13\n        /* \"#utility.yul\":10252:10274   */\n      add\n        /* \"#utility.yul\":10231:10284   */\n      tag_301\n      jump\t// in\n    tag_468:\n        /* \"#utility.yul\":10221:10284   */\n      swap7\n      pop\n        /* \"#utility.yul\":10176:10294   */\n      pop\n        /* \"#utility.yul\":10333:10335   */\n      0x60\n        /* \"#utility.yul\":10359:10412   */\n      tag_469\n        /* \"#utility.yul\":10404:10411   */\n      dup12\n        /* \"#utility.yul\":10395:10401   */\n      dup3\n        /* \"#utility.yul\":10384:10393   */\n      dup13\n        /* \"#utility.yul\":10380:10402   */\n      add\n        /* \"#utility.yul\":10359:10412   */\n      tag_301\n      jump\t// in\n    tag_469:\n        /* \"#utility.yul\":10349:10412   */\n      swap6\n      pop\n        /* \"#utility.yul\":10304:10422   */\n      pop\n        /* \"#utility.yul\":10461:10464   */\n      0x80\n        /* \"#utility.yul\":10488:10541   */\n      tag_470\n        /* \"#utility.yul\":10533:10540   */\n      dup12\n        /* \"#utility.yul\":10524:10530   */\n      dup3\n        /* \"#utility.yul\":10513:10522   */\n      dup13\n        /* \"#utility.yul\":10509:10531   */\n      add\n        /* \"#utility.yul\":10488:10541   */\n      tag_301\n      jump\t// in\n    tag_470:\n        /* \"#utility.yul\":10478:10541   */\n      swap5\n      pop\n        /* \"#utility.yul\":10432:10551   */\n      pop\n        /* \"#utility.yul\":10590:10593   */\n      0xa0\n        /* \"#utility.yul\":10617:10670   */\n      tag_471\n        /* \"#utility.yul\":10662:10669   */\n      dup12\n        /* \"#utility.yul\":10653:10659   */\n      dup3\n        /* \"#utility.yul\":10642:10651   */\n      dup13\n        /* \"#utility.yul\":10638:10660   */\n      add\n        /* \"#utility.yul\":10617:10670   */\n      tag_301\n      jump\t// in\n    tag_471:\n        /* \"#utility.yul\":10607:10670   */\n      swap4\n      pop\n        /* \"#utility.yul\":10561:10680   */\n      pop\n        /* \"#utility.yul\":10719:10722   */\n      0xc0\n        /* \"#utility.yul\":10746:10799   */\n      tag_472\n        /* \"#utility.yul\":10791:10798   */\n      dup12\n        /* \"#utility.yul\":10782:10788   */\n      dup3\n        /* \"#utility.yul\":10771:10780   */\n      dup13\n        /* \"#utility.yul\":10767:10789   */\n      add\n        /* \"#utility.yul\":10746:10799   */\n      tag_307\n      jump\t// in\n    tag_472:\n        /* \"#utility.yul\":10736:10799   */\n      swap3\n      pop\n        /* \"#utility.yul\":10690:10809   */\n      pop\n        /* \"#utility.yul\":10848:10851   */\n      0xe0\n        /* \"#utility.yul\":10875:10928   */\n      tag_473\n        /* \"#utility.yul\":10920:10927   */\n      dup12\n        /* \"#utility.yul\":10911:10917   */\n      dup3\n        /* \"#utility.yul\":10900:10909   */\n      dup13\n        /* \"#utility.yul\":10896:10918   */\n      add\n        /* \"#utility.yul\":10875:10928   */\n      tag_301\n      jump\t// in\n    tag_473:\n        /* \"#utility.yul\":10865:10928   */\n      swap2\n      pop\n        /* \"#utility.yul\":10819:10938   */\n      pop\n        /* \"#utility.yul\":9596:10945   */\n      swap3\n      swap6\n      swap9\n      pop\n      swap3\n      swap6\n      swap9\n      swap1\n      swap4\n      swap7\n      pop\n      jump\t// out\n        /* \"#utility.yul\":10951:11393   */\n    tag_67:\n        /* \"#utility.yul\":11100:11104   */\n      0x00\n        /* \"#utility.yul\":11138:11140   */\n      0x60\n        /* \"#utility.yul\":11127:11136   */\n      dup3\n        /* \"#utility.yul\":11123:11141   */\n      add\n        /* \"#utility.yul\":11115:11141   */\n      swap1\n      pop\n        /* \"#utility.yul\":11151:11222   */\n      tag_475\n        /* \"#utility.yul\":11219:11220   */\n      0x00\n        /* \"#utility.yul\":11208:11217   */\n      dup4\n        /* \"#utility.yul\":11204:11221   */\n      add\n        /* \"#utility.yul\":11195:11201   */\n      dup7\n        /* \"#utility.yul\":11151:11222   */\n      tag_296\n      jump\t// in\n    tag_475:\n        /* \"#utility.yul\":11232:11304   */\n      tag_476\n        /* \"#utility.yul\":11300:11302   */\n      0x20\n        /* \"#utility.yul\":11289:11298   */\n      dup4\n        /* \"#utility.yul\":11285:11303   */\n      add\n        /* \"#utility.yul\":11276:11282   */\n      dup6\n        /* \"#utility.yul\":11232:11304   */\n      tag_296\n      jump\t// in\n    tag_476:\n        /* \"#utility.yul\":11314:11386   */\n      tag_477\n        /* \"#utility.yul\":11382:11384   */\n      0x40\n        /* \"#utility.yul\":11371:11380   */\n      dup4\n        /* \"#utility.yul\":11367:11385   */\n      add\n        /* \"#utility.yul\":11358:11364   */\n      dup5\n        /* \"#utility.yul\":11314:11386   */\n      tag_296\n      jump\t// in\n    tag_477:\n        /* \"#utility.yul\":10951:11393   */\n      swap5\n      swap4\n      pop\n      pop\n      pop\n      pop\n      jump\t// out\n        /* \"#utility.yul\":11399:11579   */\n    tag_320:\n        /* \"#utility.yul\":11447:11524   */\n      0x4e487b7100000000000000000000000000000000000000000000000000000000\n        /* \"#utility.yul\":11444:11445   */\n      0x00\n        /* \"#utility.yul\":11437:11525   */\n      mstore\n        /* \"#utility.yul\":11544:11548   */\n      0x11\n        /* \"#utility.yul\":11541:11542   */\n      0x04\n        /* \"#utility.yul\":11534:11549   */\n      mstore\n        /* \"#utility.yul\":11568:11572   */\n      0x24\n        /* \"#utility.yul\":11565:11566   */\n      0x00\n        /* \"#utility.yul\":11558:11573   */\n      revert\n        /* \"#utility.yul\":11585:11995   */\n    tag_71:\n        /* \"#utility.yul\":11625:11632   */\n      0x00\n        /* \"#utility.yul\":11648:11668   */\n      tag_480\n        /* \"#utility.yul\":11666:11667   */\n      dup3\n        /* \"#utility.yul\":11648:11668   */\n      tag_295\n      jump\t// in\n    tag_480:\n        /* \"#utility.yul\":11643:11668   */\n      swap2\n      pop\n        /* \"#utility.yul\":11682:11702   */\n      tag_481\n        /* \"#utility.yul\":11700:11701   */\n      dup4\n        /* \"#utility.yul\":11682:11702   */\n      tag_295\n      jump\t// in\n    tag_481:\n        /* \"#utility.yul\":11677:11702   */\n      swap3\n      pop\n        /* \"#utility.yul\":11737:11738   */\n      dup3\n        /* \"#utility.yul\":11734:11735   */\n      dup3\n        /* \"#utility.yul\":11730:11739   */\n      mul\n        /* \"#utility.yul\":11759:11789   */\n      tag_482\n        /* \"#utility.yul\":11777:11788   */\n      dup2\n        /* \"#utility.yul\":11759:11789   */\n      tag_295\n      jump\t// in\n    tag_482:\n        /* \"#utility.yul\":11748:11789   */\n      swap2\n      pop\n        /* \"#utility.yul\":11938:11939   */\n      dup3\n        /* \"#utility.yul\":11929:11936   */\n      dup3\n        /* \"#utility.yul\":11925:11940   */\n      div\n        /* \"#utility.yul\":11922:11923   */\n      dup5\n        /* \"#utility.yul\":11919:11941   */\n      eq\n        /* \"#utility.yul\":11899:11900   */\n      dup4\n        /* \"#utility.yul\":11892:11901   */\n      iszero\n        /* \"#utility.yul\":11872:11955   */\n      or\n        /* \"#utility.yul\":11849:11988   */\n      tag_483\n      jumpi\n        /* \"#utility.yul\":11968:11986   */\n      tag_484\n      tag_320\n      jump\t// in\n    tag_484:\n        /* \"#utility.yul\":11849:11988   */\n    tag_483:\n        /* \"#utility.yul\":11633:11995   */\n      pop\n        /* \"#utility.yul\":11585:11995   */\n      swap3\n      swap2\n      pop\n      pop\n      jump\t// out\n        /* \"#utility.yul\":12001:12170   */\n    tag_321:\n        /* \"#utility.yul\":12085:12096   */\n      0x00\n        /* \"#utility.yul\":12119:12125   */\n      dup3\n        /* \"#utility.yul\":12114:12117   */\n      dup3\n        /* \"#utility.yul\":12107:12126   */\n      mstore\n        /* \"#utility.yul\":12159:12163   */\n      0x20\n        /* \"#utility.yul\":12154:12157   */\n      dup3\n        /* \"#utility.yul\":12150:12164   */\n      add\n        /* \"#utility.yul\":12135:12164   */\n      swap1\n      pop\n        /* \"#utility.yul\":12001:12170   */\n      swap3\n      swap2\n      pop\n      pop\n      jump\t// out\n        /* \"#utility.yul\":12176:12345   */\n    tag_322:\n        /* \"#utility.yul\":12316:12337   */\n      0x5472616e73616374696f6e206578706972656400000000000000000000000000\n        /* \"#utility.yul\":12312:12313   */\n      0x00\n        /* \"#utility.yul\":12304:12310   */\n      dup3\n        /* \"#utility.yul\":12300:12314   */\n      add\n        /* \"#utility.yul\":12293:12338   */\n      mstore\n        /* \"#utility.yul\":12176:12345   */\n      pop\n      jump\t// out\n        /* \"#utility.yul\":12351:12717   */\n    tag_323:\n        /* \"#utility.yul\":12493:12496   */\n      0x00\n        /* \"#utility.yul\":12514:12581   */\n      tag_488\n        /* \"#utility.yul\":12578:12580   */\n      0x13\n        /* \"#utility.yul\":12573:12576   */\n      dup4\n        /* \"#utility.yul\":12514:12581   */\n      tag_321\n      jump\t// in\n    tag_488:\n        /* \"#utility.yul\":12507:12581   */\n      swap2\n      pop\n        /* \"#utility.yul\":12590:12683   */\n      tag_489\n        /* \"#utility.yul\":12679:12682   */\n      dup3\n        /* \"#utility.yul\":12590:12683   */\n      tag_322\n      jump\t// in\n    tag_489:\n        /* \"#utility.yul\":12708:12710   */\n      0x20\n        /* \"#utility.yul\":12703:12706   */\n      dup3\n        /* \"#utility.yul\":12699:12711   */\n      add\n        /* \"#utility.yul\":12692:12711   */\n      swap1\n      pop\n        /* \"#utility.yul\":12351:12717   */\n      swap2\n      swap1\n      pop\n      jump\t// out\n        /* \"#utility.yul\":12723:13142   */\n    tag_76:\n        /* \"#utility.yul\":12889:12893   */\n      0x00\n        /* \"#utility.yul\":12927:12929   */\n      0x20\n        /* \"#utility.yul\":12916:12925   */\n      dup3\n        /* \"#utility.yul\":12912:12930   */\n      add\n        /* \"#utility.yul\":12904:12930   */\n      swap1\n      pop\n        /* \"#utility.yul\":12976:12985   */\n      dup2\n        /* \"#utility.yul\":12970:12974   */\n      dup2\n        /* \"#utility.yul\":12966:12986   */\n      sub\n        /* \"#utility.yul\":12962:12963   */\n      0x00\n        /* \"#utility.yul\":12951:12960   */\n      dup4\n        /* \"#utility.yul\":12947:12964   */\n      add\n        /* \"#utility.yul\":12940:12987   */\n      mstore\n        /* \"#utility.yul\":13004:13135   */\n      tag_491\n        /* \"#utility.yul\":13130:13134   */\n      dup2\n        /* \"#utility.yul\":13004:13135   */\n      tag_323\n      jump\t// in\n    tag_491:\n        /* \"#utility.yul\":12996:13135   */\n      swap1\n      pop\n        /* \"#utility.yul\":12723:13142   */\n      swap2\n      swap1\n      pop\n      jump\t// out\n        /* \"#utility.yul\":13148:13368   */\n    tag_324:\n        /* \"#utility.yul\":13288:13322   */\n      0x4f6e6c792064697265637420746f6b656e20737761707320737570706f727465\n        /* \"#utility.yul\":13284:13285   */\n      0x00\n        /* \"#utility.yul\":13276:13282   */\n      dup3\n        /* \"#utility.yul\":13272:13286   */\n      add\n        /* \"#utility.yul\":13265:13323   */\n      mstore\n        /* \"#utility.yul\":13357:13360   */\n      0x6400000000000000000000000000000000000000000000000000000000000000\n        /* \"#utility.yul\":13352:13354   */\n      0x20\n        /* \"#utility.yul\":13344:13350   */\n      dup3\n        /* \"#utility.yul\":13340:13355   */\n      add\n        /* \"#utility.yul\":13333:13361   */\n      mstore\n        /* \"#utility.yul\":13148:13368   */\n      pop\n      jump\t// out\n        /* \"#utility.yul\":13374:13740   */\n    tag_325:\n        /* \"#utility.yul\":13516:13519   */\n      0x00\n        /* \"#utility.yul\":13537:13604   */\n      tag_494\n        /* \"#utility.yul\":13601:13603   */\n      0x21\n        /* \"#utility.yul\":13596:13599   */\n      dup4\n        /* \"#utility.yul\":13537:13604   */\n      tag_321\n      jump\t// in\n    tag_494:\n        /* \"#utility.yul\":13530:13604   */\n      swap2\n      pop\n        /* \"#utility.yul\":13613:13706   */\n      tag_495\n        /* \"#utility.yul\":13702:13705   */\n      dup3\n        /* \"#utility.yul\":13613:13706   */\n      tag_324\n      jump\t// in\n    tag_495:\n        /* \"#utility.yul\":13731:13733   */\n      0x40\n        /* \"#utility.yul\":13726:13729   */\n      dup3\n        /* \"#utility.yul\":13722:13734   */\n      add\n        /* \"#utility.yul\":13715:13734   */\n      swap1\n      pop\n        /* \"#utility.yul\":13374:13740   */\n      swap2\n      swap1\n      pop\n      jump\t// out\n        /* \"#utility.yul\":13746:14165   */\n    tag_79:\n        /* \"#utility.yul\":13912:13916   */\n      0x00\n        /* \"#utility.yul\":13950:13952   */\n      0x20\n        /* \"#utility.yul\":13939:13948   */\n      dup3\n        /* \"#utility.yul\":13935:13953   */\n      add\n        /* \"#utility.yul\":13927:13953   */\n      swap1\n      pop\n        /* \"#utility.yul\":13999:14008   */\n      dup2\n        /* \"#utility.yul\":13993:13997   */\n      dup2\n        /* \"#utility.yul\":13989:14009   */\n      sub\n        /* \"#utility.yul\":13985:13986   */\n      0x00\n        /* \"#utility.yul\":13974:13983   */\n      dup4\n        /* \"#utility.yul\":13970:13987   */\n      add\n        /* \"#utility.yul\":13963:14010   */\n      mstore\n        /* \"#utility.yul\":14027:14158   */\n      tag_497\n        /* \"#utility.yul\":14153:14157   */\n      dup2\n        /* \"#utility.yul\":14027:14158   */\n      tag_325\n      jump\t// in\n    tag_497:\n        /* \"#utility.yul\":14019:14158   */\n      swap1\n      pop\n        /* \"#utility.yul\":13746:14165   */\n      swap2\n      swap1\n      pop\n      jump\t// out\n        /* \"#utility.yul\":14171:14351   */\n    tag_82:\n        /* \"#utility.yul\":14219:14296   */\n      0x4e487b7100000000000000000000000000000000000000000000000000000000\n        /* \"#utility.yul\":14216:14217   */\n      0x00\n        /* \"#utility.yul\":14209:14297   */\n      mstore\n        /* \"#utility.yul\":14316:14320   */\n      0x32\n        /* \"#utility.yul\":14313:14314   */\n      0x04\n        /* \"#utility.yul\":14306:14321   */\n      mstore\n        /* \"#utility.yul\":14340:14344   */\n      0x24\n        /* \"#utility.yul\":14337:14338   */\n      0x00\n        /* \"#utility.yul\":14330:14345   */\n      revert\n        /* \"#utility.yul\":14357:14686   */\n    tag_84:\n        /* \"#utility.yul\":14416:14422   */\n      0x00\n        /* \"#utility.yul\":14465:14467   */\n      0x20\n        /* \"#utility.yul\":14453:14462   */\n      dup3\n        /* \"#utility.yul\":14444:14451   */\n      dup5\n        /* \"#utility.yul\":14440:14463   */\n      sub\n        /* \"#utility.yul\":14436:14468   */\n      slt\n        /* \"#utility.yul\":14433:14552   */\n      iszero\n      tag_500\n      jumpi\n        /* \"#utility.yul\":14471:14550   */\n      tag_501\n      tag_298\n      jump\t// in\n    tag_501:\n        /* \"#utility.yul\":14433:14552   */\n    tag_500:\n        /* \"#utility.yul\":14591:14592   */\n      0x00\n        /* \"#utility.yul\":14616:14669   */\n      tag_502\n        /* \"#utility.yul\":14661:14668   */\n      dup5\n        /* \"#utility.yul\":14652:14658   */\n      dup3\n        /* \"#utility.yul\":14641:14650   */\n      dup6\n        /* \"#utility.yul\":14637:14659   */\n      add\n        /* \"#utility.yul\":14616:14669   */\n      tag_307\n      jump\t// in\n    tag_502:\n        /* \"#utility.yul\":14606:14669   */\n      swap2\n      pop\n        /* \"#utility.yul\":14562:14679   */\n      pop\n        /* \"#utility.yul\":14357:14686   */\n      swap3\n      swap2\n      pop\n      pop\n      jump\t// out\n        /* \"#utility.yul\":14692:14860   */\n    tag_326:\n        /* \"#utility.yul\":14832:14852   */\n      0x496e76616c696420746f6b656e20706174680000000000000000000000000000\n        /* \"#utility.yul\":14828:14829   */\n      0x00\n        /* \"#utility.yul\":14820:14826   */\n      dup3\n        /* \"#utility.yul\":14816:14830   */\n      add\n        /* \"#utility.yul\":14809:14853   */\n      mstore\n        /* \"#utility.yul\":14692:14860   */\n      pop\n      jump\t// out\n        /* \"#utility.yul\":14866:15232   */\n    tag_327:\n        /* \"#utility.yul\":15008:15011   */\n      0x00\n        /* \"#utility.yul\":15029:15096   */\n      tag_505\n        /* \"#utility.yul\":15093:15095   */\n      0x12\n        /* \"#utility.yul\":15088:15091   */\n      dup4\n        /* \"#utility.yul\":15029:15096   */\n      tag_321\n      jump\t// in\n    tag_505:\n        /* \"#utility.yul\":15022:15096   */\n      swap2\n      pop\n        /* \"#utility.yul\":15105:15198   */\n      tag_506\n        /* \"#utility.yul\":15194:15197   */\n      dup3\n        /* \"#utility.yul\":15105:15198   */\n      tag_326\n      jump\t// in\n    tag_506:\n        /* \"#utility.yul\":15223:15225   */\n      0x20\n        /* \"#utility.yul\":15218:15221   */\n      dup3\n        /* \"#utility.yul\":15214:15226   */\n      add\n        /* \"#utility.yul\":15207:15226   */\n      swap1\n      pop\n        /* \"#utility.yul\":14866:15232   */\n      swap2\n      swap1\n      pop\n      jump\t// out\n        /* \"#utility.yul\":15238:15657   */\n    tag_93:\n        /* \"#utility.yul\":15404:15408   */\n      0x00\n        /* \"#utility.yul\":15442:15444   */\n      0x20\n        /* \"#utility.yul\":15431:15440   */\n      dup3\n        /* \"#utility.yul\":15427:15445   */\n      add\n        /* \"#utility.yul\":15419:15445   */\n      swap1\n      pop\n        /* \"#utility.yul\":15491:15500   */\n      dup2\n        /* \"#utility.yul\":15485:15489   */\n      dup2\n        /* \"#utility.yul\":15481:15501   */\n      sub\n        /* \"#utility.yul\":15477:15478   */\n      0x00\n        /* \"#utility.yul\":15466:15475   */\n      dup4\n        /* \"#utility.yul\":15462:15479   */\n      add\n        /* \"#utility.yul\":15455:15502   */\n      mstore\n        /* \"#utility.yul\":15519:15650   */\n      tag_508\n        /* \"#utility.yul\":15645:15649   */\n      dup2\n        /* \"#utility.yul\":15519:15650   */\n      tag_327\n      jump\t// in\n    tag_508:\n        /* \"#utility.yul\":15511:15650   */\n      swap1\n      pop\n        /* \"#utility.yul\":15238:15657   */\n      swap2\n      swap1\n      pop\n      jump\t// out\n        /* \"#utility.yul\":15663:16105   */\n    tag_95:\n        /* \"#utility.yul\":15812:15816   */\n      0x00\n        /* \"#utility.yul\":15850:15852   */\n      0x60\n        /* \"#utility.yul\":15839:15848   */\n      dup3\n        /* \"#utility.yul\":15835:15853   */\n      add\n        /* \"#utility.yul\":15827:15853   */\n      swap1\n      pop\n        /* \"#utility.yul\":15863:15934   */\n      tag_510\n        /* \"#utility.yul\":15931:15932   */\n      0x00\n        /* \"#utility.yul\":15920:15929   */\n      dup4\n        /* \"#utility.yul\":15916:15933   */\n      add\n        /* \"#utility.yul\":15907:15913   */\n      dup7\n        /* \"#utility.yul\":15863:15934   */\n      tag_294\n      jump\t// in\n    tag_510:\n        /* \"#utility.yul\":15944:16016   */\n      tag_511\n        /* \"#utility.yul\":16012:16014   */\n      0x20\n        /* \"#utility.yul\":16001:16010   */\n      dup4\n        /* \"#utility.yul\":15997:16015   */\n      add\n        /* \"#utility.yul\":15988:15994   */\n      dup6\n        /* \"#utility.yul\":15944:16016   */\n      tag_294\n      jump\t// in\n    tag_511:\n        /* \"#utility.yul\":16026:16098   */\n      tag_512\n        /* \"#utility.yul\":16094:16096   */\n      0x40\n        /* \"#utility.yul\":16083:16092   */\n      dup4\n        /* \"#utility.yul\":16079:16097   */\n      add\n        /* \"#utility.yul\":16070:16076   */\n      dup5\n        /* \"#utility.yul\":16026:16098   */\n      tag_296\n      jump\t// in\n    tag_512:\n        /* \"#utility.yul\":15663:16105   */\n      swap5\n      swap4\n      pop\n      pop\n      pop\n      pop\n      jump\t// out\n        /* \"#utility.yul\":16111:16201   */\n    tag_328:\n        /* \"#utility.yul\":16145:16152   */\n      0x00\n        /* \"#utility.yul\":16188:16193   */\n      dup2\n        /* \"#utility.yul\":16181:16194   */\n      iszero\n        /* \"#utility.yul\":16174:16195   */\n      iszero\n        /* \"#utility.yul\":16163:16195   */\n      swap1\n      pop\n        /* \"#utility.yul\":16111:16201   */\n      swap2\n      swap1\n      pop\n      jump\t// out\n        /* \"#utility.yul\":16207:16323   */\n    tag_329:\n        /* \"#utility.yul\":16277:16298   */\n      tag_515\n        /* \"#utility.yul\":16292:16297   */\n      dup2\n        /* \"#utility.yul\":16277:16298   */\n      tag_328\n      jump\t// in\n    tag_515:\n        /* \"#utility.yul\":16270:16275   */\n      dup2\n        /* \"#utility.yul\":16267:16299   */\n      eq\n        /* \"#utility.yul\":16257:16317   */\n      tag_516\n      jumpi\n        /* \"#utility.yul\":16313:16314   */\n      0x00\n        /* \"#utility.yul\":16310:16311   */\n      0x00\n        /* \"#utility.yul\":16303:16315   */\n      revert\n        /* \"#utility.yul\":16257:16317   */\n    tag_516:\n        /* \"#utility.yul\":16207:16323   */\n      pop\n      jump\t// out\n        /* \"#utility.yul\":16329:16466   */\n    tag_330:\n        /* \"#utility.yul\":16383:16388   */\n      0x00\n        /* \"#utility.yul\":16414:16420   */\n      dup2\n        /* \"#utility.yul\":16408:16421   */\n      mload\n        /* \"#utility.yul\":16399:16421   */\n      swap1\n      pop\n        /* \"#utility.yul\":16430:16460   */\n      tag_518\n        /* \"#utility.yul\":16454:16459   */\n      dup2\n        /* \"#utility.yul\":16430:16460   */\n      tag_329\n      jump\t// in\n    tag_518:\n        /* \"#utility.yul\":16329:16466   */\n      swap3\n      swap2\n      pop\n      pop\n      jump\t// out\n        /* \"#utility.yul\":16472:16817   */\n    tag_99:\n        /* \"#utility.yul\":16539:16545   */\n      0x00\n        /* \"#utility.yul\":16588:16590   */\n      0x20\n        /* \"#utility.yul\":16576:16585   */\n      dup3\n        /* \"#utility.yul\":16567:16574   */\n      dup5\n        /* \"#utility.yul\":16563:16586   */\n      sub\n        /* \"#utility.yul\":16559:16591   */\n      slt\n        /* \"#utility.yul\":16556:16675   */\n      iszero\n      tag_520\n      jumpi\n        /* \"#utility.yul\":16594:16673   */\n      tag_521\n      tag_298\n      jump\t// in\n    tag_521:\n        /* \"#utility.yul\":16556:16675   */\n    tag_520:\n        /* \"#utility.yul\":16714:16715   */\n      0x00\n        /* \"#utility.yul\":16739:16800   */\n      tag_522\n        /* \"#utility.yul\":16792:16799   */\n      dup5\n        /* \"#utility.yul\":16783:16789   */\n      dup3\n        /* \"#utility.yul\":16772:16781   */\n      dup6\n        /* \"#utility.yul\":16768:16790   */\n      add\n        /* \"#utility.yul\":16739:16800   */\n      tag_330\n      jump\t// in\n    tag_522:\n        /* \"#utility.yul\":16729:16800   */\n      swap2\n      pop\n        /* \"#utility.yul\":16685:16810   */\n      pop\n        /* \"#utility.yul\":16472:16817   */\n      swap3\n      swap2\n      pop\n      pop\n      jump\t// out\n        /* \"#utility.yul\":16823:16992   */\n    tag_331:\n        /* \"#utility.yul\":16963:16984   */\n      0x5472616e7366657246726f6d206661696c656400000000000000000000000000\n        /* \"#utility.yul\":16959:16960   */\n      0x00\n        /* \"#utility.yul\":16951:16957   */\n      dup3\n        /* \"#utility.yul\":16947:16961   */\n      add\n        /* \"#utility.yul\":16940:16985   */\n      mstore\n        /* \"#utility.yul\":16823:16992   */\n      pop\n      jump\t// out\n        /* \"#utility.yul\":16998:17364   */\n    tag_332:\n        /* \"#utility.yul\":17140:17143   */\n      0x00\n        /* \"#utility.yul\":17161:17228   */\n      tag_525\n        /* \"#utility.yul\":17225:17227   */\n      0x13\n        /* \"#utility.yul\":17220:17223   */\n      dup4\n        /* \"#utility.yul\":17161:17228   */\n      tag_321\n      jump\t// in\n    tag_525:\n        /* \"#utility.yul\":17154:17228   */\n      swap2\n      pop\n        /* \"#utility.yul\":17237:17330   */\n      tag_526\n        /* \"#utility.yul\":17326:17329   */\n      dup3\n        /* \"#utility.yul\":17237:17330   */\n      tag_331\n      jump\t// in\n    tag_526:\n        /* \"#utility.yul\":17355:17357   */\n      0x20\n        /* \"#utility.yul\":17350:17353   */\n      dup3\n        /* \"#utility.yul\":17346:17358   */\n      add\n        /* \"#utility.yul\":17339:17358   */\n      swap1\n      pop\n        /* \"#utility.yul\":16998:17364   */\n      swap2\n      swap1\n      pop\n      jump\t// out\n        /* \"#utility.yul\":17370:17789   */\n    tag_102:\n        /* \"#utility.yul\":17536:17540   */\n      0x00\n        /* \"#utility.yul\":17574:17576   */\n      0x20\n        /* \"#utility.yul\":17563:17572   */\n      dup3\n        /* \"#utility.yul\":17559:17577   */\n      add\n        /* \"#utility.yul\":17551:17577   */\n      swap1\n      pop\n        /* \"#utility.yul\":17623:17632   */\n      dup2\n        /* \"#utility.yul\":17617:17621   */\n      dup2\n        /* \"#utility.yul\":17613:17633   */\n      sub\n        /* \"#utility.yul\":17609:17610   */\n      0x00\n        /* \"#utility.yul\":17598:17607   */\n      dup4\n        /* \"#utility.yul\":17594:17611   */\n      add\n        /* \"#utility.yul\":17587:17634   */\n      mstore\n        /* \"#utility.yul\":17651:17782   */\n      tag_528\n        /* \"#utility.yul\":17777:17781   */\n      dup2\n        /* \"#utility.yul\":17651:17782   */\n      tag_332\n      jump\t// in\n    tag_528:\n        /* \"#utility.yul\":17643:17782   */\n      swap1\n      pop\n        /* \"#utility.yul\":17370:17789   */\n      swap2\n      swap1\n      pop\n      jump\t// out\n        /* \"#utility.yul\":17795:17986   */\n    tag_108:\n        /* \"#utility.yul\":17835:17838   */\n      0x00\n        /* \"#utility.yul\":17854:17874   */\n      tag_530\n        /* \"#utility.yul\":17872:17873   */\n      dup3\n        /* \"#utility.yul\":17854:17874   */\n      tag_295\n      jump\t// in\n    tag_530:\n        /* \"#utility.yul\":17849:17874   */\n      swap2\n      pop\n        /* \"#utility.yul\":17888:17908   */\n      tag_531\n        /* \"#utility.yul\":17906:17907   */\n      dup4\n        /* \"#utility.yul\":17888:17908   */\n      tag_295\n      jump\t// in\n    tag_531:\n        /* \"#utility.yul\":17883:17908   */\n      swap3\n      pop\n        /* \"#utility.yul\":17931:17932   */\n      dup3\n        /* \"#utility.yul\":17928:17929   */\n      dup3\n        /* \"#utility.yul\":17924:17933   */\n      add\n        /* \"#utility.yul\":17917:17933   */\n      swap1\n      pop\n        /* \"#utility.yul\":17952:17955   */\n      dup1\n        /* \"#utility.yul\":17949:17950   */\n      dup3\n        /* \"#utility.yul\":17946:17956   */\n      gt\n        /* \"#utility.yul\":17943:17979   */\n      iszero\n      tag_532\n      jumpi\n        /* \"#utility.yul\":17959:17977   */\n      tag_533\n      tag_320\n      jump\t// in\n    tag_533:\n        /* \"#utility.yul\":17943:17979   */\n    tag_532:\n        /* \"#utility.yul\":17795:17986   */\n      swap3\n      swap2\n      pop\n      pop\n      jump\t// out\n        /* \"#utility.yul\":17992:18172   */\n    tag_333:\n        /* \"#utility.yul\":18040:18117   */\n      0x4e487b7100000000000000000000000000000000000000000000000000000000\n        /* \"#utility.yul\":18037:18038   */\n      0x00\n        /* \"#utility.yul\":18030:18118   */\n      mstore\n        /* \"#utility.yul\":18137:18141   */\n      0x12\n        /* \"#utility.yul\":18134:18135   */\n      0x04\n        /* \"#utility.yul\":18127:18142   */\n      mstore\n        /* \"#utility.yul\":18161:18165   */\n      0x24\n        /* \"#utility.yul\":18158:18159   */\n      0x00\n        /* \"#utility.yul\":18151:18166   */\n      revert\n        /* \"#utility.yul\":18178:18363   */\n    tag_110:\n        /* \"#utility.yul\":18218:18219   */\n      0x00\n        /* \"#utility.yul\":18235:18255   */\n      tag_536\n        /* \"#utility.yul\":18253:18254   */\n      dup3\n        /* \"#utility.yul\":18235:18255   */\n      tag_295\n      jump\t// in\n    tag_536:\n        /* \"#utility.yul\":18230:18255   */\n      swap2\n      pop\n        /* \"#utility.yul\":18269:18289   */\n      tag_537\n        /* \"#utility.yul\":18287:18288   */\n      dup4\n        /* \"#utility.yul\":18269:18289   */\n      tag_295\n      jump\t// in\n    tag_537:\n        /* \"#utility.yul\":18264:18289   */\n      swap3\n      pop\n        /* \"#utility.yul\":18308:18309   */\n      dup3\n        /* \"#utility.yul\":18298:18333   */\n      tag_538\n      jumpi\n        /* \"#utility.yul\":18313:18331   */\n      tag_539\n      tag_333\n      jump\t// in\n    tag_539:\n        /* \"#utility.yul\":18298:18333   */\n    tag_538:\n        /* \"#utility.yul\":18355:18356   */\n      dup3\n        /* \"#utility.yul\":18352:18353   */\n      dup3\n        /* \"#utility.yul\":18348:18357   */\n      div\n        /* \"#utility.yul\":18343:18357   */\n      swap1\n      pop\n        /* \"#utility.yul\":18178:18363   */\n      swap3\n      swap2\n      pop\n      pop\n      jump\t// out\n        /* \"#utility.yul\":18369:18538   */\n    tag_334:\n        /* \"#utility.yul\":18509:18530   */\n      0x496e73756666696369656e74206f757470757400000000000000000000000000\n        /* \"#utility.yul\":18505:18506   */\n      0x00\n        /* \"#utility.yul\":18497:18503   */\n      dup3\n        /* \"#utility.yul\":18493:18507   */\n      add\n        /* \"#utility.yul\":18486:18531   */\n      mstore\n        /* \"#utility.yul\":18369:18538   */\n      pop\n      jump\t// out\n        /* \"#utility.yul\":18544:18910   */\n    tag_335:\n        /* \"#utility.yul\":18686:18689   */\n      0x00\n        /* \"#utility.yul\":18707:18774   */\n      tag_542\n        /* \"#utility.yul\":18771:18773   */\n      0x13\n        /* \"#utility.yul\":18766:18769   */\n      dup4\n        /* \"#utility.yul\":18707:18774   */\n      tag_321\n      jump\t// in\n    tag_542:\n        /* \"#utility.yul\":18700:18774   */\n      swap2\n      pop\n        /* \"#utility.yul\":18783:18876   */\n      tag_543\n        /* \"#utility.yul\":18872:18875   */\n      dup3\n        /* \"#utility.yul\":18783:18876   */\n      tag_334\n      jump\t// in\n    tag_543:\n        /* \"#utility.yul\":18901:18903   */\n      0x20\n        /* \"#utility.yul\":18896:18899   */\n      dup3\n        /* \"#utility.yul\":18892:18904   */\n      add\n        /* \"#utility.yul\":18885:18904   */\n      swap1\n      pop\n        /* \"#utility.yul\":18544:18910   */\n      swap2\n      swap1\n      pop\n      jump\t// out\n        /* \"#utility.yul\":18916:19335   */\n    tag_113:\n        /* \"#utility.yul\":19082:19086   */\n      0x00\n        /* \"#utility.yul\":19120:19122   */\n      0x20\n        /* \"#utility.yul\":19109:19118   */\n      dup3\n        /* \"#utility.yul\":19105:19123   */\n      add\n        /* \"#utility.yul\":19097:19123   */\n      swap1\n      pop\n        /* \"#utility.yul\":19169:19178   */\n      dup2\n        /* \"#utility.yul\":19163:19167   */\n      dup2\n        /* \"#utility.yul\":19159:19179   */\n      sub\n        /* \"#utility.yul\":19155:19156   */\n      0x00\n        /* \"#utility.yul\":19144:19153   */\n      dup4\n        /* \"#utility.yul\":19140:19157   */\n      add\n        /* \"#utility.yul\":19133:19180   */\n      mstore\n        /* \"#utility.yul\":19197:19328   */\n      tag_545\n        /* \"#utility.yul\":19323:19327   */\n      dup2\n        /* \"#utility.yul\":19197:19328   */\n      tag_335\n      jump\t// in\n    tag_545:\n        /* \"#utility.yul\":19189:19328   */\n      swap1\n      pop\n        /* \"#utility.yul\":18916:19335   */\n      swap2\n      swap1\n      pop\n      jump\t// out\n        /* \"#utility.yul\":19341:19535   */\n    tag_116:\n        /* \"#utility.yul\":19381:19385   */\n      0x00\n        /* \"#utility.yul\":19401:19421   */\n      tag_547\n        /* \"#utility.yul\":19419:19420   */\n      dup3\n        /* \"#utility.yul\":19401:19421   */\n      tag_295\n      jump\t// in\n    tag_547:\n        /* \"#utility.yul\":19396:19421   */\n      swap2\n      pop\n        /* \"#utility.yul\":19435:19455   */\n      tag_548\n        /* \"#utility.yul\":19453:19454   */\n      dup4\n        /* \"#utility.yul\":19435:19455   */\n      tag_295\n      jump\t// in\n    tag_548:\n        /* \"#utility.yul\":19430:19455   */\n      swap3\n      pop\n        /* \"#utility.yul\":19479:19480   */\n      dup3\n        /* \"#utility.yul\":19476:19477   */\n      dup3\n        /* \"#utility.yul\":19472:19481   */\n      sub\n        /* \"#utility.yul\":19464:19481   */\n      swap1\n      pop\n        /* \"#utility.yul\":19503:19504   */\n      dup2\n        /* \"#utility.yul\":19497:19501   */\n      dup2\n        /* \"#utility.yul\":19494:19505   */\n      gt\n        /* \"#utility.yul\":19491:19528   */\n      iszero\n      tag_549\n      jumpi\n        /* \"#utility.yul\":19508:19526   */\n      tag_550\n      tag_320\n      jump\t// in\n    tag_550:\n        /* \"#utility.yul\":19491:19528   */\n    tag_549:\n        /* \"#utility.yul\":19341:19535   */\n      swap3\n      swap2\n      pop\n      pop\n      jump\t// out\n        /* \"#utility.yul\":19541:19873   */\n    tag_127:\n        /* \"#utility.yul\":19662:19666   */\n      0x00\n        /* \"#utility.yul\":19700:19702   */\n      0x40\n        /* \"#utility.yul\":19689:19698   */\n      dup3\n        /* \"#utility.yul\":19685:19703   */\n      add\n        /* \"#utility.yul\":19677:19703   */\n      swap1\n      pop\n        /* \"#utility.yul\":19713:19784   */\n      tag_552\n        /* \"#utility.yul\":19781:19782   */\n      0x00\n        /* \"#utility.yul\":19770:19779   */\n      dup4\n        /* \"#utility.yul\":19766:19783   */\n      add\n        /* \"#utility.yul\":19757:19763   */\n      dup6\n        /* \"#utility.yul\":19713:19784   */\n      tag_294\n      jump\t// in\n    tag_552:\n        /* \"#utility.yul\":19794:19866   */\n      tag_553\n        /* \"#utility.yul\":19862:19864   */\n      0x20\n        /* \"#utility.yul\":19851:19860   */\n      dup4\n        /* \"#utility.yul\":19847:19865   */\n      add\n        /* \"#utility.yul\":19838:19844   */\n      dup5\n        /* \"#utility.yul\":19794:19866   */\n      tag_296\n      jump\t// in\n    tag_553:\n        /* \"#utility.yul\":19541:19873   */\n      swap4\n      swap3\n      pop\n      pop\n      pop\n      jump\t// out\n        /* \"#utility.yul\":19879:20051   */\n    tag_336:\n        /* \"#utility.yul\":20019:20043   */\n      0x5472616e73666572206f7574707574206661696c656400000000000000000000\n        /* \"#utility.yul\":20015:20016   */\n      0x00\n        /* \"#utility.yul\":20007:20013   */\n      dup3\n        /* \"#utility.yul\":20003:20017   */\n      add\n        /* \"#utility.yul\":19996:20044   */\n      mstore\n        /* \"#utility.yul\":19879:20051   */\n      pop\n      jump\t// out\n        /* \"#utility.yul\":20057:20423   */\n    tag_337:\n        /* \"#utility.yul\":20199:20202   */\n      0x00\n        /* \"#utility.yul\":20220:20287   */\n      tag_556\n        /* \"#utility.yul\":20284:20286   */\n      0x16\n        /* \"#utility.yul\":20279:20282   */\n      dup4\n        /* \"#utility.yul\":20220:20287   */\n      tag_321\n      jump\t// in\n    tag_556:\n        /* \"#utility.yul\":20213:20287   */\n      swap2\n      pop\n        /* \"#utility.yul\":20296:20389   */\n      tag_557\n        /* \"#utility.yul\":20385:20388   */\n      dup3\n        /* \"#utility.yul\":20296:20389   */\n      tag_336\n      jump\t// in\n    tag_557:\n        /* \"#utility.yul\":20414:20416   */\n      0x20\n        /* \"#utility.yul\":20409:20412   */\n      dup3\n        /* \"#utility.yul\":20405:20417   */\n      add\n        /* \"#utility.yul\":20398:20417   */\n      swap1\n      pop\n        /* \"#utility.yul\":20057:20423   */\n      swap2\n      swap1\n      pop\n      jump\t// out\n        /* \"#utility.yul\":20429:20848   */\n    tag_133:\n        /* \"#utility.yul\":20595:20599   */\n      0x00\n        /* \"#utility.yul\":20633:20635   */\n      0x20\n        /* \"#utility.yul\":20622:20631   */\n      dup3\n        /* \"#utility.yul\":20618:20636   */\n      add\n        /* \"#utility.yul\":20610:20636   */\n      swap1\n      pop\n        /* \"#utility.yul\":20682:20691   */\n      dup2\n        /* \"#utility.yul\":20676:20680   */\n      dup2\n        /* \"#utility.yul\":20672:20692   */\n      sub\n        /* \"#utility.yul\":20668:20669   */\n      0x00\n        /* \"#utility.yul\":20657:20666   */\n      dup4\n        /* \"#utility.yul\":20653:20670   */\n      add\n        /* \"#utility.yul\":20646:20693   */\n      mstore\n        /* \"#utility.yul\":20710:20841   */\n      tag_559\n        /* \"#utility.yul\":20836:20840   */\n      dup2\n        /* \"#utility.yul\":20710:20841   */\n      tag_337\n      jump\t// in\n    tag_559:\n        /* \"#utility.yul\":20702:20841   */\n      swap1\n      pop\n        /* \"#utility.yul\":20429:20848   */\n      swap2\n      swap1\n      pop\n      jump\t// out\n        /* \"#utility.yul\":20854:21034   */\n    tag_136:\n        /* \"#utility.yul\":20902:20979   */\n      0x4e487b7100000000000000000000000000000000000000000000000000000000\n        /* \"#utility.yul\":20899:20900   */\n      0x00\n        /* \"#utility.yul\":20892:20980   */\n      mstore\n        /* \"#utility.yul\":20999:21003   */\n      0x41\n        /* \"#utility.yul\":20996:20997   */\n      0x04\n        /* \"#utility.yul\":20989:21004   */\n      mstore\n        /* \"#utility.yul\":21023:21027   */\n      0x24\n        /* \"#utility.yul\":21020:21021   */\n      0x00\n        /* \"#utility.yul\":21013:21028   */\n      revert\n        /* \"#utility.yul\":21040:21203   */\n    tag_338:\n        /* \"#utility.yul\":21180:21195   */\n      0x496e76616c696420696e70757400000000000000000000000000000000000000\n        /* \"#utility.yul\":21176:21177   */\n      0x00\n        /* \"#utility.yul\":21168:21174   */\n      dup3\n        /* \"#utility.yul\":21164:21178   */\n      add\n        /* \"#utility.yul\":21157:21196   */\n      mstore\n        /* \"#utility.yul\":21040:21203   */\n      pop\n      jump\t// out\n        /* \"#utility.yul\":21209:21575   */\n    tag_339:\n        /* \"#utility.yul\":21351:21354   */\n      0x00\n        /* \"#utility.yul\":21372:21439   */\n      tag_563\n        /* \"#utility.yul\":21436:21438   */\n      0x0d\n        /* \"#utility.yul\":21431:21434   */\n      dup4\n        /* \"#utility.yul\":21372:21439   */\n      tag_321\n      jump\t// in\n    tag_563:\n        /* \"#utility.yul\":21365:21439   */\n      swap2\n      pop\n        /* \"#utility.yul\":21448:21541   */\n      tag_564\n        /* \"#utility.yul\":21537:21540   */\n      dup3\n        /* \"#utility.yul\":21448:21541   */\n      tag_338\n      jump\t// in\n    tag_564:\n        /* \"#utility.yul\":21566:21568   */\n      0x20\n        /* \"#utility.yul\":21561:21564   */\n      dup3\n        /* \"#utility.yul\":21557:21569   */\n      add\n        /* \"#utility.yul\":21550:21569   */\n      swap1\n      pop\n        /* \"#utility.yul\":21209:21575   */\n      swap2\n      swap1\n      pop\n      jump\t// out\n        /* \"#utility.yul\":21581:22000   */\n    tag_145:\n        /* \"#utility.yul\":21747:21751   */\n      0x00\n        /* \"#utility.yul\":21785:21787   */\n      0x20\n        /* \"#utility.yul\":21774:21783   */\n      dup3\n        /* \"#utility.yul\":21770:21788   */\n      add\n        /* \"#utility.yul\":21762:21788   */\n      swap1\n      pop\n        /* \"#utility.yul\":21834:21843   */\n      dup2\n        /* \"#utility.yul\":21828:21832   */\n      dup2\n        /* \"#utility.yul\":21824:21844   */\n      sub\n        /* \"#utility.yul\":21820:21821   */\n      0x00\n        /* \"#utility.yul\":21809:21818   */\n      dup4\n        /* \"#utility.yul\":21805:21822   */\n      add\n        /* \"#utility.yul\":21798:21845   */\n      mstore\n        /* \"#utility.yul\":21862:21993   */\n      tag_566\n        /* \"#utility.yul\":21988:21992   */\n      dup2\n        /* \"#utility.yul\":21862:21993   */\n      tag_339\n      jump\t// in\n    tag_566:\n        /* \"#utility.yul\":21854:21993   */\n      swap1\n      pop\n        /* \"#utility.yul\":21581:22000   */\n      swap2\n      swap1\n      pop\n      jump\t// out\n        /* \"#utility.yul\":22006:22170   */\n    tag_340:\n        /* \"#utility.yul\":22146:22162   */\n      0x496e76616c696420746f6b656e73000000000000000000000000000000000000\n        /* \"#utility.yul\":22142:22143   */\n      0x00\n        /* \"#utility.yul\":22134:22140   */\n      dup3\n        /* \"#utility.yul\":22130:22144   */\n      add\n        /* \"#utility.yul\":22123:22163   */\n      mstore\n        /* \"#utility.yul\":22006:22170   */\n      pop\n      jump\t// out\n        /* \"#utility.yul\":22176:22542   */\n    tag_341:\n        /* \"#utility.yul\":22318:22321   */\n      0x00\n        /* \"#utility.yul\":22339:22406   */\n      tag_569\n        /* \"#utility.yul\":22403:22405   */\n      0x0e\n        /* \"#utility.yul\":22398:22401   */\n      dup4\n        /* \"#utility.yul\":22339:22406   */\n      tag_321\n      jump\t// in\n    tag_569:\n        /* \"#utility.yul\":22332:22406   */\n      swap2\n      pop\n        /* \"#utility.yul\":22415:22508   */\n      tag_570\n        /* \"#utility.yul\":22504:22507   */\n      dup3\n        /* \"#utility.yul\":22415:22508   */\n      tag_340\n      jump\t// in\n    tag_570:\n        /* \"#utility.yul\":22533:22535   */\n      0x20\n        /* \"#utility.yul\":22528:22531   */\n      dup3\n        /* \"#utility.yul\":22524:22536   */\n      add\n        /* \"#utility.yul\":22517:22536   */\n      swap1\n      pop\n        /* \"#utility.yul\":22176:22542   */\n      swap2\n      swap1\n      pop\n      jump\t// out\n        /* \"#utility.yul\":22548:22967   */\n    tag_151:\n        /* \"#utility.yul\":22714:22718   */\n      0x00\n        /* \"#utility.yul\":22752:22754   */\n      0x20\n        /* \"#utility.yul\":22741:22750   */\n      dup3\n        /* \"#utility.yul\":22737:22755   */\n      add\n        /* \"#utility.yul\":22729:22755   */\n      swap1\n      pop\n        /* \"#utility.yul\":22801:22810   */\n      dup2\n        /* \"#utility.yul\":22795:22799   */\n      dup2\n        /* \"#utility.yul\":22791:22811   */\n      sub\n        /* \"#utility.yul\":22787:22788   */\n      0x00\n        /* \"#utility.yul\":22776:22785   */\n      dup4\n        /* \"#utility.yul\":22772:22789   */\n      add\n        /* \"#utility.yul\":22765:22812   */\n      mstore\n        /* \"#utility.yul\":22829:22960   */\n      tag_572\n        /* \"#utility.yul\":22955:22959   */\n      dup2\n        /* \"#utility.yul\":22829:22960   */\n      tag_341\n      jump\t// in\n    tag_572:\n        /* \"#utility.yul\":22821:22960   */\n      swap1\n      pop\n        /* \"#utility.yul\":22548:22967   */\n      swap2\n      swap1\n      pop\n      jump\t// out\n        /* \"#utility.yul\":22973:23135   */\n    tag_342:\n        /* \"#utility.yul\":23113:23127   */\n      0x4e6f206c69717569646974790000000000000000000000000000000000000000\n        /* \"#utility.yul\":23109:23110   */\n      0x00\n        /* \"#utility.yul\":23101:23107   */\n      dup3\n        /* \"#utility.yul\":23097:23111   */\n      add\n        /* \"#utility.yul\":23090:23128   */\n      mstore\n        /* \"#utility.yul\":22973:23135   */\n      pop\n      jump\t// out\n        /* \"#utility.yul\":23141:23507   */\n    tag_343:\n        /* \"#utility.yul\":23283:23286   */\n      0x00\n        /* \"#utility.yul\":23304:23371   */\n      tag_575\n        /* \"#utility.yul\":23368:23370   */\n      0x0c\n        /* \"#utility.yul\":23363:23366   */\n      dup4\n        /* \"#utility.yul\":23304:23371   */\n      tag_321\n      jump\t// in\n    tag_575:\n        /* \"#utility.yul\":23297:23371   */\n      swap2\n      pop\n        /* \"#utility.yul\":23380:23473   */\n      tag_576\n        /* \"#utility.yul\":23469:23472   */\n      dup3\n        /* \"#utility.yul\":23380:23473   */\n      tag_342\n      jump\t// in\n    tag_576:\n        /* \"#utility.yul\":23498:23500   */\n      0x20\n        /* \"#utility.yul\":23493:23496   */\n      dup3\n        /* \"#utility.yul\":23489:23501   */\n      add\n        /* \"#utility.yul\":23482:23501   */\n      swap1\n      pop\n        /* \"#utility.yul\":23141:23507   */\n      swap2\n      swap1\n      pop\n      jump\t// out\n        /* \"#utility.yul\":23513:23932   */\n    tag_159:\n        /* \"#utility.yul\":23679:23683   */\n      0x00\n        /* \"#utility.yul\":23717:23719   */\n      0x20\n        /* \"#utility.yul\":23706:23715   */\n      dup3\n        /* \"#utility.yul\":23702:23720   */\n      add\n        /* \"#utility.yul\":23694:23720   */\n      swap1\n      pop\n        /* \"#utility.yul\":23766:23775   */\n      dup2\n        /* \"#utility.yul\":23760:23764   */\n      dup2\n        /* \"#utility.yul\":23756:23776   */\n      sub\n        /* \"#utility.yul\":23752:23753   */\n      0x00\n        /* \"#utility.yul\":23741:23750   */\n      dup4\n        /* \"#utility.yul\":23737:23754   */\n      add\n        /* \"#utility.yul\":23730:23777   */\n      mstore\n        /* \"#utility.yul\":23794:23925   */\n      tag_578\n        /* \"#utility.yul\":23920:23924   */\n      dup2\n        /* \"#utility.yul\":23794:23925   */\n      tag_343\n      jump\t// in\n    tag_578:\n        /* \"#utility.yul\":23786:23925   */\n      swap1\n      pop\n        /* \"#utility.yul\":23513:23932   */\n      swap2\n      swap1\n      pop\n      jump\t// out\n        /* \"#utility.yul\":23938:24106   */\n    tag_344:\n        /* \"#utility.yul\":24078:24098   */\n      0x546f6b656e73206d757374206469666665720000000000000000000000000000\n        /* \"#utility.yul\":24074:24075   */\n      0x00\n        /* \"#utility.yul\":24066:24072   */\n      dup3\n        /* \"#utility.yul\":24062:24076   */\n      add\n        /* \"#utility.yul\":24055:24099   */\n      mstore\n        /* \"#utility.yul\":23938:24106   */\n      pop\n      jump\t// out\n        /* \"#utility.yul\":24112:24478   */\n    tag_345:\n        /* \"#utility.yul\":24254:24257   */\n      0x00\n        /* \"#utility.yul\":24275:24342   */\n      tag_581\n        /* \"#utility.yul\":24339:24341   */\n      0x12\n        /* \"#utility.yul\":24334:24337   */\n      dup4\n        /* \"#utility.yul\":24275:24342   */\n      tag_321\n      jump\t// in\n    tag_581:\n        /* \"#utility.yul\":24268:24342   */\n      swap2\n      pop\n        /* \"#utility.yul\":24351:24444   */\n      tag_582\n        /* \"#utility.yul\":24440:24443   */\n      dup3\n        /* \"#utility.yul\":24351:24444   */\n      tag_344\n      jump\t// in\n    tag_582:\n        /* \"#utility.yul\":24469:24471   */\n      0x20\n        /* \"#utility.yul\":24464:24467   */\n      dup3\n        /* \"#utility.yul\":24460:24472   */\n      add\n        /* \"#utility.yul\":24453:24472   */\n      swap1\n      pop\n        /* \"#utility.yul\":24112:24478   */\n      swap2\n      swap1\n      pop\n      jump\t// out\n        /* \"#utility.yul\":24484:24903   */\n    tag_168:\n        /* \"#utility.yul\":24650:24654   */\n      0x00\n        /* \"#utility.yul\":24688:24690   */\n      0x20\n        /* \"#utility.yul\":24677:24686   */\n      dup3\n        /* \"#utility.yul\":24673:24691   */\n      add\n        /* \"#utility.yul\":24665:24691   */\n      swap1\n      pop\n        /* \"#utility.yul\":24737:24746   */\n      dup2\n        /* \"#utility.yul\":24731:24735   */\n      dup2\n        /* \"#utility.yul\":24727:24747   */\n      sub\n        /* \"#utility.yul\":24723:24724   */\n      0x00\n        /* \"#utility.yul\":24712:24721   */\n      dup4\n        /* \"#utility.yul\":24708:24725   */\n      add\n        /* \"#utility.yul\":24701:24748   */\n      mstore\n        /* \"#utility.yul\":24765:24896   */\n      tag_584\n        /* \"#utility.yul\":24891:24895   */\n      dup2\n        /* \"#utility.yul\":24765:24896   */\n      tag_345\n      jump\t// in\n    tag_584:\n        /* \"#utility.yul\":24757:24896   */\n      swap1\n      pop\n        /* \"#utility.yul\":24484:24903   */\n      swap2\n      swap1\n      pop\n      jump\t// out\n        /* \"#utility.yul\":24909:25074   */\n    tag_346:\n        /* \"#utility.yul\":25049:25066   */\n      0x496e76616c696420616464726573730000000000000000000000000000000000\n        /* \"#utility.yul\":25045:25046   */\n      0x00\n        /* \"#utility.yul\":25037:25043   */\n      dup3\n        /* \"#utility.yul\":25033:25047   */\n      add\n        /* \"#utility.yul\":25026:25067   */\n      mstore\n        /* \"#utility.yul\":24909:25074   */\n      pop\n      jump\t// out\n        /* \"#utility.yul\":25080:25446   */\n    tag_347:\n        /* \"#utility.yul\":25222:25225   */\n      0x00\n        /* \"#utility.yul\":25243:25310   */\n      tag_587\n        /* \"#utility.yul\":25307:25309   */\n      0x0f\n        /* \"#utility.yul\":25302:25305   */\n      dup4\n        /* \"#utility.yul\":25243:25310   */\n      tag_321\n      jump\t// in\n    tag_587:\n        /* \"#utility.yul\":25236:25310   */\n      swap2\n      pop\n        /* \"#utility.yul\":25319:25412   */\n      tag_588\n        /* \"#utility.yul\":25408:25411   */\n      dup3\n        /* \"#utility.yul\":25319:25412   */\n      tag_346\n      jump\t// in\n    tag_588:\n        /* \"#utility.yul\":25437:25439   */\n      0x20\n        /* \"#utility.yul\":25432:25435   */\n      dup3\n        /* \"#utility.yul\":25428:25440   */\n      add\n        /* \"#utility.yul\":25421:25440   */\n      swap1\n      pop\n        /* \"#utility.yul\":25080:25446   */\n      swap2\n      swap1\n      pop\n      jump\t// out\n        /* \"#utility.yul\":25452:25871   */\n    tag_172:\n        /* \"#utility.yul\":25618:25622   */\n      0x00\n        /* \"#utility.yul\":25656:25658   */\n      0x20\n        /* \"#utility.yul\":25645:25654   */\n      dup3\n        /* \"#utility.yul\":25641:25659   */\n      add\n        /* \"#utility.yul\":25633:25659   */\n      swap1\n      pop\n        /* \"#utility.yul\":25705:25714   */\n      dup2\n        /* \"#utility.yul\":25699:25703   */\n      dup2\n        /* \"#utility.yul\":25695:25715   */\n      sub\n        /* \"#utility.yul\":25691:25692   */\n      0x00\n        /* \"#utility.yul\":25680:25689   */\n      dup4\n        /* \"#utility.yul\":25676:25693   */\n      add\n        /* \"#utility.yul\":25669:25716   */\n      mstore\n        /* \"#utility.yul\":25733:25864   */\n      tag_590\n        /* \"#utility.yul\":25859:25863   */\n      dup2\n        /* \"#utility.yul\":25733:25864   */\n      tag_347\n      jump\t// in\n    tag_590:\n        /* \"#utility.yul\":25725:25864   */\n      swap1\n      pop\n        /* \"#utility.yul\":25452:25871   */\n      swap2\n      swap1\n      pop\n      jump\t// out\n        /* \"#utility.yul\":25877:26020   */\n    tag_348:\n        /* \"#utility.yul\":25934:25939   */\n      0x00\n        /* \"#utility.yul\":25965:25971   */\n      dup2\n        /* \"#utility.yul\":25959:25972   */\n      mload\n        /* \"#utility.yul\":25950:25972   */\n      swap1\n      pop\n        /* \"#utility.yul\":25981:26014   */\n      tag_592\n        /* \"#utility.yul\":26008:26013   */\n      dup2\n        /* \"#utility.yul\":25981:26014   */\n      tag_300\n      jump\t// in\n    tag_592:\n        /* \"#utility.yul\":25877:26020   */\n      swap3\n      swap2\n      pop\n      pop\n      jump\t// out\n        /* \"#utility.yul\":26026:26377   */\n    tag_177:\n        /* \"#utility.yul\":26096:26102   */\n      0x00\n        /* \"#utility.yul\":26145:26147   */\n      0x20\n        /* \"#utility.yul\":26133:26142   */\n      dup3\n        /* \"#utility.yul\":26124:26131   */\n      dup5\n        /* \"#utility.yul\":26120:26143   */\n      sub\n        /* \"#utility.yul\":26116:26148   */\n      slt\n        /* \"#utility.yul\":26113:26232   */\n      iszero\n      tag_594\n      jumpi\n        /* \"#utility.yul\":26151:26230   */\n      tag_595\n      tag_298\n      jump\t// in\n    tag_595:\n        /* \"#utility.yul\":26113:26232   */\n    tag_594:\n        /* \"#utility.yul\":26271:26272   */\n      0x00\n        /* \"#utility.yul\":26296:26360   */\n      tag_596\n        /* \"#utility.yul\":26352:26359   */\n      dup5\n        /* \"#utility.yul\":26343:26349   */\n      dup3\n        /* \"#utility.yul\":26332:26341   */\n      dup6\n        /* \"#utility.yul\":26328:26350   */\n      add\n        /* \"#utility.yul\":26296:26360   */\n      tag_348\n      jump\t// in\n    tag_596:\n        /* \"#utility.yul\":26286:26360   */\n      swap2\n      pop\n        /* \"#utility.yul\":26242:26370   */\n      pop\n        /* \"#utility.yul\":26026:26377   */\n      swap3\n      swap2\n      pop\n      pop\n      jump\t// out\n        /* \"#utility.yul\":26383:26550   */\n    tag_349:\n        /* \"#utility.yul\":26523:26542   */\n      0x496e76616c696420726563697069656e74000000000000000000000000000000\n        /* \"#utility.yul\":26519:26520   */\n      0x00\n        /* \"#utility.yul\":26511:26517   */\n      dup3\n        /* \"#utility.yul\":26507:26521   */\n      add\n        /* \"#utility.yul\":26500:26543   */\n      mstore\n        /* \"#utility.yul\":26383:26550   */\n      pop\n      jump\t// out\n        /* \"#utility.yul\":26556:26922   */\n    tag_350:\n        /* \"#utility.yul\":26698:26701   */\n      0x00\n        /* \"#utility.yul\":26719:26786   */\n      tag_599\n        /* \"#utility.yul\":26783:26785   */\n      0x11\n        /* \"#utility.yul\":26778:26781   */\n      dup4\n        /* \"#utility.yul\":26719:26786   */\n      tag_321\n      jump\t// in\n    tag_599:\n        /* \"#utility.yul\":26712:26786   */\n      swap2\n      pop\n        /* \"#utility.yul\":26795:26888   */\n      tag_600\n        /* \"#utility.yul\":26884:26887   */\n      dup3\n        /* \"#utility.yul\":26795:26888   */\n      tag_349\n      jump\t// in\n    tag_600:\n        /* \"#utility.yul\":26913:26915   */\n      0x20\n        /* \"#utility.yul\":26908:26911   */\n      dup3\n        /* \"#utility.yul\":26904:26916   */\n      add\n        /* \"#utility.yul\":26897:26916   */\n      swap1\n      pop\n        /* \"#utility.yul\":26556:26922   */\n      swap2\n      swap1\n      pop\n      jump\t// out\n        /* \"#utility.yul\":26928:27347   */\n    tag_195:\n        /* \"#utility.yul\":27094:27098   */\n      0x00\n        /* \"#utility.yul\":27132:27134   */\n      0x20\n        /* \"#utility.yul\":27121:27130   */\n      dup3\n        /* \"#utility.yul\":27117:27135   */\n      add\n        /* \"#utility.yul\":27109:27135   */\n      swap1\n      pop\n        /* \"#utility.yul\":27181:27190   */\n      dup2\n        /* \"#utility.yul\":27175:27179   */\n      dup2\n        /* \"#utility.yul\":27171:27191   */\n      sub\n        /* \"#utility.yul\":27167:27168   */\n      0x00\n        /* \"#utility.yul\":27156:27165   */\n      dup4\n        /* \"#utility.yul\":27152:27169   */\n      add\n        /* \"#utility.yul\":27145:27192   */\n      mstore\n        /* \"#utility.yul\":27209:27340   */\n      tag_602\n        /* \"#utility.yul\":27335:27339   */\n      dup2\n        /* \"#utility.yul\":27209:27340   */\n      tag_350\n      jump\t// in\n    tag_602:\n        /* \"#utility.yul\":27201:27340   */\n      swap1\n      pop\n        /* \"#utility.yul\":26928:27347   */\n      swap2\n      swap1\n      pop\n      jump\t// out\n        /* \"#utility.yul\":27353:27523   */\n    tag_351:\n        /* \"#utility.yul\":27493:27515   */\n      0x4e6f7420656e6f756768206c6971756964697479000000000000000000000000\n        /* \"#utility.yul\":27489:27490   */\n      0x00\n        /* \"#utility.yul\":27481:27487   */\n      dup3\n        /* \"#utility.yul\":27477:27491   */\n      add\n        /* \"#utility.yul\":27470:27516   */\n      mstore\n        /* \"#utility.yul\":27353:27523   */\n      pop\n      jump\t// out\n        /* \"#utility.yul\":27529:27895   */\n    tag_352:\n        /* \"#utility.yul\":27671:27674   */\n      0x00\n        /* \"#utility.yul\":27692:27759   */\n      tag_605\n        /* \"#utility.yul\":27756:27758   */\n      0x14\n        /* \"#utility.yul\":27751:27754   */\n      dup4\n        /* \"#utility.yul\":27692:27759   */\n      tag_321\n      jump\t// in\n    tag_605:\n        /* \"#utility.yul\":27685:27759   */\n      swap2\n      pop\n        /* \"#utility.yul\":27768:27861   */\n      tag_606\n        /* \"#utility.yul\":27857:27860   */\n      dup3\n        /* \"#utility.yul\":27768:27861   */\n      tag_351\n      jump\t// in\n    tag_606:\n        /* \"#utility.yul\":27886:27888   */\n      0x20\n        /* \"#utility.yul\":27881:27884   */\n      dup3\n        /* \"#utility.yul\":27877:27889   */\n      add\n        /* \"#utility.yul\":27870:27889   */\n      swap1\n      pop\n        /* \"#utility.yul\":27529:27895   */\n      swap2\n      swap1\n      pop\n      jump\t// out\n        /* \"#utility.yul\":27901:28320   */\n    tag_202:\n        /* \"#utility.yul\":28067:28071   */\n      0x00\n        /* \"#utility.yul\":28105:28107   */\n      0x20\n        /* \"#utility.yul\":28094:28103   */\n      dup3\n        /* \"#utility.yul\":28090:28108   */\n      add\n        /* \"#utility.yul\":28082:28108   */\n      swap1\n      pop\n        /* \"#utility.yul\":28154:28163   */\n      dup2\n        /* \"#utility.yul\":28148:28152   */\n      dup2\n        /* \"#utility.yul\":28144:28164   */\n      sub\n        /* \"#utility.yul\":28140:28141   */\n      0x00\n        /* \"#utility.yul\":28129:28138   */\n      dup4\n        /* \"#utility.yul\":28125:28142   */\n      add\n        /* \"#utility.yul\":28118:28165   */\n      mstore\n        /* \"#utility.yul\":28182:28313   */\n      tag_608\n        /* \"#utility.yul\":28308:28312   */\n      dup2\n        /* \"#utility.yul\":28182:28313   */\n      tag_352\n      jump\t// in\n    tag_608:\n        /* \"#utility.yul\":28174:28313   */\n      swap1\n      pop\n        /* \"#utility.yul\":27901:28320   */\n      swap2\n      swap1\n      pop\n      jump\t// out\n        /* \"#utility.yul\":28326:28495   */\n    tag_353:\n        /* \"#utility.yul\":28466:28487   */\n      0x536c6970706167653a204120746f6f206c6f7700000000000000000000000000\n        /* \"#utility.yul\":28462:28463   */\n      0x00\n        /* \"#utility.yul\":28454:28460   */\n      dup3\n        /* \"#utility.yul\":28450:28464   */\n      add\n        /* \"#utility.yul\":28443:28488   */\n      mstore\n        /* \"#utility.yul\":28326:28495   */\n      pop\n      jump\t// out\n        /* \"#utility.yul\":28501:28867   */\n    tag_354:\n        /* \"#utility.yul\":28643:28646   */\n      0x00\n        /* \"#utility.yul\":28664:28731   */\n      tag_611\n        /* \"#utility.yul\":28728:28730   */\n      0x13\n        /* \"#utility.yul\":28723:28726   */\n      dup4\n        /* \"#utility.yul\":28664:28731   */\n      tag_321\n      jump\t// in\n    tag_611:\n        /* \"#utility.yul\":28657:28731   */\n      swap2\n      pop\n        /* \"#utility.yul\":28740:28833   */\n      tag_612\n        /* \"#utility.yul\":28829:28832   */\n      dup3\n        /* \"#utility.yul\":28740:28833   */\n      tag_353\n      jump\t// in\n    tag_612:\n        /* \"#utility.yul\":28858:28860   */\n      0x20\n        /* \"#utility.yul\":28853:28856   */\n      dup3\n        /* \"#utility.yul\":28849:28861   */\n      add\n        /* \"#utility.yul\":28842:28861   */\n      swap1\n      pop\n        /* \"#utility.yul\":28501:28867   */\n      swap2\n      swap1\n      pop\n      jump\t// out\n        /* \"#utility.yul\":28873:29292   */\n    tag_214:\n        /* \"#utility.yul\":29039:29043   */\n      0x00\n        /* \"#utility.yul\":29077:29079   */\n      0x20\n        /* \"#utility.yul\":29066:29075   */\n      dup3\n        /* \"#utility.yul\":29062:29080   */\n      add\n        /* \"#utility.yul\":29054:29080   */\n      swap1\n      pop\n        /* \"#utility.yul\":29126:29135   */\n      dup2\n        /* \"#utility.yul\":29120:29124   */\n      dup2\n        /* \"#utility.yul\":29116:29136   */\n      sub\n        /* \"#utility.yul\":29112:29113   */\n      0x00\n        /* \"#utility.yul\":29101:29110   */\n      dup4\n        /* \"#utility.yul\":29097:29114   */\n      add\n        /* \"#utility.yul\":29090:29137   */\n      mstore\n        /* \"#utility.yul\":29154:29285   */\n      tag_614\n        /* \"#utility.yul\":29280:29284   */\n      dup2\n        /* \"#utility.yul\":29154:29285   */\n      tag_354\n      jump\t// in\n    tag_614:\n        /* \"#utility.yul\":29146:29285   */\n      swap1\n      pop\n        /* \"#utility.yul\":28873:29292   */\n      swap2\n      swap1\n      pop\n      jump\t// out\n        /* \"#utility.yul\":29298:29467   */\n    tag_355:\n        /* \"#utility.yul\":29438:29459   */\n      0x536c6970706167653a204220746f6f206c6f7700000000000000000000000000\n        /* \"#utility.yul\":29434:29435   */\n      0x00\n        /* \"#utility.yul\":29426:29432   */\n      dup3\n        /* \"#utility.yul\":29422:29436   */\n      add\n        /* \"#utility.yul\":29415:29460   */\n      mstore\n        /* \"#utility.yul\":29298:29467   */\n      pop\n      jump\t// out\n        /* \"#utility.yul\":29473:29839   */\n    tag_356:\n        /* \"#utility.yul\":29615:29618   */\n      0x00\n        /* \"#utility.yul\":29636:29703   */\n      tag_617\n        /* \"#utility.yul\":29700:29702   */\n      0x13\n        /* \"#utility.yul\":29695:29698   */\n      dup4\n        /* \"#utility.yul\":29636:29703   */\n      tag_321\n      jump\t// in\n    tag_617:\n        /* \"#utility.yul\":29629:29703   */\n      swap2\n      pop\n        /* \"#utility.yul\":29712:29805   */\n      tag_618\n        /* \"#utility.yul\":29801:29804   */\n      dup3\n        /* \"#utility.yul\":29712:29805   */\n      tag_355\n      jump\t// in\n    tag_618:\n        /* \"#utility.yul\":29830:29832   */\n      0x20\n        /* \"#utility.yul\":29825:29828   */\n      dup3\n        /* \"#utility.yul\":29821:29833   */\n      add\n        /* \"#utility.yul\":29814:29833   */\n      swap1\n      pop\n        /* \"#utility.yul\":29473:29839   */\n      swap2\n      swap1\n      pop\n      jump\t// out\n        /* \"#utility.yul\":29845:30264   */\n    tag_217:\n        /* \"#utility.yul\":30011:30015   */\n      0x00\n        /* \"#utility.yul\":30049:30051   */\n      0x20\n        /* \"#utility.yul\":30038:30047   */\n      dup3\n        /* \"#utility.yul\":30034:30052   */\n      add\n        /* \"#utility.yul\":30026:30052   */\n      swap1\n      pop\n        /* \"#utility.yul\":30098:30107   */\n      dup2\n        /* \"#utility.yul\":30092:30096   */\n      dup2\n        /* \"#utility.yul\":30088:30108   */\n      sub\n        /* \"#utility.yul\":30084:30085   */\n      0x00\n        /* \"#utility.yul\":30073:30082   */\n      dup4\n        /* \"#utility.yul\":30069:30086   */\n      add\n        /* \"#utility.yul\":30062:30109   */\n      mstore\n        /* \"#utility.yul\":30126:30257   */\n      tag_620\n        /* \"#utility.yul\":30252:30256   */\n      dup2\n        /* \"#utility.yul\":30126:30257   */\n      tag_356\n      jump\t// in\n    tag_620:\n        /* \"#utility.yul\":30118:30257   */\n      swap1\n      pop\n        /* \"#utility.yul\":29845:30264   */\n      swap2\n      swap1\n      pop\n      jump\t// out\n        /* \"#utility.yul\":30270:30442   */\n    tag_357:\n        /* \"#utility.yul\":30410:30434   */\n      0x5472616e7366657220746f6b656e41206661696c656400000000000000000000\n        /* \"#utility.yul\":30406:30407   */\n      0x00\n        /* \"#utility.yul\":30398:30404   */\n      dup3\n        /* \"#utility.yul\":30394:30408   */\n      add\n        /* \"#utility.yul\":30387:30435   */\n      mstore\n        /* \"#utility.yul\":30270:30442   */\n      pop\n      jump\t// out\n        /* \"#utility.yul\":30448:30814   */\n    tag_358:\n        /* \"#utility.yul\":30590:30593   */\n      0x00\n        /* \"#utility.yul\":30611:30678   */\n      tag_623\n        /* \"#utility.yul\":30675:30677   */\n      0x16\n        /* \"#utility.yul\":30670:30673   */\n      dup4\n        /* \"#utility.yul\":30611:30678   */\n      tag_321\n      jump\t// in\n    tag_623:\n        /* \"#utility.yul\":30604:30678   */\n      swap2\n      pop\n        /* \"#utility.yul\":30687:30780   */\n      tag_624\n        /* \"#utility.yul\":30776:30779   */\n      dup3\n        /* \"#utility.yul\":30687:30780   */\n      tag_357\n      jump\t// in\n    tag_624:\n        /* \"#utility.yul\":30805:30807   */\n      0x20\n        /* \"#utility.yul\":30800:30803   */\n      dup3\n        /* \"#utility.yul\":30796:30808   */\n      add\n        /* \"#utility.yul\":30789:30808   */\n      swap1\n      pop\n        /* \"#utility.yul\":30448:30814   */\n      swap2\n      swap1\n      pop\n      jump\t// out\n        /* \"#utility.yul\":30820:31239   */\n    tag_230:\n        /* \"#utility.yul\":30986:30990   */\n      0x00\n        /* \"#utility.yul\":31024:31026   */\n      0x20\n        /* \"#utility.yul\":31013:31022   */\n      dup3\n        /* \"#utility.yul\":31009:31027   */\n      add\n        /* \"#utility.yul\":31001:31027   */\n      swap1\n      pop\n        /* \"#utility.yul\":31073:31082   */\n      dup2\n        /* \"#utility.yul\":31067:31071   */\n      dup2\n        /* \"#utility.yul\":31063:31083   */\n      sub\n        /* \"#utility.yul\":31059:31060   */\n      0x00\n        /* \"#utility.yul\":31048:31057   */\n      dup4\n        /* \"#utility.yul\":31044:31061   */\n      add\n        /* \"#utility.yul\":31037:31084   */\n      mstore\n        /* \"#utility.yul\":31101:31232   */\n      tag_626\n        /* \"#utility.yul\":31227:31231   */\n      dup2\n        /* \"#utility.yul\":31101:31232   */\n      tag_358\n      jump\t// in\n    tag_626:\n        /* \"#utility.yul\":31093:31232   */\n      swap1\n      pop\n        /* \"#utility.yul\":30820:31239   */\n      swap2\n      swap1\n      pop\n      jump\t// out\n        /* \"#utility.yul\":31245:31417   */\n    tag_359:\n        /* \"#utility.yul\":31385:31409   */\n      0x5472616e7366657220746f6b656e42206661696c656400000000000000000000\n        /* \"#utility.yul\":31381:31382   */\n      0x00\n        /* \"#utility.yul\":31373:31379   */\n      dup3\n        /* \"#utility.yul\":31369:31383   */\n      add\n        /* \"#utility.yul\":31362:31410   */\n      mstore\n        /* \"#utility.yul\":31245:31417   */\n      pop\n      jump\t// out\n        /* \"#utility.yul\":31423:31789   */\n    tag_360:\n        /* \"#utility.yul\":31565:31568   */\n      0x00\n        /* \"#utility.yul\":31586:31653   */\n      tag_629\n        /* \"#utility.yul\":31650:31652   */\n      0x16\n        /* \"#utility.yul\":31645:31648   */\n      dup4\n        /* \"#utility.yul\":31586:31653   */\n      tag_321\n      jump\t// in\n    tag_629:\n        /* \"#utility.yul\":31579:31653   */\n      swap2\n      pop\n        /* \"#utility.yul\":31662:31755   */\n      tag_630\n        /* \"#utility.yul\":31751:31754   */\n      dup3\n        /* \"#utility.yul\":31662:31755   */\n      tag_359\n      jump\t// in\n    tag_630:\n        /* \"#utility.yul\":31780:31782   */\n      0x20\n        /* \"#utility.yul\":31775:31778   */\n      dup3\n        /* \"#utility.yul\":31771:31783   */\n      add\n        /* \"#utility.yul\":31764:31783   */\n      swap1\n      pop\n        /* \"#utility.yul\":31423:31789   */\n      swap2\n      swap1\n      pop\n      jump\t// out\n        /* \"#utility.yul\":31795:32214   */\n    tag_237:\n        /* \"#utility.yul\":31961:31965   */\n      0x00\n        /* \"#utility.yul\":31999:32001   */\n      0x20\n        /* \"#utility.yul\":31988:31997   */\n      dup3\n        /* \"#utility.yul\":31984:32002   */\n      add\n        /* \"#utility.yul\":31976:32002   */\n      swap1\n      pop\n        /* \"#utility.yul\":32048:32057   */\n      dup2\n        /* \"#utility.yul\":32042:32046   */\n      dup2\n        /* \"#utility.yul\":32038:32058   */\n      sub\n        /* \"#utility.yul\":32034:32035   */\n      0x00\n        /* \"#utility.yul\":32023:32032   */\n      dup4\n        /* \"#utility.yul\":32019:32036   */\n      add\n        /* \"#utility.yul\":32012:32059   */\n      mstore\n        /* \"#utility.yul\":32076:32207   */\n      tag_632\n        /* \"#utility.yul\":32202:32206   */\n      dup2\n        /* \"#utility.yul\":32076:32207   */\n      tag_360\n      jump\t// in\n    tag_632:\n        /* \"#utility.yul\":32068:32207   */\n      swap1\n      pop\n        /* \"#utility.yul\":31795:32214   */\n      swap2\n      swap1\n      pop\n      jump\t// out\n\n    auxdata: 0xa2646970667358221220cab239b1255d534ef2573ede2896d4a60da5994820db24ff7b91e4ffb8c0358c64736f6c634300081e0033\n}\n",
				"bytecode": {
					"linkReferences": {},
					"object": "60c060405234801561000f575f5ffd5b50604051612ebd380380612ebd833981810160405281019061003191906101ec565b8173ffffffffffffffffffffffffffffffffffffffff168373ffffffffffffffffffffffffffffffffffffffff160361009f576040517f08c379a000000000000000000000000000000000000000000000000000000000815260040161009690610296565b60405180910390fd5b8273ffffffffffffffffffffffffffffffffffffffff1660808173ffffffffffffffffffffffffffffffffffffffff16815250508173ffffffffffffffffffffffffffffffffffffffff1660a08173ffffffffffffffffffffffffffffffffffffffff1681525050335f5f6101000a81548173ffffffffffffffffffffffffffffffffffffffff021916908373ffffffffffffffffffffffffffffffffffffffff1602179055508060015f6101000a81548173ffffffffffffffffffffffffffffffffffffffff021916908373ffffffffffffffffffffffffffffffffffffffff1602179055505050506102b4565b5f5ffd5b5f73ffffffffffffffffffffffffffffffffffffffff82169050919050565b5f6101bb82610192565b9050919050565b6101cb816101b1565b81146101d5575f5ffd5b50565b5f815190506101e6816101c2565b92915050565b5f5f5f606084860312156102035761020261018e565b5b5f610210868287016101d8565b9350506020610221868287016101d8565b9250506040610232868287016101d8565b9150509250925092565b5f82825260208201905092915050565b7f546f6b656e73206d75737420626520646966666572656e7400000000000000005f82015250565b5f61028060188361023c565b915061028b8261024c565b602082019050919050565b5f6020820190508181035f8301526102ad81610274565b9050919050565b60805160a051612b6361035a5f395f81816103fd01528181610453015281816109ae01528181610a0401528181610c4701528181610f8e015281816114cb01528181611663015261197f01525f818161027d015281816103a7015281816104a9015281816106090152818161095801528181610a5a01528181610aeb01528181610b4d01528181610f38015281816113f10152818161160d01526118a30152612b635ff3fe608060405234801561000f575f5ffd5b50600436106100b2575f3560e01c80635fcbd2851161006f5780635fcbd2851461018e5780638da5cb5b146101ac578063ac41865a146101ca578063baa2abde146101fa578063dc5fa6c51461022b578063e8e3370014610249576100b2565b80630fc63d10146100b657806315770f92146100d457806319e36f3b146100f257806338ed1739146101105780634aa06652146101405780635f64b55b14610170575b5f5ffd5b6100be61027b565b6040516100cb9190611c3e565b60405180910390f35b6100dc61029f565b6040516100e99190611c6f565b60405180910390f35b6100fa6102bd565b6040516101079190611c6f565b60405180910390f35b61012a60048036038101906101259190611d45565b6102c3565b6040516101379190611e92565b60405180910390f35b61015a60048036038101906101559190611eb2565b610913565b6040516101679190611c6f565b60405180910390f35b610178610c45565b6040516101859190611c3e565b60405180910390f35b610196610c69565b6040516101a39190611f5d565b60405180910390f35b6101b4610c8e565b6040516101c19190611c3e565b60405180910390f35b6101e460048036038101906101df9190611f76565b610cb2565b6040516101f19190611c6f565b60405180910390f35b610214600480360381019061020f9190611fb4565b610f34565b604051610222929190612051565b60405180910390f35b610233611602565b6040516102409190611c6f565b60405180910390f35b610263600480360381019061025e9190612078565b611608565b60405161027293929190612129565b60405180910390f35b7f000000000000000000000000000000000000000000000000000000000000000081565b5f6102b86003546002546102b3919061218b565b611b88565b905090565b60035481565b606081421115610308576040517f08c379a00000000000000000000000000000000000000000000000000000000081526004016102ff90612226565b60405180910390fd5b6002858590501461034e576040517f08c379a0000000000000000000000000000000000000000000000000000000008152600401610345906122b4565b60405180910390fd5b5f85855f818110610362576103616122d2565b5b905060200201602081019061037791906122ff565b90505f8686600181811061038e5761038d6122d2565b5b90506020020160208101906103a391906122ff565b90507f000000000000000000000000000000000000000000000000000000000000000073ffffffffffffffffffffffffffffffffffffffff168273ffffffffffffffffffffffffffffffffffffffff1614801561044b57507f000000000000000000000000000000000000000000000000000000000000000073ffffffffffffffffffffffffffffffffffffffff168173ffffffffffffffffffffffffffffffffffffffff16145b806104f857507f000000000000000000000000000000000000000000000000000000000000000073ffffffffffffffffffffffffffffffffffffffff168273ffffffffffffffffffffffffffffffffffffffff161480156104f757507f000000000000000000000000000000000000000000000000000000000000000073ffffffffffffffffffffffffffffffffffffffff168173ffffffffffffffffffffffffffffffffffffffff16145b5b610537576040517f08c379a000000000000000000000000000000000000000000000000000000000815260040161052e90612374565b60405180910390fd5b8173ffffffffffffffffffffffffffffffffffffffff166323b872dd33308c6040518463ffffffff1660e01b815260040161057493929190612392565b6020604051808303815f875af1158015610590573d5f5f3e3d5ffd5b505050506040513d601f19601f820116820180604052508101906105b491906123fc565b6105f3576040517f08c379a00000000000000000000000000000000000000000000000000000000081526004016105ea90612471565b60405180910390fd5b5f6103e58a610602919061218b565b90505f5f5f7f000000000000000000000000000000000000000000000000000000000000000073ffffffffffffffffffffffffffffffffffffffff168673ffffffffffffffffffffffffffffffffffffffff160361070d5760035484610668919061218b565b9250836103e860025461067b919061218b565b610685919061248f565b9150818361069391906124ef565b90508b8110156106d8576040517f08c379a00000000000000000000000000000000000000000000000000000000081526004016106cf90612569565b60405180910390fd5b8c60025f8282546106e9919061248f565b925050819055508060035f8282546107019190612587565b925050819055506107bc565b6002548461071b919061218b565b9250836103e860035461072e919061218b565b610738919061248f565b9150818361074691906124ef565b90508b81101561078b576040517f08c379a000000000000000000000000000000000000000000000000000000000815260040161078290612569565b60405180910390fd5b8c60035f82825461079c919061248f565b925050819055508060025f8282546107b49190612587565b925050819055505b8473ffffffffffffffffffffffffffffffffffffffff1663a9059cbb8a836040518363ffffffff1660e01b81526004016107f79291906125ba565b6020604051808303815f875af1158015610813573d5f5f3e3d5ffd5b505050506040513d601f19601f8201168201806040525081019061083791906123fc565b610876576040517f08c379a000000000000000000000000000000000000000000000000000000000815260040161086d9061262b565b60405180910390fd5b600167ffffffffffffffff81111561089157610890612649565b5b6040519080825280602002602001820160405280156108bf5781602001602082028036833780820191505090505b5096508c875f815181106108d6576108d56122d2565b5b60200260200101818152505080876001815181106108f7576108f66122d2565b5b6020026020010181815250505050505050509695505050505050565b5f5f8211610956576040517f08c379a000000000000000000000000000000000000000000000000000000000815260040161094d906126c0565b60405180910390fd5b7f000000000000000000000000000000000000000000000000000000000000000073ffffffffffffffffffffffffffffffffffffffff168473ffffffffffffffffffffffffffffffffffffffff161480156109fc57507f000000000000000000000000000000000000000000000000000000000000000073ffffffffffffffffffffffffffffffffffffffff168373ffffffffffffffffffffffffffffffffffffffff16145b80610aa957507f000000000000000000000000000000000000000000000000000000000000000073ffffffffffffffffffffffffffffffffffffffff168473ffffffffffffffffffffffffffffffffffffffff16148015610aa857507f000000000000000000000000000000000000000000000000000000000000000073ffffffffffffffffffffffffffffffffffffffff168373ffffffffffffffffffffffffffffffffffffffff16145b5b610ae8576040517f08c379a0000000000000000000000000000000000000000000000000000000008152600401610adf90612728565b60405180910390fd5b5f7f000000000000000000000000000000000000000000000000000000000000000073ffffffffffffffffffffffffffffffffffffffff168573ffffffffffffffffffffffffffffffffffffffff1614610b4457600354610b48565b6002545b90505f7f000000000000000000000000000000000000000000000000000000000000000073ffffffffffffffffffffffffffffffffffffffff168573ffffffffffffffffffffffffffffffffffffffff1614610ba657600354610baa565b6002545b90505f82118015610bba57505f81115b610bf9576040517f08c379a0000000000000000000000000000000000000000000000000000000008152600401610bf090612790565b60405180910390fd5b5f6103e585610c08919061218b565b9050806103e884610c19919061218b565b610c23919061248f565b8282610c2f919061218b565b610c3991906124ef565b93505050509392505050565b7f000000000000000000000000000000000000000000000000000000000000000081565b60015f9054906101000a900473ffffffffffffffffffffffffffffffffffffffff1681565b5f5f9054906101000a900473ffffffffffffffffffffffffffffffffffffffff1681565b5f8173ffffffffffffffffffffffffffffffffffffffff168373ffffffffffffffffffffffffffffffffffffffff1603610d21576040517f08c379a0000000000000000000000000000000000000000000000000000000008152600401610d18906127f8565b60405180910390fd5b5f73ffffffffffffffffffffffffffffffffffffffff168373ffffffffffffffffffffffffffffffffffffffff1614158015610d8957505f73ffffffffffffffffffffffffffffffffffffffff168273ffffffffffffffffffffffffffffffffffffffff1614155b610dc8576040517f08c379a0000000000000000000000000000000000000000000000000000000008152600401610dbf90612860565b60405180910390fd5b5f8373ffffffffffffffffffffffffffffffffffffffff166370a08231306040518263ffffffff1660e01b8152600401610e029190611c3e565b602060405180830381865afa158015610e1d573d5f5f3e3d5ffd5b505050506040513d601f19601f82011682018060405250810190610e419190612892565b90505f8373ffffffffffffffffffffffffffffffffffffffff166370a08231306040518263ffffffff1660e01b8152600401610e7d9190611c3e565b602060405180830381865afa158015610e98573d5f5f3e3d5ffd5b505050506040513d601f19601f82011682018060405250810190610ebc9190612892565b90505f82118015610ecc57505f81115b610f0b576040517f08c379a0000000000000000000000000000000000000000000000000000000008152600401610f0290612790565b60405180910390fd5b81670de0b6b3a764000082610f20919061218b565b610f2a91906124ef565b9250505092915050565b5f5f7f000000000000000000000000000000000000000000000000000000000000000073ffffffffffffffffffffffffffffffffffffffff168973ffffffffffffffffffffffffffffffffffffffff16148015610fdc57507f000000000000000000000000000000000000000000000000000000000000000073ffffffffffffffffffffffffffffffffffffffff168873ffffffffffffffffffffffffffffffffffffffff16145b61101b576040517f08c379a000000000000000000000000000000000000000000000000000000000815260040161101290612728565b60405180910390fd5b8242111561105e576040517f08c379a000000000000000000000000000000000000000000000000000000000815260040161105590612226565b60405180910390fd5b5f73ffffffffffffffffffffffffffffffffffffffff168473ffffffffffffffffffffffffffffffffffffffff16036110cc576040517f08c379a00000000000000000000000000000000000000000000000000000000081526004016110c390612907565b60405180910390fd5b8660015f9054906101000a900473ffffffffffffffffffffffffffffffffffffffff1673ffffffffffffffffffffffffffffffffffffffff166370a08231336040518263ffffffff1660e01b81526004016111279190611c3e565b602060405180830381865afa158015611142573d5f5f3e3d5ffd5b505050506040513d601f19601f820116820180604052508101906111669190612892565b10156111a7576040517f08c379a000000000000000000000000000000000000000000000000000000000815260040161119e9061296f565b60405180910390fd5b5f60015f9054906101000a900473ffffffffffffffffffffffffffffffffffffffff1673ffffffffffffffffffffffffffffffffffffffff166318160ddd6040518163ffffffff1660e01b8152600401602060405180830381865afa158015611212573d5f5f3e3d5ffd5b505050506040513d601f19601f820116820180604052508101906112369190612892565b90505f811161127a576040517f08c379a000000000000000000000000000000000000000000000000000000000815260040161127190612790565b60405180910390fd5b8060025489611289919061218b565b61129391906124ef565b925080600354896112a4919061218b565b6112ae91906124ef565b9150868310156112f3576040517f08c379a00000000000000000000000000000000000000000000000000000000081526004016112ea906129d7565b60405180910390fd5b85821015611336576040517f08c379a000000000000000000000000000000000000000000000000000000000815260040161132d90612a3f565b60405180910390fd5b8260025f8282546113479190612587565b925050819055508160035f82825461135f9190612587565b9250508190555060015f9054906101000a900473ffffffffffffffffffffffffffffffffffffffff1673ffffffffffffffffffffffffffffffffffffffff16639dc29fac338a6040518363ffffffff1660e01b81526004016113c29291906125ba565b5f604051808303815f87803b1580156113d9575f5ffd5b505af11580156113eb573d5f5f3e3d5ffd5b505050507f000000000000000000000000000000000000000000000000000000000000000073ffffffffffffffffffffffffffffffffffffffff1663a9059cbb86856040518363ffffffff1660e01b815260040161144a9291906125ba565b6020604051808303815f875af1158015611466573d5f5f3e3d5ffd5b505050506040513d601f19601f8201168201806040525081019061148a91906123fc565b6114c9576040517f08c379a00000000000000000000000000000000000000000000000000000000081526004016114c090612aa7565b60405180910390fd5b7f000000000000000000000000000000000000000000000000000000000000000073ffffffffffffffffffffffffffffffffffffffff1663a9059cbb86846040518363ffffffff1660e01b81526004016115249291906125ba565b6020604051808303815f875af1158015611540573d5f5f3e3d5ffd5b505050506040513d601f19601f8201168201806040525081019061156491906123fc565b6115a3576040517f08c379a000000000000000000000000000000000000000000000000000000000815260040161159a90612b0f565b60405180910390fd5b8473ffffffffffffffffffffffffffffffffffffffff167f1dc8bb69df2b8e91fbdcbfcf93d951b3f0000f085a95fe3f7946d6161439245d84848b6040516115ed93929190612129565b60405180910390a25097509795505050505050565b60025481565b5f5f5f7f000000000000000000000000000000000000000000000000000000000000000073ffffffffffffffffffffffffffffffffffffffff168b73ffffffffffffffffffffffffffffffffffffffff161480156116b157507f000000000000000000000000000000000000000000000000000000000000000073ffffffffffffffffffffffffffffffffffffffff168a73ffffffffffffffffffffffffffffffffffffffff16145b6116f0576040517f08c379a00000000000000000000000000000000000000000000000000000000081526004016116e790612728565b60405180910390fd5b83421115611733576040517f08c379a000000000000000000000000000000000000000000000000000000000815260040161172a90612226565b60405180910390fd5b5f73ffffffffffffffffffffffffffffffffffffffff168573ffffffffffffffffffffffffffffffffffffffff16036117a1576040517f08c379a000000000000000000000000000000000000000000000000000000000815260040161179890612907565b60405180910390fd5b5f6002541480156117b357505f600354145b156117c3578892508791506118a1565b5f6002546003548b6117d5919061218b565b6117df91906124ef565b9050888111611836578681101561182b576040517f08c379a000000000000000000000000000000000000000000000000000000000815260040161182290612a3f565b60405180910390fd5b89935080925061189f565b5f6003546002548b611848919061218b565b61185291906124ef565b905088811015611897576040517f08c379a000000000000000000000000000000000000000000000000000000000815260040161188e906129d7565b60405180910390fd5b809450899350505b505b7f000000000000000000000000000000000000000000000000000000000000000073ffffffffffffffffffffffffffffffffffffffff166323b872dd3330866040518463ffffffff1660e01b81526004016118fe93929190612392565b6020604051808303815f875af115801561191a573d5f5f3e3d5ffd5b505050506040513d601f19601f8201168201806040525081019061193e91906123fc565b61197d576040517f08c379a000000000000000000000000000000000000000000000000000000000815260040161197490612aa7565b60405180910390fd5b7f000000000000000000000000000000000000000000000000000000000000000073ffffffffffffffffffffffffffffffffffffffff166323b872dd3330856040518463ffffffff1660e01b81526004016119da93929190612392565b6020604051808303815f875af11580156119f6573d5f5f3e3d5ffd5b505050506040513d601f19601f82011682018060405250810190611a1a91906123fc565b611a59576040517f08c379a0000000000000000000000000000000000000000000000000000000008152600401611a5090612b0f565b60405180910390fd5b8260025f828254611a6a919061248f565b925050819055508160035f828254611a82919061248f565b92505081905550611a9d8284611a98919061218b565b611b88565b905060015f9054906101000a900473ffffffffffffffffffffffffffffffffffffffff1673ffffffffffffffffffffffffffffffffffffffff166340c10f1986836040518363ffffffff1660e01b8152600401611afb9291906125ba565b5f604051808303815f87803b158015611b12575f5ffd5b505af1158015611b24573d5f5f3e3d5ffd5b505050508473ffffffffffffffffffffffffffffffffffffffff167f64b83944e79c3ce8d4c297411de637c3e102d064677aac0c163976ebdcd6f50e848484604051611b7293929190612129565b60405180910390a2985098509895505050505050565b5f6003821115611bed578190505f6001600284611ba591906124ef565b611baf919061248f565b90505b81811015611be7578091506002818285611bcc91906124ef565b611bd6919061248f565b611be091906124ef565b9050611bb2565b50611bfa565b5f8214611bf957600190505b5b919050565b5f73ffffffffffffffffffffffffffffffffffffffff82169050919050565b5f611c2882611bff565b9050919050565b611c3881611c1e565b82525050565b5f602082019050611c515f830184611c2f565b92915050565b5f819050919050565b611c6981611c57565b82525050565b5f602082019050611c825f830184611c60565b92915050565b5f5ffd5b5f5ffd5b611c9981611c57565b8114611ca3575f5ffd5b50565b5f81359050611cb481611c90565b92915050565b5f5ffd5b5f5ffd5b5f5ffd5b5f5f83601f840112611cdb57611cda611cba565b5b8235905067ffffffffffffffff811115611cf857611cf7611cbe565b5b602083019150836020820283011115611d1457611d13611cc2565b5b9250929050565b611d2481611c1e565b8114611d2e575f5ffd5b50565b5f81359050611d3f81611d1b565b92915050565b5f5f5f5f5f5f60a08789031215611d5f57611d5e611c88565b5b5f611d6c89828a01611ca6565b9650506020611d7d89828a01611ca6565b955050604087013567ffffffffffffffff811115611d9e57611d9d611c8c565b5b611daa89828a01611cc6565b94509450506060611dbd89828a01611d31565b9250506080611dce89828a01611ca6565b9150509295509295509295565b5f81519050919050565b5f82825260208201905092915050565b5f819050602082019050919050565b611e0d81611c57565b82525050565b5f611e1e8383611e04565b60208301905092915050565b5f602082019050919050565b5f611e4082611ddb565b611e4a8185611de5565b9350611e5583611df5565b805f5b83811015611e85578151611e6c8882611e13565b9750611e7783611e2a565b925050600181019050611e58565b5085935050505092915050565b5f6020820190508181035f830152611eaa8184611e36565b905092915050565b5f5f5f60608486031215611ec957611ec8611c88565b5b5f611ed686828701611d31565b9350506020611ee786828701611d31565b9250506040611ef886828701611ca6565b9150509250925092565b5f819050919050565b5f611f25611f20611f1b84611bff565b611f02565b611bff565b9050919050565b5f611f3682611f0b565b9050919050565b5f611f4782611f2c565b9050919050565b611f5781611f3d565b82525050565b5f602082019050611f705f830184611f4e565b92915050565b5f5f60408385031215611f8c57611f8b611c88565b5b5f611f9985828601611d31565b9250506020611faa85828601611d31565b9150509250929050565b5f5f5f5f5f5f5f60e0888a031215611fcf57611fce611c88565b5b5f611fdc8a828b01611d31565b9750506020611fed8a828b01611d31565b9650506040611ffe8a828b01611ca6565b955050606061200f8a828b01611ca6565b94505060806120208a828b01611ca6565b93505060a06120318a828b01611d31565b92505060c06120428a828b01611ca6565b91505092959891949750929550565b5f6040820190506120645f830185611c60565b6120716020830184611c60565b9392505050565b5f5f5f5f5f5f5f5f610100898b03121561209557612094611c88565b5b5f6120a28b828c01611d31565b98505060206120b38b828c01611d31565b97505060406120c48b828c01611ca6565b96505060606120d58b828c01611ca6565b95505060806120e68b828c01611ca6565b94505060a06120f78b828c01611ca6565b93505060c06121088b828c01611d31565b92505060e06121198b828c01611ca6565b9150509295985092959890939650565b5f60608201905061213c5f830186611c60565b6121496020830185611c60565b6121566040830184611c60565b949350505050565b7f4e487b71000000000000000000000000000000000000000000000000000000005f52601160045260245ffd5b5f61219582611c57565b91506121a083611c57565b92508282026121ae81611c57565b915082820484148315176121c5576121c461215e565b5b5092915050565b5f82825260208201905092915050565b7f5472616e73616374696f6e2065787069726564000000000000000000000000005f82015250565b5f6122106013836121cc565b915061221b826121dc565b602082019050919050565b5f6020820190508181035f83015261223d81612204565b9050919050565b7f4f6e6c792064697265637420746f6b656e20737761707320737570706f7274655f8201527f6400000000000000000000000000000000000000000000000000000000000000602082015250565b5f61229e6021836121cc565b91506122a982612244565b604082019050919050565b5f6020820190508181035f8301526122cb81612292565b9050919050565b7f4e487b71000000000000000000000000000000000000000000000000000000005f52603260045260245ffd5b5f6020828403121561231457612313611c88565b5b5f61232184828501611d31565b91505092915050565b7f496e76616c696420746f6b656e207061746800000000000000000000000000005f82015250565b5f61235e6012836121cc565b91506123698261232a565b602082019050919050565b5f6020820190508181035f83015261238b81612352565b9050919050565b5f6060820190506123a55f830186611c2f565b6123b26020830185611c2f565b6123bf6040830184611c60565b949350505050565b5f8115159050919050565b6123db816123c7565b81146123e5575f5ffd5b50565b5f815190506123f6816123d2565b92915050565b5f6020828403121561241157612410611c88565b5b5f61241e848285016123e8565b91505092915050565b7f5472616e7366657246726f6d206661696c6564000000000000000000000000005f82015250565b5f61245b6013836121cc565b915061246682612427565b602082019050919050565b5f6020820190508181035f8301526124888161244f565b9050919050565b5f61249982611c57565b91506124a483611c57565b92508282019050808211156124bc576124bb61215e565b5b92915050565b7f4e487b71000000000000000000000000000000000000000000000000000000005f52601260045260245ffd5b5f6124f982611c57565b915061250483611c57565b925082612514576125136124c2565b5b828204905092915050565b7f496e73756666696369656e74206f7574707574000000000000000000000000005f82015250565b5f6125536013836121cc565b915061255e8261251f565b602082019050919050565b5f6020820190508181035f83015261258081612547565b9050919050565b5f61259182611c57565b915061259c83611c57565b92508282039050818111156125b4576125b361215e565b5b92915050565b5f6040820190506125cd5f830185611c2f565b6125da6020830184611c60565b9392505050565b7f5472616e73666572206f7574707574206661696c6564000000000000000000005f82015250565b5f6126156016836121cc565b9150612620826125e1565b602082019050919050565b5f6020820190508181035f83015261264281612609565b9050919050565b7f4e487b71000000000000000000000000000000000000000000000000000000005f52604160045260245ffd5b7f496e76616c696420696e707574000000000000000000000000000000000000005f82015250565b5f6126aa600d836121cc565b91506126b582612676565b602082019050919050565b5f6020820190508181035f8301526126d78161269e565b9050919050565b7f496e76616c696420746f6b656e730000000000000000000000000000000000005f82015250565b5f612712600e836121cc565b915061271d826126de565b602082019050919050565b5f6020820190508181035f83015261273f81612706565b9050919050565b7f4e6f206c697175696469747900000000000000000000000000000000000000005f82015250565b5f61277a600c836121cc565b915061278582612746565b602082019050919050565b5f6020820190508181035f8301526127a78161276e565b9050919050565b7f546f6b656e73206d7573742064696666657200000000000000000000000000005f82015250565b5f6127e26012836121cc565b91506127ed826127ae565b602082019050919050565b5f6020820190508181035f83015261280f816127d6565b9050919050565b7f496e76616c6964206164647265737300000000000000000000000000000000005f82015250565b5f61284a600f836121cc565b915061285582612816565b602082019050919050565b5f6020820190508181035f8301526128778161283e565b9050919050565b5f8151905061288c81611c90565b92915050565b5f602082840312156128a7576128a6611c88565b5b5f6128b48482850161287e565b91505092915050565b7f496e76616c696420726563697069656e740000000000000000000000000000005f82015250565b5f6128f16011836121cc565b91506128fc826128bd565b602082019050919050565b5f6020820190508181035f83015261291e816128e5565b9050919050565b7f4e6f7420656e6f756768206c69717569646974790000000000000000000000005f82015250565b5f6129596014836121cc565b915061296482612925565b602082019050919050565b5f6020820190508181035f8301526129868161294d565b9050919050565b7f536c6970706167653a204120746f6f206c6f77000000000000000000000000005f82015250565b5f6129c16013836121cc565b91506129cc8261298d565b602082019050919050565b5f6020820190508181035f8301526129ee816129b5565b9050919050565b7f536c6970706167653a204220746f6f206c6f77000000000000000000000000005f82015250565b5f612a296013836121cc565b9150612a34826129f5565b602082019050919050565b5f6020820190508181035f830152612a5681612a1d565b9050919050565b7f5472616e7366657220746f6b656e41206661696c6564000000000000000000005f82015250565b5f612a916016836121cc565b9150612a9c82612a5d565b602082019050919050565b5f6020820190508181035f830152612abe81612a85565b9050919050565b7f5472616e7366657220746f6b656e42206661696c6564000000000000000000005f82015250565b5f612af96016836121cc565b9150612b0482612ac5565b602082019050919050565b5f6020820190508181035f830152612b2681612aed565b905091905056fea2646970667358221220cab239b1255d534ef2573ede2896d4a60da5994820db24ff7b91e4ffb8c0358c64736f6c634300081e0033",
					"opcodes": "PUSH1 0xC0 PUSH1 0x40 MSTORE CALLVALUE DUP1 ISZERO PUSH2 0xF JUMPI PUSH0 PUSH0 REVERT JUMPDEST POP PUSH1 0x40 MLOAD PUSH2 0x2EBD CODESIZE SUB DUP1 PUSH2 0x2EBD DUP4 CODECOPY DUP2 DUP2 ADD PUSH1 0x40 MSTORE DUP2 ADD SWAP1 PUSH2 0x31 SWAP2 SWAP1 PUSH2 0x1EC JUMP JUMPDEST DUP2 PUSH20 0xFFFFFFFFFFFFFFFFFFFFFFFFFFFFFFFFFFFFFFFF AND DUP4 PUSH20 0xFFFFFFFFFFFFFFFFFFFFFFFFFFFFFFFFFFFFFFFF AND SUB PUSH2 0x9F JUMPI PUSH1 0x40 MLOAD PUSH32 0x8C379A000000000000000000000000000000000000000000000000000000000 DUP2 MSTORE PUSH1 0x4 ADD PUSH2 0x96 SWAP1 PUSH2 0x296 JUMP JUMPDEST PUSH1 0x40 MLOAD DUP1 SWAP2 SUB SWAP1 REVERT JUMPDEST DUP3 PUSH20 0xFFFFFFFFFFFFFFFFFFFFFFFFFFFFFFFFFFFFFFFF AND PUSH1 0x80 DUP2 PUSH20 0xFFFFFFFFFFFFFFFFFFFFFFFFFFFFFFFFFFFFFFFF AND DUP2 MSTORE POP POP DUP2 PUSH20 0xFFFFFFFFFFFFFFFFFFFFFFFFFFFFFFFFFFFFFFFF AND PUSH1 0xA0 DUP2 PUSH20 0xFFFFFFFFFFFFFFFFFFFFFFFFFFFFFFFFFFFFFFFF AND DUP2 MSTORE POP POP CALLER PUSH0 PUSH0 PUSH2 0x100 EXP DUP2 SLOAD DUP2 PUSH20 0xFFFFFFFFFFFFFFFFFFFFFFFFFFFFFFFFFFFFFFFF MUL NOT AND SWAP1 DUP4 PUSH20 0xFFFFFFFFFFFFFFFFFFFFFFFFFFFFFFFFFFFFFFFF AND MUL OR SWAP1 SSTORE POP DUP1 PUSH1 0x1 PUSH0 PUSH2 0x100 EXP DUP2 SLOAD DUP2 PUSH20 0xFFFFFFFFFFFFFFFFFFFFFFFFFFFFFFFFFFFFFFFF MUL NOT AND SWAP1 DUP4 PUSH20 0xFFFFFFFFFFFFFFFFFFFFFFFFFFFFFFFFFFFFFFFF AND MUL OR SWAP1 SSTORE POP POP POP POP PUSH2 0x2B4 JUMP JUMPDEST PUSH0 PUSH0 REVERT JUMPDEST PUSH0 PUSH20 0xFFFFFFFFFFFFFFFFFFFFFFFFFFFFFFFFFFFFFFFF DUP3 AND SWAP1 POP SWAP2 SWAP1 POP JUMP JUMPDEST PUSH0 PUSH2 0x1BB DUP3 PUSH2 0x192 JUMP JUMPDEST SWAP1 POP SWAP2 SWAP1 POP JUMP JUMPDEST PUSH2 0x1CB DUP2 PUSH2 0x1B1 JUMP JUMPDEST DUP2 EQ PUSH2 0x1D5 JUMPI PUSH0 PUSH0 REVERT JUMPDEST POP JUMP JUMPDEST PUSH0 DUP2 MLOAD SWAP1 POP PUSH2 0x1E6 DUP2 PUSH2 0x1C2 JUMP JUMPDEST SWAP3 SWAP2 POP POP JUMP JUMPDEST PUSH0 PUSH0 PUSH0 PUSH1 0x60 DUP5 DUP7 SUB SLT ISZERO PUSH2 0x203 JUMPI PUSH2 0x202 PUSH2 0x18E JUMP JUMPDEST JUMPDEST PUSH0 PUSH2 0x210 DUP7 DUP3 DUP8 ADD PUSH2 0x1D8 JUMP JUMPDEST SWAP4 POP POP PUSH1 0x20 PUSH2 0x221 DUP7 DUP3 DUP8 ADD PUSH2 0x1D8 JUMP JUMPDEST SWAP3 POP POP PUSH1 0x40 PUSH2 0x232 DUP7 DUP3 DUP8 ADD PUSH2 0x1D8 JUMP JUMPDEST SWAP2 POP POP SWAP3 POP SWAP3 POP SWAP3 JUMP JUMPDEST PUSH0 DUP3 DUP3 MSTORE PUSH1 0x20 DUP3 ADD SWAP1 POP SWAP3 SWAP2 POP POP JUMP JUMPDEST PUSH32 0x546F6B656E73206D75737420626520646966666572656E740000000000000000 PUSH0 DUP3 ADD MSTORE POP JUMP JUMPDEST PUSH0 PUSH2 0x280 PUSH1 0x18 DUP4 PUSH2 0x23C JUMP JUMPDEST SWAP2 POP PUSH2 0x28B DUP3 PUSH2 0x24C JUMP JUMPDEST PUSH1 0x20 DUP3 ADD SWAP1 POP SWAP2 SWAP1 POP JUMP JUMPDEST PUSH0 PUSH1 0x20 DUP3 ADD SWAP1 POP DUP2 DUP2 SUB PUSH0 DUP4 ADD MSTORE PUSH2 0x2AD DUP2 PUSH2 0x274 JUMP JUMPDEST SWAP1 POP SWAP2 SWAP1 POP JUMP JUMPDEST PUSH1 0x80 MLOAD PUSH1 0xA0 MLOAD PUSH2 0x2B63 PUSH2 0x35A PUSH0 CODECOPY PUSH0 DUP2 DUP2 PUSH2 0x3FD ADD MSTORE DUP2 DUP2 PUSH2 0x453 ADD MSTORE DUP2 DUP2 PUSH2 0x9AE ADD MSTORE DUP2 DUP2 PUSH2 0xA04 ADD MSTORE DUP2 DUP2 PUSH2 0xC47 ADD MSTORE DUP2 DUP2 PUSH2 0xF8E ADD MSTORE DUP2 DUP2 PUSH2 0x14CB ADD MSTORE DUP2 DUP2 PUSH2 0x1663 ADD MSTORE PUSH2 0x197F ADD MSTORE PUSH0 DUP2 DUP2 PUSH2 0x27D ADD MSTORE DUP2 DUP2 PUSH2 0x3A7 ADD MSTORE DUP2 DUP2 PUSH2 0x4A9 ADD MSTORE DUP2 DUP2 PUSH2 0x609 ADD MSTORE DUP2 DUP2 PUSH2 0x958 ADD MSTORE DUP2 DUP2 PUSH2 0xA5A ADD MSTORE DUP2 DUP2 PUSH2 0xAEB ADD MSTORE DUP2 DUP2 PUSH2 0xB4D ADD MSTORE DUP2 DUP2 PUSH2 0xF38 ADD MSTORE DUP2 DUP2 PUSH2 0x13F1 ADD MSTORE DUP2 DUP2 PUSH2 0x160D ADD MSTORE PUSH2 0x18A3 ADD MSTORE PUSH2 0x2B63 PUSH0 RETURN INVALID PUSH1 0x80 PUSH1 0x40 MSTORE CALLVALUE DUP1 ISZERO PUSH2 0xF JUMPI PUSH0 PUSH0 REVERT JUMPDEST POP PUSH1 0x4 CALLDATASIZE LT PUSH2 0xB2 JUMPI PUSH0 CALLDATALOAD PUSH1 0xE0 SHR DUP1 PUSH4 0x5FCBD285 GT PUSH2 0x6F JUMPI DUP1 PUSH4 0x5FCBD285 EQ PUSH2 0x18E JUMPI DUP1 PUSH4 0x8DA5CB5B EQ PUSH2 0x1AC JUMPI DUP1 PUSH4 0xAC41865A EQ PUSH2 0x1CA JUMPI DUP1 PUSH4 0xBAA2ABDE EQ PUSH2 0x1FA JUMPI DUP1 PUSH4 0xDC5FA6C5 EQ PUSH2 0x22B JUMPI DUP1 PUSH4 0xE8E33700 EQ PUSH2 0x249 JUMPI PUSH2 0xB2 JUMP JUMPDEST DUP1 PUSH4 0xFC63D10 EQ PUSH2 0xB6 JUMPI DUP1 PUSH4 0x15770F92 EQ PUSH2 0xD4 JUMPI DUP1 PUSH4 0x19E36F3B EQ PUSH2 0xF2 JUMPI DUP1 PUSH4 0x38ED1739 EQ PUSH2 0x110 JUMPI DUP1 PUSH4 0x4AA06652 EQ PUSH2 0x140 JUMPI DUP1 PUSH4 0x5F64B55B EQ PUSH2 0x170 JUMPI JUMPDEST PUSH0 PUSH0 REVERT JUMPDEST PUSH2 0xBE PUSH2 0x27B JUMP JUMPDEST PUSH1 0x40 MLOAD PUSH2 0xCB SWAP2 SWAP1 PUSH2 0x1C3E JUMP JUMPDEST PUSH1 0x40 MLOAD DUP1 SWAP2 SUB SWAP1 RETURN JUMPDEST PUSH2 0xDC PUSH2 0x29F JUMP JUMPDEST PUSH1 0x40 MLOAD PUSH2 0xE9 SWAP2 SWAP1 PUSH2 0x1C6F JUMP JUMPDEST PUSH1 0x40 MLOAD DUP1 SWAP2 SUB SWAP1 RETURN JUMPDEST PUSH2 0xFA PUSH2 0x2BD JUMP JUMPDEST PUSH1 0x40 MLOAD PUSH2 0x107 SWAP2 SWAP1 PUSH2 0x1C6F JUMP JUMPDEST PUSH1 0x40 MLOAD DUP1 SWAP2 SUB SWAP1 RETURN JUMPDEST PUSH2 0x12A PUSH1 0x4 DUP1 CALLDATASIZE SUB DUP2 ADD SWAP1 PUSH2 0x125 SWAP2 SWAP1 PUSH2 0x1D45 JUMP JUMPDEST PUSH2 0x2C3 JUMP JUMPDEST PUSH1 0x40 MLOAD PUSH2 0x137 SWAP2 SWAP1 PUSH2 0x1E92 JUMP JUMPDEST PUSH1 0x40 MLOAD DUP1 SWAP2 SUB SWAP1 RETURN JUMPDEST PUSH2 0x15A PUSH1 0x4 DUP1 CALLDATASIZE SUB DUP2 ADD SWAP1 PUSH2 0x155 SWAP2 SWAP1 PUSH2 0x1EB2 JUMP JUMPDEST PUSH2 0x913 JUMP JUMPDEST PUSH1 0x40 MLOAD PUSH2 0x167 SWAP2 SWAP1 PUSH2 0x1C6F JUMP JUMPDEST PUSH1 0x40 MLOAD DUP1 SWAP2 SUB SWAP1 RETURN JUMPDEST PUSH2 0x178 PUSH2 0xC45 JUMP JUMPDEST PUSH1 0x40 MLOAD PUSH2 0x185 SWAP2 SWAP1 PUSH2 0x1C3E JUMP JUMPDEST PUSH1 0x40 MLOAD DUP1 SWAP2 SUB SWAP1 RETURN JUMPDEST PUSH2 0x196 PUSH2 0xC69 JUMP JUMPDEST PUSH1 0x40 MLOAD PUSH2 0x1A3 SWAP2 SWAP1 PUSH2 0x1F5D JUMP JUMPDEST PUSH1 0x40 MLOAD DUP1 SWAP2 SUB SWAP1 RETURN JUMPDEST PUSH2 0x1B4 PUSH2 0xC8E JUMP JUMPDEST PUSH1 0x40 MLOAD PUSH2 0x1C1 SWAP2 SWAP1 PUSH2 0x1C3E JUMP JUMPDEST PUSH1 0x40 MLOAD DUP1 SWAP2 SUB SWAP1 RETURN JUMPDEST PUSH2 0x1E4 PUSH1 0x4 DUP1 CALLDATASIZE SUB DUP2 ADD SWAP1 PUSH2 0x1DF SWAP2 SWAP1 PUSH2 0x1F76 JUMP JUMPDEST PUSH2 0xCB2 JUMP JUMPDEST PUSH1 0x40 MLOAD PUSH2 0x1F1 SWAP2 SWAP1 PUSH2 0x1C6F JUMP JUMPDEST PUSH1 0x40 MLOAD DUP1 SWAP2 SUB SWAP1 RETURN JUMPDEST PUSH2 0x214 PUSH1 0x4 DUP1 CALLDATASIZE SUB DUP2 ADD SWAP1 PUSH2 0x20F SWAP2 SWAP1 PUSH2 0x1FB4 JUMP JUMPDEST PUSH2 0xF34 JUMP JUMPDEST PUSH1 0x40 MLOAD PUSH2 0x222 SWAP3 SWAP2 SWAP1 PUSH2 0x2051 JUMP JUMPDEST PUSH1 0x40 MLOAD DUP1 SWAP2 SUB SWAP1 RETURN JUMPDEST PUSH2 0x233 PUSH2 0x1602 JUMP JUMPDEST PUSH1 0x40 MLOAD PUSH2 0x240 SWAP2 SWAP1 PUSH2 0x1C6F JUMP JUMPDEST PUSH1 0x40 MLOAD DUP1 SWAP2 SUB SWAP1 RETURN JUMPDEST PUSH2 0x263 PUSH1 0x4 DUP1 CALLDATASIZE SUB DUP2 ADD SWAP1 PUSH2 0x25E SWAP2 SWAP1 PUSH2 0x2078 JUMP JUMPDEST PUSH2 0x1608 JUMP JUMPDEST PUSH1 0x40 MLOAD PUSH2 0x272 SWAP4 SWAP3 SWAP2 SWAP1 PUSH2 0x2129 JUMP JUMPDEST PUSH1 0x40 MLOAD DUP1 SWAP2 SUB SWAP1 RETURN JUMPDEST PUSH32 0x0 DUP2 JUMP JUMPDEST PUSH0 PUSH2 0x2B8 PUSH1 0x3 SLOAD PUSH1 0x2 SLOAD PUSH2 0x2B3 SWAP2 SWAP1 PUSH2 0x218B JUMP JUMPDEST PUSH2 0x1B88 JUMP JUMPDEST SWAP1 POP SWAP1 JUMP JUMPDEST PUSH1 0x3 SLOAD DUP2 JUMP JUMPDEST PUSH1 0x60 DUP2 TIMESTAMP GT ISZERO PUSH2 0x308 JUMPI PUSH1 0x40 MLOAD PUSH32 0x8C379A000000000000000000000000000000000000000000000000000000000 DUP2 MSTORE PUSH1 0x4 ADD PUSH2 0x2FF SWAP1 PUSH2 0x2226 JUMP JUMPDEST PUSH1 0x40 MLOAD DUP1 SWAP2 SUB SWAP1 REVERT JUMPDEST PUSH1 0x2 DUP6 DUP6 SWAP1 POP EQ PUSH2 0x34E JUMPI PUSH1 0x40 MLOAD PUSH32 0x8C379A000000000000000000000000000000000000000000000000000000000 DUP2 MSTORE PUSH1 0x4 ADD PUSH2 0x345 SWAP1 PUSH2 0x22B4 JUMP JUMPDEST PUSH1 0x40 MLOAD DUP1 SWAP2 SUB SWAP1 REVERT JUMPDEST PUSH0 DUP6 DUP6 PUSH0 DUP2 DUP2 LT PUSH2 0x362 JUMPI PUSH2 0x361 PUSH2 0x22D2 JUMP JUMPDEST JUMPDEST SWAP1 POP PUSH1 0x20 MUL ADD PUSH1 0x20 DUP2 ADD SWAP1 PUSH2 0x377 SWAP2 SWAP1 PUSH2 0x22FF JUMP JUMPDEST SWAP1 POP PUSH0 DUP7 DUP7 PUSH1 0x1 DUP2 DUP2 LT PUSH2 0x38E JUMPI PUSH2 0x38D PUSH2 0x22D2 JUMP JUMPDEST JUMPDEST SWAP1 POP PUSH1 0x20 MUL ADD PUSH1 0x20 DUP2 ADD SWAP1 PUSH2 0x3A3 SWAP2 SWAP1 PUSH2 0x22FF JUMP JUMPDEST SWAP1 POP PUSH32 0x0 PUSH20 0xFFFFFFFFFFFFFFFFFFFFFFFFFFFFFFFFFFFFFFFF AND DUP3 PUSH20 0xFFFFFFFFFFFFFFFFFFFFFFFFFFFFFFFFFFFFFFFF AND EQ DUP1 ISZERO PUSH2 0x44B JUMPI POP PUSH32 0x0 PUSH20 0xFFFFFFFFFFFFFFFFFFFFFFFFFFFFFFFFFFFFFFFF AND DUP2 PUSH20 0xFFFFFFFFFFFFFFFFFFFFFFFFFFFFFFFFFFFFFFFF AND EQ JUMPDEST DUP1 PUSH2 0x4F8 JUMPI POP PUSH32 0x0 PUSH20 0xFFFFFFFFFFFFFFFFFFFFFFFFFFFFFFFFFFFFFFFF AND DUP3 PUSH20 0xFFFFFFFFFFFFFFFFFFFFFFFFFFFFFFFFFFFFFFFF AND EQ DUP1 ISZERO PUSH2 0x4F7 JUMPI POP PUSH32 0x0 PUSH20 0xFFFFFFFFFFFFFFFFFFFFFFFFFFFFFFFFFFFFFFFF AND DUP2 PUSH20 0xFFFFFFFFFFFFFFFFFFFFFFFFFFFFFFFFFFFFFFFF AND EQ JUMPDEST JUMPDEST PUSH2 0x537 JUMPI PUSH1 0x40 MLOAD PUSH32 0x8C379A000000000000000000000000000000000000000000000000000000000 DUP2 MSTORE PUSH1 0x4 ADD PUSH2 0x52E SWAP1 PUSH2 0x2374 JUMP JUMPDEST PUSH1 0x40 MLOAD DUP1 SWAP2 SUB SWAP1 REVERT JUMPDEST DUP2 PUSH20 0xFFFFFFFFFFFFFFFFFFFFFFFFFFFFFFFFFFFFFFFF AND PUSH4 0x23B872DD CALLER ADDRESS DUP13 PUSH1 0x40 MLOAD DUP5 PUSH4 0xFFFFFFFF AND PUSH1 0xE0 SHL DUP2 MSTORE PUSH1 0x4 ADD PUSH2 0x574 SWAP4 SWAP3 SWAP2 SWAP1 PUSH2 0x2392 JUMP JUMPDEST PUSH1 0x20 PUSH1 0x40 MLOAD DUP1 DUP4 SUB DUP2 PUSH0 DUP8 GAS CALL ISZERO DUP1 ISZERO PUSH2 0x590 JUMPI RETURNDATASIZE PUSH0 PUSH0 RETURNDATACOPY RETURNDATASIZE PUSH0 REVERT JUMPDEST POP POP POP POP PUSH1 0x40 MLOAD RETURNDATASIZE PUSH1 0x1F NOT PUSH1 0x1F DUP3 ADD AND DUP3 ADD DUP1 PUSH1 0x40 MSTORE POP DUP2 ADD SWAP1 PUSH2 0x5B4 SWAP2 SWAP1 PUSH2 0x23FC JUMP JUMPDEST PUSH2 0x5F3 JUMPI PUSH1 0x40 MLOAD PUSH32 0x8C379A000000000000000000000000000000000000000000000000000000000 DUP2 MSTORE PUSH1 0x4 ADD PUSH2 0x5EA SWAP1 PUSH2 0x2471 JUMP JUMPDEST PUSH1 0x40 MLOAD DUP1 SWAP2 SUB SWAP1 REVERT JUMPDEST PUSH0 PUSH2 0x3E5 DUP11 PUSH2 0x602 SWAP2 SWAP1 PUSH2 0x218B JUMP JUMPDEST SWAP1 POP PUSH0 PUSH0 PUSH0 PUSH32 0x0 PUSH20 0xFFFFFFFFFFFFFFFFFFFFFFFFFFFFFFFFFFFFFFFF AND DUP7 PUSH20 0xFFFFFFFFFFFFFFFFFFFFFFFFFFFFFFFFFFFFFFFF AND SUB PUSH2 0x70D JUMPI PUSH1 0x3 SLOAD DUP5 PUSH2 0x668 SWAP2 SWAP1 PUSH2 0x218B JUMP JUMPDEST SWAP3 POP DUP4 PUSH2 0x3E8 PUSH1 0x2 SLOAD PUSH2 0x67B SWAP2 SWAP1 PUSH2 0x218B JUMP JUMPDEST PUSH2 0x685 SWAP2 SWAP1 PUSH2 0x248F JUMP JUMPDEST SWAP2 POP DUP2 DUP4 PUSH2 0x693 SWAP2 SWAP1 PUSH2 0x24EF JUMP JUMPDEST SWAP1 POP DUP12 DUP2 LT ISZERO PUSH2 0x6D8 JUMPI PUSH1 0x40 MLOAD PUSH32 0x8C379A000000000000000000000000000000000000000000000000000000000 DUP2 MSTORE PUSH1 0x4 ADD PUSH2 0x6CF SWAP1 PUSH2 0x2569 JUMP JUMPDEST PUSH1 0x40 MLOAD DUP1 SWAP2 SUB SWAP1 REVERT JUMPDEST DUP13 PUSH1 0x2 PUSH0 DUP3 DUP3 SLOAD PUSH2 0x6E9 SWAP2 SWAP1 PUSH2 0x248F JUMP JUMPDEST SWAP3 POP POP DUP2 SWAP1 SSTORE POP DUP1 PUSH1 0x3 PUSH0 DUP3 DUP3 SLOAD PUSH2 0x701 SWAP2 SWAP1 PUSH2 0x2587 JUMP JUMPDEST SWAP3 POP POP DUP2 SWAP1 SSTORE POP PUSH2 0x7BC JUMP JUMPDEST PUSH1 0x2 SLOAD DUP5 PUSH2 0x71B SWAP2 SWAP1 PUSH2 0x218B JUMP JUMPDEST SWAP3 POP DUP4 PUSH2 0x3E8 PUSH1 0x3 SLOAD PUSH2 0x72E SWAP2 SWAP1 PUSH2 0x218B JUMP JUMPDEST PUSH2 0x738 SWAP2 SWAP1 PUSH2 0x248F JUMP JUMPDEST SWAP2 POP DUP2 DUP4 PUSH2 0x746 SWAP2 SWAP1 PUSH2 0x24EF JUMP JUMPDEST SWAP1 POP DUP12 DUP2 LT ISZERO PUSH2 0x78B JUMPI PUSH1 0x40 MLOAD PUSH32 0x8C379A000000000000000000000000000000000000000000000000000000000 DUP2 MSTORE PUSH1 0x4 ADD PUSH2 0x782 SWAP1 PUSH2 0x2569 JUMP JUMPDEST PUSH1 0x40 MLOAD DUP1 SWAP2 SUB SWAP1 REVERT JUMPDEST DUP13 PUSH1 0x3 PUSH0 DUP3 DUP3 SLOAD PUSH2 0x79C SWAP2 SWAP1 PUSH2 0x248F JUMP JUMPDEST SWAP3 POP POP DUP2 SWAP1 SSTORE POP DUP1 PUSH1 0x2 PUSH0 DUP3 DUP3 SLOAD PUSH2 0x7B4 SWAP2 SWAP1 PUSH2 0x2587 JUMP JUMPDEST SWAP3 POP POP DUP2 SWAP1 SSTORE POP JUMPDEST DUP5 PUSH20 0xFFFFFFFFFFFFFFFFFFFFFFFFFFFFFFFFFFFFFFFF AND PUSH4 0xA9059CBB DUP11 DUP4 PUSH1 0x40 MLOAD DUP4 PUSH4 0xFFFFFFFF AND PUSH1 0xE0 SHL DUP2 MSTORE PUSH1 0x4 ADD PUSH2 0x7F7 SWAP3 SWAP2 SWAP1 PUSH2 0x25BA JUMP JUMPDEST PUSH1 0x20 PUSH1 0x40 MLOAD DUP1 DUP4 SUB DUP2 PUSH0 DUP8 GAS CALL ISZERO DUP1 ISZERO PUSH2 0x813 JUMPI RETURNDATASIZE PUSH0 PUSH0 RETURNDATACOPY RETURNDATASIZE PUSH0 REVERT JUMPDEST POP POP POP POP PUSH1 0x40 MLOAD RETURNDATASIZE PUSH1 0x1F NOT PUSH1 0x1F DUP3 ADD AND DUP3 ADD DUP1 PUSH1 0x40 MSTORE POP DUP2 ADD SWAP1 PUSH2 0x837 SWAP2 SWAP1 PUSH2 0x23FC JUMP JUMPDEST PUSH2 0x876 JUMPI PUSH1 0x40 MLOAD PUSH32 0x8C379A000000000000000000000000000000000000000000000000000000000 DUP2 MSTORE PUSH1 0x4 ADD PUSH2 0x86D SWAP1 PUSH2 0x262B JUMP JUMPDEST PUSH1 0x40 MLOAD DUP1 SWAP2 SUB SWAP1 REVERT JUMPDEST PUSH1 0x1 PUSH8 0xFFFFFFFFFFFFFFFF DUP2 GT ISZERO PUSH2 0x891 JUMPI PUSH2 0x890 PUSH2 0x2649 JUMP JUMPDEST JUMPDEST PUSH1 0x40 MLOAD SWAP1 DUP1 DUP3 MSTORE DUP1 PUSH1 0x20 MUL PUSH1 0x20 ADD DUP3 ADD PUSH1 0x40 MSTORE DUP1 ISZERO PUSH2 0x8BF JUMPI DUP2 PUSH1 0x20 ADD PUSH1 0x20 DUP3 MUL DUP1 CALLDATASIZE DUP4 CALLDATACOPY DUP1 DUP3 ADD SWAP2 POP POP SWAP1 POP JUMPDEST POP SWAP7 POP DUP13 DUP8 PUSH0 DUP2 MLOAD DUP2 LT PUSH2 0x8D6 JUMPI PUSH2 0x8D5 PUSH2 0x22D2 JUMP JUMPDEST JUMPDEST PUSH1 0x20 MUL PUSH1 0x20 ADD ADD DUP2 DUP2 MSTORE POP POP DUP1 DUP8 PUSH1 0x1 DUP2 MLOAD DUP2 LT PUSH2 0x8F7 JUMPI PUSH2 0x8F6 PUSH2 0x22D2 JUMP JUMPDEST JUMPDEST PUSH1 0x20 MUL PUSH1 0x20 ADD ADD DUP2 DUP2 MSTORE POP POP POP POP POP POP POP POP SWAP7 SWAP6 POP POP POP POP POP POP JUMP JUMPDEST PUSH0 PUSH0 DUP3 GT PUSH2 0x956 JUMPI PUSH1 0x40 MLOAD PUSH32 0x8C379A000000000000000000000000000000000000000000000000000000000 DUP2 MSTORE PUSH1 0x4 ADD PUSH2 0x94D SWAP1 PUSH2 0x26C0 JUMP JUMPDEST PUSH1 0x40 MLOAD DUP1 SWAP2 SUB SWAP1 REVERT JUMPDEST PUSH32 0x0 PUSH20 0xFFFFFFFFFFFFFFFFFFFFFFFFFFFFFFFFFFFFFFFF AND DUP5 PUSH20 0xFFFFFFFFFFFFFFFFFFFFFFFFFFFFFFFFFFFFFFFF AND EQ DUP1 ISZERO PUSH2 0x9FC JUMPI POP PUSH32 0x0 PUSH20 0xFFFFFFFFFFFFFFFFFFFFFFFFFFFFFFFFFFFFFFFF AND DUP4 PUSH20 0xFFFFFFFFFFFFFFFFFFFFFFFFFFFFFFFFFFFFFFFF AND EQ JUMPDEST DUP1 PUSH2 0xAA9 JUMPI POP PUSH32 0x0 PUSH20 0xFFFFFFFFFFFFFFFFFFFFFFFFFFFFFFFFFFFFFFFF AND DUP5 PUSH20 0xFFFFFFFFFFFFFFFFFFFFFFFFFFFFFFFFFFFFFFFF AND EQ DUP1 ISZERO PUSH2 0xAA8 JUMPI POP PUSH32 0x0 PUSH20 0xFFFFFFFFFFFFFFFFFFFFFFFFFFFFFFFFFFFFFFFF AND DUP4 PUSH20 0xFFFFFFFFFFFFFFFFFFFFFFFFFFFFFFFFFFFFFFFF AND EQ JUMPDEST JUMPDEST PUSH2 0xAE8 JUMPI PUSH1 0x40 MLOAD PUSH32 0x8C379A000000000000000000000000000000000000000000000000000000000 DUP2 MSTORE PUSH1 0x4 ADD PUSH2 0xADF SWAP1 PUSH2 0x2728 JUMP JUMPDEST PUSH1 0x40 MLOAD DUP1 SWAP2 SUB SWAP1 REVERT JUMPDEST PUSH0 PUSH32 0x0 PUSH20 0xFFFFFFFFFFFFFFFFFFFFFFFFFFFFFFFFFFFFFFFF AND DUP6 PUSH20 0xFFFFFFFFFFFFFFFFFFFFFFFFFFFFFFFFFFFFFFFF AND EQ PUSH2 0xB44 JUMPI PUSH1 0x3 SLOAD PUSH2 0xB48 JUMP JUMPDEST PUSH1 0x2 SLOAD JUMPDEST SWAP1 POP PUSH0 PUSH32 0x0 PUSH20 0xFFFFFFFFFFFFFFFFFFFFFFFFFFFFFFFFFFFFFFFF AND DUP6 PUSH20 0xFFFFFFFFFFFFFFFFFFFFFFFFFFFFFFFFFFFFFFFF AND EQ PUSH2 0xBA6 JUMPI PUSH1 0x3 SLOAD PUSH2 0xBAA JUMP JUMPDEST PUSH1 0x2 SLOAD JUMPDEST SWAP1 POP PUSH0 DUP3 GT DUP1 ISZERO PUSH2 0xBBA JUMPI POP PUSH0 DUP2 GT JUMPDEST PUSH2 0xBF9 JUMPI PUSH1 0x40 MLOAD PUSH32 0x8C379A000000000000000000000000000000000000000000000000000000000 DUP2 MSTORE PUSH1 0x4 ADD PUSH2 0xBF0 SWAP1 PUSH2 0x2790 JUMP JUMPDEST PUSH1 0x40 MLOAD DUP1 SWAP2 SUB SWAP1 REVERT JUMPDEST PUSH0 PUSH2 0x3E5 DUP6 PUSH2 0xC08 SWAP2 SWAP1 PUSH2 0x218B JUMP JUMPDEST SWAP1 POP DUP1 PUSH2 0x3E8 DUP5 PUSH2 0xC19 SWAP2 SWAP1 PUSH2 0x218B JUMP JUMPDEST PUSH2 0xC23 SWAP2 SWAP1 PUSH2 0x248F JUMP JUMPDEST DUP3 DUP3 PUSH2 0xC2F SWAP2 SWAP1 PUSH2 0x218B JUMP JUMPDEST PUSH2 0xC39 SWAP2 SWAP1 PUSH2 0x24EF JUMP JUMPDEST SWAP4 POP POP POP POP SWAP4 SWAP3 POP POP POP JUMP JUMPDEST PUSH32 0x0 DUP2 JUMP JUMPDEST PUSH1 0x1 PUSH0 SWAP1 SLOAD SWAP1 PUSH2 0x100 EXP SWAP1 DIV PUSH20 0xFFFFFFFFFFFFFFFFFFFFFFFFFFFFFFFFFFFFFFFF AND DUP2 JUMP JUMPDEST PUSH0 PUSH0 SWAP1 SLOAD SWAP1 PUSH2 0x100 EXP SWAP1 DIV PUSH20 0xFFFFFFFFFFFFFFFFFFFFFFFFFFFFFFFFFFFFFFFF AND DUP2 JUMP JUMPDEST PUSH0 DUP2 PUSH20 0xFFFFFFFFFFFFFFFFFFFFFFFFFFFFFFFFFFFFFFFF AND DUP4 PUSH20 0xFFFFFFFFFFFFFFFFFFFFFFFFFFFFFFFFFFFFFFFF AND SUB PUSH2 0xD21 JUMPI PUSH1 0x40 MLOAD PUSH32 0x8C379A000000000000000000000000000000000000000000000000000000000 DUP2 MSTORE PUSH1 0x4 ADD PUSH2 0xD18 SWAP1 PUSH2 0x27F8 JUMP JUMPDEST PUSH1 0x40 MLOAD DUP1 SWAP2 SUB SWAP1 REVERT JUMPDEST PUSH0 PUSH20 0xFFFFFFFFFFFFFFFFFFFFFFFFFFFFFFFFFFFFFFFF AND DUP4 PUSH20 0xFFFFFFFFFFFFFFFFFFFFFFFFFFFFFFFFFFFFFFFF AND EQ ISZERO DUP1 ISZERO PUSH2 0xD89 JUMPI POP PUSH0 PUSH20 0xFFFFFFFFFFFFFFFFFFFFFFFFFFFFFFFFFFFFFFFF AND DUP3 PUSH20 0xFFFFFFFFFFFFFFFFFFFFFFFFFFFFFFFFFFFFFFFF AND EQ ISZERO JUMPDEST PUSH2 0xDC8 JUMPI PUSH1 0x40 MLOAD PUSH32 0x8C379A000000000000000000000000000000000000000000000000000000000 DUP2 MSTORE PUSH1 0x4 ADD PUSH2 0xDBF SWAP1 PUSH2 0x2860 JUMP JUMPDEST PUSH1 0x40 MLOAD DUP1 SWAP2 SUB SWAP1 REVERT JUMPDEST PUSH0 DUP4 PUSH20 0xFFFFFFFFFFFFFFFFFFFFFFFFFFFFFFFFFFFFFFFF AND PUSH4 0x70A08231 ADDRESS PUSH1 0x40 MLOAD DUP3 PUSH4 0xFFFFFFFF AND PUSH1 0xE0 SHL DUP2 MSTORE PUSH1 0x4 ADD PUSH2 0xE02 SWAP2 SWAP1 PUSH2 0x1C3E JUMP JUMPDEST PUSH1 0x20 PUSH1 0x40 MLOAD DUP1 DUP4 SUB DUP2 DUP7 GAS STATICCALL ISZERO DUP1 ISZERO PUSH2 0xE1D JUMPI RETURNDATASIZE PUSH0 PUSH0 RETURNDATACOPY RETURNDATASIZE PUSH0 REVERT JUMPDEST POP POP POP POP PUSH1 0x40 MLOAD RETURNDATASIZE PUSH1 0x1F NOT PUSH1 0x1F DUP3 ADD AND DUP3 ADD DUP1 PUSH1 0x40 MSTORE POP DUP2 ADD SWAP1 PUSH2 0xE41 SWAP2 SWAP1 PUSH2 0x2892 JUMP JUMPDEST SWAP1 POP PUSH0 DUP4 PUSH20 0xFFFFFFFFFFFFFFFFFFFFFFFFFFFFFFFFFFFFFFFF AND PUSH4 0x70A08231 ADDRESS PUSH1 0x40 MLOAD DUP3 PUSH4 0xFFFFFFFF AND PUSH1 0xE0 SHL DUP2 MSTORE PUSH1 0x4 ADD PUSH2 0xE7D SWAP2 SWAP1 PUSH2 0x1C3E JUMP JUMPDEST PUSH1 0x20 PUSH1 0x40 MLOAD DUP1 DUP4 SUB DUP2 DUP7 GAS STATICCALL ISZERO DUP1 ISZERO PUSH2 0xE98 JUMPI RETURNDATASIZE PUSH0 PUSH0 RETURNDATACOPY RETURNDATASIZE PUSH0 REVERT JUMPDEST POP POP POP POP PUSH1 0x40 MLOAD RETURNDATASIZE PUSH1 0x1F NOT PUSH1 0x1F DUP3 ADD AND DUP3 ADD DUP1 PUSH1 0x40 MSTORE POP DUP2 ADD SWAP1 PUSH2 0xEBC SWAP2 SWAP1 PUSH2 0x2892 JUMP JUMPDEST SWAP1 POP PUSH0 DUP3 GT DUP1 ISZERO PUSH2 0xECC JUMPI POP PUSH0 DUP2 GT JUMPDEST PUSH2 0xF0B JUMPI PUSH1 0x40 MLOAD PUSH32 0x8C379A000000000000000000000000000000000000000000000000000000000 DUP2 MSTORE PUSH1 0x4 ADD PUSH2 0xF02 SWAP1 PUSH2 0x2790 JUMP JUMPDEST PUSH1 0x40 MLOAD DUP1 SWAP2 SUB SWAP1 REVERT JUMPDEST DUP2 PUSH8 0xDE0B6B3A7640000 DUP3 PUSH2 0xF20 SWAP2 SWAP1 PUSH2 0x218B JUMP JUMPDEST PUSH2 0xF2A SWAP2 SWAP1 PUSH2 0x24EF JUMP JUMPDEST SWAP3 POP POP POP SWAP3 SWAP2 POP POP JUMP JUMPDEST PUSH0 PUSH0 PUSH32 0x0 PUSH20 0xFFFFFFFFFFFFFFFFFFFFFFFFFFFFFFFFFFFFFFFF AND DUP10 PUSH20 0xFFFFFFFFFFFFFFFFFFFFFFFFFFFFFFFFFFFFFFFF AND EQ DUP1 ISZERO PUSH2 0xFDC JUMPI POP PUSH32 0x0 PUSH20 0xFFFFFFFFFFFFFFFFFFFFFFFFFFFFFFFFFFFFFFFF AND DUP9 PUSH20 0xFFFFFFFFFFFFFFFFFFFFFFFFFFFFFFFFFFFFFFFF AND EQ JUMPDEST PUSH2 0x101B JUMPI PUSH1 0x40 MLOAD PUSH32 0x8C379A000000000000000000000000000000000000000000000000000000000 DUP2 MSTORE PUSH1 0x4 ADD PUSH2 0x1012 SWAP1 PUSH2 0x2728 JUMP JUMPDEST PUSH1 0x40 MLOAD DUP1 SWAP2 SUB SWAP1 REVERT JUMPDEST DUP3 TIMESTAMP GT ISZERO PUSH2 0x105E JUMPI PUSH1 0x40 MLOAD PUSH32 0x8C379A000000000000000000000000000000000000000000000000000000000 DUP2 MSTORE PUSH1 0x4 ADD PUSH2 0x1055 SWAP1 PUSH2 0x2226 JUMP JUMPDEST PUSH1 0x40 MLOAD DUP1 SWAP2 SUB SWAP1 REVERT JUMPDEST PUSH0 PUSH20 0xFFFFFFFFFFFFFFFFFFFFFFFFFFFFFFFFFFFFFFFF AND DUP5 PUSH20 0xFFFFFFFFFFFFFFFFFFFFFFFFFFFFFFFFFFFFFFFF AND SUB PUSH2 0x10CC JUMPI PUSH1 0x40 MLOAD PUSH32 0x8C379A000000000000000000000000000000000000000000000000000000000 DUP2 MSTORE PUSH1 0x4 ADD PUSH2 0x10C3 SWAP1 PUSH2 0x2907 JUMP JUMPDEST PUSH1 0x40 MLOAD DUP1 SWAP2 SUB SWAP1 REVERT JUMPDEST DUP7 PUSH1 0x1 PUSH0 SWAP1 SLOAD SWAP1 PUSH2 0x100 EXP SWAP1 DIV PUSH20 0xFFFFFFFFFFFFFFFFFFFFFFFFFFFFFFFFFFFFFFFF AND PUSH20 0xFFFFFFFFFFFFFFFFFFFFFFFFFFFFFFFFFFFFFFFF AND PUSH4 0x70A08231 CALLER PUSH1 0x40 MLOAD DUP3 PUSH4 0xFFFFFFFF AND PUSH1 0xE0 SHL DUP2 MSTORE PUSH1 0x4 ADD PUSH2 0x1127 SWAP2 SWAP1 PUSH2 0x1C3E JUMP JUMPDEST PUSH1 0x20 PUSH1 0x40 MLOAD DUP1 DUP4 SUB DUP2 DUP7 GAS STATICCALL ISZERO DUP1 ISZERO PUSH2 0x1142 JUMPI RETURNDATASIZE PUSH0 PUSH0 RETURNDATACOPY RETURNDATASIZE PUSH0 REVERT JUMPDEST POP POP POP POP PUSH1 0x40 MLOAD RETURNDATASIZE PUSH1 0x1F NOT PUSH1 0x1F DUP3 ADD AND DUP3 ADD DUP1 PUSH1 0x40 MSTORE POP DUP2 ADD SWAP1 PUSH2 0x1166 SWAP2 SWAP1 PUSH2 0x2892 JUMP JUMPDEST LT ISZERO PUSH2 0x11A7 JUMPI PUSH1 0x40 MLOAD PUSH32 0x8C379A000000000000000000000000000000000000000000000000000000000 DUP2 MSTORE PUSH1 0x4 ADD PUSH2 0x119E SWAP1 PUSH2 0x296F JUMP JUMPDEST PUSH1 0x40 MLOAD DUP1 SWAP2 SUB SWAP1 REVERT JUMPDEST PUSH0 PUSH1 0x1 PUSH0 SWAP1 SLOAD SWAP1 PUSH2 0x100 EXP SWAP1 DIV PUSH20 0xFFFFFFFFFFFFFFFFFFFFFFFFFFFFFFFFFFFFFFFF AND PUSH20 0xFFFFFFFFFFFFFFFFFFFFFFFFFFFFFFFFFFFFFFFF AND PUSH4 0x18160DDD PUSH1 0x40 MLOAD DUP2 PUSH4 0xFFFFFFFF AND PUSH1 0xE0 SHL DUP2 MSTORE PUSH1 0x4 ADD PUSH1 0x20 PUSH1 0x40 MLOAD DUP1 DUP4 SUB DUP2 DUP7 GAS STATICCALL ISZERO DUP1 ISZERO PUSH2 0x1212 JUMPI RETURNDATASIZE PUSH0 PUSH0 RETURNDATACOPY RETURNDATASIZE PUSH0 REVERT JUMPDEST POP POP POP POP PUSH1 0x40 MLOAD RETURNDATASIZE PUSH1 0x1F NOT PUSH1 0x1F DUP3 ADD AND DUP3 ADD DUP1 PUSH1 0x40 MSTORE POP DUP2 ADD SWAP1 PUSH2 0x1236 SWAP2 SWAP1 PUSH2 0x2892 JUMP JUMPDEST SWAP1 POP PUSH0 DUP2 GT PUSH2 0x127A JUMPI PUSH1 0x40 MLOAD PUSH32 0x8C379A000000000000000000000000000000000000000000000000000000000 DUP2 MSTORE PUSH1 0x4 ADD PUSH2 0x1271 SWAP1 PUSH2 0x2790 JUMP JUMPDEST PUSH1 0x40 MLOAD DUP1 SWAP2 SUB SWAP1 REVERT JUMPDEST DUP1 PUSH1 0x2 SLOAD DUP10 PUSH2 0x1289 SWAP2 SWAP1 PUSH2 0x218B JUMP JUMPDEST PUSH2 0x1293 SWAP2 SWAP1 PUSH2 0x24EF JUMP JUMPDEST SWAP3 POP DUP1 PUSH1 0x3 SLOAD DUP10 PUSH2 0x12A4 SWAP2 SWAP1 PUSH2 0x218B JUMP JUMPDEST PUSH2 0x12AE SWAP2 SWAP1 PUSH2 0x24EF JUMP JUMPDEST SWAP2 POP DUP7 DUP4 LT ISZERO PUSH2 0x12F3 JUMPI PUSH1 0x40 MLOAD PUSH32 0x8C379A000000000000000000000000000000000000000000000000000000000 DUP2 MSTORE PUSH1 0x4 ADD PUSH2 0x12EA SWAP1 PUSH2 0x29D7 JUMP JUMPDEST PUSH1 0x40 MLOAD DUP1 SWAP2 SUB SWAP1 REVERT JUMPDEST DUP6 DUP3 LT ISZERO PUSH2 0x1336 JUMPI PUSH1 0x40 MLOAD PUSH32 0x8C379A000000000000000000000000000000000000000000000000000000000 DUP2 MSTORE PUSH1 0x4 ADD PUSH2 0x132D SWAP1 PUSH2 0x2A3F JUMP JUMPDEST PUSH1 0x40 MLOAD DUP1 SWAP2 SUB SWAP1 REVERT JUMPDEST DUP3 PUSH1 0x2 PUSH0 DUP3 DUP3 SLOAD PUSH2 0x1347 SWAP2 SWAP1 PUSH2 0x2587 JUMP JUMPDEST SWAP3 POP POP DUP2 SWAP1 SSTORE POP DUP2 PUSH1 0x3 PUSH0 DUP3 DUP3 SLOAD PUSH2 0x135F SWAP2 SWAP1 PUSH2 0x2587 JUMP JUMPDEST SWAP3 POP POP DUP2 SWAP1 SSTORE POP PUSH1 0x1 PUSH0 SWAP1 SLOAD SWAP1 PUSH2 0x100 EXP SWAP1 DIV PUSH20 0xFFFFFFFFFFFFFFFFFFFFFFFFFFFFFFFFFFFFFFFF AND PUSH20 0xFFFFFFFFFFFFFFFFFFFFFFFFFFFFFFFFFFFFFFFF AND PUSH4 0x9DC29FAC CALLER DUP11 PUSH1 0x40 MLOAD DUP4 PUSH4 0xFFFFFFFF AND PUSH1 0xE0 SHL DUP2 MSTORE PUSH1 0x4 ADD PUSH2 0x13C2 SWAP3 SWAP2 SWAP1 PUSH2 0x25BA JUMP JUMPDEST PUSH0 PUSH1 0x40 MLOAD DUP1 DUP4 SUB DUP2 PUSH0 DUP8 DUP1 EXTCODESIZE ISZERO DUP1 ISZERO PUSH2 0x13D9 JUMPI PUSH0 PUSH0 REVERT JUMPDEST POP GAS CALL ISZERO DUP1 ISZERO PUSH2 0x13EB JUMPI RETURNDATASIZE PUSH0 PUSH0 RETURNDATACOPY RETURNDATASIZE PUSH0 REVERT JUMPDEST POP POP POP POP PUSH32 0x0 PUSH20 0xFFFFFFFFFFFFFFFFFFFFFFFFFFFFFFFFFFFFFFFF AND PUSH4 0xA9059CBB DUP7 DUP6 PUSH1 0x40 MLOAD DUP4 PUSH4 0xFFFFFFFF AND PUSH1 0xE0 SHL DUP2 MSTORE PUSH1 0x4 ADD PUSH2 0x144A SWAP3 SWAP2 SWAP1 PUSH2 0x25BA JUMP JUMPDEST PUSH1 0x20 PUSH1 0x40 MLOAD DUP1 DUP4 SUB DUP2 PUSH0 DUP8 GAS CALL ISZERO DUP1 ISZERO PUSH2 0x1466 JUMPI RETURNDATASIZE PUSH0 PUSH0 RETURNDATACOPY RETURNDATASIZE PUSH0 REVERT JUMPDEST POP POP POP POP PUSH1 0x40 MLOAD RETURNDATASIZE PUSH1 0x1F NOT PUSH1 0x1F DUP3 ADD AND DUP3 ADD DUP1 PUSH1 0x40 MSTORE POP DUP2 ADD SWAP1 PUSH2 0x148A SWAP2 SWAP1 PUSH2 0x23FC JUMP JUMPDEST PUSH2 0x14C9 JUMPI PUSH1 0x40 MLOAD PUSH32 0x8C379A000000000000000000000000000000000000000000000000000000000 DUP2 MSTORE PUSH1 0x4 ADD PUSH2 0x14C0 SWAP1 PUSH2 0x2AA7 JUMP JUMPDEST PUSH1 0x40 MLOAD DUP1 SWAP2 SUB SWAP1 REVERT JUMPDEST PUSH32 0x0 PUSH20 0xFFFFFFFFFFFFFFFFFFFFFFFFFFFFFFFFFFFFFFFF AND PUSH4 0xA9059CBB DUP7 DUP5 PUSH1 0x40 MLOAD DUP4 PUSH4 0xFFFFFFFF AND PUSH1 0xE0 SHL DUP2 MSTORE PUSH1 0x4 ADD PUSH2 0x1524 SWAP3 SWAP2 SWAP1 PUSH2 0x25BA JUMP JUMPDEST PUSH1 0x20 PUSH1 0x40 MLOAD DUP1 DUP4 SUB DUP2 PUSH0 DUP8 GAS CALL ISZERO DUP1 ISZERO PUSH2 0x1540 JUMPI RETURNDATASIZE PUSH0 PUSH0 RETURNDATACOPY RETURNDATASIZE PUSH0 REVERT JUMPDEST POP POP POP POP PUSH1 0x40 MLOAD RETURNDATASIZE PUSH1 0x1F NOT PUSH1 0x1F DUP3 ADD AND DUP3 ADD DUP1 PUSH1 0x40 MSTORE POP DUP2 ADD SWAP1 PUSH2 0x1564 SWAP2 SWAP1 PUSH2 0x23FC JUMP JUMPDEST PUSH2 0x15A3 JUMPI PUSH1 0x40 MLOAD PUSH32 0x8C379A000000000000000000000000000000000000000000000000000000000 DUP2 MSTORE PUSH1 0x4 ADD PUSH2 0x159A SWAP1 PUSH2 0x2B0F JUMP JUMPDEST PUSH1 0x40 MLOAD DUP1 SWAP2 SUB SWAP1 REVERT JUMPDEST DUP5 PUSH20 0xFFFFFFFFFFFFFFFFFFFFFFFFFFFFFFFFFFFFFFFF AND PUSH32 0x1DC8BB69DF2B8E91FBDCBFCF93D951B3F0000F085A95FE3F7946D6161439245D DUP5 DUP5 DUP12 PUSH1 0x40 MLOAD PUSH2 0x15ED SWAP4 SWAP3 SWAP2 SWAP1 PUSH2 0x2129 JUMP JUMPDEST PUSH1 0x40 MLOAD DUP1 SWAP2 SUB SWAP1 LOG2 POP SWAP8 POP SWAP8 SWAP6 POP POP POP POP POP POP JUMP JUMPDEST PUSH1 0x2 SLOAD DUP2 JUMP JUMPDEST PUSH0 PUSH0 PUSH0 PUSH32 0x0 PUSH20 0xFFFFFFFFFFFFFFFFFFFFFFFFFFFFFFFFFFFFFFFF AND DUP12 PUSH20 0xFFFFFFFFFFFFFFFFFFFFFFFFFFFFFFFFFFFFFFFF AND EQ DUP1 ISZERO PUSH2 0x16B1 JUMPI POP PUSH32 0x0 PUSH20 0xFFFFFFFFFFFFFFFFFFFFFFFFFFFFFFFFFFFFFFFF AND DUP11 PUSH20 0xFFFFFFFFFFFFFFFFFFFFFFFFFFFFFFFFFFFFFFFF AND EQ JUMPDEST PUSH2 0x16F0 JUMPI PUSH1 0x40 MLOAD PUSH32 0x8C379A000000000000000000000000000000000000000000000000000000000 DUP2 MSTORE PUSH1 0x4 ADD PUSH2 0x16E7 SWAP1 PUSH2 0x2728 JUMP JUMPDEST PUSH1 0x40 MLOAD DUP1 SWAP2 SUB SWAP1 REVERT JUMPDEST DUP4 TIMESTAMP GT ISZERO PUSH2 0x1733 JUMPI PUSH1 0x40 MLOAD PUSH32 0x8C379A000000000000000000000000000000000000000000000000000000000 DUP2 MSTORE PUSH1 0x4 ADD PUSH2 0x172A SWAP1 PUSH2 0x2226 JUMP JUMPDEST PUSH1 0x40 MLOAD DUP1 SWAP2 SUB SWAP1 REVERT JUMPDEST PUSH0 PUSH20 0xFFFFFFFFFFFFFFFFFFFFFFFFFFFFFFFFFFFFFFFF AND DUP6 PUSH20 0xFFFFFFFFFFFFFFFFFFFFFFFFFFFFFFFFFFFFFFFF AND SUB PUSH2 0x17A1 JUMPI PUSH1 0x40 MLOAD PUSH32 0x8C379A000000000000000000000000000000000000000000000000000000000 DUP2 MSTORE PUSH1 0x4 ADD PUSH2 0x1798 SWAP1 PUSH2 0x2907 JUMP JUMPDEST PUSH1 0x40 MLOAD DUP1 SWAP2 SUB SWAP1 REVERT JUMPDEST PUSH0 PUSH1 0x2 SLOAD EQ DUP1 ISZERO PUSH2 0x17B3 JUMPI POP PUSH0 PUSH1 0x3 SLOAD EQ JUMPDEST ISZERO PUSH2 0x17C3 JUMPI DUP9 SWAP3 POP DUP8 SWAP2 POP PUSH2 0x18A1 JUMP JUMPDEST PUSH0 PUSH1 0x2 SLOAD PUSH1 0x3 SLOAD DUP12 PUSH2 0x17D5 SWAP2 SWAP1 PUSH2 0x218B JUMP JUMPDEST PUSH2 0x17DF SWAP2 SWAP1 PUSH2 0x24EF JUMP JUMPDEST SWAP1 POP DUP9 DUP2 GT PUSH2 0x1836 JUMPI DUP7 DUP2 LT ISZERO PUSH2 0x182B JUMPI PUSH1 0x40 MLOAD PUSH32 0x8C379A000000000000000000000000000000000000000000000000000000000 DUP2 MSTORE PUSH1 0x4 ADD PUSH2 0x1822 SWAP1 PUSH2 0x2A3F JUMP JUMPDEST PUSH1 0x40 MLOAD DUP1 SWAP2 SUB SWAP1 REVERT JUMPDEST DUP10 SWAP4 POP DUP1 SWAP3 POP PUSH2 0x189F JUMP JUMPDEST PUSH0 PUSH1 0x3 SLOAD PUSH1 0x2 SLOAD DUP12 PUSH2 0x1848 SWAP2 SWAP1 PUSH2 0x218B JUMP JUMPDEST PUSH2 0x1852 SWAP2 SWAP1 PUSH2 0x24EF JUMP JUMPDEST SWAP1 POP DUP9 DUP2 LT ISZERO PUSH2 0x1897 JUMPI PUSH1 0x40 MLOAD PUSH32 0x8C379A000000000000000000000000000000000000000000000000000000000 DUP2 MSTORE PUSH1 0x4 ADD PUSH2 0x188E SWAP1 PUSH2 0x29D7 JUMP JUMPDEST PUSH1 0x40 MLOAD DUP1 SWAP2 SUB SWAP1 REVERT JUMPDEST DUP1 SWAP5 POP DUP10 SWAP4 POP POP JUMPDEST POP JUMPDEST PUSH32 0x0 PUSH20 0xFFFFFFFFFFFFFFFFFFFFFFFFFFFFFFFFFFFFFFFF AND PUSH4 0x23B872DD CALLER ADDRESS DUP7 PUSH1 0x40 MLOAD DUP5 PUSH4 0xFFFFFFFF AND PUSH1 0xE0 SHL DUP2 MSTORE PUSH1 0x4 ADD PUSH2 0x18FE SWAP4 SWAP3 SWAP2 SWAP1 PUSH2 0x2392 JUMP JUMPDEST PUSH1 0x20 PUSH1 0x40 MLOAD DUP1 DUP4 SUB DUP2 PUSH0 DUP8 GAS CALL ISZERO DUP1 ISZERO PUSH2 0x191A JUMPI RETURNDATASIZE PUSH0 PUSH0 RETURNDATACOPY RETURNDATASIZE PUSH0 REVERT JUMPDEST POP POP POP POP PUSH1 0x40 MLOAD RETURNDATASIZE PUSH1 0x1F NOT PUSH1 0x1F DUP3 ADD AND DUP3 ADD DUP1 PUSH1 0x40 MSTORE POP DUP2 ADD SWAP1 PUSH2 0x193E SWAP2 SWAP1 PUSH2 0x23FC JUMP JUMPDEST PUSH2 0x197D JUMPI PUSH1 0x40 MLOAD PUSH32 0x8C379A000000000000000000000000000000000000000000000000000000000 DUP2 MSTORE PUSH1 0x4 ADD PUSH2 0x1974 SWAP1 PUSH2 0x2AA7 JUMP JUMPDEST PUSH1 0x40 MLOAD DUP1 SWAP2 SUB SWAP1 REVERT JUMPDEST PUSH32 0x0 PUSH20 0xFFFFFFFFFFFFFFFFFFFFFFFFFFFFFFFFFFFFFFFF AND PUSH4 0x23B872DD CALLER ADDRESS DUP6 PUSH1 0x40 MLOAD DUP5 PUSH4 0xFFFFFFFF AND PUSH1 0xE0 SHL DUP2 MSTORE PUSH1 0x4 ADD PUSH2 0x19DA SWAP4 SWAP3 SWAP2 SWAP1 PUSH2 0x2392 JUMP JUMPDEST PUSH1 0x20 PUSH1 0x40 MLOAD DUP1 DUP4 SUB DUP2 PUSH0 DUP8 GAS CALL ISZERO DUP1 ISZERO PUSH2 0x19F6 JUMPI RETURNDATASIZE PUSH0 PUSH0 RETURNDATACOPY RETURNDATASIZE PUSH0 REVERT JUMPDEST POP POP POP POP PUSH1 0x40 MLOAD RETURNDATASIZE PUSH1 0x1F NOT PUSH1 0x1F DUP3 ADD AND DUP3 ADD DUP1 PUSH1 0x40 MSTORE POP DUP2 ADD SWAP1 PUSH2 0x1A1A SWAP2 SWAP1 PUSH2 0x23FC JUMP JUMPDEST PUSH2 0x1A59 JUMPI PUSH1 0x40 MLOAD PUSH32 0x8C379A000000000000000000000000000000000000000000000000000000000 DUP2 MSTORE PUSH1 0x4 ADD PUSH2 0x1A50 SWAP1 PUSH2 0x2B0F JUMP JUMPDEST PUSH1 0x40 MLOAD DUP1 SWAP2 SUB SWAP1 REVERT JUMPDEST DUP3 PUSH1 0x2 PUSH0 DUP3 DUP3 SLOAD PUSH2 0x1A6A SWAP2 SWAP1 PUSH2 0x248F JUMP JUMPDEST SWAP3 POP POP DUP2 SWAP1 SSTORE POP DUP2 PUSH1 0x3 PUSH0 DUP3 DUP3 SLOAD PUSH2 0x1A82 SWAP2 SWAP1 PUSH2 0x248F JUMP JUMPDEST SWAP3 POP POP DUP2 SWAP1 SSTORE POP PUSH2 0x1A9D DUP3 DUP5 PUSH2 0x1A98 SWAP2 SWAP1 PUSH2 0x218B JUMP JUMPDEST PUSH2 0x1B88 JUMP JUMPDEST SWAP1 POP PUSH1 0x1 PUSH0 SWAP1 SLOAD SWAP1 PUSH2 0x100 EXP SWAP1 DIV PUSH20 0xFFFFFFFFFFFFFFFFFFFFFFFFFFFFFFFFFFFFFFFF AND PUSH20 0xFFFFFFFFFFFFFFFFFFFFFFFFFFFFFFFFFFFFFFFF AND PUSH4 0x40C10F19 DUP7 DUP4 PUSH1 0x40 MLOAD DUP4 PUSH4 0xFFFFFFFF AND PUSH1 0xE0 SHL DUP2 MSTORE PUSH1 0x4 ADD PUSH2 0x1AFB SWAP3 SWAP2 SWAP1 PUSH2 0x25BA JUMP JUMPDEST PUSH0 PUSH1 0x40 MLOAD DUP1 DUP4 SUB DUP2 PUSH0 DUP8 DUP1 EXTCODESIZE ISZERO DUP1 ISZERO PUSH2 0x1B12 JUMPI PUSH0 PUSH0 REVERT JUMPDEST POP GAS CALL ISZERO DUP1 ISZERO PUSH2 0x1B24 JUMPI RETURNDATASIZE PUSH0 PUSH0 RETURNDATACOPY RETURNDATASIZE PUSH0 REVERT JUMPDEST POP POP POP POP DUP5 PUSH20 0xFFFFFFFFFFFFFFFFFFFFFFFFFFFFFFFFFFFFFFFF AND PUSH32 0x64B83944E79C3CE8D4C297411DE637C3E102D064677AAC0C163976EBDCD6F50E DUP5 DUP5 DUP5 PUSH1 0x40 MLOAD PUSH2 0x1B72 SWAP4 SWAP3 SWAP2 SWAP1 PUSH2 0x2129 JUMP JUMPDEST PUSH1 0x40 MLOAD DUP1 SWAP2 SUB SWAP1 LOG2 SWAP9 POP SWAP9 POP SWAP9 SWAP6 POP POP POP POP POP POP JUMP JUMPDEST PUSH0 PUSH1 0x3 DUP3 GT ISZERO PUSH2 0x1BED JUMPI DUP2 SWAP1 POP PUSH0 PUSH1 0x1 PUSH1 0x2 DUP5 PUSH2 0x1BA5 SWAP2 SWAP1 PUSH2 0x24EF JUMP JUMPDEST PUSH2 0x1BAF SWAP2 SWAP1 PUSH2 0x248F JUMP JUMPDEST SWAP1 POP JUMPDEST DUP2 DUP2 LT ISZERO PUSH2 0x1BE7 JUMPI DUP1 SWAP2 POP PUSH1 0x2 DUP2 DUP3 DUP6 PUSH2 0x1BCC SWAP2 SWAP1 PUSH2 0x24EF JUMP JUMPDEST PUSH2 0x1BD6 SWAP2 SWAP1 PUSH2 0x248F JUMP JUMPDEST PUSH2 0x1BE0 SWAP2 SWAP1 PUSH2 0x24EF JUMP JUMPDEST SWAP1 POP PUSH2 0x1BB2 JUMP JUMPDEST POP PUSH2 0x1BFA JUMP JUMPDEST PUSH0 DUP3 EQ PUSH2 0x1BF9 JUMPI PUSH1 0x1 SWAP1 POP JUMPDEST JUMPDEST SWAP2 SWAP1 POP JUMP JUMPDEST PUSH0 PUSH20 0xFFFFFFFFFFFFFFFFFFFFFFFFFFFFFFFFFFFFFFFF DUP3 AND SWAP1 POP SWAP2 SWAP1 POP JUMP JUMPDEST PUSH0 PUSH2 0x1C28 DUP3 PUSH2 0x1BFF JUMP JUMPDEST SWAP1 POP SWAP2 SWAP1 POP JUMP JUMPDEST PUSH2 0x1C38 DUP2 PUSH2 0x1C1E JUMP JUMPDEST DUP3 MSTORE POP POP JUMP JUMPDEST PUSH0 PUSH1 0x20 DUP3 ADD SWAP1 POP PUSH2 0x1C51 PUSH0 DUP4 ADD DUP5 PUSH2 0x1C2F JUMP JUMPDEST SWAP3 SWAP2 POP POP JUMP JUMPDEST PUSH0 DUP2 SWAP1 POP SWAP2 SWAP1 POP JUMP JUMPDEST PUSH2 0x1C69 DUP2 PUSH2 0x1C57 JUMP JUMPDEST DUP3 MSTORE POP POP JUMP JUMPDEST PUSH0 PUSH1 0x20 DUP3 ADD SWAP1 POP PUSH2 0x1C82 PUSH0 DUP4 ADD DUP5 PUSH2 0x1C60 JUMP JUMPDEST SWAP3 SWAP2 POP POP JUMP JUMPDEST PUSH0 PUSH0 REVERT JUMPDEST PUSH0 PUSH0 REVERT JUMPDEST PUSH2 0x1C99 DUP2 PUSH2 0x1C57 JUMP JUMPDEST DUP2 EQ PUSH2 0x1CA3 JUMPI PUSH0 PUSH0 REVERT JUMPDEST POP JUMP JUMPDEST PUSH0 DUP2 CALLDATALOAD SWAP1 POP PUSH2 0x1CB4 DUP2 PUSH2 0x1C90 JUMP JUMPDEST SWAP3 SWAP2 POP POP JUMP JUMPDEST PUSH0 PUSH0 REVERT JUMPDEST PUSH0 PUSH0 REVERT JUMPDEST PUSH0 PUSH0 REVERT JUMPDEST PUSH0 PUSH0 DUP4 PUSH1 0x1F DUP5 ADD SLT PUSH2 0x1CDB JUMPI PUSH2 0x1CDA PUSH2 0x1CBA JUMP JUMPDEST JUMPDEST DUP3 CALLDATALOAD SWAP1 POP PUSH8 0xFFFFFFFFFFFFFFFF DUP2 GT ISZERO PUSH2 0x1CF8 JUMPI PUSH2 0x1CF7 PUSH2 0x1CBE JUMP JUMPDEST JUMPDEST PUSH1 0x20 DUP4 ADD SWAP2 POP DUP4 PUSH1 0x20 DUP3 MUL DUP4 ADD GT ISZERO PUSH2 0x1D14 JUMPI PUSH2 0x1D13 PUSH2 0x1CC2 JUMP JUMPDEST JUMPDEST SWAP3 POP SWAP3 SWAP1 POP JUMP JUMPDEST PUSH2 0x1D24 DUP2 PUSH2 0x1C1E JUMP JUMPDEST DUP2 EQ PUSH2 0x1D2E JUMPI PUSH0 PUSH0 REVERT JUMPDEST POP JUMP JUMPDEST PUSH0 DUP2 CALLDATALOAD SWAP1 POP PUSH2 0x1D3F DUP2 PUSH2 0x1D1B JUMP JUMPDEST SWAP3 SWAP2 POP POP JUMP JUMPDEST PUSH0 PUSH0 PUSH0 PUSH0 PUSH0 PUSH0 PUSH1 0xA0 DUP8 DUP10 SUB SLT ISZERO PUSH2 0x1D5F JUMPI PUSH2 0x1D5E PUSH2 0x1C88 JUMP JUMPDEST JUMPDEST PUSH0 PUSH2 0x1D6C DUP10 DUP3 DUP11 ADD PUSH2 0x1CA6 JUMP JUMPDEST SWAP7 POP POP PUSH1 0x20 PUSH2 0x1D7D DUP10 DUP3 DUP11 ADD PUSH2 0x1CA6 JUMP JUMPDEST SWAP6 POP POP PUSH1 0x40 DUP8 ADD CALLDATALOAD PUSH8 0xFFFFFFFFFFFFFFFF DUP2 GT ISZERO PUSH2 0x1D9E JUMPI PUSH2 0x1D9D PUSH2 0x1C8C JUMP JUMPDEST JUMPDEST PUSH2 0x1DAA DUP10 DUP3 DUP11 ADD PUSH2 0x1CC6 JUMP JUMPDEST SWAP5 POP SWAP5 POP POP PUSH1 0x60 PUSH2 0x1DBD DUP10 DUP3 DUP11 ADD PUSH2 0x1D31 JUMP JUMPDEST SWAP3 POP POP PUSH1 0x80 PUSH2 0x1DCE DUP10 DUP3 DUP11 ADD PUSH2 0x1CA6 JUMP JUMPDEST SWAP2 POP POP SWAP3 SWAP6 POP SWAP3 SWAP6 POP SWAP3 SWAP6 JUMP JUMPDEST PUSH0 DUP2 MLOAD SWAP1 POP SWAP2 SWAP1 POP JUMP JUMPDEST PUSH0 DUP3 DUP3 MSTORE PUSH1 0x20 DUP3 ADD SWAP1 POP SWAP3 SWAP2 POP POP JUMP JUMPDEST PUSH0 DUP2 SWAP1 POP PUSH1 0x20 DUP3 ADD SWAP1 POP SWAP2 SWAP1 POP JUMP JUMPDEST PUSH2 0x1E0D DUP2 PUSH2 0x1C57 JUMP JUMPDEST DUP3 MSTORE POP POP JUMP JUMPDEST PUSH0 PUSH2 0x1E1E DUP4 DUP4 PUSH2 0x1E04 JUMP JUMPDEST PUSH1 0x20 DUP4 ADD SWAP1 POP SWAP3 SWAP2 POP POP JUMP JUMPDEST PUSH0 PUSH1 0x20 DUP3 ADD SWAP1 POP SWAP2 SWAP1 POP JUMP JUMPDEST PUSH0 PUSH2 0x1E40 DUP3 PUSH2 0x1DDB JUMP JUMPDEST PUSH2 0x1E4A DUP2 DUP6 PUSH2 0x1DE5 JUMP JUMPDEST SWAP4 POP PUSH2 0x1E55 DUP4 PUSH2 0x1DF5 JUMP JUMPDEST DUP1 PUSH0 JUMPDEST DUP4 DUP2 LT ISZERO PUSH2 0x1E85 JUMPI DUP2 MLOAD PUSH2 0x1E6C DUP9 DUP3 PUSH2 0x1E13 JUMP JUMPDEST SWAP8 POP PUSH2 0x1E77 DUP4 PUSH2 0x1E2A JUMP JUMPDEST SWAP3 POP POP PUSH1 0x1 DUP2 ADD SWAP1 POP PUSH2 0x1E58 JUMP JUMPDEST POP DUP6 SWAP4 POP POP POP POP SWAP3 SWAP2 POP POP JUMP JUMPDEST PUSH0 PUSH1 0x20 DUP3 ADD SWAP1 POP DUP2 DUP2 SUB PUSH0 DUP4 ADD MSTORE PUSH2 0x1EAA DUP2 DUP5 PUSH2 0x1E36 JUMP JUMPDEST SWAP1 POP SWAP3 SWAP2 POP POP JUMP JUMPDEST PUSH0 PUSH0 PUSH0 PUSH1 0x60 DUP5 DUP7 SUB SLT ISZERO PUSH2 0x1EC9 JUMPI PUSH2 0x1EC8 PUSH2 0x1C88 JUMP JUMPDEST JUMPDEST PUSH0 PUSH2 0x1ED6 DUP7 DUP3 DUP8 ADD PUSH2 0x1D31 JUMP JUMPDEST SWAP4 POP POP PUSH1 0x20 PUSH2 0x1EE7 DUP7 DUP3 DUP8 ADD PUSH2 0x1D31 JUMP JUMPDEST SWAP3 POP POP PUSH1 0x40 PUSH2 0x1EF8 DUP7 DUP3 DUP8 ADD PUSH2 0x1CA6 JUMP JUMPDEST SWAP2 POP POP SWAP3 POP SWAP3 POP SWAP3 JUMP JUMPDEST PUSH0 DUP2 SWAP1 POP SWAP2 SWAP1 POP JUMP JUMPDEST PUSH0 PUSH2 0x1F25 PUSH2 0x1F20 PUSH2 0x1F1B DUP5 PUSH2 0x1BFF JUMP JUMPDEST PUSH2 0x1F02 JUMP JUMPDEST PUSH2 0x1BFF JUMP JUMPDEST SWAP1 POP SWAP2 SWAP1 POP JUMP JUMPDEST PUSH0 PUSH2 0x1F36 DUP3 PUSH2 0x1F0B JUMP JUMPDEST SWAP1 POP SWAP2 SWAP1 POP JUMP JUMPDEST PUSH0 PUSH2 0x1F47 DUP3 PUSH2 0x1F2C JUMP JUMPDEST SWAP1 POP SWAP2 SWAP1 POP JUMP JUMPDEST PUSH2 0x1F57 DUP2 PUSH2 0x1F3D JUMP JUMPDEST DUP3 MSTORE POP POP JUMP JUMPDEST PUSH0 PUSH1 0x20 DUP3 ADD SWAP1 POP PUSH2 0x1F70 PUSH0 DUP4 ADD DUP5 PUSH2 0x1F4E JUMP JUMPDEST SWAP3 SWAP2 POP POP JUMP JUMPDEST PUSH0 PUSH0 PUSH1 0x40 DUP4 DUP6 SUB SLT ISZERO PUSH2 0x1F8C JUMPI PUSH2 0x1F8B PUSH2 0x1C88 JUMP JUMPDEST JUMPDEST PUSH0 PUSH2 0x1F99 DUP6 DUP3 DUP7 ADD PUSH2 0x1D31 JUMP JUMPDEST SWAP3 POP POP PUSH1 0x20 PUSH2 0x1FAA DUP6 DUP3 DUP7 ADD PUSH2 0x1D31 JUMP JUMPDEST SWAP2 POP POP SWAP3 POP SWAP3 SWAP1 POP JUMP JUMPDEST PUSH0 PUSH0 PUSH0 PUSH0 PUSH0 PUSH0 PUSH0 PUSH1 0xE0 DUP9 DUP11 SUB SLT ISZERO PUSH2 0x1FCF JUMPI PUSH2 0x1FCE PUSH2 0x1C88 JUMP JUMPDEST JUMPDEST PUSH0 PUSH2 0x1FDC DUP11 DUP3 DUP12 ADD PUSH2 0x1D31 JUMP JUMPDEST SWAP8 POP POP PUSH1 0x20 PUSH2 0x1FED DUP11 DUP3 DUP12 ADD PUSH2 0x1D31 JUMP JUMPDEST SWAP7 POP POP PUSH1 0x40 PUSH2 0x1FFE DUP11 DUP3 DUP12 ADD PUSH2 0x1CA6 JUMP JUMPDEST SWAP6 POP POP PUSH1 0x60 PUSH2 0x200F DUP11 DUP3 DUP12 ADD PUSH2 0x1CA6 JUMP JUMPDEST SWAP5 POP POP PUSH1 0x80 PUSH2 0x2020 DUP11 DUP3 DUP12 ADD PUSH2 0x1CA6 JUMP JUMPDEST SWAP4 POP POP PUSH1 0xA0 PUSH2 0x2031 DUP11 DUP3 DUP12 ADD PUSH2 0x1D31 JUMP JUMPDEST SWAP3 POP POP PUSH1 0xC0 PUSH2 0x2042 DUP11 DUP3 DUP12 ADD PUSH2 0x1CA6 JUMP JUMPDEST SWAP2 POP POP SWAP3 SWAP6 SWAP9 SWAP2 SWAP5 SWAP8 POP SWAP3 SWAP6 POP JUMP JUMPDEST PUSH0 PUSH1 0x40 DUP3 ADD SWAP1 POP PUSH2 0x2064 PUSH0 DUP4 ADD DUP6 PUSH2 0x1C60 JUMP JUMPDEST PUSH2 0x2071 PUSH1 0x20 DUP4 ADD DUP5 PUSH2 0x1C60 JUMP JUMPDEST SWAP4 SWAP3 POP POP POP JUMP JUMPDEST PUSH0 PUSH0 PUSH0 PUSH0 PUSH0 PUSH0 PUSH0 PUSH0 PUSH2 0x100 DUP10 DUP12 SUB SLT ISZERO PUSH2 0x2095 JUMPI PUSH2 0x2094 PUSH2 0x1C88 JUMP JUMPDEST JUMPDEST PUSH0 PUSH2 0x20A2 DUP12 DUP3 DUP13 ADD PUSH2 0x1D31 JUMP JUMPDEST SWAP9 POP POP PUSH1 0x20 PUSH2 0x20B3 DUP12 DUP3 DUP13 ADD PUSH2 0x1D31 JUMP JUMPDEST SWAP8 POP POP PUSH1 0x40 PUSH2 0x20C4 DUP12 DUP3 DUP13 ADD PUSH2 0x1CA6 JUMP JUMPDEST SWAP7 POP POP PUSH1 0x60 PUSH2 0x20D5 DUP12 DUP3 DUP13 ADD PUSH2 0x1CA6 JUMP JUMPDEST SWAP6 POP POP PUSH1 0x80 PUSH2 0x20E6 DUP12 DUP3 DUP13 ADD PUSH2 0x1CA6 JUMP JUMPDEST SWAP5 POP POP PUSH1 0xA0 PUSH2 0x20F7 DUP12 DUP3 DUP13 ADD PUSH2 0x1CA6 JUMP JUMPDEST SWAP4 POP POP PUSH1 0xC0 PUSH2 0x2108 DUP12 DUP3 DUP13 ADD PUSH2 0x1D31 JUMP JUMPDEST SWAP3 POP POP PUSH1 0xE0 PUSH2 0x2119 DUP12 DUP3 DUP13 ADD PUSH2 0x1CA6 JUMP JUMPDEST SWAP2 POP POP SWAP3 SWAP6 SWAP9 POP SWAP3 SWAP6 SWAP9 SWAP1 SWAP4 SWAP7 POP JUMP JUMPDEST PUSH0 PUSH1 0x60 DUP3 ADD SWAP1 POP PUSH2 0x213C PUSH0 DUP4 ADD DUP7 PUSH2 0x1C60 JUMP JUMPDEST PUSH2 0x2149 PUSH1 0x20 DUP4 ADD DUP6 PUSH2 0x1C60 JUMP JUMPDEST PUSH2 0x2156 PUSH1 0x40 DUP4 ADD DUP5 PUSH2 0x1C60 JUMP JUMPDEST SWAP5 SWAP4 POP POP POP POP JUMP JUMPDEST PUSH32 0x4E487B7100000000000000000000000000000000000000000000000000000000 PUSH0 MSTORE PUSH1 0x11 PUSH1 0x4 MSTORE PUSH1 0x24 PUSH0 REVERT JUMPDEST PUSH0 PUSH2 0x2195 DUP3 PUSH2 0x1C57 JUMP JUMPDEST SWAP2 POP PUSH2 0x21A0 DUP4 PUSH2 0x1C57 JUMP JUMPDEST SWAP3 POP DUP3 DUP3 MUL PUSH2 0x21AE DUP2 PUSH2 0x1C57 JUMP JUMPDEST SWAP2 POP DUP3 DUP3 DIV DUP5 EQ DUP4 ISZERO OR PUSH2 0x21C5 JUMPI PUSH2 0x21C4 PUSH2 0x215E JUMP JUMPDEST JUMPDEST POP SWAP3 SWAP2 POP POP JUMP JUMPDEST PUSH0 DUP3 DUP3 MSTORE PUSH1 0x20 DUP3 ADD SWAP1 POP SWAP3 SWAP2 POP POP JUMP JUMPDEST PUSH32 0x5472616E73616374696F6E206578706972656400000000000000000000000000 PUSH0 DUP3 ADD MSTORE POP JUMP JUMPDEST PUSH0 PUSH2 0x2210 PUSH1 0x13 DUP4 PUSH2 0x21CC JUMP JUMPDEST SWAP2 POP PUSH2 0x221B DUP3 PUSH2 0x21DC JUMP JUMPDEST PUSH1 0x20 DUP3 ADD SWAP1 POP SWAP2 SWAP1 POP JUMP JUMPDEST PUSH0 PUSH1 0x20 DUP3 ADD SWAP1 POP DUP2 DUP2 SUB PUSH0 DUP4 ADD MSTORE PUSH2 0x223D DUP2 PUSH2 0x2204 JUMP JUMPDEST SWAP1 POP SWAP2 SWAP1 POP JUMP JUMPDEST PUSH32 0x4F6E6C792064697265637420746F6B656E20737761707320737570706F727465 PUSH0 DUP3 ADD MSTORE PUSH32 0x6400000000000000000000000000000000000000000000000000000000000000 PUSH1 0x20 DUP3 ADD MSTORE POP JUMP JUMPDEST PUSH0 PUSH2 0x229E PUSH1 0x21 DUP4 PUSH2 0x21CC JUMP JUMPDEST SWAP2 POP PUSH2 0x22A9 DUP3 PUSH2 0x2244 JUMP JUMPDEST PUSH1 0x40 DUP3 ADD SWAP1 POP SWAP2 SWAP1 POP JUMP JUMPDEST PUSH0 PUSH1 0x20 DUP3 ADD SWAP1 POP DUP2 DUP2 SUB PUSH0 DUP4 ADD MSTORE PUSH2 0x22CB DUP2 PUSH2 0x2292 JUMP JUMPDEST SWAP1 POP SWAP2 SWAP1 POP JUMP JUMPDEST PUSH32 0x4E487B7100000000000000000000000000000000000000000000000000000000 PUSH0 MSTORE PUSH1 0x32 PUSH1 0x4 MSTORE PUSH1 0x24 PUSH0 REVERT JUMPDEST PUSH0 PUSH1 0x20 DUP3 DUP5 SUB SLT ISZERO PUSH2 0x2314 JUMPI PUSH2 0x2313 PUSH2 0x1C88 JUMP JUMPDEST JUMPDEST PUSH0 PUSH2 0x2321 DUP5 DUP3 DUP6 ADD PUSH2 0x1D31 JUMP JUMPDEST SWAP2 POP POP SWAP3 SWAP2 POP POP JUMP JUMPDEST PUSH32 0x496E76616C696420746F6B656E20706174680000000000000000000000000000 PUSH0 DUP3 ADD MSTORE POP JUMP JUMPDEST PUSH0 PUSH2 0x235E PUSH1 0x12 DUP4 PUSH2 0x21CC JUMP JUMPDEST SWAP2 POP PUSH2 0x2369 DUP3 PUSH2 0x232A JUMP JUMPDEST PUSH1 0x20 DUP3 ADD SWAP1 POP SWAP2 SWAP1 POP JUMP JUMPDEST PUSH0 PUSH1 0x20 DUP3 ADD SWAP1 POP DUP2 DUP2 SUB PUSH0 DUP4 ADD MSTORE PUSH2 0x238B DUP2 PUSH2 0x2352 JUMP JUMPDEST SWAP1 POP SWAP2 SWAP1 POP JUMP JUMPDEST PUSH0 PUSH1 0x60 DUP3 ADD SWAP1 POP PUSH2 0x23A5 PUSH0 DUP4 ADD DUP7 PUSH2 0x1C2F JUMP JUMPDEST PUSH2 0x23B2 PUSH1 0x20 DUP4 ADD DUP6 PUSH2 0x1C2F JUMP JUMPDEST PUSH2 0x23BF PUSH1 0x40 DUP4 ADD DUP5 PUSH2 0x1C60 JUMP JUMPDEST SWAP5 SWAP4 POP POP POP POP JUMP JUMPDEST PUSH0 DUP2 ISZERO ISZERO SWAP1 POP SWAP2 SWAP1 POP JUMP JUMPDEST PUSH2 0x23DB DUP2 PUSH2 0x23C7 JUMP JUMPDEST DUP2 EQ PUSH2 0x23E5 JUMPI PUSH0 PUSH0 REVERT JUMPDEST POP JUMP JUMPDEST PUSH0 DUP2 MLOAD SWAP1 POP PUSH2 0x23F6 DUP2 PUSH2 0x23D2 JUMP JUMPDEST SWAP3 SWAP2 POP POP JUMP JUMPDEST PUSH0 PUSH1 0x20 DUP3 DUP5 SUB SLT ISZERO PUSH2 0x2411 JUMPI PUSH2 0x2410 PUSH2 0x1C88 JUMP JUMPDEST JUMPDEST PUSH0 PUSH2 0x241E DUP5 DUP3 DUP6 ADD PUSH2 0x23E8 JUMP JUMPDEST SWAP2 POP POP SWAP3 SWAP2 POP POP JUMP JUMPDEST PUSH32 0x5472616E7366657246726F6D206661696C656400000000000000000000000000 PUSH0 DUP3 ADD MSTORE POP JUMP JUMPDEST PUSH0 PUSH2 0x245B PUSH1 0x13 DUP4 PUSH2 0x21CC JUMP JUMPDEST SWAP2 POP PUSH2 0x2466 DUP3 PUSH2 0x2427 JUMP JUMPDEST PUSH1 0x20 DUP3 ADD SWAP1 POP SWAP2 SWAP1 POP JUMP JUMPDEST PUSH0 PUSH1 0x20 DUP3 ADD SWAP1 POP DUP2 DUP2 SUB PUSH0 DUP4 ADD MSTORE PUSH2 0x2488 DUP2 PUSH2 0x244F JUMP JUMPDEST SWAP1 POP SWAP2 SWAP1 POP JUMP JUMPDEST PUSH0 PUSH2 0x2499 DUP3 PUSH2 0x1C57 JUMP JUMPDEST SWAP2 POP PUSH2 0x24A4 DUP4 PUSH2 0x1C57 JUMP JUMPDEST SWAP3 POP DUP3 DUP3 ADD SWAP1 POP DUP1 DUP3 GT ISZERO PUSH2 0x24BC JUMPI PUSH2 0x24BB PUSH2 0x215E JUMP JUMPDEST JUMPDEST SWAP3 SWAP2 POP POP JUMP JUMPDEST PUSH32 0x4E487B7100000000000000000000000000000000000000000000000000000000 PUSH0 MSTORE PUSH1 0x12 PUSH1 0x4 MSTORE PUSH1 0x24 PUSH0 REVERT JUMPDEST PUSH0 PUSH2 0x24F9 DUP3 PUSH2 0x1C57 JUMP JUMPDEST SWAP2 POP PUSH2 0x2504 DUP4 PUSH2 0x1C57 JUMP JUMPDEST SWAP3 POP DUP3 PUSH2 0x2514 JUMPI PUSH2 0x2513 PUSH2 0x24C2 JUMP JUMPDEST JUMPDEST DUP3 DUP3 DIV SWAP1 POP SWAP3 SWAP2 POP POP JUMP JUMPDEST PUSH32 0x496E73756666696369656E74206F757470757400000000000000000000000000 PUSH0 DUP3 ADD MSTORE POP JUMP JUMPDEST PUSH0 PUSH2 0x2553 PUSH1 0x13 DUP4 PUSH2 0x21CC JUMP JUMPDEST SWAP2 POP PUSH2 0x255E DUP3 PUSH2 0x251F JUMP JUMPDEST PUSH1 0x20 DUP3 ADD SWAP1 POP SWAP2 SWAP1 POP JUMP JUMPDEST PUSH0 PUSH1 0x20 DUP3 ADD SWAP1 POP DUP2 DUP2 SUB PUSH0 DUP4 ADD MSTORE PUSH2 0x2580 DUP2 PUSH2 0x2547 JUMP JUMPDEST SWAP1 POP SWAP2 SWAP1 POP JUMP JUMPDEST PUSH0 PUSH2 0x2591 DUP3 PUSH2 0x1C57 JUMP JUMPDEST SWAP2 POP PUSH2 0x259C DUP4 PUSH2 0x1C57 JUMP JUMPDEST SWAP3 POP DUP3 DUP3 SUB SWAP1 POP DUP2 DUP2 GT ISZERO PUSH2 0x25B4 JUMPI PUSH2 0x25B3 PUSH2 0x215E JUMP JUMPDEST JUMPDEST SWAP3 SWAP2 POP POP JUMP JUMPDEST PUSH0 PUSH1 0x40 DUP3 ADD SWAP1 POP PUSH2 0x25CD PUSH0 DUP4 ADD DUP6 PUSH2 0x1C2F JUMP JUMPDEST PUSH2 0x25DA PUSH1 0x20 DUP4 ADD DUP5 PUSH2 0x1C60 JUMP JUMPDEST SWAP4 SWAP3 POP POP POP JUMP JUMPDEST PUSH32 0x5472616E73666572206F7574707574206661696C656400000000000000000000 PUSH0 DUP3 ADD MSTORE POP JUMP JUMPDEST PUSH0 PUSH2 0x2615 PUSH1 0x16 DUP4 PUSH2 0x21CC JUMP JUMPDEST SWAP2 POP PUSH2 0x2620 DUP3 PUSH2 0x25E1 JUMP JUMPDEST PUSH1 0x20 DUP3 ADD SWAP1 POP SWAP2 SWAP1 POP JUMP JUMPDEST PUSH0 PUSH1 0x20 DUP3 ADD SWAP1 POP DUP2 DUP2 SUB PUSH0 DUP4 ADD MSTORE PUSH2 0x2642 DUP2 PUSH2 0x2609 JUMP JUMPDEST SWAP1 POP SWAP2 SWAP1 POP JUMP JUMPDEST PUSH32 0x4E487B7100000000000000000000000000000000000000000000000000000000 PUSH0 MSTORE PUSH1 0x41 PUSH1 0x4 MSTORE PUSH1 0x24 PUSH0 REVERT JUMPDEST PUSH32 0x496E76616C696420696E70757400000000000000000000000000000000000000 PUSH0 DUP3 ADD MSTORE POP JUMP JUMPDEST PUSH0 PUSH2 0x26AA PUSH1 0xD DUP4 PUSH2 0x21CC JUMP JUMPDEST SWAP2 POP PUSH2 0x26B5 DUP3 PUSH2 0x2676 JUMP JUMPDEST PUSH1 0x20 DUP3 ADD SWAP1 POP SWAP2 SWAP1 POP JUMP JUMPDEST PUSH0 PUSH1 0x20 DUP3 ADD SWAP1 POP DUP2 DUP2 SUB PUSH0 DUP4 ADD MSTORE PUSH2 0x26D7 DUP2 PUSH2 0x269E JUMP JUMPDEST SWAP1 POP SWAP2 SWAP1 POP JUMP JUMPDEST PUSH32 0x496E76616C696420746F6B656E73000000000000000000000000000000000000 PUSH0 DUP3 ADD MSTORE POP JUMP JUMPDEST PUSH0 PUSH2 0x2712 PUSH1 0xE DUP4 PUSH2 0x21CC JUMP JUMPDEST SWAP2 POP PUSH2 0x271D DUP3 PUSH2 0x26DE JUMP JUMPDEST PUSH1 0x20 DUP3 ADD SWAP1 POP SWAP2 SWAP1 POP JUMP JUMPDEST PUSH0 PUSH1 0x20 DUP3 ADD SWAP1 POP DUP2 DUP2 SUB PUSH0 DUP4 ADD MSTORE PUSH2 0x273F DUP2 PUSH2 0x2706 JUMP JUMPDEST SWAP1 POP SWAP2 SWAP1 POP JUMP JUMPDEST PUSH32 0x4E6F206C69717569646974790000000000000000000000000000000000000000 PUSH0 DUP3 ADD MSTORE POP JUMP JUMPDEST PUSH0 PUSH2 0x277A PUSH1 0xC DUP4 PUSH2 0x21CC JUMP JUMPDEST SWAP2 POP PUSH2 0x2785 DUP3 PUSH2 0x2746 JUMP JUMPDEST PUSH1 0x20 DUP3 ADD SWAP1 POP SWAP2 SWAP1 POP JUMP JUMPDEST PUSH0 PUSH1 0x20 DUP3 ADD SWAP1 POP DUP2 DUP2 SUB PUSH0 DUP4 ADD MSTORE PUSH2 0x27A7 DUP2 PUSH2 0x276E JUMP JUMPDEST SWAP1 POP SWAP2 SWAP1 POP JUMP JUMPDEST PUSH32 0x546F6B656E73206D757374206469666665720000000000000000000000000000 PUSH0 DUP3 ADD MSTORE POP JUMP JUMPDEST PUSH0 PUSH2 0x27E2 PUSH1 0x12 DUP4 PUSH2 0x21CC JUMP JUMPDEST SWAP2 POP PUSH2 0x27ED DUP3 PUSH2 0x27AE JUMP JUMPDEST PUSH1 0x20 DUP3 ADD SWAP1 POP SWAP2 SWAP1 POP JUMP JUMPDEST PUSH0 PUSH1 0x20 DUP3 ADD SWAP1 POP DUP2 DUP2 SUB PUSH0 DUP4 ADD MSTORE PUSH2 0x280F DUP2 PUSH2 0x27D6 JUMP JUMPDEST SWAP1 POP SWAP2 SWAP1 POP JUMP JUMPDEST PUSH32 0x496E76616C696420616464726573730000000000000000000000000000000000 PUSH0 DUP3 ADD MSTORE POP JUMP JUMPDEST PUSH0 PUSH2 0x284A PUSH1 0xF DUP4 PUSH2 0x21CC JUMP JUMPDEST SWAP2 POP PUSH2 0x2855 DUP3 PUSH2 0x2816 JUMP JUMPDEST PUSH1 0x20 DUP3 ADD SWAP1 POP SWAP2 SWAP1 POP JUMP JUMPDEST PUSH0 PUSH1 0x20 DUP3 ADD SWAP1 POP DUP2 DUP2 SUB PUSH0 DUP4 ADD MSTORE PUSH2 0x2877 DUP2 PUSH2 0x283E JUMP JUMPDEST SWAP1 POP SWAP2 SWAP1 POP JUMP JUMPDEST PUSH0 DUP2 MLOAD SWAP1 POP PUSH2 0x288C DUP2 PUSH2 0x1C90 JUMP JUMPDEST SWAP3 SWAP2 POP POP JUMP JUMPDEST PUSH0 PUSH1 0x20 DUP3 DUP5 SUB SLT ISZERO PUSH2 0x28A7 JUMPI PUSH2 0x28A6 PUSH2 0x1C88 JUMP JUMPDEST JUMPDEST PUSH0 PUSH2 0x28B4 DUP5 DUP3 DUP6 ADD PUSH2 0x287E JUMP JUMPDEST SWAP2 POP POP SWAP3 SWAP2 POP POP JUMP JUMPDEST PUSH32 0x496E76616C696420726563697069656E74000000000000000000000000000000 PUSH0 DUP3 ADD MSTORE POP JUMP JUMPDEST PUSH0 PUSH2 0x28F1 PUSH1 0x11 DUP4 PUSH2 0x21CC JUMP JUMPDEST SWAP2 POP PUSH2 0x28FC DUP3 PUSH2 0x28BD JUMP JUMPDEST PUSH1 0x20 DUP3 ADD SWAP1 POP SWAP2 SWAP1 POP JUMP JUMPDEST PUSH0 PUSH1 0x20 DUP3 ADD SWAP1 POP DUP2 DUP2 SUB PUSH0 DUP4 ADD MSTORE PUSH2 0x291E DUP2 PUSH2 0x28E5 JUMP JUMPDEST SWAP1 POP SWAP2 SWAP1 POP JUMP JUMPDEST PUSH32 0x4E6F7420656E6F756768206C6971756964697479000000000000000000000000 PUSH0 DUP3 ADD MSTORE POP JUMP JUMPDEST PUSH0 PUSH2 0x2959 PUSH1 0x14 DUP4 PUSH2 0x21CC JUMP JUMPDEST SWAP2 POP PUSH2 0x2964 DUP3 PUSH2 0x2925 JUMP JUMPDEST PUSH1 0x20 DUP3 ADD SWAP1 POP SWAP2 SWAP1 POP JUMP JUMPDEST PUSH0 PUSH1 0x20 DUP3 ADD SWAP1 POP DUP2 DUP2 SUB PUSH0 DUP4 ADD MSTORE PUSH2 0x2986 DUP2 PUSH2 0x294D JUMP JUMPDEST SWAP1 POP SWAP2 SWAP1 POP JUMP JUMPDEST PUSH32 0x536C6970706167653A204120746F6F206C6F7700000000000000000000000000 PUSH0 DUP3 ADD MSTORE POP JUMP JUMPDEST PUSH0 PUSH2 0x29C1 PUSH1 0x13 DUP4 PUSH2 0x21CC JUMP JUMPDEST SWAP2 POP PUSH2 0x29CC DUP3 PUSH2 0x298D JUMP JUMPDEST PUSH1 0x20 DUP3 ADD SWAP1 POP SWAP2 SWAP1 POP JUMP JUMPDEST PUSH0 PUSH1 0x20 DUP3 ADD SWAP1 POP DUP2 DUP2 SUB PUSH0 DUP4 ADD MSTORE PUSH2 0x29EE DUP2 PUSH2 0x29B5 JUMP JUMPDEST SWAP1 POP SWAP2 SWAP1 POP JUMP JUMPDEST PUSH32 0x536C6970706167653A204220746F6F206C6F7700000000000000000000000000 PUSH0 DUP3 ADD MSTORE POP JUMP JUMPDEST PUSH0 PUSH2 0x2A29 PUSH1 0x13 DUP4 PUSH2 0x21CC JUMP JUMPDEST SWAP2 POP PUSH2 0x2A34 DUP3 PUSH2 0x29F5 JUMP JUMPDEST PUSH1 0x20 DUP3 ADD SWAP1 POP SWAP2 SWAP1 POP JUMP JUMPDEST PUSH0 PUSH1 0x20 DUP3 ADD SWAP1 POP DUP2 DUP2 SUB PUSH0 DUP4 ADD MSTORE PUSH2 0x2A56 DUP2 PUSH2 0x2A1D JUMP JUMPDEST SWAP1 POP SWAP2 SWAP1 POP JUMP JUMPDEST PUSH32 0x5472616E7366657220746F6B656E41206661696C656400000000000000000000 PUSH0 DUP3 ADD MSTORE POP JUMP JUMPDEST PUSH0 PUSH2 0x2A91 PUSH1 0x16 DUP4 PUSH2 0x21CC JUMP JUMPDEST SWAP2 POP PUSH2 0x2A9C DUP3 PUSH2 0x2A5D JUMP JUMPDEST PUSH1 0x20 DUP3 ADD SWAP1 POP SWAP2 SWAP1 POP JUMP JUMPDEST PUSH0 PUSH1 0x20 DUP3 ADD SWAP1 POP DUP2 DUP2 SUB PUSH0 DUP4 ADD MSTORE PUSH2 0x2ABE DUP2 PUSH2 0x2A85 JUMP JUMPDEST SWAP1 POP SWAP2 SWAP1 POP JUMP JUMPDEST PUSH32 0x5472616E7366657220746F6B656E42206661696C656400000000000000000000 PUSH0 DUP3 ADD MSTORE POP JUMP JUMPDEST PUSH0 PUSH2 0x2AF9 PUSH1 0x16 DUP4 PUSH2 0x21CC JUMP JUMPDEST SWAP2 POP PUSH2 0x2B04 DUP3 PUSH2 0x2AC5 JUMP JUMPDEST PUSH1 0x20 DUP3 ADD SWAP1 POP SWAP2 SWAP1 POP JUMP JUMPDEST PUSH0 PUSH1 0x20 DUP3 ADD SWAP1 POP DUP2 DUP2 SUB PUSH0 DUP4 ADD MSTORE PUSH2 0x2B26 DUP2 PUSH2 0x2AED JUMP JUMPDEST SWAP1 POP SWAP2 SWAP1 POP JUMP INVALID LOG2 PUSH5 0x6970667358 0x22 SLT KECCAK256 0xCA 0xB2 CODECOPY 0xB1 0x25 TSTORE MSTORE8 0x4E CALLCODE JUMPI RETURNDATACOPY 0xDE 0x28 SWAP7 0xD4 0xA6 0xD 0xA5 SWAP10 BASEFEE KECCAK256 0xDB 0x24 SELFDESTRUCT PUSH28 0x91E4FFB8C0358C64736F6C634300081E003300000000000000000000 "
				},
				"gasEstimates": {
					"creation": {
						"codeDepositCost": "2221400",
						"executionCost": "infinite",
						"totalCost": "infinite"
					},
					"external": {
						"addLiquidity(address,address,uint256,uint256,uint256,uint256,address,uint256)": "infinite",
						"getAmountOut(address,address,uint256)": "infinite",
						"getPrice(address,address)": "infinite",
						"lpToken()": "infinite",
						"owner()": "2529",
						"removeLiquidity(address,address,uint256,uint256,uint256,address,uint256)": "infinite",
						"reserveA()": "2513",
						"reserveB()": "2470",
						"swapExactTokensForTokens(uint256,uint256,address[],address,uint256)": "infinite",
						"tokenA()": "infinite",
						"tokenB()": "infinite",
						"totalLiquidity()": "infinite"
					}
				},
				"methodIdentifiers": {
					"addLiquidity(address,address,uint256,uint256,uint256,uint256,address,uint256)": "e8e33700",
					"getAmountOut(address,address,uint256)": "4aa06652",
					"getPrice(address,address)": "ac41865a",
					"lpToken()": "5fcbd285",
					"owner()": "8da5cb5b",
					"removeLiquidity(address,address,uint256,uint256,uint256,address,uint256)": "baa2abde",
					"reserveA()": "dc5fa6c5",
					"reserveB()": "19e36f3b",
					"swapExactTokensForTokens(uint256,uint256,address[],address,uint256)": "38ed1739",
					"tokenA()": "0fc63d10",
					"tokenB()": "5f64b55b",
					"totalLiquidity()": "15770f92"
				}
			},
			"storageLayout": {
				"storage": [
					{
						"astId": 158,
						"contract": "SimpleSwap.sol:SimpleSwap",
						"label": "owner",
						"offset": 0,
						"slot": "0",
						"type": "t_address"
					},
					{
						"astId": 162,
						"contract": "SimpleSwap.sol:SimpleSwap",
						"label": "lpToken",
						"offset": 0,
						"slot": "1",
						"type": "t_contract(ILPToken)145"
					},
					{
						"astId": 165,
						"contract": "SimpleSwap.sol:SimpleSwap",
						"label": "reserveA",
						"offset": 0,
						"slot": "2",
						"type": "t_uint256"
					},
					{
						"astId": 168,
						"contract": "SimpleSwap.sol:SimpleSwap",
						"label": "reserveB",
						"offset": 0,
						"slot": "3",
						"type": "t_uint256"
					}
				],
				"types": {
					"t_address": {
						"encoding": "inplace",
						"label": "address",
						"numberOfBytes": "20"
					},
					"t_contract(ILPToken)145": {
						"encoding": "inplace",
						"label": "contract ILPToken",
						"numberOfBytes": "20"
					},
					"t_uint256": {
						"encoding": "inplace",
						"label": "uint256",
						"numberOfBytes": "32"
					}
				}
			},
			"userdoc": {
				"events": {
					"LiquidityAdded(address,uint256,uint256,uint256)": {
						"notice": "Emitted when liquidity is added"
					},
					"LiquidityRemoved(address,uint256,uint256,uint256)": {
						"notice": "Emitted when liquidity is removed"
					}
				},
				"kind": "user",
				"methods": {
					"addLiquidity(address,address,uint256,uint256,uint256,uint256,address,uint256)": {
						"notice": "Adds liquidity to the pool with specified tokens and mints LP tokens"
					},
					"constructor": {
						"notice": "Constructor sets the tokens and LP token contract addresses"
					},
					"getAmountOut(address,address,uint256)": {
						"notice": "Calculates expected output token amount for given input amount, factoring fees"
					},
					"getPrice(address,address)": {
						"notice": "Returns price of base token in terms of quote token (scaled by 1e18)"
					},
					"lpToken()": {
						"notice": "LP token contract managing liquidity shares"
					},
					"owner()": {
						"notice": "Contract owner address"
					},
					"removeLiquidity(address,address,uint256,uint256,uint256,address,uint256)": {
						"notice": "Removes liquidity by burning LP tokens and returning proportional token amounts"
					},
					"reserveA()": {
						"notice": "Reserve of token A in the liquidity pool"
					},
					"reserveB()": {
						"notice": "Reserve of token B in the liquidity pool"
					},
					"swapExactTokensForTokens(uint256,uint256,address[],address,uint256)": {
						"notice": "Swaps an exact amount of input tokens for a minimum amount of output tokens"
					},
					"tokenA()": {
						"notice": "Address of token A in the pair"
					},
					"tokenB()": {
						"notice": "Address of token B in the pair"
					},
					"totalLiquidity()": {
						"notice": "Returns total liquidity as geometric mean of reserves"
					}
				},
				"version": 1
			}
		}
	}
}