{
	"LPToken.sol": {
		"LPToken": {
			"abi": [
				{
					"inputs": [
						{
							"internalType": "string",
							"name": "name_",
							"type": "string"
						},
						{
							"internalType": "string",
							"name": "symbol_",
							"type": "string"
						}
					],
					"stateMutability": "nonpayable",
					"type": "constructor"
				},
				{
					"anonymous": false,
					"inputs": [
						{
							"indexed": true,
							"internalType": "address",
							"name": "owner",
							"type": "address"
						},
						{
							"indexed": true,
							"internalType": "address",
							"name": "spender",
							"type": "address"
						},
						{
							"indexed": false,
							"internalType": "uint256",
							"name": "value",
							"type": "uint256"
						}
					],
					"name": "Approval",
					"type": "event"
				},
				{
					"anonymous": false,
					"inputs": [
						{
							"indexed": true,
							"internalType": "address",
							"name": "from",
							"type": "address"
						},
						{
							"indexed": true,
							"internalType": "address",
							"name": "to",
							"type": "address"
						},
						{
							"indexed": false,
							"internalType": "uint256",
							"name": "value",
							"type": "uint256"
						}
					],
					"name": "Transfer",
					"type": "event"
				},
				{
					"inputs": [
						{
							"internalType": "address",
							"name": "owner",
							"type": "address"
						},
						{
							"internalType": "address",
							"name": "spender",
							"type": "address"
						}
					],
					"name": "allowance",
					"outputs": [
						{
							"internalType": "uint256",
							"name": "",
							"type": "uint256"
						}
					],
					"stateMutability": "view",
					"type": "function"
				},
				{
					"inputs": [
						{
							"internalType": "address",
							"name": "spender",
							"type": "address"
						},
						{
							"internalType": "uint256",
							"name": "amount",
							"type": "uint256"
						}
					],
					"name": "approve",
					"outputs": [
						{
							"internalType": "bool",
							"name": "",
							"type": "bool"
						}
					],
					"stateMutability": "nonpayable",
					"type": "function"
				},
				{
					"inputs": [
						{
							"internalType": "address",
							"name": "account",
							"type": "address"
						}
					],
					"name": "balanceOf",
					"outputs": [
						{
							"internalType": "uint256",
							"name": "",
							"type": "uint256"
						}
					],
					"stateMutability": "view",
					"type": "function"
				},
				{
					"inputs": [
						{
							"internalType": "address",
							"name": "from",
							"type": "address"
						},
						{
							"internalType": "uint256",
							"name": "amount",
							"type": "uint256"
						}
					],
					"name": "burn",
					"outputs": [],
					"stateMutability": "nonpayable",
					"type": "function"
				},
				{
					"inputs": [],
					"name": "decimals",
					"outputs": [
						{
							"internalType": "uint8",
							"name": "",
							"type": "uint8"
						}
					],
					"stateMutability": "pure",
					"type": "function"
				},
				{
					"inputs": [
						{
							"internalType": "address",
							"name": "spender",
							"type": "address"
						},
						{
							"internalType": "uint256",
							"name": "subtractedValue",
							"type": "uint256"
						}
					],
					"name": "decreaseAllowance",
					"outputs": [
						{
							"internalType": "bool",
							"name": "",
							"type": "bool"
						}
					],
					"stateMutability": "nonpayable",
					"type": "function"
				},
				{
					"inputs": [
						{
							"internalType": "address",
							"name": "spender",
							"type": "address"
						},
						{
							"internalType": "uint256",
							"name": "addedValue",
							"type": "uint256"
						}
					],
					"name": "increaseAllowance",
					"outputs": [
						{
							"internalType": "bool",
							"name": "",
							"type": "bool"
						}
					],
					"stateMutability": "nonpayable",
					"type": "function"
				},
				{
					"inputs": [
						{
							"internalType": "address",
							"name": "to",
							"type": "address"
						},
						{
							"internalType": "uint256",
							"name": "amount",
							"type": "uint256"
						}
					],
					"name": "mint",
					"outputs": [],
					"stateMutability": "nonpayable",
					"type": "function"
				},
				{
					"inputs": [],
					"name": "name",
					"outputs": [
						{
							"internalType": "string",
							"name": "",
							"type": "string"
						}
					],
					"stateMutability": "view",
					"type": "function"
				},
				{
					"inputs": [
						{
							"internalType": "address",
							"name": "_simpleSwap",
							"type": "address"
						}
					],
					"name": "setSimpleSwap",
					"outputs": [],
					"stateMutability": "nonpayable",
					"type": "function"
				},
				{
					"inputs": [],
					"name": "simpleSwap",
					"outputs": [
						{
							"internalType": "address",
							"name": "",
							"type": "address"
						}
					],
					"stateMutability": "view",
					"type": "function"
				},
				{
					"inputs": [],
					"name": "symbol",
					"outputs": [
						{
							"internalType": "string",
							"name": "",
							"type": "string"
						}
					],
					"stateMutability": "view",
					"type": "function"
				},
				{
					"inputs": [],
					"name": "totalSupply",
					"outputs": [
						{
							"internalType": "uint256",
							"name": "",
							"type": "uint256"
						}
					],
					"stateMutability": "view",
					"type": "function"
				},
				{
					"inputs": [
						{
							"internalType": "address",
							"name": "to",
							"type": "address"
						},
						{
							"internalType": "uint256",
							"name": "amount",
							"type": "uint256"
						}
					],
					"name": "transfer",
					"outputs": [
						{
							"internalType": "bool",
							"name": "",
							"type": "bool"
						}
					],
					"stateMutability": "nonpayable",
					"type": "function"
				},
				{
					"inputs": [
						{
							"internalType": "address",
							"name": "from",
							"type": "address"
						},
						{
							"internalType": "address",
							"name": "to",
							"type": "address"
						},
						{
							"internalType": "uint256",
							"name": "amount",
							"type": "uint256"
						}
					],
					"name": "transferFrom",
					"outputs": [
						{
							"internalType": "bool",
							"name": "",
							"type": "bool"
						}
					],
					"stateMutability": "nonpayable",
					"type": "function"
				}
			],
			"devdoc": {
				"details": "Token ERC20 para representar la liquidez en SimpleSwap",
				"kind": "dev",
				"methods": {},
				"title": "LPToken",
				"version": 1
			},
			"evm": {
				"assembly": "    /* \"LPToken.sol\":5488:6455  contract LPToken is ERC20 {... */\n  mstore(0x40, 0x80)\n    /* \"LPToken.sol\":5550:5706  constructor(string memory name_, string memory symbol_) ERC20(name_, symbol_) {... */\n  callvalue\n  dup1\n  iszero\n  tag_1\n  jumpi\n  revert(0x00, 0x00)\ntag_1:\n  pop\n  mload(0x40)\n  sub(codesize, bytecodeSize)\n  dup1\n  bytecodeSize\n  dup4\n  codecopy\n  dup2\n  dup2\n  add\n  0x40\n  mstore\n  dup2\n  add\n  swap1\n  tag_2\n  swap2\n  swap1\n  tag_3\n  jump\t// in\ntag_2:\n    /* \"LPToken.sol\":5612:5617  name_ */\n  dup2\n    /* \"LPToken.sol\":5619:5626  symbol_ */\n  dup2\n    /* \"LPToken.sol\":1377:1382  name_ */\n  dup2\n    /* \"LPToken.sol\":1369:1374  _name */\n  0x03\n    /* \"LPToken.sol\":1369:1382  _name = name_ */\n  swap1\n  dup2\n  tag_7\n  swap2\n  swap1\n  tag_8\n  jump\t// in\ntag_7:\n  pop\n    /* \"LPToken.sol\":1403:1410  symbol_ */\n  dup1\n    /* \"LPToken.sol\":1393:1400  _symbol */\n  0x04\n    /* \"LPToken.sol\":1393:1410  _symbol = symbol_ */\n  swap1\n  dup2\n  tag_9\n  swap2\n  swap1\n  tag_8\n  jump\t// in\ntag_9:\n  pop\n    /* \"LPToken.sol\":1302:1418  constructor(string memory name_, string memory symbol_) {... */\n  pop\n  pop\n    /* \"LPToken.sol\":5656:5657  0 */\n  0x00\n    /* \"LPToken.sol\":5635:5645  simpleSwap */\n  0x05\n  0x00\n    /* \"LPToken.sol\":5635:5658  simpleSwap = address(0) */\n  0x0100\n  exp\n  dup2\n  sload\n  dup2\n  0xffffffffffffffffffffffffffffffffffffffff\n  mul\n  not\n  and\n  swap1\n  dup4\n  0xffffffffffffffffffffffffffffffffffffffff\n  and\n  mul\n  or\n  swap1\n  sstore\n  pop\n    /* \"LPToken.sol\":5550:5706  constructor(string memory name_, string memory symbol_) ERC20(name_, symbol_) {... */\n  pop\n  pop\n    /* \"LPToken.sol\":5488:6455  contract LPToken is ERC20 {... */\n  jump(tag_11)\n    /* \"#utility.yul\":7:82   */\ntag_12:\n    /* \"#utility.yul\":40:46   */\n  0x00\n    /* \"#utility.yul\":73:75   */\n  0x40\n    /* \"#utility.yul\":67:76   */\n  mload\n    /* \"#utility.yul\":57:76   */\n  swap1\n  pop\n    /* \"#utility.yul\":7:82   */\n  swap1\n  jump\t// out\n    /* \"#utility.yul\":88:205   */\ntag_13:\n    /* \"#utility.yul\":197:198   */\n  0x00\n    /* \"#utility.yul\":194:195   */\n  0x00\n    /* \"#utility.yul\":187:199   */\n  revert\n    /* \"#utility.yul\":211:328   */\ntag_14:\n    /* \"#utility.yul\":320:321   */\n  0x00\n    /* \"#utility.yul\":317:318   */\n  0x00\n    /* \"#utility.yul\":310:322   */\n  revert\n    /* \"#utility.yul\":334:451   */\ntag_15:\n    /* \"#utility.yul\":443:444   */\n  0x00\n    /* \"#utility.yul\":440:441   */\n  0x00\n    /* \"#utility.yul\":433:445   */\n  revert\n    /* \"#utility.yul\":457:574   */\ntag_16:\n    /* \"#utility.yul\":566:567   */\n  0x00\n    /* \"#utility.yul\":563:564   */\n  0x00\n    /* \"#utility.yul\":556:568   */\n  revert\n    /* \"#utility.yul\":580:682   */\ntag_17:\n    /* \"#utility.yul\":621:627   */\n  0x00\n    /* \"#utility.yul\":672:674   */\n  0x1f\n    /* \"#utility.yul\":668:675   */\n  not\n    /* \"#utility.yul\":663:665   */\n  0x1f\n    /* \"#utility.yul\":656:661   */\n  dup4\n    /* \"#utility.yul\":652:666   */\n  add\n    /* \"#utility.yul\":648:676   */\n  and\n    /* \"#utility.yul\":638:676   */\n  swap1\n  pop\n    /* \"#utility.yul\":580:682   */\n  swap2\n  swap1\n  pop\n  jump\t// out\n    /* \"#utility.yul\":688:868   */\ntag_18:\n    /* \"#utility.yul\":736:813   */\n  0x4e487b7100000000000000000000000000000000000000000000000000000000\n    /* \"#utility.yul\":733:734   */\n  0x00\n    /* \"#utility.yul\":726:814   */\n  mstore\n    /* \"#utility.yul\":833:837   */\n  0x41\n    /* \"#utility.yul\":830:831   */\n  0x04\n    /* \"#utility.yul\":823:838   */\n  mstore\n    /* \"#utility.yul\":857:861   */\n  0x24\n    /* \"#utility.yul\":854:855   */\n  0x00\n    /* \"#utility.yul\":847:862   */\n  revert\n    /* \"#utility.yul\":874:1155   */\ntag_19:\n    /* \"#utility.yul\":957:984   */\n  tag_53\n    /* \"#utility.yul\":979:983   */\n  dup3\n    /* \"#utility.yul\":957:984   */\n  tag_17\n  jump\t// in\ntag_53:\n    /* \"#utility.yul\":949:955   */\n  dup2\n    /* \"#utility.yul\":945:985   */\n  add\n    /* \"#utility.yul\":1087:1093   */\n  dup2\n    /* \"#utility.yul\":1075:1085   */\n  dup2\n    /* \"#utility.yul\":1072:1094   */\n  lt\n    /* \"#utility.yul\":1051:1069   */\n  0xffffffffffffffff\n    /* \"#utility.yul\":1039:1049   */\n  dup3\n    /* \"#utility.yul\":1036:1070   */\n  gt\n    /* \"#utility.yul\":1033:1095   */\n  or\n    /* \"#utility.yul\":1030:1118   */\n  iszero\n  tag_54\n  jumpi\n    /* \"#utility.yul\":1098:1116   */\n  tag_55\n  tag_18\n  jump\t// in\ntag_55:\n    /* \"#utility.yul\":1030:1118   */\ntag_54:\n    /* \"#utility.yul\":1138:1148   */\n  dup1\n    /* \"#utility.yul\":1134:1136   */\n  0x40\n    /* \"#utility.yul\":1127:1149   */\n  mstore\n    /* \"#utility.yul\":917:1155   */\n  pop\n    /* \"#utility.yul\":874:1155   */\n  pop\n  pop\n  jump\t// out\n    /* \"#utility.yul\":1161:1290   */\ntag_20:\n    /* \"#utility.yul\":1195:1201   */\n  0x00\n    /* \"#utility.yul\":1222:1242   */\n  tag_57\n  tag_12\n  jump\t// in\ntag_57:\n    /* \"#utility.yul\":1212:1242   */\n  swap1\n  pop\n    /* \"#utility.yul\":1251:1284   */\n  tag_58\n    /* \"#utility.yul\":1279:1283   */\n  dup3\n    /* \"#utility.yul\":1271:1277   */\n  dup3\n    /* \"#utility.yul\":1251:1284   */\n  tag_19\n  jump\t// in\ntag_58:\n    /* \"#utility.yul\":1161:1290   */\n  swap2\n  swap1\n  pop\n  jump\t// out\n    /* \"#utility.yul\":1296:1604   */\ntag_21:\n    /* \"#utility.yul\":1358:1362   */\n  0x00\n    /* \"#utility.yul\":1448:1466   */\n  0xffffffffffffffff\n    /* \"#utility.yul\":1440:1446   */\n  dup3\n    /* \"#utility.yul\":1437:1467   */\n  gt\n    /* \"#utility.yul\":1434:1490   */\n  iszero\n  tag_60\n  jumpi\n    /* \"#utility.yul\":1470:1488   */\n  tag_61\n  tag_18\n  jump\t// in\ntag_61:\n    /* \"#utility.yul\":1434:1490   */\ntag_60:\n    /* \"#utility.yul\":1508:1537   */\n  tag_62\n    /* \"#utility.yul\":1530:1536   */\n  dup3\n    /* \"#utility.yul\":1508:1537   */\n  tag_17\n  jump\t// in\ntag_62:\n    /* \"#utility.yul\":1500:1537   */\n  swap1\n  pop\n    /* \"#utility.yul\":1592:1596   */\n  0x20\n    /* \"#utility.yul\":1586:1590   */\n  dup2\n    /* \"#utility.yul\":1582:1597   */\n  add\n    /* \"#utility.yul\":1574:1597   */\n  swap1\n  pop\n    /* \"#utility.yul\":1296:1604   */\n  swap2\n  swap1\n  pop\n  jump\t// out\n    /* \"#utility.yul\":1610:1749   */\ntag_22:\n    /* \"#utility.yul\":1699:1705   */\n  dup3\n    /* \"#utility.yul\":1694:1697   */\n  dup2\n    /* \"#utility.yul\":1689:1692   */\n  dup4\n    /* \"#utility.yul\":1683:1706   */\n  mcopy\n    /* \"#utility.yul\":1740:1741   */\n  0x00\n    /* \"#utility.yul\":1731:1737   */\n  dup4\n    /* \"#utility.yul\":1726:1729   */\n  dup4\n    /* \"#utility.yul\":1722:1738   */\n  add\n    /* \"#utility.yul\":1715:1742   */\n  mstore\n    /* \"#utility.yul\":1610:1749   */\n  pop\n  pop\n  pop\n  jump\t// out\n    /* \"#utility.yul\":1755:2189   */\ntag_23:\n    /* \"#utility.yul\":1844:1849   */\n  0x00\n    /* \"#utility.yul\":1869:1935   */\n  tag_65\n    /* \"#utility.yul\":1885:1934   */\n  tag_66\n    /* \"#utility.yul\":1927:1933   */\n  dup5\n    /* \"#utility.yul\":1885:1934   */\n  tag_21\n  jump\t// in\ntag_66:\n    /* \"#utility.yul\":1869:1935   */\n  tag_20\n  jump\t// in\ntag_65:\n    /* \"#utility.yul\":1860:1935   */\n  swap1\n  pop\n    /* \"#utility.yul\":1958:1964   */\n  dup3\n    /* \"#utility.yul\":1951:1956   */\n  dup2\n    /* \"#utility.yul\":1944:1965   */\n  mstore\n    /* \"#utility.yul\":1996:2000   */\n  0x20\n    /* \"#utility.yul\":1989:1994   */\n  dup2\n    /* \"#utility.yul\":1985:2001   */\n  add\n    /* \"#utility.yul\":2034:2037   */\n  dup5\n    /* \"#utility.yul\":2025:2031   */\n  dup5\n    /* \"#utility.yul\":2020:2023   */\n  dup5\n    /* \"#utility.yul\":2016:2032   */\n  add\n    /* \"#utility.yul\":2013:2038   */\n  gt\n    /* \"#utility.yul\":2010:2122   */\n  iszero\n  tag_67\n  jumpi\n    /* \"#utility.yul\":2041:2120   */\n  tag_68\n  tag_16\n  jump\t// in\ntag_68:\n    /* \"#utility.yul\":2010:2122   */\ntag_67:\n    /* \"#utility.yul\":2131:2183   */\n  tag_69\n    /* \"#utility.yul\":2176:2182   */\n  dup5\n    /* \"#utility.yul\":2171:2174   */\n  dup3\n    /* \"#utility.yul\":2166:2169   */\n  dup6\n    /* \"#utility.yul\":2131:2183   */\n  tag_22\n  jump\t// in\ntag_69:\n    /* \"#utility.yul\":1850:2189   */\n  pop\n    /* \"#utility.yul\":1755:2189   */\n  swap4\n  swap3\n  pop\n  pop\n  pop\n  jump\t// out\n    /* \"#utility.yul\":2209:2564   */\ntag_24:\n    /* \"#utility.yul\":2276:2281   */\n  0x00\n    /* \"#utility.yul\":2325:2328   */\n  dup3\n    /* \"#utility.yul\":2318:2322   */\n  0x1f\n    /* \"#utility.yul\":2310:2316   */\n  dup4\n    /* \"#utility.yul\":2306:2323   */\n  add\n    /* \"#utility.yul\":2302:2329   */\n  slt\n    /* \"#utility.yul\":2292:2414   */\n  tag_71\n  jumpi\n    /* \"#utility.yul\":2333:2412   */\n  tag_72\n  tag_15\n  jump\t// in\ntag_72:\n    /* \"#utility.yul\":2292:2414   */\ntag_71:\n    /* \"#utility.yul\":2443:2449   */\n  dup2\n    /* \"#utility.yul\":2437:2450   */\n  mload\n    /* \"#utility.yul\":2468:2558   */\n  tag_73\n    /* \"#utility.yul\":2554:2557   */\n  dup5\n    /* \"#utility.yul\":2546:2552   */\n  dup3\n    /* \"#utility.yul\":2539:2543   */\n  0x20\n    /* \"#utility.yul\":2531:2537   */\n  dup7\n    /* \"#utility.yul\":2527:2544   */\n  add\n    /* \"#utility.yul\":2468:2558   */\n  tag_23\n  jump\t// in\ntag_73:\n    /* \"#utility.yul\":2459:2558   */\n  swap2\n  pop\n    /* \"#utility.yul\":2282:2564   */\n  pop\n    /* \"#utility.yul\":2209:2564   */\n  swap3\n  swap2\n  pop\n  pop\n  jump\t// out\n    /* \"#utility.yul\":2570:3423   */\ntag_3:\n    /* \"#utility.yul\":2669:2675   */\n  0x00\n    /* \"#utility.yul\":2677:2683   */\n  0x00\n    /* \"#utility.yul\":2726:2728   */\n  0x40\n    /* \"#utility.yul\":2714:2723   */\n  dup4\n    /* \"#utility.yul\":2705:2712   */\n  dup6\n    /* \"#utility.yul\":2701:2724   */\n  sub\n    /* \"#utility.yul\":2697:2729   */\n  slt\n    /* \"#utility.yul\":2694:2813   */\n  iszero\n  tag_75\n  jumpi\n    /* \"#utility.yul\":2732:2811   */\n  tag_76\n  tag_13\n  jump\t// in\ntag_76:\n    /* \"#utility.yul\":2694:2813   */\ntag_75:\n    /* \"#utility.yul\":2873:2874   */\n  0x00\n    /* \"#utility.yul\":2862:2871   */\n  dup4\n    /* \"#utility.yul\":2858:2875   */\n  add\n    /* \"#utility.yul\":2852:2876   */\n  mload\n    /* \"#utility.yul\":2903:2921   */\n  0xffffffffffffffff\n    /* \"#utility.yul\":2895:2901   */\n  dup2\n    /* \"#utility.yul\":2892:2922   */\n  gt\n    /* \"#utility.yul\":2889:3006   */\n  iszero\n  tag_77\n  jumpi\n    /* \"#utility.yul\":2925:3004   */\n  tag_78\n  tag_14\n  jump\t// in\ntag_78:\n    /* \"#utility.yul\":2889:3006   */\ntag_77:\n    /* \"#utility.yul\":3030:3104   */\n  tag_79\n    /* \"#utility.yul\":3096:3103   */\n  dup6\n    /* \"#utility.yul\":3087:3093   */\n  dup3\n    /* \"#utility.yul\":3076:3085   */\n  dup7\n    /* \"#utility.yul\":3072:3094   */\n  add\n    /* \"#utility.yul\":3030:3104   */\n  tag_24\n  jump\t// in\ntag_79:\n    /* \"#utility.yul\":3020:3104   */\n  swap3\n  pop\n    /* \"#utility.yul\":2823:3114   */\n  pop\n    /* \"#utility.yul\":3174:3176   */\n  0x20\n    /* \"#utility.yul\":3163:3172   */\n  dup4\n    /* \"#utility.yul\":3159:3177   */\n  add\n    /* \"#utility.yul\":3153:3178   */\n  mload\n    /* \"#utility.yul\":3205:3223   */\n  0xffffffffffffffff\n    /* \"#utility.yul\":3197:3203   */\n  dup2\n    /* \"#utility.yul\":3194:3224   */\n  gt\n    /* \"#utility.yul\":3191:3308   */\n  iszero\n  tag_80\n  jumpi\n    /* \"#utility.yul\":3227:3306   */\n  tag_81\n  tag_14\n  jump\t// in\ntag_81:\n    /* \"#utility.yul\":3191:3308   */\ntag_80:\n    /* \"#utility.yul\":3332:3406   */\n  tag_82\n    /* \"#utility.yul\":3398:3405   */\n  dup6\n    /* \"#utility.yul\":3389:3395   */\n  dup3\n    /* \"#utility.yul\":3378:3387   */\n  dup7\n    /* \"#utility.yul\":3374:3396   */\n  add\n    /* \"#utility.yul\":3332:3406   */\n  tag_24\n  jump\t// in\ntag_82:\n    /* \"#utility.yul\":3322:3406   */\n  swap2\n  pop\n    /* \"#utility.yul\":3124:3416   */\n  pop\n    /* \"#utility.yul\":2570:3423   */\n  swap3\n  pop\n  swap3\n  swap1\n  pop\n  jump\t// out\n    /* \"#utility.yul\":3429:3528   */\ntag_25:\n    /* \"#utility.yul\":3481:3487   */\n  0x00\n    /* \"#utility.yul\":3515:3520   */\n  dup2\n    /* \"#utility.yul\":3509:3521   */\n  mload\n    /* \"#utility.yul\":3499:3521   */\n  swap1\n  pop\n    /* \"#utility.yul\":3429:3528   */\n  swap2\n  swap1\n  pop\n  jump\t// out\n    /* \"#utility.yul\":3534:3714   */\ntag_26:\n    /* \"#utility.yul\":3582:3659   */\n  0x4e487b7100000000000000000000000000000000000000000000000000000000\n    /* \"#utility.yul\":3579:3580   */\n  0x00\n    /* \"#utility.yul\":3572:3660   */\n  mstore\n    /* \"#utility.yul\":3679:3683   */\n  0x22\n    /* \"#utility.yul\":3676:3677   */\n  0x04\n    /* \"#utility.yul\":3669:3684   */\n  mstore\n    /* \"#utility.yul\":3703:3707   */\n  0x24\n    /* \"#utility.yul\":3700:3701   */\n  0x00\n    /* \"#utility.yul\":3693:3708   */\n  revert\n    /* \"#utility.yul\":3720:4040   */\ntag_27:\n    /* \"#utility.yul\":3764:3770   */\n  0x00\n    /* \"#utility.yul\":3801:3802   */\n  0x02\n    /* \"#utility.yul\":3795:3799   */\n  dup3\n    /* \"#utility.yul\":3791:3803   */\n  div\n    /* \"#utility.yul\":3781:3803   */\n  swap1\n  pop\n    /* \"#utility.yul\":3848:3849   */\n  0x01\n    /* \"#utility.yul\":3842:3846   */\n  dup3\n    /* \"#utility.yul\":3838:3850   */\n  and\n    /* \"#utility.yul\":3869:3887   */\n  dup1\n    /* \"#utility.yul\":3859:3940   */\n  tag_86\n  jumpi\n    /* \"#utility.yul\":3925:3929   */\n  0x7f\n    /* \"#utility.yul\":3917:3923   */\n  dup3\n    /* \"#utility.yul\":3913:3930   */\n  and\n    /* \"#utility.yul\":3903:3930   */\n  swap2\n  pop\n    /* \"#utility.yul\":3859:3940   */\ntag_86:\n    /* \"#utility.yul\":3987:3989   */\n  0x20\n    /* \"#utility.yul\":3979:3985   */\n  dup3\n    /* \"#utility.yul\":3976:3990   */\n  lt\n    /* \"#utility.yul\":3956:3974   */\n  dup2\n    /* \"#utility.yul\":3953:3991   */\n  sub\n    /* \"#utility.yul\":3950:4034   */\n  tag_87\n  jumpi\n    /* \"#utility.yul\":4006:4024   */\n  tag_88\n  tag_26\n  jump\t// in\ntag_88:\n    /* \"#utility.yul\":3950:4034   */\ntag_87:\n    /* \"#utility.yul\":3771:4040   */\n  pop\n    /* \"#utility.yul\":3720:4040   */\n  swap2\n  swap1\n  pop\n  jump\t// out\n    /* \"#utility.yul\":4046:4187   */\ntag_28:\n    /* \"#utility.yul\":4095:4099   */\n  0x00\n    /* \"#utility.yul\":4118:4121   */\n  dup2\n    /* \"#utility.yul\":4110:4121   */\n  swap1\n  pop\n    /* \"#utility.yul\":4141:4144   */\n  dup2\n    /* \"#utility.yul\":4138:4139   */\n  0x00\n    /* \"#utility.yul\":4131:4145   */\n  mstore\n    /* \"#utility.yul\":4175:4179   */\n  0x20\n    /* \"#utility.yul\":4172:4173   */\n  0x00\n    /* \"#utility.yul\":4162:4180   */\n  keccak256\n    /* \"#utility.yul\":4154:4180   */\n  swap1\n  pop\n    /* \"#utility.yul\":4046:4187   */\n  swap2\n  swap1\n  pop\n  jump\t// out\n    /* \"#utility.yul\":4193:4286   */\ntag_29:\n    /* \"#utility.yul\":4230:4236   */\n  0x00\n    /* \"#utility.yul\":4277:4279   */\n  0x20\n    /* \"#utility.yul\":4272:4274   */\n  0x1f\n    /* \"#utility.yul\":4265:4270   */\n  dup4\n    /* \"#utility.yul\":4261:4275   */\n  add\n    /* \"#utility.yul\":4257:4280   */\n  div\n    /* \"#utility.yul\":4247:4280   */\n  swap1\n  pop\n    /* \"#utility.yul\":4193:4286   */\n  swap2\n  swap1\n  pop\n  jump\t// out\n    /* \"#utility.yul\":4292:4399   */\ntag_30:\n    /* \"#utility.yul\":4336:4344   */\n  0x00\n    /* \"#utility.yul\":4386:4391   */\n  dup3\n    /* \"#utility.yul\":4380:4384   */\n  dup3\n    /* \"#utility.yul\":4376:4392   */\n  shl\n    /* \"#utility.yul\":4355:4392   */\n  swap1\n  pop\n    /* \"#utility.yul\":4292:4399   */\n  swap3\n  swap2\n  pop\n  pop\n  jump\t// out\n    /* \"#utility.yul\":4405:4798   */\ntag_31:\n    /* \"#utility.yul\":4474:4480   */\n  0x00\n    /* \"#utility.yul\":4524:4525   */\n  0x08\n    /* \"#utility.yul\":4512:4522   */\n  dup4\n    /* \"#utility.yul\":4508:4526   */\n  mul\n    /* \"#utility.yul\":4547:4644   */\n  tag_93\n    /* \"#utility.yul\":4577:4643   */\n  0xffffffffffffffffffffffffffffffffffffffffffffffffffffffffffffffff\n    /* \"#utility.yul\":4566:4575   */\n  dup3\n    /* \"#utility.yul\":4547:4644   */\n  tag_30\n  jump\t// in\ntag_93:\n    /* \"#utility.yul\":4665:4704   */\n  tag_94\n    /* \"#utility.yul\":4695:4703   */\n  dup7\n    /* \"#utility.yul\":4684:4693   */\n  dup4\n    /* \"#utility.yul\":4665:4704   */\n  tag_30\n  jump\t// in\ntag_94:\n    /* \"#utility.yul\":4653:4704   */\n  swap6\n  pop\n    /* \"#utility.yul\":4737:4741   */\n  dup1\n    /* \"#utility.yul\":4733:4742   */\n  not\n    /* \"#utility.yul\":4726:4731   */\n  dup5\n    /* \"#utility.yul\":4722:4743   */\n  and\n    /* \"#utility.yul\":4713:4743   */\n  swap4\n  pop\n    /* \"#utility.yul\":4786:4790   */\n  dup1\n    /* \"#utility.yul\":4776:4784   */\n  dup7\n    /* \"#utility.yul\":4772:4791   */\n  and\n    /* \"#utility.yul\":4765:4770   */\n  dup5\n    /* \"#utility.yul\":4762:4792   */\n  or\n    /* \"#utility.yul\":4752:4792   */\n  swap3\n  pop\n    /* \"#utility.yul\":4481:4798   */\n  pop\n  pop\n    /* \"#utility.yul\":4405:4798   */\n  swap4\n  swap3\n  pop\n  pop\n  pop\n  jump\t// out\n    /* \"#utility.yul\":4804:4881   */\ntag_32:\n    /* \"#utility.yul\":4841:4848   */\n  0x00\n    /* \"#utility.yul\":4870:4875   */\n  dup2\n    /* \"#utility.yul\":4859:4875   */\n  swap1\n  pop\n    /* \"#utility.yul\":4804:4881   */\n  swap2\n  swap1\n  pop\n  jump\t// out\n    /* \"#utility.yul\":4887:4947   */\ntag_33:\n    /* \"#utility.yul\":4915:4918   */\n  0x00\n    /* \"#utility.yul\":4936:4941   */\n  dup2\n    /* \"#utility.yul\":4929:4941   */\n  swap1\n  pop\n    /* \"#utility.yul\":4887:4947   */\n  swap2\n  swap1\n  pop\n  jump\t// out\n    /* \"#utility.yul\":4953:5095   */\ntag_34:\n    /* \"#utility.yul\":5003:5012   */\n  0x00\n    /* \"#utility.yul\":5036:5089   */\n  tag_98\n    /* \"#utility.yul\":5054:5088   */\n  tag_99\n    /* \"#utility.yul\":5063:5087   */\n  tag_100\n    /* \"#utility.yul\":5081:5086   */\n  dup5\n    /* \"#utility.yul\":5063:5087   */\n  tag_32\n  jump\t// in\ntag_100:\n    /* \"#utility.yul\":5054:5088   */\n  tag_33\n  jump\t// in\ntag_99:\n    /* \"#utility.yul\":5036:5089   */\n  tag_32\n  jump\t// in\ntag_98:\n    /* \"#utility.yul\":5023:5089   */\n  swap1\n  pop\n    /* \"#utility.yul\":4953:5095   */\n  swap2\n  swap1\n  pop\n  jump\t// out\n    /* \"#utility.yul\":5101:5176   */\ntag_35:\n    /* \"#utility.yul\":5144:5147   */\n  0x00\n    /* \"#utility.yul\":5165:5170   */\n  dup2\n    /* \"#utility.yul\":5158:5170   */\n  swap1\n  pop\n    /* \"#utility.yul\":5101:5176   */\n  swap2\n  swap1\n  pop\n  jump\t// out\n    /* \"#utility.yul\":5182:5451   */\ntag_36:\n    /* \"#utility.yul\":5292:5331   */\n  tag_103\n    /* \"#utility.yul\":5323:5330   */\n  dup4\n    /* \"#utility.yul\":5292:5331   */\n  tag_34\n  jump\t// in\ntag_103:\n    /* \"#utility.yul\":5353:5444   */\n  tag_104\n    /* \"#utility.yul\":5402:5443   */\n  tag_105\n    /* \"#utility.yul\":5426:5442   */\n  dup3\n    /* \"#utility.yul\":5402:5443   */\n  tag_35\n  jump\t// in\ntag_105:\n    /* \"#utility.yul\":5394:5400   */\n  dup5\n    /* \"#utility.yul\":5387:5391   */\n  dup5\n    /* \"#utility.yul\":5381:5392   */\n  sload\n    /* \"#utility.yul\":5353:5444   */\n  tag_31\n  jump\t// in\ntag_104:\n    /* \"#utility.yul\":5347:5351   */\n  dup3\n    /* \"#utility.yul\":5340:5445   */\n  sstore\n    /* \"#utility.yul\":5258:5451   */\n  pop\n    /* \"#utility.yul\":5182:5451   */\n  pop\n  pop\n  pop\n  jump\t// out\n    /* \"#utility.yul\":5457:5530   */\ntag_37:\n    /* \"#utility.yul\":5502:5505   */\n  0x00\n    /* \"#utility.yul\":5523:5524   */\n  0x00\n    /* \"#utility.yul\":5516:5524   */\n  swap1\n  pop\n    /* \"#utility.yul\":5457:5530   */\n  swap1\n  jump\t// out\n    /* \"#utility.yul\":5536:5725   */\ntag_38:\n    /* \"#utility.yul\":5613:5645   */\n  tag_108\n  tag_37\n  jump\t// in\ntag_108:\n    /* \"#utility.yul\":5654:5719   */\n  tag_109\n    /* \"#utility.yul\":5712:5718   */\n  dup2\n    /* \"#utility.yul\":5704:5710   */\n  dup5\n    /* \"#utility.yul\":5698:5702   */\n  dup5\n    /* \"#utility.yul\":5654:5719   */\n  tag_36\n  jump\t// in\ntag_109:\n    /* \"#utility.yul\":5589:5725   */\n  pop\n    /* \"#utility.yul\":5536:5725   */\n  pop\n  pop\n  jump\t// out\n    /* \"#utility.yul\":5731:5917   */\ntag_39:\n    /* \"#utility.yul\":5791:5911   */\ntag_111:\n    /* \"#utility.yul\":5808:5811   */\n  dup2\n    /* \"#utility.yul\":5801:5806   */\n  dup2\n    /* \"#utility.yul\":5798:5812   */\n  lt\n    /* \"#utility.yul\":5791:5911   */\n  iszero\n  tag_113\n  jumpi\n    /* \"#utility.yul\":5862:5901   */\n  tag_114\n    /* \"#utility.yul\":5899:5900   */\n  0x00\n    /* \"#utility.yul\":5892:5897   */\n  dup3\n    /* \"#utility.yul\":5862:5901   */\n  tag_38\n  jump\t// in\ntag_114:\n    /* \"#utility.yul\":5835:5836   */\n  0x01\n    /* \"#utility.yul\":5828:5833   */\n  dup2\n    /* \"#utility.yul\":5824:5837   */\n  add\n    /* \"#utility.yul\":5815:5837   */\n  swap1\n  pop\n    /* \"#utility.yul\":5791:5911   */\n  jump(tag_111)\ntag_113:\n    /* \"#utility.yul\":5731:5917   */\n  pop\n  pop\n  jump\t// out\n    /* \"#utility.yul\":5923:6466   */\ntag_40:\n    /* \"#utility.yul\":6024:6026   */\n  0x1f\n    /* \"#utility.yul\":6019:6022   */\n  dup3\n    /* \"#utility.yul\":6016:6027   */\n  gt\n    /* \"#utility.yul\":6013:6459   */\n  iszero\n  tag_116\n  jumpi\n    /* \"#utility.yul\":6058:6096   */\n  tag_117\n    /* \"#utility.yul\":6090:6095   */\n  dup2\n    /* \"#utility.yul\":6058:6096   */\n  tag_28\n  jump\t// in\ntag_117:\n    /* \"#utility.yul\":6142:6171   */\n  tag_118\n    /* \"#utility.yul\":6160:6170   */\n  dup5\n    /* \"#utility.yul\":6142:6171   */\n  tag_29\n  jump\t// in\ntag_118:\n    /* \"#utility.yul\":6132:6140   */\n  dup2\n    /* \"#utility.yul\":6128:6172   */\n  add\n    /* \"#utility.yul\":6325:6327   */\n  0x20\n    /* \"#utility.yul\":6313:6323   */\n  dup6\n    /* \"#utility.yul\":6310:6328   */\n  lt\n    /* \"#utility.yul\":6307:6356   */\n  iszero\n  tag_119\n  jumpi\n    /* \"#utility.yul\":6346:6354   */\n  dup2\n    /* \"#utility.yul\":6331:6354   */\n  swap1\n  pop\n    /* \"#utility.yul\":6307:6356   */\ntag_119:\n    /* \"#utility.yul\":6369:6449   */\n  tag_120\n    /* \"#utility.yul\":6425:6447   */\n  tag_121\n    /* \"#utility.yul\":6443:6446   */\n  dup6\n    /* \"#utility.yul\":6425:6447   */\n  tag_29\n  jump\t// in\ntag_121:\n    /* \"#utility.yul\":6415:6423   */\n  dup4\n    /* \"#utility.yul\":6411:6448   */\n  add\n    /* \"#utility.yul\":6398:6409   */\n  dup3\n    /* \"#utility.yul\":6369:6449   */\n  tag_39\n  jump\t// in\ntag_120:\n    /* \"#utility.yul\":6028:6459   */\n  pop\n  pop\n    /* \"#utility.yul\":6013:6459   */\ntag_116:\n    /* \"#utility.yul\":5923:6466   */\n  pop\n  pop\n  pop\n  jump\t// out\n    /* \"#utility.yul\":6472:6589   */\ntag_41:\n    /* \"#utility.yul\":6526:6534   */\n  0x00\n    /* \"#utility.yul\":6576:6581   */\n  dup3\n    /* \"#utility.yul\":6570:6574   */\n  dup3\n    /* \"#utility.yul\":6566:6582   */\n  shr\n    /* \"#utility.yul\":6545:6582   */\n  swap1\n  pop\n    /* \"#utility.yul\":6472:6589   */\n  swap3\n  swap2\n  pop\n  pop\n  jump\t// out\n    /* \"#utility.yul\":6595:6764   */\ntag_42:\n    /* \"#utility.yul\":6639:6645   */\n  0x00\n    /* \"#utility.yul\":6672:6723   */\n  tag_124\n    /* \"#utility.yul\":6720:6721   */\n  0x00\n    /* \"#utility.yul\":6716:6722   */\n  not\n    /* \"#utility.yul\":6708:6713   */\n  dup5\n    /* \"#utility.yul\":6705:6706   */\n  0x08\n    /* \"#utility.yul\":6701:6714   */\n  mul\n    /* \"#utility.yul\":6672:6723   */\n  tag_41\n  jump\t// in\ntag_124:\n    /* \"#utility.yul\":6668:6724   */\n  not\n    /* \"#utility.yul\":6753:6757   */\n  dup1\n    /* \"#utility.yul\":6747:6751   */\n  dup4\n    /* \"#utility.yul\":6743:6758   */\n  and\n    /* \"#utility.yul\":6733:6758   */\n  swap2\n  pop\n    /* \"#utility.yul\":6646:6764   */\n  pop\n    /* \"#utility.yul\":6595:6764   */\n  swap3\n  swap2\n  pop\n  pop\n  jump\t// out\n    /* \"#utility.yul\":6769:7064   */\ntag_43:\n    /* \"#utility.yul\":6845:6849   */\n  0x00\n    /* \"#utility.yul\":6991:7020   */\n  tag_126\n    /* \"#utility.yul\":7016:7019   */\n  dup4\n    /* \"#utility.yul\":7010:7014   */\n  dup4\n    /* \"#utility.yul\":6991:7020   */\n  tag_42\n  jump\t// in\ntag_126:\n    /* \"#utility.yul\":6983:7020   */\n  swap2\n  pop\n    /* \"#utility.yul\":7053:7056   */\n  dup3\n    /* \"#utility.yul\":7050:7051   */\n  0x02\n    /* \"#utility.yul\":7046:7057   */\n  mul\n    /* \"#utility.yul\":7040:7044   */\n  dup3\n    /* \"#utility.yul\":7037:7058   */\n  or\n    /* \"#utility.yul\":7029:7058   */\n  swap1\n  pop\n    /* \"#utility.yul\":6769:7064   */\n  swap3\n  swap2\n  pop\n  pop\n  jump\t// out\n    /* \"#utility.yul\":7069:8464   */\ntag_8:\n    /* \"#utility.yul\":7186:7223   */\n  tag_128\n    /* \"#utility.yul\":7219:7222   */\n  dup3\n    /* \"#utility.yul\":7186:7223   */\n  tag_25\n  jump\t// in\ntag_128:\n    /* \"#utility.yul\":7288:7306   */\n  0xffffffffffffffff\n    /* \"#utility.yul\":7280:7286   */\n  dup2\n    /* \"#utility.yul\":7277:7307   */\n  gt\n    /* \"#utility.yul\":7274:7330   */\n  iszero\n  tag_129\n  jumpi\n    /* \"#utility.yul\":7310:7328   */\n  tag_130\n  tag_18\n  jump\t// in\ntag_130:\n    /* \"#utility.yul\":7274:7330   */\ntag_129:\n    /* \"#utility.yul\":7354:7392   */\n  tag_131\n    /* \"#utility.yul\":7386:7390   */\n  dup3\n    /* \"#utility.yul\":7380:7391   */\n  sload\n    /* \"#utility.yul\":7354:7392   */\n  tag_27\n  jump\t// in\ntag_131:\n    /* \"#utility.yul\":7439:7506   */\n  tag_132\n    /* \"#utility.yul\":7499:7505   */\n  dup3\n    /* \"#utility.yul\":7491:7497   */\n  dup3\n    /* \"#utility.yul\":7485:7489   */\n  dup6\n    /* \"#utility.yul\":7439:7506   */\n  tag_40\n  jump\t// in\ntag_132:\n    /* \"#utility.yul\":7533:7534   */\n  0x00\n    /* \"#utility.yul\":7557:7561   */\n  0x20\n    /* \"#utility.yul\":7544:7561   */\n  swap1\n  pop\n    /* \"#utility.yul\":7589:7591   */\n  0x1f\n    /* \"#utility.yul\":7581:7587   */\n  dup4\n    /* \"#utility.yul\":7578:7592   */\n  gt\n    /* \"#utility.yul\":7606:7607   */\n  0x01\n    /* \"#utility.yul\":7601:8219   */\n  dup2\n  eq\n  tag_134\n  jumpi\n    /* \"#utility.yul\":8263:8264   */\n  0x00\n    /* \"#utility.yul\":8280:8286   */\n  dup5\n    /* \"#utility.yul\":8277:8354   */\n  iszero\n  tag_135\n  jumpi\n    /* \"#utility.yul\":8329:8338   */\n  dup3\n    /* \"#utility.yul\":8324:8327   */\n  dup8\n    /* \"#utility.yul\":8320:8339   */\n  add\n    /* \"#utility.yul\":8314:8340   */\n  mload\n    /* \"#utility.yul\":8305:8340   */\n  swap1\n  pop\n    /* \"#utility.yul\":8277:8354   */\ntag_135:\n    /* \"#utility.yul\":8380:8447   */\n  tag_136\n    /* \"#utility.yul\":8440:8446   */\n  dup6\n    /* \"#utility.yul\":8433:8438   */\n  dup3\n    /* \"#utility.yul\":8380:8447   */\n  tag_43\n  jump\t// in\ntag_136:\n    /* \"#utility.yul\":8374:8378   */\n  dup7\n    /* \"#utility.yul\":8367:8448   */\n  sstore\n    /* \"#utility.yul\":8236:8458   */\n  pop\n    /* \"#utility.yul\":7571:8458   */\n  jump(tag_133)\n    /* \"#utility.yul\":7601:8219   */\ntag_134:\n    /* \"#utility.yul\":7653:7657   */\n  0x1f\n    /* \"#utility.yul\":7649:7658   */\n  not\n    /* \"#utility.yul\":7641:7647   */\n  dup5\n    /* \"#utility.yul\":7637:7659   */\n  and\n    /* \"#utility.yul\":7687:7724   */\n  tag_137\n    /* \"#utility.yul\":7719:7723   */\n  dup7\n    /* \"#utility.yul\":7687:7724   */\n  tag_28\n  jump\t// in\ntag_137:\n    /* \"#utility.yul\":7746:7747   */\n  0x00\n    /* \"#utility.yul\":7760:7968   */\ntag_138:\n    /* \"#utility.yul\":7774:7781   */\n  dup3\n    /* \"#utility.yul\":7771:7772   */\n  dup2\n    /* \"#utility.yul\":7768:7782   */\n  lt\n    /* \"#utility.yul\":7760:7968   */\n  iszero\n  tag_140\n  jumpi\n    /* \"#utility.yul\":7853:7862   */\n  dup5\n    /* \"#utility.yul\":7848:7851   */\n  dup10\n    /* \"#utility.yul\":7844:7863   */\n  add\n    /* \"#utility.yul\":7838:7864   */\n  mload\n    /* \"#utility.yul\":7830:7836   */\n  dup3\n    /* \"#utility.yul\":7823:7865   */\n  sstore\n    /* \"#utility.yul\":7904:7905   */\n  0x01\n    /* \"#utility.yul\":7896:7902   */\n  dup3\n    /* \"#utility.yul\":7892:7906   */\n  add\n    /* \"#utility.yul\":7882:7906   */\n  swap2\n  pop\n    /* \"#utility.yul\":7951:7953   */\n  0x20\n    /* \"#utility.yul\":7940:7949   */\n  dup6\n    /* \"#utility.yul\":7936:7954   */\n  add\n    /* \"#utility.yul\":7923:7954   */\n  swap5\n  pop\n    /* \"#utility.yul\":7797:7801   */\n  0x20\n    /* \"#utility.yul\":7794:7795   */\n  dup2\n    /* \"#utility.yul\":7790:7802   */\n  add\n    /* \"#utility.yul\":7785:7802   */\n  swap1\n  pop\n    /* \"#utility.yul\":7760:7968   */\n  jump(tag_138)\ntag_140:\n    /* \"#utility.yul\":7996:8002   */\n  dup7\n    /* \"#utility.yul\":7987:7994   */\n  dup4\n    /* \"#utility.yul\":7984:8003   */\n  lt\n    /* \"#utility.yul\":7981:8160   */\n  iszero\n  tag_141\n  jumpi\n    /* \"#utility.yul\":8054:8063   */\n  dup5\n    /* \"#utility.yul\":8049:8052   */\n  dup10\n    /* \"#utility.yul\":8045:8064   */\n  add\n    /* \"#utility.yul\":8039:8065   */\n  mload\n    /* \"#utility.yul\":8097:8145   */\n  tag_142\n    /* \"#utility.yul\":8139:8143   */\n  0x1f\n    /* \"#utility.yul\":8131:8137   */\n  dup10\n    /* \"#utility.yul\":8127:8144   */\n  and\n    /* \"#utility.yul\":8116:8125   */\n  dup3\n    /* \"#utility.yul\":8097:8145   */\n  tag_42\n  jump\t// in\ntag_142:\n    /* \"#utility.yul\":8089:8095   */\n  dup4\n    /* \"#utility.yul\":8082:8146   */\n  sstore\n    /* \"#utility.yul\":8004:8160   */\n  pop\n    /* \"#utility.yul\":7981:8160   */\ntag_141:\n    /* \"#utility.yul\":8206:8207   */\n  0x01\n    /* \"#utility.yul\":8202:8203   */\n  0x02\n    /* \"#utility.yul\":8194:8200   */\n  dup9\n    /* \"#utility.yul\":8190:8204   */\n  mul\n    /* \"#utility.yul\":8186:8208   */\n  add\n    /* \"#utility.yul\":8180:8184   */\n  dup9\n    /* \"#utility.yul\":8173:8209   */\n  sstore\n    /* \"#utility.yul\":7608:8219   */\n  pop\n  pop\n  pop\n    /* \"#utility.yul\":7571:8458   */\ntag_133:\n  pop\n    /* \"#utility.yul\":7161:8464   */\n  pop\n  pop\n  pop\n    /* \"#utility.yul\":7069:8464   */\n  pop\n  pop\n  jump\t// out\n    /* \"LPToken.sol\":5488:6455  contract LPToken is ERC20 {... */\ntag_11:\n  dataSize(sub_0)\n  dup1\n  dataOffset(sub_0)\n  0x00\n  codecopy\n  0x00\n  return\nstop\n\nsub_0: assembly {\n        /* \"LPToken.sol\":5488:6455  contract LPToken is ERC20 {... */\n      mstore(0x40, 0x80)\n      callvalue\n      dup1\n      iszero\n      tag_1\n      jumpi\n      revert(0x00, 0x00)\n    tag_1:\n      pop\n      jumpi(tag_2, lt(calldatasize, 0x04))\n      shr(0xe0, calldataload(0x00))\n      dup1\n      0x40c10f19\n      gt\n      tag_18\n      jumpi\n      dup1\n      0x9dc29fac\n      gt\n      tag_19\n      jumpi\n      dup1\n      0x9dc29fac\n      eq\n      tag_14\n      jumpi\n      dup1\n      0xa457c2d7\n      eq\n      tag_15\n      jumpi\n      dup1\n      0xa9059cbb\n      eq\n      tag_16\n      jumpi\n      dup1\n      0xdd62ed3e\n      eq\n      tag_17\n      jumpi\n      jump(tag_2)\n    tag_19:\n      dup1\n      0x40c10f19\n      eq\n      tag_10\n      jumpi\n      dup1\n      0x70a08231\n      eq\n      tag_11\n      jumpi\n      dup1\n      0x8927e052\n      eq\n      tag_12\n      jumpi\n      dup1\n      0x95d89b41\n      eq\n      tag_13\n      jumpi\n      jump(tag_2)\n    tag_18:\n      dup1\n      0x1f5870ef\n      gt\n      tag_20\n      jumpi\n      dup1\n      0x1f5870ef\n      eq\n      tag_6\n      jumpi\n      dup1\n      0x23b872dd\n      eq\n      tag_7\n      jumpi\n      dup1\n      0x313ce567\n      eq\n      tag_8\n      jumpi\n      dup1\n      0x39509351\n      eq\n      tag_9\n      jumpi\n      jump(tag_2)\n    tag_20:\n      dup1\n      0x06fdde03\n      eq\n      tag_3\n      jumpi\n      dup1\n      0x095ea7b3\n      eq\n      tag_4\n      jumpi\n      dup1\n      0x18160ddd\n      eq\n      tag_5\n      jumpi\n    tag_2:\n      revert(0x00, 0x00)\n        /* \"LPToken.sol\":1426:1509  function name() public view returns (string memory) {... */\n    tag_3:\n      tag_21\n      tag_22\n      jump\t// in\n    tag_21:\n      mload(0x40)\n      tag_23\n      swap2\n      swap1\n      tag_24\n      jump\t// in\n    tag_23:\n      mload(0x40)\n      dup1\n      swap2\n      sub\n      swap1\n      return\n        /* \"LPToken.sol\":2275:2468  function approve(address spender, uint256 amount) public override returns (bool) {... */\n    tag_4:\n      tag_25\n      0x04\n      dup1\n      calldatasize\n      sub\n      dup2\n      add\n      swap1\n      tag_26\n      swap2\n      swap1\n      tag_27\n      jump\t// in\n    tag_26:\n      tag_28\n      jump\t// in\n    tag_25:\n      mload(0x40)\n      tag_29\n      swap2\n      swap1\n      tag_30\n      jump\t// in\n    tag_29:\n      mload(0x40)\n      dup1\n      swap2\n      sub\n      swap1\n      return\n        /* \"LPToken.sol\":1696:1796  function totalSupply() public view override returns (uint256) {... */\n    tag_5:\n      tag_31\n      tag_32\n      jump\t// in\n    tag_31:\n      mload(0x40)\n      tag_33\n      swap2\n      swap1\n      tag_34\n      jump\t// in\n    tag_33:\n      mload(0x40)\n      dup1\n      swap2\n      sub\n      swap1\n      return\n        /* \"LPToken.sol\":5780:6000  function setSimpleSwap(address _simpleSwap) external {... */\n    tag_6:\n      tag_35\n      0x04\n      dup1\n      calldatasize\n      sub\n      dup2\n      add\n      swap1\n      tag_36\n      swap2\n      swap1\n      tag_37\n      jump\t// in\n    tag_36:\n      tag_38\n      jump\t// in\n    tag_35:\n      stop\n        /* \"LPToken.sol\":2476:2729  function transferFrom(address from, address to, uint256 amount) public override returns (bool) {... */\n    tag_7:\n      tag_39\n      0x04\n      dup1\n      calldatasize\n      sub\n      dup2\n      add\n      swap1\n      tag_40\n      swap2\n      swap1\n      tag_41\n      jump\t// in\n    tag_40:\n      tag_42\n      jump\t// in\n    tag_39:\n      mload(0x40)\n      tag_43\n      swap2\n      swap1\n      tag_30\n      jump\t// in\n    tag_43:\n      mload(0x40)\n      dup1\n      swap2\n      sub\n      swap1\n      return\n        /* \"LPToken.sol\":1612:1688  function decimals() public pure returns (uint8) {... */\n    tag_8:\n      tag_44\n      tag_45\n      jump\t// in\n    tag_44:\n      mload(0x40)\n      tag_46\n      swap2\n      swap1\n      tag_47\n      jump\t// in\n    tag_46:\n      mload(0x40)\n      dup1\n      swap2\n      sub\n      swap1\n      return\n        /* \"LPToken.sol\":2737:2969  function increaseAllowance(address spender, uint256 addedValue) public returns (bool) {... */\n    tag_9:\n      tag_48\n      0x04\n      dup1\n      calldatasize\n      sub\n      dup2\n      add\n      swap1\n      tag_49\n      swap2\n      swap1\n      tag_27\n      jump\t// in\n    tag_49:\n      tag_50\n      jump\t// in\n    tag_48:\n      mload(0x40)\n      tag_51\n      swap2\n      swap1\n      tag_30\n      jump\t// in\n    tag_51:\n      mload(0x40)\n      dup1\n      swap2\n      sub\n      swap1\n      return\n        /* \"LPToken.sol\":6066:6225  function mint(address to, uint256 amount) external {... */\n    tag_10:\n      tag_52\n      0x04\n      dup1\n      calldatasize\n      sub\n      dup2\n      add\n      swap1\n      tag_53\n      swap2\n      swap1\n      tag_27\n      jump\t// in\n    tag_53:\n      tag_54\n      jump\t// in\n    tag_52:\n      stop\n        /* \"LPToken.sol\":1804:1923  function balanceOf(address account) public view override returns (uint256) {... */\n    tag_11:\n      tag_55\n      0x04\n      dup1\n      calldatasize\n      sub\n      dup2\n      add\n      swap1\n      tag_56\n      swap2\n      swap1\n      tag_37\n      jump\t// in\n    tag_56:\n      tag_57\n      jump\t// in\n    tag_55:\n      mload(0x40)\n      tag_58\n      swap2\n      swap1\n      tag_34\n      jump\t// in\n    tag_58:\n      mload(0x40)\n      dup1\n      swap2\n      sub\n      swap1\n      return\n        /* \"LPToken.sol\":5520:5545  address public simpleSwap */\n    tag_12:\n      tag_59\n      tag_60\n      jump\t// in\n    tag_59:\n      mload(0x40)\n      tag_61\n      swap2\n      swap1\n      tag_62\n      jump\t// in\n    tag_61:\n      mload(0x40)\n      dup1\n      swap2\n      sub\n      swap1\n      return\n        /* \"LPToken.sol\":1517:1604  function symbol() public view returns (string memory) {... */\n    tag_13:\n      tag_63\n      tag_64\n      jump\t// in\n    tag_63:\n      mload(0x40)\n      tag_65\n      swap2\n      swap1\n      tag_24\n      jump\t// in\n    tag_65:\n      mload(0x40)\n      dup1\n      swap2\n      sub\n      swap1\n      return\n        /* \"LPToken.sol\":6289:6452  function burn(address from, uint256 amount) external {... */\n    tag_14:\n      tag_66\n      0x04\n      dup1\n      calldatasize\n      sub\n      dup2\n      add\n      swap1\n      tag_67\n      swap2\n      swap1\n      tag_27\n      jump\t// in\n    tag_67:\n      tag_68\n      jump\t// in\n    tag_66:\n      stop\n        /* \"LPToken.sol\":2977:3405  function decreaseAllowance(address spender, uint256 subtractedValue) public returns (bool) {... */\n    tag_15:\n      tag_69\n      0x04\n      dup1\n      calldatasize\n      sub\n      dup2\n      add\n      swap1\n      tag_70\n      swap2\n      swap1\n      tag_27\n      jump\t// in\n    tag_70:\n      tag_71\n      jump\t// in\n    tag_69:\n      mload(0x40)\n      tag_72\n      swap2\n      swap1\n      tag_30\n      jump\t// in\n    tag_72:\n      mload(0x40)\n      dup1\n      swap2\n      sub\n      swap1\n      return\n        /* \"LPToken.sol\":1931:2116  function transfer(address to, uint256 amount) public override returns (bool) {... */\n    tag_16:\n      tag_73\n      0x04\n      dup1\n      calldatasize\n      sub\n      dup2\n      add\n      swap1\n      tag_74\n      swap2\n      swap1\n      tag_27\n      jump\t// in\n    tag_74:\n      tag_75\n      jump\t// in\n    tag_73:\n      mload(0x40)\n      tag_76\n      swap2\n      swap1\n      tag_30\n      jump\t// in\n    tag_76:\n      mload(0x40)\n      dup1\n      swap2\n      sub\n      swap1\n      return\n        /* \"LPToken.sol\":2124:2267  function allowance(address owner, address spender) public view override returns (uint256) {... */\n    tag_17:\n      tag_77\n      0x04\n      dup1\n      calldatasize\n      sub\n      dup2\n      add\n      swap1\n      tag_78\n      swap2\n      swap1\n      tag_79\n      jump\t// in\n    tag_78:\n      tag_80\n      jump\t// in\n    tag_77:\n      mload(0x40)\n      tag_81\n      swap2\n      swap1\n      tag_34\n      jump\t// in\n    tag_81:\n      mload(0x40)\n      dup1\n      swap2\n      sub\n      swap1\n      return\n        /* \"LPToken.sol\":1426:1509  function name() public view returns (string memory) {... */\n    tag_22:\n        /* \"LPToken.sol\":1463:1476  string memory */\n      0x60\n        /* \"LPToken.sol\":1496:1501  _name */\n      0x03\n        /* \"LPToken.sol\":1489:1501  return _name */\n      dup1\n      sload\n      tag_83\n      swap1\n      tag_84\n      jump\t// in\n    tag_83:\n      dup1\n      0x1f\n      add\n      0x20\n      dup1\n      swap2\n      div\n      mul\n      0x20\n      add\n      mload(0x40)\n      swap1\n      dup2\n      add\n      0x40\n      mstore\n      dup1\n      swap3\n      swap2\n      swap1\n      dup2\n      dup2\n      mstore\n      0x20\n      add\n      dup3\n      dup1\n      sload\n      tag_85\n      swap1\n      tag_84\n      jump\t// in\n    tag_85:\n      dup1\n      iszero\n      tag_86\n      jumpi\n      dup1\n      0x1f\n      lt\n      tag_87\n      jumpi\n      0x0100\n      dup1\n      dup4\n      sload\n      div\n      mul\n      dup4\n      mstore\n      swap2\n      0x20\n      add\n      swap2\n      jump(tag_86)\n    tag_87:\n      dup3\n      add\n      swap2\n      swap1\n      0x00\n      mstore\n      keccak256(0x00, 0x20)\n      swap1\n    tag_88:\n      dup2\n      sload\n      dup2\n      mstore\n      swap1\n      0x01\n      add\n      swap1\n      0x20\n      add\n      dup1\n      dup4\n      gt\n      tag_88\n      jumpi\n      dup3\n      swap1\n      sub\n      0x1f\n      and\n      dup3\n      add\n      swap2\n    tag_86:\n      pop\n      pop\n      pop\n      pop\n      pop\n      swap1\n      pop\n        /* \"LPToken.sol\":1426:1509  function name() public view returns (string memory) {... */\n      swap1\n      jump\t// out\n        /* \"LPToken.sol\":2275:2468  function approve(address spender, uint256 amount) public override returns (bool) {... */\n    tag_28:\n        /* \"LPToken.sol\":2350:2354  bool */\n      0x00\n        /* \"LPToken.sol\":2367:2380  address owner */\n      0x00\n        /* \"LPToken.sol\":2383:2395  _msgSender() */\n      tag_90\n        /* \"LPToken.sol\":2383:2393  _msgSender */\n      tag_91\n        /* \"LPToken.sol\":2383:2395  _msgSender() */\n      jump\t// in\n    tag_90:\n        /* \"LPToken.sol\":2367:2395  address owner = _msgSender() */\n      swap1\n      pop\n        /* \"LPToken.sol\":2406:2438  _approve(owner, spender, amount) */\n      tag_92\n        /* \"LPToken.sol\":2415:2420  owner */\n      dup2\n        /* \"LPToken.sol\":2422:2429  spender */\n      dup6\n        /* \"LPToken.sol\":2431:2437  amount */\n      dup6\n        /* \"LPToken.sol\":2406:2414  _approve */\n      tag_93\n        /* \"LPToken.sol\":2406:2438  _approve(owner, spender, amount) */\n      jump\t// in\n    tag_92:\n        /* \"LPToken.sol\":2456:2460  true */\n      0x01\n        /* \"LPToken.sol\":2449:2460  return true */\n      swap2\n      pop\n      pop\n        /* \"LPToken.sol\":2275:2468  function approve(address spender, uint256 amount) public override returns (bool) {... */\n      swap3\n      swap2\n      pop\n      pop\n      jump\t// out\n        /* \"LPToken.sol\":1696:1796  function totalSupply() public view override returns (uint256) {... */\n    tag_32:\n        /* \"LPToken.sol\":1749:1756  uint256 */\n      0x00\n        /* \"LPToken.sol\":1776:1788  _totalSupply */\n      sload(0x02)\n        /* \"LPToken.sol\":1769:1788  return _totalSupply */\n      swap1\n      pop\n        /* \"LPToken.sol\":1696:1796  function totalSupply() public view override returns (uint256) {... */\n      swap1\n      jump\t// out\n        /* \"LPToken.sol\":5780:6000  function setSimpleSwap(address _simpleSwap) external {... */\n    tag_38:\n        /* \"LPToken.sol\":5870:5871  0 */\n      0x00\n        /* \"LPToken.sol\":5848:5872  simpleSwap == address(0) */\n      0xffffffffffffffffffffffffffffffffffffffff\n      and\n        /* \"LPToken.sol\":5848:5858  simpleSwap */\n      0x05\n      0x00\n      swap1\n      sload\n      swap1\n      0x0100\n      exp\n      swap1\n      div\n      0xffffffffffffffffffffffffffffffffffffffff\n      and\n        /* \"LPToken.sol\":5848:5872  simpleSwap == address(0) */\n      0xffffffffffffffffffffffffffffffffffffffff\n      and\n      eq\n        /* \"LPToken.sol\":5840:5902  require(simpleSwap == address(0), \"SimpleSwap ya fue seteado\") */\n      tag_96\n      jumpi\n      mload(0x40)\n      0x08c379a000000000000000000000000000000000000000000000000000000000\n      dup2\n      mstore\n      0x04\n      add\n      tag_97\n      swap1\n      tag_98\n      jump\t// in\n    tag_97:\n      mload(0x40)\n      dup1\n      swap2\n      sub\n      swap1\n      revert\n    tag_96:\n        /* \"LPToken.sol\":5940:5941  0 */\n      0x00\n        /* \"LPToken.sol\":5917:5942  _simpleSwap != address(0) */\n      0xffffffffffffffffffffffffffffffffffffffff\n      and\n        /* \"LPToken.sol\":5917:5928  _simpleSwap */\n      dup2\n        /* \"LPToken.sol\":5917:5942  _simpleSwap != address(0) */\n      0xffffffffffffffffffffffffffffffffffffffff\n      and\n      sub\n        /* \"LPToken.sol\":5909:5965  require(_simpleSwap != address(0), \"Direccion invalida\") */\n      tag_99\n      jumpi\n      mload(0x40)\n      0x08c379a000000000000000000000000000000000000000000000000000000000\n      dup2\n      mstore\n      0x04\n      add\n      tag_100\n      swap1\n      tag_101\n      jump\t// in\n    tag_100:\n      mload(0x40)\n      dup1\n      swap2\n      sub\n      swap1\n      revert\n    tag_99:\n        /* \"LPToken.sol\":5985:5996  _simpleSwap */\n      dup1\n        /* \"LPToken.sol\":5972:5982  simpleSwap */\n      0x05\n      0x00\n        /* \"LPToken.sol\":5972:5996  simpleSwap = _simpleSwap */\n      0x0100\n      exp\n      dup2\n      sload\n      dup2\n      0xffffffffffffffffffffffffffffffffffffffff\n      mul\n      not\n      and\n      swap1\n      dup4\n      0xffffffffffffffffffffffffffffffffffffffff\n      and\n      mul\n      or\n      swap1\n      sstore\n      pop\n        /* \"LPToken.sol\":5780:6000  function setSimpleSwap(address _simpleSwap) external {... */\n      pop\n      jump\t// out\n        /* \"LPToken.sol\":2476:2729  function transferFrom(address from, address to, uint256 amount) public override returns (bool) {... */\n    tag_42:\n        /* \"LPToken.sol\":2565:2569  bool */\n      0x00\n        /* \"LPToken.sol\":2582:2597  address spender */\n      0x00\n        /* \"LPToken.sol\":2600:2612  _msgSender() */\n      tag_103\n        /* \"LPToken.sol\":2600:2610  _msgSender */\n      tag_91\n        /* \"LPToken.sol\":2600:2612  _msgSender() */\n      jump\t// in\n    tag_103:\n        /* \"LPToken.sol\":2582:2612  address spender = _msgSender() */\n      swap1\n      pop\n        /* \"LPToken.sol\":2623:2661  _spendAllowance(from, spender, amount) */\n      tag_104\n        /* \"LPToken.sol\":2639:2643  from */\n      dup6\n        /* \"LPToken.sol\":2645:2652  spender */\n      dup3\n        /* \"LPToken.sol\":2654:2660  amount */\n      dup6\n        /* \"LPToken.sol\":2623:2638  _spendAllowance */\n      tag_105\n        /* \"LPToken.sol\":2623:2661  _spendAllowance(from, spender, amount) */\n      jump\t// in\n    tag_104:\n        /* \"LPToken.sol\":2672:2699  _transfer(from, to, amount) */\n      tag_106\n        /* \"LPToken.sol\":2682:2686  from */\n      dup6\n        /* \"LPToken.sol\":2688:2690  to */\n      dup6\n        /* \"LPToken.sol\":2692:2698  amount */\n      dup6\n        /* \"LPToken.sol\":2672:2681  _transfer */\n      tag_107\n        /* \"LPToken.sol\":2672:2699  _transfer(from, to, amount) */\n      jump\t// in\n    tag_106:\n        /* \"LPToken.sol\":2717:2721  true */\n      0x01\n        /* \"LPToken.sol\":2710:2721  return true */\n      swap2\n      pop\n      pop\n        /* \"LPToken.sol\":2476:2729  function transferFrom(address from, address to, uint256 amount) public override returns (bool) {... */\n      swap4\n      swap3\n      pop\n      pop\n      pop\n      jump\t// out\n        /* \"LPToken.sol\":1612:1688  function decimals() public pure returns (uint8) {... */\n    tag_45:\n        /* \"LPToken.sol\":1653:1658  uint8 */\n      0x00\n        /* \"LPToken.sol\":1678:1680  18 */\n      0x12\n        /* \"LPToken.sol\":1671:1680  return 18 */\n      swap1\n      pop\n        /* \"LPToken.sol\":1612:1688  function decimals() public pure returns (uint8) {... */\n      swap1\n      jump\t// out\n        /* \"LPToken.sol\":2737:2969  function increaseAllowance(address spender, uint256 addedValue) public returns (bool) {... */\n    tag_50:\n        /* \"LPToken.sol\":2817:2821  bool */\n      0x00\n        /* \"LPToken.sol\":2834:2847  address owner */\n      0x00\n        /* \"LPToken.sol\":2850:2862  _msgSender() */\n      tag_110\n        /* \"LPToken.sol\":2850:2860  _msgSender */\n      tag_91\n        /* \"LPToken.sol\":2850:2862  _msgSender() */\n      jump\t// in\n    tag_110:\n        /* \"LPToken.sol\":2834:2862  address owner = _msgSender() */\n      swap1\n      pop\n        /* \"LPToken.sol\":2873:2939  _approve(owner, spender, _allowances[owner][spender] + addedValue) */\n      tag_111\n        /* \"LPToken.sol\":2882:2887  owner */\n      dup2\n        /* \"LPToken.sol\":2889:2896  spender */\n      dup6\n        /* \"LPToken.sol\":2928:2938  addedValue */\n      dup6\n        /* \"LPToken.sol\":2898:2909  _allowances */\n      0x01\n        /* \"LPToken.sol\":2898:2916  _allowances[owner] */\n      0x00\n        /* \"LPToken.sol\":2910:2915  owner */\n      dup7\n        /* \"LPToken.sol\":2898:2916  _allowances[owner] */\n      0xffffffffffffffffffffffffffffffffffffffff\n      and\n      0xffffffffffffffffffffffffffffffffffffffff\n      and\n      dup2\n      mstore\n      0x20\n      add\n      swap1\n      dup2\n      mstore\n      0x20\n      add\n      0x00\n      keccak256\n        /* \"LPToken.sol\":2898:2925  _allowances[owner][spender] */\n      0x00\n        /* \"LPToken.sol\":2917:2924  spender */\n      dup10\n        /* \"LPToken.sol\":2898:2925  _allowances[owner][spender] */\n      0xffffffffffffffffffffffffffffffffffffffff\n      and\n      0xffffffffffffffffffffffffffffffffffffffff\n      and\n      dup2\n      mstore\n      0x20\n      add\n      swap1\n      dup2\n      mstore\n      0x20\n      add\n      0x00\n      keccak256\n      sload\n        /* \"LPToken.sol\":2898:2938  _allowances[owner][spender] + addedValue */\n      tag_112\n      swap2\n      swap1\n      tag_113\n      jump\t// in\n    tag_112:\n        /* \"LPToken.sol\":2873:2881  _approve */\n      tag_93\n        /* \"LPToken.sol\":2873:2939  _approve(owner, spender, _allowances[owner][spender] + addedValue) */\n      jump\t// in\n    tag_111:\n        /* \"LPToken.sol\":2957:2961  true */\n      0x01\n        /* \"LPToken.sol\":2950:2961  return true */\n      swap2\n      pop\n      pop\n        /* \"LPToken.sol\":2737:2969  function increaseAllowance(address spender, uint256 addedValue) public returns (bool) {... */\n      swap3\n      swap2\n      pop\n      pop\n      jump\t// out\n        /* \"LPToken.sol\":6066:6225  function mint(address to, uint256 amount) external {... */\n    tag_54:\n        /* \"LPToken.sol\":6150:6160  simpleSwap */\n      0x05\n      0x00\n      swap1\n      sload\n      swap1\n      0x0100\n      exp\n      swap1\n      div\n      0xffffffffffffffffffffffffffffffffffffffff\n      and\n        /* \"LPToken.sol\":6136:6160  msg.sender == simpleSwap */\n      0xffffffffffffffffffffffffffffffffffffffff\n      and\n        /* \"LPToken.sol\":6136:6146  msg.sender */\n      caller\n        /* \"LPToken.sol\":6136:6160  msg.sender == simpleSwap */\n      0xffffffffffffffffffffffffffffffffffffffff\n      and\n      eq\n        /* \"LPToken.sol\":6128:6189  require(msg.sender == simpleSwap, \"Only SimpleSwap can mint\") */\n      tag_115\n      jumpi\n      mload(0x40)\n      0x08c379a000000000000000000000000000000000000000000000000000000000\n      dup2\n      mstore\n      0x04\n      add\n      tag_116\n      swap1\n      tag_117\n      jump\t// in\n    tag_116:\n      mload(0x40)\n      dup1\n      swap2\n      sub\n      swap1\n      revert\n    tag_115:\n        /* \"LPToken.sol\":6200:6217  _mint(to, amount) */\n      tag_118\n        /* \"LPToken.sol\":6206:6208  to */\n      dup3\n        /* \"LPToken.sol\":6210:6216  amount */\n      dup3\n        /* \"LPToken.sol\":6200:6205  _mint */\n      tag_119\n        /* \"LPToken.sol\":6200:6217  _mint(to, amount) */\n      jump\t// in\n    tag_118:\n        /* \"LPToken.sol\":6066:6225  function mint(address to, uint256 amount) external {... */\n      pop\n      pop\n      jump\t// out\n        /* \"LPToken.sol\":1804:1923  function balanceOf(address account) public view override returns (uint256) {... */\n    tag_57:\n        /* \"LPToken.sol\":1870:1877  uint256 */\n      0x00\n        /* \"LPToken.sol\":1897:1906  _balances */\n      0x00\n        /* \"LPToken.sol\":1897:1915  _balances[account] */\n      0x00\n        /* \"LPToken.sol\":1907:1914  account */\n      dup4\n        /* \"LPToken.sol\":1897:1915  _balances[account] */\n      0xffffffffffffffffffffffffffffffffffffffff\n      and\n      0xffffffffffffffffffffffffffffffffffffffff\n      and\n      dup2\n      mstore\n      0x20\n      add\n      swap1\n      dup2\n      mstore\n      0x20\n      add\n      0x00\n      keccak256\n      sload\n        /* \"LPToken.sol\":1890:1915  return _balances[account] */\n      swap1\n      pop\n        /* \"LPToken.sol\":1804:1923  function balanceOf(address account) public view override returns (uint256) {... */\n      swap2\n      swap1\n      pop\n      jump\t// out\n        /* \"LPToken.sol\":5520:5545  address public simpleSwap */\n    tag_60:\n      0x05\n      0x00\n      swap1\n      sload\n      swap1\n      0x0100\n      exp\n      swap1\n      div\n      0xffffffffffffffffffffffffffffffffffffffff\n      and\n      dup2\n      jump\t// out\n        /* \"LPToken.sol\":1517:1604  function symbol() public view returns (string memory) {... */\n    tag_64:\n        /* \"LPToken.sol\":1556:1569  string memory */\n      0x60\n        /* \"LPToken.sol\":1589:1596  _symbol */\n      0x04\n        /* \"LPToken.sol\":1582:1596  return _symbol */\n      dup1\n      sload\n      tag_122\n      swap1\n      tag_84\n      jump\t// in\n    tag_122:\n      dup1\n      0x1f\n      add\n      0x20\n      dup1\n      swap2\n      div\n      mul\n      0x20\n      add\n      mload(0x40)\n      swap1\n      dup2\n      add\n      0x40\n      mstore\n      dup1\n      swap3\n      swap2\n      swap1\n      dup2\n      dup2\n      mstore\n      0x20\n      add\n      dup3\n      dup1\n      sload\n      tag_123\n      swap1\n      tag_84\n      jump\t// in\n    tag_123:\n      dup1\n      iszero\n      tag_124\n      jumpi\n      dup1\n      0x1f\n      lt\n      tag_125\n      jumpi\n      0x0100\n      dup1\n      dup4\n      sload\n      div\n      mul\n      dup4\n      mstore\n      swap2\n      0x20\n      add\n      swap2\n      jump(tag_124)\n    tag_125:\n      dup3\n      add\n      swap2\n      swap1\n      0x00\n      mstore\n      keccak256(0x00, 0x20)\n      swap1\n    tag_126:\n      dup2\n      sload\n      dup2\n      mstore\n      swap1\n      0x01\n      add\n      swap1\n      0x20\n      add\n      dup1\n      dup4\n      gt\n      tag_126\n      jumpi\n      dup3\n      swap1\n      sub\n      0x1f\n      and\n      dup3\n      add\n      swap2\n    tag_124:\n      pop\n      pop\n      pop\n      pop\n      pop\n      swap1\n      pop\n        /* \"LPToken.sol\":1517:1604  function symbol() public view returns (string memory) {... */\n      swap1\n      jump\t// out\n        /* \"LPToken.sol\":6289:6452  function burn(address from, uint256 amount) external {... */\n    tag_68:\n        /* \"LPToken.sol\":6375:6385  simpleSwap */\n      0x05\n      0x00\n      swap1\n      sload\n      swap1\n      0x0100\n      exp\n      swap1\n      div\n      0xffffffffffffffffffffffffffffffffffffffff\n      and\n        /* \"LPToken.sol\":6361:6385  msg.sender == simpleSwap */\n      0xffffffffffffffffffffffffffffffffffffffff\n      and\n        /* \"LPToken.sol\":6361:6371  msg.sender */\n      caller\n        /* \"LPToken.sol\":6361:6385  msg.sender == simpleSwap */\n      0xffffffffffffffffffffffffffffffffffffffff\n      and\n      eq\n        /* \"LPToken.sol\":6353:6414  require(msg.sender == simpleSwap, \"Only SimpleSwap can burn\") */\n      tag_128\n      jumpi\n      mload(0x40)\n      0x08c379a000000000000000000000000000000000000000000000000000000000\n      dup2\n      mstore\n      0x04\n      add\n      tag_129\n      swap1\n      tag_130\n      jump\t// in\n    tag_129:\n      mload(0x40)\n      dup1\n      swap2\n      sub\n      swap1\n      revert\n    tag_128:\n        /* \"LPToken.sol\":6425:6444  _burn(from, amount) */\n      tag_131\n        /* \"LPToken.sol\":6431:6435  from */\n      dup3\n        /* \"LPToken.sol\":6437:6443  amount */\n      dup3\n        /* \"LPToken.sol\":6425:6430  _burn */\n      tag_132\n        /* \"LPToken.sol\":6425:6444  _burn(from, amount) */\n      jump\t// in\n    tag_131:\n        /* \"LPToken.sol\":6289:6452  function burn(address from, uint256 amount) external {... */\n      pop\n      pop\n      jump\t// out\n        /* \"LPToken.sol\":2977:3405  function decreaseAllowance(address spender, uint256 subtractedValue) public returns (bool) {... */\n    tag_71:\n        /* \"LPToken.sol\":3062:3066  bool */\n      0x00\n        /* \"LPToken.sol\":3079:3092  address owner */\n      0x00\n        /* \"LPToken.sol\":3095:3107  _msgSender() */\n      tag_134\n        /* \"LPToken.sol\":3095:3105  _msgSender */\n      tag_91\n        /* \"LPToken.sol\":3095:3107  _msgSender() */\n      jump\t// in\n    tag_134:\n        /* \"LPToken.sol\":3079:3107  address owner = _msgSender() */\n      swap1\n      pop\n        /* \"LPToken.sol\":3118:3142  uint256 currentAllowance */\n      0x00\n        /* \"LPToken.sol\":3145:3156  _allowances */\n      0x01\n        /* \"LPToken.sol\":3145:3163  _allowances[owner] */\n      0x00\n        /* \"LPToken.sol\":3157:3162  owner */\n      dup4\n        /* \"LPToken.sol\":3145:3163  _allowances[owner] */\n      0xffffffffffffffffffffffffffffffffffffffff\n      and\n      0xffffffffffffffffffffffffffffffffffffffff\n      and\n      dup2\n      mstore\n      0x20\n      add\n      swap1\n      dup2\n      mstore\n      0x20\n      add\n      0x00\n      keccak256\n        /* \"LPToken.sol\":3145:3172  _allowances[owner][spender] */\n      0x00\n        /* \"LPToken.sol\":3164:3171  spender */\n      dup7\n        /* \"LPToken.sol\":3145:3172  _allowances[owner][spender] */\n      0xffffffffffffffffffffffffffffffffffffffff\n      and\n      0xffffffffffffffffffffffffffffffffffffffff\n      and\n      dup2\n      mstore\n      0x20\n      add\n      swap1\n      dup2\n      mstore\n      0x20\n      add\n      0x00\n      keccak256\n      sload\n        /* \"LPToken.sol\":3118:3172  uint256 currentAllowance = _allowances[owner][spender] */\n      swap1\n      pop\n        /* \"LPToken.sol\":3211:3226  subtractedValue */\n      dup4\n        /* \"LPToken.sol\":3191:3207  currentAllowance */\n      dup2\n        /* \"LPToken.sol\":3191:3226  currentAllowance >= subtractedValue */\n      lt\n      iszero\n        /* \"LPToken.sol\":3183:3268  require(currentAllowance >= subtractedValue, \"ERC20: decreased allowance below zero\") */\n      tag_135\n      jumpi\n      mload(0x40)\n      0x08c379a000000000000000000000000000000000000000000000000000000000\n      dup2\n      mstore\n      0x04\n      add\n      tag_136\n      swap1\n      tag_137\n      jump\t// in\n    tag_136:\n      mload(0x40)\n      dup1\n      swap2\n      sub\n      swap1\n      revert\n    tag_135:\n        /* \"LPToken.sol\":3304:3364  _approve(owner, spender, currentAllowance - subtractedValue) */\n      tag_138\n        /* \"LPToken.sol\":3313:3318  owner */\n      dup3\n        /* \"LPToken.sol\":3320:3327  spender */\n      dup7\n        /* \"LPToken.sol\":3348:3363  subtractedValue */\n      dup7\n        /* \"LPToken.sol\":3329:3345  currentAllowance */\n      dup5\n        /* \"LPToken.sol\":3329:3363  currentAllowance - subtractedValue */\n      sub\n        /* \"LPToken.sol\":3304:3312  _approve */\n      tag_93\n        /* \"LPToken.sol\":3304:3364  _approve(owner, spender, currentAllowance - subtractedValue) */\n      jump\t// in\n    tag_138:\n        /* \"LPToken.sol\":3393:3397  true */\n      0x01\n        /* \"LPToken.sol\":3386:3397  return true */\n      swap3\n      pop\n      pop\n      pop\n        /* \"LPToken.sol\":2977:3405  function decreaseAllowance(address spender, uint256 subtractedValue) public returns (bool) {... */\n      swap3\n      swap2\n      pop\n      pop\n      jump\t// out\n        /* \"LPToken.sol\":1931:2116  function transfer(address to, uint256 amount) public override returns (bool) {... */\n    tag_75:\n        /* \"LPToken.sol\":2002:2006  bool */\n      0x00\n        /* \"LPToken.sol\":2019:2032  address owner */\n      0x00\n        /* \"LPToken.sol\":2035:2047  _msgSender() */\n      tag_140\n        /* \"LPToken.sol\":2035:2045  _msgSender */\n      tag_91\n        /* \"LPToken.sol\":2035:2047  _msgSender() */\n      jump\t// in\n    tag_140:\n        /* \"LPToken.sol\":2019:2047  address owner = _msgSender() */\n      swap1\n      pop\n        /* \"LPToken.sol\":2058:2086  _transfer(owner, to, amount) */\n      tag_141\n        /* \"LPToken.sol\":2068:2073  owner */\n      dup2\n        /* \"LPToken.sol\":2075:2077  to */\n      dup6\n        /* \"LPToken.sol\":2079:2085  amount */\n      dup6\n        /* \"LPToken.sol\":2058:2067  _transfer */\n      tag_107\n        /* \"LPToken.sol\":2058:2086  _transfer(owner, to, amount) */\n      jump\t// in\n    tag_141:\n        /* \"LPToken.sol\":2104:2108  true */\n      0x01\n        /* \"LPToken.sol\":2097:2108  return true */\n      swap2\n      pop\n      pop\n        /* \"LPToken.sol\":1931:2116  function transfer(address to, uint256 amount) public override returns (bool) {... */\n      swap3\n      swap2\n      pop\n      pop\n      jump\t// out\n        /* \"LPToken.sol\":2124:2267  function allowance(address owner, address spender) public view override returns (uint256) {... */\n    tag_80:\n        /* \"LPToken.sol\":2205:2212  uint256 */\n      0x00\n        /* \"LPToken.sol\":2232:2243  _allowances */\n      0x01\n        /* \"LPToken.sol\":2232:2250  _allowances[owner] */\n      0x00\n        /* \"LPToken.sol\":2244:2249  owner */\n      dup5\n        /* \"LPToken.sol\":2232:2250  _allowances[owner] */\n      0xffffffffffffffffffffffffffffffffffffffff\n      and\n      0xffffffffffffffffffffffffffffffffffffffff\n      and\n      dup2\n      mstore\n      0x20\n      add\n      swap1\n      dup2\n      mstore\n      0x20\n      add\n      0x00\n      keccak256\n        /* \"LPToken.sol\":2232:2259  _allowances[owner][spender] */\n      0x00\n        /* \"LPToken.sol\":2251:2258  spender */\n      dup4\n        /* \"LPToken.sol\":2232:2259  _allowances[owner][spender] */\n      0xffffffffffffffffffffffffffffffffffffffff\n      and\n      0xffffffffffffffffffffffffffffffffffffffff\n      and\n      dup2\n      mstore\n      0x20\n      add\n      swap1\n      dup2\n      mstore\n      0x20\n      add\n      0x00\n      keccak256\n      sload\n        /* \"LPToken.sol\":2225:2259  return _allowances[owner][spender] */\n      swap1\n      pop\n        /* \"LPToken.sol\":2124:2267  function allowance(address owner, address spender) public view override returns (uint256) {... */\n      swap3\n      swap2\n      pop\n      pop\n      jump\t// out\n        /* \"LPToken.sol\":885:983  function _msgSender() internal view virtual returns (address) {... */\n    tag_91:\n        /* \"LPToken.sol\":938:945  address */\n      0x00\n        /* \"LPToken.sol\":965:975  msg.sender */\n      caller\n        /* \"LPToken.sol\":958:975  return msg.sender */\n      swap1\n      pop\n        /* \"LPToken.sol\":885:983  function _msgSender() internal view virtual returns (address) {... */\n      swap1\n      jump\t// out\n        /* \"LPToken.sol\":4653:4967  function _approve(address owner, address spender, uint256 amount) internal {... */\n    tag_93:\n        /* \"LPToken.sol\":4764:4765  0 */\n      0x00\n        /* \"LPToken.sol\":4747:4766  owner != address(0) */\n      0xffffffffffffffffffffffffffffffffffffffff\n      and\n        /* \"LPToken.sol\":4747:4752  owner */\n      dup4\n        /* \"LPToken.sol\":4747:4766  owner != address(0) */\n      0xffffffffffffffffffffffffffffffffffffffff\n      and\n      sub\n        /* \"LPToken.sol\":4739:4795  require(owner != address(0), \"ERC20: approve from zero\") */\n      tag_145\n      jumpi\n      mload(0x40)\n      0x08c379a000000000000000000000000000000000000000000000000000000000\n      dup2\n      mstore\n      0x04\n      add\n      tag_146\n      swap1\n      tag_147\n      jump\t// in\n    tag_146:\n      mload(0x40)\n      dup1\n      swap2\n      sub\n      swap1\n      revert\n    tag_145:\n        /* \"LPToken.sol\":4833:4834  0 */\n      0x00\n        /* \"LPToken.sol\":4814:4835  spender != address(0) */\n      0xffffffffffffffffffffffffffffffffffffffff\n      and\n        /* \"LPToken.sol\":4814:4821  spender */\n      dup3\n        /* \"LPToken.sol\":4814:4835  spender != address(0) */\n      0xffffffffffffffffffffffffffffffffffffffff\n      and\n      sub\n        /* \"LPToken.sol\":4806:4862  require(spender != address(0), \"ERC20: approve to zero\") */\n      tag_148\n      jumpi\n      mload(0x40)\n      0x08c379a000000000000000000000000000000000000000000000000000000000\n      dup2\n      mstore\n      0x04\n      add\n      tag_149\n      swap1\n      tag_150\n      jump\t// in\n    tag_149:\n      mload(0x40)\n      dup1\n      swap2\n      sub\n      swap1\n      revert\n    tag_148:\n        /* \"LPToken.sol\":4905:4911  amount */\n      dup1\n        /* \"LPToken.sol\":4875:4886  _allowances */\n      0x01\n        /* \"LPToken.sol\":4875:4893  _allowances[owner] */\n      0x00\n        /* \"LPToken.sol\":4887:4892  owner */\n      dup6\n        /* \"LPToken.sol\":4875:4893  _allowances[owner] */\n      0xffffffffffffffffffffffffffffffffffffffff\n      and\n      0xffffffffffffffffffffffffffffffffffffffff\n      and\n      dup2\n      mstore\n      0x20\n      add\n      swap1\n      dup2\n      mstore\n      0x20\n      add\n      0x00\n      keccak256\n        /* \"LPToken.sol\":4875:4902  _allowances[owner][spender] */\n      0x00\n        /* \"LPToken.sol\":4894:4901  spender */\n      dup5\n        /* \"LPToken.sol\":4875:4902  _allowances[owner][spender] */\n      0xffffffffffffffffffffffffffffffffffffffff\n      and\n      0xffffffffffffffffffffffffffffffffffffffff\n      and\n      dup2\n      mstore\n      0x20\n      add\n      swap1\n      dup2\n      mstore\n      0x20\n      add\n      0x00\n      keccak256\n        /* \"LPToken.sol\":4875:4911  _allowances[owner][spender] = amount */\n      dup2\n      swap1\n      sstore\n      pop\n        /* \"LPToken.sol\":4943:4950  spender */\n      dup2\n        /* \"LPToken.sol\":4927:4959  Approval(owner, spender, amount) */\n      0xffffffffffffffffffffffffffffffffffffffff\n      and\n        /* \"LPToken.sol\":4936:4941  owner */\n      dup4\n        /* \"LPToken.sol\":4927:4959  Approval(owner, spender, amount) */\n      0xffffffffffffffffffffffffffffffffffffffff\n      and\n      0x8c5be1e5ebec7d5bd14f71427d1e84f3dd0314c0f7b2291e5b200ac8c7c3b925\n        /* \"LPToken.sol\":4952:4958  amount */\n      dup4\n        /* \"LPToken.sol\":4927:4959  Approval(owner, spender, amount) */\n      mload(0x40)\n      tag_151\n      swap2\n      swap1\n      tag_34\n      jump\t// in\n    tag_151:\n      mload(0x40)\n      dup1\n      swap2\n      sub\n      swap1\n      log3\n        /* \"LPToken.sol\":4653:4967  function _approve(address owner, address spender, uint256 amount) internal {... */\n      pop\n      pop\n      pop\n      jump\t// out\n        /* \"LPToken.sol\":4975:5388  function _spendAllowance(address owner, address spender, uint256 amount) internal {... */\n    tag_105:\n        /* \"LPToken.sol\":5068:5092  uint256 currentAllowance */\n      0x00\n        /* \"LPToken.sol\":5095:5106  _allowances */\n      0x01\n        /* \"LPToken.sol\":5095:5113  _allowances[owner] */\n      0x00\n        /* \"LPToken.sol\":5107:5112  owner */\n      dup6\n        /* \"LPToken.sol\":5095:5113  _allowances[owner] */\n      0xffffffffffffffffffffffffffffffffffffffff\n      and\n      0xffffffffffffffffffffffffffffffffffffffff\n      and\n      dup2\n      mstore\n      0x20\n      add\n      swap1\n      dup2\n      mstore\n      0x20\n      add\n      0x00\n      keccak256\n        /* \"LPToken.sol\":5095:5122  _allowances[owner][spender] */\n      0x00\n        /* \"LPToken.sol\":5114:5121  spender */\n      dup5\n        /* \"LPToken.sol\":5095:5122  _allowances[owner][spender] */\n      0xffffffffffffffffffffffffffffffffffffffff\n      and\n      0xffffffffffffffffffffffffffffffffffffffff\n      and\n      dup2\n      mstore\n      0x20\n      add\n      swap1\n      dup2\n      mstore\n      0x20\n      add\n      0x00\n      keccak256\n      sload\n        /* \"LPToken.sol\":5068:5122  uint256 currentAllowance = _allowances[owner][spender] */\n      swap1\n      pop\n        /* \"LPToken.sol\":5157:5174  type(uint256).max */\n      0xffffffffffffffffffffffffffffffffffffffffffffffffffffffffffffffff\n        /* \"LPToken.sol\":5137:5153  currentAllowance */\n      dup2\n        /* \"LPToken.sol\":5137:5174  currentAllowance != type(uint256).max */\n      eq\n        /* \"LPToken.sol\":5133:5381  if (currentAllowance != type(uint256).max) {... */\n      tag_153\n      jumpi\n        /* \"LPToken.sol\":5219:5225  amount */\n      dup2\n        /* \"LPToken.sol\":5199:5215  currentAllowance */\n      dup2\n        /* \"LPToken.sol\":5199:5225  currentAllowance >= amount */\n      lt\n      iszero\n        /* \"LPToken.sol\":5191:5259  require(currentAllowance >= amount, \"ERC20: insufficient allowance\") */\n      tag_154\n      jumpi\n      mload(0x40)\n      0x08c379a000000000000000000000000000000000000000000000000000000000\n      dup2\n      mstore\n      0x04\n      add\n      tag_155\n      swap1\n      tag_156\n      jump\t// in\n    tag_155:\n      mload(0x40)\n      dup1\n      swap2\n      sub\n      swap1\n      revert\n    tag_154:\n        /* \"LPToken.sol\":5303:5354  _approve(owner, spender, currentAllowance - amount) */\n      tag_157\n        /* \"LPToken.sol\":5312:5317  owner */\n      dup5\n        /* \"LPToken.sol\":5319:5326  spender */\n      dup5\n        /* \"LPToken.sol\":5347:5353  amount */\n      dup5\n        /* \"LPToken.sol\":5328:5344  currentAllowance */\n      dup5\n        /* \"LPToken.sol\":5328:5353  currentAllowance - amount */\n      sub\n        /* \"LPToken.sol\":5303:5311  _approve */\n      tag_93\n        /* \"LPToken.sol\":5303:5354  _approve(owner, spender, currentAllowance - amount) */\n      jump\t// in\n    tag_157:\n        /* \"LPToken.sol\":5133:5381  if (currentAllowance != type(uint256).max) {... */\n    tag_153:\n        /* \"LPToken.sol\":5057:5388  {... */\n      pop\n        /* \"LPToken.sol\":4975:5388  function _spendAllowance(address owner, address spender, uint256 amount) internal {... */\n      pop\n      pop\n      pop\n      jump\t// out\n        /* \"LPToken.sol\":3413:3919  function _transfer(address from, address to, uint256 amount) internal {... */\n    tag_107:\n        /* \"LPToken.sol\":3518:3519  0 */\n      0x00\n        /* \"LPToken.sol\":3502:3520  from != address(0) */\n      0xffffffffffffffffffffffffffffffffffffffff\n      and\n        /* \"LPToken.sol\":3502:3506  from */\n      dup4\n        /* \"LPToken.sol\":3502:3520  from != address(0) */\n      0xffffffffffffffffffffffffffffffffffffffff\n      and\n      sub\n        /* \"LPToken.sol\":3494:3550  require(from != address(0), \"ERC20: transfer from zero\") */\n      tag_159\n      jumpi\n      mload(0x40)\n      0x08c379a000000000000000000000000000000000000000000000000000000000\n      dup2\n      mstore\n      0x04\n      add\n      tag_160\n      swap1\n      tag_161\n      jump\t// in\n    tag_160:\n      mload(0x40)\n      dup1\n      swap2\n      sub\n      swap1\n      revert\n    tag_159:\n        /* \"LPToken.sol\":3583:3584  0 */\n      0x00\n        /* \"LPToken.sol\":3569:3585  to != address(0) */\n      0xffffffffffffffffffffffffffffffffffffffff\n      and\n        /* \"LPToken.sol\":3569:3571  to */\n      dup3\n        /* \"LPToken.sol\":3569:3585  to != address(0) */\n      0xffffffffffffffffffffffffffffffffffffffff\n      and\n      sub\n        /* \"LPToken.sol\":3561:3613  require(to != address(0), \"ERC20: transfer to zero\") */\n      tag_162\n      jumpi\n      mload(0x40)\n      0x08c379a000000000000000000000000000000000000000000000000000000000\n      dup2\n      mstore\n      0x04\n      add\n      tag_163\n      swap1\n      tag_164\n      jump\t// in\n    tag_163:\n      mload(0x40)\n      dup1\n      swap2\n      sub\n      swap1\n      revert\n    tag_162:\n        /* \"LPToken.sol\":3626:3645  uint256 fromBalance */\n      0x00\n        /* \"LPToken.sol\":3648:3657  _balances */\n      0x00\n        /* \"LPToken.sol\":3648:3663  _balances[from] */\n      0x00\n        /* \"LPToken.sol\":3658:3662  from */\n      dup6\n        /* \"LPToken.sol\":3648:3663  _balances[from] */\n      0xffffffffffffffffffffffffffffffffffffffff\n      and\n      0xffffffffffffffffffffffffffffffffffffffff\n      and\n      dup2\n      mstore\n      0x20\n      add\n      swap1\n      dup2\n      mstore\n      0x20\n      add\n      0x00\n      keccak256\n      sload\n        /* \"LPToken.sol\":3626:3663  uint256 fromBalance = _balances[from] */\n      swap1\n      pop\n        /* \"LPToken.sol\":3697:3703  amount */\n      dup2\n        /* \"LPToken.sol\":3682:3693  fromBalance */\n      dup2\n        /* \"LPToken.sol\":3682:3703  fromBalance >= amount */\n      lt\n      iszero\n        /* \"LPToken.sol\":3674:3746  require(fromBalance >= amount, \"ERC20: transfer amount exceeds balance\") */\n      tag_165\n      jumpi\n      mload(0x40)\n      0x08c379a000000000000000000000000000000000000000000000000000000000\n      dup2\n      mstore\n      0x04\n      add\n      tag_166\n      swap1\n      tag_167\n      jump\t// in\n    tag_166:\n      mload(0x40)\n      dup1\n      swap2\n      sub\n      swap1\n      revert\n    tag_165:\n        /* \"LPToken.sol\":3816:3822  amount */\n      dup2\n        /* \"LPToken.sol\":3802:3813  fromBalance */\n      dup2\n        /* \"LPToken.sol\":3802:3822  fromBalance - amount */\n      sub\n        /* \"LPToken.sol\":3784:3793  _balances */\n      0x00\n        /* \"LPToken.sol\":3784:3799  _balances[from] */\n      0x00\n        /* \"LPToken.sol\":3794:3798  from */\n      dup7\n        /* \"LPToken.sol\":3784:3799  _balances[from] */\n      0xffffffffffffffffffffffffffffffffffffffff\n      and\n      0xffffffffffffffffffffffffffffffffffffffff\n      and\n      dup2\n      mstore\n      0x20\n      add\n      swap1\n      dup2\n      mstore\n      0x20\n      add\n      0x00\n      keccak256\n        /* \"LPToken.sol\":3784:3822  _balances[from] = fromBalance - amount */\n      dup2\n      swap1\n      sstore\n      pop\n        /* \"LPToken.sol\":3861:3867  amount */\n      dup2\n        /* \"LPToken.sol\":3844:3853  _balances */\n      0x00\n        /* \"LPToken.sol\":3844:3857  _balances[to] */\n      0x00\n        /* \"LPToken.sol\":3854:3856  to */\n      dup6\n        /* \"LPToken.sol\":3844:3857  _balances[to] */\n      0xffffffffffffffffffffffffffffffffffffffff\n      and\n      0xffffffffffffffffffffffffffffffffffffffff\n      and\n      dup2\n      mstore\n      0x20\n      add\n      swap1\n      dup2\n      mstore\n      0x20\n      add\n      0x00\n      keccak256\n      0x00\n        /* \"LPToken.sol\":3844:3867  _balances[to] += amount */\n      dup3\n      dup3\n      sload\n      tag_168\n      swap2\n      swap1\n      tag_113\n      jump\t// in\n    tag_168:\n      swap3\n      pop\n      pop\n      dup2\n      swap1\n      sstore\n      pop\n        /* \"LPToken.sol\":3900:3902  to */\n      dup3\n        /* \"LPToken.sol\":3885:3911  Transfer(from, to, amount) */\n      0xffffffffffffffffffffffffffffffffffffffff\n      and\n        /* \"LPToken.sol\":3894:3898  from */\n      dup5\n        /* \"LPToken.sol\":3885:3911  Transfer(from, to, amount) */\n      0xffffffffffffffffffffffffffffffffffffffff\n      and\n      0xddf252ad1be2c89b69c2b068fc378daa952ba7f163c4a11628f55a4df523b3ef\n        /* \"LPToken.sol\":3904:3910  amount */\n      dup5\n        /* \"LPToken.sol\":3885:3911  Transfer(from, to, amount) */\n      mload(0x40)\n      tag_169\n      swap2\n      swap1\n      tag_34\n      jump\t// in\n    tag_169:\n      mload(0x40)\n      dup1\n      swap2\n      sub\n      swap1\n      log3\n        /* \"LPToken.sol\":3483:3919  {... */\n      pop\n        /* \"LPToken.sol\":3413:3919  function _transfer(address from, address to, uint256 amount) internal {... */\n      pop\n      pop\n      pop\n      jump\t// out\n        /* \"LPToken.sol\":3927:4183  function _mint(address account, uint256 amount) internal {... */\n    tag_119:\n        /* \"LPToken.sol\":4022:4023  0 */\n      0x00\n        /* \"LPToken.sol\":4003:4024  account != address(0) */\n      0xffffffffffffffffffffffffffffffffffffffff\n      and\n        /* \"LPToken.sol\":4003:4010  account */\n      dup3\n        /* \"LPToken.sol\":4003:4024  account != address(0) */\n      0xffffffffffffffffffffffffffffffffffffffff\n      and\n      sub\n        /* \"LPToken.sol\":3995:4048  require(account != address(0), \"ERC20: mint to zero\") */\n      tag_171\n      jumpi\n      mload(0x40)\n      0x08c379a000000000000000000000000000000000000000000000000000000000\n      dup2\n      mstore\n      0x04\n      add\n      tag_172\n      swap1\n      tag_173\n      jump\t// in\n    tag_172:\n      mload(0x40)\n      dup1\n      swap2\n      sub\n      swap1\n      revert\n    tag_171:\n        /* \"LPToken.sol\":4077:4083  amount */\n      dup1\n        /* \"LPToken.sol\":4061:4073  _totalSupply */\n      0x02\n      0x00\n        /* \"LPToken.sol\":4061:4083  _totalSupply += amount */\n      dup3\n      dup3\n      sload\n      tag_174\n      swap2\n      swap1\n      tag_113\n      jump\t// in\n    tag_174:\n      swap3\n      pop\n      pop\n      dup2\n      swap1\n      sstore\n      pop\n        /* \"LPToken.sol\":4116:4122  amount */\n      dup1\n        /* \"LPToken.sol\":4094:4103  _balances */\n      0x00\n        /* \"LPToken.sol\":4094:4112  _balances[account] */\n      0x00\n        /* \"LPToken.sol\":4104:4111  account */\n      dup5\n        /* \"LPToken.sol\":4094:4112  _balances[account] */\n      0xffffffffffffffffffffffffffffffffffffffff\n      and\n      0xffffffffffffffffffffffffffffffffffffffff\n      and\n      dup2\n      mstore\n      0x20\n      add\n      swap1\n      dup2\n      mstore\n      0x20\n      add\n      0x00\n      keccak256\n      0x00\n        /* \"LPToken.sol\":4094:4122  _balances[account] += amount */\n      dup3\n      dup3\n      sload\n      tag_175\n      swap2\n      swap1\n      tag_113\n      jump\t// in\n    tag_175:\n      swap3\n      pop\n      pop\n      dup2\n      swap1\n      sstore\n      pop\n        /* \"LPToken.sol\":4159:4166  account */\n      dup2\n        /* \"LPToken.sol\":4138:4175  Transfer(address(0), account, amount) */\n      0xffffffffffffffffffffffffffffffffffffffff\n      and\n        /* \"LPToken.sol\":4155:4156  0 */\n      0x00\n        /* \"LPToken.sol\":4138:4175  Transfer(address(0), account, amount) */\n      0xffffffffffffffffffffffffffffffffffffffff\n      and\n      0xddf252ad1be2c89b69c2b068fc378daa952ba7f163c4a11628f55a4df523b3ef\n        /* \"LPToken.sol\":4168:4174  amount */\n      dup4\n        /* \"LPToken.sol\":4138:4175  Transfer(address(0), account, amount) */\n      mload(0x40)\n      tag_176\n      swap2\n      swap1\n      tag_34\n      jump\t// in\n    tag_176:\n      mload(0x40)\n      dup1\n      swap2\n      sub\n      swap1\n      log3\n        /* \"LPToken.sol\":3927:4183  function _mint(address account, uint256 amount) internal {... */\n      pop\n      pop\n      jump\t// out\n        /* \"LPToken.sol\":4191:4645  function _burn(address account, uint256 amount) internal {... */\n    tag_132:\n        /* \"LPToken.sol\":4286:4287  0 */\n      0x00\n        /* \"LPToken.sol\":4267:4288  account != address(0) */\n      0xffffffffffffffffffffffffffffffffffffffff\n      and\n        /* \"LPToken.sol\":4267:4274  account */\n      dup3\n        /* \"LPToken.sol\":4267:4288  account != address(0) */\n      0xffffffffffffffffffffffffffffffffffffffff\n      and\n      sub\n        /* \"LPToken.sol\":4259:4314  require(account != address(0), \"ERC20: burn from zero\") */\n      tag_178\n      jumpi\n      mload(0x40)\n      0x08c379a000000000000000000000000000000000000000000000000000000000\n      dup2\n      mstore\n      0x04\n      add\n      tag_179\n      swap1\n      tag_180\n      jump\t// in\n    tag_179:\n      mload(0x40)\n      dup1\n      swap2\n      sub\n      swap1\n      revert\n    tag_178:\n        /* \"LPToken.sol\":4327:4349  uint256 accountBalance */\n      0x00\n        /* \"LPToken.sol\":4352:4361  _balances */\n      0x00\n        /* \"LPToken.sol\":4352:4370  _balances[account] */\n      0x00\n        /* \"LPToken.sol\":4362:4369  account */\n      dup5\n        /* \"LPToken.sol\":4352:4370  _balances[account] */\n      0xffffffffffffffffffffffffffffffffffffffff\n      and\n      0xffffffffffffffffffffffffffffffffffffffff\n      and\n      dup2\n      mstore\n      0x20\n      add\n      swap1\n      dup2\n      mstore\n      0x20\n      add\n      0x00\n      keccak256\n      sload\n        /* \"LPToken.sol\":4327:4370  uint256 accountBalance = _balances[account] */\n      swap1\n      pop\n        /* \"LPToken.sol\":4407:4413  amount */\n      dup2\n        /* \"LPToken.sol\":4389:4403  accountBalance */\n      dup2\n        /* \"LPToken.sol\":4389:4413  accountBalance >= amount */\n      lt\n      iszero\n        /* \"LPToken.sol\":4381:4452  require(accountBalance >= amount, \"ERC20: burn amount exceeds balance\") */\n      tag_181\n      jumpi\n      mload(0x40)\n      0x08c379a000000000000000000000000000000000000000000000000000000000\n      dup2\n      mstore\n      0x04\n      add\n      tag_182\n      swap1\n      tag_183\n      jump\t// in\n    tag_182:\n      mload(0x40)\n      dup1\n      swap2\n      sub\n      swap1\n      revert\n    tag_181:\n        /* \"LPToken.sol\":4528:4534  amount */\n      dup2\n        /* \"LPToken.sol\":4511:4525  accountBalance */\n      dup2\n        /* \"LPToken.sol\":4511:4534  accountBalance - amount */\n      sub\n        /* \"LPToken.sol\":4490:4499  _balances */\n      0x00\n        /* \"LPToken.sol\":4490:4508  _balances[account] */\n      0x00\n        /* \"LPToken.sol\":4500:4507  account */\n      dup6\n        /* \"LPToken.sol\":4490:4508  _balances[account] */\n      0xffffffffffffffffffffffffffffffffffffffff\n      and\n      0xffffffffffffffffffffffffffffffffffffffff\n      and\n      dup2\n      mstore\n      0x20\n      add\n      swap1\n      dup2\n      mstore\n      0x20\n      add\n      0x00\n      keccak256\n        /* \"LPToken.sol\":4490:4534  _balances[account] = accountBalance - amount */\n      dup2\n      swap1\n      sstore\n      pop\n        /* \"LPToken.sol\":4565:4571  amount */\n      dup2\n        /* \"LPToken.sol\":4549:4561  _totalSupply */\n      0x02\n      0x00\n        /* \"LPToken.sol\":4549:4571  _totalSupply -= amount */\n      dup3\n      dup3\n      sload\n      sub\n      swap3\n      pop\n      pop\n      dup2\n      swap1\n      sstore\n      pop\n        /* \"LPToken.sol\":4626:4627  0 */\n      0x00\n        /* \"LPToken.sol\":4600:4637  Transfer(account, address(0), amount) */\n      0xffffffffffffffffffffffffffffffffffffffff\n      and\n        /* \"LPToken.sol\":4609:4616  account */\n      dup4\n        /* \"LPToken.sol\":4600:4637  Transfer(account, address(0), amount) */\n      0xffffffffffffffffffffffffffffffffffffffff\n      and\n      0xddf252ad1be2c89b69c2b068fc378daa952ba7f163c4a11628f55a4df523b3ef\n        /* \"LPToken.sol\":4630:4636  amount */\n      dup5\n        /* \"LPToken.sol\":4600:4637  Transfer(account, address(0), amount) */\n      mload(0x40)\n      tag_184\n      swap2\n      swap1\n      tag_34\n      jump\t// in\n    tag_184:\n      mload(0x40)\n      dup1\n      swap2\n      sub\n      swap1\n      log3\n        /* \"LPToken.sol\":4248:4645  {... */\n      pop\n        /* \"LPToken.sol\":4191:4645  function _burn(address account, uint256 amount) internal {... */\n      pop\n      pop\n      jump\t// out\n        /* \"#utility.yul\":7:106   */\n    tag_185:\n        /* \"#utility.yul\":59:65   */\n      0x00\n        /* \"#utility.yul\":93:98   */\n      dup2\n        /* \"#utility.yul\":87:99   */\n      mload\n        /* \"#utility.yul\":77:99   */\n      swap1\n      pop\n        /* \"#utility.yul\":7:106   */\n      swap2\n      swap1\n      pop\n      jump\t// out\n        /* \"#utility.yul\":112:281   */\n    tag_186:\n        /* \"#utility.yul\":196:207   */\n      0x00\n        /* \"#utility.yul\":230:236   */\n      dup3\n        /* \"#utility.yul\":225:228   */\n      dup3\n        /* \"#utility.yul\":218:237   */\n      mstore\n        /* \"#utility.yul\":270:274   */\n      0x20\n        /* \"#utility.yul\":265:268   */\n      dup3\n        /* \"#utility.yul\":261:275   */\n      add\n        /* \"#utility.yul\":246:275   */\n      swap1\n      pop\n        /* \"#utility.yul\":112:281   */\n      swap3\n      swap2\n      pop\n      pop\n      jump\t// out\n        /* \"#utility.yul\":287:426   */\n    tag_187:\n        /* \"#utility.yul\":376:382   */\n      dup3\n        /* \"#utility.yul\":371:374   */\n      dup2\n        /* \"#utility.yul\":366:369   */\n      dup4\n        /* \"#utility.yul\":360:383   */\n      mcopy\n        /* \"#utility.yul\":417:418   */\n      0x00\n        /* \"#utility.yul\":408:414   */\n      dup4\n        /* \"#utility.yul\":403:406   */\n      dup4\n        /* \"#utility.yul\":399:415   */\n      add\n        /* \"#utility.yul\":392:419   */\n      mstore\n        /* \"#utility.yul\":287:426   */\n      pop\n      pop\n      pop\n      jump\t// out\n        /* \"#utility.yul\":432:534   */\n    tag_188:\n        /* \"#utility.yul\":473:479   */\n      0x00\n        /* \"#utility.yul\":524:526   */\n      0x1f\n        /* \"#utility.yul\":520:527   */\n      not\n        /* \"#utility.yul\":515:517   */\n      0x1f\n        /* \"#utility.yul\":508:513   */\n      dup4\n        /* \"#utility.yul\":504:518   */\n      add\n        /* \"#utility.yul\":500:528   */\n      and\n        /* \"#utility.yul\":490:528   */\n      swap1\n      pop\n        /* \"#utility.yul\":432:534   */\n      swap2\n      swap1\n      pop\n      jump\t// out\n        /* \"#utility.yul\":540:917   */\n    tag_189:\n        /* \"#utility.yul\":628:631   */\n      0x00\n        /* \"#utility.yul\":656:695   */\n      tag_242\n        /* \"#utility.yul\":689:694   */\n      dup3\n        /* \"#utility.yul\":656:695   */\n      tag_185\n      jump\t// in\n    tag_242:\n        /* \"#utility.yul\":711:782   */\n      tag_243\n        /* \"#utility.yul\":775:781   */\n      dup2\n        /* \"#utility.yul\":770:773   */\n      dup6\n        /* \"#utility.yul\":711:782   */\n      tag_186\n      jump\t// in\n    tag_243:\n        /* \"#utility.yul\":704:782   */\n      swap4\n      pop\n        /* \"#utility.yul\":791:856   */\n      tag_244\n        /* \"#utility.yul\":849:855   */\n      dup2\n        /* \"#utility.yul\":844:847   */\n      dup6\n        /* \"#utility.yul\":837:841   */\n      0x20\n        /* \"#utility.yul\":830:835   */\n      dup7\n        /* \"#utility.yul\":826:842   */\n      add\n        /* \"#utility.yul\":791:856   */\n      tag_187\n      jump\t// in\n    tag_244:\n        /* \"#utility.yul\":881:910   */\n      tag_245\n        /* \"#utility.yul\":903:909   */\n      dup2\n        /* \"#utility.yul\":881:910   */\n      tag_188\n      jump\t// in\n    tag_245:\n        /* \"#utility.yul\":876:879   */\n      dup5\n        /* \"#utility.yul\":872:911   */\n      add\n        /* \"#utility.yul\":865:911   */\n      swap2\n      pop\n        /* \"#utility.yul\":632:917   */\n      pop\n        /* \"#utility.yul\":540:917   */\n      swap3\n      swap2\n      pop\n      pop\n      jump\t// out\n        /* \"#utility.yul\":923:1236   */\n    tag_24:\n        /* \"#utility.yul\":1036:1040   */\n      0x00\n        /* \"#utility.yul\":1074:1076   */\n      0x20\n        /* \"#utility.yul\":1063:1072   */\n      dup3\n        /* \"#utility.yul\":1059:1077   */\n      add\n        /* \"#utility.yul\":1051:1077   */\n      swap1\n      pop\n        /* \"#utility.yul\":1123:1132   */\n      dup2\n        /* \"#utility.yul\":1117:1121   */\n      dup2\n        /* \"#utility.yul\":1113:1133   */\n      sub\n        /* \"#utility.yul\":1109:1110   */\n      0x00\n        /* \"#utility.yul\":1098:1107   */\n      dup4\n        /* \"#utility.yul\":1094:1111   */\n      add\n        /* \"#utility.yul\":1087:1134   */\n      mstore\n        /* \"#utility.yul\":1151:1229   */\n      tag_247\n        /* \"#utility.yul\":1224:1228   */\n      dup2\n        /* \"#utility.yul\":1215:1221   */\n      dup5\n        /* \"#utility.yul\":1151:1229   */\n      tag_189\n      jump\t// in\n    tag_247:\n        /* \"#utility.yul\":1143:1229   */\n      swap1\n      pop\n        /* \"#utility.yul\":923:1236   */\n      swap3\n      swap2\n      pop\n      pop\n      jump\t// out\n        /* \"#utility.yul\":1323:1440   */\n    tag_191:\n        /* \"#utility.yul\":1432:1433   */\n      0x00\n        /* \"#utility.yul\":1429:1430   */\n      0x00\n        /* \"#utility.yul\":1422:1434   */\n      revert\n        /* \"#utility.yul\":1569:1695   */\n    tag_193:\n        /* \"#utility.yul\":1606:1613   */\n      0x00\n        /* \"#utility.yul\":1646:1688   */\n      0xffffffffffffffffffffffffffffffffffffffff\n        /* \"#utility.yul\":1639:1644   */\n      dup3\n        /* \"#utility.yul\":1635:1689   */\n      and\n        /* \"#utility.yul\":1624:1689   */\n      swap1\n      pop\n        /* \"#utility.yul\":1569:1695   */\n      swap2\n      swap1\n      pop\n      jump\t// out\n        /* \"#utility.yul\":1701:1797   */\n    tag_194:\n        /* \"#utility.yul\":1738:1745   */\n      0x00\n        /* \"#utility.yul\":1767:1791   */\n      tag_253\n        /* \"#utility.yul\":1785:1790   */\n      dup3\n        /* \"#utility.yul\":1767:1791   */\n      tag_193\n      jump\t// in\n    tag_253:\n        /* \"#utility.yul\":1756:1791   */\n      swap1\n      pop\n        /* \"#utility.yul\":1701:1797   */\n      swap2\n      swap1\n      pop\n      jump\t// out\n        /* \"#utility.yul\":1803:1925   */\n    tag_195:\n        /* \"#utility.yul\":1876:1900   */\n      tag_255\n        /* \"#utility.yul\":1894:1899   */\n      dup2\n        /* \"#utility.yul\":1876:1900   */\n      tag_194\n      jump\t// in\n    tag_255:\n        /* \"#utility.yul\":1869:1874   */\n      dup2\n        /* \"#utility.yul\":1866:1901   */\n      eq\n        /* \"#utility.yul\":1856:1919   */\n      tag_256\n      jumpi\n        /* \"#utility.yul\":1915:1916   */\n      0x00\n        /* \"#utility.yul\":1912:1913   */\n      0x00\n        /* \"#utility.yul\":1905:1917   */\n      revert\n        /* \"#utility.yul\":1856:1919   */\n    tag_256:\n        /* \"#utility.yul\":1803:1925   */\n      pop\n      jump\t// out\n        /* \"#utility.yul\":1931:2070   */\n    tag_196:\n        /* \"#utility.yul\":1977:1982   */\n      0x00\n        /* \"#utility.yul\":2015:2021   */\n      dup2\n        /* \"#utility.yul\":2002:2022   */\n      calldataload\n        /* \"#utility.yul\":1993:2022   */\n      swap1\n      pop\n        /* \"#utility.yul\":2031:2064   */\n      tag_258\n        /* \"#utility.yul\":2058:2063   */\n      dup2\n        /* \"#utility.yul\":2031:2064   */\n      tag_195\n      jump\t// in\n    tag_258:\n        /* \"#utility.yul\":1931:2070   */\n      swap3\n      swap2\n      pop\n      pop\n      jump\t// out\n        /* \"#utility.yul\":2076:2153   */\n    tag_197:\n        /* \"#utility.yul\":2113:2120   */\n      0x00\n        /* \"#utility.yul\":2142:2147   */\n      dup2\n        /* \"#utility.yul\":2131:2147   */\n      swap1\n      pop\n        /* \"#utility.yul\":2076:2153   */\n      swap2\n      swap1\n      pop\n      jump\t// out\n        /* \"#utility.yul\":2159:2281   */\n    tag_198:\n        /* \"#utility.yul\":2232:2256   */\n      tag_261\n        /* \"#utility.yul\":2250:2255   */\n      dup2\n        /* \"#utility.yul\":2232:2256   */\n      tag_197\n      jump\t// in\n    tag_261:\n        /* \"#utility.yul\":2225:2230   */\n      dup2\n        /* \"#utility.yul\":2222:2257   */\n      eq\n        /* \"#utility.yul\":2212:2275   */\n      tag_262\n      jumpi\n        /* \"#utility.yul\":2271:2272   */\n      0x00\n        /* \"#utility.yul\":2268:2269   */\n      0x00\n        /* \"#utility.yul\":2261:2273   */\n      revert\n        /* \"#utility.yul\":2212:2275   */\n    tag_262:\n        /* \"#utility.yul\":2159:2281   */\n      pop\n      jump\t// out\n        /* \"#utility.yul\":2287:2426   */\n    tag_199:\n        /* \"#utility.yul\":2333:2338   */\n      0x00\n        /* \"#utility.yul\":2371:2377   */\n      dup2\n        /* \"#utility.yul\":2358:2378   */\n      calldataload\n        /* \"#utility.yul\":2349:2378   */\n      swap1\n      pop\n        /* \"#utility.yul\":2387:2420   */\n      tag_264\n        /* \"#utility.yul\":2414:2419   */\n      dup2\n        /* \"#utility.yul\":2387:2420   */\n      tag_198\n      jump\t// in\n    tag_264:\n        /* \"#utility.yul\":2287:2426   */\n      swap3\n      swap2\n      pop\n      pop\n      jump\t// out\n        /* \"#utility.yul\":2432:2906   */\n    tag_27:\n        /* \"#utility.yul\":2500:2506   */\n      0x00\n        /* \"#utility.yul\":2508:2514   */\n      0x00\n        /* \"#utility.yul\":2557:2559   */\n      0x40\n        /* \"#utility.yul\":2545:2554   */\n      dup4\n        /* \"#utility.yul\":2536:2543   */\n      dup6\n        /* \"#utility.yul\":2532:2555   */\n      sub\n        /* \"#utility.yul\":2528:2560   */\n      slt\n        /* \"#utility.yul\":2525:2644   */\n      iszero\n      tag_266\n      jumpi\n        /* \"#utility.yul\":2563:2642   */\n      tag_267\n      tag_191\n      jump\t// in\n    tag_267:\n        /* \"#utility.yul\":2525:2644   */\n    tag_266:\n        /* \"#utility.yul\":2683:2684   */\n      0x00\n        /* \"#utility.yul\":2708:2761   */\n      tag_268\n        /* \"#utility.yul\":2753:2760   */\n      dup6\n        /* \"#utility.yul\":2744:2750   */\n      dup3\n        /* \"#utility.yul\":2733:2742   */\n      dup7\n        /* \"#utility.yul\":2729:2751   */\n      add\n        /* \"#utility.yul\":2708:2761   */\n      tag_196\n      jump\t// in\n    tag_268:\n        /* \"#utility.yul\":2698:2761   */\n      swap3\n      pop\n        /* \"#utility.yul\":2654:2771   */\n      pop\n        /* \"#utility.yul\":2810:2812   */\n      0x20\n        /* \"#utility.yul\":2836:2889   */\n      tag_269\n        /* \"#utility.yul\":2881:2888   */\n      dup6\n        /* \"#utility.yul\":2872:2878   */\n      dup3\n        /* \"#utility.yul\":2861:2870   */\n      dup7\n        /* \"#utility.yul\":2857:2879   */\n      add\n        /* \"#utility.yul\":2836:2889   */\n      tag_199\n      jump\t// in\n    tag_269:\n        /* \"#utility.yul\":2826:2889   */\n      swap2\n      pop\n        /* \"#utility.yul\":2781:2899   */\n      pop\n        /* \"#utility.yul\":2432:2906   */\n      swap3\n      pop\n      swap3\n      swap1\n      pop\n      jump\t// out\n        /* \"#utility.yul\":2912:3002   */\n    tag_200:\n        /* \"#utility.yul\":2946:2953   */\n      0x00\n        /* \"#utility.yul\":2989:2994   */\n      dup2\n        /* \"#utility.yul\":2982:2995   */\n      iszero\n        /* \"#utility.yul\":2975:2996   */\n      iszero\n        /* \"#utility.yul\":2964:2996   */\n      swap1\n      pop\n        /* \"#utility.yul\":2912:3002   */\n      swap2\n      swap1\n      pop\n      jump\t// out\n        /* \"#utility.yul\":3008:3117   */\n    tag_201:\n        /* \"#utility.yul\":3089:3110   */\n      tag_272\n        /* \"#utility.yul\":3104:3109   */\n      dup2\n        /* \"#utility.yul\":3089:3110   */\n      tag_200\n      jump\t// in\n    tag_272:\n        /* \"#utility.yul\":3084:3087   */\n      dup3\n        /* \"#utility.yul\":3077:3111   */\n      mstore\n        /* \"#utility.yul\":3008:3117   */\n      pop\n      pop\n      jump\t// out\n        /* \"#utility.yul\":3123:3333   */\n    tag_30:\n        /* \"#utility.yul\":3210:3214   */\n      0x00\n        /* \"#utility.yul\":3248:3250   */\n      0x20\n        /* \"#utility.yul\":3237:3246   */\n      dup3\n        /* \"#utility.yul\":3233:3251   */\n      add\n        /* \"#utility.yul\":3225:3251   */\n      swap1\n      pop\n        /* \"#utility.yul\":3261:3326   */\n      tag_274\n        /* \"#utility.yul\":3323:3324   */\n      0x00\n        /* \"#utility.yul\":3312:3321   */\n      dup4\n        /* \"#utility.yul\":3308:3325   */\n      add\n        /* \"#utility.yul\":3299:3305   */\n      dup5\n        /* \"#utility.yul\":3261:3326   */\n      tag_201\n      jump\t// in\n    tag_274:\n        /* \"#utility.yul\":3123:3333   */\n      swap3\n      swap2\n      pop\n      pop\n      jump\t// out\n        /* \"#utility.yul\":3339:3457   */\n    tag_202:\n        /* \"#utility.yul\":3426:3450   */\n      tag_276\n        /* \"#utility.yul\":3444:3449   */\n      dup2\n        /* \"#utility.yul\":3426:3450   */\n      tag_197\n      jump\t// in\n    tag_276:\n        /* \"#utility.yul\":3421:3424   */\n      dup3\n        /* \"#utility.yul\":3414:3451   */\n      mstore\n        /* \"#utility.yul\":3339:3457   */\n      pop\n      pop\n      jump\t// out\n        /* \"#utility.yul\":3463:3685   */\n    tag_34:\n        /* \"#utility.yul\":3556:3560   */\n      0x00\n        /* \"#utility.yul\":3594:3596   */\n      0x20\n        /* \"#utility.yul\":3583:3592   */\n      dup3\n        /* \"#utility.yul\":3579:3597   */\n      add\n        /* \"#utility.yul\":3571:3597   */\n      swap1\n      pop\n        /* \"#utility.yul\":3607:3678   */\n      tag_278\n        /* \"#utility.yul\":3675:3676   */\n      0x00\n        /* \"#utility.yul\":3664:3673   */\n      dup4\n        /* \"#utility.yul\":3660:3677   */\n      add\n        /* \"#utility.yul\":3651:3657   */\n      dup5\n        /* \"#utility.yul\":3607:3678   */\n      tag_202\n      jump\t// in\n    tag_278:\n        /* \"#utility.yul\":3463:3685   */\n      swap3\n      swap2\n      pop\n      pop\n      jump\t// out\n        /* \"#utility.yul\":3691:4020   */\n    tag_37:\n        /* \"#utility.yul\":3750:3756   */\n      0x00\n        /* \"#utility.yul\":3799:3801   */\n      0x20\n        /* \"#utility.yul\":3787:3796   */\n      dup3\n        /* \"#utility.yul\":3778:3785   */\n      dup5\n        /* \"#utility.yul\":3774:3797   */\n      sub\n        /* \"#utility.yul\":3770:3802   */\n      slt\n        /* \"#utility.yul\":3767:3886   */\n      iszero\n      tag_280\n      jumpi\n        /* \"#utility.yul\":3805:3884   */\n      tag_281\n      tag_191\n      jump\t// in\n    tag_281:\n        /* \"#utility.yul\":3767:3886   */\n    tag_280:\n        /* \"#utility.yul\":3925:3926   */\n      0x00\n        /* \"#utility.yul\":3950:4003   */\n      tag_282\n        /* \"#utility.yul\":3995:4002   */\n      dup5\n        /* \"#utility.yul\":3986:3992   */\n      dup3\n        /* \"#utility.yul\":3975:3984   */\n      dup6\n        /* \"#utility.yul\":3971:3993   */\n      add\n        /* \"#utility.yul\":3950:4003   */\n      tag_196\n      jump\t// in\n    tag_282:\n        /* \"#utility.yul\":3940:4003   */\n      swap2\n      pop\n        /* \"#utility.yul\":3896:4013   */\n      pop\n        /* \"#utility.yul\":3691:4020   */\n      swap3\n      swap2\n      pop\n      pop\n      jump\t// out\n        /* \"#utility.yul\":4026:4645   */\n    tag_41:\n        /* \"#utility.yul\":4103:4109   */\n      0x00\n        /* \"#utility.yul\":4111:4117   */\n      0x00\n        /* \"#utility.yul\":4119:4125   */\n      0x00\n        /* \"#utility.yul\":4168:4170   */\n      0x60\n        /* \"#utility.yul\":4156:4165   */\n      dup5\n        /* \"#utility.yul\":4147:4154   */\n      dup7\n        /* \"#utility.yul\":4143:4166   */\n      sub\n        /* \"#utility.yul\":4139:4171   */\n      slt\n        /* \"#utility.yul\":4136:4255   */\n      iszero\n      tag_284\n      jumpi\n        /* \"#utility.yul\":4174:4253   */\n      tag_285\n      tag_191\n      jump\t// in\n    tag_285:\n        /* \"#utility.yul\":4136:4255   */\n    tag_284:\n        /* \"#utility.yul\":4294:4295   */\n      0x00\n        /* \"#utility.yul\":4319:4372   */\n      tag_286\n        /* \"#utility.yul\":4364:4371   */\n      dup7\n        /* \"#utility.yul\":4355:4361   */\n      dup3\n        /* \"#utility.yul\":4344:4353   */\n      dup8\n        /* \"#utility.yul\":4340:4362   */\n      add\n        /* \"#utility.yul\":4319:4372   */\n      tag_196\n      jump\t// in\n    tag_286:\n        /* \"#utility.yul\":4309:4372   */\n      swap4\n      pop\n        /* \"#utility.yul\":4265:4382   */\n      pop\n        /* \"#utility.yul\":4421:4423   */\n      0x20\n        /* \"#utility.yul\":4447:4500   */\n      tag_287\n        /* \"#utility.yul\":4492:4499   */\n      dup7\n        /* \"#utility.yul\":4483:4489   */\n      dup3\n        /* \"#utility.yul\":4472:4481   */\n      dup8\n        /* \"#utility.yul\":4468:4490   */\n      add\n        /* \"#utility.yul\":4447:4500   */\n      tag_196\n      jump\t// in\n    tag_287:\n        /* \"#utility.yul\":4437:4500   */\n      swap3\n      pop\n        /* \"#utility.yul\":4392:4510   */\n      pop\n        /* \"#utility.yul\":4549:4551   */\n      0x40\n        /* \"#utility.yul\":4575:4628   */\n      tag_288\n        /* \"#utility.yul\":4620:4627   */\n      dup7\n        /* \"#utility.yul\":4611:4617   */\n      dup3\n        /* \"#utility.yul\":4600:4609   */\n      dup8\n        /* \"#utility.yul\":4596:4618   */\n      add\n        /* \"#utility.yul\":4575:4628   */\n      tag_199\n      jump\t// in\n    tag_288:\n        /* \"#utility.yul\":4565:4628   */\n      swap2\n      pop\n        /* \"#utility.yul\":4520:4638   */\n      pop\n        /* \"#utility.yul\":4026:4645   */\n      swap3\n      pop\n      swap3\n      pop\n      swap3\n      jump\t// out\n        /* \"#utility.yul\":4651:4737   */\n    tag_203:\n        /* \"#utility.yul\":4686:4693   */\n      0x00\n        /* \"#utility.yul\":4726:4730   */\n      0xff\n        /* \"#utility.yul\":4719:4724   */\n      dup3\n        /* \"#utility.yul\":4715:4731   */\n      and\n        /* \"#utility.yul\":4704:4731   */\n      swap1\n      pop\n        /* \"#utility.yul\":4651:4737   */\n      swap2\n      swap1\n      pop\n      jump\t// out\n        /* \"#utility.yul\":4743:4855   */\n    tag_204:\n        /* \"#utility.yul\":4826:4848   */\n      tag_291\n        /* \"#utility.yul\":4842:4847   */\n      dup2\n        /* \"#utility.yul\":4826:4848   */\n      tag_203\n      jump\t// in\n    tag_291:\n        /* \"#utility.yul\":4821:4824   */\n      dup3\n        /* \"#utility.yul\":4814:4849   */\n      mstore\n        /* \"#utility.yul\":4743:4855   */\n      pop\n      pop\n      jump\t// out\n        /* \"#utility.yul\":4861:5075   */\n    tag_47:\n        /* \"#utility.yul\":4950:4954   */\n      0x00\n        /* \"#utility.yul\":4988:4990   */\n      0x20\n        /* \"#utility.yul\":4977:4986   */\n      dup3\n        /* \"#utility.yul\":4973:4991   */\n      add\n        /* \"#utility.yul\":4965:4991   */\n      swap1\n      pop\n        /* \"#utility.yul\":5001:5068   */\n      tag_293\n        /* \"#utility.yul\":5065:5066   */\n      0x00\n        /* \"#utility.yul\":5054:5063   */\n      dup4\n        /* \"#utility.yul\":5050:5067   */\n      add\n        /* \"#utility.yul\":5041:5047   */\n      dup5\n        /* \"#utility.yul\":5001:5068   */\n      tag_204\n      jump\t// in\n    tag_293:\n        /* \"#utility.yul\":4861:5075   */\n      swap3\n      swap2\n      pop\n      pop\n      jump\t// out\n        /* \"#utility.yul\":5081:5199   */\n    tag_205:\n        /* \"#utility.yul\":5168:5192   */\n      tag_295\n        /* \"#utility.yul\":5186:5191   */\n      dup2\n        /* \"#utility.yul\":5168:5192   */\n      tag_194\n      jump\t// in\n    tag_295:\n        /* \"#utility.yul\":5163:5166   */\n      dup3\n        /* \"#utility.yul\":5156:5193   */\n      mstore\n        /* \"#utility.yul\":5081:5199   */\n      pop\n      pop\n      jump\t// out\n        /* \"#utility.yul\":5205:5427   */\n    tag_62:\n        /* \"#utility.yul\":5298:5302   */\n      0x00\n        /* \"#utility.yul\":5336:5338   */\n      0x20\n        /* \"#utility.yul\":5325:5334   */\n      dup3\n        /* \"#utility.yul\":5321:5339   */\n      add\n        /* \"#utility.yul\":5313:5339   */\n      swap1\n      pop\n        /* \"#utility.yul\":5349:5420   */\n      tag_297\n        /* \"#utility.yul\":5417:5418   */\n      0x00\n        /* \"#utility.yul\":5406:5415   */\n      dup4\n        /* \"#utility.yul\":5402:5419   */\n      add\n        /* \"#utility.yul\":5393:5399   */\n      dup5\n        /* \"#utility.yul\":5349:5420   */\n      tag_205\n      jump\t// in\n    tag_297:\n        /* \"#utility.yul\":5205:5427   */\n      swap3\n      swap2\n      pop\n      pop\n      jump\t// out\n        /* \"#utility.yul\":5433:5907   */\n    tag_79:\n        /* \"#utility.yul\":5501:5507   */\n      0x00\n        /* \"#utility.yul\":5509:5515   */\n      0x00\n        /* \"#utility.yul\":5558:5560   */\n      0x40\n        /* \"#utility.yul\":5546:5555   */\n      dup4\n        /* \"#utility.yul\":5537:5544   */\n      dup6\n        /* \"#utility.yul\":5533:5556   */\n      sub\n        /* \"#utility.yul\":5529:5561   */\n      slt\n        /* \"#utility.yul\":5526:5645   */\n      iszero\n      tag_299\n      jumpi\n        /* \"#utility.yul\":5564:5643   */\n      tag_300\n      tag_191\n      jump\t// in\n    tag_300:\n        /* \"#utility.yul\":5526:5645   */\n    tag_299:\n        /* \"#utility.yul\":5684:5685   */\n      0x00\n        /* \"#utility.yul\":5709:5762   */\n      tag_301\n        /* \"#utility.yul\":5754:5761   */\n      dup6\n        /* \"#utility.yul\":5745:5751   */\n      dup3\n        /* \"#utility.yul\":5734:5743   */\n      dup7\n        /* \"#utility.yul\":5730:5752   */\n      add\n        /* \"#utility.yul\":5709:5762   */\n      tag_196\n      jump\t// in\n    tag_301:\n        /* \"#utility.yul\":5699:5762   */\n      swap3\n      pop\n        /* \"#utility.yul\":5655:5772   */\n      pop\n        /* \"#utility.yul\":5811:5813   */\n      0x20\n        /* \"#utility.yul\":5837:5890   */\n      tag_302\n        /* \"#utility.yul\":5882:5889   */\n      dup6\n        /* \"#utility.yul\":5873:5879   */\n      dup3\n        /* \"#utility.yul\":5862:5871   */\n      dup7\n        /* \"#utility.yul\":5858:5880   */\n      add\n        /* \"#utility.yul\":5837:5890   */\n      tag_196\n      jump\t// in\n    tag_302:\n        /* \"#utility.yul\":5827:5890   */\n      swap2\n      pop\n        /* \"#utility.yul\":5782:5900   */\n      pop\n        /* \"#utility.yul\":5433:5907   */\n      swap3\n      pop\n      swap3\n      swap1\n      pop\n      jump\t// out\n        /* \"#utility.yul\":5913:6093   */\n    tag_206:\n        /* \"#utility.yul\":5961:6038   */\n      0x4e487b7100000000000000000000000000000000000000000000000000000000\n        /* \"#utility.yul\":5958:5959   */\n      0x00\n        /* \"#utility.yul\":5951:6039   */\n      mstore\n        /* \"#utility.yul\":6058:6062   */\n      0x22\n        /* \"#utility.yul\":6055:6056   */\n      0x04\n        /* \"#utility.yul\":6048:6063   */\n      mstore\n        /* \"#utility.yul\":6082:6086   */\n      0x24\n        /* \"#utility.yul\":6079:6080   */\n      0x00\n        /* \"#utility.yul\":6072:6087   */\n      revert\n        /* \"#utility.yul\":6099:6419   */\n    tag_84:\n        /* \"#utility.yul\":6143:6149   */\n      0x00\n        /* \"#utility.yul\":6180:6181   */\n      0x02\n        /* \"#utility.yul\":6174:6178   */\n      dup3\n        /* \"#utility.yul\":6170:6182   */\n      div\n        /* \"#utility.yul\":6160:6182   */\n      swap1\n      pop\n        /* \"#utility.yul\":6227:6228   */\n      0x01\n        /* \"#utility.yul\":6221:6225   */\n      dup3\n        /* \"#utility.yul\":6217:6229   */\n      and\n        /* \"#utility.yul\":6248:6266   */\n      dup1\n        /* \"#utility.yul\":6238:6319   */\n      tag_305\n      jumpi\n        /* \"#utility.yul\":6304:6308   */\n      0x7f\n        /* \"#utility.yul\":6296:6302   */\n      dup3\n        /* \"#utility.yul\":6292:6309   */\n      and\n        /* \"#utility.yul\":6282:6309   */\n      swap2\n      pop\n        /* \"#utility.yul\":6238:6319   */\n    tag_305:\n        /* \"#utility.yul\":6366:6368   */\n      0x20\n        /* \"#utility.yul\":6358:6364   */\n      dup3\n        /* \"#utility.yul\":6355:6369   */\n      lt\n        /* \"#utility.yul\":6335:6353   */\n      dup2\n        /* \"#utility.yul\":6332:6370   */\n      sub\n        /* \"#utility.yul\":6329:6413   */\n      tag_306\n      jumpi\n        /* \"#utility.yul\":6385:6403   */\n      tag_307\n      tag_206\n      jump\t// in\n    tag_307:\n        /* \"#utility.yul\":6329:6413   */\n    tag_306:\n        /* \"#utility.yul\":6150:6419   */\n      pop\n        /* \"#utility.yul\":6099:6419   */\n      swap2\n      swap1\n      pop\n      jump\t// out\n        /* \"#utility.yul\":6425:6600   */\n    tag_207:\n        /* \"#utility.yul\":6565:6592   */\n      0x53696d706c655377617020796120667565207365746561646f00000000000000\n        /* \"#utility.yul\":6561:6562   */\n      0x00\n        /* \"#utility.yul\":6553:6559   */\n      dup3\n        /* \"#utility.yul\":6549:6563   */\n      add\n        /* \"#utility.yul\":6542:6593   */\n      mstore\n        /* \"#utility.yul\":6425:6600   */\n      pop\n      jump\t// out\n        /* \"#utility.yul\":6606:6972   */\n    tag_208:\n        /* \"#utility.yul\":6748:6751   */\n      0x00\n        /* \"#utility.yul\":6769:6836   */\n      tag_310\n        /* \"#utility.yul\":6833:6835   */\n      0x19\n        /* \"#utility.yul\":6828:6831   */\n      dup4\n        /* \"#utility.yul\":6769:6836   */\n      tag_186\n      jump\t// in\n    tag_310:\n        /* \"#utility.yul\":6762:6836   */\n      swap2\n      pop\n        /* \"#utility.yul\":6845:6938   */\n      tag_311\n        /* \"#utility.yul\":6934:6937   */\n      dup3\n        /* \"#utility.yul\":6845:6938   */\n      tag_207\n      jump\t// in\n    tag_311:\n        /* \"#utility.yul\":6963:6965   */\n      0x20\n        /* \"#utility.yul\":6958:6961   */\n      dup3\n        /* \"#utility.yul\":6954:6966   */\n      add\n        /* \"#utility.yul\":6947:6966   */\n      swap1\n      pop\n        /* \"#utility.yul\":6606:6972   */\n      swap2\n      swap1\n      pop\n      jump\t// out\n        /* \"#utility.yul\":6978:7397   */\n    tag_98:\n        /* \"#utility.yul\":7144:7148   */\n      0x00\n        /* \"#utility.yul\":7182:7184   */\n      0x20\n        /* \"#utility.yul\":7171:7180   */\n      dup3\n        /* \"#utility.yul\":7167:7185   */\n      add\n        /* \"#utility.yul\":7159:7185   */\n      swap1\n      pop\n        /* \"#utility.yul\":7231:7240   */\n      dup2\n        /* \"#utility.yul\":7225:7229   */\n      dup2\n        /* \"#utility.yul\":7221:7241   */\n      sub\n        /* \"#utility.yul\":7217:7218   */\n      0x00\n        /* \"#utility.yul\":7206:7215   */\n      dup4\n        /* \"#utility.yul\":7202:7219   */\n      add\n        /* \"#utility.yul\":7195:7242   */\n      mstore\n        /* \"#utility.yul\":7259:7390   */\n      tag_313\n        /* \"#utility.yul\":7385:7389   */\n      dup2\n        /* \"#utility.yul\":7259:7390   */\n      tag_208\n      jump\t// in\n    tag_313:\n        /* \"#utility.yul\":7251:7390   */\n      swap1\n      pop\n        /* \"#utility.yul\":6978:7397   */\n      swap2\n      swap1\n      pop\n      jump\t// out\n        /* \"#utility.yul\":7403:7571   */\n    tag_209:\n        /* \"#utility.yul\":7543:7563   */\n      0x446972656363696f6e20696e76616c6964610000000000000000000000000000\n        /* \"#utility.yul\":7539:7540   */\n      0x00\n        /* \"#utility.yul\":7531:7537   */\n      dup3\n        /* \"#utility.yul\":7527:7541   */\n      add\n        /* \"#utility.yul\":7520:7564   */\n      mstore\n        /* \"#utility.yul\":7403:7571   */\n      pop\n      jump\t// out\n        /* \"#utility.yul\":7577:7943   */\n    tag_210:\n        /* \"#utility.yul\":7719:7722   */\n      0x00\n        /* \"#utility.yul\":7740:7807   */\n      tag_316\n        /* \"#utility.yul\":7804:7806   */\n      0x12\n        /* \"#utility.yul\":7799:7802   */\n      dup4\n        /* \"#utility.yul\":7740:7807   */\n      tag_186\n      jump\t// in\n    tag_316:\n        /* \"#utility.yul\":7733:7807   */\n      swap2\n      pop\n        /* \"#utility.yul\":7816:7909   */\n      tag_317\n        /* \"#utility.yul\":7905:7908   */\n      dup3\n        /* \"#utility.yul\":7816:7909   */\n      tag_209\n      jump\t// in\n    tag_317:\n        /* \"#utility.yul\":7934:7936   */\n      0x20\n        /* \"#utility.yul\":7929:7932   */\n      dup3\n        /* \"#utility.yul\":7925:7937   */\n      add\n        /* \"#utility.yul\":7918:7937   */\n      swap1\n      pop\n        /* \"#utility.yul\":7577:7943   */\n      swap2\n      swap1\n      pop\n      jump\t// out\n        /* \"#utility.yul\":7949:8368   */\n    tag_101:\n        /* \"#utility.yul\":8115:8119   */\n      0x00\n        /* \"#utility.yul\":8153:8155   */\n      0x20\n        /* \"#utility.yul\":8142:8151   */\n      dup3\n        /* \"#utility.yul\":8138:8156   */\n      add\n        /* \"#utility.yul\":8130:8156   */\n      swap1\n      pop\n        /* \"#utility.yul\":8202:8211   */\n      dup2\n        /* \"#utility.yul\":8196:8200   */\n      dup2\n        /* \"#utility.yul\":8192:8212   */\n      sub\n        /* \"#utility.yul\":8188:8189   */\n      0x00\n        /* \"#utility.yul\":8177:8186   */\n      dup4\n        /* \"#utility.yul\":8173:8190   */\n      add\n        /* \"#utility.yul\":8166:8213   */\n      mstore\n        /* \"#utility.yul\":8230:8361   */\n      tag_319\n        /* \"#utility.yul\":8356:8360   */\n      dup2\n        /* \"#utility.yul\":8230:8361   */\n      tag_210\n      jump\t// in\n    tag_319:\n        /* \"#utility.yul\":8222:8361   */\n      swap1\n      pop\n        /* \"#utility.yul\":7949:8368   */\n      swap2\n      swap1\n      pop\n      jump\t// out\n        /* \"#utility.yul\":8374:8554   */\n    tag_211:\n        /* \"#utility.yul\":8422:8499   */\n      0x4e487b7100000000000000000000000000000000000000000000000000000000\n        /* \"#utility.yul\":8419:8420   */\n      0x00\n        /* \"#utility.yul\":8412:8500   */\n      mstore\n        /* \"#utility.yul\":8519:8523   */\n      0x11\n        /* \"#utility.yul\":8516:8517   */\n      0x04\n        /* \"#utility.yul\":8509:8524   */\n      mstore\n        /* \"#utility.yul\":8543:8547   */\n      0x24\n        /* \"#utility.yul\":8540:8541   */\n      0x00\n        /* \"#utility.yul\":8533:8548   */\n      revert\n        /* \"#utility.yul\":8560:8751   */\n    tag_113:\n        /* \"#utility.yul\":8600:8603   */\n      0x00\n        /* \"#utility.yul\":8619:8639   */\n      tag_322\n        /* \"#utility.yul\":8637:8638   */\n      dup3\n        /* \"#utility.yul\":8619:8639   */\n      tag_197\n      jump\t// in\n    tag_322:\n        /* \"#utility.yul\":8614:8639   */\n      swap2\n      pop\n        /* \"#utility.yul\":8653:8673   */\n      tag_323\n        /* \"#utility.yul\":8671:8672   */\n      dup4\n        /* \"#utility.yul\":8653:8673   */\n      tag_197\n      jump\t// in\n    tag_323:\n        /* \"#utility.yul\":8648:8673   */\n      swap3\n      pop\n        /* \"#utility.yul\":8696:8697   */\n      dup3\n        /* \"#utility.yul\":8693:8694   */\n      dup3\n        /* \"#utility.yul\":8689:8698   */\n      add\n        /* \"#utility.yul\":8682:8698   */\n      swap1\n      pop\n        /* \"#utility.yul\":8717:8720   */\n      dup1\n        /* \"#utility.yul\":8714:8715   */\n      dup3\n        /* \"#utility.yul\":8711:8721   */\n      gt\n        /* \"#utility.yul\":8708:8744   */\n      iszero\n      tag_324\n      jumpi\n        /* \"#utility.yul\":8724:8742   */\n      tag_325\n      tag_211\n      jump\t// in\n    tag_325:\n        /* \"#utility.yul\":8708:8744   */\n    tag_324:\n        /* \"#utility.yul\":8560:8751   */\n      swap3\n      swap2\n      pop\n      pop\n      jump\t// out\n        /* \"#utility.yul\":8757:8931   */\n    tag_212:\n        /* \"#utility.yul\":8897:8923   */\n      0x4f6e6c792053696d706c65537761702063616e206d696e740000000000000000\n        /* \"#utility.yul\":8893:8894   */\n      0x00\n        /* \"#utility.yul\":8885:8891   */\n      dup3\n        /* \"#utility.yul\":8881:8895   */\n      add\n        /* \"#utility.yul\":8874:8924   */\n      mstore\n        /* \"#utility.yul\":8757:8931   */\n      pop\n      jump\t// out\n        /* \"#utility.yul\":8937:9303   */\n    tag_213:\n        /* \"#utility.yul\":9079:9082   */\n      0x00\n        /* \"#utility.yul\":9100:9167   */\n      tag_328\n        /* \"#utility.yul\":9164:9166   */\n      0x18\n        /* \"#utility.yul\":9159:9162   */\n      dup4\n        /* \"#utility.yul\":9100:9167   */\n      tag_186\n      jump\t// in\n    tag_328:\n        /* \"#utility.yul\":9093:9167   */\n      swap2\n      pop\n        /* \"#utility.yul\":9176:9269   */\n      tag_329\n        /* \"#utility.yul\":9265:9268   */\n      dup3\n        /* \"#utility.yul\":9176:9269   */\n      tag_212\n      jump\t// in\n    tag_329:\n        /* \"#utility.yul\":9294:9296   */\n      0x20\n        /* \"#utility.yul\":9289:9292   */\n      dup3\n        /* \"#utility.yul\":9285:9297   */\n      add\n        /* \"#utility.yul\":9278:9297   */\n      swap1\n      pop\n        /* \"#utility.yul\":8937:9303   */\n      swap2\n      swap1\n      pop\n      jump\t// out\n        /* \"#utility.yul\":9309:9728   */\n    tag_117:\n        /* \"#utility.yul\":9475:9479   */\n      0x00\n        /* \"#utility.yul\":9513:9515   */\n      0x20\n        /* \"#utility.yul\":9502:9511   */\n      dup3\n        /* \"#utility.yul\":9498:9516   */\n      add\n        /* \"#utility.yul\":9490:9516   */\n      swap1\n      pop\n        /* \"#utility.yul\":9562:9571   */\n      dup2\n        /* \"#utility.yul\":9556:9560   */\n      dup2\n        /* \"#utility.yul\":9552:9572   */\n      sub\n        /* \"#utility.yul\":9548:9549   */\n      0x00\n        /* \"#utility.yul\":9537:9546   */\n      dup4\n        /* \"#utility.yul\":9533:9550   */\n      add\n        /* \"#utility.yul\":9526:9573   */\n      mstore\n        /* \"#utility.yul\":9590:9721   */\n      tag_331\n        /* \"#utility.yul\":9716:9720   */\n      dup2\n        /* \"#utility.yul\":9590:9721   */\n      tag_213\n      jump\t// in\n    tag_331:\n        /* \"#utility.yul\":9582:9721   */\n      swap1\n      pop\n        /* \"#utility.yul\":9309:9728   */\n      swap2\n      swap1\n      pop\n      jump\t// out\n        /* \"#utility.yul\":9734:9908   */\n    tag_214:\n        /* \"#utility.yul\":9874:9900   */\n      0x4f6e6c792053696d706c65537761702063616e206275726e0000000000000000\n        /* \"#utility.yul\":9870:9871   */\n      0x00\n        /* \"#utility.yul\":9862:9868   */\n      dup3\n        /* \"#utility.yul\":9858:9872   */\n      add\n        /* \"#utility.yul\":9851:9901   */\n      mstore\n        /* \"#utility.yul\":9734:9908   */\n      pop\n      jump\t// out\n        /* \"#utility.yul\":9914:10280   */\n    tag_215:\n        /* \"#utility.yul\":10056:10059   */\n      0x00\n        /* \"#utility.yul\":10077:10144   */\n      tag_334\n        /* \"#utility.yul\":10141:10143   */\n      0x18\n        /* \"#utility.yul\":10136:10139   */\n      dup4\n        /* \"#utility.yul\":10077:10144   */\n      tag_186\n      jump\t// in\n    tag_334:\n        /* \"#utility.yul\":10070:10144   */\n      swap2\n      pop\n        /* \"#utility.yul\":10153:10246   */\n      tag_335\n        /* \"#utility.yul\":10242:10245   */\n      dup3\n        /* \"#utility.yul\":10153:10246   */\n      tag_214\n      jump\t// in\n    tag_335:\n        /* \"#utility.yul\":10271:10273   */\n      0x20\n        /* \"#utility.yul\":10266:10269   */\n      dup3\n        /* \"#utility.yul\":10262:10274   */\n      add\n        /* \"#utility.yul\":10255:10274   */\n      swap1\n      pop\n        /* \"#utility.yul\":9914:10280   */\n      swap2\n      swap1\n      pop\n      jump\t// out\n        /* \"#utility.yul\":10286:10705   */\n    tag_130:\n        /* \"#utility.yul\":10452:10456   */\n      0x00\n        /* \"#utility.yul\":10490:10492   */\n      0x20\n        /* \"#utility.yul\":10479:10488   */\n      dup3\n        /* \"#utility.yul\":10475:10493   */\n      add\n        /* \"#utility.yul\":10467:10493   */\n      swap1\n      pop\n        /* \"#utility.yul\":10539:10548   */\n      dup2\n        /* \"#utility.yul\":10533:10537   */\n      dup2\n        /* \"#utility.yul\":10529:10549   */\n      sub\n        /* \"#utility.yul\":10525:10526   */\n      0x00\n        /* \"#utility.yul\":10514:10523   */\n      dup4\n        /* \"#utility.yul\":10510:10527   */\n      add\n        /* \"#utility.yul\":10503:10550   */\n      mstore\n        /* \"#utility.yul\":10567:10698   */\n      tag_337\n        /* \"#utility.yul\":10693:10697   */\n      dup2\n        /* \"#utility.yul\":10567:10698   */\n      tag_215\n      jump\t// in\n    tag_337:\n        /* \"#utility.yul\":10559:10698   */\n      swap1\n      pop\n        /* \"#utility.yul\":10286:10705   */\n      swap2\n      swap1\n      pop\n      jump\t// out\n        /* \"#utility.yul\":10711:10935   */\n    tag_216:\n        /* \"#utility.yul\":10851:10885   */\n      0x45524332303a2064656372656173656420616c6c6f77616e63652062656c6f77\n        /* \"#utility.yul\":10847:10848   */\n      0x00\n        /* \"#utility.yul\":10839:10845   */\n      dup3\n        /* \"#utility.yul\":10835:10849   */\n      add\n        /* \"#utility.yul\":10828:10886   */\n      mstore\n        /* \"#utility.yul\":10920:10927   */\n      0x207a65726f000000000000000000000000000000000000000000000000000000\n        /* \"#utility.yul\":10915:10917   */\n      0x20\n        /* \"#utility.yul\":10907:10913   */\n      dup3\n        /* \"#utility.yul\":10903:10918   */\n      add\n        /* \"#utility.yul\":10896:10928   */\n      mstore\n        /* \"#utility.yul\":10711:10935   */\n      pop\n      jump\t// out\n        /* \"#utility.yul\":10941:11307   */\n    tag_217:\n        /* \"#utility.yul\":11083:11086   */\n      0x00\n        /* \"#utility.yul\":11104:11171   */\n      tag_340\n        /* \"#utility.yul\":11168:11170   */\n      0x25\n        /* \"#utility.yul\":11163:11166   */\n      dup4\n        /* \"#utility.yul\":11104:11171   */\n      tag_186\n      jump\t// in\n    tag_340:\n        /* \"#utility.yul\":11097:11171   */\n      swap2\n      pop\n        /* \"#utility.yul\":11180:11273   */\n      tag_341\n        /* \"#utility.yul\":11269:11272   */\n      dup3\n        /* \"#utility.yul\":11180:11273   */\n      tag_216\n      jump\t// in\n    tag_341:\n        /* \"#utility.yul\":11298:11300   */\n      0x40\n        /* \"#utility.yul\":11293:11296   */\n      dup3\n        /* \"#utility.yul\":11289:11301   */\n      add\n        /* \"#utility.yul\":11282:11301   */\n      swap1\n      pop\n        /* \"#utility.yul\":10941:11307   */\n      swap2\n      swap1\n      pop\n      jump\t// out\n        /* \"#utility.yul\":11313:11732   */\n    tag_137:\n        /* \"#utility.yul\":11479:11483   */\n      0x00\n        /* \"#utility.yul\":11517:11519   */\n      0x20\n        /* \"#utility.yul\":11506:11515   */\n      dup3\n        /* \"#utility.yul\":11502:11520   */\n      add\n        /* \"#utility.yul\":11494:11520   */\n      swap1\n      pop\n        /* \"#utility.yul\":11566:11575   */\n      dup2\n        /* \"#utility.yul\":11560:11564   */\n      dup2\n        /* \"#utility.yul\":11556:11576   */\n      sub\n        /* \"#utility.yul\":11552:11553   */\n      0x00\n        /* \"#utility.yul\":11541:11550   */\n      dup4\n        /* \"#utility.yul\":11537:11554   */\n      add\n        /* \"#utility.yul\":11530:11577   */\n      mstore\n        /* \"#utility.yul\":11594:11725   */\n      tag_343\n        /* \"#utility.yul\":11720:11724   */\n      dup2\n        /* \"#utility.yul\":11594:11725   */\n      tag_217\n      jump\t// in\n    tag_343:\n        /* \"#utility.yul\":11586:11725   */\n      swap1\n      pop\n        /* \"#utility.yul\":11313:11732   */\n      swap2\n      swap1\n      pop\n      jump\t// out\n        /* \"#utility.yul\":11738:11912   */\n    tag_218:\n        /* \"#utility.yul\":11878:11904   */\n      0x45524332303a20617070726f76652066726f6d207a65726f0000000000000000\n        /* \"#utility.yul\":11874:11875   */\n      0x00\n        /* \"#utility.yul\":11866:11872   */\n      dup3\n        /* \"#utility.yul\":11862:11876   */\n      add\n        /* \"#utility.yul\":11855:11905   */\n      mstore\n        /* \"#utility.yul\":11738:11912   */\n      pop\n      jump\t// out\n        /* \"#utility.yul\":11918:12284   */\n    tag_219:\n        /* \"#utility.yul\":12060:12063   */\n      0x00\n        /* \"#utility.yul\":12081:12148   */\n      tag_346\n        /* \"#utility.yul\":12145:12147   */\n      0x18\n        /* \"#utility.yul\":12140:12143   */\n      dup4\n        /* \"#utility.yul\":12081:12148   */\n      tag_186\n      jump\t// in\n    tag_346:\n        /* \"#utility.yul\":12074:12148   */\n      swap2\n      pop\n        /* \"#utility.yul\":12157:12250   */\n      tag_347\n        /* \"#utility.yul\":12246:12249   */\n      dup3\n        /* \"#utility.yul\":12157:12250   */\n      tag_218\n      jump\t// in\n    tag_347:\n        /* \"#utility.yul\":12275:12277   */\n      0x20\n        /* \"#utility.yul\":12270:12273   */\n      dup3\n        /* \"#utility.yul\":12266:12278   */\n      add\n        /* \"#utility.yul\":12259:12278   */\n      swap1\n      pop\n        /* \"#utility.yul\":11918:12284   */\n      swap2\n      swap1\n      pop\n      jump\t// out\n        /* \"#utility.yul\":12290:12709   */\n    tag_147:\n        /* \"#utility.yul\":12456:12460   */\n      0x00\n        /* \"#utility.yul\":12494:12496   */\n      0x20\n        /* \"#utility.yul\":12483:12492   */\n      dup3\n        /* \"#utility.yul\":12479:12497   */\n      add\n        /* \"#utility.yul\":12471:12497   */\n      swap1\n      pop\n        /* \"#utility.yul\":12543:12552   */\n      dup2\n        /* \"#utility.yul\":12537:12541   */\n      dup2\n        /* \"#utility.yul\":12533:12553   */\n      sub\n        /* \"#utility.yul\":12529:12530   */\n      0x00\n        /* \"#utility.yul\":12518:12527   */\n      dup4\n        /* \"#utility.yul\":12514:12531   */\n      add\n        /* \"#utility.yul\":12507:12554   */\n      mstore\n        /* \"#utility.yul\":12571:12702   */\n      tag_349\n        /* \"#utility.yul\":12697:12701   */\n      dup2\n        /* \"#utility.yul\":12571:12702   */\n      tag_219\n      jump\t// in\n    tag_349:\n        /* \"#utility.yul\":12563:12702   */\n      swap1\n      pop\n        /* \"#utility.yul\":12290:12709   */\n      swap2\n      swap1\n      pop\n      jump\t// out\n        /* \"#utility.yul\":12715:12887   */\n    tag_220:\n        /* \"#utility.yul\":12855:12879   */\n      0x45524332303a20617070726f766520746f207a65726f00000000000000000000\n        /* \"#utility.yul\":12851:12852   */\n      0x00\n        /* \"#utility.yul\":12843:12849   */\n      dup3\n        /* \"#utility.yul\":12839:12853   */\n      add\n        /* \"#utility.yul\":12832:12880   */\n      mstore\n        /* \"#utility.yul\":12715:12887   */\n      pop\n      jump\t// out\n        /* \"#utility.yul\":12893:13259   */\n    tag_221:\n        /* \"#utility.yul\":13035:13038   */\n      0x00\n        /* \"#utility.yul\":13056:13123   */\n      tag_352\n        /* \"#utility.yul\":13120:13122   */\n      0x16\n        /* \"#utility.yul\":13115:13118   */\n      dup4\n        /* \"#utility.yul\":13056:13123   */\n      tag_186\n      jump\t// in\n    tag_352:\n        /* \"#utility.yul\":13049:13123   */\n      swap2\n      pop\n        /* \"#utility.yul\":13132:13225   */\n      tag_353\n        /* \"#utility.yul\":13221:13224   */\n      dup3\n        /* \"#utility.yul\":13132:13225   */\n      tag_220\n      jump\t// in\n    tag_353:\n        /* \"#utility.yul\":13250:13252   */\n      0x20\n        /* \"#utility.yul\":13245:13248   */\n      dup3\n        /* \"#utility.yul\":13241:13253   */\n      add\n        /* \"#utility.yul\":13234:13253   */\n      swap1\n      pop\n        /* \"#utility.yul\":12893:13259   */\n      swap2\n      swap1\n      pop\n      jump\t// out\n        /* \"#utility.yul\":13265:13684   */\n    tag_150:\n        /* \"#utility.yul\":13431:13435   */\n      0x00\n        /* \"#utility.yul\":13469:13471   */\n      0x20\n        /* \"#utility.yul\":13458:13467   */\n      dup3\n        /* \"#utility.yul\":13454:13472   */\n      add\n        /* \"#utility.yul\":13446:13472   */\n      swap1\n      pop\n        /* \"#utility.yul\":13518:13527   */\n      dup2\n        /* \"#utility.yul\":13512:13516   */\n      dup2\n        /* \"#utility.yul\":13508:13528   */\n      sub\n        /* \"#utility.yul\":13504:13505   */\n      0x00\n        /* \"#utility.yul\":13493:13502   */\n      dup4\n        /* \"#utility.yul\":13489:13506   */\n      add\n        /* \"#utility.yul\":13482:13529   */\n      mstore\n        /* \"#utility.yul\":13546:13677   */\n      tag_355\n        /* \"#utility.yul\":13672:13676   */\n      dup2\n        /* \"#utility.yul\":13546:13677   */\n      tag_221\n      jump\t// in\n    tag_355:\n        /* \"#utility.yul\":13538:13677   */\n      swap1\n      pop\n        /* \"#utility.yul\":13265:13684   */\n      swap2\n      swap1\n      pop\n      jump\t// out\n        /* \"#utility.yul\":13690:13869   */\n    tag_222:\n        /* \"#utility.yul\":13830:13861   */\n      0x45524332303a20696e73756666696369656e7420616c6c6f77616e6365000000\n        /* \"#utility.yul\":13826:13827   */\n      0x00\n        /* \"#utility.yul\":13818:13824   */\n      dup3\n        /* \"#utility.yul\":13814:13828   */\n      add\n        /* \"#utility.yul\":13807:13862   */\n      mstore\n        /* \"#utility.yul\":13690:13869   */\n      pop\n      jump\t// out\n        /* \"#utility.yul\":13875:14241   */\n    tag_223:\n        /* \"#utility.yul\":14017:14020   */\n      0x00\n        /* \"#utility.yul\":14038:14105   */\n      tag_358\n        /* \"#utility.yul\":14102:14104   */\n      0x1d\n        /* \"#utility.yul\":14097:14100   */\n      dup4\n        /* \"#utility.yul\":14038:14105   */\n      tag_186\n      jump\t// in\n    tag_358:\n        /* \"#utility.yul\":14031:14105   */\n      swap2\n      pop\n        /* \"#utility.yul\":14114:14207   */\n      tag_359\n        /* \"#utility.yul\":14203:14206   */\n      dup3\n        /* \"#utility.yul\":14114:14207   */\n      tag_222\n      jump\t// in\n    tag_359:\n        /* \"#utility.yul\":14232:14234   */\n      0x20\n        /* \"#utility.yul\":14227:14230   */\n      dup3\n        /* \"#utility.yul\":14223:14235   */\n      add\n        /* \"#utility.yul\":14216:14235   */\n      swap1\n      pop\n        /* \"#utility.yul\":13875:14241   */\n      swap2\n      swap1\n      pop\n      jump\t// out\n        /* \"#utility.yul\":14247:14666   */\n    tag_156:\n        /* \"#utility.yul\":14413:14417   */\n      0x00\n        /* \"#utility.yul\":14451:14453   */\n      0x20\n        /* \"#utility.yul\":14440:14449   */\n      dup3\n        /* \"#utility.yul\":14436:14454   */\n      add\n        /* \"#utility.yul\":14428:14454   */\n      swap1\n      pop\n        /* \"#utility.yul\":14500:14509   */\n      dup2\n        /* \"#utility.yul\":14494:14498   */\n      dup2\n        /* \"#utility.yul\":14490:14510   */\n      sub\n        /* \"#utility.yul\":14486:14487   */\n      0x00\n        /* \"#utility.yul\":14475:14484   */\n      dup4\n        /* \"#utility.yul\":14471:14488   */\n      add\n        /* \"#utility.yul\":14464:14511   */\n      mstore\n        /* \"#utility.yul\":14528:14659   */\n      tag_361\n        /* \"#utility.yul\":14654:14658   */\n      dup2\n        /* \"#utility.yul\":14528:14659   */\n      tag_223\n      jump\t// in\n    tag_361:\n        /* \"#utility.yul\":14520:14659   */\n      swap1\n      pop\n        /* \"#utility.yul\":14247:14666   */\n      swap2\n      swap1\n      pop\n      jump\t// out\n        /* \"#utility.yul\":14672:14847   */\n    tag_224:\n        /* \"#utility.yul\":14812:14839   */\n      0x45524332303a207472616e736665722066726f6d207a65726f00000000000000\n        /* \"#utility.yul\":14808:14809   */\n      0x00\n        /* \"#utility.yul\":14800:14806   */\n      dup3\n        /* \"#utility.yul\":14796:14810   */\n      add\n        /* \"#utility.yul\":14789:14840   */\n      mstore\n        /* \"#utility.yul\":14672:14847   */\n      pop\n      jump\t// out\n        /* \"#utility.yul\":14853:15219   */\n    tag_225:\n        /* \"#utility.yul\":14995:14998   */\n      0x00\n        /* \"#utility.yul\":15016:15083   */\n      tag_364\n        /* \"#utility.yul\":15080:15082   */\n      0x19\n        /* \"#utility.yul\":15075:15078   */\n      dup4\n        /* \"#utility.yul\":15016:15083   */\n      tag_186\n      jump\t// in\n    tag_364:\n        /* \"#utility.yul\":15009:15083   */\n      swap2\n      pop\n        /* \"#utility.yul\":15092:15185   */\n      tag_365\n        /* \"#utility.yul\":15181:15184   */\n      dup3\n        /* \"#utility.yul\":15092:15185   */\n      tag_224\n      jump\t// in\n    tag_365:\n        /* \"#utility.yul\":15210:15212   */\n      0x20\n        /* \"#utility.yul\":15205:15208   */\n      dup3\n        /* \"#utility.yul\":15201:15213   */\n      add\n        /* \"#utility.yul\":15194:15213   */\n      swap1\n      pop\n        /* \"#utility.yul\":14853:15219   */\n      swap2\n      swap1\n      pop\n      jump\t// out\n        /* \"#utility.yul\":15225:15644   */\n    tag_161:\n        /* \"#utility.yul\":15391:15395   */\n      0x00\n        /* \"#utility.yul\":15429:15431   */\n      0x20\n        /* \"#utility.yul\":15418:15427   */\n      dup3\n        /* \"#utility.yul\":15414:15432   */\n      add\n        /* \"#utility.yul\":15406:15432   */\n      swap1\n      pop\n        /* \"#utility.yul\":15478:15487   */\n      dup2\n        /* \"#utility.yul\":15472:15476   */\n      dup2\n        /* \"#utility.yul\":15468:15488   */\n      sub\n        /* \"#utility.yul\":15464:15465   */\n      0x00\n        /* \"#utility.yul\":15453:15462   */\n      dup4\n        /* \"#utility.yul\":15449:15466   */\n      add\n        /* \"#utility.yul\":15442:15489   */\n      mstore\n        /* \"#utility.yul\":15506:15637   */\n      tag_367\n        /* \"#utility.yul\":15632:15636   */\n      dup2\n        /* \"#utility.yul\":15506:15637   */\n      tag_225\n      jump\t// in\n    tag_367:\n        /* \"#utility.yul\":15498:15637   */\n      swap1\n      pop\n        /* \"#utility.yul\":15225:15644   */\n      swap2\n      swap1\n      pop\n      jump\t// out\n        /* \"#utility.yul\":15650:15823   */\n    tag_226:\n        /* \"#utility.yul\":15790:15815   */\n      0x45524332303a207472616e7366657220746f207a65726f000000000000000000\n        /* \"#utility.yul\":15786:15787   */\n      0x00\n        /* \"#utility.yul\":15778:15784   */\n      dup3\n        /* \"#utility.yul\":15774:15788   */\n      add\n        /* \"#utility.yul\":15767:15816   */\n      mstore\n        /* \"#utility.yul\":15650:15823   */\n      pop\n      jump\t// out\n        /* \"#utility.yul\":15829:16195   */\n    tag_227:\n        /* \"#utility.yul\":15971:15974   */\n      0x00\n        /* \"#utility.yul\":15992:16059   */\n      tag_370\n        /* \"#utility.yul\":16056:16058   */\n      0x17\n        /* \"#utility.yul\":16051:16054   */\n      dup4\n        /* \"#utility.yul\":15992:16059   */\n      tag_186\n      jump\t// in\n    tag_370:\n        /* \"#utility.yul\":15985:16059   */\n      swap2\n      pop\n        /* \"#utility.yul\":16068:16161   */\n      tag_371\n        /* \"#utility.yul\":16157:16160   */\n      dup3\n        /* \"#utility.yul\":16068:16161   */\n      tag_226\n      jump\t// in\n    tag_371:\n        /* \"#utility.yul\":16186:16188   */\n      0x20\n        /* \"#utility.yul\":16181:16184   */\n      dup3\n        /* \"#utility.yul\":16177:16189   */\n      add\n        /* \"#utility.yul\":16170:16189   */\n      swap1\n      pop\n        /* \"#utility.yul\":15829:16195   */\n      swap2\n      swap1\n      pop\n      jump\t// out\n        /* \"#utility.yul\":16201:16620   */\n    tag_164:\n        /* \"#utility.yul\":16367:16371   */\n      0x00\n        /* \"#utility.yul\":16405:16407   */\n      0x20\n        /* \"#utility.yul\":16394:16403   */\n      dup3\n        /* \"#utility.yul\":16390:16408   */\n      add\n        /* \"#utility.yul\":16382:16408   */\n      swap1\n      pop\n        /* \"#utility.yul\":16454:16463   */\n      dup2\n        /* \"#utility.yul\":16448:16452   */\n      dup2\n        /* \"#utility.yul\":16444:16464   */\n      sub\n        /* \"#utility.yul\":16440:16441   */\n      0x00\n        /* \"#utility.yul\":16429:16438   */\n      dup4\n        /* \"#utility.yul\":16425:16442   */\n      add\n        /* \"#utility.yul\":16418:16465   */\n      mstore\n        /* \"#utility.yul\":16482:16613   */\n      tag_373\n        /* \"#utility.yul\":16608:16612   */\n      dup2\n        /* \"#utility.yul\":16482:16613   */\n      tag_227\n      jump\t// in\n    tag_373:\n        /* \"#utility.yul\":16474:16613   */\n      swap1\n      pop\n        /* \"#utility.yul\":16201:16620   */\n      swap2\n      swap1\n      pop\n      jump\t// out\n        /* \"#utility.yul\":16626:16851   */\n    tag_228:\n        /* \"#utility.yul\":16766:16800   */\n      0x45524332303a207472616e7366657220616d6f756e7420657863656564732062\n        /* \"#utility.yul\":16762:16763   */\n      0x00\n        /* \"#utility.yul\":16754:16760   */\n      dup3\n        /* \"#utility.yul\":16750:16764   */\n      add\n        /* \"#utility.yul\":16743:16801   */\n      mstore\n        /* \"#utility.yul\":16835:16843   */\n      0x616c616e63650000000000000000000000000000000000000000000000000000\n        /* \"#utility.yul\":16830:16832   */\n      0x20\n        /* \"#utility.yul\":16822:16828   */\n      dup3\n        /* \"#utility.yul\":16818:16833   */\n      add\n        /* \"#utility.yul\":16811:16844   */\n      mstore\n        /* \"#utility.yul\":16626:16851   */\n      pop\n      jump\t// out\n        /* \"#utility.yul\":16857:17223   */\n    tag_229:\n        /* \"#utility.yul\":16999:17002   */\n      0x00\n        /* \"#utility.yul\":17020:17087   */\n      tag_376\n        /* \"#utility.yul\":17084:17086   */\n      0x26\n        /* \"#utility.yul\":17079:17082   */\n      dup4\n        /* \"#utility.yul\":17020:17087   */\n      tag_186\n      jump\t// in\n    tag_376:\n        /* \"#utility.yul\":17013:17087   */\n      swap2\n      pop\n        /* \"#utility.yul\":17096:17189   */\n      tag_377\n        /* \"#utility.yul\":17185:17188   */\n      dup3\n        /* \"#utility.yul\":17096:17189   */\n      tag_228\n      jump\t// in\n    tag_377:\n        /* \"#utility.yul\":17214:17216   */\n      0x40\n        /* \"#utility.yul\":17209:17212   */\n      dup3\n        /* \"#utility.yul\":17205:17217   */\n      add\n        /* \"#utility.yul\":17198:17217   */\n      swap1\n      pop\n        /* \"#utility.yul\":16857:17223   */\n      swap2\n      swap1\n      pop\n      jump\t// out\n        /* \"#utility.yul\":17229:17648   */\n    tag_167:\n        /* \"#utility.yul\":17395:17399   */\n      0x00\n        /* \"#utility.yul\":17433:17435   */\n      0x20\n        /* \"#utility.yul\":17422:17431   */\n      dup3\n        /* \"#utility.yul\":17418:17436   */\n      add\n        /* \"#utility.yul\":17410:17436   */\n      swap1\n      pop\n        /* \"#utility.yul\":17482:17491   */\n      dup2\n        /* \"#utility.yul\":17476:17480   */\n      dup2\n        /* \"#utility.yul\":17472:17492   */\n      sub\n        /* \"#utility.yul\":17468:17469   */\n      0x00\n        /* \"#utility.yul\":17457:17466   */\n      dup4\n        /* \"#utility.yul\":17453:17470   */\n      add\n        /* \"#utility.yul\":17446:17493   */\n      mstore\n        /* \"#utility.yul\":17510:17641   */\n      tag_379\n        /* \"#utility.yul\":17636:17640   */\n      dup2\n        /* \"#utility.yul\":17510:17641   */\n      tag_229\n      jump\t// in\n    tag_379:\n        /* \"#utility.yul\":17502:17641   */\n      swap1\n      pop\n        /* \"#utility.yul\":17229:17648   */\n      swap2\n      swap1\n      pop\n      jump\t// out\n        /* \"#utility.yul\":17654:17823   */\n    tag_230:\n        /* \"#utility.yul\":17794:17815   */\n      0x45524332303a206d696e7420746f207a65726f00000000000000000000000000\n        /* \"#utility.yul\":17790:17791   */\n      0x00\n        /* \"#utility.yul\":17782:17788   */\n      dup3\n        /* \"#utility.yul\":17778:17792   */\n      add\n        /* \"#utility.yul\":17771:17816   */\n      mstore\n        /* \"#utility.yul\":17654:17823   */\n      pop\n      jump\t// out\n        /* \"#utility.yul\":17829:18195   */\n    tag_231:\n        /* \"#utility.yul\":17971:17974   */\n      0x00\n        /* \"#utility.yul\":17992:18059   */\n      tag_382\n        /* \"#utility.yul\":18056:18058   */\n      0x13\n        /* \"#utility.yul\":18051:18054   */\n      dup4\n        /* \"#utility.yul\":17992:18059   */\n      tag_186\n      jump\t// in\n    tag_382:\n        /* \"#utility.yul\":17985:18059   */\n      swap2\n      pop\n        /* \"#utility.yul\":18068:18161   */\n      tag_383\n        /* \"#utility.yul\":18157:18160   */\n      dup3\n        /* \"#utility.yul\":18068:18161   */\n      tag_230\n      jump\t// in\n    tag_383:\n        /* \"#utility.yul\":18186:18188   */\n      0x20\n        /* \"#utility.yul\":18181:18184   */\n      dup3\n        /* \"#utility.yul\":18177:18189   */\n      add\n        /* \"#utility.yul\":18170:18189   */\n      swap1\n      pop\n        /* \"#utility.yul\":17829:18195   */\n      swap2\n      swap1\n      pop\n      jump\t// out\n        /* \"#utility.yul\":18201:18620   */\n    tag_173:\n        /* \"#utility.yul\":18367:18371   */\n      0x00\n        /* \"#utility.yul\":18405:18407   */\n      0x20\n        /* \"#utility.yul\":18394:18403   */\n      dup3\n        /* \"#utility.yul\":18390:18408   */\n      add\n        /* \"#utility.yul\":18382:18408   */\n      swap1\n      pop\n        /* \"#utility.yul\":18454:18463   */\n      dup2\n        /* \"#utility.yul\":18448:18452   */\n      dup2\n        /* \"#utility.yul\":18444:18464   */\n      sub\n        /* \"#utility.yul\":18440:18441   */\n      0x00\n        /* \"#utility.yul\":18429:18438   */\n      dup4\n        /* \"#utility.yul\":18425:18442   */\n      add\n        /* \"#utility.yul\":18418:18465   */\n      mstore\n        /* \"#utility.yul\":18482:18613   */\n      tag_385\n        /* \"#utility.yul\":18608:18612   */\n      dup2\n        /* \"#utility.yul\":18482:18613   */\n      tag_231\n      jump\t// in\n    tag_385:\n        /* \"#utility.yul\":18474:18613   */\n      swap1\n      pop\n        /* \"#utility.yul\":18201:18620   */\n      swap2\n      swap1\n      pop\n      jump\t// out\n        /* \"#utility.yul\":18626:18797   */\n    tag_232:\n        /* \"#utility.yul\":18766:18789   */\n      0x45524332303a206275726e2066726f6d207a65726f0000000000000000000000\n        /* \"#utility.yul\":18762:18763   */\n      0x00\n        /* \"#utility.yul\":18754:18760   */\n      dup3\n        /* \"#utility.yul\":18750:18764   */\n      add\n        /* \"#utility.yul\":18743:18790   */\n      mstore\n        /* \"#utility.yul\":18626:18797   */\n      pop\n      jump\t// out\n        /* \"#utility.yul\":18803:19169   */\n    tag_233:\n        /* \"#utility.yul\":18945:18948   */\n      0x00\n        /* \"#utility.yul\":18966:19033   */\n      tag_388\n        /* \"#utility.yul\":19030:19032   */\n      0x15\n        /* \"#utility.yul\":19025:19028   */\n      dup4\n        /* \"#utility.yul\":18966:19033   */\n      tag_186\n      jump\t// in\n    tag_388:\n        /* \"#utility.yul\":18959:19033   */\n      swap2\n      pop\n        /* \"#utility.yul\":19042:19135   */\n      tag_389\n        /* \"#utility.yul\":19131:19134   */\n      dup3\n        /* \"#utility.yul\":19042:19135   */\n      tag_232\n      jump\t// in\n    tag_389:\n        /* \"#utility.yul\":19160:19162   */\n      0x20\n        /* \"#utility.yul\":19155:19158   */\n      dup3\n        /* \"#utility.yul\":19151:19163   */\n      add\n        /* \"#utility.yul\":19144:19163   */\n      swap1\n      pop\n        /* \"#utility.yul\":18803:19169   */\n      swap2\n      swap1\n      pop\n      jump\t// out\n        /* \"#utility.yul\":19175:19594   */\n    tag_180:\n        /* \"#utility.yul\":19341:19345   */\n      0x00\n        /* \"#utility.yul\":19379:19381   */\n      0x20\n        /* \"#utility.yul\":19368:19377   */\n      dup3\n        /* \"#utility.yul\":19364:19382   */\n      add\n        /* \"#utility.yul\":19356:19382   */\n      swap1\n      pop\n        /* \"#utility.yul\":19428:19437   */\n      dup2\n        /* \"#utility.yul\":19422:19426   */\n      dup2\n        /* \"#utility.yul\":19418:19438   */\n      sub\n        /* \"#utility.yul\":19414:19415   */\n      0x00\n        /* \"#utility.yul\":19403:19412   */\n      dup4\n        /* \"#utility.yul\":19399:19416   */\n      add\n        /* \"#utility.yul\":19392:19439   */\n      mstore\n        /* \"#utility.yul\":19456:19587   */\n      tag_391\n        /* \"#utility.yul\":19582:19586   */\n      dup2\n        /* \"#utility.yul\":19456:19587   */\n      tag_233\n      jump\t// in\n    tag_391:\n        /* \"#utility.yul\":19448:19587   */\n      swap1\n      pop\n        /* \"#utility.yul\":19175:19594   */\n      swap2\n      swap1\n      pop\n      jump\t// out\n        /* \"#utility.yul\":19600:19821   */\n    tag_234:\n        /* \"#utility.yul\":19740:19774   */\n      0x45524332303a206275726e20616d6f756e7420657863656564732062616c616e\n        /* \"#utility.yul\":19736:19737   */\n      0x00\n        /* \"#utility.yul\":19728:19734   */\n      dup3\n        /* \"#utility.yul\":19724:19738   */\n      add\n        /* \"#utility.yul\":19717:19775   */\n      mstore\n        /* \"#utility.yul\":19809:19813   */\n      0x6365000000000000000000000000000000000000000000000000000000000000\n        /* \"#utility.yul\":19804:19806   */\n      0x20\n        /* \"#utility.yul\":19796:19802   */\n      dup3\n        /* \"#utility.yul\":19792:19807   */\n      add\n        /* \"#utility.yul\":19785:19814   */\n      mstore\n        /* \"#utility.yul\":19600:19821   */\n      pop\n      jump\t// out\n        /* \"#utility.yul\":19827:20193   */\n    tag_235:\n        /* \"#utility.yul\":19969:19972   */\n      0x00\n        /* \"#utility.yul\":19990:20057   */\n      tag_394\n        /* \"#utility.yul\":20054:20056   */\n      0x22\n        /* \"#utility.yul\":20049:20052   */\n      dup4\n        /* \"#utility.yul\":19990:20057   */\n      tag_186\n      jump\t// in\n    tag_394:\n        /* \"#utility.yul\":19983:20057   */\n      swap2\n      pop\n        /* \"#utility.yul\":20066:20159   */\n      tag_395\n        /* \"#utility.yul\":20155:20158   */\n      dup3\n        /* \"#utility.yul\":20066:20159   */\n      tag_234\n      jump\t// in\n    tag_395:\n        /* \"#utility.yul\":20184:20186   */\n      0x40\n        /* \"#utility.yul\":20179:20182   */\n      dup3\n        /* \"#utility.yul\":20175:20187   */\n      add\n        /* \"#utility.yul\":20168:20187   */\n      swap1\n      pop\n        /* \"#utility.yul\":19827:20193   */\n      swap2\n      swap1\n      pop\n      jump\t// out\n        /* \"#utility.yul\":20199:20618   */\n    tag_183:\n        /* \"#utility.yul\":20365:20369   */\n      0x00\n        /* \"#utility.yul\":20403:20405   */\n      0x20\n        /* \"#utility.yul\":20392:20401   */\n      dup3\n        /* \"#utility.yul\":20388:20406   */\n      add\n        /* \"#utility.yul\":20380:20406   */\n      swap1\n      pop\n        /* \"#utility.yul\":20452:20461   */\n      dup2\n        /* \"#utility.yul\":20446:20450   */\n      dup2\n        /* \"#utility.yul\":20442:20462   */\n      sub\n        /* \"#utility.yul\":20438:20439   */\n      0x00\n        /* \"#utility.yul\":20427:20436   */\n      dup4\n        /* \"#utility.yul\":20423:20440   */\n      add\n        /* \"#utility.yul\":20416:20463   */\n      mstore\n        /* \"#utility.yul\":20480:20611   */\n      tag_397\n        /* \"#utility.yul\":20606:20610   */\n      dup2\n        /* \"#utility.yul\":20480:20611   */\n      tag_235\n      jump\t// in\n    tag_397:\n        /* \"#utility.yul\":20472:20611   */\n      swap1\n      pop\n        /* \"#utility.yul\":20199:20618   */\n      swap2\n      swap1\n      pop\n      jump\t// out\n\n    auxdata: 0xa2646970667358221220b7c92cf0b3421a96a085e6ac845e80ab83ba9d966f66c1164db4d4671ccab94e64736f6c634300081e0033\n}\n",
				"bytecode": {
					"linkReferences": {},
					"object": "608060405234801561000f575f5ffd5b50604051612103380380612103833981810160405281019061003191906101e9565b81818160039081610042919061046f565b508060049081610052919061046f565b5050505f60055f6101000a81548173ffffffffffffffffffffffffffffffffffffffff021916908373ffffffffffffffffffffffffffffffffffffffff160217905550505061053e565b5f604051905090565b5f5ffd5b5f5ffd5b5f5ffd5b5f5ffd5b5f601f19601f8301169050919050565b7f4e487b71000000000000000000000000000000000000000000000000000000005f52604160045260245ffd5b6100fb826100b5565b810181811067ffffffffffffffff8211171561011a576101196100c5565b5b80604052505050565b5f61012c61009c565b905061013882826100f2565b919050565b5f67ffffffffffffffff821115610157576101566100c5565b5b610160826100b5565b9050602081019050919050565b8281835e5f83830152505050565b5f61018d6101888461013d565b610123565b9050828152602081018484840111156101a9576101a86100b1565b5b6101b484828561016d565b509392505050565b5f82601f8301126101d0576101cf6100ad565b5b81516101e084826020860161017b565b91505092915050565b5f5f604083850312156101ff576101fe6100a5565b5b5f83015167ffffffffffffffff81111561021c5761021b6100a9565b5b610228858286016101bc565b925050602083015167ffffffffffffffff811115610249576102486100a9565b5b610255858286016101bc565b9150509250929050565b5f81519050919050565b7f4e487b71000000000000000000000000000000000000000000000000000000005f52602260045260245ffd5b5f60028204905060018216806102ad57607f821691505b6020821081036102c0576102bf610269565b5b50919050565b5f819050815f5260205f209050919050565b5f6020601f8301049050919050565b5f82821b905092915050565b5f600883026103227fffffffffffffffffffffffffffffffffffffffffffffffffffffffffffffffff826102e7565b61032c86836102e7565b95508019841693508086168417925050509392505050565b5f819050919050565b5f819050919050565b5f61037061036b61036684610344565b61034d565b610344565b9050919050565b5f819050919050565b61038983610356565b61039d61039582610377565b8484546102f3565b825550505050565b5f5f905090565b6103b46103a5565b6103bf818484610380565b505050565b5b818110156103e2576103d75f826103ac565b6001810190506103c5565b5050565b601f821115610427576103f8816102c6565b610401846102d8565b81016020851015610410578190505b61042461041c856102d8565b8301826103c4565b50505b505050565b5f82821c905092915050565b5f6104475f198460080261042c565b1980831691505092915050565b5f61045f8383610438565b9150826002028217905092915050565b6104788261025f565b67ffffffffffffffff811115610491576104906100c5565b5b61049b8254610296565b6104a68282856103e6565b5f60209050601f8311600181146104d7575f84156104c5578287015190505b6104cf8582610454565b865550610536565b601f1984166104e5866102c6565b5f5b8281101561050c578489015182556001820191506020850194506020810190506104e7565b868310156105295784890151610525601f891682610438565b8355505b6001600288020188555050505b505050505050565b611bb88061054b5f395ff3fe608060405234801561000f575f5ffd5b50600436106100f3575f3560e01c806340c10f19116100955780639dc29fac116100645780639dc29fac14610285578063a457c2d7146102a1578063a9059cbb146102d1578063dd62ed3e14610301576100f3565b806340c10f19146101fd57806370a08231146102195780638927e0521461024957806395d89b4114610267576100f3565b80631f5870ef116100d15780631f5870ef1461016357806323b872dd1461017f578063313ce567146101af57806339509351146101cd576100f3565b806306fdde03146100f7578063095ea7b31461011557806318160ddd14610145575b5f5ffd5b6100ff610331565b60405161010c9190611244565b60405180910390f35b61012f600480360381019061012a91906112f5565b6103c1565b60405161013c919061134d565b60405180910390f35b61014d6103e3565b60405161015a9190611375565b60405180910390f35b61017d6004803603810190610178919061138e565b6103ec565b005b610199600480360381019061019491906113b9565b61052c565b6040516101a6919061134d565b60405180910390f35b6101b761055a565b6040516101c49190611424565b60405180910390f35b6101e760048036038101906101e291906112f5565b610562565b6040516101f4919061134d565b60405180910390f35b610217600480360381019061021291906112f5565b610607565b005b610233600480360381019061022e919061138e565b6106a4565b6040516102409190611375565b60405180910390f35b6102516106e9565b60405161025e919061144c565b60405180910390f35b61026f61070e565b60405161027c9190611244565b60405180910390f35b61029f600480360381019061029a91906112f5565b61079e565b005b6102bb60048036038101906102b691906112f5565b61083b565b6040516102c8919061134d565b60405180910390f35b6102eb60048036038101906102e691906112f5565b61091f565b6040516102f8919061134d565b60405180910390f35b61031b60048036038101906103169190611465565b610941565b6040516103289190611375565b60405180910390f35b606060038054610340906114d0565b80601f016020809104026020016040519081016040528092919081815260200182805461036c906114d0565b80156103b75780601f1061038e576101008083540402835291602001916103b7565b820191905f5260205f20905b81548152906001019060200180831161039a57829003601f168201915b5050505050905090565b5f5f6103cb6109c3565b90506103d88185856109ca565b600191505092915050565b5f600254905090565b5f73ffffffffffffffffffffffffffffffffffffffff1660055f9054906101000a900473ffffffffffffffffffffffffffffffffffffffff1673ffffffffffffffffffffffffffffffffffffffff161461047b576040517f08c379a00000000000000000000000000000000000000000000000000000000081526004016104729061154a565b60405180910390fd5b5f73ffffffffffffffffffffffffffffffffffffffff168173ffffffffffffffffffffffffffffffffffffffff16036104e9576040517f08c379a00000000000000000000000000000000000000000000000000000000081526004016104e0906115b2565b60405180910390fd5b8060055f6101000a81548173ffffffffffffffffffffffffffffffffffffffff021916908373ffffffffffffffffffffffffffffffffffffffff16021790555050565b5f5f6105366109c3565b9050610543858285610b8d565b61054e858585610c87565b60019150509392505050565b5f6012905090565b5f5f61056c6109c3565b90506105fc81858560015f8673ffffffffffffffffffffffffffffffffffffffff1673ffffffffffffffffffffffffffffffffffffffff1681526020019081526020015f205f8973ffffffffffffffffffffffffffffffffffffffff1673ffffffffffffffffffffffffffffffffffffffff1681526020019081526020015f20546105f791906115fd565b6109ca565b600191505092915050565b60055f9054906101000a900473ffffffffffffffffffffffffffffffffffffffff1673ffffffffffffffffffffffffffffffffffffffff163373ffffffffffffffffffffffffffffffffffffffff1614610696576040517f08c379a000000000000000000000000000000000000000000000000000000000815260040161068d9061167a565b60405180910390fd5b6106a08282610ee6565b5050565b5f5f5f8373ffffffffffffffffffffffffffffffffffffffff1673ffffffffffffffffffffffffffffffffffffffff1681526020019081526020015f20549050919050565b60055f9054906101000a900473ffffffffffffffffffffffffffffffffffffffff1681565b60606004805461071d906114d0565b80601f0160208091040260200160405190810160405280929190818152602001828054610749906114d0565b80156107945780601f1061076b57610100808354040283529160200191610794565b820191905f5260205f20905b81548152906001019060200180831161077757829003601f168201915b5050505050905090565b60055f9054906101000a900473ffffffffffffffffffffffffffffffffffffffff1673ffffffffffffffffffffffffffffffffffffffff163373ffffffffffffffffffffffffffffffffffffffff161461082d576040517f08c379a0000000000000000000000000000000000000000000000000000000008152600401610824906116e2565b60405180910390fd5b6108378282611027565b5050565b5f5f6108456109c3565b90505f60015f8373ffffffffffffffffffffffffffffffffffffffff1673ffffffffffffffffffffffffffffffffffffffff1681526020019081526020015f205f8673ffffffffffffffffffffffffffffffffffffffff1673ffffffffffffffffffffffffffffffffffffffff1681526020019081526020015f2054905083811015610906576040517f08c379a00000000000000000000000000000000000000000000000000000000081526004016108fd90611770565b60405180910390fd5b61091382868684036109ca565b60019250505092915050565b5f5f6109296109c3565b9050610936818585610c87565b600191505092915050565b5f60015f8473ffffffffffffffffffffffffffffffffffffffff1673ffffffffffffffffffffffffffffffffffffffff1681526020019081526020015f205f8373ffffffffffffffffffffffffffffffffffffffff1673ffffffffffffffffffffffffffffffffffffffff1681526020019081526020015f2054905092915050565b5f33905090565b5f73ffffffffffffffffffffffffffffffffffffffff168373ffffffffffffffffffffffffffffffffffffffff1603610a38576040517f08c379a0000000000000000000000000000000000000000000000000000000008152600401610a2f906117d8565b60405180910390fd5b5f73ffffffffffffffffffffffffffffffffffffffff168273ffffffffffffffffffffffffffffffffffffffff1603610aa6576040517f08c379a0000000000000000000000000000000000000000000000000000000008152600401610a9d90611840565b60405180910390fd5b8060015f8573ffffffffffffffffffffffffffffffffffffffff1673ffffffffffffffffffffffffffffffffffffffff1681526020019081526020015f205f8473ffffffffffffffffffffffffffffffffffffffff1673ffffffffffffffffffffffffffffffffffffffff1681526020019081526020015f20819055508173ffffffffffffffffffffffffffffffffffffffff168373ffffffffffffffffffffffffffffffffffffffff167f8c5be1e5ebec7d5bd14f71427d1e84f3dd0314c0f7b2291e5b200ac8c7c3b92583604051610b809190611375565b60405180910390a3505050565b5f60015f8573ffffffffffffffffffffffffffffffffffffffff1673ffffffffffffffffffffffffffffffffffffffff1681526020019081526020015f205f8473ffffffffffffffffffffffffffffffffffffffff1673ffffffffffffffffffffffffffffffffffffffff1681526020019081526020015f205490507fffffffffffffffffffffffffffffffffffffffffffffffffffffffffffffffff8114610c815781811015610c73576040517f08c379a0000000000000000000000000000000000000000000000000000000008152600401610c6a906118a8565b60405180910390fd5b610c8084848484036109ca565b5b50505050565b5f73ffffffffffffffffffffffffffffffffffffffff168373ffffffffffffffffffffffffffffffffffffffff1603610cf5576040517f08c379a0000000000000000000000000000000000000000000000000000000008152600401610cec90611910565b60405180910390fd5b5f73ffffffffffffffffffffffffffffffffffffffff168273ffffffffffffffffffffffffffffffffffffffff1603610d63576040517f08c379a0000000000000000000000000000000000000000000000000000000008152600401610d5a90611978565b60405180910390fd5b5f5f5f8573ffffffffffffffffffffffffffffffffffffffff1673ffffffffffffffffffffffffffffffffffffffff1681526020019081526020015f2054905081811015610de6576040517f08c379a0000000000000000000000000000000000000000000000000000000008152600401610ddd90611a06565b60405180910390fd5b8181035f5f8673ffffffffffffffffffffffffffffffffffffffff1673ffffffffffffffffffffffffffffffffffffffff1681526020019081526020015f2081905550815f5f8573ffffffffffffffffffffffffffffffffffffffff1673ffffffffffffffffffffffffffffffffffffffff1681526020019081526020015f205f828254610e7491906115fd565b925050819055508273ffffffffffffffffffffffffffffffffffffffff168473ffffffffffffffffffffffffffffffffffffffff167fddf252ad1be2c89b69c2b068fc378daa952ba7f163c4a11628f55a4df523b3ef84604051610ed89190611375565b60405180910390a350505050565b5f73ffffffffffffffffffffffffffffffffffffffff168273ffffffffffffffffffffffffffffffffffffffff1603610f54576040517f08c379a0000000000000000000000000000000000000000000000000000000008152600401610f4b90611a6e565b60405180910390fd5b8060025f828254610f6591906115fd565b92505081905550805f5f8473ffffffffffffffffffffffffffffffffffffffff1673ffffffffffffffffffffffffffffffffffffffff1681526020019081526020015f205f828254610fb791906115fd565b925050819055508173ffffffffffffffffffffffffffffffffffffffff165f73ffffffffffffffffffffffffffffffffffffffff167fddf252ad1be2c89b69c2b068fc378daa952ba7f163c4a11628f55a4df523b3ef8360405161101b9190611375565b60405180910390a35050565b5f73ffffffffffffffffffffffffffffffffffffffff168273ffffffffffffffffffffffffffffffffffffffff1603611095576040517f08c379a000000000000000000000000000000000000000000000000000000000815260040161108c90611ad6565b60405180910390fd5b5f5f5f8473ffffffffffffffffffffffffffffffffffffffff1673ffffffffffffffffffffffffffffffffffffffff1681526020019081526020015f2054905081811015611118576040517f08c379a000000000000000000000000000000000000000000000000000000000815260040161110f90611b64565b60405180910390fd5b8181035f5f8573ffffffffffffffffffffffffffffffffffffffff1673ffffffffffffffffffffffffffffffffffffffff1681526020019081526020015f20819055508160025f82825403925050819055505f73ffffffffffffffffffffffffffffffffffffffff168373ffffffffffffffffffffffffffffffffffffffff167fddf252ad1be2c89b69c2b068fc378daa952ba7f163c4a11628f55a4df523b3ef846040516111c79190611375565b60405180910390a3505050565b5f81519050919050565b5f82825260208201905092915050565b8281835e5f83830152505050565b5f601f19601f8301169050919050565b5f611216826111d4565b61122081856111de565b93506112308185602086016111ee565b611239816111fc565b840191505092915050565b5f6020820190508181035f83015261125c818461120c565b905092915050565b5f5ffd5b5f73ffffffffffffffffffffffffffffffffffffffff82169050919050565b5f61129182611268565b9050919050565b6112a181611287565b81146112ab575f5ffd5b50565b5f813590506112bc81611298565b92915050565b5f819050919050565b6112d4816112c2565b81146112de575f5ffd5b50565b5f813590506112ef816112cb565b92915050565b5f5f6040838503121561130b5761130a611264565b5b5f611318858286016112ae565b9250506020611329858286016112e1565b9150509250929050565b5f8115159050919050565b61134781611333565b82525050565b5f6020820190506113605f83018461133e565b92915050565b61136f816112c2565b82525050565b5f6020820190506113885f830184611366565b92915050565b5f602082840312156113a3576113a2611264565b5b5f6113b0848285016112ae565b91505092915050565b5f5f5f606084860312156113d0576113cf611264565b5b5f6113dd868287016112ae565b93505060206113ee868287016112ae565b92505060406113ff868287016112e1565b9150509250925092565b5f60ff82169050919050565b61141e81611409565b82525050565b5f6020820190506114375f830184611415565b92915050565b61144681611287565b82525050565b5f60208201905061145f5f83018461143d565b92915050565b5f5f6040838503121561147b5761147a611264565b5b5f611488858286016112ae565b9250506020611499858286016112ae565b9150509250929050565b7f4e487b71000000000000000000000000000000000000000000000000000000005f52602260045260245ffd5b5f60028204905060018216806114e757607f821691505b6020821081036114fa576114f96114a3565b5b50919050565b7f53696d706c655377617020796120667565207365746561646f000000000000005f82015250565b5f6115346019836111de565b915061153f82611500565b602082019050919050565b5f6020820190508181035f83015261156181611528565b9050919050565b7f446972656363696f6e20696e76616c69646100000000000000000000000000005f82015250565b5f61159c6012836111de565b91506115a782611568565b602082019050919050565b5f6020820190508181035f8301526115c981611590565b9050919050565b7f4e487b71000000000000000000000000000000000000000000000000000000005f52601160045260245ffd5b5f611607826112c2565b9150611612836112c2565b925082820190508082111561162a576116296115d0565b5b92915050565b7f4f6e6c792053696d706c65537761702063616e206d696e7400000000000000005f82015250565b5f6116646018836111de565b915061166f82611630565b602082019050919050565b5f6020820190508181035f83015261169181611658565b9050919050565b7f4f6e6c792053696d706c65537761702063616e206275726e00000000000000005f82015250565b5f6116cc6018836111de565b91506116d782611698565b602082019050919050565b5f6020820190508181035f8301526116f9816116c0565b9050919050565b7f45524332303a2064656372656173656420616c6c6f77616e63652062656c6f775f8201527f207a65726f000000000000000000000000000000000000000000000000000000602082015250565b5f61175a6025836111de565b915061176582611700565b604082019050919050565b5f6020820190508181035f8301526117878161174e565b9050919050565b7f45524332303a20617070726f76652066726f6d207a65726f00000000000000005f82015250565b5f6117c26018836111de565b91506117cd8261178e565b602082019050919050565b5f6020820190508181035f8301526117ef816117b6565b9050919050565b7f45524332303a20617070726f766520746f207a65726f000000000000000000005f82015250565b5f61182a6016836111de565b9150611835826117f6565b602082019050919050565b5f6020820190508181035f8301526118578161181e565b9050919050565b7f45524332303a20696e73756666696369656e7420616c6c6f77616e63650000005f82015250565b5f611892601d836111de565b915061189d8261185e565b602082019050919050565b5f6020820190508181035f8301526118bf81611886565b9050919050565b7f45524332303a207472616e736665722066726f6d207a65726f000000000000005f82015250565b5f6118fa6019836111de565b9150611905826118c6565b602082019050919050565b5f6020820190508181035f830152611927816118ee565b9050919050565b7f45524332303a207472616e7366657220746f207a65726f0000000000000000005f82015250565b5f6119626017836111de565b915061196d8261192e565b602082019050919050565b5f6020820190508181035f83015261198f81611956565b9050919050565b7f45524332303a207472616e7366657220616d6f756e74206578636565647320625f8201527f616c616e63650000000000000000000000000000000000000000000000000000602082015250565b5f6119f06026836111de565b91506119fb82611996565b604082019050919050565b5f6020820190508181035f830152611a1d816119e4565b9050919050565b7f45524332303a206d696e7420746f207a65726f000000000000000000000000005f82015250565b5f611a586013836111de565b9150611a6382611a24565b602082019050919050565b5f6020820190508181035f830152611a8581611a4c565b9050919050565b7f45524332303a206275726e2066726f6d207a65726f00000000000000000000005f82015250565b5f611ac06015836111de565b9150611acb82611a8c565b602082019050919050565b5f6020820190508181035f830152611aed81611ab4565b9050919050565b7f45524332303a206275726e20616d6f756e7420657863656564732062616c616e5f8201527f6365000000000000000000000000000000000000000000000000000000000000602082015250565b5f611b4e6022836111de565b9150611b5982611af4565b604082019050919050565b5f6020820190508181035f830152611b7b81611b42565b905091905056fea2646970667358221220b7c92cf0b3421a96a085e6ac845e80ab83ba9d966f66c1164db4d4671ccab94e64736f6c634300081e0033",
					"opcodes": "PUSH1 0x80 PUSH1 0x40 MSTORE CALLVALUE DUP1 ISZERO PUSH2 0xF JUMPI PUSH0 PUSH0 REVERT JUMPDEST POP PUSH1 0x40 MLOAD PUSH2 0x2103 CODESIZE SUB DUP1 PUSH2 0x2103 DUP4 CODECOPY DUP2 DUP2 ADD PUSH1 0x40 MSTORE DUP2 ADD SWAP1 PUSH2 0x31 SWAP2 SWAP1 PUSH2 0x1E9 JUMP JUMPDEST DUP2 DUP2 DUP2 PUSH1 0x3 SWAP1 DUP2 PUSH2 0x42 SWAP2 SWAP1 PUSH2 0x46F JUMP JUMPDEST POP DUP1 PUSH1 0x4 SWAP1 DUP2 PUSH2 0x52 SWAP2 SWAP1 PUSH2 0x46F JUMP JUMPDEST POP POP POP PUSH0 PUSH1 0x5 PUSH0 PUSH2 0x100 EXP DUP2 SLOAD DUP2 PUSH20 0xFFFFFFFFFFFFFFFFFFFFFFFFFFFFFFFFFFFFFFFF MUL NOT AND SWAP1 DUP4 PUSH20 0xFFFFFFFFFFFFFFFFFFFFFFFFFFFFFFFFFFFFFFFF AND MUL OR SWAP1 SSTORE POP POP POP PUSH2 0x53E JUMP JUMPDEST PUSH0 PUSH1 0x40 MLOAD SWAP1 POP SWAP1 JUMP JUMPDEST PUSH0 PUSH0 REVERT JUMPDEST PUSH0 PUSH0 REVERT JUMPDEST PUSH0 PUSH0 REVERT JUMPDEST PUSH0 PUSH0 REVERT JUMPDEST PUSH0 PUSH1 0x1F NOT PUSH1 0x1F DUP4 ADD AND SWAP1 POP SWAP2 SWAP1 POP JUMP JUMPDEST PUSH32 0x4E487B7100000000000000000000000000000000000000000000000000000000 PUSH0 MSTORE PUSH1 0x41 PUSH1 0x4 MSTORE PUSH1 0x24 PUSH0 REVERT JUMPDEST PUSH2 0xFB DUP3 PUSH2 0xB5 JUMP JUMPDEST DUP2 ADD DUP2 DUP2 LT PUSH8 0xFFFFFFFFFFFFFFFF DUP3 GT OR ISZERO PUSH2 0x11A JUMPI PUSH2 0x119 PUSH2 0xC5 JUMP JUMPDEST JUMPDEST DUP1 PUSH1 0x40 MSTORE POP POP POP JUMP JUMPDEST PUSH0 PUSH2 0x12C PUSH2 0x9C JUMP JUMPDEST SWAP1 POP PUSH2 0x138 DUP3 DUP3 PUSH2 0xF2 JUMP JUMPDEST SWAP2 SWAP1 POP JUMP JUMPDEST PUSH0 PUSH8 0xFFFFFFFFFFFFFFFF DUP3 GT ISZERO PUSH2 0x157 JUMPI PUSH2 0x156 PUSH2 0xC5 JUMP JUMPDEST JUMPDEST PUSH2 0x160 DUP3 PUSH2 0xB5 JUMP JUMPDEST SWAP1 POP PUSH1 0x20 DUP2 ADD SWAP1 POP SWAP2 SWAP1 POP JUMP JUMPDEST DUP3 DUP2 DUP4 MCOPY PUSH0 DUP4 DUP4 ADD MSTORE POP POP POP JUMP JUMPDEST PUSH0 PUSH2 0x18D PUSH2 0x188 DUP5 PUSH2 0x13D JUMP JUMPDEST PUSH2 0x123 JUMP JUMPDEST SWAP1 POP DUP3 DUP2 MSTORE PUSH1 0x20 DUP2 ADD DUP5 DUP5 DUP5 ADD GT ISZERO PUSH2 0x1A9 JUMPI PUSH2 0x1A8 PUSH2 0xB1 JUMP JUMPDEST JUMPDEST PUSH2 0x1B4 DUP5 DUP3 DUP6 PUSH2 0x16D JUMP JUMPDEST POP SWAP4 SWAP3 POP POP POP JUMP JUMPDEST PUSH0 DUP3 PUSH1 0x1F DUP4 ADD SLT PUSH2 0x1D0 JUMPI PUSH2 0x1CF PUSH2 0xAD JUMP JUMPDEST JUMPDEST DUP2 MLOAD PUSH2 0x1E0 DUP5 DUP3 PUSH1 0x20 DUP7 ADD PUSH2 0x17B JUMP JUMPDEST SWAP2 POP POP SWAP3 SWAP2 POP POP JUMP JUMPDEST PUSH0 PUSH0 PUSH1 0x40 DUP4 DUP6 SUB SLT ISZERO PUSH2 0x1FF JUMPI PUSH2 0x1FE PUSH2 0xA5 JUMP JUMPDEST JUMPDEST PUSH0 DUP4 ADD MLOAD PUSH8 0xFFFFFFFFFFFFFFFF DUP2 GT ISZERO PUSH2 0x21C JUMPI PUSH2 0x21B PUSH2 0xA9 JUMP JUMPDEST JUMPDEST PUSH2 0x228 DUP6 DUP3 DUP7 ADD PUSH2 0x1BC JUMP JUMPDEST SWAP3 POP POP PUSH1 0x20 DUP4 ADD MLOAD PUSH8 0xFFFFFFFFFFFFFFFF DUP2 GT ISZERO PUSH2 0x249 JUMPI PUSH2 0x248 PUSH2 0xA9 JUMP JUMPDEST JUMPDEST PUSH2 0x255 DUP6 DUP3 DUP7 ADD PUSH2 0x1BC JUMP JUMPDEST SWAP2 POP POP SWAP3 POP SWAP3 SWAP1 POP JUMP JUMPDEST PUSH0 DUP2 MLOAD SWAP1 POP SWAP2 SWAP1 POP JUMP JUMPDEST PUSH32 0x4E487B7100000000000000000000000000000000000000000000000000000000 PUSH0 MSTORE PUSH1 0x22 PUSH1 0x4 MSTORE PUSH1 0x24 PUSH0 REVERT JUMPDEST PUSH0 PUSH1 0x2 DUP3 DIV SWAP1 POP PUSH1 0x1 DUP3 AND DUP1 PUSH2 0x2AD JUMPI PUSH1 0x7F DUP3 AND SWAP2 POP JUMPDEST PUSH1 0x20 DUP3 LT DUP2 SUB PUSH2 0x2C0 JUMPI PUSH2 0x2BF PUSH2 0x269 JUMP JUMPDEST JUMPDEST POP SWAP2 SWAP1 POP JUMP JUMPDEST PUSH0 DUP2 SWAP1 POP DUP2 PUSH0 MSTORE PUSH1 0x20 PUSH0 KECCAK256 SWAP1 POP SWAP2 SWAP1 POP JUMP JUMPDEST PUSH0 PUSH1 0x20 PUSH1 0x1F DUP4 ADD DIV SWAP1 POP SWAP2 SWAP1 POP JUMP JUMPDEST PUSH0 DUP3 DUP3 SHL SWAP1 POP SWAP3 SWAP2 POP POP JUMP JUMPDEST PUSH0 PUSH1 0x8 DUP4 MUL PUSH2 0x322 PUSH32 0xFFFFFFFFFFFFFFFFFFFFFFFFFFFFFFFFFFFFFFFFFFFFFFFFFFFFFFFFFFFFFFFF DUP3 PUSH2 0x2E7 JUMP JUMPDEST PUSH2 0x32C DUP7 DUP4 PUSH2 0x2E7 JUMP JUMPDEST SWAP6 POP DUP1 NOT DUP5 AND SWAP4 POP DUP1 DUP7 AND DUP5 OR SWAP3 POP POP POP SWAP4 SWAP3 POP POP POP JUMP JUMPDEST PUSH0 DUP2 SWAP1 POP SWAP2 SWAP1 POP JUMP JUMPDEST PUSH0 DUP2 SWAP1 POP SWAP2 SWAP1 POP JUMP JUMPDEST PUSH0 PUSH2 0x370 PUSH2 0x36B PUSH2 0x366 DUP5 PUSH2 0x344 JUMP JUMPDEST PUSH2 0x34D JUMP JUMPDEST PUSH2 0x344 JUMP JUMPDEST SWAP1 POP SWAP2 SWAP1 POP JUMP JUMPDEST PUSH0 DUP2 SWAP1 POP SWAP2 SWAP1 POP JUMP JUMPDEST PUSH2 0x389 DUP4 PUSH2 0x356 JUMP JUMPDEST PUSH2 0x39D PUSH2 0x395 DUP3 PUSH2 0x377 JUMP JUMPDEST DUP5 DUP5 SLOAD PUSH2 0x2F3 JUMP JUMPDEST DUP3 SSTORE POP POP POP POP JUMP JUMPDEST PUSH0 PUSH0 SWAP1 POP SWAP1 JUMP JUMPDEST PUSH2 0x3B4 PUSH2 0x3A5 JUMP JUMPDEST PUSH2 0x3BF DUP2 DUP5 DUP5 PUSH2 0x380 JUMP JUMPDEST POP POP POP JUMP JUMPDEST JUMPDEST DUP2 DUP2 LT ISZERO PUSH2 0x3E2 JUMPI PUSH2 0x3D7 PUSH0 DUP3 PUSH2 0x3AC JUMP JUMPDEST PUSH1 0x1 DUP2 ADD SWAP1 POP PUSH2 0x3C5 JUMP JUMPDEST POP POP JUMP JUMPDEST PUSH1 0x1F DUP3 GT ISZERO PUSH2 0x427 JUMPI PUSH2 0x3F8 DUP2 PUSH2 0x2C6 JUMP JUMPDEST PUSH2 0x401 DUP5 PUSH2 0x2D8 JUMP JUMPDEST DUP2 ADD PUSH1 0x20 DUP6 LT ISZERO PUSH2 0x410 JUMPI DUP2 SWAP1 POP JUMPDEST PUSH2 0x424 PUSH2 0x41C DUP6 PUSH2 0x2D8 JUMP JUMPDEST DUP4 ADD DUP3 PUSH2 0x3C4 JUMP JUMPDEST POP POP JUMPDEST POP POP POP JUMP JUMPDEST PUSH0 DUP3 DUP3 SHR SWAP1 POP SWAP3 SWAP2 POP POP JUMP JUMPDEST PUSH0 PUSH2 0x447 PUSH0 NOT DUP5 PUSH1 0x8 MUL PUSH2 0x42C JUMP JUMPDEST NOT DUP1 DUP4 AND SWAP2 POP POP SWAP3 SWAP2 POP POP JUMP JUMPDEST PUSH0 PUSH2 0x45F DUP4 DUP4 PUSH2 0x438 JUMP JUMPDEST SWAP2 POP DUP3 PUSH1 0x2 MUL DUP3 OR SWAP1 POP SWAP3 SWAP2 POP POP JUMP JUMPDEST PUSH2 0x478 DUP3 PUSH2 0x25F JUMP JUMPDEST PUSH8 0xFFFFFFFFFFFFFFFF DUP2 GT ISZERO PUSH2 0x491 JUMPI PUSH2 0x490 PUSH2 0xC5 JUMP JUMPDEST JUMPDEST PUSH2 0x49B DUP3 SLOAD PUSH2 0x296 JUMP JUMPDEST PUSH2 0x4A6 DUP3 DUP3 DUP6 PUSH2 0x3E6 JUMP JUMPDEST PUSH0 PUSH1 0x20 SWAP1 POP PUSH1 0x1F DUP4 GT PUSH1 0x1 DUP2 EQ PUSH2 0x4D7 JUMPI PUSH0 DUP5 ISZERO PUSH2 0x4C5 JUMPI DUP3 DUP8 ADD MLOAD SWAP1 POP JUMPDEST PUSH2 0x4CF DUP6 DUP3 PUSH2 0x454 JUMP JUMPDEST DUP7 SSTORE POP PUSH2 0x536 JUMP JUMPDEST PUSH1 0x1F NOT DUP5 AND PUSH2 0x4E5 DUP7 PUSH2 0x2C6 JUMP JUMPDEST PUSH0 JUMPDEST DUP3 DUP2 LT ISZERO PUSH2 0x50C JUMPI DUP5 DUP10 ADD MLOAD DUP3 SSTORE PUSH1 0x1 DUP3 ADD SWAP2 POP PUSH1 0x20 DUP6 ADD SWAP5 POP PUSH1 0x20 DUP2 ADD SWAP1 POP PUSH2 0x4E7 JUMP JUMPDEST DUP7 DUP4 LT ISZERO PUSH2 0x529 JUMPI DUP5 DUP10 ADD MLOAD PUSH2 0x525 PUSH1 0x1F DUP10 AND DUP3 PUSH2 0x438 JUMP JUMPDEST DUP4 SSTORE POP JUMPDEST PUSH1 0x1 PUSH1 0x2 DUP9 MUL ADD DUP9 SSTORE POP POP POP JUMPDEST POP POP POP POP POP POP JUMP JUMPDEST PUSH2 0x1BB8 DUP1 PUSH2 0x54B PUSH0 CODECOPY PUSH0 RETURN INVALID PUSH1 0x80 PUSH1 0x40 MSTORE CALLVALUE DUP1 ISZERO PUSH2 0xF JUMPI PUSH0 PUSH0 REVERT JUMPDEST POP PUSH1 0x4 CALLDATASIZE LT PUSH2 0xF3 JUMPI PUSH0 CALLDATALOAD PUSH1 0xE0 SHR DUP1 PUSH4 0x40C10F19 GT PUSH2 0x95 JUMPI DUP1 PUSH4 0x9DC29FAC GT PUSH2 0x64 JUMPI DUP1 PUSH4 0x9DC29FAC EQ PUSH2 0x285 JUMPI DUP1 PUSH4 0xA457C2D7 EQ PUSH2 0x2A1 JUMPI DUP1 PUSH4 0xA9059CBB EQ PUSH2 0x2D1 JUMPI DUP1 PUSH4 0xDD62ED3E EQ PUSH2 0x301 JUMPI PUSH2 0xF3 JUMP JUMPDEST DUP1 PUSH4 0x40C10F19 EQ PUSH2 0x1FD JUMPI DUP1 PUSH4 0x70A08231 EQ PUSH2 0x219 JUMPI DUP1 PUSH4 0x8927E052 EQ PUSH2 0x249 JUMPI DUP1 PUSH4 0x95D89B41 EQ PUSH2 0x267 JUMPI PUSH2 0xF3 JUMP JUMPDEST DUP1 PUSH4 0x1F5870EF GT PUSH2 0xD1 JUMPI DUP1 PUSH4 0x1F5870EF EQ PUSH2 0x163 JUMPI DUP1 PUSH4 0x23B872DD EQ PUSH2 0x17F JUMPI DUP1 PUSH4 0x313CE567 EQ PUSH2 0x1AF JUMPI DUP1 PUSH4 0x39509351 EQ PUSH2 0x1CD JUMPI PUSH2 0xF3 JUMP JUMPDEST DUP1 PUSH4 0x6FDDE03 EQ PUSH2 0xF7 JUMPI DUP1 PUSH4 0x95EA7B3 EQ PUSH2 0x115 JUMPI DUP1 PUSH4 0x18160DDD EQ PUSH2 0x145 JUMPI JUMPDEST PUSH0 PUSH0 REVERT JUMPDEST PUSH2 0xFF PUSH2 0x331 JUMP JUMPDEST PUSH1 0x40 MLOAD PUSH2 0x10C SWAP2 SWAP1 PUSH2 0x1244 JUMP JUMPDEST PUSH1 0x40 MLOAD DUP1 SWAP2 SUB SWAP1 RETURN JUMPDEST PUSH2 0x12F PUSH1 0x4 DUP1 CALLDATASIZE SUB DUP2 ADD SWAP1 PUSH2 0x12A SWAP2 SWAP1 PUSH2 0x12F5 JUMP JUMPDEST PUSH2 0x3C1 JUMP JUMPDEST PUSH1 0x40 MLOAD PUSH2 0x13C SWAP2 SWAP1 PUSH2 0x134D JUMP JUMPDEST PUSH1 0x40 MLOAD DUP1 SWAP2 SUB SWAP1 RETURN JUMPDEST PUSH2 0x14D PUSH2 0x3E3 JUMP JUMPDEST PUSH1 0x40 MLOAD PUSH2 0x15A SWAP2 SWAP1 PUSH2 0x1375 JUMP JUMPDEST PUSH1 0x40 MLOAD DUP1 SWAP2 SUB SWAP1 RETURN JUMPDEST PUSH2 0x17D PUSH1 0x4 DUP1 CALLDATASIZE SUB DUP2 ADD SWAP1 PUSH2 0x178 SWAP2 SWAP1 PUSH2 0x138E JUMP JUMPDEST PUSH2 0x3EC JUMP JUMPDEST STOP JUMPDEST PUSH2 0x199 PUSH1 0x4 DUP1 CALLDATASIZE SUB DUP2 ADD SWAP1 PUSH2 0x194 SWAP2 SWAP1 PUSH2 0x13B9 JUMP JUMPDEST PUSH2 0x52C JUMP JUMPDEST PUSH1 0x40 MLOAD PUSH2 0x1A6 SWAP2 SWAP1 PUSH2 0x134D JUMP JUMPDEST PUSH1 0x40 MLOAD DUP1 SWAP2 SUB SWAP1 RETURN JUMPDEST PUSH2 0x1B7 PUSH2 0x55A JUMP JUMPDEST PUSH1 0x40 MLOAD PUSH2 0x1C4 SWAP2 SWAP1 PUSH2 0x1424 JUMP JUMPDEST PUSH1 0x40 MLOAD DUP1 SWAP2 SUB SWAP1 RETURN JUMPDEST PUSH2 0x1E7 PUSH1 0x4 DUP1 CALLDATASIZE SUB DUP2 ADD SWAP1 PUSH2 0x1E2 SWAP2 SWAP1 PUSH2 0x12F5 JUMP JUMPDEST PUSH2 0x562 JUMP JUMPDEST PUSH1 0x40 MLOAD PUSH2 0x1F4 SWAP2 SWAP1 PUSH2 0x134D JUMP JUMPDEST PUSH1 0x40 MLOAD DUP1 SWAP2 SUB SWAP1 RETURN JUMPDEST PUSH2 0x217 PUSH1 0x4 DUP1 CALLDATASIZE SUB DUP2 ADD SWAP1 PUSH2 0x212 SWAP2 SWAP1 PUSH2 0x12F5 JUMP JUMPDEST PUSH2 0x607 JUMP JUMPDEST STOP JUMPDEST PUSH2 0x233 PUSH1 0x4 DUP1 CALLDATASIZE SUB DUP2 ADD SWAP1 PUSH2 0x22E SWAP2 SWAP1 PUSH2 0x138E JUMP JUMPDEST PUSH2 0x6A4 JUMP JUMPDEST PUSH1 0x40 MLOAD PUSH2 0x240 SWAP2 SWAP1 PUSH2 0x1375 JUMP JUMPDEST PUSH1 0x40 MLOAD DUP1 SWAP2 SUB SWAP1 RETURN JUMPDEST PUSH2 0x251 PUSH2 0x6E9 JUMP JUMPDEST PUSH1 0x40 MLOAD PUSH2 0x25E SWAP2 SWAP1 PUSH2 0x144C JUMP JUMPDEST PUSH1 0x40 MLOAD DUP1 SWAP2 SUB SWAP1 RETURN JUMPDEST PUSH2 0x26F PUSH2 0x70E JUMP JUMPDEST PUSH1 0x40 MLOAD PUSH2 0x27C SWAP2 SWAP1 PUSH2 0x1244 JUMP JUMPDEST PUSH1 0x40 MLOAD DUP1 SWAP2 SUB SWAP1 RETURN JUMPDEST PUSH2 0x29F PUSH1 0x4 DUP1 CALLDATASIZE SUB DUP2 ADD SWAP1 PUSH2 0x29A SWAP2 SWAP1 PUSH2 0x12F5 JUMP JUMPDEST PUSH2 0x79E JUMP JUMPDEST STOP JUMPDEST PUSH2 0x2BB PUSH1 0x4 DUP1 CALLDATASIZE SUB DUP2 ADD SWAP1 PUSH2 0x2B6 SWAP2 SWAP1 PUSH2 0x12F5 JUMP JUMPDEST PUSH2 0x83B JUMP JUMPDEST PUSH1 0x40 MLOAD PUSH2 0x2C8 SWAP2 SWAP1 PUSH2 0x134D JUMP JUMPDEST PUSH1 0x40 MLOAD DUP1 SWAP2 SUB SWAP1 RETURN JUMPDEST PUSH2 0x2EB PUSH1 0x4 DUP1 CALLDATASIZE SUB DUP2 ADD SWAP1 PUSH2 0x2E6 SWAP2 SWAP1 PUSH2 0x12F5 JUMP JUMPDEST PUSH2 0x91F JUMP JUMPDEST PUSH1 0x40 MLOAD PUSH2 0x2F8 SWAP2 SWAP1 PUSH2 0x134D JUMP JUMPDEST PUSH1 0x40 MLOAD DUP1 SWAP2 SUB SWAP1 RETURN JUMPDEST PUSH2 0x31B PUSH1 0x4 DUP1 CALLDATASIZE SUB DUP2 ADD SWAP1 PUSH2 0x316 SWAP2 SWAP1 PUSH2 0x1465 JUMP JUMPDEST PUSH2 0x941 JUMP JUMPDEST PUSH1 0x40 MLOAD PUSH2 0x328 SWAP2 SWAP1 PUSH2 0x1375 JUMP JUMPDEST PUSH1 0x40 MLOAD DUP1 SWAP2 SUB SWAP1 RETURN JUMPDEST PUSH1 0x60 PUSH1 0x3 DUP1 SLOAD PUSH2 0x340 SWAP1 PUSH2 0x14D0 JUMP JUMPDEST DUP1 PUSH1 0x1F ADD PUSH1 0x20 DUP1 SWAP2 DIV MUL PUSH1 0x20 ADD PUSH1 0x40 MLOAD SWAP1 DUP2 ADD PUSH1 0x40 MSTORE DUP1 SWAP3 SWAP2 SWAP1 DUP2 DUP2 MSTORE PUSH1 0x20 ADD DUP3 DUP1 SLOAD PUSH2 0x36C SWAP1 PUSH2 0x14D0 JUMP JUMPDEST DUP1 ISZERO PUSH2 0x3B7 JUMPI DUP1 PUSH1 0x1F LT PUSH2 0x38E JUMPI PUSH2 0x100 DUP1 DUP4 SLOAD DIV MUL DUP4 MSTORE SWAP2 PUSH1 0x20 ADD SWAP2 PUSH2 0x3B7 JUMP JUMPDEST DUP3 ADD SWAP2 SWAP1 PUSH0 MSTORE PUSH1 0x20 PUSH0 KECCAK256 SWAP1 JUMPDEST DUP2 SLOAD DUP2 MSTORE SWAP1 PUSH1 0x1 ADD SWAP1 PUSH1 0x20 ADD DUP1 DUP4 GT PUSH2 0x39A JUMPI DUP3 SWAP1 SUB PUSH1 0x1F AND DUP3 ADD SWAP2 JUMPDEST POP POP POP POP POP SWAP1 POP SWAP1 JUMP JUMPDEST PUSH0 PUSH0 PUSH2 0x3CB PUSH2 0x9C3 JUMP JUMPDEST SWAP1 POP PUSH2 0x3D8 DUP2 DUP6 DUP6 PUSH2 0x9CA JUMP JUMPDEST PUSH1 0x1 SWAP2 POP POP SWAP3 SWAP2 POP POP JUMP JUMPDEST PUSH0 PUSH1 0x2 SLOAD SWAP1 POP SWAP1 JUMP JUMPDEST PUSH0 PUSH20 0xFFFFFFFFFFFFFFFFFFFFFFFFFFFFFFFFFFFFFFFF AND PUSH1 0x5 PUSH0 SWAP1 SLOAD SWAP1 PUSH2 0x100 EXP SWAP1 DIV PUSH20 0xFFFFFFFFFFFFFFFFFFFFFFFFFFFFFFFFFFFFFFFF AND PUSH20 0xFFFFFFFFFFFFFFFFFFFFFFFFFFFFFFFFFFFFFFFF AND EQ PUSH2 0x47B JUMPI PUSH1 0x40 MLOAD PUSH32 0x8C379A000000000000000000000000000000000000000000000000000000000 DUP2 MSTORE PUSH1 0x4 ADD PUSH2 0x472 SWAP1 PUSH2 0x154A JUMP JUMPDEST PUSH1 0x40 MLOAD DUP1 SWAP2 SUB SWAP1 REVERT JUMPDEST PUSH0 PUSH20 0xFFFFFFFFFFFFFFFFFFFFFFFFFFFFFFFFFFFFFFFF AND DUP2 PUSH20 0xFFFFFFFFFFFFFFFFFFFFFFFFFFFFFFFFFFFFFFFF AND SUB PUSH2 0x4E9 JUMPI PUSH1 0x40 MLOAD PUSH32 0x8C379A000000000000000000000000000000000000000000000000000000000 DUP2 MSTORE PUSH1 0x4 ADD PUSH2 0x4E0 SWAP1 PUSH2 0x15B2 JUMP JUMPDEST PUSH1 0x40 MLOAD DUP1 SWAP2 SUB SWAP1 REVERT JUMPDEST DUP1 PUSH1 0x5 PUSH0 PUSH2 0x100 EXP DUP2 SLOAD DUP2 PUSH20 0xFFFFFFFFFFFFFFFFFFFFFFFFFFFFFFFFFFFFFFFF MUL NOT AND SWAP1 DUP4 PUSH20 0xFFFFFFFFFFFFFFFFFFFFFFFFFFFFFFFFFFFFFFFF AND MUL OR SWAP1 SSTORE POP POP JUMP JUMPDEST PUSH0 PUSH0 PUSH2 0x536 PUSH2 0x9C3 JUMP JUMPDEST SWAP1 POP PUSH2 0x543 DUP6 DUP3 DUP6 PUSH2 0xB8D JUMP JUMPDEST PUSH2 0x54E DUP6 DUP6 DUP6 PUSH2 0xC87 JUMP JUMPDEST PUSH1 0x1 SWAP2 POP POP SWAP4 SWAP3 POP POP POP JUMP JUMPDEST PUSH0 PUSH1 0x12 SWAP1 POP SWAP1 JUMP JUMPDEST PUSH0 PUSH0 PUSH2 0x56C PUSH2 0x9C3 JUMP JUMPDEST SWAP1 POP PUSH2 0x5FC DUP2 DUP6 DUP6 PUSH1 0x1 PUSH0 DUP7 PUSH20 0xFFFFFFFFFFFFFFFFFFFFFFFFFFFFFFFFFFFFFFFF AND PUSH20 0xFFFFFFFFFFFFFFFFFFFFFFFFFFFFFFFFFFFFFFFF AND DUP2 MSTORE PUSH1 0x20 ADD SWAP1 DUP2 MSTORE PUSH1 0x20 ADD PUSH0 KECCAK256 PUSH0 DUP10 PUSH20 0xFFFFFFFFFFFFFFFFFFFFFFFFFFFFFFFFFFFFFFFF AND PUSH20 0xFFFFFFFFFFFFFFFFFFFFFFFFFFFFFFFFFFFFFFFF AND DUP2 MSTORE PUSH1 0x20 ADD SWAP1 DUP2 MSTORE PUSH1 0x20 ADD PUSH0 KECCAK256 SLOAD PUSH2 0x5F7 SWAP2 SWAP1 PUSH2 0x15FD JUMP JUMPDEST PUSH2 0x9CA JUMP JUMPDEST PUSH1 0x1 SWAP2 POP POP SWAP3 SWAP2 POP POP JUMP JUMPDEST PUSH1 0x5 PUSH0 SWAP1 SLOAD SWAP1 PUSH2 0x100 EXP SWAP1 DIV PUSH20 0xFFFFFFFFFFFFFFFFFFFFFFFFFFFFFFFFFFFFFFFF AND PUSH20 0xFFFFFFFFFFFFFFFFFFFFFFFFFFFFFFFFFFFFFFFF AND CALLER PUSH20 0xFFFFFFFFFFFFFFFFFFFFFFFFFFFFFFFFFFFFFFFF AND EQ PUSH2 0x696 JUMPI PUSH1 0x40 MLOAD PUSH32 0x8C379A000000000000000000000000000000000000000000000000000000000 DUP2 MSTORE PUSH1 0x4 ADD PUSH2 0x68D SWAP1 PUSH2 0x167A JUMP JUMPDEST PUSH1 0x40 MLOAD DUP1 SWAP2 SUB SWAP1 REVERT JUMPDEST PUSH2 0x6A0 DUP3 DUP3 PUSH2 0xEE6 JUMP JUMPDEST POP POP JUMP JUMPDEST PUSH0 PUSH0 PUSH0 DUP4 PUSH20 0xFFFFFFFFFFFFFFFFFFFFFFFFFFFFFFFFFFFFFFFF AND PUSH20 0xFFFFFFFFFFFFFFFFFFFFFFFFFFFFFFFFFFFFFFFF AND DUP2 MSTORE PUSH1 0x20 ADD SWAP1 DUP2 MSTORE PUSH1 0x20 ADD PUSH0 KECCAK256 SLOAD SWAP1 POP SWAP2 SWAP1 POP JUMP JUMPDEST PUSH1 0x5 PUSH0 SWAP1 SLOAD SWAP1 PUSH2 0x100 EXP SWAP1 DIV PUSH20 0xFFFFFFFFFFFFFFFFFFFFFFFFFFFFFFFFFFFFFFFF AND DUP2 JUMP JUMPDEST PUSH1 0x60 PUSH1 0x4 DUP1 SLOAD PUSH2 0x71D SWAP1 PUSH2 0x14D0 JUMP JUMPDEST DUP1 PUSH1 0x1F ADD PUSH1 0x20 DUP1 SWAP2 DIV MUL PUSH1 0x20 ADD PUSH1 0x40 MLOAD SWAP1 DUP2 ADD PUSH1 0x40 MSTORE DUP1 SWAP3 SWAP2 SWAP1 DUP2 DUP2 MSTORE PUSH1 0x20 ADD DUP3 DUP1 SLOAD PUSH2 0x749 SWAP1 PUSH2 0x14D0 JUMP JUMPDEST DUP1 ISZERO PUSH2 0x794 JUMPI DUP1 PUSH1 0x1F LT PUSH2 0x76B JUMPI PUSH2 0x100 DUP1 DUP4 SLOAD DIV MUL DUP4 MSTORE SWAP2 PUSH1 0x20 ADD SWAP2 PUSH2 0x794 JUMP JUMPDEST DUP3 ADD SWAP2 SWAP1 PUSH0 MSTORE PUSH1 0x20 PUSH0 KECCAK256 SWAP1 JUMPDEST DUP2 SLOAD DUP2 MSTORE SWAP1 PUSH1 0x1 ADD SWAP1 PUSH1 0x20 ADD DUP1 DUP4 GT PUSH2 0x777 JUMPI DUP3 SWAP1 SUB PUSH1 0x1F AND DUP3 ADD SWAP2 JUMPDEST POP POP POP POP POP SWAP1 POP SWAP1 JUMP JUMPDEST PUSH1 0x5 PUSH0 SWAP1 SLOAD SWAP1 PUSH2 0x100 EXP SWAP1 DIV PUSH20 0xFFFFFFFFFFFFFFFFFFFFFFFFFFFFFFFFFFFFFFFF AND PUSH20 0xFFFFFFFFFFFFFFFFFFFFFFFFFFFFFFFFFFFFFFFF AND CALLER PUSH20 0xFFFFFFFFFFFFFFFFFFFFFFFFFFFFFFFFFFFFFFFF AND EQ PUSH2 0x82D JUMPI PUSH1 0x40 MLOAD PUSH32 0x8C379A000000000000000000000000000000000000000000000000000000000 DUP2 MSTORE PUSH1 0x4 ADD PUSH2 0x824 SWAP1 PUSH2 0x16E2 JUMP JUMPDEST PUSH1 0x40 MLOAD DUP1 SWAP2 SUB SWAP1 REVERT JUMPDEST PUSH2 0x837 DUP3 DUP3 PUSH2 0x1027 JUMP JUMPDEST POP POP JUMP JUMPDEST PUSH0 PUSH0 PUSH2 0x845 PUSH2 0x9C3 JUMP JUMPDEST SWAP1 POP PUSH0 PUSH1 0x1 PUSH0 DUP4 PUSH20 0xFFFFFFFFFFFFFFFFFFFFFFFFFFFFFFFFFFFFFFFF AND PUSH20 0xFFFFFFFFFFFFFFFFFFFFFFFFFFFFFFFFFFFFFFFF AND DUP2 MSTORE PUSH1 0x20 ADD SWAP1 DUP2 MSTORE PUSH1 0x20 ADD PUSH0 KECCAK256 PUSH0 DUP7 PUSH20 0xFFFFFFFFFFFFFFFFFFFFFFFFFFFFFFFFFFFFFFFF AND PUSH20 0xFFFFFFFFFFFFFFFFFFFFFFFFFFFFFFFFFFFFFFFF AND DUP2 MSTORE PUSH1 0x20 ADD SWAP1 DUP2 MSTORE PUSH1 0x20 ADD PUSH0 KECCAK256 SLOAD SWAP1 POP DUP4 DUP2 LT ISZERO PUSH2 0x906 JUMPI PUSH1 0x40 MLOAD PUSH32 0x8C379A000000000000000000000000000000000000000000000000000000000 DUP2 MSTORE PUSH1 0x4 ADD PUSH2 0x8FD SWAP1 PUSH2 0x1770 JUMP JUMPDEST PUSH1 0x40 MLOAD DUP1 SWAP2 SUB SWAP1 REVERT JUMPDEST PUSH2 0x913 DUP3 DUP7 DUP7 DUP5 SUB PUSH2 0x9CA JUMP JUMPDEST PUSH1 0x1 SWAP3 POP POP POP SWAP3 SWAP2 POP POP JUMP JUMPDEST PUSH0 PUSH0 PUSH2 0x929 PUSH2 0x9C3 JUMP JUMPDEST SWAP1 POP PUSH2 0x936 DUP2 DUP6 DUP6 PUSH2 0xC87 JUMP JUMPDEST PUSH1 0x1 SWAP2 POP POP SWAP3 SWAP2 POP POP JUMP JUMPDEST PUSH0 PUSH1 0x1 PUSH0 DUP5 PUSH20 0xFFFFFFFFFFFFFFFFFFFFFFFFFFFFFFFFFFFFFFFF AND PUSH20 0xFFFFFFFFFFFFFFFFFFFFFFFFFFFFFFFFFFFFFFFF AND DUP2 MSTORE PUSH1 0x20 ADD SWAP1 DUP2 MSTORE PUSH1 0x20 ADD PUSH0 KECCAK256 PUSH0 DUP4 PUSH20 0xFFFFFFFFFFFFFFFFFFFFFFFFFFFFFFFFFFFFFFFF AND PUSH20 0xFFFFFFFFFFFFFFFFFFFFFFFFFFFFFFFFFFFFFFFF AND DUP2 MSTORE PUSH1 0x20 ADD SWAP1 DUP2 MSTORE PUSH1 0x20 ADD PUSH0 KECCAK256 SLOAD SWAP1 POP SWAP3 SWAP2 POP POP JUMP JUMPDEST PUSH0 CALLER SWAP1 POP SWAP1 JUMP JUMPDEST PUSH0 PUSH20 0xFFFFFFFFFFFFFFFFFFFFFFFFFFFFFFFFFFFFFFFF AND DUP4 PUSH20 0xFFFFFFFFFFFFFFFFFFFFFFFFFFFFFFFFFFFFFFFF AND SUB PUSH2 0xA38 JUMPI PUSH1 0x40 MLOAD PUSH32 0x8C379A000000000000000000000000000000000000000000000000000000000 DUP2 MSTORE PUSH1 0x4 ADD PUSH2 0xA2F SWAP1 PUSH2 0x17D8 JUMP JUMPDEST PUSH1 0x40 MLOAD DUP1 SWAP2 SUB SWAP1 REVERT JUMPDEST PUSH0 PUSH20 0xFFFFFFFFFFFFFFFFFFFFFFFFFFFFFFFFFFFFFFFF AND DUP3 PUSH20 0xFFFFFFFFFFFFFFFFFFFFFFFFFFFFFFFFFFFFFFFF AND SUB PUSH2 0xAA6 JUMPI PUSH1 0x40 MLOAD PUSH32 0x8C379A000000000000000000000000000000000000000000000000000000000 DUP2 MSTORE PUSH1 0x4 ADD PUSH2 0xA9D SWAP1 PUSH2 0x1840 JUMP JUMPDEST PUSH1 0x40 MLOAD DUP1 SWAP2 SUB SWAP1 REVERT JUMPDEST DUP1 PUSH1 0x1 PUSH0 DUP6 PUSH20 0xFFFFFFFFFFFFFFFFFFFFFFFFFFFFFFFFFFFFFFFF AND PUSH20 0xFFFFFFFFFFFFFFFFFFFFFFFFFFFFFFFFFFFFFFFF AND DUP2 MSTORE PUSH1 0x20 ADD SWAP1 DUP2 MSTORE PUSH1 0x20 ADD PUSH0 KECCAK256 PUSH0 DUP5 PUSH20 0xFFFFFFFFFFFFFFFFFFFFFFFFFFFFFFFFFFFFFFFF AND PUSH20 0xFFFFFFFFFFFFFFFFFFFFFFFFFFFFFFFFFFFFFFFF AND DUP2 MSTORE PUSH1 0x20 ADD SWAP1 DUP2 MSTORE PUSH1 0x20 ADD PUSH0 KECCAK256 DUP2 SWAP1 SSTORE POP DUP2 PUSH20 0xFFFFFFFFFFFFFFFFFFFFFFFFFFFFFFFFFFFFFFFF AND DUP4 PUSH20 0xFFFFFFFFFFFFFFFFFFFFFFFFFFFFFFFFFFFFFFFF AND PUSH32 0x8C5BE1E5EBEC7D5BD14F71427D1E84F3DD0314C0F7B2291E5B200AC8C7C3B925 DUP4 PUSH1 0x40 MLOAD PUSH2 0xB80 SWAP2 SWAP1 PUSH2 0x1375 JUMP JUMPDEST PUSH1 0x40 MLOAD DUP1 SWAP2 SUB SWAP1 LOG3 POP POP POP JUMP JUMPDEST PUSH0 PUSH1 0x1 PUSH0 DUP6 PUSH20 0xFFFFFFFFFFFFFFFFFFFFFFFFFFFFFFFFFFFFFFFF AND PUSH20 0xFFFFFFFFFFFFFFFFFFFFFFFFFFFFFFFFFFFFFFFF AND DUP2 MSTORE PUSH1 0x20 ADD SWAP1 DUP2 MSTORE PUSH1 0x20 ADD PUSH0 KECCAK256 PUSH0 DUP5 PUSH20 0xFFFFFFFFFFFFFFFFFFFFFFFFFFFFFFFFFFFFFFFF AND PUSH20 0xFFFFFFFFFFFFFFFFFFFFFFFFFFFFFFFFFFFFFFFF AND DUP2 MSTORE PUSH1 0x20 ADD SWAP1 DUP2 MSTORE PUSH1 0x20 ADD PUSH0 KECCAK256 SLOAD SWAP1 POP PUSH32 0xFFFFFFFFFFFFFFFFFFFFFFFFFFFFFFFFFFFFFFFFFFFFFFFFFFFFFFFFFFFFFFFF DUP2 EQ PUSH2 0xC81 JUMPI DUP2 DUP2 LT ISZERO PUSH2 0xC73 JUMPI PUSH1 0x40 MLOAD PUSH32 0x8C379A000000000000000000000000000000000000000000000000000000000 DUP2 MSTORE PUSH1 0x4 ADD PUSH2 0xC6A SWAP1 PUSH2 0x18A8 JUMP JUMPDEST PUSH1 0x40 MLOAD DUP1 SWAP2 SUB SWAP1 REVERT JUMPDEST PUSH2 0xC80 DUP5 DUP5 DUP5 DUP5 SUB PUSH2 0x9CA JUMP JUMPDEST JUMPDEST POP POP POP POP JUMP JUMPDEST PUSH0 PUSH20 0xFFFFFFFFFFFFFFFFFFFFFFFFFFFFFFFFFFFFFFFF AND DUP4 PUSH20 0xFFFFFFFFFFFFFFFFFFFFFFFFFFFFFFFFFFFFFFFF AND SUB PUSH2 0xCF5 JUMPI PUSH1 0x40 MLOAD PUSH32 0x8C379A000000000000000000000000000000000000000000000000000000000 DUP2 MSTORE PUSH1 0x4 ADD PUSH2 0xCEC SWAP1 PUSH2 0x1910 JUMP JUMPDEST PUSH1 0x40 MLOAD DUP1 SWAP2 SUB SWAP1 REVERT JUMPDEST PUSH0 PUSH20 0xFFFFFFFFFFFFFFFFFFFFFFFFFFFFFFFFFFFFFFFF AND DUP3 PUSH20 0xFFFFFFFFFFFFFFFFFFFFFFFFFFFFFFFFFFFFFFFF AND SUB PUSH2 0xD63 JUMPI PUSH1 0x40 MLOAD PUSH32 0x8C379A000000000000000000000000000000000000000000000000000000000 DUP2 MSTORE PUSH1 0x4 ADD PUSH2 0xD5A SWAP1 PUSH2 0x1978 JUMP JUMPDEST PUSH1 0x40 MLOAD DUP1 SWAP2 SUB SWAP1 REVERT JUMPDEST PUSH0 PUSH0 PUSH0 DUP6 PUSH20 0xFFFFFFFFFFFFFFFFFFFFFFFFFFFFFFFFFFFFFFFF AND PUSH20 0xFFFFFFFFFFFFFFFFFFFFFFFFFFFFFFFFFFFFFFFF AND DUP2 MSTORE PUSH1 0x20 ADD SWAP1 DUP2 MSTORE PUSH1 0x20 ADD PUSH0 KECCAK256 SLOAD SWAP1 POP DUP2 DUP2 LT ISZERO PUSH2 0xDE6 JUMPI PUSH1 0x40 MLOAD PUSH32 0x8C379A000000000000000000000000000000000000000000000000000000000 DUP2 MSTORE PUSH1 0x4 ADD PUSH2 0xDDD SWAP1 PUSH2 0x1A06 JUMP JUMPDEST PUSH1 0x40 MLOAD DUP1 SWAP2 SUB SWAP1 REVERT JUMPDEST DUP2 DUP2 SUB PUSH0 PUSH0 DUP7 PUSH20 0xFFFFFFFFFFFFFFFFFFFFFFFFFFFFFFFFFFFFFFFF AND PUSH20 0xFFFFFFFFFFFFFFFFFFFFFFFFFFFFFFFFFFFFFFFF AND DUP2 MSTORE PUSH1 0x20 ADD SWAP1 DUP2 MSTORE PUSH1 0x20 ADD PUSH0 KECCAK256 DUP2 SWAP1 SSTORE POP DUP2 PUSH0 PUSH0 DUP6 PUSH20 0xFFFFFFFFFFFFFFFFFFFFFFFFFFFFFFFFFFFFFFFF AND PUSH20 0xFFFFFFFFFFFFFFFFFFFFFFFFFFFFFFFFFFFFFFFF AND DUP2 MSTORE PUSH1 0x20 ADD SWAP1 DUP2 MSTORE PUSH1 0x20 ADD PUSH0 KECCAK256 PUSH0 DUP3 DUP3 SLOAD PUSH2 0xE74 SWAP2 SWAP1 PUSH2 0x15FD JUMP JUMPDEST SWAP3 POP POP DUP2 SWAP1 SSTORE POP DUP3 PUSH20 0xFFFFFFFFFFFFFFFFFFFFFFFFFFFFFFFFFFFFFFFF AND DUP5 PUSH20 0xFFFFFFFFFFFFFFFFFFFFFFFFFFFFFFFFFFFFFFFF AND PUSH32 0xDDF252AD1BE2C89B69C2B068FC378DAA952BA7F163C4A11628F55A4DF523B3EF DUP5 PUSH1 0x40 MLOAD PUSH2 0xED8 SWAP2 SWAP1 PUSH2 0x1375 JUMP JUMPDEST PUSH1 0x40 MLOAD DUP1 SWAP2 SUB SWAP1 LOG3 POP POP POP POP JUMP JUMPDEST PUSH0 PUSH20 0xFFFFFFFFFFFFFFFFFFFFFFFFFFFFFFFFFFFFFFFF AND DUP3 PUSH20 0xFFFFFFFFFFFFFFFFFFFFFFFFFFFFFFFFFFFFFFFF AND SUB PUSH2 0xF54 JUMPI PUSH1 0x40 MLOAD PUSH32 0x8C379A000000000000000000000000000000000000000000000000000000000 DUP2 MSTORE PUSH1 0x4 ADD PUSH2 0xF4B SWAP1 PUSH2 0x1A6E JUMP JUMPDEST PUSH1 0x40 MLOAD DUP1 SWAP2 SUB SWAP1 REVERT JUMPDEST DUP1 PUSH1 0x2 PUSH0 DUP3 DUP3 SLOAD PUSH2 0xF65 SWAP2 SWAP1 PUSH2 0x15FD JUMP JUMPDEST SWAP3 POP POP DUP2 SWAP1 SSTORE POP DUP1 PUSH0 PUSH0 DUP5 PUSH20 0xFFFFFFFFFFFFFFFFFFFFFFFFFFFFFFFFFFFFFFFF AND PUSH20 0xFFFFFFFFFFFFFFFFFFFFFFFFFFFFFFFFFFFFFFFF AND DUP2 MSTORE PUSH1 0x20 ADD SWAP1 DUP2 MSTORE PUSH1 0x20 ADD PUSH0 KECCAK256 PUSH0 DUP3 DUP3 SLOAD PUSH2 0xFB7 SWAP2 SWAP1 PUSH2 0x15FD JUMP JUMPDEST SWAP3 POP POP DUP2 SWAP1 SSTORE POP DUP2 PUSH20 0xFFFFFFFFFFFFFFFFFFFFFFFFFFFFFFFFFFFFFFFF AND PUSH0 PUSH20 0xFFFFFFFFFFFFFFFFFFFFFFFFFFFFFFFFFFFFFFFF AND PUSH32 0xDDF252AD1BE2C89B69C2B068FC378DAA952BA7F163C4A11628F55A4DF523B3EF DUP4 PUSH1 0x40 MLOAD PUSH2 0x101B SWAP2 SWAP1 PUSH2 0x1375 JUMP JUMPDEST PUSH1 0x40 MLOAD DUP1 SWAP2 SUB SWAP1 LOG3 POP POP JUMP JUMPDEST PUSH0 PUSH20 0xFFFFFFFFFFFFFFFFFFFFFFFFFFFFFFFFFFFFFFFF AND DUP3 PUSH20 0xFFFFFFFFFFFFFFFFFFFFFFFFFFFFFFFFFFFFFFFF AND SUB PUSH2 0x1095 JUMPI PUSH1 0x40 MLOAD PUSH32 0x8C379A000000000000000000000000000000000000000000000000000000000 DUP2 MSTORE PUSH1 0x4 ADD PUSH2 0x108C SWAP1 PUSH2 0x1AD6 JUMP JUMPDEST PUSH1 0x40 MLOAD DUP1 SWAP2 SUB SWAP1 REVERT JUMPDEST PUSH0 PUSH0 PUSH0 DUP5 PUSH20 0xFFFFFFFFFFFFFFFFFFFFFFFFFFFFFFFFFFFFFFFF AND PUSH20 0xFFFFFFFFFFFFFFFFFFFFFFFFFFFFFFFFFFFFFFFF AND DUP2 MSTORE PUSH1 0x20 ADD SWAP1 DUP2 MSTORE PUSH1 0x20 ADD PUSH0 KECCAK256 SLOAD SWAP1 POP DUP2 DUP2 LT ISZERO PUSH2 0x1118 JUMPI PUSH1 0x40 MLOAD PUSH32 0x8C379A000000000000000000000000000000000000000000000000000000000 DUP2 MSTORE PUSH1 0x4 ADD PUSH2 0x110F SWAP1 PUSH2 0x1B64 JUMP JUMPDEST PUSH1 0x40 MLOAD DUP1 SWAP2 SUB SWAP1 REVERT JUMPDEST DUP2 DUP2 SUB PUSH0 PUSH0 DUP6 PUSH20 0xFFFFFFFFFFFFFFFFFFFFFFFFFFFFFFFFFFFFFFFF AND PUSH20 0xFFFFFFFFFFFFFFFFFFFFFFFFFFFFFFFFFFFFFFFF AND DUP2 MSTORE PUSH1 0x20 ADD SWAP1 DUP2 MSTORE PUSH1 0x20 ADD PUSH0 KECCAK256 DUP2 SWAP1 SSTORE POP DUP2 PUSH1 0x2 PUSH0 DUP3 DUP3 SLOAD SUB SWAP3 POP POP DUP2 SWAP1 SSTORE POP PUSH0 PUSH20 0xFFFFFFFFFFFFFFFFFFFFFFFFFFFFFFFFFFFFFFFF AND DUP4 PUSH20 0xFFFFFFFFFFFFFFFFFFFFFFFFFFFFFFFFFFFFFFFF AND PUSH32 0xDDF252AD1BE2C89B69C2B068FC378DAA952BA7F163C4A11628F55A4DF523B3EF DUP5 PUSH1 0x40 MLOAD PUSH2 0x11C7 SWAP2 SWAP1 PUSH2 0x1375 JUMP JUMPDEST PUSH1 0x40 MLOAD DUP1 SWAP2 SUB SWAP1 LOG3 POP POP POP JUMP JUMPDEST PUSH0 DUP2 MLOAD SWAP1 POP SWAP2 SWAP1 POP JUMP JUMPDEST PUSH0 DUP3 DUP3 MSTORE PUSH1 0x20 DUP3 ADD SWAP1 POP SWAP3 SWAP2 POP POP JUMP JUMPDEST DUP3 DUP2 DUP4 MCOPY PUSH0 DUP4 DUP4 ADD MSTORE POP POP POP JUMP JUMPDEST PUSH0 PUSH1 0x1F NOT PUSH1 0x1F DUP4 ADD AND SWAP1 POP SWAP2 SWAP1 POP JUMP JUMPDEST PUSH0 PUSH2 0x1216 DUP3 PUSH2 0x11D4 JUMP JUMPDEST PUSH2 0x1220 DUP2 DUP6 PUSH2 0x11DE JUMP JUMPDEST SWAP4 POP PUSH2 0x1230 DUP2 DUP6 PUSH1 0x20 DUP7 ADD PUSH2 0x11EE JUMP JUMPDEST PUSH2 0x1239 DUP2 PUSH2 0x11FC JUMP JUMPDEST DUP5 ADD SWAP2 POP POP SWAP3 SWAP2 POP POP JUMP JUMPDEST PUSH0 PUSH1 0x20 DUP3 ADD SWAP1 POP DUP2 DUP2 SUB PUSH0 DUP4 ADD MSTORE PUSH2 0x125C DUP2 DUP5 PUSH2 0x120C JUMP JUMPDEST SWAP1 POP SWAP3 SWAP2 POP POP JUMP JUMPDEST PUSH0 PUSH0 REVERT JUMPDEST PUSH0 PUSH20 0xFFFFFFFFFFFFFFFFFFFFFFFFFFFFFFFFFFFFFFFF DUP3 AND SWAP1 POP SWAP2 SWAP1 POP JUMP JUMPDEST PUSH0 PUSH2 0x1291 DUP3 PUSH2 0x1268 JUMP JUMPDEST SWAP1 POP SWAP2 SWAP1 POP JUMP JUMPDEST PUSH2 0x12A1 DUP2 PUSH2 0x1287 JUMP JUMPDEST DUP2 EQ PUSH2 0x12AB JUMPI PUSH0 PUSH0 REVERT JUMPDEST POP JUMP JUMPDEST PUSH0 DUP2 CALLDATALOAD SWAP1 POP PUSH2 0x12BC DUP2 PUSH2 0x1298 JUMP JUMPDEST SWAP3 SWAP2 POP POP JUMP JUMPDEST PUSH0 DUP2 SWAP1 POP SWAP2 SWAP1 POP JUMP JUMPDEST PUSH2 0x12D4 DUP2 PUSH2 0x12C2 JUMP JUMPDEST DUP2 EQ PUSH2 0x12DE JUMPI PUSH0 PUSH0 REVERT JUMPDEST POP JUMP JUMPDEST PUSH0 DUP2 CALLDATALOAD SWAP1 POP PUSH2 0x12EF DUP2 PUSH2 0x12CB JUMP JUMPDEST SWAP3 SWAP2 POP POP JUMP JUMPDEST PUSH0 PUSH0 PUSH1 0x40 DUP4 DUP6 SUB SLT ISZERO PUSH2 0x130B JUMPI PUSH2 0x130A PUSH2 0x1264 JUMP JUMPDEST JUMPDEST PUSH0 PUSH2 0x1318 DUP6 DUP3 DUP7 ADD PUSH2 0x12AE JUMP JUMPDEST SWAP3 POP POP PUSH1 0x20 PUSH2 0x1329 DUP6 DUP3 DUP7 ADD PUSH2 0x12E1 JUMP JUMPDEST SWAP2 POP POP SWAP3 POP SWAP3 SWAP1 POP JUMP JUMPDEST PUSH0 DUP2 ISZERO ISZERO SWAP1 POP SWAP2 SWAP1 POP JUMP JUMPDEST PUSH2 0x1347 DUP2 PUSH2 0x1333 JUMP JUMPDEST DUP3 MSTORE POP POP JUMP JUMPDEST PUSH0 PUSH1 0x20 DUP3 ADD SWAP1 POP PUSH2 0x1360 PUSH0 DUP4 ADD DUP5 PUSH2 0x133E JUMP JUMPDEST SWAP3 SWAP2 POP POP JUMP JUMPDEST PUSH2 0x136F DUP2 PUSH2 0x12C2 JUMP JUMPDEST DUP3 MSTORE POP POP JUMP JUMPDEST PUSH0 PUSH1 0x20 DUP3 ADD SWAP1 POP PUSH2 0x1388 PUSH0 DUP4 ADD DUP5 PUSH2 0x1366 JUMP JUMPDEST SWAP3 SWAP2 POP POP JUMP JUMPDEST PUSH0 PUSH1 0x20 DUP3 DUP5 SUB SLT ISZERO PUSH2 0x13A3 JUMPI PUSH2 0x13A2 PUSH2 0x1264 JUMP JUMPDEST JUMPDEST PUSH0 PUSH2 0x13B0 DUP5 DUP3 DUP6 ADD PUSH2 0x12AE JUMP JUMPDEST SWAP2 POP POP SWAP3 SWAP2 POP POP JUMP JUMPDEST PUSH0 PUSH0 PUSH0 PUSH1 0x60 DUP5 DUP7 SUB SLT ISZERO PUSH2 0x13D0 JUMPI PUSH2 0x13CF PUSH2 0x1264 JUMP JUMPDEST JUMPDEST PUSH0 PUSH2 0x13DD DUP7 DUP3 DUP8 ADD PUSH2 0x12AE JUMP JUMPDEST SWAP4 POP POP PUSH1 0x20 PUSH2 0x13EE DUP7 DUP3 DUP8 ADD PUSH2 0x12AE JUMP JUMPDEST SWAP3 POP POP PUSH1 0x40 PUSH2 0x13FF DUP7 DUP3 DUP8 ADD PUSH2 0x12E1 JUMP JUMPDEST SWAP2 POP POP SWAP3 POP SWAP3 POP SWAP3 JUMP JUMPDEST PUSH0 PUSH1 0xFF DUP3 AND SWAP1 POP SWAP2 SWAP1 POP JUMP JUMPDEST PUSH2 0x141E DUP2 PUSH2 0x1409 JUMP JUMPDEST DUP3 MSTORE POP POP JUMP JUMPDEST PUSH0 PUSH1 0x20 DUP3 ADD SWAP1 POP PUSH2 0x1437 PUSH0 DUP4 ADD DUP5 PUSH2 0x1415 JUMP JUMPDEST SWAP3 SWAP2 POP POP JUMP JUMPDEST PUSH2 0x1446 DUP2 PUSH2 0x1287 JUMP JUMPDEST DUP3 MSTORE POP POP JUMP JUMPDEST PUSH0 PUSH1 0x20 DUP3 ADD SWAP1 POP PUSH2 0x145F PUSH0 DUP4 ADD DUP5 PUSH2 0x143D JUMP JUMPDEST SWAP3 SWAP2 POP POP JUMP JUMPDEST PUSH0 PUSH0 PUSH1 0x40 DUP4 DUP6 SUB SLT ISZERO PUSH2 0x147B JUMPI PUSH2 0x147A PUSH2 0x1264 JUMP JUMPDEST JUMPDEST PUSH0 PUSH2 0x1488 DUP6 DUP3 DUP7 ADD PUSH2 0x12AE JUMP JUMPDEST SWAP3 POP POP PUSH1 0x20 PUSH2 0x1499 DUP6 DUP3 DUP7 ADD PUSH2 0x12AE JUMP JUMPDEST SWAP2 POP POP SWAP3 POP SWAP3 SWAP1 POP JUMP JUMPDEST PUSH32 0x4E487B7100000000000000000000000000000000000000000000000000000000 PUSH0 MSTORE PUSH1 0x22 PUSH1 0x4 MSTORE PUSH1 0x24 PUSH0 REVERT JUMPDEST PUSH0 PUSH1 0x2 DUP3 DIV SWAP1 POP PUSH1 0x1 DUP3 AND DUP1 PUSH2 0x14E7 JUMPI PUSH1 0x7F DUP3 AND SWAP2 POP JUMPDEST PUSH1 0x20 DUP3 LT DUP2 SUB PUSH2 0x14FA JUMPI PUSH2 0x14F9 PUSH2 0x14A3 JUMP JUMPDEST JUMPDEST POP SWAP2 SWAP1 POP JUMP JUMPDEST PUSH32 0x53696D706C655377617020796120667565207365746561646F00000000000000 PUSH0 DUP3 ADD MSTORE POP JUMP JUMPDEST PUSH0 PUSH2 0x1534 PUSH1 0x19 DUP4 PUSH2 0x11DE JUMP JUMPDEST SWAP2 POP PUSH2 0x153F DUP3 PUSH2 0x1500 JUMP JUMPDEST PUSH1 0x20 DUP3 ADD SWAP1 POP SWAP2 SWAP1 POP JUMP JUMPDEST PUSH0 PUSH1 0x20 DUP3 ADD SWAP1 POP DUP2 DUP2 SUB PUSH0 DUP4 ADD MSTORE PUSH2 0x1561 DUP2 PUSH2 0x1528 JUMP JUMPDEST SWAP1 POP SWAP2 SWAP1 POP JUMP JUMPDEST PUSH32 0x446972656363696F6E20696E76616C6964610000000000000000000000000000 PUSH0 DUP3 ADD MSTORE POP JUMP JUMPDEST PUSH0 PUSH2 0x159C PUSH1 0x12 DUP4 PUSH2 0x11DE JUMP JUMPDEST SWAP2 POP PUSH2 0x15A7 DUP3 PUSH2 0x1568 JUMP JUMPDEST PUSH1 0x20 DUP3 ADD SWAP1 POP SWAP2 SWAP1 POP JUMP JUMPDEST PUSH0 PUSH1 0x20 DUP3 ADD SWAP1 POP DUP2 DUP2 SUB PUSH0 DUP4 ADD MSTORE PUSH2 0x15C9 DUP2 PUSH2 0x1590 JUMP JUMPDEST SWAP1 POP SWAP2 SWAP1 POP JUMP JUMPDEST PUSH32 0x4E487B7100000000000000000000000000000000000000000000000000000000 PUSH0 MSTORE PUSH1 0x11 PUSH1 0x4 MSTORE PUSH1 0x24 PUSH0 REVERT JUMPDEST PUSH0 PUSH2 0x1607 DUP3 PUSH2 0x12C2 JUMP JUMPDEST SWAP2 POP PUSH2 0x1612 DUP4 PUSH2 0x12C2 JUMP JUMPDEST SWAP3 POP DUP3 DUP3 ADD SWAP1 POP DUP1 DUP3 GT ISZERO PUSH2 0x162A JUMPI PUSH2 0x1629 PUSH2 0x15D0 JUMP JUMPDEST JUMPDEST SWAP3 SWAP2 POP POP JUMP JUMPDEST PUSH32 0x4F6E6C792053696D706C65537761702063616E206D696E740000000000000000 PUSH0 DUP3 ADD MSTORE POP JUMP JUMPDEST PUSH0 PUSH2 0x1664 PUSH1 0x18 DUP4 PUSH2 0x11DE JUMP JUMPDEST SWAP2 POP PUSH2 0x166F DUP3 PUSH2 0x1630 JUMP JUMPDEST PUSH1 0x20 DUP3 ADD SWAP1 POP SWAP2 SWAP1 POP JUMP JUMPDEST PUSH0 PUSH1 0x20 DUP3 ADD SWAP1 POP DUP2 DUP2 SUB PUSH0 DUP4 ADD MSTORE PUSH2 0x1691 DUP2 PUSH2 0x1658 JUMP JUMPDEST SWAP1 POP SWAP2 SWAP1 POP JUMP JUMPDEST PUSH32 0x4F6E6C792053696D706C65537761702063616E206275726E0000000000000000 PUSH0 DUP3 ADD MSTORE POP JUMP JUMPDEST PUSH0 PUSH2 0x16CC PUSH1 0x18 DUP4 PUSH2 0x11DE JUMP JUMPDEST SWAP2 POP PUSH2 0x16D7 DUP3 PUSH2 0x1698 JUMP JUMPDEST PUSH1 0x20 DUP3 ADD SWAP1 POP SWAP2 SWAP1 POP JUMP JUMPDEST PUSH0 PUSH1 0x20 DUP3 ADD SWAP1 POP DUP2 DUP2 SUB PUSH0 DUP4 ADD MSTORE PUSH2 0x16F9 DUP2 PUSH2 0x16C0 JUMP JUMPDEST SWAP1 POP SWAP2 SWAP1 POP JUMP JUMPDEST PUSH32 0x45524332303A2064656372656173656420616C6C6F77616E63652062656C6F77 PUSH0 DUP3 ADD MSTORE PUSH32 0x207A65726F000000000000000000000000000000000000000000000000000000 PUSH1 0x20 DUP3 ADD MSTORE POP JUMP JUMPDEST PUSH0 PUSH2 0x175A PUSH1 0x25 DUP4 PUSH2 0x11DE JUMP JUMPDEST SWAP2 POP PUSH2 0x1765 DUP3 PUSH2 0x1700 JUMP JUMPDEST PUSH1 0x40 DUP3 ADD SWAP1 POP SWAP2 SWAP1 POP JUMP JUMPDEST PUSH0 PUSH1 0x20 DUP3 ADD SWAP1 POP DUP2 DUP2 SUB PUSH0 DUP4 ADD MSTORE PUSH2 0x1787 DUP2 PUSH2 0x174E JUMP JUMPDEST SWAP1 POP SWAP2 SWAP1 POP JUMP JUMPDEST PUSH32 0x45524332303A20617070726F76652066726F6D207A65726F0000000000000000 PUSH0 DUP3 ADD MSTORE POP JUMP JUMPDEST PUSH0 PUSH2 0x17C2 PUSH1 0x18 DUP4 PUSH2 0x11DE JUMP JUMPDEST SWAP2 POP PUSH2 0x17CD DUP3 PUSH2 0x178E JUMP JUMPDEST PUSH1 0x20 DUP3 ADD SWAP1 POP SWAP2 SWAP1 POP JUMP JUMPDEST PUSH0 PUSH1 0x20 DUP3 ADD SWAP1 POP DUP2 DUP2 SUB PUSH0 DUP4 ADD MSTORE PUSH2 0x17EF DUP2 PUSH2 0x17B6 JUMP JUMPDEST SWAP1 POP SWAP2 SWAP1 POP JUMP JUMPDEST PUSH32 0x45524332303A20617070726F766520746F207A65726F00000000000000000000 PUSH0 DUP3 ADD MSTORE POP JUMP JUMPDEST PUSH0 PUSH2 0x182A PUSH1 0x16 DUP4 PUSH2 0x11DE JUMP JUMPDEST SWAP2 POP PUSH2 0x1835 DUP3 PUSH2 0x17F6 JUMP JUMPDEST PUSH1 0x20 DUP3 ADD SWAP1 POP SWAP2 SWAP1 POP JUMP JUMPDEST PUSH0 PUSH1 0x20 DUP3 ADD SWAP1 POP DUP2 DUP2 SUB PUSH0 DUP4 ADD MSTORE PUSH2 0x1857 DUP2 PUSH2 0x181E JUMP JUMPDEST SWAP1 POP SWAP2 SWAP1 POP JUMP JUMPDEST PUSH32 0x45524332303A20696E73756666696369656E7420616C6C6F77616E6365000000 PUSH0 DUP3 ADD MSTORE POP JUMP JUMPDEST PUSH0 PUSH2 0x1892 PUSH1 0x1D DUP4 PUSH2 0x11DE JUMP JUMPDEST SWAP2 POP PUSH2 0x189D DUP3 PUSH2 0x185E JUMP JUMPDEST PUSH1 0x20 DUP3 ADD SWAP1 POP SWAP2 SWAP1 POP JUMP JUMPDEST PUSH0 PUSH1 0x20 DUP3 ADD SWAP1 POP DUP2 DUP2 SUB PUSH0 DUP4 ADD MSTORE PUSH2 0x18BF DUP2 PUSH2 0x1886 JUMP JUMPDEST SWAP1 POP SWAP2 SWAP1 POP JUMP JUMPDEST PUSH32 0x45524332303A207472616E736665722066726F6D207A65726F00000000000000 PUSH0 DUP3 ADD MSTORE POP JUMP JUMPDEST PUSH0 PUSH2 0x18FA PUSH1 0x19 DUP4 PUSH2 0x11DE JUMP JUMPDEST SWAP2 POP PUSH2 0x1905 DUP3 PUSH2 0x18C6 JUMP JUMPDEST PUSH1 0x20 DUP3 ADD SWAP1 POP SWAP2 SWAP1 POP JUMP JUMPDEST PUSH0 PUSH1 0x20 DUP3 ADD SWAP1 POP DUP2 DUP2 SUB PUSH0 DUP4 ADD MSTORE PUSH2 0x1927 DUP2 PUSH2 0x18EE JUMP JUMPDEST SWAP1 POP SWAP2 SWAP1 POP JUMP JUMPDEST PUSH32 0x45524332303A207472616E7366657220746F207A65726F000000000000000000 PUSH0 DUP3 ADD MSTORE POP JUMP JUMPDEST PUSH0 PUSH2 0x1962 PUSH1 0x17 DUP4 PUSH2 0x11DE JUMP JUMPDEST SWAP2 POP PUSH2 0x196D DUP3 PUSH2 0x192E JUMP JUMPDEST PUSH1 0x20 DUP3 ADD SWAP1 POP SWAP2 SWAP1 POP JUMP JUMPDEST PUSH0 PUSH1 0x20 DUP3 ADD SWAP1 POP DUP2 DUP2 SUB PUSH0 DUP4 ADD MSTORE PUSH2 0x198F DUP2 PUSH2 0x1956 JUMP JUMPDEST SWAP1 POP SWAP2 SWAP1 POP JUMP JUMPDEST PUSH32 0x45524332303A207472616E7366657220616D6F756E7420657863656564732062 PUSH0 DUP3 ADD MSTORE PUSH32 0x616C616E63650000000000000000000000000000000000000000000000000000 PUSH1 0x20 DUP3 ADD MSTORE POP JUMP JUMPDEST PUSH0 PUSH2 0x19F0 PUSH1 0x26 DUP4 PUSH2 0x11DE JUMP JUMPDEST SWAP2 POP PUSH2 0x19FB DUP3 PUSH2 0x1996 JUMP JUMPDEST PUSH1 0x40 DUP3 ADD SWAP1 POP SWAP2 SWAP1 POP JUMP JUMPDEST PUSH0 PUSH1 0x20 DUP3 ADD SWAP1 POP DUP2 DUP2 SUB PUSH0 DUP4 ADD MSTORE PUSH2 0x1A1D DUP2 PUSH2 0x19E4 JUMP JUMPDEST SWAP1 POP SWAP2 SWAP1 POP JUMP JUMPDEST PUSH32 0x45524332303A206D696E7420746F207A65726F00000000000000000000000000 PUSH0 DUP3 ADD MSTORE POP JUMP JUMPDEST PUSH0 PUSH2 0x1A58 PUSH1 0x13 DUP4 PUSH2 0x11DE JUMP JUMPDEST SWAP2 POP PUSH2 0x1A63 DUP3 PUSH2 0x1A24 JUMP JUMPDEST PUSH1 0x20 DUP3 ADD SWAP1 POP SWAP2 SWAP1 POP JUMP JUMPDEST PUSH0 PUSH1 0x20 DUP3 ADD SWAP1 POP DUP2 DUP2 SUB PUSH0 DUP4 ADD MSTORE PUSH2 0x1A85 DUP2 PUSH2 0x1A4C JUMP JUMPDEST SWAP1 POP SWAP2 SWAP1 POP JUMP JUMPDEST PUSH32 0x45524332303A206275726E2066726F6D207A65726F0000000000000000000000 PUSH0 DUP3 ADD MSTORE POP JUMP JUMPDEST PUSH0 PUSH2 0x1AC0 PUSH1 0x15 DUP4 PUSH2 0x11DE JUMP JUMPDEST SWAP2 POP PUSH2 0x1ACB DUP3 PUSH2 0x1A8C JUMP JUMPDEST PUSH1 0x20 DUP3 ADD SWAP1 POP SWAP2 SWAP1 POP JUMP JUMPDEST PUSH0 PUSH1 0x20 DUP3 ADD SWAP1 POP DUP2 DUP2 SUB PUSH0 DUP4 ADD MSTORE PUSH2 0x1AED DUP2 PUSH2 0x1AB4 JUMP JUMPDEST SWAP1 POP SWAP2 SWAP1 POP JUMP JUMPDEST PUSH32 0x45524332303A206275726E20616D6F756E7420657863656564732062616C616E PUSH0 DUP3 ADD MSTORE PUSH32 0x6365000000000000000000000000000000000000000000000000000000000000 PUSH1 0x20 DUP3 ADD MSTORE POP JUMP JUMPDEST PUSH0 PUSH2 0x1B4E PUSH1 0x22 DUP4 PUSH2 0x11DE JUMP JUMPDEST SWAP2 POP PUSH2 0x1B59 DUP3 PUSH2 0x1AF4 JUMP JUMPDEST PUSH1 0x40 DUP3 ADD SWAP1 POP SWAP2 SWAP1 POP JUMP JUMPDEST PUSH0 PUSH1 0x20 DUP3 ADD SWAP1 POP DUP2 DUP2 SUB PUSH0 DUP4 ADD MSTORE PUSH2 0x1B7B DUP2 PUSH2 0x1B42 JUMP JUMPDEST SWAP1 POP SWAP2 SWAP1 POP JUMP INVALID LOG2 PUSH5 0x6970667358 0x22 SLT KECCAK256 0xB7 0xC9 0x2C CREATE 0xB3 TIMESTAMP BYTE SWAP7 LOG0 DUP6 DUPN 0xAC DUP5 MCOPY DUP1 0xAB DUP4 0xBA SWAP14 SWAP7 PUSH16 0x66C1164DB4D4671CCAB94E64736F6C63 NUMBER STOP ADDMOD 0x1E STOP CALLER "
				},
				"gasEstimates": {
					"creation": {
						"codeDepositCost": "1419200",
						"executionCost": "infinite",
						"totalCost": "infinite"
					},
					"external": {
						"allowance(address,address)": "infinite",
						"approve(address,uint256)": "infinite",
						"balanceOf(address)": "2873",
						"burn(address,uint256)": "infinite",
						"decimals()": "405",
						"decreaseAllowance(address,uint256)": "infinite",
						"increaseAllowance(address,uint256)": "infinite",
						"mint(address,uint256)": "infinite",
						"name()": "infinite",
						"setSimpleSwap(address)": "26941",
						"simpleSwap()": "2575",
						"symbol()": "infinite",
						"totalSupply()": "2500",
						"transfer(address,uint256)": "infinite",
						"transferFrom(address,address,uint256)": "infinite"
					}
				},
				"methodIdentifiers": {
					"allowance(address,address)": "dd62ed3e",
					"approve(address,uint256)": "095ea7b3",
					"balanceOf(address)": "70a08231",
					"burn(address,uint256)": "9dc29fac",
					"decimals()": "313ce567",
					"decreaseAllowance(address,uint256)": "a457c2d7",
					"increaseAllowance(address,uint256)": "39509351",
					"mint(address,uint256)": "40c10f19",
					"name()": "06fdde03",
					"setSimpleSwap(address)": "1f5870ef",
					"simpleSwap()": "8927e052",
					"symbol()": "95d89b41",
					"totalSupply()": "18160ddd",
					"transfer(address,uint256)": "a9059cbb",
					"transferFrom(address,address,uint256)": "23b872dd"
				}
			},
			"storageLayout": {
				"storage": [
					{
						"astId": 89,
						"contract": "LPToken.sol:LPToken",
						"label": "_balances",
						"offset": 0,
						"slot": "0",
						"type": "t_mapping(t_address,t_uint256)"
					},
					{
						"astId": 95,
						"contract": "LPToken.sol:LPToken",
						"label": "_allowances",
						"offset": 0,
						"slot": "1",
						"type": "t_mapping(t_address,t_mapping(t_address,t_uint256))"
					},
					{
						"astId": 97,
						"contract": "LPToken.sol:LPToken",
						"label": "_totalSupply",
						"offset": 0,
						"slot": "2",
						"type": "t_uint256"
					},
					{
						"astId": 99,
						"contract": "LPToken.sol:LPToken",
						"label": "_name",
						"offset": 0,
						"slot": "3",
						"type": "t_string_storage"
					},
					{
						"astId": 101,
						"contract": "LPToken.sol:LPToken",
						"label": "_symbol",
						"offset": 0,
						"slot": "4",
						"type": "t_string_storage"
					},
					{
						"astId": 577,
						"contract": "LPToken.sol:LPToken",
						"label": "simpleSwap",
						"offset": 0,
						"slot": "5",
						"type": "t_address"
					}
				],
				"types": {
					"t_address": {
						"encoding": "inplace",
						"label": "address",
						"numberOfBytes": "20"
					},
					"t_mapping(t_address,t_mapping(t_address,t_uint256))": {
						"encoding": "mapping",
						"key": "t_address",
						"label": "mapping(address => mapping(address => uint256))",
						"numberOfBytes": "32",
						"value": "t_mapping(t_address,t_uint256)"
					},
					"t_mapping(t_address,t_uint256)": {
						"encoding": "mapping",
						"key": "t_address",
						"label": "mapping(address => uint256)",
						"numberOfBytes": "32",
						"value": "t_uint256"
					},
					"t_string_storage": {
						"encoding": "bytes",
						"label": "string",
						"numberOfBytes": "32"
					},
					"t_uint256": {
						"encoding": "inplace",
						"label": "uint256",
						"numberOfBytes": "32"
					}
				}
			},
			"userdoc": {
				"kind": "user",
				"methods": {
					"burn(address,uint256)": {
						"notice": "Solo SimpleSwap puede quemar LP tokens"
					},
					"mint(address,uint256)": {
						"notice": "Solo SimpleSwap puede emitir LP tokens"
					},
					"setSimpleSwap(address)": {
						"notice": "Setea la dirección del contrato SimpleSwap (una sola vez)"
					}
				},
				"version": 1
			}
		}
	}
}