{
	"prueba.sol": {
		"SimpleSwap": {
			"abi": [
				{
					"inputs": [
						{
							"internalType": "address",
							"name": "_tokenA",
							"type": "address"
						},
						{
							"internalType": "address",
							"name": "_tokenB",
							"type": "address"
						},
						{
							"internalType": "address",
							"name": "_lpToken",
							"type": "address"
						}
					],
					"stateMutability": "nonpayable",
					"type": "constructor"
				},
				{
					"anonymous": false,
					"inputs": [
						{
							"indexed": true,
							"internalType": "address",
							"name": "provider",
							"type": "address"
						},
						{
							"indexed": false,
							"internalType": "uint256",
							"name": "amountA",
							"type": "uint256"
						},
						{
							"indexed": false,
							"internalType": "uint256",
							"name": "amountB",
							"type": "uint256"
						},
						{
							"indexed": false,
							"internalType": "uint256",
							"name": "liquidity",
							"type": "uint256"
						}
					],
					"name": "LiquidityAdded",
					"type": "event"
				},
				{
					"anonymous": false,
					"inputs": [
						{
							"indexed": true,
							"internalType": "address",
							"name": "provider",
							"type": "address"
						},
						{
							"indexed": false,
							"internalType": "uint256",
							"name": "amountA",
							"type": "uint256"
						},
						{
							"indexed": false,
							"internalType": "uint256",
							"name": "amountB",
							"type": "uint256"
						},
						{
							"indexed": false,
							"internalType": "uint256",
							"name": "liquidity",
							"type": "uint256"
						}
					],
					"name": "LiquidityRemoved",
					"type": "event"
				},
				{
					"inputs": [
						{
							"internalType": "uint256",
							"name": "amountADesired",
							"type": "uint256"
						},
						{
							"internalType": "uint256",
							"name": "amountBDesired",
							"type": "uint256"
						},
						{
							"internalType": "uint256",
							"name": "amountAMin",
							"type": "uint256"
						},
						{
							"internalType": "uint256",
							"name": "amountBMin",
							"type": "uint256"
						},
						{
							"internalType": "address",
							"name": "to",
							"type": "address"
						},
						{
							"internalType": "uint256",
							"name": "deadline",
							"type": "uint256"
						}
					],
					"name": "addLiquidity",
					"outputs": [
						{
							"internalType": "uint256",
							"name": "amountA",
							"type": "uint256"
						},
						{
							"internalType": "uint256",
							"name": "amountB",
							"type": "uint256"
						},
						{
							"internalType": "uint256",
							"name": "liquidityMinted",
							"type": "uint256"
						}
					],
					"stateMutability": "nonpayable",
					"type": "function"
				},
				{
					"inputs": [
						{
							"internalType": "address",
							"name": "tokenIn",
							"type": "address"
						},
						{
							"internalType": "address",
							"name": "tokenOut",
							"type": "address"
						},
						{
							"internalType": "uint256",
							"name": "amountIn",
							"type": "uint256"
						}
					],
					"name": "getAmountOut",
					"outputs": [
						{
							"internalType": "uint256",
							"name": "amountOut",
							"type": "uint256"
						}
					],
					"stateMutability": "view",
					"type": "function"
				},
				{
					"inputs": [
						{
							"internalType": "address",
							"name": "base",
							"type": "address"
						},
						{
							"internalType": "address",
							"name": "quote",
							"type": "address"
						}
					],
					"name": "getPrice",
					"outputs": [
						{
							"internalType": "uint256",
							"name": "price",
							"type": "uint256"
						}
					],
					"stateMutability": "view",
					"type": "function"
				},
				{
					"inputs": [],
					"name": "lpToken",
					"outputs": [
						{
							"internalType": "contract ILPToken",
							"name": "",
							"type": "address"
						}
					],
					"stateMutability": "view",
					"type": "function"
				},
				{
					"inputs": [],
					"name": "owner",
					"outputs": [
						{
							"internalType": "address",
							"name": "",
							"type": "address"
						}
					],
					"stateMutability": "view",
					"type": "function"
				},
				{
					"inputs": [
						{
							"internalType": "uint256",
							"name": "liquidityAmount",
							"type": "uint256"
						},
						{
							"internalType": "uint256",
							"name": "amountAMin",
							"type": "uint256"
						},
						{
							"internalType": "uint256",
							"name": "amountBMin",
							"type": "uint256"
						},
						{
							"internalType": "address",
							"name": "to",
							"type": "address"
						},
						{
							"internalType": "uint256",
							"name": "deadline",
							"type": "uint256"
						}
					],
					"name": "removeLiquidity",
					"outputs": [
						{
							"internalType": "uint256",
							"name": "amountA",
							"type": "uint256"
						},
						{
							"internalType": "uint256",
							"name": "amountB",
							"type": "uint256"
						}
					],
					"stateMutability": "nonpayable",
					"type": "function"
				},
				{
					"inputs": [],
					"name": "reserveA",
					"outputs": [
						{
							"internalType": "uint256",
							"name": "",
							"type": "uint256"
						}
					],
					"stateMutability": "view",
					"type": "function"
				},
				{
					"inputs": [],
					"name": "reserveB",
					"outputs": [
						{
							"internalType": "uint256",
							"name": "",
							"type": "uint256"
						}
					],
					"stateMutability": "view",
					"type": "function"
				},
				{
					"inputs": [
						{
							"internalType": "uint256",
							"name": "amountIn",
							"type": "uint256"
						},
						{
							"internalType": "uint256",
							"name": "amountOutMin",
							"type": "uint256"
						},
						{
							"internalType": "address[]",
							"name": "path",
							"type": "address[]"
						},
						{
							"internalType": "address",
							"name": "to",
							"type": "address"
						},
						{
							"internalType": "uint256",
							"name": "deadline",
							"type": "uint256"
						}
					],
					"name": "swapExactTokensForTokens",
					"outputs": [
						{
							"internalType": "uint256[]",
							"name": "amounts",
							"type": "uint256[]"
						}
					],
					"stateMutability": "nonpayable",
					"type": "function"
				},
				{
					"inputs": [],
					"name": "tokenA",
					"outputs": [
						{
							"internalType": "address",
							"name": "",
							"type": "address"
						}
					],
					"stateMutability": "view",
					"type": "function"
				},
				{
					"inputs": [],
					"name": "tokenB",
					"outputs": [
						{
							"internalType": "address",
							"name": "",
							"type": "address"
						}
					],
					"stateMutability": "view",
					"type": "function"
				},
				{
					"inputs": [],
					"name": "totalLiquidity",
					"outputs": [
						{
							"internalType": "uint256",
							"name": "total",
							"type": "uint256"
						}
					],
					"stateMutability": "view",
					"type": "function"
				}
			],
			"devdoc": {
				"kind": "dev",
				"methods": {
					"addLiquidity(uint256,uint256,uint256,uint256,address,uint256)": {
						"params": {
							"amountADesired": "Cantidad deseada de token A para depositar",
							"amountAMin": "Cantidad mínima de token A que el proveedor está dispuesto a depositar (slippage control)",
							"amountBDesired": "Cantidad deseada de token B para depositar",
							"amountBMin": "Cantidad mínima de token B que el proveedor está dispuesto a depositar",
							"deadline": "Fecha límite para que la transacción se ejecute (protección contra demoras)",
							"to": "Dirección que recibirá los tokens LP"
						},
						"returns": {
							"amountA": "Cantidad final de token A depositada",
							"amountB": "Cantidad final de token B depositada",
							"liquidityMinted": "Cantidad de tokens LP emitidos al proveedor"
						}
					},
					"constructor": {
						"params": {
							"_lpToken": "Dirección del contrato del token LP ya desplegado",
							"_tokenA": "Dirección del token A",
							"_tokenB": "Dirección del token B"
						}
					},
					"getAmountOut(address,address,uint256)": {
						"params": {
							"amountIn": "Cantidad de tokenIn que se provee",
							"tokenIn": "Token que entra en el swap",
							"tokenOut": "Token que se desea obtener"
						},
						"returns": {
							"amountOut": "Cantidad estimada de tokenOut que se recibirá"
						}
					},
					"getPrice(address,address)": {
						"params": {
							"base": "Token base",
							"quote": "Token cotizado"
						},
						"returns": {
							"price": "Precio calculado"
						}
					},
					"removeLiquidity(uint256,uint256,uint256,address,uint256)": {
						"params": {
							"amountAMin": "Cantidad mínima de token A que se quiere recibir",
							"amountBMin": "Cantidad mínima de token B que se quiere recibir",
							"deadline": "Fecha límite para la operación",
							"liquidityAmount": "Cantidad de tokens LP a quemar",
							"to": "Dirección que recibirá los tokens"
						},
						"returns": {
							"amountA": "Cantidad de token A devuelta",
							"amountB": "Cantidad de token B devuelta"
						}
					},
					"swapExactTokensForTokens(uint256,uint256,address[],address,uint256)": {
						"params": {
							"amountIn": "Cantidad de tokens de entrada a intercambiar",
							"amountOutMin": "Cantidad mínima de tokens de salida esperada",
							"deadline": "Fecha límite para la operación",
							"path": "Array con dos direcciones: token de entrada y token de salida",
							"to": "Dirección que recibirá los tokens de salida"
						},
						"returns": {
							"amounts": "Array con cantidad de tokens de entrada y salida efectivamente usados"
						}
					},
					"totalLiquidity()": {
						"returns": {
							"total": "Liquidez total calculada"
						}
					}
				},
				"title": "SimpleSwap - Protocolo básico para intercambio y provisión de liquidez entre dos tokens ERC-20",
				"version": 1
			},
			"evm": {
				"assembly": "    /* \"prueba.sol\":2230:13968  contract SimpleSwap {... */\n  mstore(0x40, 0xc0)\n    /* \"prueba.sol\":3438:3763  constructor(address _tokenA, address _tokenB, address _lpToken) {... */\n  callvalue\n  dup1\n  iszero\n  tag_1\n  jumpi\n  revert(0x00, 0x00)\ntag_1:\n  pop\n  mload(0x40)\n  sub(codesize, bytecodeSize)\n  dup1\n  bytecodeSize\n  dup4\n  codecopy\n  dup2\n  dup2\n  add\n  0x40\n  mstore\n  dup2\n  add\n  swap1\n  tag_2\n  swap2\n  swap1\n  tag_3\n  jump\t// in\ntag_2:\n    /* \"prueba.sol\":3532:3539  _tokenB */\n  dup2\n    /* \"prueba.sol\":3521:3539  _tokenA != _tokenB */\n  0xffffffffffffffffffffffffffffffffffffffff\n  and\n    /* \"prueba.sol\":3521:3528  _tokenA */\n  dup4\n    /* \"prueba.sol\":3521:3539  _tokenA != _tokenB */\n  0xffffffffffffffffffffffffffffffffffffffff\n  and\n  sub\n    /* \"prueba.sol\":3513:3568  require(_tokenA != _tokenB, \"Tokens must be different\") */\n  tag_6\n  jumpi\n  mload(0x40)\n  0x08c379a000000000000000000000000000000000000000000000000000000000\n  dup2\n  mstore\n  0x04\n  add\n  tag_7\n  swap1\n  tag_8\n  jump\t// in\ntag_7:\n  mload(0x40)\n  dup1\n  swap2\n  sub\n  swap1\n  revert\ntag_6:\n    /* \"prueba.sol\":3653:3660  _tokenA */\n  dup3\n    /* \"prueba.sol\":3644:3660  tokenA = _tokenA */\n  0xffffffffffffffffffffffffffffffffffffffff\n  and\n  0x80\n  dup2\n  0xffffffffffffffffffffffffffffffffffffffff\n  and\n  dup2\n  mstore\n  pop\n  pop\n    /* \"prueba.sol\":3680:3687  _tokenB */\n  dup2\n    /* \"prueba.sol\":3671:3687  tokenB = _tokenB */\n  0xffffffffffffffffffffffffffffffffffffffff\n  and\n  0xa0\n  dup2\n  0xffffffffffffffffffffffffffffffffffffffff\n  and\n  dup2\n  mstore\n  pop\n  pop\n    /* \"prueba.sol\":3706:3716  msg.sender */\n  caller\n    /* \"prueba.sol\":3698:3703  owner */\n  0x00\n  0x00\n    /* \"prueba.sol\":3698:3716  owner = msg.sender */\n  0x0100\n  exp\n  dup2\n  sload\n  dup2\n  0xffffffffffffffffffffffffffffffffffffffff\n  mul\n  not\n  and\n  swap1\n  dup4\n  0xffffffffffffffffffffffffffffffffffffffff\n  and\n  mul\n  or\n  swap1\n  sstore\n  pop\n    /* \"prueba.sol\":3746:3754  _lpToken */\n  dup1\n    /* \"prueba.sol\":3727:3734  lpToken */\n  0x01\n  0x00\n    /* \"prueba.sol\":3727:3755  lpToken = ILPToken(_lpToken) */\n  0x0100\n  exp\n  dup2\n  sload\n  dup2\n  0xffffffffffffffffffffffffffffffffffffffff\n  mul\n  not\n  and\n  swap1\n  dup4\n  0xffffffffffffffffffffffffffffffffffffffff\n  and\n  mul\n  or\n  swap1\n  sstore\n  pop\n    /* \"prueba.sol\":3438:3763  constructor(address _tokenA, address _tokenB, address _lpToken) {... */\n  pop\n  pop\n  pop\n    /* \"prueba.sol\":2230:13968  contract SimpleSwap {... */\n  jump(tag_9)\n    /* \"#utility.yul\":88:205   */\ntag_11:\n    /* \"#utility.yul\":197:198   */\n  0x00\n    /* \"#utility.yul\":194:195   */\n  0x00\n    /* \"#utility.yul\":187:199   */\n  revert\n    /* \"#utility.yul\":334:460   */\ntag_13:\n    /* \"#utility.yul\":371:378   */\n  0x00\n    /* \"#utility.yul\":411:453   */\n  0xffffffffffffffffffffffffffffffffffffffff\n    /* \"#utility.yul\":404:409   */\n  dup3\n    /* \"#utility.yul\":400:454   */\n  and\n    /* \"#utility.yul\":389:454   */\n  swap1\n  pop\n    /* \"#utility.yul\":334:460   */\n  swap2\n  swap1\n  pop\n  jump\t// out\n    /* \"#utility.yul\":466:562   */\ntag_14:\n    /* \"#utility.yul\":503:510   */\n  0x00\n    /* \"#utility.yul\":532:556   */\n  tag_26\n    /* \"#utility.yul\":550:555   */\n  dup3\n    /* \"#utility.yul\":532:556   */\n  tag_13\n  jump\t// in\ntag_26:\n    /* \"#utility.yul\":521:556   */\n  swap1\n  pop\n    /* \"#utility.yul\":466:562   */\n  swap2\n  swap1\n  pop\n  jump\t// out\n    /* \"#utility.yul\":568:690   */\ntag_15:\n    /* \"#utility.yul\":641:665   */\n  tag_28\n    /* \"#utility.yul\":659:664   */\n  dup2\n    /* \"#utility.yul\":641:665   */\n  tag_14\n  jump\t// in\ntag_28:\n    /* \"#utility.yul\":634:639   */\n  dup2\n    /* \"#utility.yul\":631:666   */\n  eq\n    /* \"#utility.yul\":621:684   */\n  tag_29\n  jumpi\n    /* \"#utility.yul\":680:681   */\n  0x00\n    /* \"#utility.yul\":677:678   */\n  0x00\n    /* \"#utility.yul\":670:682   */\n  revert\n    /* \"#utility.yul\":621:684   */\ntag_29:\n    /* \"#utility.yul\":568:690   */\n  pop\n  jump\t// out\n    /* \"#utility.yul\":696:839   */\ntag_16:\n    /* \"#utility.yul\":753:758   */\n  0x00\n    /* \"#utility.yul\":784:790   */\n  dup2\n    /* \"#utility.yul\":778:791   */\n  mload\n    /* \"#utility.yul\":769:791   */\n  swap1\n  pop\n    /* \"#utility.yul\":800:833   */\n  tag_31\n    /* \"#utility.yul\":827:832   */\n  dup2\n    /* \"#utility.yul\":800:833   */\n  tag_15\n  jump\t// in\ntag_31:\n    /* \"#utility.yul\":696:839   */\n  swap3\n  swap2\n  pop\n  pop\n  jump\t// out\n    /* \"#utility.yul\":845:1508   */\ntag_3:\n    /* \"#utility.yul\":933:939   */\n  0x00\n    /* \"#utility.yul\":941:947   */\n  0x00\n    /* \"#utility.yul\":949:955   */\n  0x00\n    /* \"#utility.yul\":998:1000   */\n  0x60\n    /* \"#utility.yul\":986:995   */\n  dup5\n    /* \"#utility.yul\":977:984   */\n  dup7\n    /* \"#utility.yul\":973:996   */\n  sub\n    /* \"#utility.yul\":969:1001   */\n  slt\n    /* \"#utility.yul\":966:1085   */\n  iszero\n  tag_33\n  jumpi\n    /* \"#utility.yul\":1004:1083   */\n  tag_34\n  tag_11\n  jump\t// in\ntag_34:\n    /* \"#utility.yul\":966:1085   */\ntag_33:\n    /* \"#utility.yul\":1124:1125   */\n  0x00\n    /* \"#utility.yul\":1149:1213   */\n  tag_35\n    /* \"#utility.yul\":1205:1212   */\n  dup7\n    /* \"#utility.yul\":1196:1202   */\n  dup3\n    /* \"#utility.yul\":1185:1194   */\n  dup8\n    /* \"#utility.yul\":1181:1203   */\n  add\n    /* \"#utility.yul\":1149:1213   */\n  tag_16\n  jump\t// in\ntag_35:\n    /* \"#utility.yul\":1139:1213   */\n  swap4\n  pop\n    /* \"#utility.yul\":1095:1223   */\n  pop\n    /* \"#utility.yul\":1262:1264   */\n  0x20\n    /* \"#utility.yul\":1288:1352   */\n  tag_36\n    /* \"#utility.yul\":1344:1351   */\n  dup7\n    /* \"#utility.yul\":1335:1341   */\n  dup3\n    /* \"#utility.yul\":1324:1333   */\n  dup8\n    /* \"#utility.yul\":1320:1342   */\n  add\n    /* \"#utility.yul\":1288:1352   */\n  tag_16\n  jump\t// in\ntag_36:\n    /* \"#utility.yul\":1278:1352   */\n  swap3\n  pop\n    /* \"#utility.yul\":1233:1362   */\n  pop\n    /* \"#utility.yul\":1401:1403   */\n  0x40\n    /* \"#utility.yul\":1427:1491   */\n  tag_37\n    /* \"#utility.yul\":1483:1490   */\n  dup7\n    /* \"#utility.yul\":1474:1480   */\n  dup3\n    /* \"#utility.yul\":1463:1472   */\n  dup8\n    /* \"#utility.yul\":1459:1481   */\n  add\n    /* \"#utility.yul\":1427:1491   */\n  tag_16\n  jump\t// in\ntag_37:\n    /* \"#utility.yul\":1417:1491   */\n  swap2\n  pop\n    /* \"#utility.yul\":1372:1501   */\n  pop\n    /* \"#utility.yul\":845:1508   */\n  swap3\n  pop\n  swap3\n  pop\n  swap3\n  jump\t// out\n    /* \"#utility.yul\":1514:1683   */\ntag_17:\n    /* \"#utility.yul\":1598:1609   */\n  0x00\n    /* \"#utility.yul\":1632:1638   */\n  dup3\n    /* \"#utility.yul\":1627:1630   */\n  dup3\n    /* \"#utility.yul\":1620:1639   */\n  mstore\n    /* \"#utility.yul\":1672:1676   */\n  0x20\n    /* \"#utility.yul\":1667:1670   */\n  dup3\n    /* \"#utility.yul\":1663:1677   */\n  add\n    /* \"#utility.yul\":1648:1677   */\n  swap1\n  pop\n    /* \"#utility.yul\":1514:1683   */\n  swap3\n  swap2\n  pop\n  pop\n  jump\t// out\n    /* \"#utility.yul\":1689:1863   */\ntag_18:\n    /* \"#utility.yul\":1829:1855   */\n  0x546f6b656e73206d75737420626520646966666572656e740000000000000000\n    /* \"#utility.yul\":1825:1826   */\n  0x00\n    /* \"#utility.yul\":1817:1823   */\n  dup3\n    /* \"#utility.yul\":1813:1827   */\n  add\n    /* \"#utility.yul\":1806:1856   */\n  mstore\n    /* \"#utility.yul\":1689:1863   */\n  pop\n  jump\t// out\n    /* \"#utility.yul\":1869:2235   */\ntag_19:\n    /* \"#utility.yul\":2011:2014   */\n  0x00\n    /* \"#utility.yul\":2032:2099   */\n  tag_41\n    /* \"#utility.yul\":2096:2098   */\n  0x18\n    /* \"#utility.yul\":2091:2094   */\n  dup4\n    /* \"#utility.yul\":2032:2099   */\n  tag_17\n  jump\t// in\ntag_41:\n    /* \"#utility.yul\":2025:2099   */\n  swap2\n  pop\n    /* \"#utility.yul\":2108:2201   */\n  tag_42\n    /* \"#utility.yul\":2197:2200   */\n  dup3\n    /* \"#utility.yul\":2108:2201   */\n  tag_18\n  jump\t// in\ntag_42:\n    /* \"#utility.yul\":2226:2228   */\n  0x20\n    /* \"#utility.yul\":2221:2224   */\n  dup3\n    /* \"#utility.yul\":2217:2229   */\n  add\n    /* \"#utility.yul\":2210:2229   */\n  swap1\n  pop\n    /* \"#utility.yul\":1869:2235   */\n  swap2\n  swap1\n  pop\n  jump\t// out\n    /* \"#utility.yul\":2241:2660   */\ntag_8:\n    /* \"#utility.yul\":2407:2411   */\n  0x00\n    /* \"#utility.yul\":2445:2447   */\n  0x20\n    /* \"#utility.yul\":2434:2443   */\n  dup3\n    /* \"#utility.yul\":2430:2448   */\n  add\n    /* \"#utility.yul\":2422:2448   */\n  swap1\n  pop\n    /* \"#utility.yul\":2494:2503   */\n  dup2\n    /* \"#utility.yul\":2488:2492   */\n  dup2\n    /* \"#utility.yul\":2484:2504   */\n  sub\n    /* \"#utility.yul\":2480:2481   */\n  0x00\n    /* \"#utility.yul\":2469:2478   */\n  dup4\n    /* \"#utility.yul\":2465:2482   */\n  add\n    /* \"#utility.yul\":2458:2505   */\n  mstore\n    /* \"#utility.yul\":2522:2653   */\n  tag_44\n    /* \"#utility.yul\":2648:2652   */\n  dup2\n    /* \"#utility.yul\":2522:2653   */\n  tag_19\n  jump\t// in\ntag_44:\n    /* \"#utility.yul\":2514:2653   */\n  swap1\n  pop\n    /* \"#utility.yul\":2241:2660   */\n  swap2\n  swap1\n  pop\n  jump\t// out\n    /* \"prueba.sol\":2230:13968  contract SimpleSwap {... */\ntag_9:\n  mload(0x80)\n  mload(0xa0)\n  codecopy(0x00, dataOffset(sub_0), dataSize(sub_0))\n  0x00\n  assignImmutable(\"0x5a10742dc65b7a28255fe7b4d2b9f290786892e1e437654e2ccb53bed1bfe01a\")\n  0x00\n  assignImmutable(\"0x890f693d9ea1b595bb4a33efee4a21d60a63ffd2ec40c37883b92f82fc5da52b\")\n  return(0x00, dataSize(sub_0))\nstop\n\nsub_0: assembly {\n        /* \"prueba.sol\":2230:13968  contract SimpleSwap {... */\n      mstore(0x40, 0x80)\n      callvalue\n      dup1\n      iszero\n      tag_1\n      jumpi\n      revert(0x00, 0x00)\n    tag_1:\n      pop\n      jumpi(tag_2, lt(calldatasize, 0x04))\n      shr(0xe0, calldataload(0x00))\n      dup1\n      0x5fcbd285\n      gt\n      tag_15\n      jumpi\n      dup1\n      0x5fcbd285\n      eq\n      tag_9\n      jumpi\n      dup1\n      0x8da5cb5b\n      eq\n      tag_10\n      jumpi\n      dup1\n      0xac41865a\n      eq\n      tag_11\n      jumpi\n      dup1\n      0xdc5fa6c5\n      eq\n      tag_12\n      jumpi\n      dup1\n      0xded998b9\n      eq\n      tag_13\n      jumpi\n      dup1\n      0xed856cdc\n      eq\n      tag_14\n      jumpi\n      jump(tag_2)\n    tag_15:\n      dup1\n      0x0fc63d10\n      eq\n      tag_3\n      jumpi\n      dup1\n      0x15770f92\n      eq\n      tag_4\n      jumpi\n      dup1\n      0x19e36f3b\n      eq\n      tag_5\n      jumpi\n      dup1\n      0x38ed1739\n      eq\n      tag_6\n      jumpi\n      dup1\n      0x4aa06652\n      eq\n      tag_7\n      jumpi\n      dup1\n      0x5f64b55b\n      eq\n      tag_8\n      jumpi\n    tag_2:\n      revert(0x00, 0x00)\n        /* \"prueba.sol\":2356:2387  address public immutable tokenA */\n    tag_3:\n      tag_16\n      tag_17\n      jump\t// in\n    tag_16:\n      mload(0x40)\n      tag_18\n      swap2\n      swap1\n      tag_19\n      jump\t// in\n    tag_18:\n      mload(0x40)\n      dup1\n      swap2\n      sub\n      swap1\n      return\n        /* \"prueba.sol\":13849:13965  function totalLiquidity() public view returns (uint total) {... */\n    tag_4:\n      tag_20\n      tag_21\n      jump\t// in\n    tag_20:\n      mload(0x40)\n      tag_22\n      swap2\n      swap1\n      tag_23\n      jump\t// in\n    tag_22:\n      mload(0x40)\n      dup1\n      swap2\n      sub\n      swap1\n      return\n        /* \"prueba.sol\":2789:2809  uint public reserveB */\n    tag_5:\n      tag_24\n      tag_25\n      jump\t// in\n    tag_24:\n      mload(0x40)\n      tag_26\n      swap2\n      swap1\n      tag_23\n      jump\t// in\n    tag_26:\n      mload(0x40)\n      dup1\n      swap2\n      sub\n      swap1\n      return\n        /* \"prueba.sol\":9590:11637  function swapExactTokensForTokens(... */\n    tag_6:\n      tag_27\n      0x04\n      dup1\n      calldatasize\n      sub\n      dup2\n      add\n      swap1\n      tag_28\n      swap2\n      swap1\n      tag_29\n      jump\t// in\n    tag_28:\n      tag_30\n      jump\t// in\n    tag_27:\n      mload(0x40)\n      tag_31\n      swap2\n      swap1\n      tag_32\n      jump\t// in\n    tag_31:\n      mload(0x40)\n      dup1\n      swap2\n      sub\n      swap1\n      return\n        /* \"prueba.sol\":12829:13691  function getAmountOut(address tokenIn, address tokenOut, uint amountIn) external view returns (uint amountOut) {... */\n    tag_7:\n      tag_33\n      0x04\n      dup1\n      calldatasize\n      sub\n      dup2\n      add\n      swap1\n      tag_34\n      swap2\n      swap1\n      tag_35\n      jump\t// in\n    tag_34:\n      tag_36\n      jump\t// in\n    tag_33:\n      mload(0x40)\n      tag_37\n      swap2\n      swap1\n      tag_23\n      jump\t// in\n    tag_37:\n      mload(0x40)\n      dup1\n      swap2\n      sub\n      swap1\n      return\n        /* \"prueba.sol\":2429:2460  address public immutable tokenB */\n    tag_8:\n      tag_38\n      tag_39\n      jump\t// in\n    tag_38:\n      mload(0x40)\n      tag_40\n      swap2\n      swap1\n      tag_19\n      jump\t// in\n    tag_40:\n      mload(0x40)\n      dup1\n      swap2\n      sub\n      swap1\n      return\n        /* \"prueba.sol\":2611:2634  ILPToken public lpToken */\n    tag_9:\n      tag_41\n      tag_42\n      jump\t// in\n    tag_41:\n      mload(0x40)\n      tag_43\n      swap2\n      swap1\n      tag_44\n      jump\t// in\n    tag_43:\n      mload(0x40)\n      dup1\n      swap2\n      sub\n      swap1\n      return\n        /* \"prueba.sol\":2502:2522  address public owner */\n    tag_10:\n      tag_45\n      tag_46\n      jump\t// in\n    tag_45:\n      mload(0x40)\n      tag_47\n      swap2\n      swap1\n      tag_19\n      jump\t// in\n    tag_47:\n      mload(0x40)\n      dup1\n      swap2\n      sub\n      swap1\n      return\n        /* \"prueba.sol\":11869:12458  function getPrice(address base, address quote) external view returns (uint price) {... */\n    tag_11:\n      tag_48\n      0x04\n      dup1\n      calldatasize\n      sub\n      dup2\n      add\n      swap1\n      tag_49\n      swap2\n      swap1\n      tag_50\n      jump\t// in\n    tag_49:\n      tag_51\n      jump\t// in\n    tag_48:\n      mload(0x40)\n      tag_52\n      swap2\n      swap1\n      tag_23\n      jump\t// in\n    tag_52:\n      mload(0x40)\n      dup1\n      swap2\n      sub\n      swap1\n      return\n        /* \"prueba.sol\":2709:2729  uint public reserveA */\n    tag_12:\n      tag_53\n      tag_54\n      jump\t// in\n    tag_53:\n      mload(0x40)\n      tag_55\n      swap2\n      swap1\n      tag_23\n      jump\t// in\n    tag_55:\n      mload(0x40)\n      dup1\n      swap2\n      sub\n      swap1\n      return\n        /* \"prueba.sol\":4595:6920  function addLiquidity(... */\n    tag_13:\n      tag_56\n      0x04\n      dup1\n      calldatasize\n      sub\n      dup2\n      add\n      swap1\n      tag_57\n      swap2\n      swap1\n      tag_58\n      jump\t// in\n    tag_57:\n      tag_59\n      jump\t// in\n    tag_56:\n      mload(0x40)\n      tag_60\n      swap4\n      swap3\n      swap2\n      swap1\n      tag_61\n      jump\t// in\n    tag_60:\n      mload(0x40)\n      dup1\n      swap2\n      sub\n      swap1\n      return\n        /* \"prueba.sol\":7457:9051  function removeLiquidity(... */\n    tag_14:\n      tag_62\n      0x04\n      dup1\n      calldatasize\n      sub\n      dup2\n      add\n      swap1\n      tag_63\n      swap2\n      swap1\n      tag_64\n      jump\t// in\n    tag_63:\n      tag_65\n      jump\t// in\n    tag_62:\n      mload(0x40)\n      tag_66\n      swap3\n      swap2\n      swap1\n      tag_67\n      jump\t// in\n    tag_66:\n      mload(0x40)\n      dup1\n      swap2\n      sub\n      swap1\n      return\n        /* \"prueba.sol\":2356:2387  address public immutable tokenA */\n    tag_17:\n      immutable(\"0x890f693d9ea1b595bb4a33efee4a21d60a63ffd2ec40c37883b92f82fc5da52b\")\n      dup2\n      jump\t// out\n        /* \"prueba.sol\":13849:13965  function totalLiquidity() public view returns (uint total) {... */\n    tag_21:\n        /* \"prueba.sol\":13896:13906  uint total */\n      0x00\n        /* \"prueba.sol\":13927:13957  Math.sqrt(reserveA * reserveB) */\n      tag_69\n        /* \"prueba.sol\":13948:13956  reserveB */\n      sload(0x03)\n        /* \"prueba.sol\":13937:13945  reserveA */\n      sload(0x02)\n        /* \"prueba.sol\":13937:13956  reserveA * reserveB */\n      tag_70\n      swap2\n      swap1\n      tag_71\n      jump\t// in\n    tag_70:\n        /* \"prueba.sol\":13927:13936  Math.sqrt */\n      tag_72\n        /* \"prueba.sol\":13927:13957  Math.sqrt(reserveA * reserveB) */\n      jump\t// in\n    tag_69:\n        /* \"prueba.sol\":13919:13957  total = Math.sqrt(reserveA * reserveB) */\n      swap1\n      pop\n        /* \"prueba.sol\":13849:13965  function totalLiquidity() public view returns (uint total) {... */\n      swap1\n      jump\t// out\n        /* \"prueba.sol\":2789:2809  uint public reserveB */\n    tag_25:\n      sload(0x03)\n      dup2\n      jump\t// out\n        /* \"prueba.sol\":9590:11637  function swapExactTokensForTokens(... */\n    tag_30:\n        /* \"prueba.sol\":9780:9801  uint[] memory amounts */\n      0x60\n        /* \"prueba.sol\":9841:9849  deadline */\n      dup2\n        /* \"prueba.sol\":9822:9837  block.timestamp */\n      timestamp\n        /* \"prueba.sol\":9822:9849  block.timestamp <= deadline */\n      gt\n      iszero\n        /* \"prueba.sol\":9814:9873  require(block.timestamp <= deadline, \"Transaction expired\") */\n      tag_74\n      jumpi\n      mload(0x40)\n      0x08c379a000000000000000000000000000000000000000000000000000000000\n      dup2\n      mstore\n      0x04\n      add\n      tag_75\n      swap1\n      tag_76\n      jump\t// in\n    tag_75:\n      mload(0x40)\n      dup1\n      swap2\n      sub\n      swap1\n      revert\n    tag_74:\n        /* \"prueba.sol\":9907:9908  2 */\n      0x02\n        /* \"prueba.sol\":9892:9896  path */\n      dup6\n      dup6\n        /* \"prueba.sol\":9892:9903  path.length */\n      swap1\n      pop\n        /* \"prueba.sol\":9892:9908  path.length == 2 */\n      eq\n        /* \"prueba.sol\":9884:9946  require(path.length == 2, \"Only direct token swaps supported\") */\n      tag_77\n      jumpi\n      mload(0x40)\n      0x08c379a000000000000000000000000000000000000000000000000000000000\n      dup2\n      mstore\n      0x04\n      add\n      tag_78\n      swap1\n      tag_79\n      jump\t// in\n    tag_78:\n      mload(0x40)\n      dup1\n      swap2\n      sub\n      swap1\n      revert\n    tag_77:\n        /* \"prueba.sol\":9959:9972  address input */\n      0x00\n        /* \"prueba.sol\":9975:9979  path */\n      dup6\n      dup6\n        /* \"prueba.sol\":9980:9981  0 */\n      0x00\n        /* \"prueba.sol\":9975:9982  path[0] */\n      dup2\n      dup2\n      lt\n      tag_80\n      jumpi\n      tag_81\n      tag_82\n      jump\t// in\n    tag_81:\n    tag_80:\n      swap1\n      pop\n      0x20\n      mul\n      add\n      0x20\n      dup2\n      add\n      swap1\n      tag_83\n      swap2\n      swap1\n      tag_84\n      jump\t// in\n    tag_83:\n        /* \"prueba.sol\":9959:9982  address input = path[0] */\n      swap1\n      pop\n        /* \"prueba.sol\":9993:10007  address output */\n      0x00\n        /* \"prueba.sol\":10010:10014  path */\n      dup7\n      dup7\n        /* \"prueba.sol\":10015:10016  1 */\n      0x01\n        /* \"prueba.sol\":10010:10017  path[1] */\n      dup2\n      dup2\n      lt\n      tag_85\n      jumpi\n      tag_86\n      tag_82\n      jump\t// in\n    tag_86:\n    tag_85:\n      swap1\n      pop\n      0x20\n      mul\n      add\n      0x20\n      dup2\n      add\n      swap1\n      tag_87\n      swap2\n      swap1\n      tag_84\n      jump\t// in\n    tag_87:\n        /* \"prueba.sol\":9993:10017  address output = path[1] */\n      swap1\n      pop\n        /* \"prueba.sol\":10046:10052  tokenA */\n      immutable(\"0x890f693d9ea1b595bb4a33efee4a21d60a63ffd2ec40c37883b92f82fc5da52b\")\n        /* \"prueba.sol\":10037:10052  input == tokenA */\n      0xffffffffffffffffffffffffffffffffffffffff\n      and\n        /* \"prueba.sol\":10037:10042  input */\n      dup3\n        /* \"prueba.sol\":10037:10052  input == tokenA */\n      0xffffffffffffffffffffffffffffffffffffffff\n      and\n      eq\n        /* \"prueba.sol\":10037:10072  input == tokenA && output == tokenB */\n      dup1\n      iszero\n      tag_88\n      jumpi\n      pop\n        /* \"prueba.sol\":10066:10072  tokenB */\n      immutable(\"0x5a10742dc65b7a28255fe7b4d2b9f290786892e1e437654e2ccb53bed1bfe01a\")\n        /* \"prueba.sol\":10056:10072  output == tokenB */\n      0xffffffffffffffffffffffffffffffffffffffff\n      and\n        /* \"prueba.sol\":10056:10062  output */\n      dup2\n        /* \"prueba.sol\":10056:10072  output == tokenB */\n      0xffffffffffffffffffffffffffffffffffffffff\n      and\n      eq\n        /* \"prueba.sol\":10037:10072  input == tokenA && output == tokenB */\n    tag_88:\n        /* \"prueba.sol\":10036:10114  (input == tokenA && output == tokenB) || (input == tokenB && output == tokenA) */\n      dup1\n      tag_89\n      jumpi\n      pop\n        /* \"prueba.sol\":10087:10093  tokenB */\n      immutable(\"0x5a10742dc65b7a28255fe7b4d2b9f290786892e1e437654e2ccb53bed1bfe01a\")\n        /* \"prueba.sol\":10078:10093  input == tokenB */\n      0xffffffffffffffffffffffffffffffffffffffff\n      and\n        /* \"prueba.sol\":10078:10083  input */\n      dup3\n        /* \"prueba.sol\":10078:10093  input == tokenB */\n      0xffffffffffffffffffffffffffffffffffffffff\n      and\n      eq\n        /* \"prueba.sol\":10078:10113  input == tokenB && output == tokenA */\n      dup1\n      iszero\n      tag_90\n      jumpi\n      pop\n        /* \"prueba.sol\":10107:10113  tokenA */\n      immutable(\"0x890f693d9ea1b595bb4a33efee4a21d60a63ffd2ec40c37883b92f82fc5da52b\")\n        /* \"prueba.sol\":10097:10113  output == tokenA */\n      0xffffffffffffffffffffffffffffffffffffffff\n      and\n        /* \"prueba.sol\":10097:10103  output */\n      dup2\n        /* \"prueba.sol\":10097:10113  output == tokenA */\n      0xffffffffffffffffffffffffffffffffffffffff\n      and\n      eq\n        /* \"prueba.sol\":10078:10113  input == tokenB && output == tokenA */\n    tag_90:\n        /* \"prueba.sol\":10036:10114  (input == tokenA && output == tokenB) || (input == tokenB && output == tokenA) */\n    tag_89:\n        /* \"prueba.sol\":10028:10137  require((input == tokenA && output == tokenB) || (input == tokenB && output == tokenA), \"Invalid token path\") */\n      tag_91\n      jumpi\n      mload(0x40)\n      0x08c379a000000000000000000000000000000000000000000000000000000000\n      dup2\n      mstore\n      0x04\n      add\n      tag_92\n      swap1\n      tag_93\n      jump\t// in\n    tag_92:\n      mload(0x40)\n      dup1\n      swap2\n      sub\n      swap1\n      revert\n    tag_91:\n        /* \"prueba.sol\":10235:10240  input */\n      dup2\n        /* \"prueba.sol\":10228:10254  IERC20(input).transferFrom */\n      0xffffffffffffffffffffffffffffffffffffffff\n      and\n      0x23b872dd\n        /* \"prueba.sol\":10255:10265  msg.sender */\n      caller\n        /* \"prueba.sol\":10275:10279  this */\n      address\n        /* \"prueba.sol\":10282:10290  amountIn */\n      dup13\n        /* \"prueba.sol\":10228:10291  IERC20(input).transferFrom(msg.sender, address(this), amountIn) */\n      mload(0x40)\n      dup5\n      0xffffffff\n      and\n      0xe0\n      shl\n      dup2\n      mstore\n      0x04\n      add\n      tag_94\n      swap4\n      swap3\n      swap2\n      swap1\n      tag_95\n      jump\t// in\n    tag_94:\n      0x20\n      mload(0x40)\n      dup1\n      dup4\n      sub\n      dup2\n      0x00\n      dup8\n      gas\n      call\n      iszero\n      dup1\n      iszero\n      tag_97\n      jumpi\n      returndatacopy(0x00, 0x00, returndatasize)\n      revert(0x00, returndatasize)\n    tag_97:\n      pop\n      pop\n      pop\n      pop\n      mload(0x40)\n      returndatasize\n      not(0x1f)\n      0x1f\n      dup3\n      add\n      and\n      dup3\n      add\n      dup1\n      0x40\n      mstore\n      pop\n      dup2\n      add\n      swap1\n      tag_98\n      swap2\n      swap1\n      tag_99\n      jump\t// in\n    tag_98:\n        /* \"prueba.sol\":10220:10315  require(IERC20(input).transferFrom(msg.sender, address(this), amountIn), \"TransferFrom failed\") */\n      tag_100\n      jumpi\n      mload(0x40)\n      0x08c379a000000000000000000000000000000000000000000000000000000000\n      dup2\n      mstore\n      0x04\n      add\n      tag_101\n      swap1\n      tag_102\n      jump\t// in\n    tag_101:\n      mload(0x40)\n      dup1\n      swap2\n      sub\n      swap1\n      revert\n    tag_100:\n        /* \"prueba.sol\":10378:10398  uint amountInWithFee */\n      0x00\n        /* \"prueba.sol\":10412:10415  997 */\n      0x03e5\n        /* \"prueba.sol\":10401:10409  amountIn */\n      dup11\n        /* \"prueba.sol\":10401:10415  amountIn * 997 */\n      tag_103\n      swap2\n      swap1\n      tag_71\n      jump\t// in\n    tag_103:\n        /* \"prueba.sol\":10378:10415  uint amountInWithFee = amountIn * 997 */\n      swap1\n      pop\n        /* \"prueba.sol\":10426:10440  uint numerator */\n      0x00\n        /* \"prueba.sol\":10451:10467  uint denominator */\n      0x00\n        /* \"prueba.sol\":10478:10492  uint amountOut */\n      0x00\n        /* \"prueba.sol\":10518:10524  tokenA */\n      immutable(\"0x890f693d9ea1b595bb4a33efee4a21d60a63ffd2ec40c37883b92f82fc5da52b\")\n        /* \"prueba.sol\":10509:10524  input == tokenA */\n      0xffffffffffffffffffffffffffffffffffffffff\n      and\n        /* \"prueba.sol\":10509:10514  input */\n      dup7\n        /* \"prueba.sol\":10509:10524  input == tokenA */\n      0xffffffffffffffffffffffffffffffffffffffff\n      and\n      sub\n        /* \"prueba.sol\":10505:11328  if (input == tokenA) {... */\n      tag_104\n      jumpi\n        /* \"prueba.sol\":10571:10579  reserveB */\n      sload(0x03)\n        /* \"prueba.sol\":10553:10568  amountInWithFee */\n      dup5\n        /* \"prueba.sol\":10553:10579  amountInWithFee * reserveB */\n      tag_105\n      swap2\n      swap1\n      tag_71\n      jump\t// in\n    tag_105:\n        /* \"prueba.sol\":10541:10579  numerator = amountInWithFee * reserveB */\n      swap3\n      pop\n        /* \"prueba.sol\":10626:10641  amountInWithFee */\n      dup4\n        /* \"prueba.sol\":10619:10623  1000 */\n      0x03e8\n        /* \"prueba.sol\":10608:10616  reserveA */\n      sload(0x02)\n        /* \"prueba.sol\":10608:10623  reserveA * 1000 */\n      tag_106\n      swap2\n      swap1\n      tag_71\n      jump\t// in\n    tag_106:\n        /* \"prueba.sol\":10608:10641  reserveA * 1000 + amountInWithFee */\n      tag_107\n      swap2\n      swap1\n      tag_108\n      jump\t// in\n    tag_107:\n        /* \"prueba.sol\":10594:10641  denominator = reserveA * 1000 + amountInWithFee */\n      swap2\n      pop\n        /* \"prueba.sol\":10680:10691  denominator */\n      dup2\n        /* \"prueba.sol\":10668:10677  numerator */\n      dup4\n        /* \"prueba.sol\":10668:10691  numerator / denominator */\n      tag_109\n      swap2\n      swap1\n      tag_110\n      jump\t// in\n    tag_109:\n        /* \"prueba.sol\":10656:10691  amountOut = numerator / denominator */\n      swap1\n      pop\n        /* \"prueba.sol\":10727:10739  amountOutMin */\n      dup12\n        /* \"prueba.sol\":10714:10723  amountOut */\n      dup2\n        /* \"prueba.sol\":10714:10739  amountOut >= amountOutMin */\n      lt\n      iszero\n        /* \"prueba.sol\":10706:10763  require(amountOut >= amountOutMin, \"Insufficient output\") */\n      tag_111\n      jumpi\n      mload(0x40)\n      0x08c379a000000000000000000000000000000000000000000000000000000000\n      dup2\n      mstore\n      0x04\n      add\n      tag_112\n      swap1\n      tag_113\n      jump\t// in\n    tag_112:\n      mload(0x40)\n      dup1\n      swap2\n      sub\n      swap1\n      revert\n    tag_111:\n        /* \"prueba.sol\":10790:10798  amountIn */\n      dup13\n        /* \"prueba.sol\":10778:10786  reserveA */\n      0x02\n      0x00\n        /* \"prueba.sol\":10778:10798  reserveA += amountIn */\n      dup3\n      dup3\n      sload\n      tag_114\n      swap2\n      swap1\n      tag_108\n      jump\t// in\n    tag_114:\n      swap3\n      pop\n      pop\n      dup2\n      swap1\n      sstore\n      pop\n        /* \"prueba.sol\":10864:10873  amountOut */\n      dup1\n        /* \"prueba.sol\":10852:10860  reserveB */\n      0x03\n      0x00\n        /* \"prueba.sol\":10852:10873  reserveB -= amountOut */\n      dup3\n      dup3\n      sload\n      tag_115\n      swap2\n      swap1\n      tag_116\n      jump\t// in\n    tag_115:\n      swap3\n      pop\n      pop\n      dup2\n      swap1\n      sstore\n      pop\n        /* \"prueba.sol\":10505:11328  if (input == tokenA) {... */\n      jump(tag_117)\n    tag_104:\n        /* \"prueba.sol\":10975:10983  reserveA */\n      sload(0x02)\n        /* \"prueba.sol\":10957:10972  amountInWithFee */\n      dup5\n        /* \"prueba.sol\":10957:10983  amountInWithFee * reserveA */\n      tag_118\n      swap2\n      swap1\n      tag_71\n      jump\t// in\n    tag_118:\n        /* \"prueba.sol\":10945:10983  numerator = amountInWithFee * reserveA */\n      swap3\n      pop\n        /* \"prueba.sol\":11030:11045  amountInWithFee */\n      dup4\n        /* \"prueba.sol\":11023:11027  1000 */\n      0x03e8\n        /* \"prueba.sol\":11012:11020  reserveB */\n      sload(0x03)\n        /* \"prueba.sol\":11012:11027  reserveB * 1000 */\n      tag_119\n      swap2\n      swap1\n      tag_71\n      jump\t// in\n    tag_119:\n        /* \"prueba.sol\":11012:11045  reserveB * 1000 + amountInWithFee */\n      tag_120\n      swap2\n      swap1\n      tag_108\n      jump\t// in\n    tag_120:\n        /* \"prueba.sol\":10998:11045  denominator = reserveB * 1000 + amountInWithFee */\n      swap2\n      pop\n        /* \"prueba.sol\":11084:11095  denominator */\n      dup2\n        /* \"prueba.sol\":11072:11081  numerator */\n      dup4\n        /* \"prueba.sol\":11072:11095  numerator / denominator */\n      tag_121\n      swap2\n      swap1\n      tag_110\n      jump\t// in\n    tag_121:\n        /* \"prueba.sol\":11060:11095  amountOut = numerator / denominator */\n      swap1\n      pop\n        /* \"prueba.sol\":11131:11143  amountOutMin */\n      dup12\n        /* \"prueba.sol\":11118:11127  amountOut */\n      dup2\n        /* \"prueba.sol\":11118:11143  amountOut >= amountOutMin */\n      lt\n      iszero\n        /* \"prueba.sol\":11110:11167  require(amountOut >= amountOutMin, \"Insufficient output\") */\n      tag_122\n      jumpi\n      mload(0x40)\n      0x08c379a000000000000000000000000000000000000000000000000000000000\n      dup2\n      mstore\n      0x04\n      add\n      tag_123\n      swap1\n      tag_113\n      jump\t// in\n    tag_123:\n      mload(0x40)\n      dup1\n      swap2\n      sub\n      swap1\n      revert\n    tag_122:\n        /* \"prueba.sol\":11194:11202  amountIn */\n      dup13\n        /* \"prueba.sol\":11182:11190  reserveB */\n      0x03\n      0x00\n        /* \"prueba.sol\":11182:11202  reserveB += amountIn */\n      dup3\n      dup3\n      sload\n      tag_124\n      swap2\n      swap1\n      tag_108\n      jump\t// in\n    tag_124:\n      swap3\n      pop\n      pop\n      dup2\n      swap1\n      sstore\n      pop\n        /* \"prueba.sol\":11268:11277  amountOut */\n      dup1\n        /* \"prueba.sol\":11256:11264  reserveA */\n      0x02\n      0x00\n        /* \"prueba.sol\":11256:11277  reserveA -= amountOut */\n      dup3\n      dup3\n      sload\n      tag_125\n      swap2\n      swap1\n      tag_116\n      jump\t// in\n    tag_125:\n      swap3\n      pop\n      pop\n      dup2\n      swap1\n      sstore\n      pop\n        /* \"prueba.sol\":10505:11328  if (input == tokenA) {... */\n    tag_117:\n        /* \"prueba.sol\":11407:11413  output */\n      dup5\n        /* \"prueba.sol\":11400:11423  IERC20(output).transfer */\n      0xffffffffffffffffffffffffffffffffffffffff\n      and\n      0xa9059cbb\n        /* \"prueba.sol\":11424:11426  to */\n      dup11\n        /* \"prueba.sol\":11428:11437  amountOut */\n      dup4\n        /* \"prueba.sol\":11400:11438  IERC20(output).transfer(to, amountOut) */\n      mload(0x40)\n      dup4\n      0xffffffff\n      and\n      0xe0\n      shl\n      dup2\n      mstore\n      0x04\n      add\n      tag_126\n      swap3\n      swap2\n      swap1\n      tag_127\n      jump\t// in\n    tag_126:\n      0x20\n      mload(0x40)\n      dup1\n      dup4\n      sub\n      dup2\n      0x00\n      dup8\n      gas\n      call\n      iszero\n      dup1\n      iszero\n      tag_129\n      jumpi\n      returndatacopy(0x00, 0x00, returndatasize)\n      revert(0x00, returndatasize)\n    tag_129:\n      pop\n      pop\n      pop\n      pop\n      mload(0x40)\n      returndatasize\n      not(0x1f)\n      0x1f\n      dup3\n      add\n      and\n      dup3\n      add\n      dup1\n      0x40\n      mstore\n      pop\n      dup2\n      add\n      swap1\n      tag_130\n      swap2\n      swap1\n      tag_99\n      jump\t// in\n    tag_130:\n        /* \"prueba.sol\":11392:11465  require(IERC20(output).transfer(to, amountOut), \"Transfer output failed\") */\n      tag_131\n      jumpi\n      mload(0x40)\n      0x08c379a000000000000000000000000000000000000000000000000000000000\n      dup2\n      mstore\n      0x04\n      add\n      tag_132\n      swap1\n      tag_133\n      jump\t// in\n    tag_132:\n      mload(0x40)\n      dup1\n      swap2\n      sub\n      swap1\n      revert\n    tag_131:\n        /* \"prueba.sol\":11561:11562  2 */\n      0x02\n        /* \"prueba.sol\":11549:11563  new uint [](2) */\n      0xffffffffffffffff\n      dup2\n      gt\n      iszero\n      tag_134\n      jumpi\n      tag_135\n      tag_136\n      jump\t// in\n    tag_135:\n    tag_134:\n      mload(0x40)\n      swap1\n      dup1\n      dup3\n      mstore\n      dup1\n      0x20\n      mul\n      0x20\n      add\n      dup3\n      add\n      0x40\n      mstore\n      dup1\n      iszero\n      tag_137\n      jumpi\n      dup2\n      0x20\n      add\n      0x20\n      dup3\n      mul\n      dup1\n      calldatasize\n      dup4\n      calldatacopy\n      dup1\n      dup3\n      add\n      swap2\n      pop\n      pop\n      swap1\n      pop\n    tag_137:\n      pop\n        /* \"prueba.sol\":11539:11563  amounts = new uint [](2) */\n      swap7\n      pop\n        /* \"prueba.sol\":11588:11596  amountIn */\n      dup13\n        /* \"prueba.sol\":11575:11582  amounts */\n      dup8\n        /* \"prueba.sol\":11583:11584  0 */\n      0x00\n        /* \"prueba.sol\":11575:11585  amounts[0] */\n      dup2\n      mload\n      dup2\n      lt\n      tag_138\n      jumpi\n      tag_139\n      tag_82\n      jump\t// in\n    tag_139:\n    tag_138:\n      0x20\n      mul\n      0x20\n      add\n      add\n        /* \"prueba.sol\":11575:11596  amounts[0] = amountIn */\n      dup2\n      dup2\n      mstore\n      pop\n      pop\n        /* \"prueba.sol\":11620:11629  amountOut */\n      dup1\n        /* \"prueba.sol\":11607:11614  amounts */\n      dup8\n        /* \"prueba.sol\":11615:11616  1 */\n      0x01\n        /* \"prueba.sol\":11607:11617  amounts[1] */\n      dup2\n      mload\n      dup2\n      lt\n      tag_140\n      jumpi\n      tag_141\n      tag_82\n      jump\t// in\n    tag_141:\n    tag_140:\n      0x20\n      mul\n      0x20\n      add\n      add\n        /* \"prueba.sol\":11607:11629  amounts[1] = amountOut */\n      dup2\n      dup2\n      mstore\n      pop\n      pop\n        /* \"prueba.sol\":9803:11637  {... */\n      pop\n      pop\n      pop\n      pop\n      pop\n      pop\n        /* \"prueba.sol\":9590:11637  function swapExactTokensForTokens(... */\n      swap7\n      swap6\n      pop\n      pop\n      pop\n      pop\n      pop\n      pop\n      jump\t// out\n        /* \"prueba.sol\":12829:13691  function getAmountOut(address tokenIn, address tokenOut, uint amountIn) external view returns (uint amountOut) {... */\n    tag_36:\n        /* \"prueba.sol\":12924:12938  uint amountOut */\n      0x00\n        /* \"prueba.sol\":12970:12971  0 */\n      0x00\n        /* \"prueba.sol\":12959:12967  amountIn */\n      dup3\n        /* \"prueba.sol\":12959:12971  amountIn > 0 */\n      gt\n        /* \"prueba.sol\":12951:12989  require(amountIn > 0, \"Invalid input\") */\n      tag_143\n      jumpi\n      mload(0x40)\n      0x08c379a000000000000000000000000000000000000000000000000000000000\n      dup2\n      mstore\n      0x04\n      add\n      tag_144\n      swap1\n      tag_145\n      jump\t// in\n    tag_144:\n      mload(0x40)\n      dup1\n      swap2\n      sub\n      swap1\n      revert\n    tag_143:\n        /* \"prueba.sol\":13034:13040  tokenA */\n      immutable(\"0x890f693d9ea1b595bb4a33efee4a21d60a63ffd2ec40c37883b92f82fc5da52b\")\n        /* \"prueba.sol\":13023:13040  tokenIn == tokenA */\n      0xffffffffffffffffffffffffffffffffffffffff\n      and\n        /* \"prueba.sol\":13023:13030  tokenIn */\n      dup5\n        /* \"prueba.sol\":13023:13040  tokenIn == tokenA */\n      0xffffffffffffffffffffffffffffffffffffffff\n      and\n      eq\n        /* \"prueba.sol\":13023:13062  tokenIn == tokenA && tokenOut == tokenB */\n      dup1\n      iszero\n      tag_146\n      jumpi\n      pop\n        /* \"prueba.sol\":13056:13062  tokenB */\n      immutable(\"0x5a10742dc65b7a28255fe7b4d2b9f290786892e1e437654e2ccb53bed1bfe01a\")\n        /* \"prueba.sol\":13044:13062  tokenOut == tokenB */\n      0xffffffffffffffffffffffffffffffffffffffff\n      and\n        /* \"prueba.sol\":13044:13052  tokenOut */\n      dup4\n        /* \"prueba.sol\":13044:13062  tokenOut == tokenB */\n      0xffffffffffffffffffffffffffffffffffffffff\n      and\n      eq\n        /* \"prueba.sol\":13023:13062  tokenIn == tokenA && tokenOut == tokenB */\n    tag_146:\n        /* \"prueba.sol\":13022:13108  (tokenIn == tokenA && tokenOut == tokenB) || (tokenIn == tokenB && tokenOut == tokenA) */\n      dup1\n      tag_147\n      jumpi\n      pop\n        /* \"prueba.sol\":13079:13085  tokenB */\n      immutable(\"0x5a10742dc65b7a28255fe7b4d2b9f290786892e1e437654e2ccb53bed1bfe01a\")\n        /* \"prueba.sol\":13068:13085  tokenIn == tokenB */\n      0xffffffffffffffffffffffffffffffffffffffff\n      and\n        /* \"prueba.sol\":13068:13075  tokenIn */\n      dup5\n        /* \"prueba.sol\":13068:13085  tokenIn == tokenB */\n      0xffffffffffffffffffffffffffffffffffffffff\n      and\n      eq\n        /* \"prueba.sol\":13068:13107  tokenIn == tokenB && tokenOut == tokenA */\n      dup1\n      iszero\n      tag_148\n      jumpi\n      pop\n        /* \"prueba.sol\":13101:13107  tokenA */\n      immutable(\"0x890f693d9ea1b595bb4a33efee4a21d60a63ffd2ec40c37883b92f82fc5da52b\")\n        /* \"prueba.sol\":13089:13107  tokenOut == tokenA */\n      0xffffffffffffffffffffffffffffffffffffffff\n      and\n        /* \"prueba.sol\":13089:13097  tokenOut */\n      dup4\n        /* \"prueba.sol\":13089:13107  tokenOut == tokenA */\n      0xffffffffffffffffffffffffffffffffffffffff\n      and\n      eq\n        /* \"prueba.sol\":13068:13107  tokenIn == tokenB && tokenOut == tokenA */\n    tag_148:\n        /* \"prueba.sol\":13022:13108  (tokenIn == tokenA && tokenOut == tokenB) || (tokenIn == tokenB && tokenOut == tokenA) */\n    tag_147:\n        /* \"prueba.sol\":13000:13150  require(... */\n      tag_149\n      jumpi\n      mload(0x40)\n      0x08c379a000000000000000000000000000000000000000000000000000000000\n      dup2\n      mstore\n      0x04\n      add\n      tag_150\n      swap1\n      tag_151\n      jump\t// in\n    tag_150:\n      mload(0x40)\n      dup1\n      swap2\n      sub\n      swap1\n      revert\n    tag_149:\n        /* \"prueba.sol\":13231:13245  uint reserveIn */\n      0x00\n        /* \"prueba.sol\":13260:13266  tokenA */\n      immutable(\"0x890f693d9ea1b595bb4a33efee4a21d60a63ffd2ec40c37883b92f82fc5da52b\")\n        /* \"prueba.sol\":13249:13266  tokenIn == tokenA */\n      0xffffffffffffffffffffffffffffffffffffffff\n      and\n        /* \"prueba.sol\":13249:13256  tokenIn */\n      dup6\n        /* \"prueba.sol\":13249:13266  tokenIn == tokenA */\n      0xffffffffffffffffffffffffffffffffffffffff\n      and\n      eq\n        /* \"prueba.sol\":13248:13289  (tokenIn == tokenA) ? reserveA : reserveB */\n      tag_152\n      jumpi\n        /* \"prueba.sol\":13281:13289  reserveB */\n      sload(0x03)\n        /* \"prueba.sol\":13248:13289  (tokenIn == tokenA) ? reserveA : reserveB */\n      jump(tag_153)\n    tag_152:\n        /* \"prueba.sol\":13270:13278  reserveA */\n      sload(0x02)\n        /* \"prueba.sol\":13248:13289  (tokenIn == tokenA) ? reserveA : reserveB */\n    tag_153:\n        /* \"prueba.sol\":13231:13289  uint reserveIn = (tokenIn == tokenA) ? reserveA : reserveB */\n      swap1\n      pop\n        /* \"prueba.sol\":13300:13315  uint reserveOut */\n      0x00\n        /* \"prueba.sol\":13331:13337  tokenA */\n      immutable(\"0x890f693d9ea1b595bb4a33efee4a21d60a63ffd2ec40c37883b92f82fc5da52b\")\n        /* \"prueba.sol\":13319:13337  tokenOut == tokenA */\n      0xffffffffffffffffffffffffffffffffffffffff\n      and\n        /* \"prueba.sol\":13319:13327  tokenOut */\n      dup6\n        /* \"prueba.sol\":13319:13337  tokenOut == tokenA */\n      0xffffffffffffffffffffffffffffffffffffffff\n      and\n      eq\n        /* \"prueba.sol\":13318:13360  (tokenOut == tokenA) ? reserveA : reserveB */\n      tag_154\n      jumpi\n        /* \"prueba.sol\":13352:13360  reserveB */\n      sload(0x03)\n        /* \"prueba.sol\":13318:13360  (tokenOut == tokenA) ? reserveA : reserveB */\n      jump(tag_155)\n    tag_154:\n        /* \"prueba.sol\":13341:13349  reserveA */\n      sload(0x02)\n        /* \"prueba.sol\":13318:13360  (tokenOut == tokenA) ? reserveA : reserveB */\n    tag_155:\n        /* \"prueba.sol\":13300:13360  uint reserveOut = (tokenOut == tokenA) ? reserveA : reserveB */\n      swap1\n      pop\n        /* \"prueba.sol\":13393:13394  0 */\n      0x00\n        /* \"prueba.sol\":13381:13390  reserveIn */\n      dup3\n        /* \"prueba.sol\":13381:13394  reserveIn > 0 */\n      gt\n        /* \"prueba.sol\":13381:13412  reserveIn > 0 && reserveOut > 0 */\n      dup1\n      iszero\n      tag_156\n      jumpi\n      pop\n        /* \"prueba.sol\":13411:13412  0 */\n      0x00\n        /* \"prueba.sol\":13398:13408  reserveOut */\n      dup2\n        /* \"prueba.sol\":13398:13412  reserveOut > 0 */\n      gt\n        /* \"prueba.sol\":13381:13412  reserveIn > 0 && reserveOut > 0 */\n    tag_156:\n        /* \"prueba.sol\":13373:13429  require(reserveIn > 0 && reserveOut > 0, \"No liquidity\") */\n      tag_157\n      jumpi\n      mload(0x40)\n      0x08c379a000000000000000000000000000000000000000000000000000000000\n      dup2\n      mstore\n      0x04\n      add\n      tag_158\n      swap1\n      tag_159\n      jump\t// in\n    tag_158:\n      mload(0x40)\n      dup1\n      swap2\n      sub\n      swap1\n      revert\n    tag_157:\n        /* \"prueba.sol\":13484:13504  uint amountInWithFee */\n      0x00\n        /* \"prueba.sol\":13518:13521  997 */\n      0x03e5\n        /* \"prueba.sol\":13507:13515  amountIn */\n      dup6\n        /* \"prueba.sol\":13507:13521  amountIn * 997 */\n      tag_160\n      swap2\n      swap1\n      tag_71\n      jump\t// in\n    tag_160:\n        /* \"prueba.sol\":13484:13521  uint amountInWithFee = amountIn * 997 */\n      swap1\n      pop\n        /* \"prueba.sol\":13667:13682  amountInWithFee */\n      dup1\n        /* \"prueba.sol\":13660:13664  1000 */\n      0x03e8\n        /* \"prueba.sol\":13648:13657  reserveIn */\n      dup5\n        /* \"prueba.sol\":13648:13664  reserveIn * 1000 */\n      tag_161\n      swap2\n      swap1\n      tag_71\n      jump\t// in\n    tag_161:\n        /* \"prueba.sol\":13648:13682  reserveIn * 1000 + amountInWithFee */\n      tag_162\n      swap2\n      swap1\n      tag_108\n      jump\t// in\n    tag_162:\n        /* \"prueba.sol\":13633:13643  reserveOut */\n      dup3\n        /* \"prueba.sol\":13615:13630  amountInWithFee */\n      dup3\n        /* \"prueba.sol\":13615:13643  amountInWithFee * reserveOut */\n      tag_163\n      swap2\n      swap1\n      tag_71\n      jump\t// in\n    tag_163:\n        /* \"prueba.sol\":13614:13683  (amountInWithFee * reserveOut) / (reserveIn * 1000 + amountInWithFee) */\n      tag_164\n      swap2\n      swap1\n      tag_110\n      jump\t// in\n    tag_164:\n        /* \"prueba.sol\":13602:13683  amountOut = (amountInWithFee * reserveOut) / (reserveIn * 1000 + amountInWithFee) */\n      swap4\n      pop\n        /* \"prueba.sol\":12940:13691  {... */\n      pop\n      pop\n      pop\n        /* \"prueba.sol\":12829:13691  function getAmountOut(address tokenIn, address tokenOut, uint amountIn) external view returns (uint amountOut) {... */\n      swap4\n      swap3\n      pop\n      pop\n      pop\n      jump\t// out\n        /* \"prueba.sol\":2429:2460  address public immutable tokenB */\n    tag_39:\n      immutable(\"0x5a10742dc65b7a28255fe7b4d2b9f290786892e1e437654e2ccb53bed1bfe01a\")\n      dup2\n      jump\t// out\n        /* \"prueba.sol\":2611:2634  ILPToken public lpToken */\n    tag_42:\n      0x01\n      0x00\n      swap1\n      sload\n      swap1\n      0x0100\n      exp\n      swap1\n      div\n      0xffffffffffffffffffffffffffffffffffffffff\n      and\n      dup2\n      jump\t// out\n        /* \"prueba.sol\":2502:2522  address public owner */\n    tag_46:\n      0x00\n      0x00\n      swap1\n      sload\n      swap1\n      0x0100\n      exp\n      swap1\n      div\n      0xffffffffffffffffffffffffffffffffffffffff\n      and\n      dup2\n      jump\t// out\n        /* \"prueba.sol\":11869:12458  function getPrice(address base, address quote) external view returns (uint price) {... */\n    tag_51:\n        /* \"prueba.sol\":11939:11949  uint price */\n      0x00\n        /* \"prueba.sol\":11978:11983  quote */\n      dup2\n        /* \"prueba.sol\":11970:11983  base != quote */\n      0xffffffffffffffffffffffffffffffffffffffff\n      and\n        /* \"prueba.sol\":11970:11974  base */\n      dup4\n        /* \"prueba.sol\":11970:11983  base != quote */\n      0xffffffffffffffffffffffffffffffffffffffff\n      and\n      sub\n        /* \"prueba.sol\":11962:12006  require(base != quote, \"Tokens must differ\") */\n      tag_166\n      jumpi\n      mload(0x40)\n      0x08c379a000000000000000000000000000000000000000000000000000000000\n      dup2\n      mstore\n      0x04\n      add\n      tag_167\n      swap1\n      tag_168\n      jump\t// in\n    tag_167:\n      mload(0x40)\n      dup1\n      swap2\n      sub\n      swap1\n      revert\n    tag_166:\n        /* \"prueba.sol\":12041:12042  0 */\n      0x00\n        /* \"prueba.sol\":12025:12043  base != address(0) */\n      0xffffffffffffffffffffffffffffffffffffffff\n      and\n        /* \"prueba.sol\":12025:12029  base */\n      dup4\n        /* \"prueba.sol\":12025:12043  base != address(0) */\n      0xffffffffffffffffffffffffffffffffffffffff\n      and\n      eq\n      iszero\n        /* \"prueba.sol\":12025:12066  base != address(0) && quote != address(0) */\n      dup1\n      iszero\n      tag_169\n      jumpi\n      pop\n        /* \"prueba.sol\":12064:12065  0 */\n      0x00\n        /* \"prueba.sol\":12047:12066  quote != address(0) */\n      0xffffffffffffffffffffffffffffffffffffffff\n      and\n        /* \"prueba.sol\":12047:12052  quote */\n      dup3\n        /* \"prueba.sol\":12047:12066  quote != address(0) */\n      0xffffffffffffffffffffffffffffffffffffffff\n      and\n      eq\n      iszero\n        /* \"prueba.sol\":12025:12066  base != address(0) && quote != address(0) */\n    tag_169:\n        /* \"prueba.sol\":12017:12086  require(base != address(0) && quote != address(0), \"Invalid address\") */\n      tag_170\n      jumpi\n      mload(0x40)\n      0x08c379a000000000000000000000000000000000000000000000000000000000\n      dup2\n      mstore\n      0x04\n      add\n      tag_171\n      swap1\n      tag_172\n      jump\t// in\n    tag_171:\n      mload(0x40)\n      dup1\n      swap2\n      sub\n      swap1\n      revert\n    tag_170:\n        /* \"prueba.sol\":12164:12171  uint rA */\n      0x00\n        /* \"prueba.sol\":12181:12185  base */\n      dup4\n        /* \"prueba.sol\":12174:12196  IERC20(base).balanceOf */\n      0xffffffffffffffffffffffffffffffffffffffff\n      and\n      0x70a08231\n        /* \"prueba.sol\":12205:12209  this */\n      address\n        /* \"prueba.sol\":12174:12211  IERC20(base).balanceOf(address(this)) */\n      mload(0x40)\n      dup3\n      0xffffffff\n      and\n      0xe0\n      shl\n      dup2\n      mstore\n      0x04\n      add\n      tag_173\n      swap2\n      swap1\n      tag_19\n      jump\t// in\n    tag_173:\n      0x20\n      mload(0x40)\n      dup1\n      dup4\n      sub\n      dup2\n      dup7\n      gas\n      staticcall\n      iszero\n      dup1\n      iszero\n      tag_175\n      jumpi\n      returndatacopy(0x00, 0x00, returndatasize)\n      revert(0x00, returndatasize)\n    tag_175:\n      pop\n      pop\n      pop\n      pop\n      mload(0x40)\n      returndatasize\n      not(0x1f)\n      0x1f\n      dup3\n      add\n      and\n      dup3\n      add\n      dup1\n      0x40\n      mstore\n      pop\n      dup2\n      add\n      swap1\n      tag_176\n      swap2\n      swap1\n      tag_177\n      jump\t// in\n    tag_176:\n        /* \"prueba.sol\":12164:12211  uint rA = IERC20(base).balanceOf(address(this)) */\n      swap1\n      pop\n        /* \"prueba.sol\":12222:12229  uint rB */\n      0x00\n        /* \"prueba.sol\":12239:12244  quote */\n      dup4\n        /* \"prueba.sol\":12232:12255  IERC20(quote).balanceOf */\n      0xffffffffffffffffffffffffffffffffffffffff\n      and\n      0x70a08231\n        /* \"prueba.sol\":12264:12268  this */\n      address\n        /* \"prueba.sol\":12232:12270  IERC20(quote).balanceOf(address(this)) */\n      mload(0x40)\n      dup3\n      0xffffffff\n      and\n      0xe0\n      shl\n      dup2\n      mstore\n      0x04\n      add\n      tag_178\n      swap2\n      swap1\n      tag_19\n      jump\t// in\n    tag_178:\n      0x20\n      mload(0x40)\n      dup1\n      dup4\n      sub\n      dup2\n      dup7\n      gas\n      staticcall\n      iszero\n      dup1\n      iszero\n      tag_180\n      jumpi\n      returndatacopy(0x00, 0x00, returndatasize)\n      revert(0x00, returndatasize)\n    tag_180:\n      pop\n      pop\n      pop\n      pop\n      mload(0x40)\n      returndatasize\n      not(0x1f)\n      0x1f\n      dup3\n      add\n      and\n      dup3\n      add\n      dup1\n      0x40\n      mstore\n      pop\n      dup2\n      add\n      swap1\n      tag_181\n      swap2\n      swap1\n      tag_177\n      jump\t// in\n    tag_181:\n        /* \"prueba.sol\":12222:12270  uint rB = IERC20(quote).balanceOf(address(this)) */\n      swap1\n      pop\n        /* \"prueba.sol\":12296:12297  0 */\n      0x00\n        /* \"prueba.sol\":12291:12293  rA */\n      dup3\n        /* \"prueba.sol\":12291:12297  rA > 0 */\n      gt\n        /* \"prueba.sol\":12291:12307  rA > 0 && rB > 0 */\n      dup1\n      iszero\n      tag_182\n      jumpi\n      pop\n        /* \"prueba.sol\":12306:12307  0 */\n      0x00\n        /* \"prueba.sol\":12301:12303  rB */\n      dup2\n        /* \"prueba.sol\":12301:12307  rB > 0 */\n      gt\n        /* \"prueba.sol\":12291:12307  rA > 0 && rB > 0 */\n    tag_182:\n        /* \"prueba.sol\":12283:12324  require(rA > 0 && rB > 0, \"No liquidity\") */\n      tag_183\n      jumpi\n      mload(0x40)\n      0x08c379a000000000000000000000000000000000000000000000000000000000\n      dup2\n      mstore\n      0x04\n      add\n      tag_184\n      swap1\n      tag_159\n      jump\t// in\n    tag_184:\n      mload(0x40)\n      dup1\n      swap2\n      sub\n      swap1\n      revert\n    tag_183:\n        /* \"prueba.sol\":12448:12450  rA */\n      dup2\n        /* \"prueba.sol\":12440:12444  1e18 */\n      0x0de0b6b3a7640000\n        /* \"prueba.sol\":12435:12437  rB */\n      dup3\n        /* \"prueba.sol\":12435:12444  rB * 1e18 */\n      tag_185\n      swap2\n      swap1\n      tag_71\n      jump\t// in\n    tag_185:\n        /* \"prueba.sol\":12434:12450  (rB * 1e18) / rA */\n      tag_186\n      swap2\n      swap1\n      tag_110\n      jump\t// in\n    tag_186:\n        /* \"prueba.sol\":12426:12450  price = (rB * 1e18) / rA */\n      swap3\n      pop\n        /* \"prueba.sol\":11951:12458  {... */\n      pop\n      pop\n        /* \"prueba.sol\":11869:12458  function getPrice(address base, address quote) external view returns (uint price) {... */\n      swap3\n      swap2\n      pop\n      pop\n      jump\t// out\n        /* \"prueba.sol\":2709:2729  uint public reserveA */\n    tag_54:\n      sload(0x02)\n      dup2\n      jump\t// out\n        /* \"prueba.sol\":4595:6920  function addLiquidity(... */\n    tag_59:\n        /* \"prueba.sol\":4799:4811  uint amountA */\n      0x00\n        /* \"prueba.sol\":4813:4825  uint amountB */\n      0x00\n        /* \"prueba.sol\":4827:4847  uint liquidityMinted */\n      0x00\n        /* \"prueba.sol\":4887:4895  deadline */\n      dup4\n        /* \"prueba.sol\":4868:4883  block.timestamp */\n      timestamp\n        /* \"prueba.sol\":4868:4895  block.timestamp <= deadline */\n      gt\n      iszero\n        /* \"prueba.sol\":4860:4919  require(block.timestamp <= deadline, \"Transaction expired\") */\n      tag_188\n      jumpi\n      mload(0x40)\n      0x08c379a000000000000000000000000000000000000000000000000000000000\n      dup2\n      mstore\n      0x04\n      add\n      tag_189\n      swap1\n      tag_76\n      jump\t// in\n    tag_189:\n      mload(0x40)\n      dup1\n      swap2\n      sub\n      swap1\n      revert\n    tag_188:\n        /* \"prueba.sol\":4995:4996  0 */\n      0x00\n        /* \"prueba.sol\":4981:4997  to != address(0) */\n      0xffffffffffffffffffffffffffffffffffffffff\n      and\n        /* \"prueba.sol\":4981:4983  to */\n      dup6\n        /* \"prueba.sol\":4981:4997  to != address(0) */\n      0xffffffffffffffffffffffffffffffffffffffff\n      and\n      sub\n        /* \"prueba.sol\":4973:5019  require(to != address(0), \"Invalid recipient\") */\n      tag_190\n      jumpi\n      mload(0x40)\n      0x08c379a000000000000000000000000000000000000000000000000000000000\n      dup2\n      mstore\n      0x04\n      add\n      tag_191\n      swap1\n      tag_192\n      jump\t// in\n    tag_191:\n      mload(0x40)\n      dup1\n      swap2\n      sub\n      swap1\n      revert\n    tag_190:\n        /* \"prueba.sol\":5086:5087  0 */\n      0x00\n        /* \"prueba.sol\":5074:5082  reserveA */\n      sload(0x02)\n        /* \"prueba.sol\":5074:5087  reserveA == 0 */\n      eq\n        /* \"prueba.sol\":5074:5104  reserveA == 0 && reserveB == 0 */\n      dup1\n      iszero\n      tag_193\n      jumpi\n      pop\n        /* \"prueba.sol\":5103:5104  0 */\n      0x00\n        /* \"prueba.sol\":5091:5099  reserveB */\n      sload(0x03)\n        /* \"prueba.sol\":5091:5104  reserveB == 0 */\n      eq\n        /* \"prueba.sol\":5074:5104  reserveA == 0 && reserveB == 0 */\n    tag_193:\n        /* \"prueba.sol\":5070:6090  if (reserveA == 0 && reserveB == 0) {... */\n      iszero\n      tag_194\n      jumpi\n        /* \"prueba.sol\":5210:5224  amountADesired */\n      dup9\n        /* \"prueba.sol\":5200:5224  amountA = amountADesired */\n      swap3\n      pop\n        /* \"prueba.sol\":5249:5263  amountBDesired */\n      dup8\n        /* \"prueba.sol\":5239:5263  amountB = amountBDesired */\n      swap2\n      pop\n        /* \"prueba.sol\":5070:6090  if (reserveA == 0 && reserveB == 0) {... */\n      jump(tag_195)\n    tag_194:\n        /* \"prueba.sol\":5397:5416  uint amountBOptimal */\n      0x00\n        /* \"prueba.sol\":5449:5457  reserveA */\n      sload(0x02)\n        /* \"prueba.sol\":5437:5445  reserveB */\n      sload(0x03)\n        /* \"prueba.sol\":5420:5434  amountADesired */\n      dup12\n        /* \"prueba.sol\":5420:5445  amountADesired * reserveB */\n      tag_196\n      swap2\n      swap1\n      tag_71\n      jump\t// in\n    tag_196:\n        /* \"prueba.sol\":5419:5457  (amountADesired * reserveB) / reserveA */\n      tag_197\n      swap2\n      swap1\n      tag_110\n      jump\t// in\n    tag_197:\n        /* \"prueba.sol\":5397:5457  uint amountBOptimal = (amountADesired * reserveB) / reserveA */\n      swap1\n      pop\n        /* \"prueba.sol\":5494:5508  amountBDesired */\n      dup9\n        /* \"prueba.sol\":5476:5490  amountBOptimal */\n      dup2\n        /* \"prueba.sol\":5476:5508  amountBOptimal <= amountBDesired */\n      gt\n        /* \"prueba.sol\":5472:6079  if (amountBOptimal <= amountBDesired) {... */\n      tag_198\n      jumpi\n        /* \"prueba.sol\":5555:5565  amountBMin */\n      dup7\n        /* \"prueba.sol\":5537:5551  amountBOptimal */\n      dup2\n        /* \"prueba.sol\":5537:5565  amountBOptimal >= amountBMin */\n      lt\n      iszero\n        /* \"prueba.sol\":5529:5589  require(amountBOptimal >= amountBMin, \"Slippage: B too low\") */\n      tag_199\n      jumpi\n      mload(0x40)\n      0x08c379a000000000000000000000000000000000000000000000000000000000\n      dup2\n      mstore\n      0x04\n      add\n      tag_200\n      swap1\n      tag_201\n      jump\t// in\n    tag_200:\n      mload(0x40)\n      dup1\n      swap2\n      sub\n      swap1\n      revert\n    tag_199:\n        /* \"prueba.sol\":5647:5661  amountADesired */\n      dup10\n        /* \"prueba.sol\":5637:5661  amountA = amountADesired */\n      swap4\n      pop\n        /* \"prueba.sol\":5690:5704  amountBOptimal */\n      dup1\n        /* \"prueba.sol\":5680:5704  amountB = amountBOptimal */\n      swap3\n      pop\n        /* \"prueba.sol\":5472:6079  if (amountBOptimal <= amountBDesired) {... */\n      jump(tag_202)\n    tag_198:\n        /* \"prueba.sol\":5838:5857  uint amountAOptimal */\n      0x00\n        /* \"prueba.sol\":5890:5898  reserveB */\n      sload(0x03)\n        /* \"prueba.sol\":5878:5886  reserveA */\n      sload(0x02)\n        /* \"prueba.sol\":5861:5875  amountBDesired */\n      dup12\n        /* \"prueba.sol\":5861:5886  amountBDesired * reserveA */\n      tag_203\n      swap2\n      swap1\n      tag_71\n      jump\t// in\n    tag_203:\n        /* \"prueba.sol\":5860:5898  (amountBDesired * reserveA) / reserveB */\n      tag_204\n      swap2\n      swap1\n      tag_110\n      jump\t// in\n    tag_204:\n        /* \"prueba.sol\":5838:5898  uint amountAOptimal = (amountBDesired * reserveA) / reserveB */\n      swap1\n      pop\n        /* \"prueba.sol\":5943:5953  amountAMin */\n      dup9\n        /* \"prueba.sol\":5925:5939  amountAOptimal */\n      dup2\n        /* \"prueba.sol\":5925:5953  amountAOptimal >= amountAMin */\n      lt\n      iszero\n        /* \"prueba.sol\":5917:5977  require(amountAOptimal >= amountAMin, \"Slippage: A too low\") */\n      tag_205\n      jumpi\n      mload(0x40)\n      0x08c379a000000000000000000000000000000000000000000000000000000000\n      dup2\n      mstore\n      0x04\n      add\n      tag_206\n      swap1\n      tag_207\n      jump\t// in\n    tag_206:\n      mload(0x40)\n      dup1\n      swap2\n      sub\n      swap1\n      revert\n    tag_205:\n        /* \"prueba.sol\":6006:6020  amountAOptimal */\n      dup1\n        /* \"prueba.sol\":5996:6020  amountA = amountAOptimal */\n      swap5\n      pop\n        /* \"prueba.sol\":6049:6063  amountBDesired */\n      dup10\n        /* \"prueba.sol\":6039:6063  amountB = amountBDesired */\n      swap4\n      pop\n        /* \"prueba.sol\":5726:6079  {... */\n      pop\n        /* \"prueba.sol\":5472:6079  if (amountBOptimal <= amountBDesired) {... */\n    tag_202:\n        /* \"prueba.sol\":5281:6090  {... */\n      pop\n        /* \"prueba.sol\":5070:6090  if (reserveA == 0 && reserveB == 0) {... */\n    tag_195:\n        /* \"prueba.sol\":6182:6188  tokenA */\n      immutable(\"0x890f693d9ea1b595bb4a33efee4a21d60a63ffd2ec40c37883b92f82fc5da52b\")\n        /* \"prueba.sol\":6175:6202  IERC20(tokenA).transferFrom */\n      0xffffffffffffffffffffffffffffffffffffffff\n      and\n      0x23b872dd\n        /* \"prueba.sol\":6203:6213  msg.sender */\n      caller\n        /* \"prueba.sol\":6223:6227  this */\n      address\n        /* \"prueba.sol\":6230:6237  amountA */\n      dup7\n        /* \"prueba.sol\":6175:6238  IERC20(tokenA).transferFrom(msg.sender, address(this), amountA) */\n      mload(0x40)\n      dup5\n      0xffffffff\n      and\n      0xe0\n      shl\n      dup2\n      mstore\n      0x04\n      add\n      tag_208\n      swap4\n      swap3\n      swap2\n      swap1\n      tag_95\n      jump\t// in\n    tag_208:\n      0x20\n      mload(0x40)\n      dup1\n      dup4\n      sub\n      dup2\n      0x00\n      dup8\n      gas\n      call\n      iszero\n      dup1\n      iszero\n      tag_210\n      jumpi\n      returndatacopy(0x00, 0x00, returndatasize)\n      revert(0x00, returndatasize)\n    tag_210:\n      pop\n      pop\n      pop\n      pop\n      mload(0x40)\n      returndatasize\n      not(0x1f)\n      0x1f\n      dup3\n      add\n      and\n      dup3\n      add\n      dup1\n      0x40\n      mstore\n      pop\n      dup2\n      add\n      swap1\n      tag_211\n      swap2\n      swap1\n      tag_99\n      jump\t// in\n    tag_211:\n        /* \"prueba.sol\":6167:6265  require(IERC20(tokenA).transferFrom(msg.sender, address(this), amountA), \"Transfer tokenA failed\") */\n      tag_212\n      jumpi\n      mload(0x40)\n      0x08c379a000000000000000000000000000000000000000000000000000000000\n      dup2\n      mstore\n      0x04\n      add\n      tag_213\n      swap1\n      tag_214\n      jump\t// in\n    tag_213:\n      mload(0x40)\n      dup1\n      swap2\n      sub\n      swap1\n      revert\n    tag_212:\n        /* \"prueba.sol\":6291:6297  tokenB */\n      immutable(\"0x5a10742dc65b7a28255fe7b4d2b9f290786892e1e437654e2ccb53bed1bfe01a\")\n        /* \"prueba.sol\":6284:6311  IERC20(tokenB).transferFrom */\n      0xffffffffffffffffffffffffffffffffffffffff\n      and\n      0x23b872dd\n        /* \"prueba.sol\":6312:6322  msg.sender */\n      caller\n        /* \"prueba.sol\":6332:6336  this */\n      address\n        /* \"prueba.sol\":6339:6346  amountB */\n      dup6\n        /* \"prueba.sol\":6284:6347  IERC20(tokenB).transferFrom(msg.sender, address(this), amountB) */\n      mload(0x40)\n      dup5\n      0xffffffff\n      and\n      0xe0\n      shl\n      dup2\n      mstore\n      0x04\n      add\n      tag_215\n      swap4\n      swap3\n      swap2\n      swap1\n      tag_95\n      jump\t// in\n    tag_215:\n      0x20\n      mload(0x40)\n      dup1\n      dup4\n      sub\n      dup2\n      0x00\n      dup8\n      gas\n      call\n      iszero\n      dup1\n      iszero\n      tag_217\n      jumpi\n      returndatacopy(0x00, 0x00, returndatasize)\n      revert(0x00, returndatasize)\n    tag_217:\n      pop\n      pop\n      pop\n      pop\n      mload(0x40)\n      returndatasize\n      not(0x1f)\n      0x1f\n      dup3\n      add\n      and\n      dup3\n      add\n      dup1\n      0x40\n      mstore\n      pop\n      dup2\n      add\n      swap1\n      tag_218\n      swap2\n      swap1\n      tag_99\n      jump\t// in\n    tag_218:\n        /* \"prueba.sol\":6276:6374  require(IERC20(tokenB).transferFrom(msg.sender, address(this), amountB), \"Transfer tokenB failed\") */\n      tag_219\n      jumpi\n      mload(0x40)\n      0x08c379a000000000000000000000000000000000000000000000000000000000\n      dup2\n      mstore\n      0x04\n      add\n      tag_220\n      swap1\n      tag_221\n      jump\t// in\n    tag_220:\n      mload(0x40)\n      dup1\n      swap2\n      sub\n      swap1\n      revert\n    tag_219:\n        /* \"prueba.sol\":6466:6473  amountA */\n      dup3\n        /* \"prueba.sol\":6454:6462  reserveA */\n      0x02\n      0x00\n        /* \"prueba.sol\":6454:6473  reserveA += amountA */\n      dup3\n      dup3\n      sload\n      tag_222\n      swap2\n      swap1\n      tag_108\n      jump\t// in\n    tag_222:\n      swap3\n      pop\n      pop\n      dup2\n      swap1\n      sstore\n      pop\n        /* \"prueba.sol\":6496:6503  amountB */\n      dup2\n        /* \"prueba.sol\":6484:6492  reserveB */\n      0x03\n      0x00\n        /* \"prueba.sol\":6484:6503  reserveB += amountB */\n      dup3\n      dup3\n      sload\n      tag_223\n      swap2\n      swap1\n      tag_108\n      jump\t// in\n    tag_223:\n      swap3\n      pop\n      pop\n      dup2\n      swap1\n      sstore\n      pop\n        /* \"prueba.sol\":6645:6673  Math.sqrt(amountA * amountB) */\n      tag_224\n        /* \"prueba.sol\":6665:6672  amountB */\n      dup3\n        /* \"prueba.sol\":6655:6662  amountA */\n      dup5\n        /* \"prueba.sol\":6655:6672  amountA * amountB */\n      tag_225\n      swap2\n      swap1\n      tag_71\n      jump\t// in\n    tag_225:\n        /* \"prueba.sol\":6645:6654  Math.sqrt */\n      tag_72\n        /* \"prueba.sol\":6645:6673  Math.sqrt(amountA * amountB) */\n      jump\t// in\n    tag_224:\n        /* \"prueba.sol\":6627:6673  liquidityMinted = Math.sqrt(amountA * amountB) */\n      swap1\n      pop\n        /* \"prueba.sol\":6764:6771  lpToken */\n      0x01\n      0x00\n      swap1\n      sload\n      swap1\n      0x0100\n      exp\n      swap1\n      div\n      0xffffffffffffffffffffffffffffffffffffffff\n      and\n        /* \"prueba.sol\":6764:6776  lpToken.mint */\n      0xffffffffffffffffffffffffffffffffffffffff\n      and\n      0x40c10f19\n        /* \"prueba.sol\":6777:6779  to */\n      dup7\n        /* \"prueba.sol\":6781:6796  liquidityMinted */\n      dup4\n        /* \"prueba.sol\":6764:6797  lpToken.mint(to, liquidityMinted) */\n      mload(0x40)\n      dup4\n      0xffffffff\n      and\n      0xe0\n      shl\n      dup2\n      mstore\n      0x04\n      add\n      tag_226\n      swap3\n      swap2\n      swap1\n      tag_127\n      jump\t// in\n    tag_226:\n      0x00\n      mload(0x40)\n      dup1\n      dup4\n      sub\n      dup2\n      0x00\n      dup8\n      dup1\n      extcodesize\n      iszero\n      dup1\n      iszero\n      tag_227\n      jumpi\n      revert(0x00, 0x00)\n    tag_227:\n      pop\n      gas\n      call\n      iszero\n      dup1\n      iszero\n      tag_229\n      jumpi\n      returndatacopy(0x00, 0x00, returndatasize)\n      revert(0x00, returndatasize)\n    tag_229:\n      pop\n      pop\n      pop\n      pop\n        /* \"prueba.sol\":6874:6876  to */\n      dup5\n        /* \"prueba.sol\":6859:6912  LiquidityAdded(to, amountA, amountB, liquidityMinted) */\n      0xffffffffffffffffffffffffffffffffffffffff\n      and\n      0x64b83944e79c3ce8d4c297411de637c3e102d064677aac0c163976ebdcd6f50e\n        /* \"prueba.sol\":6878:6885  amountA */\n      dup5\n        /* \"prueba.sol\":6887:6894  amountB */\n      dup5\n        /* \"prueba.sol\":6896:6911  liquidityMinted */\n      dup5\n        /* \"prueba.sol\":6859:6912  LiquidityAdded(to, amountA, amountB, liquidityMinted) */\n      mload(0x40)\n      tag_230\n      swap4\n      swap3\n      swap2\n      swap1\n      tag_61\n      jump\t// in\n    tag_230:\n      mload(0x40)\n      dup1\n      swap2\n      sub\n      swap1\n      log2\n        /* \"prueba.sol\":4595:6920  function addLiquidity(... */\n      swap7\n      pop\n      swap7\n      pop\n      swap7\n      swap4\n      pop\n      pop\n      pop\n      pop\n      jump\t// out\n        /* \"prueba.sol\":7457:9051  function removeLiquidity(... */\n    tag_65:\n        /* \"prueba.sol\":7635:7647  uint amountA */\n      0x00\n        /* \"prueba.sol\":7649:7661  uint amountB */\n      0x00\n        /* \"prueba.sol\":7701:7709  deadline */\n      dup3\n        /* \"prueba.sol\":7682:7697  block.timestamp */\n      timestamp\n        /* \"prueba.sol\":7682:7709  block.timestamp <= deadline */\n      gt\n      iszero\n        /* \"prueba.sol\":7674:7733  require(block.timestamp <= deadline, \"Transaction expired\") */\n      tag_232\n      jumpi\n      mload(0x40)\n      0x08c379a000000000000000000000000000000000000000000000000000000000\n      dup2\n      mstore\n      0x04\n      add\n      tag_233\n      swap1\n      tag_76\n      jump\t// in\n    tag_233:\n      mload(0x40)\n      dup1\n      swap2\n      sub\n      swap1\n      revert\n    tag_232:\n        /* \"prueba.sol\":7766:7767  0 */\n      0x00\n        /* \"prueba.sol\":7752:7768  to != address(0) */\n      0xffffffffffffffffffffffffffffffffffffffff\n      and\n        /* \"prueba.sol\":7752:7754  to */\n      dup5\n        /* \"prueba.sol\":7752:7768  to != address(0) */\n      0xffffffffffffffffffffffffffffffffffffffff\n      and\n      sub\n        /* \"prueba.sol\":7744:7790  require(to != address(0), \"Invalid recipient\") */\n      tag_234\n      jumpi\n      mload(0x40)\n      0x08c379a000000000000000000000000000000000000000000000000000000000\n      dup2\n      mstore\n      0x04\n      add\n      tag_235\n      swap1\n      tag_192\n      jump\t// in\n    tag_235:\n      mload(0x40)\n      dup1\n      swap2\n      sub\n      swap1\n      revert\n    tag_234:\n        /* \"prueba.sol\":7842:7857  liquidityAmount */\n      dup7\n        /* \"prueba.sol\":7809:7816  lpToken */\n      0x01\n      0x00\n      swap1\n      sload\n      swap1\n      0x0100\n      exp\n      swap1\n      div\n      0xffffffffffffffffffffffffffffffffffffffff\n      and\n        /* \"prueba.sol\":7809:7826  lpToken.balanceOf */\n      0xffffffffffffffffffffffffffffffffffffffff\n      and\n      0x70a08231\n        /* \"prueba.sol\":7827:7837  msg.sender */\n      caller\n        /* \"prueba.sol\":7809:7838  lpToken.balanceOf(msg.sender) */\n      mload(0x40)\n      dup3\n      0xffffffff\n      and\n      0xe0\n      shl\n      dup2\n      mstore\n      0x04\n      add\n      tag_236\n      swap2\n      swap1\n      tag_19\n      jump\t// in\n    tag_236:\n      0x20\n      mload(0x40)\n      dup1\n      dup4\n      sub\n      dup2\n      dup7\n      gas\n      staticcall\n      iszero\n      dup1\n      iszero\n      tag_238\n      jumpi\n      returndatacopy(0x00, 0x00, returndatasize)\n      revert(0x00, returndatasize)\n    tag_238:\n      pop\n      pop\n      pop\n      pop\n      mload(0x40)\n      returndatasize\n      not(0x1f)\n      0x1f\n      dup3\n      add\n      and\n      dup3\n      add\n      dup1\n      0x40\n      mstore\n      pop\n      dup2\n      add\n      swap1\n      tag_239\n      swap2\n      swap1\n      tag_177\n      jump\t// in\n    tag_239:\n        /* \"prueba.sol\":7809:7857  lpToken.balanceOf(msg.sender) >= liquidityAmount */\n      lt\n      iszero\n        /* \"prueba.sol\":7801:7882  require(lpToken.balanceOf(msg.sender) >= liquidityAmount, \"Not enough liquidity\") */\n      tag_240\n      jumpi\n      mload(0x40)\n      0x08c379a000000000000000000000000000000000000000000000000000000000\n      dup2\n      mstore\n      0x04\n      add\n      tag_241\n      swap1\n      tag_242\n      jump\t// in\n    tag_241:\n      mload(0x40)\n      dup1\n      swap2\n      sub\n      swap1\n      revert\n    tag_240:\n        /* \"prueba.sol\":7972:7985  uint totalLiq */\n      0x00\n        /* \"prueba.sol\":7988:7995  lpToken */\n      0x01\n      0x00\n      swap1\n      sload\n      swap1\n      0x0100\n      exp\n      swap1\n      div\n      0xffffffffffffffffffffffffffffffffffffffff\n      and\n        /* \"prueba.sol\":7988:8007  lpToken.totalSupply */\n      0xffffffffffffffffffffffffffffffffffffffff\n      and\n      0x18160ddd\n        /* \"prueba.sol\":7988:8009  lpToken.totalSupply() */\n      mload(0x40)\n      dup2\n      0xffffffff\n      and\n      0xe0\n      shl\n      dup2\n      mstore\n      0x04\n      add\n      0x20\n      mload(0x40)\n      dup1\n      dup4\n      sub\n      dup2\n      dup7\n      gas\n      staticcall\n      iszero\n      dup1\n      iszero\n      tag_244\n      jumpi\n      returndatacopy(0x00, 0x00, returndatasize)\n      revert(0x00, returndatasize)\n    tag_244:\n      pop\n      pop\n      pop\n      pop\n      mload(0x40)\n      returndatasize\n      not(0x1f)\n      0x1f\n      dup3\n      add\n      and\n      dup3\n      add\n      dup1\n      0x40\n      mstore\n      pop\n      dup2\n      add\n      swap1\n      tag_245\n      swap2\n      swap1\n      tag_177\n      jump\t// in\n    tag_245:\n        /* \"prueba.sol\":7972:8009  uint totalLiq = lpToken.totalSupply() */\n      swap1\n      pop\n        /* \"prueba.sol\":8039:8040  0 */\n      0x00\n        /* \"prueba.sol\":8028:8036  totalLiq */\n      dup2\n        /* \"prueba.sol\":8028:8040  totalLiq > 0 */\n      gt\n        /* \"prueba.sol\":8020:8057  require(totalLiq > 0, \"No liquidity\") */\n      tag_246\n      jumpi\n      mload(0x40)\n      0x08c379a000000000000000000000000000000000000000000000000000000000\n      dup2\n      mstore\n      0x04\n      add\n      tag_247\n      swap1\n      tag_159\n      jump\t// in\n    tag_247:\n      mload(0x40)\n      dup1\n      swap2\n      sub\n      swap1\n      revert\n    tag_246:\n        /* \"prueba.sol\":8205:8213  totalLiq */\n      dup1\n        /* \"prueba.sol\":8193:8201  reserveA */\n      sload(0x02)\n        /* \"prueba.sol\":8175:8190  liquidityAmount */\n      dup10\n        /* \"prueba.sol\":8175:8201  liquidityAmount * reserveA */\n      tag_248\n      swap2\n      swap1\n      tag_71\n      jump\t// in\n    tag_248:\n        /* \"prueba.sol\":8174:8213  (liquidityAmount * reserveA) / totalLiq */\n      tag_249\n      swap2\n      swap1\n      tag_110\n      jump\t// in\n    tag_249:\n        /* \"prueba.sol\":8164:8213  amountA = (liquidityAmount * reserveA) / totalLiq */\n      swap3\n      pop\n        /* \"prueba.sol\":8265:8273  totalLiq */\n      dup1\n        /* \"prueba.sol\":8253:8261  reserveB */\n      sload(0x03)\n        /* \"prueba.sol\":8235:8250  liquidityAmount */\n      dup10\n        /* \"prueba.sol\":8235:8261  liquidityAmount * reserveB */\n      tag_250\n      swap2\n      swap1\n      tag_71\n      jump\t// in\n    tag_250:\n        /* \"prueba.sol\":8234:8273  (liquidityAmount * reserveB) / totalLiq */\n      tag_251\n      swap2\n      swap1\n      tag_110\n      jump\t// in\n    tag_251:\n        /* \"prueba.sol\":8224:8273  amountB = (liquidityAmount * reserveB) / totalLiq */\n      swap2\n      pop\n        /* \"prueba.sol\":8395:8405  amountAMin */\n      dup7\n        /* \"prueba.sol\":8384:8391  amountA */\n      dup4\n        /* \"prueba.sol\":8384:8405  amountA >= amountAMin */\n      lt\n      iszero\n        /* \"prueba.sol\":8376:8429  require(amountA >= amountAMin, \"Slippage: A too low\") */\n      tag_252\n      jumpi\n      mload(0x40)\n      0x08c379a000000000000000000000000000000000000000000000000000000000\n      dup2\n      mstore\n      0x04\n      add\n      tag_253\n      swap1\n      tag_207\n      jump\t// in\n    tag_253:\n      mload(0x40)\n      dup1\n      swap2\n      sub\n      swap1\n      revert\n    tag_252:\n        /* \"prueba.sol\":8459:8469  amountBMin */\n      dup6\n        /* \"prueba.sol\":8448:8455  amountB */\n      dup3\n        /* \"prueba.sol\":8448:8469  amountB >= amountBMin */\n      lt\n      iszero\n        /* \"prueba.sol\":8440:8493  require(amountB >= amountBMin, \"Slippage: B too low\") */\n      tag_254\n      jumpi\n      mload(0x40)\n      0x08c379a000000000000000000000000000000000000000000000000000000000\n      dup2\n      mstore\n      0x04\n      add\n      tag_255\n      swap1\n      tag_201\n      jump\t// in\n    tag_255:\n      mload(0x40)\n      dup1\n      swap2\n      sub\n      swap1\n      revert\n    tag_254:\n        /* \"prueba.sol\":8562:8569  amountA */\n      dup3\n        /* \"prueba.sol\":8550:8558  reserveA */\n      0x02\n      0x00\n        /* \"prueba.sol\":8550:8569  reserveA -= amountA */\n      dup3\n      dup3\n      sload\n      tag_256\n      swap2\n      swap1\n      tag_116\n      jump\t// in\n    tag_256:\n      swap3\n      pop\n      pop\n      dup2\n      swap1\n      sstore\n      pop\n        /* \"prueba.sol\":8592:8599  amountB */\n      dup2\n        /* \"prueba.sol\":8580:8588  reserveB */\n      0x03\n      0x00\n        /* \"prueba.sol\":8580:8599  reserveB -= amountB */\n      dup3\n      dup3\n      sload\n      tag_257\n      swap2\n      swap1\n      tag_116\n      jump\t// in\n    tag_257:\n      swap3\n      pop\n      pop\n      dup2\n      swap1\n      sstore\n      pop\n        /* \"prueba.sol\":8655:8662  lpToken */\n      0x01\n      0x00\n      swap1\n      sload\n      swap1\n      0x0100\n      exp\n      swap1\n      div\n      0xffffffffffffffffffffffffffffffffffffffff\n      and\n        /* \"prueba.sol\":8655:8667  lpToken.burn */\n      0xffffffffffffffffffffffffffffffffffffffff\n      and\n      0x9dc29fac\n        /* \"prueba.sol\":8668:8678  msg.sender */\n      caller\n        /* \"prueba.sol\":8680:8695  liquidityAmount */\n      dup11\n        /* \"prueba.sol\":8655:8696  lpToken.burn(msg.sender, liquidityAmount) */\n      mload(0x40)\n      dup4\n      0xffffffff\n      and\n      0xe0\n      shl\n      dup2\n      mstore\n      0x04\n      add\n      tag_258\n      swap3\n      swap2\n      swap1\n      tag_127\n      jump\t// in\n    tag_258:\n      0x00\n      mload(0x40)\n      dup1\n      dup4\n      sub\n      dup2\n      0x00\n      dup8\n      dup1\n      extcodesize\n      iszero\n      dup1\n      iszero\n      tag_259\n      jumpi\n      revert(0x00, 0x00)\n    tag_259:\n      pop\n      gas\n      call\n      iszero\n      dup1\n      iszero\n      tag_261\n      jumpi\n      returndatacopy(0x00, 0x00, returndatasize)\n      revert(0x00, returndatasize)\n    tag_261:\n      pop\n      pop\n      pop\n      pop\n        /* \"prueba.sol\":8788:8794  tokenA */\n      immutable(\"0x890f693d9ea1b595bb4a33efee4a21d60a63ffd2ec40c37883b92f82fc5da52b\")\n        /* \"prueba.sol\":8781:8804  IERC20(tokenA).transfer */\n      0xffffffffffffffffffffffffffffffffffffffff\n      and\n      0xa9059cbb\n        /* \"prueba.sol\":8805:8807  to */\n      dup7\n        /* \"prueba.sol\":8809:8816  amountA */\n      dup6\n        /* \"prueba.sol\":8781:8817  IERC20(tokenA).transfer(to, amountA) */\n      mload(0x40)\n      dup4\n      0xffffffff\n      and\n      0xe0\n      shl\n      dup2\n      mstore\n      0x04\n      add\n      tag_262\n      swap3\n      swap2\n      swap1\n      tag_127\n      jump\t// in\n    tag_262:\n      0x20\n      mload(0x40)\n      dup1\n      dup4\n      sub\n      dup2\n      0x00\n      dup8\n      gas\n      call\n      iszero\n      dup1\n      iszero\n      tag_264\n      jumpi\n      returndatacopy(0x00, 0x00, returndatasize)\n      revert(0x00, returndatasize)\n    tag_264:\n      pop\n      pop\n      pop\n      pop\n      mload(0x40)\n      returndatasize\n      not(0x1f)\n      0x1f\n      dup3\n      add\n      and\n      dup3\n      add\n      dup1\n      0x40\n      mstore\n      pop\n      dup2\n      add\n      swap1\n      tag_265\n      swap2\n      swap1\n      tag_99\n      jump\t// in\n    tag_265:\n        /* \"prueba.sol\":8773:8844  require(IERC20(tokenA).transfer(to, amountA), \"Transfer tokenA failed\") */\n      tag_266\n      jumpi\n      mload(0x40)\n      0x08c379a000000000000000000000000000000000000000000000000000000000\n      dup2\n      mstore\n      0x04\n      add\n      tag_267\n      swap1\n      tag_214\n      jump\t// in\n    tag_267:\n      mload(0x40)\n      dup1\n      swap2\n      sub\n      swap1\n      revert\n    tag_266:\n        /* \"prueba.sol\":8870:8876  tokenB */\n      immutable(\"0x5a10742dc65b7a28255fe7b4d2b9f290786892e1e437654e2ccb53bed1bfe01a\")\n        /* \"prueba.sol\":8863:8886  IERC20(tokenB).transfer */\n      0xffffffffffffffffffffffffffffffffffffffff\n      and\n      0xa9059cbb\n        /* \"prueba.sol\":8887:8889  to */\n      dup7\n        /* \"prueba.sol\":8891:8898  amountB */\n      dup5\n        /* \"prueba.sol\":8863:8899  IERC20(tokenB).transfer(to, amountB) */\n      mload(0x40)\n      dup4\n      0xffffffff\n      and\n      0xe0\n      shl\n      dup2\n      mstore\n      0x04\n      add\n      tag_268\n      swap3\n      swap2\n      swap1\n      tag_127\n      jump\t// in\n    tag_268:\n      0x20\n      mload(0x40)\n      dup1\n      dup4\n      sub\n      dup2\n      0x00\n      dup8\n      gas\n      call\n      iszero\n      dup1\n      iszero\n      tag_270\n      jumpi\n      returndatacopy(0x00, 0x00, returndatasize)\n      revert(0x00, returndatasize)\n    tag_270:\n      pop\n      pop\n      pop\n      pop\n      mload(0x40)\n      returndatasize\n      not(0x1f)\n      0x1f\n      dup3\n      add\n      and\n      dup3\n      add\n      dup1\n      0x40\n      mstore\n      pop\n      dup2\n      add\n      swap1\n      tag_271\n      swap2\n      swap1\n      tag_99\n      jump\t// in\n    tag_271:\n        /* \"prueba.sol\":8855:8926  require(IERC20(tokenB).transfer(to, amountB), \"Transfer tokenB failed\") */\n      tag_272\n      jumpi\n      mload(0x40)\n      0x08c379a000000000000000000000000000000000000000000000000000000000\n      dup2\n      mstore\n      0x04\n      add\n      tag_273\n      swap1\n      tag_221\n      jump\t// in\n    tag_273:\n      mload(0x40)\n      dup1\n      swap2\n      sub\n      swap1\n      revert\n    tag_272:\n        /* \"prueba.sol\":9005:9007  to */\n      dup5\n        /* \"prueba.sol\":8988:9043  LiquidityRemoved(to, amountA, amountB, liquidityAmount) */\n      0xffffffffffffffffffffffffffffffffffffffff\n      and\n      0x1dc8bb69df2b8e91fbdcbfcf93d951b3f0000f085a95fe3f7946d6161439245d\n        /* \"prueba.sol\":9009:9016  amountA */\n      dup5\n        /* \"prueba.sol\":9018:9025  amountB */\n      dup5\n        /* \"prueba.sol\":9027:9042  liquidityAmount */\n      dup12\n        /* \"prueba.sol\":8988:9043  LiquidityRemoved(to, amountA, amountB, liquidityAmount) */\n      mload(0x40)\n      tag_274\n      swap4\n      swap3\n      swap2\n      swap1\n      tag_61\n      jump\t// in\n    tag_274:\n      mload(0x40)\n      dup1\n      swap2\n      sub\n      swap1\n      log2\n        /* \"prueba.sol\":7663:9051  {... */\n      pop\n        /* \"prueba.sol\":7457:9051  function removeLiquidity(... */\n      swap6\n      pop\n      swap6\n      swap4\n      pop\n      pop\n      pop\n      pop\n      jump\t// out\n        /* \"prueba.sol\":1235:1601  function sqrt(uint y) internal pure returns (uint z) {... */\n    tag_72:\n        /* \"prueba.sol\":1280:1286  uint z */\n      0x00\n        /* \"prueba.sol\":1307:1308  3 */\n      0x03\n        /* \"prueba.sol\":1303:1304  y */\n      dup3\n        /* \"prueba.sol\":1303:1308  y > 3 */\n      gt\n        /* \"prueba.sol\":1299:1594  if (y > 3) {... */\n      iszero\n      tag_276\n      jumpi\n        /* \"prueba.sol\":1329:1330  y */\n      dup2\n        /* \"prueba.sol\":1325:1330  z = y */\n      swap1\n      pop\n        /* \"prueba.sol\":1345:1351  uint x */\n      0x00\n        /* \"prueba.sol\":1362:1363  1 */\n      0x01\n        /* \"prueba.sol\":1358:1359  2 */\n      0x02\n        /* \"prueba.sol\":1354:1355  y */\n      dup5\n        /* \"prueba.sol\":1354:1359  y / 2 */\n      tag_277\n      swap2\n      swap1\n      tag_110\n      jump\t// in\n    tag_277:\n        /* \"prueba.sol\":1354:1363  y / 2 + 1 */\n      tag_278\n      swap2\n      swap1\n      tag_108\n      jump\t// in\n    tag_278:\n        /* \"prueba.sol\":1345:1363  uint x = y / 2 + 1 */\n      swap1\n      pop\n        /* \"prueba.sol\":1378:1470  while (x < z) {... */\n    tag_279:\n        /* \"prueba.sol\":1389:1390  z */\n      dup2\n        /* \"prueba.sol\":1385:1386  x */\n      dup2\n        /* \"prueba.sol\":1385:1390  x < z */\n      lt\n        /* \"prueba.sol\":1378:1470  while (x < z) {... */\n      iszero\n      tag_280\n      jumpi\n        /* \"prueba.sol\":1415:1416  x */\n      dup1\n        /* \"prueba.sol\":1411:1416  z = x */\n      swap2\n      pop\n        /* \"prueba.sol\":1453:1454  2 */\n      0x02\n        /* \"prueba.sol\":1448:1449  x */\n      dup2\n        /* \"prueba.sol\":1444:1445  x */\n      dup3\n        /* \"prueba.sol\":1440:1441  y */\n      dup6\n        /* \"prueba.sol\":1440:1445  y / x */\n      tag_281\n      swap2\n      swap1\n      tag_110\n      jump\t// in\n    tag_281:\n        /* \"prueba.sol\":1440:1449  y / x + x */\n      tag_282\n      swap2\n      swap1\n      tag_108\n      jump\t// in\n    tag_282:\n        /* \"prueba.sol\":1439:1454  (y / x + x) / 2 */\n      tag_283\n      swap2\n      swap1\n      tag_110\n      jump\t// in\n    tag_283:\n        /* \"prueba.sol\":1435:1454  x = (y / x + x) / 2 */\n      swap1\n      pop\n        /* \"prueba.sol\":1378:1470  while (x < z) {... */\n      jump(tag_279)\n    tag_280:\n        /* \"prueba.sol\":1310:1481  {... */\n      pop\n        /* \"prueba.sol\":1299:1594  if (y > 3) {... */\n      jump(tag_284)\n    tag_276:\n        /* \"prueba.sol\":1496:1497  0 */\n      0x00\n        /* \"prueba.sol\":1491:1492  y */\n      dup3\n        /* \"prueba.sol\":1491:1497  y != 0 */\n      eq\n        /* \"prueba.sol\":1487:1594  if (y != 0) {... */\n      tag_285\n      jumpi\n        /* \"prueba.sol\":1518:1519  1 */\n      0x01\n        /* \"prueba.sol\":1514:1519  z = 1 */\n      swap1\n      pop\n        /* \"prueba.sol\":1487:1594  if (y != 0) {... */\n    tag_285:\n        /* \"prueba.sol\":1299:1594  if (y > 3) {... */\n    tag_284:\n        /* \"prueba.sol\":1235:1601  function sqrt(uint y) internal pure returns (uint z) {... */\n      swap2\n      swap1\n      pop\n      jump\t// out\n        /* \"#utility.yul\":7:133   */\n    tag_286:\n        /* \"#utility.yul\":44:51   */\n      0x00\n        /* \"#utility.yul\":84:126   */\n      0xffffffffffffffffffffffffffffffffffffffff\n        /* \"#utility.yul\":77:82   */\n      dup3\n        /* \"#utility.yul\":73:127   */\n      and\n        /* \"#utility.yul\":62:127   */\n      swap1\n      pop\n        /* \"#utility.yul\":7:133   */\n      swap2\n      swap1\n      pop\n      jump\t// out\n        /* \"#utility.yul\":139:235   */\n    tag_287:\n        /* \"#utility.yul\":176:183   */\n      0x00\n        /* \"#utility.yul\":205:229   */\n      tag_358\n        /* \"#utility.yul\":223:228   */\n      dup3\n        /* \"#utility.yul\":205:229   */\n      tag_286\n      jump\t// in\n    tag_358:\n        /* \"#utility.yul\":194:229   */\n      swap1\n      pop\n        /* \"#utility.yul\":139:235   */\n      swap2\n      swap1\n      pop\n      jump\t// out\n        /* \"#utility.yul\":241:359   */\n    tag_288:\n        /* \"#utility.yul\":328:352   */\n      tag_360\n        /* \"#utility.yul\":346:351   */\n      dup2\n        /* \"#utility.yul\":328:352   */\n      tag_287\n      jump\t// in\n    tag_360:\n        /* \"#utility.yul\":323:326   */\n      dup3\n        /* \"#utility.yul\":316:353   */\n      mstore\n        /* \"#utility.yul\":241:359   */\n      pop\n      pop\n      jump\t// out\n        /* \"#utility.yul\":365:587   */\n    tag_19:\n        /* \"#utility.yul\":458:462   */\n      0x00\n        /* \"#utility.yul\":496:498   */\n      0x20\n        /* \"#utility.yul\":485:494   */\n      dup3\n        /* \"#utility.yul\":481:499   */\n      add\n        /* \"#utility.yul\":473:499   */\n      swap1\n      pop\n        /* \"#utility.yul\":509:580   */\n      tag_362\n        /* \"#utility.yul\":577:578   */\n      0x00\n        /* \"#utility.yul\":566:575   */\n      dup4\n        /* \"#utility.yul\":562:579   */\n      add\n        /* \"#utility.yul\":553:559   */\n      dup5\n        /* \"#utility.yul\":509:580   */\n      tag_288\n      jump\t// in\n    tag_362:\n        /* \"#utility.yul\":365:587   */\n      swap3\n      swap2\n      pop\n      pop\n      jump\t// out\n        /* \"#utility.yul\":593:670   */\n    tag_289:\n        /* \"#utility.yul\":630:637   */\n      0x00\n        /* \"#utility.yul\":659:664   */\n      dup2\n        /* \"#utility.yul\":648:664   */\n      swap1\n      pop\n        /* \"#utility.yul\":593:670   */\n      swap2\n      swap1\n      pop\n      jump\t// out\n        /* \"#utility.yul\":676:794   */\n    tag_290:\n        /* \"#utility.yul\":763:787   */\n      tag_365\n        /* \"#utility.yul\":781:786   */\n      dup2\n        /* \"#utility.yul\":763:787   */\n      tag_289\n      jump\t// in\n    tag_365:\n        /* \"#utility.yul\":758:761   */\n      dup3\n        /* \"#utility.yul\":751:788   */\n      mstore\n        /* \"#utility.yul\":676:794   */\n      pop\n      pop\n      jump\t// out\n        /* \"#utility.yul\":800:1022   */\n    tag_23:\n        /* \"#utility.yul\":893:897   */\n      0x00\n        /* \"#utility.yul\":931:933   */\n      0x20\n        /* \"#utility.yul\":920:929   */\n      dup3\n        /* \"#utility.yul\":916:934   */\n      add\n        /* \"#utility.yul\":908:934   */\n      swap1\n      pop\n        /* \"#utility.yul\":944:1015   */\n      tag_367\n        /* \"#utility.yul\":1012:1013   */\n      0x00\n        /* \"#utility.yul\":1001:1010   */\n      dup4\n        /* \"#utility.yul\":997:1014   */\n      add\n        /* \"#utility.yul\":988:994   */\n      dup5\n        /* \"#utility.yul\":944:1015   */\n      tag_290\n      jump\t// in\n    tag_367:\n        /* \"#utility.yul\":800:1022   */\n      swap3\n      swap2\n      pop\n      pop\n      jump\t// out\n        /* \"#utility.yul\":1109:1226   */\n    tag_292:\n        /* \"#utility.yul\":1218:1219   */\n      0x00\n        /* \"#utility.yul\":1215:1216   */\n      0x00\n        /* \"#utility.yul\":1208:1220   */\n      revert\n        /* \"#utility.yul\":1232:1349   */\n    tag_293:\n        /* \"#utility.yul\":1341:1342   */\n      0x00\n        /* \"#utility.yul\":1338:1339   */\n      0x00\n        /* \"#utility.yul\":1331:1343   */\n      revert\n        /* \"#utility.yul\":1355:1477   */\n    tag_294:\n        /* \"#utility.yul\":1428:1452   */\n      tag_372\n        /* \"#utility.yul\":1446:1451   */\n      dup2\n        /* \"#utility.yul\":1428:1452   */\n      tag_289\n      jump\t// in\n    tag_372:\n        /* \"#utility.yul\":1421:1426   */\n      dup2\n        /* \"#utility.yul\":1418:1453   */\n      eq\n        /* \"#utility.yul\":1408:1471   */\n      tag_373\n      jumpi\n        /* \"#utility.yul\":1467:1468   */\n      0x00\n        /* \"#utility.yul\":1464:1465   */\n      0x00\n        /* \"#utility.yul\":1457:1469   */\n      revert\n        /* \"#utility.yul\":1408:1471   */\n    tag_373:\n        /* \"#utility.yul\":1355:1477   */\n      pop\n      jump\t// out\n        /* \"#utility.yul\":1483:1622   */\n    tag_295:\n        /* \"#utility.yul\":1529:1534   */\n      0x00\n        /* \"#utility.yul\":1567:1573   */\n      dup2\n        /* \"#utility.yul\":1554:1574   */\n      calldataload\n        /* \"#utility.yul\":1545:1574   */\n      swap1\n      pop\n        /* \"#utility.yul\":1583:1616   */\n      tag_375\n        /* \"#utility.yul\":1610:1615   */\n      dup2\n        /* \"#utility.yul\":1583:1616   */\n      tag_294\n      jump\t// in\n    tag_375:\n        /* \"#utility.yul\":1483:1622   */\n      swap3\n      swap2\n      pop\n      pop\n      jump\t// out\n        /* \"#utility.yul\":1628:1745   */\n    tag_296:\n        /* \"#utility.yul\":1737:1738   */\n      0x00\n        /* \"#utility.yul\":1734:1735   */\n      0x00\n        /* \"#utility.yul\":1727:1739   */\n      revert\n        /* \"#utility.yul\":1751:1868   */\n    tag_297:\n        /* \"#utility.yul\":1860:1861   */\n      0x00\n        /* \"#utility.yul\":1857:1858   */\n      0x00\n        /* \"#utility.yul\":1850:1862   */\n      revert\n        /* \"#utility.yul\":1874:1991   */\n    tag_298:\n        /* \"#utility.yul\":1983:1984   */\n      0x00\n        /* \"#utility.yul\":1980:1981   */\n      0x00\n        /* \"#utility.yul\":1973:1985   */\n      revert\n        /* \"#utility.yul\":2014:2582   */\n    tag_299:\n        /* \"#utility.yul\":2087:2095   */\n      0x00\n        /* \"#utility.yul\":2097:2103   */\n      0x00\n        /* \"#utility.yul\":2147:2150   */\n      dup4\n        /* \"#utility.yul\":2140:2144   */\n      0x1f\n        /* \"#utility.yul\":2132:2138   */\n      dup5\n        /* \"#utility.yul\":2128:2145   */\n      add\n        /* \"#utility.yul\":2124:2151   */\n      slt\n        /* \"#utility.yul\":2114:2236   */\n      tag_380\n      jumpi\n        /* \"#utility.yul\":2155:2234   */\n      tag_381\n      tag_296\n      jump\t// in\n    tag_381:\n        /* \"#utility.yul\":2114:2236   */\n    tag_380:\n        /* \"#utility.yul\":2268:2274   */\n      dup3\n        /* \"#utility.yul\":2255:2275   */\n      calldataload\n        /* \"#utility.yul\":2245:2275   */\n      swap1\n      pop\n        /* \"#utility.yul\":2298:2316   */\n      0xffffffffffffffff\n        /* \"#utility.yul\":2290:2296   */\n      dup2\n        /* \"#utility.yul\":2287:2317   */\n      gt\n        /* \"#utility.yul\":2284:2401   */\n      iszero\n      tag_382\n      jumpi\n        /* \"#utility.yul\":2320:2399   */\n      tag_383\n      tag_297\n      jump\t// in\n    tag_383:\n        /* \"#utility.yul\":2284:2401   */\n    tag_382:\n        /* \"#utility.yul\":2434:2438   */\n      0x20\n        /* \"#utility.yul\":2426:2432   */\n      dup4\n        /* \"#utility.yul\":2422:2439   */\n      add\n        /* \"#utility.yul\":2410:2439   */\n      swap2\n      pop\n        /* \"#utility.yul\":2488:2491   */\n      dup4\n        /* \"#utility.yul\":2480:2484   */\n      0x20\n        /* \"#utility.yul\":2472:2478   */\n      dup3\n        /* \"#utility.yul\":2468:2485   */\n      mul\n        /* \"#utility.yul\":2458:2466   */\n      dup4\n        /* \"#utility.yul\":2454:2486   */\n      add\n        /* \"#utility.yul\":2451:2492   */\n      gt\n        /* \"#utility.yul\":2448:2576   */\n      iszero\n      tag_384\n      jumpi\n        /* \"#utility.yul\":2495:2574   */\n      tag_385\n      tag_298\n      jump\t// in\n    tag_385:\n        /* \"#utility.yul\":2448:2576   */\n    tag_384:\n        /* \"#utility.yul\":2014:2582   */\n      swap3\n      pop\n      swap3\n      swap1\n      pop\n      jump\t// out\n        /* \"#utility.yul\":2588:2710   */\n    tag_300:\n        /* \"#utility.yul\":2661:2685   */\n      tag_387\n        /* \"#utility.yul\":2679:2684   */\n      dup2\n        /* \"#utility.yul\":2661:2685   */\n      tag_287\n      jump\t// in\n    tag_387:\n        /* \"#utility.yul\":2654:2659   */\n      dup2\n        /* \"#utility.yul\":2651:2686   */\n      eq\n        /* \"#utility.yul\":2641:2704   */\n      tag_388\n      jumpi\n        /* \"#utility.yul\":2700:2701   */\n      0x00\n        /* \"#utility.yul\":2697:2698   */\n      0x00\n        /* \"#utility.yul\":2690:2702   */\n      revert\n        /* \"#utility.yul\":2641:2704   */\n    tag_388:\n        /* \"#utility.yul\":2588:2710   */\n      pop\n      jump\t// out\n        /* \"#utility.yul\":2716:2855   */\n    tag_301:\n        /* \"#utility.yul\":2762:2767   */\n      0x00\n        /* \"#utility.yul\":2800:2806   */\n      dup2\n        /* \"#utility.yul\":2787:2807   */\n      calldataload\n        /* \"#utility.yul\":2778:2807   */\n      swap1\n      pop\n        /* \"#utility.yul\":2816:2849   */\n      tag_390\n        /* \"#utility.yul\":2843:2848   */\n      dup2\n        /* \"#utility.yul\":2816:2849   */\n      tag_300\n      jump\t// in\n    tag_390:\n        /* \"#utility.yul\":2716:2855   */\n      swap3\n      swap2\n      pop\n      pop\n      jump\t// out\n        /* \"#utility.yul\":2861:4002   */\n    tag_29:\n        /* \"#utility.yul\":2983:2989   */\n      0x00\n        /* \"#utility.yul\":2991:2997   */\n      0x00\n        /* \"#utility.yul\":2999:3005   */\n      0x00\n        /* \"#utility.yul\":3007:3013   */\n      0x00\n        /* \"#utility.yul\":3015:3021   */\n      0x00\n        /* \"#utility.yul\":3023:3029   */\n      0x00\n        /* \"#utility.yul\":3072:3075   */\n      0xa0\n        /* \"#utility.yul\":3060:3069   */\n      dup8\n        /* \"#utility.yul\":3051:3058   */\n      dup10\n        /* \"#utility.yul\":3047:3070   */\n      sub\n        /* \"#utility.yul\":3043:3076   */\n      slt\n        /* \"#utility.yul\":3040:3160   */\n      iszero\n      tag_392\n      jumpi\n        /* \"#utility.yul\":3079:3158   */\n      tag_393\n      tag_292\n      jump\t// in\n    tag_393:\n        /* \"#utility.yul\":3040:3160   */\n    tag_392:\n        /* \"#utility.yul\":3199:3200   */\n      0x00\n        /* \"#utility.yul\":3224:3277   */\n      tag_394\n        /* \"#utility.yul\":3269:3276   */\n      dup10\n        /* \"#utility.yul\":3260:3266   */\n      dup3\n        /* \"#utility.yul\":3249:3258   */\n      dup11\n        /* \"#utility.yul\":3245:3267   */\n      add\n        /* \"#utility.yul\":3224:3277   */\n      tag_295\n      jump\t// in\n    tag_394:\n        /* \"#utility.yul\":3214:3277   */\n      swap7\n      pop\n        /* \"#utility.yul\":3170:3287   */\n      pop\n        /* \"#utility.yul\":3326:3328   */\n      0x20\n        /* \"#utility.yul\":3352:3405   */\n      tag_395\n        /* \"#utility.yul\":3397:3404   */\n      dup10\n        /* \"#utility.yul\":3388:3394   */\n      dup3\n        /* \"#utility.yul\":3377:3386   */\n      dup11\n        /* \"#utility.yul\":3373:3395   */\n      add\n        /* \"#utility.yul\":3352:3405   */\n      tag_295\n      jump\t// in\n    tag_395:\n        /* \"#utility.yul\":3342:3405   */\n      swap6\n      pop\n        /* \"#utility.yul\":3297:3415   */\n      pop\n        /* \"#utility.yul\":3482:3484   */\n      0x40\n        /* \"#utility.yul\":3471:3480   */\n      dup8\n        /* \"#utility.yul\":3467:3485   */\n      add\n        /* \"#utility.yul\":3454:3486   */\n      calldataload\n        /* \"#utility.yul\":3513:3531   */\n      0xffffffffffffffff\n        /* \"#utility.yul\":3505:3511   */\n      dup2\n        /* \"#utility.yul\":3502:3532   */\n      gt\n        /* \"#utility.yul\":3499:3616   */\n      iszero\n      tag_396\n      jumpi\n        /* \"#utility.yul\":3535:3614   */\n      tag_397\n      tag_293\n      jump\t// in\n    tag_397:\n        /* \"#utility.yul\":3499:3616   */\n    tag_396:\n        /* \"#utility.yul\":3648:3728   */\n      tag_398\n        /* \"#utility.yul\":3720:3727   */\n      dup10\n        /* \"#utility.yul\":3711:3717   */\n      dup3\n        /* \"#utility.yul\":3700:3709   */\n      dup11\n        /* \"#utility.yul\":3696:3718   */\n      add\n        /* \"#utility.yul\":3648:3728   */\n      tag_299\n      jump\t// in\n    tag_398:\n        /* \"#utility.yul\":3630:3728   */\n      swap5\n      pop\n      swap5\n      pop\n        /* \"#utility.yul\":3425:3738   */\n      pop\n        /* \"#utility.yul\":3777:3779   */\n      0x60\n        /* \"#utility.yul\":3803:3856   */\n      tag_399\n        /* \"#utility.yul\":3848:3855   */\n      dup10\n        /* \"#utility.yul\":3839:3845   */\n      dup3\n        /* \"#utility.yul\":3828:3837   */\n      dup11\n        /* \"#utility.yul\":3824:3846   */\n      add\n        /* \"#utility.yul\":3803:3856   */\n      tag_301\n      jump\t// in\n    tag_399:\n        /* \"#utility.yul\":3793:3856   */\n      swap3\n      pop\n        /* \"#utility.yul\":3748:3866   */\n      pop\n        /* \"#utility.yul\":3905:3908   */\n      0x80\n        /* \"#utility.yul\":3932:3985   */\n      tag_400\n        /* \"#utility.yul\":3977:3984   */\n      dup10\n        /* \"#utility.yul\":3968:3974   */\n      dup3\n        /* \"#utility.yul\":3957:3966   */\n      dup11\n        /* \"#utility.yul\":3953:3975   */\n      add\n        /* \"#utility.yul\":3932:3985   */\n      tag_295\n      jump\t// in\n    tag_400:\n        /* \"#utility.yul\":3922:3985   */\n      swap2\n      pop\n        /* \"#utility.yul\":3876:3995   */\n      pop\n        /* \"#utility.yul\":2861:4002   */\n      swap3\n      swap6\n      pop\n      swap3\n      swap6\n      pop\n      swap3\n      swap6\n      jump\t// out\n        /* \"#utility.yul\":4008:4122   */\n    tag_302:\n        /* \"#utility.yul\":4075:4081   */\n      0x00\n        /* \"#utility.yul\":4109:4114   */\n      dup2\n        /* \"#utility.yul\":4103:4115   */\n      mload\n        /* \"#utility.yul\":4093:4115   */\n      swap1\n      pop\n        /* \"#utility.yul\":4008:4122   */\n      swap2\n      swap1\n      pop\n      jump\t// out\n        /* \"#utility.yul\":4128:4312   */\n    tag_303:\n        /* \"#utility.yul\":4227:4238   */\n      0x00\n        /* \"#utility.yul\":4261:4267   */\n      dup3\n        /* \"#utility.yul\":4256:4259   */\n      dup3\n        /* \"#utility.yul\":4249:4268   */\n      mstore\n        /* \"#utility.yul\":4301:4305   */\n      0x20\n        /* \"#utility.yul\":4296:4299   */\n      dup3\n        /* \"#utility.yul\":4292:4306   */\n      add\n        /* \"#utility.yul\":4277:4306   */\n      swap1\n      pop\n        /* \"#utility.yul\":4128:4312   */\n      swap3\n      swap2\n      pop\n      pop\n      jump\t// out\n        /* \"#utility.yul\":4318:4450   */\n    tag_304:\n        /* \"#utility.yul\":4385:4389   */\n      0x00\n        /* \"#utility.yul\":4408:4411   */\n      dup2\n        /* \"#utility.yul\":4400:4411   */\n      swap1\n      pop\n        /* \"#utility.yul\":4438:4442   */\n      0x20\n        /* \"#utility.yul\":4433:4436   */\n      dup3\n        /* \"#utility.yul\":4429:4443   */\n      add\n        /* \"#utility.yul\":4421:4443   */\n      swap1\n      pop\n        /* \"#utility.yul\":4318:4450   */\n      swap2\n      swap1\n      pop\n      jump\t// out\n        /* \"#utility.yul\":4456:4564   */\n    tag_305:\n        /* \"#utility.yul\":4533:4557   */\n      tag_405\n        /* \"#utility.yul\":4551:4556   */\n      dup2\n        /* \"#utility.yul\":4533:4557   */\n      tag_289\n      jump\t// in\n    tag_405:\n        /* \"#utility.yul\":4528:4531   */\n      dup3\n        /* \"#utility.yul\":4521:4558   */\n      mstore\n        /* \"#utility.yul\":4456:4564   */\n      pop\n      pop\n      jump\t// out\n        /* \"#utility.yul\":4570:4749   */\n    tag_306:\n        /* \"#utility.yul\":4639:4649   */\n      0x00\n        /* \"#utility.yul\":4660:4706   */\n      tag_407\n        /* \"#utility.yul\":4702:4705   */\n      dup4\n        /* \"#utility.yul\":4694:4700   */\n      dup4\n        /* \"#utility.yul\":4660:4706   */\n      tag_305\n      jump\t// in\n    tag_407:\n        /* \"#utility.yul\":4738:4742   */\n      0x20\n        /* \"#utility.yul\":4733:4736   */\n      dup4\n        /* \"#utility.yul\":4729:4743   */\n      add\n        /* \"#utility.yul\":4715:4743   */\n      swap1\n      pop\n        /* \"#utility.yul\":4570:4749   */\n      swap3\n      swap2\n      pop\n      pop\n      jump\t// out\n        /* \"#utility.yul\":4755:4868   */\n    tag_307:\n        /* \"#utility.yul\":4825:4829   */\n      0x00\n        /* \"#utility.yul\":4857:4861   */\n      0x20\n        /* \"#utility.yul\":4852:4855   */\n      dup3\n        /* \"#utility.yul\":4848:4862   */\n      add\n        /* \"#utility.yul\":4840:4862   */\n      swap1\n      pop\n        /* \"#utility.yul\":4755:4868   */\n      swap2\n      swap1\n      pop\n      jump\t// out\n        /* \"#utility.yul\":4904:5636   */\n    tag_308:\n        /* \"#utility.yul\":5023:5026   */\n      0x00\n        /* \"#utility.yul\":5052:5106   */\n      tag_410\n        /* \"#utility.yul\":5100:5105   */\n      dup3\n        /* \"#utility.yul\":5052:5106   */\n      tag_302\n      jump\t// in\n    tag_410:\n        /* \"#utility.yul\":5122:5208   */\n      tag_411\n        /* \"#utility.yul\":5201:5207   */\n      dup2\n        /* \"#utility.yul\":5196:5199   */\n      dup6\n        /* \"#utility.yul\":5122:5208   */\n      tag_303\n      jump\t// in\n    tag_411:\n        /* \"#utility.yul\":5115:5208   */\n      swap4\n      pop\n        /* \"#utility.yul\":5232:5288   */\n      tag_412\n        /* \"#utility.yul\":5282:5287   */\n      dup4\n        /* \"#utility.yul\":5232:5288   */\n      tag_304\n      jump\t// in\n    tag_412:\n        /* \"#utility.yul\":5311:5318   */\n      dup1\n        /* \"#utility.yul\":5342:5343   */\n      0x00\n        /* \"#utility.yul\":5327:5611   */\n    tag_413:\n        /* \"#utility.yul\":5352:5358   */\n      dup4\n        /* \"#utility.yul\":5349:5350   */\n      dup2\n        /* \"#utility.yul\":5346:5359   */\n      lt\n        /* \"#utility.yul\":5327:5611   */\n      iszero\n      tag_415\n      jumpi\n        /* \"#utility.yul\":5428:5434   */\n      dup2\n        /* \"#utility.yul\":5422:5435   */\n      mload\n        /* \"#utility.yul\":5455:5518   */\n      tag_416\n        /* \"#utility.yul\":5514:5517   */\n      dup9\n        /* \"#utility.yul\":5499:5512   */\n      dup3\n        /* \"#utility.yul\":5455:5518   */\n      tag_306\n      jump\t// in\n    tag_416:\n        /* \"#utility.yul\":5448:5518   */\n      swap8\n      pop\n        /* \"#utility.yul\":5541:5601   */\n      tag_417\n        /* \"#utility.yul\":5594:5600   */\n      dup4\n        /* \"#utility.yul\":5541:5601   */\n      tag_307\n      jump\t// in\n    tag_417:\n        /* \"#utility.yul\":5531:5601   */\n      swap3\n      pop\n        /* \"#utility.yul\":5387:5611   */\n      pop\n        /* \"#utility.yul\":5374:5375   */\n      0x01\n        /* \"#utility.yul\":5371:5372   */\n      dup2\n        /* \"#utility.yul\":5367:5376   */\n      add\n        /* \"#utility.yul\":5362:5376   */\n      swap1\n      pop\n        /* \"#utility.yul\":5327:5611   */\n      jump(tag_413)\n    tag_415:\n        /* \"#utility.yul\":5331:5345   */\n      pop\n        /* \"#utility.yul\":5627:5630   */\n      dup6\n        /* \"#utility.yul\":5620:5630   */\n      swap4\n      pop\n        /* \"#utility.yul\":5028:5636   */\n      pop\n      pop\n      pop\n        /* \"#utility.yul\":4904:5636   */\n      swap3\n      swap2\n      pop\n      pop\n      jump\t// out\n        /* \"#utility.yul\":5642:6015   */\n    tag_32:\n        /* \"#utility.yul\":5785:5789   */\n      0x00\n        /* \"#utility.yul\":5823:5825   */\n      0x20\n        /* \"#utility.yul\":5812:5821   */\n      dup3\n        /* \"#utility.yul\":5808:5826   */\n      add\n        /* \"#utility.yul\":5800:5826   */\n      swap1\n      pop\n        /* \"#utility.yul\":5872:5881   */\n      dup2\n        /* \"#utility.yul\":5866:5870   */\n      dup2\n        /* \"#utility.yul\":5862:5882   */\n      sub\n        /* \"#utility.yul\":5858:5859   */\n      0x00\n        /* \"#utility.yul\":5847:5856   */\n      dup4\n        /* \"#utility.yul\":5843:5860   */\n      add\n        /* \"#utility.yul\":5836:5883   */\n      mstore\n        /* \"#utility.yul\":5900:6008   */\n      tag_419\n        /* \"#utility.yul\":6003:6007   */\n      dup2\n        /* \"#utility.yul\":5994:6000   */\n      dup5\n        /* \"#utility.yul\":5900:6008   */\n      tag_308\n      jump\t// in\n    tag_419:\n        /* \"#utility.yul\":5892:6008   */\n      swap1\n      pop\n        /* \"#utility.yul\":5642:6015   */\n      swap3\n      swap2\n      pop\n      pop\n      jump\t// out\n        /* \"#utility.yul\":6021:6640   */\n    tag_35:\n        /* \"#utility.yul\":6098:6104   */\n      0x00\n        /* \"#utility.yul\":6106:6112   */\n      0x00\n        /* \"#utility.yul\":6114:6120   */\n      0x00\n        /* \"#utility.yul\":6163:6165   */\n      0x60\n        /* \"#utility.yul\":6151:6160   */\n      dup5\n        /* \"#utility.yul\":6142:6149   */\n      dup7\n        /* \"#utility.yul\":6138:6161   */\n      sub\n        /* \"#utility.yul\":6134:6166   */\n      slt\n        /* \"#utility.yul\":6131:6250   */\n      iszero\n      tag_421\n      jumpi\n        /* \"#utility.yul\":6169:6248   */\n      tag_422\n      tag_292\n      jump\t// in\n    tag_422:\n        /* \"#utility.yul\":6131:6250   */\n    tag_421:\n        /* \"#utility.yul\":6289:6290   */\n      0x00\n        /* \"#utility.yul\":6314:6367   */\n      tag_423\n        /* \"#utility.yul\":6359:6366   */\n      dup7\n        /* \"#utility.yul\":6350:6356   */\n      dup3\n        /* \"#utility.yul\":6339:6348   */\n      dup8\n        /* \"#utility.yul\":6335:6357   */\n      add\n        /* \"#utility.yul\":6314:6367   */\n      tag_301\n      jump\t// in\n    tag_423:\n        /* \"#utility.yul\":6304:6367   */\n      swap4\n      pop\n        /* \"#utility.yul\":6260:6377   */\n      pop\n        /* \"#utility.yul\":6416:6418   */\n      0x20\n        /* \"#utility.yul\":6442:6495   */\n      tag_424\n        /* \"#utility.yul\":6487:6494   */\n      dup7\n        /* \"#utility.yul\":6478:6484   */\n      dup3\n        /* \"#utility.yul\":6467:6476   */\n      dup8\n        /* \"#utility.yul\":6463:6485   */\n      add\n        /* \"#utility.yul\":6442:6495   */\n      tag_301\n      jump\t// in\n    tag_424:\n        /* \"#utility.yul\":6432:6495   */\n      swap3\n      pop\n        /* \"#utility.yul\":6387:6505   */\n      pop\n        /* \"#utility.yul\":6544:6546   */\n      0x40\n        /* \"#utility.yul\":6570:6623   */\n      tag_425\n        /* \"#utility.yul\":6615:6622   */\n      dup7\n        /* \"#utility.yul\":6606:6612   */\n      dup3\n        /* \"#utility.yul\":6595:6604   */\n      dup8\n        /* \"#utility.yul\":6591:6613   */\n      add\n        /* \"#utility.yul\":6570:6623   */\n      tag_295\n      jump\t// in\n    tag_425:\n        /* \"#utility.yul\":6560:6623   */\n      swap2\n      pop\n        /* \"#utility.yul\":6515:6633   */\n      pop\n        /* \"#utility.yul\":6021:6640   */\n      swap3\n      pop\n      swap3\n      pop\n      swap3\n      jump\t// out\n        /* \"#utility.yul\":6646:6706   */\n    tag_309:\n        /* \"#utility.yul\":6674:6677   */\n      0x00\n        /* \"#utility.yul\":6695:6700   */\n      dup2\n        /* \"#utility.yul\":6688:6700   */\n      swap1\n      pop\n        /* \"#utility.yul\":6646:6706   */\n      swap2\n      swap1\n      pop\n      jump\t// out\n        /* \"#utility.yul\":6712:6854   */\n    tag_310:\n        /* \"#utility.yul\":6762:6771   */\n      0x00\n        /* \"#utility.yul\":6795:6848   */\n      tag_428\n        /* \"#utility.yul\":6813:6847   */\n      tag_429\n        /* \"#utility.yul\":6822:6846   */\n      tag_430\n        /* \"#utility.yul\":6840:6845   */\n      dup5\n        /* \"#utility.yul\":6822:6846   */\n      tag_286\n      jump\t// in\n    tag_430:\n        /* \"#utility.yul\":6813:6847   */\n      tag_309\n      jump\t// in\n    tag_429:\n        /* \"#utility.yul\":6795:6848   */\n      tag_286\n      jump\t// in\n    tag_428:\n        /* \"#utility.yul\":6782:6848   */\n      swap1\n      pop\n        /* \"#utility.yul\":6712:6854   */\n      swap2\n      swap1\n      pop\n      jump\t// out\n        /* \"#utility.yul\":6860:6986   */\n    tag_311:\n        /* \"#utility.yul\":6910:6919   */\n      0x00\n        /* \"#utility.yul\":6943:6980   */\n      tag_432\n        /* \"#utility.yul\":6974:6979   */\n      dup3\n        /* \"#utility.yul\":6943:6980   */\n      tag_310\n      jump\t// in\n    tag_432:\n        /* \"#utility.yul\":6930:6980   */\n      swap1\n      pop\n        /* \"#utility.yul\":6860:6986   */\n      swap2\n      swap1\n      pop\n      jump\t// out\n        /* \"#utility.yul\":6992:7134   */\n    tag_312:\n        /* \"#utility.yul\":7058:7067   */\n      0x00\n        /* \"#utility.yul\":7091:7128   */\n      tag_434\n        /* \"#utility.yul\":7122:7127   */\n      dup3\n        /* \"#utility.yul\":7091:7128   */\n      tag_311\n      jump\t// in\n    tag_434:\n        /* \"#utility.yul\":7078:7128   */\n      swap1\n      pop\n        /* \"#utility.yul\":6992:7134   */\n      swap2\n      swap1\n      pop\n      jump\t// out\n        /* \"#utility.yul\":7140:7303   */\n    tag_313:\n        /* \"#utility.yul\":7243:7296   */\n      tag_436\n        /* \"#utility.yul\":7290:7295   */\n      dup2\n        /* \"#utility.yul\":7243:7296   */\n      tag_312\n      jump\t// in\n    tag_436:\n        /* \"#utility.yul\":7238:7241   */\n      dup3\n        /* \"#utility.yul\":7231:7297   */\n      mstore\n        /* \"#utility.yul\":7140:7303   */\n      pop\n      pop\n      jump\t// out\n        /* \"#utility.yul\":7309:7563   */\n    tag_44:\n        /* \"#utility.yul\":7418:7422   */\n      0x00\n        /* \"#utility.yul\":7456:7458   */\n      0x20\n        /* \"#utility.yul\":7445:7454   */\n      dup3\n        /* \"#utility.yul\":7441:7459   */\n      add\n        /* \"#utility.yul\":7433:7459   */\n      swap1\n      pop\n        /* \"#utility.yul\":7469:7556   */\n      tag_438\n        /* \"#utility.yul\":7553:7554   */\n      0x00\n        /* \"#utility.yul\":7542:7551   */\n      dup4\n        /* \"#utility.yul\":7538:7555   */\n      add\n        /* \"#utility.yul\":7529:7535   */\n      dup5\n        /* \"#utility.yul\":7469:7556   */\n      tag_313\n      jump\t// in\n    tag_438:\n        /* \"#utility.yul\":7309:7563   */\n      swap3\n      swap2\n      pop\n      pop\n      jump\t// out\n        /* \"#utility.yul\":7569:8043   */\n    tag_50:\n        /* \"#utility.yul\":7637:7643   */\n      0x00\n        /* \"#utility.yul\":7645:7651   */\n      0x00\n        /* \"#utility.yul\":7694:7696   */\n      0x40\n        /* \"#utility.yul\":7682:7691   */\n      dup4\n        /* \"#utility.yul\":7673:7680   */\n      dup6\n        /* \"#utility.yul\":7669:7692   */\n      sub\n        /* \"#utility.yul\":7665:7697   */\n      slt\n        /* \"#utility.yul\":7662:7781   */\n      iszero\n      tag_440\n      jumpi\n        /* \"#utility.yul\":7700:7779   */\n      tag_441\n      tag_292\n      jump\t// in\n    tag_441:\n        /* \"#utility.yul\":7662:7781   */\n    tag_440:\n        /* \"#utility.yul\":7820:7821   */\n      0x00\n        /* \"#utility.yul\":7845:7898   */\n      tag_442\n        /* \"#utility.yul\":7890:7897   */\n      dup6\n        /* \"#utility.yul\":7881:7887   */\n      dup3\n        /* \"#utility.yul\":7870:7879   */\n      dup7\n        /* \"#utility.yul\":7866:7888   */\n      add\n        /* \"#utility.yul\":7845:7898   */\n      tag_301\n      jump\t// in\n    tag_442:\n        /* \"#utility.yul\":7835:7898   */\n      swap3\n      pop\n        /* \"#utility.yul\":7791:7908   */\n      pop\n        /* \"#utility.yul\":7947:7949   */\n      0x20\n        /* \"#utility.yul\":7973:8026   */\n      tag_443\n        /* \"#utility.yul\":8018:8025   */\n      dup6\n        /* \"#utility.yul\":8009:8015   */\n      dup3\n        /* \"#utility.yul\":7998:8007   */\n      dup7\n        /* \"#utility.yul\":7994:8016   */\n      add\n        /* \"#utility.yul\":7973:8026   */\n      tag_301\n      jump\t// in\n    tag_443:\n        /* \"#utility.yul\":7963:8026   */\n      swap2\n      pop\n        /* \"#utility.yul\":7918:8036   */\n      pop\n        /* \"#utility.yul\":7569:8043   */\n      swap3\n      pop\n      swap3\n      swap1\n      pop\n      jump\t// out\n        /* \"#utility.yul\":8049:9106   */\n    tag_58:\n        /* \"#utility.yul\":8153:8159   */\n      0x00\n        /* \"#utility.yul\":8161:8167   */\n      0x00\n        /* \"#utility.yul\":8169:8175   */\n      0x00\n        /* \"#utility.yul\":8177:8183   */\n      0x00\n        /* \"#utility.yul\":8185:8191   */\n      0x00\n        /* \"#utility.yul\":8193:8199   */\n      0x00\n        /* \"#utility.yul\":8242:8245   */\n      0xc0\n        /* \"#utility.yul\":8230:8239   */\n      dup8\n        /* \"#utility.yul\":8221:8228   */\n      dup10\n        /* \"#utility.yul\":8217:8240   */\n      sub\n        /* \"#utility.yul\":8213:8246   */\n      slt\n        /* \"#utility.yul\":8210:8330   */\n      iszero\n      tag_445\n      jumpi\n        /* \"#utility.yul\":8249:8328   */\n      tag_446\n      tag_292\n      jump\t// in\n    tag_446:\n        /* \"#utility.yul\":8210:8330   */\n    tag_445:\n        /* \"#utility.yul\":8369:8370   */\n      0x00\n        /* \"#utility.yul\":8394:8447   */\n      tag_447\n        /* \"#utility.yul\":8439:8446   */\n      dup10\n        /* \"#utility.yul\":8430:8436   */\n      dup3\n        /* \"#utility.yul\":8419:8428   */\n      dup11\n        /* \"#utility.yul\":8415:8437   */\n      add\n        /* \"#utility.yul\":8394:8447   */\n      tag_295\n      jump\t// in\n    tag_447:\n        /* \"#utility.yul\":8384:8447   */\n      swap7\n      pop\n        /* \"#utility.yul\":8340:8457   */\n      pop\n        /* \"#utility.yul\":8496:8498   */\n      0x20\n        /* \"#utility.yul\":8522:8575   */\n      tag_448\n        /* \"#utility.yul\":8567:8574   */\n      dup10\n        /* \"#utility.yul\":8558:8564   */\n      dup3\n        /* \"#utility.yul\":8547:8556   */\n      dup11\n        /* \"#utility.yul\":8543:8565   */\n      add\n        /* \"#utility.yul\":8522:8575   */\n      tag_295\n      jump\t// in\n    tag_448:\n        /* \"#utility.yul\":8512:8575   */\n      swap6\n      pop\n        /* \"#utility.yul\":8467:8585   */\n      pop\n        /* \"#utility.yul\":8624:8626   */\n      0x40\n        /* \"#utility.yul\":8650:8703   */\n      tag_449\n        /* \"#utility.yul\":8695:8702   */\n      dup10\n        /* \"#utility.yul\":8686:8692   */\n      dup3\n        /* \"#utility.yul\":8675:8684   */\n      dup11\n        /* \"#utility.yul\":8671:8693   */\n      add\n        /* \"#utility.yul\":8650:8703   */\n      tag_295\n      jump\t// in\n    tag_449:\n        /* \"#utility.yul\":8640:8703   */\n      swap5\n      pop\n        /* \"#utility.yul\":8595:8713   */\n      pop\n        /* \"#utility.yul\":8752:8754   */\n      0x60\n        /* \"#utility.yul\":8778:8831   */\n      tag_450\n        /* \"#utility.yul\":8823:8830   */\n      dup10\n        /* \"#utility.yul\":8814:8820   */\n      dup3\n        /* \"#utility.yul\":8803:8812   */\n      dup11\n        /* \"#utility.yul\":8799:8821   */\n      add\n        /* \"#utility.yul\":8778:8831   */\n      tag_295\n      jump\t// in\n    tag_450:\n        /* \"#utility.yul\":8768:8831   */\n      swap4\n      pop\n        /* \"#utility.yul\":8723:8841   */\n      pop\n        /* \"#utility.yul\":8880:8883   */\n      0x80\n        /* \"#utility.yul\":8907:8960   */\n      tag_451\n        /* \"#utility.yul\":8952:8959   */\n      dup10\n        /* \"#utility.yul\":8943:8949   */\n      dup3\n        /* \"#utility.yul\":8932:8941   */\n      dup11\n        /* \"#utility.yul\":8928:8950   */\n      add\n        /* \"#utility.yul\":8907:8960   */\n      tag_301\n      jump\t// in\n    tag_451:\n        /* \"#utility.yul\":8897:8960   */\n      swap3\n      pop\n        /* \"#utility.yul\":8851:8970   */\n      pop\n        /* \"#utility.yul\":9009:9012   */\n      0xa0\n        /* \"#utility.yul\":9036:9089   */\n      tag_452\n        /* \"#utility.yul\":9081:9088   */\n      dup10\n        /* \"#utility.yul\":9072:9078   */\n      dup3\n        /* \"#utility.yul\":9061:9070   */\n      dup11\n        /* \"#utility.yul\":9057:9079   */\n      add\n        /* \"#utility.yul\":9036:9089   */\n      tag_295\n      jump\t// in\n    tag_452:\n        /* \"#utility.yul\":9026:9089   */\n      swap2\n      pop\n        /* \"#utility.yul\":8980:9099   */\n      pop\n        /* \"#utility.yul\":8049:9106   */\n      swap3\n      swap6\n      pop\n      swap3\n      swap6\n      pop\n      swap3\n      swap6\n      jump\t// out\n        /* \"#utility.yul\":9112:9554   */\n    tag_61:\n        /* \"#utility.yul\":9261:9265   */\n      0x00\n        /* \"#utility.yul\":9299:9301   */\n      0x60\n        /* \"#utility.yul\":9288:9297   */\n      dup3\n        /* \"#utility.yul\":9284:9302   */\n      add\n        /* \"#utility.yul\":9276:9302   */\n      swap1\n      pop\n        /* \"#utility.yul\":9312:9383   */\n      tag_454\n        /* \"#utility.yul\":9380:9381   */\n      0x00\n        /* \"#utility.yul\":9369:9378   */\n      dup4\n        /* \"#utility.yul\":9365:9382   */\n      add\n        /* \"#utility.yul\":9356:9362   */\n      dup7\n        /* \"#utility.yul\":9312:9383   */\n      tag_290\n      jump\t// in\n    tag_454:\n        /* \"#utility.yul\":9393:9465   */\n      tag_455\n        /* \"#utility.yul\":9461:9463   */\n      0x20\n        /* \"#utility.yul\":9450:9459   */\n      dup4\n        /* \"#utility.yul\":9446:9464   */\n      add\n        /* \"#utility.yul\":9437:9443   */\n      dup6\n        /* \"#utility.yul\":9393:9465   */\n      tag_290\n      jump\t// in\n    tag_455:\n        /* \"#utility.yul\":9475:9547   */\n      tag_456\n        /* \"#utility.yul\":9543:9545   */\n      0x40\n        /* \"#utility.yul\":9532:9541   */\n      dup4\n        /* \"#utility.yul\":9528:9546   */\n      add\n        /* \"#utility.yul\":9519:9525   */\n      dup5\n        /* \"#utility.yul\":9475:9547   */\n      tag_290\n      jump\t// in\n    tag_456:\n        /* \"#utility.yul\":9112:9554   */\n      swap5\n      swap4\n      pop\n      pop\n      pop\n      pop\n      jump\t// out\n        /* \"#utility.yul\":9560:10471   */\n    tag_64:\n        /* \"#utility.yul\":9655:9661   */\n      0x00\n        /* \"#utility.yul\":9663:9669   */\n      0x00\n        /* \"#utility.yul\":9671:9677   */\n      0x00\n        /* \"#utility.yul\":9679:9685   */\n      0x00\n        /* \"#utility.yul\":9687:9693   */\n      0x00\n        /* \"#utility.yul\":9736:9739   */\n      0xa0\n        /* \"#utility.yul\":9724:9733   */\n      dup7\n        /* \"#utility.yul\":9715:9722   */\n      dup9\n        /* \"#utility.yul\":9711:9734   */\n      sub\n        /* \"#utility.yul\":9707:9740   */\n      slt\n        /* \"#utility.yul\":9704:9824   */\n      iszero\n      tag_458\n      jumpi\n        /* \"#utility.yul\":9743:9822   */\n      tag_459\n      tag_292\n      jump\t// in\n    tag_459:\n        /* \"#utility.yul\":9704:9824   */\n    tag_458:\n        /* \"#utility.yul\":9863:9864   */\n      0x00\n        /* \"#utility.yul\":9888:9941   */\n      tag_460\n        /* \"#utility.yul\":9933:9940   */\n      dup9\n        /* \"#utility.yul\":9924:9930   */\n      dup3\n        /* \"#utility.yul\":9913:9922   */\n      dup10\n        /* \"#utility.yul\":9909:9931   */\n      add\n        /* \"#utility.yul\":9888:9941   */\n      tag_295\n      jump\t// in\n    tag_460:\n        /* \"#utility.yul\":9878:9941   */\n      swap6\n      pop\n        /* \"#utility.yul\":9834:9951   */\n      pop\n        /* \"#utility.yul\":9990:9992   */\n      0x20\n        /* \"#utility.yul\":10016:10069   */\n      tag_461\n        /* \"#utility.yul\":10061:10068   */\n      dup9\n        /* \"#utility.yul\":10052:10058   */\n      dup3\n        /* \"#utility.yul\":10041:10050   */\n      dup10\n        /* \"#utility.yul\":10037:10059   */\n      add\n        /* \"#utility.yul\":10016:10069   */\n      tag_295\n      jump\t// in\n    tag_461:\n        /* \"#utility.yul\":10006:10069   */\n      swap5\n      pop\n        /* \"#utility.yul\":9961:10079   */\n      pop\n        /* \"#utility.yul\":10118:10120   */\n      0x40\n        /* \"#utility.yul\":10144:10197   */\n      tag_462\n        /* \"#utility.yul\":10189:10196   */\n      dup9\n        /* \"#utility.yul\":10180:10186   */\n      dup3\n        /* \"#utility.yul\":10169:10178   */\n      dup10\n        /* \"#utility.yul\":10165:10187   */\n      add\n        /* \"#utility.yul\":10144:10197   */\n      tag_295\n      jump\t// in\n    tag_462:\n        /* \"#utility.yul\":10134:10197   */\n      swap4\n      pop\n        /* \"#utility.yul\":10089:10207   */\n      pop\n        /* \"#utility.yul\":10246:10248   */\n      0x60\n        /* \"#utility.yul\":10272:10325   */\n      tag_463\n        /* \"#utility.yul\":10317:10324   */\n      dup9\n        /* \"#utility.yul\":10308:10314   */\n      dup3\n        /* \"#utility.yul\":10297:10306   */\n      dup10\n        /* \"#utility.yul\":10293:10315   */\n      add\n        /* \"#utility.yul\":10272:10325   */\n      tag_301\n      jump\t// in\n    tag_463:\n        /* \"#utility.yul\":10262:10325   */\n      swap3\n      pop\n        /* \"#utility.yul\":10217:10335   */\n      pop\n        /* \"#utility.yul\":10374:10377   */\n      0x80\n        /* \"#utility.yul\":10401:10454   */\n      tag_464\n        /* \"#utility.yul\":10446:10453   */\n      dup9\n        /* \"#utility.yul\":10437:10443   */\n      dup3\n        /* \"#utility.yul\":10426:10435   */\n      dup10\n        /* \"#utility.yul\":10422:10444   */\n      add\n        /* \"#utility.yul\":10401:10454   */\n      tag_295\n      jump\t// in\n    tag_464:\n        /* \"#utility.yul\":10391:10454   */\n      swap2\n      pop\n        /* \"#utility.yul\":10345:10464   */\n      pop\n        /* \"#utility.yul\":9560:10471   */\n      swap3\n      swap6\n      pop\n      swap3\n      swap6\n      swap1\n      swap4\n      pop\n      jump\t// out\n        /* \"#utility.yul\":10477:10809   */\n    tag_67:\n        /* \"#utility.yul\":10598:10602   */\n      0x00\n        /* \"#utility.yul\":10636:10638   */\n      0x40\n        /* \"#utility.yul\":10625:10634   */\n      dup3\n        /* \"#utility.yul\":10621:10639   */\n      add\n        /* \"#utility.yul\":10613:10639   */\n      swap1\n      pop\n        /* \"#utility.yul\":10649:10720   */\n      tag_466\n        /* \"#utility.yul\":10717:10718   */\n      0x00\n        /* \"#utility.yul\":10706:10715   */\n      dup4\n        /* \"#utility.yul\":10702:10719   */\n      add\n        /* \"#utility.yul\":10693:10699   */\n      dup6\n        /* \"#utility.yul\":10649:10720   */\n      tag_290\n      jump\t// in\n    tag_466:\n        /* \"#utility.yul\":10730:10802   */\n      tag_467\n        /* \"#utility.yul\":10798:10800   */\n      0x20\n        /* \"#utility.yul\":10787:10796   */\n      dup4\n        /* \"#utility.yul\":10783:10801   */\n      add\n        /* \"#utility.yul\":10774:10780   */\n      dup5\n        /* \"#utility.yul\":10730:10802   */\n      tag_290\n      jump\t// in\n    tag_467:\n        /* \"#utility.yul\":10477:10809   */\n      swap4\n      swap3\n      pop\n      pop\n      pop\n      jump\t// out\n        /* \"#utility.yul\":10815:10995   */\n    tag_314:\n        /* \"#utility.yul\":10863:10940   */\n      0x4e487b7100000000000000000000000000000000000000000000000000000000\n        /* \"#utility.yul\":10860:10861   */\n      0x00\n        /* \"#utility.yul\":10853:10941   */\n      mstore\n        /* \"#utility.yul\":10960:10964   */\n      0x11\n        /* \"#utility.yul\":10957:10958   */\n      0x04\n        /* \"#utility.yul\":10950:10965   */\n      mstore\n        /* \"#utility.yul\":10984:10988   */\n      0x24\n        /* \"#utility.yul\":10981:10982   */\n      0x00\n        /* \"#utility.yul\":10974:10989   */\n      revert\n        /* \"#utility.yul\":11001:11411   */\n    tag_71:\n        /* \"#utility.yul\":11041:11048   */\n      0x00\n        /* \"#utility.yul\":11064:11084   */\n      tag_470\n        /* \"#utility.yul\":11082:11083   */\n      dup3\n        /* \"#utility.yul\":11064:11084   */\n      tag_289\n      jump\t// in\n    tag_470:\n        /* \"#utility.yul\":11059:11084   */\n      swap2\n      pop\n        /* \"#utility.yul\":11098:11118   */\n      tag_471\n        /* \"#utility.yul\":11116:11117   */\n      dup4\n        /* \"#utility.yul\":11098:11118   */\n      tag_289\n      jump\t// in\n    tag_471:\n        /* \"#utility.yul\":11093:11118   */\n      swap3\n      pop\n        /* \"#utility.yul\":11153:11154   */\n      dup3\n        /* \"#utility.yul\":11150:11151   */\n      dup3\n        /* \"#utility.yul\":11146:11155   */\n      mul\n        /* \"#utility.yul\":11175:11205   */\n      tag_472\n        /* \"#utility.yul\":11193:11204   */\n      dup2\n        /* \"#utility.yul\":11175:11205   */\n      tag_289\n      jump\t// in\n    tag_472:\n        /* \"#utility.yul\":11164:11205   */\n      swap2\n      pop\n        /* \"#utility.yul\":11354:11355   */\n      dup3\n        /* \"#utility.yul\":11345:11352   */\n      dup3\n        /* \"#utility.yul\":11341:11356   */\n      div\n        /* \"#utility.yul\":11338:11339   */\n      dup5\n        /* \"#utility.yul\":11335:11357   */\n      eq\n        /* \"#utility.yul\":11315:11316   */\n      dup4\n        /* \"#utility.yul\":11308:11317   */\n      iszero\n        /* \"#utility.yul\":11288:11371   */\n      or\n        /* \"#utility.yul\":11265:11404   */\n      tag_473\n      jumpi\n        /* \"#utility.yul\":11384:11402   */\n      tag_474\n      tag_314\n      jump\t// in\n    tag_474:\n        /* \"#utility.yul\":11265:11404   */\n    tag_473:\n        /* \"#utility.yul\":11049:11411   */\n      pop\n        /* \"#utility.yul\":11001:11411   */\n      swap3\n      swap2\n      pop\n      pop\n      jump\t// out\n        /* \"#utility.yul\":11417:11586   */\n    tag_315:\n        /* \"#utility.yul\":11501:11512   */\n      0x00\n        /* \"#utility.yul\":11535:11541   */\n      dup3\n        /* \"#utility.yul\":11530:11533   */\n      dup3\n        /* \"#utility.yul\":11523:11542   */\n      mstore\n        /* \"#utility.yul\":11575:11579   */\n      0x20\n        /* \"#utility.yul\":11570:11573   */\n      dup3\n        /* \"#utility.yul\":11566:11580   */\n      add\n        /* \"#utility.yul\":11551:11580   */\n      swap1\n      pop\n        /* \"#utility.yul\":11417:11586   */\n      swap3\n      swap2\n      pop\n      pop\n      jump\t// out\n        /* \"#utility.yul\":11592:11761   */\n    tag_316:\n        /* \"#utility.yul\":11732:11753   */\n      0x5472616e73616374696f6e206578706972656400000000000000000000000000\n        /* \"#utility.yul\":11728:11729   */\n      0x00\n        /* \"#utility.yul\":11720:11726   */\n      dup3\n        /* \"#utility.yul\":11716:11730   */\n      add\n        /* \"#utility.yul\":11709:11754   */\n      mstore\n        /* \"#utility.yul\":11592:11761   */\n      pop\n      jump\t// out\n        /* \"#utility.yul\":11767:12133   */\n    tag_317:\n        /* \"#utility.yul\":11909:11912   */\n      0x00\n        /* \"#utility.yul\":11930:11997   */\n      tag_478\n        /* \"#utility.yul\":11994:11996   */\n      0x13\n        /* \"#utility.yul\":11989:11992   */\n      dup4\n        /* \"#utility.yul\":11930:11997   */\n      tag_315\n      jump\t// in\n    tag_478:\n        /* \"#utility.yul\":11923:11997   */\n      swap2\n      pop\n        /* \"#utility.yul\":12006:12099   */\n      tag_479\n        /* \"#utility.yul\":12095:12098   */\n      dup3\n        /* \"#utility.yul\":12006:12099   */\n      tag_316\n      jump\t// in\n    tag_479:\n        /* \"#utility.yul\":12124:12126   */\n      0x20\n        /* \"#utility.yul\":12119:12122   */\n      dup3\n        /* \"#utility.yul\":12115:12127   */\n      add\n        /* \"#utility.yul\":12108:12127   */\n      swap1\n      pop\n        /* \"#utility.yul\":11767:12133   */\n      swap2\n      swap1\n      pop\n      jump\t// out\n        /* \"#utility.yul\":12139:12558   */\n    tag_76:\n        /* \"#utility.yul\":12305:12309   */\n      0x00\n        /* \"#utility.yul\":12343:12345   */\n      0x20\n        /* \"#utility.yul\":12332:12341   */\n      dup3\n        /* \"#utility.yul\":12328:12346   */\n      add\n        /* \"#utility.yul\":12320:12346   */\n      swap1\n      pop\n        /* \"#utility.yul\":12392:12401   */\n      dup2\n        /* \"#utility.yul\":12386:12390   */\n      dup2\n        /* \"#utility.yul\":12382:12402   */\n      sub\n        /* \"#utility.yul\":12378:12379   */\n      0x00\n        /* \"#utility.yul\":12367:12376   */\n      dup4\n        /* \"#utility.yul\":12363:12380   */\n      add\n        /* \"#utility.yul\":12356:12403   */\n      mstore\n        /* \"#utility.yul\":12420:12551   */\n      tag_481\n        /* \"#utility.yul\":12546:12550   */\n      dup2\n        /* \"#utility.yul\":12420:12551   */\n      tag_317\n      jump\t// in\n    tag_481:\n        /* \"#utility.yul\":12412:12551   */\n      swap1\n      pop\n        /* \"#utility.yul\":12139:12558   */\n      swap2\n      swap1\n      pop\n      jump\t// out\n        /* \"#utility.yul\":12564:12784   */\n    tag_318:\n        /* \"#utility.yul\":12704:12738   */\n      0x4f6e6c792064697265637420746f6b656e20737761707320737570706f727465\n        /* \"#utility.yul\":12700:12701   */\n      0x00\n        /* \"#utility.yul\":12692:12698   */\n      dup3\n        /* \"#utility.yul\":12688:12702   */\n      add\n        /* \"#utility.yul\":12681:12739   */\n      mstore\n        /* \"#utility.yul\":12773:12776   */\n      0x6400000000000000000000000000000000000000000000000000000000000000\n        /* \"#utility.yul\":12768:12770   */\n      0x20\n        /* \"#utility.yul\":12760:12766   */\n      dup3\n        /* \"#utility.yul\":12756:12771   */\n      add\n        /* \"#utility.yul\":12749:12777   */\n      mstore\n        /* \"#utility.yul\":12564:12784   */\n      pop\n      jump\t// out\n        /* \"#utility.yul\":12790:13156   */\n    tag_319:\n        /* \"#utility.yul\":12932:12935   */\n      0x00\n        /* \"#utility.yul\":12953:13020   */\n      tag_484\n        /* \"#utility.yul\":13017:13019   */\n      0x21\n        /* \"#utility.yul\":13012:13015   */\n      dup4\n        /* \"#utility.yul\":12953:13020   */\n      tag_315\n      jump\t// in\n    tag_484:\n        /* \"#utility.yul\":12946:13020   */\n      swap2\n      pop\n        /* \"#utility.yul\":13029:13122   */\n      tag_485\n        /* \"#utility.yul\":13118:13121   */\n      dup3\n        /* \"#utility.yul\":13029:13122   */\n      tag_318\n      jump\t// in\n    tag_485:\n        /* \"#utility.yul\":13147:13149   */\n      0x40\n        /* \"#utility.yul\":13142:13145   */\n      dup3\n        /* \"#utility.yul\":13138:13150   */\n      add\n        /* \"#utility.yul\":13131:13150   */\n      swap1\n      pop\n        /* \"#utility.yul\":12790:13156   */\n      swap2\n      swap1\n      pop\n      jump\t// out\n        /* \"#utility.yul\":13162:13581   */\n    tag_79:\n        /* \"#utility.yul\":13328:13332   */\n      0x00\n        /* \"#utility.yul\":13366:13368   */\n      0x20\n        /* \"#utility.yul\":13355:13364   */\n      dup3\n        /* \"#utility.yul\":13351:13369   */\n      add\n        /* \"#utility.yul\":13343:13369   */\n      swap1\n      pop\n        /* \"#utility.yul\":13415:13424   */\n      dup2\n        /* \"#utility.yul\":13409:13413   */\n      dup2\n        /* \"#utility.yul\":13405:13425   */\n      sub\n        /* \"#utility.yul\":13401:13402   */\n      0x00\n        /* \"#utility.yul\":13390:13399   */\n      dup4\n        /* \"#utility.yul\":13386:13403   */\n      add\n        /* \"#utility.yul\":13379:13426   */\n      mstore\n        /* \"#utility.yul\":13443:13574   */\n      tag_487\n        /* \"#utility.yul\":13569:13573   */\n      dup2\n        /* \"#utility.yul\":13443:13574   */\n      tag_319\n      jump\t// in\n    tag_487:\n        /* \"#utility.yul\":13435:13574   */\n      swap1\n      pop\n        /* \"#utility.yul\":13162:13581   */\n      swap2\n      swap1\n      pop\n      jump\t// out\n        /* \"#utility.yul\":13587:13767   */\n    tag_82:\n        /* \"#utility.yul\":13635:13712   */\n      0x4e487b7100000000000000000000000000000000000000000000000000000000\n        /* \"#utility.yul\":13632:13633   */\n      0x00\n        /* \"#utility.yul\":13625:13713   */\n      mstore\n        /* \"#utility.yul\":13732:13736   */\n      0x32\n        /* \"#utility.yul\":13729:13730   */\n      0x04\n        /* \"#utility.yul\":13722:13737   */\n      mstore\n        /* \"#utility.yul\":13756:13760   */\n      0x24\n        /* \"#utility.yul\":13753:13754   */\n      0x00\n        /* \"#utility.yul\":13746:13761   */\n      revert\n        /* \"#utility.yul\":13773:14102   */\n    tag_84:\n        /* \"#utility.yul\":13832:13838   */\n      0x00\n        /* \"#utility.yul\":13881:13883   */\n      0x20\n        /* \"#utility.yul\":13869:13878   */\n      dup3\n        /* \"#utility.yul\":13860:13867   */\n      dup5\n        /* \"#utility.yul\":13856:13879   */\n      sub\n        /* \"#utility.yul\":13852:13884   */\n      slt\n        /* \"#utility.yul\":13849:13968   */\n      iszero\n      tag_490\n      jumpi\n        /* \"#utility.yul\":13887:13966   */\n      tag_491\n      tag_292\n      jump\t// in\n    tag_491:\n        /* \"#utility.yul\":13849:13968   */\n    tag_490:\n        /* \"#utility.yul\":14007:14008   */\n      0x00\n        /* \"#utility.yul\":14032:14085   */\n      tag_492\n        /* \"#utility.yul\":14077:14084   */\n      dup5\n        /* \"#utility.yul\":14068:14074   */\n      dup3\n        /* \"#utility.yul\":14057:14066   */\n      dup6\n        /* \"#utility.yul\":14053:14075   */\n      add\n        /* \"#utility.yul\":14032:14085   */\n      tag_301\n      jump\t// in\n    tag_492:\n        /* \"#utility.yul\":14022:14085   */\n      swap2\n      pop\n        /* \"#utility.yul\":13978:14095   */\n      pop\n        /* \"#utility.yul\":13773:14102   */\n      swap3\n      swap2\n      pop\n      pop\n      jump\t// out\n        /* \"#utility.yul\":14108:14276   */\n    tag_320:\n        /* \"#utility.yul\":14248:14268   */\n      0x496e76616c696420746f6b656e20706174680000000000000000000000000000\n        /* \"#utility.yul\":14244:14245   */\n      0x00\n        /* \"#utility.yul\":14236:14242   */\n      dup3\n        /* \"#utility.yul\":14232:14246   */\n      add\n        /* \"#utility.yul\":14225:14269   */\n      mstore\n        /* \"#utility.yul\":14108:14276   */\n      pop\n      jump\t// out\n        /* \"#utility.yul\":14282:14648   */\n    tag_321:\n        /* \"#utility.yul\":14424:14427   */\n      0x00\n        /* \"#utility.yul\":14445:14512   */\n      tag_495\n        /* \"#utility.yul\":14509:14511   */\n      0x12\n        /* \"#utility.yul\":14504:14507   */\n      dup4\n        /* \"#utility.yul\":14445:14512   */\n      tag_315\n      jump\t// in\n    tag_495:\n        /* \"#utility.yul\":14438:14512   */\n      swap2\n      pop\n        /* \"#utility.yul\":14521:14614   */\n      tag_496\n        /* \"#utility.yul\":14610:14613   */\n      dup3\n        /* \"#utility.yul\":14521:14614   */\n      tag_320\n      jump\t// in\n    tag_496:\n        /* \"#utility.yul\":14639:14641   */\n      0x20\n        /* \"#utility.yul\":14634:14637   */\n      dup3\n        /* \"#utility.yul\":14630:14642   */\n      add\n        /* \"#utility.yul\":14623:14642   */\n      swap1\n      pop\n        /* \"#utility.yul\":14282:14648   */\n      swap2\n      swap1\n      pop\n      jump\t// out\n        /* \"#utility.yul\":14654:15073   */\n    tag_93:\n        /* \"#utility.yul\":14820:14824   */\n      0x00\n        /* \"#utility.yul\":14858:14860   */\n      0x20\n        /* \"#utility.yul\":14847:14856   */\n      dup3\n        /* \"#utility.yul\":14843:14861   */\n      add\n        /* \"#utility.yul\":14835:14861   */\n      swap1\n      pop\n        /* \"#utility.yul\":14907:14916   */\n      dup2\n        /* \"#utility.yul\":14901:14905   */\n      dup2\n        /* \"#utility.yul\":14897:14917   */\n      sub\n        /* \"#utility.yul\":14893:14894   */\n      0x00\n        /* \"#utility.yul\":14882:14891   */\n      dup4\n        /* \"#utility.yul\":14878:14895   */\n      add\n        /* \"#utility.yul\":14871:14918   */\n      mstore\n        /* \"#utility.yul\":14935:15066   */\n      tag_498\n        /* \"#utility.yul\":15061:15065   */\n      dup2\n        /* \"#utility.yul\":14935:15066   */\n      tag_321\n      jump\t// in\n    tag_498:\n        /* \"#utility.yul\":14927:15066   */\n      swap1\n      pop\n        /* \"#utility.yul\":14654:15073   */\n      swap2\n      swap1\n      pop\n      jump\t// out\n        /* \"#utility.yul\":15079:15521   */\n    tag_95:\n        /* \"#utility.yul\":15228:15232   */\n      0x00\n        /* \"#utility.yul\":15266:15268   */\n      0x60\n        /* \"#utility.yul\":15255:15264   */\n      dup3\n        /* \"#utility.yul\":15251:15269   */\n      add\n        /* \"#utility.yul\":15243:15269   */\n      swap1\n      pop\n        /* \"#utility.yul\":15279:15350   */\n      tag_500\n        /* \"#utility.yul\":15347:15348   */\n      0x00\n        /* \"#utility.yul\":15336:15345   */\n      dup4\n        /* \"#utility.yul\":15332:15349   */\n      add\n        /* \"#utility.yul\":15323:15329   */\n      dup7\n        /* \"#utility.yul\":15279:15350   */\n      tag_288\n      jump\t// in\n    tag_500:\n        /* \"#utility.yul\":15360:15432   */\n      tag_501\n        /* \"#utility.yul\":15428:15430   */\n      0x20\n        /* \"#utility.yul\":15417:15426   */\n      dup4\n        /* \"#utility.yul\":15413:15431   */\n      add\n        /* \"#utility.yul\":15404:15410   */\n      dup6\n        /* \"#utility.yul\":15360:15432   */\n      tag_288\n      jump\t// in\n    tag_501:\n        /* \"#utility.yul\":15442:15514   */\n      tag_502\n        /* \"#utility.yul\":15510:15512   */\n      0x40\n        /* \"#utility.yul\":15499:15508   */\n      dup4\n        /* \"#utility.yul\":15495:15513   */\n      add\n        /* \"#utility.yul\":15486:15492   */\n      dup5\n        /* \"#utility.yul\":15442:15514   */\n      tag_290\n      jump\t// in\n    tag_502:\n        /* \"#utility.yul\":15079:15521   */\n      swap5\n      swap4\n      pop\n      pop\n      pop\n      pop\n      jump\t// out\n        /* \"#utility.yul\":15527:15617   */\n    tag_322:\n        /* \"#utility.yul\":15561:15568   */\n      0x00\n        /* \"#utility.yul\":15604:15609   */\n      dup2\n        /* \"#utility.yul\":15597:15610   */\n      iszero\n        /* \"#utility.yul\":15590:15611   */\n      iszero\n        /* \"#utility.yul\":15579:15611   */\n      swap1\n      pop\n        /* \"#utility.yul\":15527:15617   */\n      swap2\n      swap1\n      pop\n      jump\t// out\n        /* \"#utility.yul\":15623:15739   */\n    tag_323:\n        /* \"#utility.yul\":15693:15714   */\n      tag_505\n        /* \"#utility.yul\":15708:15713   */\n      dup2\n        /* \"#utility.yul\":15693:15714   */\n      tag_322\n      jump\t// in\n    tag_505:\n        /* \"#utility.yul\":15686:15691   */\n      dup2\n        /* \"#utility.yul\":15683:15715   */\n      eq\n        /* \"#utility.yul\":15673:15733   */\n      tag_506\n      jumpi\n        /* \"#utility.yul\":15729:15730   */\n      0x00\n        /* \"#utility.yul\":15726:15727   */\n      0x00\n        /* \"#utility.yul\":15719:15731   */\n      revert\n        /* \"#utility.yul\":15673:15733   */\n    tag_506:\n        /* \"#utility.yul\":15623:15739   */\n      pop\n      jump\t// out\n        /* \"#utility.yul\":15745:15882   */\n    tag_324:\n        /* \"#utility.yul\":15799:15804   */\n      0x00\n        /* \"#utility.yul\":15830:15836   */\n      dup2\n        /* \"#utility.yul\":15824:15837   */\n      mload\n        /* \"#utility.yul\":15815:15837   */\n      swap1\n      pop\n        /* \"#utility.yul\":15846:15876   */\n      tag_508\n        /* \"#utility.yul\":15870:15875   */\n      dup2\n        /* \"#utility.yul\":15846:15876   */\n      tag_323\n      jump\t// in\n    tag_508:\n        /* \"#utility.yul\":15745:15882   */\n      swap3\n      swap2\n      pop\n      pop\n      jump\t// out\n        /* \"#utility.yul\":15888:16233   */\n    tag_99:\n        /* \"#utility.yul\":15955:15961   */\n      0x00\n        /* \"#utility.yul\":16004:16006   */\n      0x20\n        /* \"#utility.yul\":15992:16001   */\n      dup3\n        /* \"#utility.yul\":15983:15990   */\n      dup5\n        /* \"#utility.yul\":15979:16002   */\n      sub\n        /* \"#utility.yul\":15975:16007   */\n      slt\n        /* \"#utility.yul\":15972:16091   */\n      iszero\n      tag_510\n      jumpi\n        /* \"#utility.yul\":16010:16089   */\n      tag_511\n      tag_292\n      jump\t// in\n    tag_511:\n        /* \"#utility.yul\":15972:16091   */\n    tag_510:\n        /* \"#utility.yul\":16130:16131   */\n      0x00\n        /* \"#utility.yul\":16155:16216   */\n      tag_512\n        /* \"#utility.yul\":16208:16215   */\n      dup5\n        /* \"#utility.yul\":16199:16205   */\n      dup3\n        /* \"#utility.yul\":16188:16197   */\n      dup6\n        /* \"#utility.yul\":16184:16206   */\n      add\n        /* \"#utility.yul\":16155:16216   */\n      tag_324\n      jump\t// in\n    tag_512:\n        /* \"#utility.yul\":16145:16216   */\n      swap2\n      pop\n        /* \"#utility.yul\":16101:16226   */\n      pop\n        /* \"#utility.yul\":15888:16233   */\n      swap3\n      swap2\n      pop\n      pop\n      jump\t// out\n        /* \"#utility.yul\":16239:16408   */\n    tag_325:\n        /* \"#utility.yul\":16379:16400   */\n      0x5472616e7366657246726f6d206661696c656400000000000000000000000000\n        /* \"#utility.yul\":16375:16376   */\n      0x00\n        /* \"#utility.yul\":16367:16373   */\n      dup3\n        /* \"#utility.yul\":16363:16377   */\n      add\n        /* \"#utility.yul\":16356:16401   */\n      mstore\n        /* \"#utility.yul\":16239:16408   */\n      pop\n      jump\t// out\n        /* \"#utility.yul\":16414:16780   */\n    tag_326:\n        /* \"#utility.yul\":16556:16559   */\n      0x00\n        /* \"#utility.yul\":16577:16644   */\n      tag_515\n        /* \"#utility.yul\":16641:16643   */\n      0x13\n        /* \"#utility.yul\":16636:16639   */\n      dup4\n        /* \"#utility.yul\":16577:16644   */\n      tag_315\n      jump\t// in\n    tag_515:\n        /* \"#utility.yul\":16570:16644   */\n      swap2\n      pop\n        /* \"#utility.yul\":16653:16746   */\n      tag_516\n        /* \"#utility.yul\":16742:16745   */\n      dup3\n        /* \"#utility.yul\":16653:16746   */\n      tag_325\n      jump\t// in\n    tag_516:\n        /* \"#utility.yul\":16771:16773   */\n      0x20\n        /* \"#utility.yul\":16766:16769   */\n      dup3\n        /* \"#utility.yul\":16762:16774   */\n      add\n        /* \"#utility.yul\":16755:16774   */\n      swap1\n      pop\n        /* \"#utility.yul\":16414:16780   */\n      swap2\n      swap1\n      pop\n      jump\t// out\n        /* \"#utility.yul\":16786:17205   */\n    tag_102:\n        /* \"#utility.yul\":16952:16956   */\n      0x00\n        /* \"#utility.yul\":16990:16992   */\n      0x20\n        /* \"#utility.yul\":16979:16988   */\n      dup3\n        /* \"#utility.yul\":16975:16993   */\n      add\n        /* \"#utility.yul\":16967:16993   */\n      swap1\n      pop\n        /* \"#utility.yul\":17039:17048   */\n      dup2\n        /* \"#utility.yul\":17033:17037   */\n      dup2\n        /* \"#utility.yul\":17029:17049   */\n      sub\n        /* \"#utility.yul\":17025:17026   */\n      0x00\n        /* \"#utility.yul\":17014:17023   */\n      dup4\n        /* \"#utility.yul\":17010:17027   */\n      add\n        /* \"#utility.yul\":17003:17050   */\n      mstore\n        /* \"#utility.yul\":17067:17198   */\n      tag_518\n        /* \"#utility.yul\":17193:17197   */\n      dup2\n        /* \"#utility.yul\":17067:17198   */\n      tag_326\n      jump\t// in\n    tag_518:\n        /* \"#utility.yul\":17059:17198   */\n      swap1\n      pop\n        /* \"#utility.yul\":16786:17205   */\n      swap2\n      swap1\n      pop\n      jump\t// out\n        /* \"#utility.yul\":17211:17402   */\n    tag_108:\n        /* \"#utility.yul\":17251:17254   */\n      0x00\n        /* \"#utility.yul\":17270:17290   */\n      tag_520\n        /* \"#utility.yul\":17288:17289   */\n      dup3\n        /* \"#utility.yul\":17270:17290   */\n      tag_289\n      jump\t// in\n    tag_520:\n        /* \"#utility.yul\":17265:17290   */\n      swap2\n      pop\n        /* \"#utility.yul\":17304:17324   */\n      tag_521\n        /* \"#utility.yul\":17322:17323   */\n      dup4\n        /* \"#utility.yul\":17304:17324   */\n      tag_289\n      jump\t// in\n    tag_521:\n        /* \"#utility.yul\":17299:17324   */\n      swap3\n      pop\n        /* \"#utility.yul\":17347:17348   */\n      dup3\n        /* \"#utility.yul\":17344:17345   */\n      dup3\n        /* \"#utility.yul\":17340:17349   */\n      add\n        /* \"#utility.yul\":17333:17349   */\n      swap1\n      pop\n        /* \"#utility.yul\":17368:17371   */\n      dup1\n        /* \"#utility.yul\":17365:17366   */\n      dup3\n        /* \"#utility.yul\":17362:17372   */\n      gt\n        /* \"#utility.yul\":17359:17395   */\n      iszero\n      tag_522\n      jumpi\n        /* \"#utility.yul\":17375:17393   */\n      tag_523\n      tag_314\n      jump\t// in\n    tag_523:\n        /* \"#utility.yul\":17359:17395   */\n    tag_522:\n        /* \"#utility.yul\":17211:17402   */\n      swap3\n      swap2\n      pop\n      pop\n      jump\t// out\n        /* \"#utility.yul\":17408:17588   */\n    tag_327:\n        /* \"#utility.yul\":17456:17533   */\n      0x4e487b7100000000000000000000000000000000000000000000000000000000\n        /* \"#utility.yul\":17453:17454   */\n      0x00\n        /* \"#utility.yul\":17446:17534   */\n      mstore\n        /* \"#utility.yul\":17553:17557   */\n      0x12\n        /* \"#utility.yul\":17550:17551   */\n      0x04\n        /* \"#utility.yul\":17543:17558   */\n      mstore\n        /* \"#utility.yul\":17577:17581   */\n      0x24\n        /* \"#utility.yul\":17574:17575   */\n      0x00\n        /* \"#utility.yul\":17567:17582   */\n      revert\n        /* \"#utility.yul\":17594:17779   */\n    tag_110:\n        /* \"#utility.yul\":17634:17635   */\n      0x00\n        /* \"#utility.yul\":17651:17671   */\n      tag_526\n        /* \"#utility.yul\":17669:17670   */\n      dup3\n        /* \"#utility.yul\":17651:17671   */\n      tag_289\n      jump\t// in\n    tag_526:\n        /* \"#utility.yul\":17646:17671   */\n      swap2\n      pop\n        /* \"#utility.yul\":17685:17705   */\n      tag_527\n        /* \"#utility.yul\":17703:17704   */\n      dup4\n        /* \"#utility.yul\":17685:17705   */\n      tag_289\n      jump\t// in\n    tag_527:\n        /* \"#utility.yul\":17680:17705   */\n      swap3\n      pop\n        /* \"#utility.yul\":17724:17725   */\n      dup3\n        /* \"#utility.yul\":17714:17749   */\n      tag_528\n      jumpi\n        /* \"#utility.yul\":17729:17747   */\n      tag_529\n      tag_327\n      jump\t// in\n    tag_529:\n        /* \"#utility.yul\":17714:17749   */\n    tag_528:\n        /* \"#utility.yul\":17771:17772   */\n      dup3\n        /* \"#utility.yul\":17768:17769   */\n      dup3\n        /* \"#utility.yul\":17764:17773   */\n      div\n        /* \"#utility.yul\":17759:17773   */\n      swap1\n      pop\n        /* \"#utility.yul\":17594:17779   */\n      swap3\n      swap2\n      pop\n      pop\n      jump\t// out\n        /* \"#utility.yul\":17785:17954   */\n    tag_328:\n        /* \"#utility.yul\":17925:17946   */\n      0x496e73756666696369656e74206f757470757400000000000000000000000000\n        /* \"#utility.yul\":17921:17922   */\n      0x00\n        /* \"#utility.yul\":17913:17919   */\n      dup3\n        /* \"#utility.yul\":17909:17923   */\n      add\n        /* \"#utility.yul\":17902:17947   */\n      mstore\n        /* \"#utility.yul\":17785:17954   */\n      pop\n      jump\t// out\n        /* \"#utility.yul\":17960:18326   */\n    tag_329:\n        /* \"#utility.yul\":18102:18105   */\n      0x00\n        /* \"#utility.yul\":18123:18190   */\n      tag_532\n        /* \"#utility.yul\":18187:18189   */\n      0x13\n        /* \"#utility.yul\":18182:18185   */\n      dup4\n        /* \"#utility.yul\":18123:18190   */\n      tag_315\n      jump\t// in\n    tag_532:\n        /* \"#utility.yul\":18116:18190   */\n      swap2\n      pop\n        /* \"#utility.yul\":18199:18292   */\n      tag_533\n        /* \"#utility.yul\":18288:18291   */\n      dup3\n        /* \"#utility.yul\":18199:18292   */\n      tag_328\n      jump\t// in\n    tag_533:\n        /* \"#utility.yul\":18317:18319   */\n      0x20\n        /* \"#utility.yul\":18312:18315   */\n      dup3\n        /* \"#utility.yul\":18308:18320   */\n      add\n        /* \"#utility.yul\":18301:18320   */\n      swap1\n      pop\n        /* \"#utility.yul\":17960:18326   */\n      swap2\n      swap1\n      pop\n      jump\t// out\n        /* \"#utility.yul\":18332:18751   */\n    tag_113:\n        /* \"#utility.yul\":18498:18502   */\n      0x00\n        /* \"#utility.yul\":18536:18538   */\n      0x20\n        /* \"#utility.yul\":18525:18534   */\n      dup3\n        /* \"#utility.yul\":18521:18539   */\n      add\n        /* \"#utility.yul\":18513:18539   */\n      swap1\n      pop\n        /* \"#utility.yul\":18585:18594   */\n      dup2\n        /* \"#utility.yul\":18579:18583   */\n      dup2\n        /* \"#utility.yul\":18575:18595   */\n      sub\n        /* \"#utility.yul\":18571:18572   */\n      0x00\n        /* \"#utility.yul\":18560:18569   */\n      dup4\n        /* \"#utility.yul\":18556:18573   */\n      add\n        /* \"#utility.yul\":18549:18596   */\n      mstore\n        /* \"#utility.yul\":18613:18744   */\n      tag_535\n        /* \"#utility.yul\":18739:18743   */\n      dup2\n        /* \"#utility.yul\":18613:18744   */\n      tag_329\n      jump\t// in\n    tag_535:\n        /* \"#utility.yul\":18605:18744   */\n      swap1\n      pop\n        /* \"#utility.yul\":18332:18751   */\n      swap2\n      swap1\n      pop\n      jump\t// out\n        /* \"#utility.yul\":18757:18951   */\n    tag_116:\n        /* \"#utility.yul\":18797:18801   */\n      0x00\n        /* \"#utility.yul\":18817:18837   */\n      tag_537\n        /* \"#utility.yul\":18835:18836   */\n      dup3\n        /* \"#utility.yul\":18817:18837   */\n      tag_289\n      jump\t// in\n    tag_537:\n        /* \"#utility.yul\":18812:18837   */\n      swap2\n      pop\n        /* \"#utility.yul\":18851:18871   */\n      tag_538\n        /* \"#utility.yul\":18869:18870   */\n      dup4\n        /* \"#utility.yul\":18851:18871   */\n      tag_289\n      jump\t// in\n    tag_538:\n        /* \"#utility.yul\":18846:18871   */\n      swap3\n      pop\n        /* \"#utility.yul\":18895:18896   */\n      dup3\n        /* \"#utility.yul\":18892:18893   */\n      dup3\n        /* \"#utility.yul\":18888:18897   */\n      sub\n        /* \"#utility.yul\":18880:18897   */\n      swap1\n      pop\n        /* \"#utility.yul\":18919:18920   */\n      dup2\n        /* \"#utility.yul\":18913:18917   */\n      dup2\n        /* \"#utility.yul\":18910:18921   */\n      gt\n        /* \"#utility.yul\":18907:18944   */\n      iszero\n      tag_539\n      jumpi\n        /* \"#utility.yul\":18924:18942   */\n      tag_540\n      tag_314\n      jump\t// in\n    tag_540:\n        /* \"#utility.yul\":18907:18944   */\n    tag_539:\n        /* \"#utility.yul\":18757:18951   */\n      swap3\n      swap2\n      pop\n      pop\n      jump\t// out\n        /* \"#utility.yul\":18957:19289   */\n    tag_127:\n        /* \"#utility.yul\":19078:19082   */\n      0x00\n        /* \"#utility.yul\":19116:19118   */\n      0x40\n        /* \"#utility.yul\":19105:19114   */\n      dup3\n        /* \"#utility.yul\":19101:19119   */\n      add\n        /* \"#utility.yul\":19093:19119   */\n      swap1\n      pop\n        /* \"#utility.yul\":19129:19200   */\n      tag_542\n        /* \"#utility.yul\":19197:19198   */\n      0x00\n        /* \"#utility.yul\":19186:19195   */\n      dup4\n        /* \"#utility.yul\":19182:19199   */\n      add\n        /* \"#utility.yul\":19173:19179   */\n      dup6\n        /* \"#utility.yul\":19129:19200   */\n      tag_288\n      jump\t// in\n    tag_542:\n        /* \"#utility.yul\":19210:19282   */\n      tag_543\n        /* \"#utility.yul\":19278:19280   */\n      0x20\n        /* \"#utility.yul\":19267:19276   */\n      dup4\n        /* \"#utility.yul\":19263:19281   */\n      add\n        /* \"#utility.yul\":19254:19260   */\n      dup5\n        /* \"#utility.yul\":19210:19282   */\n      tag_290\n      jump\t// in\n    tag_543:\n        /* \"#utility.yul\":18957:19289   */\n      swap4\n      swap3\n      pop\n      pop\n      pop\n      jump\t// out\n        /* \"#utility.yul\":19295:19467   */\n    tag_330:\n        /* \"#utility.yul\":19435:19459   */\n      0x5472616e73666572206f7574707574206661696c656400000000000000000000\n        /* \"#utility.yul\":19431:19432   */\n      0x00\n        /* \"#utility.yul\":19423:19429   */\n      dup3\n        /* \"#utility.yul\":19419:19433   */\n      add\n        /* \"#utility.yul\":19412:19460   */\n      mstore\n        /* \"#utility.yul\":19295:19467   */\n      pop\n      jump\t// out\n        /* \"#utility.yul\":19473:19839   */\n    tag_331:\n        /* \"#utility.yul\":19615:19618   */\n      0x00\n        /* \"#utility.yul\":19636:19703   */\n      tag_546\n        /* \"#utility.yul\":19700:19702   */\n      0x16\n        /* \"#utility.yul\":19695:19698   */\n      dup4\n        /* \"#utility.yul\":19636:19703   */\n      tag_315\n      jump\t// in\n    tag_546:\n        /* \"#utility.yul\":19629:19703   */\n      swap2\n      pop\n        /* \"#utility.yul\":19712:19805   */\n      tag_547\n        /* \"#utility.yul\":19801:19804   */\n      dup3\n        /* \"#utility.yul\":19712:19805   */\n      tag_330\n      jump\t// in\n    tag_547:\n        /* \"#utility.yul\":19830:19832   */\n      0x20\n        /* \"#utility.yul\":19825:19828   */\n      dup3\n        /* \"#utility.yul\":19821:19833   */\n      add\n        /* \"#utility.yul\":19814:19833   */\n      swap1\n      pop\n        /* \"#utility.yul\":19473:19839   */\n      swap2\n      swap1\n      pop\n      jump\t// out\n        /* \"#utility.yul\":19845:20264   */\n    tag_133:\n        /* \"#utility.yul\":20011:20015   */\n      0x00\n        /* \"#utility.yul\":20049:20051   */\n      0x20\n        /* \"#utility.yul\":20038:20047   */\n      dup3\n        /* \"#utility.yul\":20034:20052   */\n      add\n        /* \"#utility.yul\":20026:20052   */\n      swap1\n      pop\n        /* \"#utility.yul\":20098:20107   */\n      dup2\n        /* \"#utility.yul\":20092:20096   */\n      dup2\n        /* \"#utility.yul\":20088:20108   */\n      sub\n        /* \"#utility.yul\":20084:20085   */\n      0x00\n        /* \"#utility.yul\":20073:20082   */\n      dup4\n        /* \"#utility.yul\":20069:20086   */\n      add\n        /* \"#utility.yul\":20062:20109   */\n      mstore\n        /* \"#utility.yul\":20126:20257   */\n      tag_549\n        /* \"#utility.yul\":20252:20256   */\n      dup2\n        /* \"#utility.yul\":20126:20257   */\n      tag_331\n      jump\t// in\n    tag_549:\n        /* \"#utility.yul\":20118:20257   */\n      swap1\n      pop\n        /* \"#utility.yul\":19845:20264   */\n      swap2\n      swap1\n      pop\n      jump\t// out\n        /* \"#utility.yul\":20270:20450   */\n    tag_136:\n        /* \"#utility.yul\":20318:20395   */\n      0x4e487b7100000000000000000000000000000000000000000000000000000000\n        /* \"#utility.yul\":20315:20316   */\n      0x00\n        /* \"#utility.yul\":20308:20396   */\n      mstore\n        /* \"#utility.yul\":20415:20419   */\n      0x41\n        /* \"#utility.yul\":20412:20413   */\n      0x04\n        /* \"#utility.yul\":20405:20420   */\n      mstore\n        /* \"#utility.yul\":20439:20443   */\n      0x24\n        /* \"#utility.yul\":20436:20437   */\n      0x00\n        /* \"#utility.yul\":20429:20444   */\n      revert\n        /* \"#utility.yul\":20456:20619   */\n    tag_332:\n        /* \"#utility.yul\":20596:20611   */\n      0x496e76616c696420696e70757400000000000000000000000000000000000000\n        /* \"#utility.yul\":20592:20593   */\n      0x00\n        /* \"#utility.yul\":20584:20590   */\n      dup3\n        /* \"#utility.yul\":20580:20594   */\n      add\n        /* \"#utility.yul\":20573:20612   */\n      mstore\n        /* \"#utility.yul\":20456:20619   */\n      pop\n      jump\t// out\n        /* \"#utility.yul\":20625:20991   */\n    tag_333:\n        /* \"#utility.yul\":20767:20770   */\n      0x00\n        /* \"#utility.yul\":20788:20855   */\n      tag_553\n        /* \"#utility.yul\":20852:20854   */\n      0x0d\n        /* \"#utility.yul\":20847:20850   */\n      dup4\n        /* \"#utility.yul\":20788:20855   */\n      tag_315\n      jump\t// in\n    tag_553:\n        /* \"#utility.yul\":20781:20855   */\n      swap2\n      pop\n        /* \"#utility.yul\":20864:20957   */\n      tag_554\n        /* \"#utility.yul\":20953:20956   */\n      dup3\n        /* \"#utility.yul\":20864:20957   */\n      tag_332\n      jump\t// in\n    tag_554:\n        /* \"#utility.yul\":20982:20984   */\n      0x20\n        /* \"#utility.yul\":20977:20980   */\n      dup3\n        /* \"#utility.yul\":20973:20985   */\n      add\n        /* \"#utility.yul\":20966:20985   */\n      swap1\n      pop\n        /* \"#utility.yul\":20625:20991   */\n      swap2\n      swap1\n      pop\n      jump\t// out\n        /* \"#utility.yul\":20997:21416   */\n    tag_145:\n        /* \"#utility.yul\":21163:21167   */\n      0x00\n        /* \"#utility.yul\":21201:21203   */\n      0x20\n        /* \"#utility.yul\":21190:21199   */\n      dup3\n        /* \"#utility.yul\":21186:21204   */\n      add\n        /* \"#utility.yul\":21178:21204   */\n      swap1\n      pop\n        /* \"#utility.yul\":21250:21259   */\n      dup2\n        /* \"#utility.yul\":21244:21248   */\n      dup2\n        /* \"#utility.yul\":21240:21260   */\n      sub\n        /* \"#utility.yul\":21236:21237   */\n      0x00\n        /* \"#utility.yul\":21225:21234   */\n      dup4\n        /* \"#utility.yul\":21221:21238   */\n      add\n        /* \"#utility.yul\":21214:21261   */\n      mstore\n        /* \"#utility.yul\":21278:21409   */\n      tag_556\n        /* \"#utility.yul\":21404:21408   */\n      dup2\n        /* \"#utility.yul\":21278:21409   */\n      tag_333\n      jump\t// in\n    tag_556:\n        /* \"#utility.yul\":21270:21409   */\n      swap1\n      pop\n        /* \"#utility.yul\":20997:21416   */\n      swap2\n      swap1\n      pop\n      jump\t// out\n        /* \"#utility.yul\":21422:21586   */\n    tag_334:\n        /* \"#utility.yul\":21562:21578   */\n      0x496e76616c696420746f6b656e73000000000000000000000000000000000000\n        /* \"#utility.yul\":21558:21559   */\n      0x00\n        /* \"#utility.yul\":21550:21556   */\n      dup3\n        /* \"#utility.yul\":21546:21560   */\n      add\n        /* \"#utility.yul\":21539:21579   */\n      mstore\n        /* \"#utility.yul\":21422:21586   */\n      pop\n      jump\t// out\n        /* \"#utility.yul\":21592:21958   */\n    tag_335:\n        /* \"#utility.yul\":21734:21737   */\n      0x00\n        /* \"#utility.yul\":21755:21822   */\n      tag_559\n        /* \"#utility.yul\":21819:21821   */\n      0x0e\n        /* \"#utility.yul\":21814:21817   */\n      dup4\n        /* \"#utility.yul\":21755:21822   */\n      tag_315\n      jump\t// in\n    tag_559:\n        /* \"#utility.yul\":21748:21822   */\n      swap2\n      pop\n        /* \"#utility.yul\":21831:21924   */\n      tag_560\n        /* \"#utility.yul\":21920:21923   */\n      dup3\n        /* \"#utility.yul\":21831:21924   */\n      tag_334\n      jump\t// in\n    tag_560:\n        /* \"#utility.yul\":21949:21951   */\n      0x20\n        /* \"#utility.yul\":21944:21947   */\n      dup3\n        /* \"#utility.yul\":21940:21952   */\n      add\n        /* \"#utility.yul\":21933:21952   */\n      swap1\n      pop\n        /* \"#utility.yul\":21592:21958   */\n      swap2\n      swap1\n      pop\n      jump\t// out\n        /* \"#utility.yul\":21964:22383   */\n    tag_151:\n        /* \"#utility.yul\":22130:22134   */\n      0x00\n        /* \"#utility.yul\":22168:22170   */\n      0x20\n        /* \"#utility.yul\":22157:22166   */\n      dup3\n        /* \"#utility.yul\":22153:22171   */\n      add\n        /* \"#utility.yul\":22145:22171   */\n      swap1\n      pop\n        /* \"#utility.yul\":22217:22226   */\n      dup2\n        /* \"#utility.yul\":22211:22215   */\n      dup2\n        /* \"#utility.yul\":22207:22227   */\n      sub\n        /* \"#utility.yul\":22203:22204   */\n      0x00\n        /* \"#utility.yul\":22192:22201   */\n      dup4\n        /* \"#utility.yul\":22188:22205   */\n      add\n        /* \"#utility.yul\":22181:22228   */\n      mstore\n        /* \"#utility.yul\":22245:22376   */\n      tag_562\n        /* \"#utility.yul\":22371:22375   */\n      dup2\n        /* \"#utility.yul\":22245:22376   */\n      tag_335\n      jump\t// in\n    tag_562:\n        /* \"#utility.yul\":22237:22376   */\n      swap1\n      pop\n        /* \"#utility.yul\":21964:22383   */\n      swap2\n      swap1\n      pop\n      jump\t// out\n        /* \"#utility.yul\":22389:22551   */\n    tag_336:\n        /* \"#utility.yul\":22529:22543   */\n      0x4e6f206c69717569646974790000000000000000000000000000000000000000\n        /* \"#utility.yul\":22525:22526   */\n      0x00\n        /* \"#utility.yul\":22517:22523   */\n      dup3\n        /* \"#utility.yul\":22513:22527   */\n      add\n        /* \"#utility.yul\":22506:22544   */\n      mstore\n        /* \"#utility.yul\":22389:22551   */\n      pop\n      jump\t// out\n        /* \"#utility.yul\":22557:22923   */\n    tag_337:\n        /* \"#utility.yul\":22699:22702   */\n      0x00\n        /* \"#utility.yul\":22720:22787   */\n      tag_565\n        /* \"#utility.yul\":22784:22786   */\n      0x0c\n        /* \"#utility.yul\":22779:22782   */\n      dup4\n        /* \"#utility.yul\":22720:22787   */\n      tag_315\n      jump\t// in\n    tag_565:\n        /* \"#utility.yul\":22713:22787   */\n      swap2\n      pop\n        /* \"#utility.yul\":22796:22889   */\n      tag_566\n        /* \"#utility.yul\":22885:22888   */\n      dup3\n        /* \"#utility.yul\":22796:22889   */\n      tag_336\n      jump\t// in\n    tag_566:\n        /* \"#utility.yul\":22914:22916   */\n      0x20\n        /* \"#utility.yul\":22909:22912   */\n      dup3\n        /* \"#utility.yul\":22905:22917   */\n      add\n        /* \"#utility.yul\":22898:22917   */\n      swap1\n      pop\n        /* \"#utility.yul\":22557:22923   */\n      swap2\n      swap1\n      pop\n      jump\t// out\n        /* \"#utility.yul\":22929:23348   */\n    tag_159:\n        /* \"#utility.yul\":23095:23099   */\n      0x00\n        /* \"#utility.yul\":23133:23135   */\n      0x20\n        /* \"#utility.yul\":23122:23131   */\n      dup3\n        /* \"#utility.yul\":23118:23136   */\n      add\n        /* \"#utility.yul\":23110:23136   */\n      swap1\n      pop\n        /* \"#utility.yul\":23182:23191   */\n      dup2\n        /* \"#utility.yul\":23176:23180   */\n      dup2\n        /* \"#utility.yul\":23172:23192   */\n      sub\n        /* \"#utility.yul\":23168:23169   */\n      0x00\n        /* \"#utility.yul\":23157:23166   */\n      dup4\n        /* \"#utility.yul\":23153:23170   */\n      add\n        /* \"#utility.yul\":23146:23193   */\n      mstore\n        /* \"#utility.yul\":23210:23341   */\n      tag_568\n        /* \"#utility.yul\":23336:23340   */\n      dup2\n        /* \"#utility.yul\":23210:23341   */\n      tag_337\n      jump\t// in\n    tag_568:\n        /* \"#utility.yul\":23202:23341   */\n      swap1\n      pop\n        /* \"#utility.yul\":22929:23348   */\n      swap2\n      swap1\n      pop\n      jump\t// out\n        /* \"#utility.yul\":23354:23522   */\n    tag_338:\n        /* \"#utility.yul\":23494:23514   */\n      0x546f6b656e73206d757374206469666665720000000000000000000000000000\n        /* \"#utility.yul\":23490:23491   */\n      0x00\n        /* \"#utility.yul\":23482:23488   */\n      dup3\n        /* \"#utility.yul\":23478:23492   */\n      add\n        /* \"#utility.yul\":23471:23515   */\n      mstore\n        /* \"#utility.yul\":23354:23522   */\n      pop\n      jump\t// out\n        /* \"#utility.yul\":23528:23894   */\n    tag_339:\n        /* \"#utility.yul\":23670:23673   */\n      0x00\n        /* \"#utility.yul\":23691:23758   */\n      tag_571\n        /* \"#utility.yul\":23755:23757   */\n      0x12\n        /* \"#utility.yul\":23750:23753   */\n      dup4\n        /* \"#utility.yul\":23691:23758   */\n      tag_315\n      jump\t// in\n    tag_571:\n        /* \"#utility.yul\":23684:23758   */\n      swap2\n      pop\n        /* \"#utility.yul\":23767:23860   */\n      tag_572\n        /* \"#utility.yul\":23856:23859   */\n      dup3\n        /* \"#utility.yul\":23767:23860   */\n      tag_338\n      jump\t// in\n    tag_572:\n        /* \"#utility.yul\":23885:23887   */\n      0x20\n        /* \"#utility.yul\":23880:23883   */\n      dup3\n        /* \"#utility.yul\":23876:23888   */\n      add\n        /* \"#utility.yul\":23869:23888   */\n      swap1\n      pop\n        /* \"#utility.yul\":23528:23894   */\n      swap2\n      swap1\n      pop\n      jump\t// out\n        /* \"#utility.yul\":23900:24319   */\n    tag_168:\n        /* \"#utility.yul\":24066:24070   */\n      0x00\n        /* \"#utility.yul\":24104:24106   */\n      0x20\n        /* \"#utility.yul\":24093:24102   */\n      dup3\n        /* \"#utility.yul\":24089:24107   */\n      add\n        /* \"#utility.yul\":24081:24107   */\n      swap1\n      pop\n        /* \"#utility.yul\":24153:24162   */\n      dup2\n        /* \"#utility.yul\":24147:24151   */\n      dup2\n        /* \"#utility.yul\":24143:24163   */\n      sub\n        /* \"#utility.yul\":24139:24140   */\n      0x00\n        /* \"#utility.yul\":24128:24137   */\n      dup4\n        /* \"#utility.yul\":24124:24141   */\n      add\n        /* \"#utility.yul\":24117:24164   */\n      mstore\n        /* \"#utility.yul\":24181:24312   */\n      tag_574\n        /* \"#utility.yul\":24307:24311   */\n      dup2\n        /* \"#utility.yul\":24181:24312   */\n      tag_339\n      jump\t// in\n    tag_574:\n        /* \"#utility.yul\":24173:24312   */\n      swap1\n      pop\n        /* \"#utility.yul\":23900:24319   */\n      swap2\n      swap1\n      pop\n      jump\t// out\n        /* \"#utility.yul\":24325:24490   */\n    tag_340:\n        /* \"#utility.yul\":24465:24482   */\n      0x496e76616c696420616464726573730000000000000000000000000000000000\n        /* \"#utility.yul\":24461:24462   */\n      0x00\n        /* \"#utility.yul\":24453:24459   */\n      dup3\n        /* \"#utility.yul\":24449:24463   */\n      add\n        /* \"#utility.yul\":24442:24483   */\n      mstore\n        /* \"#utility.yul\":24325:24490   */\n      pop\n      jump\t// out\n        /* \"#utility.yul\":24496:24862   */\n    tag_341:\n        /* \"#utility.yul\":24638:24641   */\n      0x00\n        /* \"#utility.yul\":24659:24726   */\n      tag_577\n        /* \"#utility.yul\":24723:24725   */\n      0x0f\n        /* \"#utility.yul\":24718:24721   */\n      dup4\n        /* \"#utility.yul\":24659:24726   */\n      tag_315\n      jump\t// in\n    tag_577:\n        /* \"#utility.yul\":24652:24726   */\n      swap2\n      pop\n        /* \"#utility.yul\":24735:24828   */\n      tag_578\n        /* \"#utility.yul\":24824:24827   */\n      dup3\n        /* \"#utility.yul\":24735:24828   */\n      tag_340\n      jump\t// in\n    tag_578:\n        /* \"#utility.yul\":24853:24855   */\n      0x20\n        /* \"#utility.yul\":24848:24851   */\n      dup3\n        /* \"#utility.yul\":24844:24856   */\n      add\n        /* \"#utility.yul\":24837:24856   */\n      swap1\n      pop\n        /* \"#utility.yul\":24496:24862   */\n      swap2\n      swap1\n      pop\n      jump\t// out\n        /* \"#utility.yul\":24868:25287   */\n    tag_172:\n        /* \"#utility.yul\":25034:25038   */\n      0x00\n        /* \"#utility.yul\":25072:25074   */\n      0x20\n        /* \"#utility.yul\":25061:25070   */\n      dup3\n        /* \"#utility.yul\":25057:25075   */\n      add\n        /* \"#utility.yul\":25049:25075   */\n      swap1\n      pop\n        /* \"#utility.yul\":25121:25130   */\n      dup2\n        /* \"#utility.yul\":25115:25119   */\n      dup2\n        /* \"#utility.yul\":25111:25131   */\n      sub\n        /* \"#utility.yul\":25107:25108   */\n      0x00\n        /* \"#utility.yul\":25096:25105   */\n      dup4\n        /* \"#utility.yul\":25092:25109   */\n      add\n        /* \"#utility.yul\":25085:25132   */\n      mstore\n        /* \"#utility.yul\":25149:25280   */\n      tag_580\n        /* \"#utility.yul\":25275:25279   */\n      dup2\n        /* \"#utility.yul\":25149:25280   */\n      tag_341\n      jump\t// in\n    tag_580:\n        /* \"#utility.yul\":25141:25280   */\n      swap1\n      pop\n        /* \"#utility.yul\":24868:25287   */\n      swap2\n      swap1\n      pop\n      jump\t// out\n        /* \"#utility.yul\":25293:25436   */\n    tag_342:\n        /* \"#utility.yul\":25350:25355   */\n      0x00\n        /* \"#utility.yul\":25381:25387   */\n      dup2\n        /* \"#utility.yul\":25375:25388   */\n      mload\n        /* \"#utility.yul\":25366:25388   */\n      swap1\n      pop\n        /* \"#utility.yul\":25397:25430   */\n      tag_582\n        /* \"#utility.yul\":25424:25429   */\n      dup2\n        /* \"#utility.yul\":25397:25430   */\n      tag_294\n      jump\t// in\n    tag_582:\n        /* \"#utility.yul\":25293:25436   */\n      swap3\n      swap2\n      pop\n      pop\n      jump\t// out\n        /* \"#utility.yul\":25442:25793   */\n    tag_177:\n        /* \"#utility.yul\":25512:25518   */\n      0x00\n        /* \"#utility.yul\":25561:25563   */\n      0x20\n        /* \"#utility.yul\":25549:25558   */\n      dup3\n        /* \"#utility.yul\":25540:25547   */\n      dup5\n        /* \"#utility.yul\":25536:25559   */\n      sub\n        /* \"#utility.yul\":25532:25564   */\n      slt\n        /* \"#utility.yul\":25529:25648   */\n      iszero\n      tag_584\n      jumpi\n        /* \"#utility.yul\":25567:25646   */\n      tag_585\n      tag_292\n      jump\t// in\n    tag_585:\n        /* \"#utility.yul\":25529:25648   */\n    tag_584:\n        /* \"#utility.yul\":25687:25688   */\n      0x00\n        /* \"#utility.yul\":25712:25776   */\n      tag_586\n        /* \"#utility.yul\":25768:25775   */\n      dup5\n        /* \"#utility.yul\":25759:25765   */\n      dup3\n        /* \"#utility.yul\":25748:25757   */\n      dup6\n        /* \"#utility.yul\":25744:25766   */\n      add\n        /* \"#utility.yul\":25712:25776   */\n      tag_342\n      jump\t// in\n    tag_586:\n        /* \"#utility.yul\":25702:25776   */\n      swap2\n      pop\n        /* \"#utility.yul\":25658:25786   */\n      pop\n        /* \"#utility.yul\":25442:25793   */\n      swap3\n      swap2\n      pop\n      pop\n      jump\t// out\n        /* \"#utility.yul\":25799:25966   */\n    tag_343:\n        /* \"#utility.yul\":25939:25958   */\n      0x496e76616c696420726563697069656e74000000000000000000000000000000\n        /* \"#utility.yul\":25935:25936   */\n      0x00\n        /* \"#utility.yul\":25927:25933   */\n      dup3\n        /* \"#utility.yul\":25923:25937   */\n      add\n        /* \"#utility.yul\":25916:25959   */\n      mstore\n        /* \"#utility.yul\":25799:25966   */\n      pop\n      jump\t// out\n        /* \"#utility.yul\":25972:26338   */\n    tag_344:\n        /* \"#utility.yul\":26114:26117   */\n      0x00\n        /* \"#utility.yul\":26135:26202   */\n      tag_589\n        /* \"#utility.yul\":26199:26201   */\n      0x11\n        /* \"#utility.yul\":26194:26197   */\n      dup4\n        /* \"#utility.yul\":26135:26202   */\n      tag_315\n      jump\t// in\n    tag_589:\n        /* \"#utility.yul\":26128:26202   */\n      swap2\n      pop\n        /* \"#utility.yul\":26211:26304   */\n      tag_590\n        /* \"#utility.yul\":26300:26303   */\n      dup3\n        /* \"#utility.yul\":26211:26304   */\n      tag_343\n      jump\t// in\n    tag_590:\n        /* \"#utility.yul\":26329:26331   */\n      0x20\n        /* \"#utility.yul\":26324:26327   */\n      dup3\n        /* \"#utility.yul\":26320:26332   */\n      add\n        /* \"#utility.yul\":26313:26332   */\n      swap1\n      pop\n        /* \"#utility.yul\":25972:26338   */\n      swap2\n      swap1\n      pop\n      jump\t// out\n        /* \"#utility.yul\":26344:26763   */\n    tag_192:\n        /* \"#utility.yul\":26510:26514   */\n      0x00\n        /* \"#utility.yul\":26548:26550   */\n      0x20\n        /* \"#utility.yul\":26537:26546   */\n      dup3\n        /* \"#utility.yul\":26533:26551   */\n      add\n        /* \"#utility.yul\":26525:26551   */\n      swap1\n      pop\n        /* \"#utility.yul\":26597:26606   */\n      dup2\n        /* \"#utility.yul\":26591:26595   */\n      dup2\n        /* \"#utility.yul\":26587:26607   */\n      sub\n        /* \"#utility.yul\":26583:26584   */\n      0x00\n        /* \"#utility.yul\":26572:26581   */\n      dup4\n        /* \"#utility.yul\":26568:26585   */\n      add\n        /* \"#utility.yul\":26561:26608   */\n      mstore\n        /* \"#utility.yul\":26625:26756   */\n      tag_592\n        /* \"#utility.yul\":26751:26755   */\n      dup2\n        /* \"#utility.yul\":26625:26756   */\n      tag_344\n      jump\t// in\n    tag_592:\n        /* \"#utility.yul\":26617:26756   */\n      swap1\n      pop\n        /* \"#utility.yul\":26344:26763   */\n      swap2\n      swap1\n      pop\n      jump\t// out\n        /* \"#utility.yul\":26769:26938   */\n    tag_345:\n        /* \"#utility.yul\":26909:26930   */\n      0x536c6970706167653a204220746f6f206c6f7700000000000000000000000000\n        /* \"#utility.yul\":26905:26906   */\n      0x00\n        /* \"#utility.yul\":26897:26903   */\n      dup3\n        /* \"#utility.yul\":26893:26907   */\n      add\n        /* \"#utility.yul\":26886:26931   */\n      mstore\n        /* \"#utility.yul\":26769:26938   */\n      pop\n      jump\t// out\n        /* \"#utility.yul\":26944:27310   */\n    tag_346:\n        /* \"#utility.yul\":27086:27089   */\n      0x00\n        /* \"#utility.yul\":27107:27174   */\n      tag_595\n        /* \"#utility.yul\":27171:27173   */\n      0x13\n        /* \"#utility.yul\":27166:27169   */\n      dup4\n        /* \"#utility.yul\":27107:27174   */\n      tag_315\n      jump\t// in\n    tag_595:\n        /* \"#utility.yul\":27100:27174   */\n      swap2\n      pop\n        /* \"#utility.yul\":27183:27276   */\n      tag_596\n        /* \"#utility.yul\":27272:27275   */\n      dup3\n        /* \"#utility.yul\":27183:27276   */\n      tag_345\n      jump\t// in\n    tag_596:\n        /* \"#utility.yul\":27301:27303   */\n      0x20\n        /* \"#utility.yul\":27296:27299   */\n      dup3\n        /* \"#utility.yul\":27292:27304   */\n      add\n        /* \"#utility.yul\":27285:27304   */\n      swap1\n      pop\n        /* \"#utility.yul\":26944:27310   */\n      swap2\n      swap1\n      pop\n      jump\t// out\n        /* \"#utility.yul\":27316:27735   */\n    tag_201:\n        /* \"#utility.yul\":27482:27486   */\n      0x00\n        /* \"#utility.yul\":27520:27522   */\n      0x20\n        /* \"#utility.yul\":27509:27518   */\n      dup3\n        /* \"#utility.yul\":27505:27523   */\n      add\n        /* \"#utility.yul\":27497:27523   */\n      swap1\n      pop\n        /* \"#utility.yul\":27569:27578   */\n      dup2\n        /* \"#utility.yul\":27563:27567   */\n      dup2\n        /* \"#utility.yul\":27559:27579   */\n      sub\n        /* \"#utility.yul\":27555:27556   */\n      0x00\n        /* \"#utility.yul\":27544:27553   */\n      dup4\n        /* \"#utility.yul\":27540:27557   */\n      add\n        /* \"#utility.yul\":27533:27580   */\n      mstore\n        /* \"#utility.yul\":27597:27728   */\n      tag_598\n        /* \"#utility.yul\":27723:27727   */\n      dup2\n        /* \"#utility.yul\":27597:27728   */\n      tag_346\n      jump\t// in\n    tag_598:\n        /* \"#utility.yul\":27589:27728   */\n      swap1\n      pop\n        /* \"#utility.yul\":27316:27735   */\n      swap2\n      swap1\n      pop\n      jump\t// out\n        /* \"#utility.yul\":27741:27910   */\n    tag_347:\n        /* \"#utility.yul\":27881:27902   */\n      0x536c6970706167653a204120746f6f206c6f7700000000000000000000000000\n        /* \"#utility.yul\":27877:27878   */\n      0x00\n        /* \"#utility.yul\":27869:27875   */\n      dup3\n        /* \"#utility.yul\":27865:27879   */\n      add\n        /* \"#utility.yul\":27858:27903   */\n      mstore\n        /* \"#utility.yul\":27741:27910   */\n      pop\n      jump\t// out\n        /* \"#utility.yul\":27916:28282   */\n    tag_348:\n        /* \"#utility.yul\":28058:28061   */\n      0x00\n        /* \"#utility.yul\":28079:28146   */\n      tag_601\n        /* \"#utility.yul\":28143:28145   */\n      0x13\n        /* \"#utility.yul\":28138:28141   */\n      dup4\n        /* \"#utility.yul\":28079:28146   */\n      tag_315\n      jump\t// in\n    tag_601:\n        /* \"#utility.yul\":28072:28146   */\n      swap2\n      pop\n        /* \"#utility.yul\":28155:28248   */\n      tag_602\n        /* \"#utility.yul\":28244:28247   */\n      dup3\n        /* \"#utility.yul\":28155:28248   */\n      tag_347\n      jump\t// in\n    tag_602:\n        /* \"#utility.yul\":28273:28275   */\n      0x20\n        /* \"#utility.yul\":28268:28271   */\n      dup3\n        /* \"#utility.yul\":28264:28276   */\n      add\n        /* \"#utility.yul\":28257:28276   */\n      swap1\n      pop\n        /* \"#utility.yul\":27916:28282   */\n      swap2\n      swap1\n      pop\n      jump\t// out\n        /* \"#utility.yul\":28288:28707   */\n    tag_207:\n        /* \"#utility.yul\":28454:28458   */\n      0x00\n        /* \"#utility.yul\":28492:28494   */\n      0x20\n        /* \"#utility.yul\":28481:28490   */\n      dup3\n        /* \"#utility.yul\":28477:28495   */\n      add\n        /* \"#utility.yul\":28469:28495   */\n      swap1\n      pop\n        /* \"#utility.yul\":28541:28550   */\n      dup2\n        /* \"#utility.yul\":28535:28539   */\n      dup2\n        /* \"#utility.yul\":28531:28551   */\n      sub\n        /* \"#utility.yul\":28527:28528   */\n      0x00\n        /* \"#utility.yul\":28516:28525   */\n      dup4\n        /* \"#utility.yul\":28512:28529   */\n      add\n        /* \"#utility.yul\":28505:28552   */\n      mstore\n        /* \"#utility.yul\":28569:28700   */\n      tag_604\n        /* \"#utility.yul\":28695:28699   */\n      dup2\n        /* \"#utility.yul\":28569:28700   */\n      tag_348\n      jump\t// in\n    tag_604:\n        /* \"#utility.yul\":28561:28700   */\n      swap1\n      pop\n        /* \"#utility.yul\":28288:28707   */\n      swap2\n      swap1\n      pop\n      jump\t// out\n        /* \"#utility.yul\":28713:28885   */\n    tag_349:\n        /* \"#utility.yul\":28853:28877   */\n      0x5472616e7366657220746f6b656e41206661696c656400000000000000000000\n        /* \"#utility.yul\":28849:28850   */\n      0x00\n        /* \"#utility.yul\":28841:28847   */\n      dup3\n        /* \"#utility.yul\":28837:28851   */\n      add\n        /* \"#utility.yul\":28830:28878   */\n      mstore\n        /* \"#utility.yul\":28713:28885   */\n      pop\n      jump\t// out\n        /* \"#utility.yul\":28891:29257   */\n    tag_350:\n        /* \"#utility.yul\":29033:29036   */\n      0x00\n        /* \"#utility.yul\":29054:29121   */\n      tag_607\n        /* \"#utility.yul\":29118:29120   */\n      0x16\n        /* \"#utility.yul\":29113:29116   */\n      dup4\n        /* \"#utility.yul\":29054:29121   */\n      tag_315\n      jump\t// in\n    tag_607:\n        /* \"#utility.yul\":29047:29121   */\n      swap2\n      pop\n        /* \"#utility.yul\":29130:29223   */\n      tag_608\n        /* \"#utility.yul\":29219:29222   */\n      dup3\n        /* \"#utility.yul\":29130:29223   */\n      tag_349\n      jump\t// in\n    tag_608:\n        /* \"#utility.yul\":29248:29250   */\n      0x20\n        /* \"#utility.yul\":29243:29246   */\n      dup3\n        /* \"#utility.yul\":29239:29251   */\n      add\n        /* \"#utility.yul\":29232:29251   */\n      swap1\n      pop\n        /* \"#utility.yul\":28891:29257   */\n      swap2\n      swap1\n      pop\n      jump\t// out\n        /* \"#utility.yul\":29263:29682   */\n    tag_214:\n        /* \"#utility.yul\":29429:29433   */\n      0x00\n        /* \"#utility.yul\":29467:29469   */\n      0x20\n        /* \"#utility.yul\":29456:29465   */\n      dup3\n        /* \"#utility.yul\":29452:29470   */\n      add\n        /* \"#utility.yul\":29444:29470   */\n      swap1\n      pop\n        /* \"#utility.yul\":29516:29525   */\n      dup2\n        /* \"#utility.yul\":29510:29514   */\n      dup2\n        /* \"#utility.yul\":29506:29526   */\n      sub\n        /* \"#utility.yul\":29502:29503   */\n      0x00\n        /* \"#utility.yul\":29491:29500   */\n      dup4\n        /* \"#utility.yul\":29487:29504   */\n      add\n        /* \"#utility.yul\":29480:29527   */\n      mstore\n        /* \"#utility.yul\":29544:29675   */\n      tag_610\n        /* \"#utility.yul\":29670:29674   */\n      dup2\n        /* \"#utility.yul\":29544:29675   */\n      tag_350\n      jump\t// in\n    tag_610:\n        /* \"#utility.yul\":29536:29675   */\n      swap1\n      pop\n        /* \"#utility.yul\":29263:29682   */\n      swap2\n      swap1\n      pop\n      jump\t// out\n        /* \"#utility.yul\":29688:29860   */\n    tag_351:\n        /* \"#utility.yul\":29828:29852   */\n      0x5472616e7366657220746f6b656e42206661696c656400000000000000000000\n        /* \"#utility.yul\":29824:29825   */\n      0x00\n        /* \"#utility.yul\":29816:29822   */\n      dup3\n        /* \"#utility.yul\":29812:29826   */\n      add\n        /* \"#utility.yul\":29805:29853   */\n      mstore\n        /* \"#utility.yul\":29688:29860   */\n      pop\n      jump\t// out\n        /* \"#utility.yul\":29866:30232   */\n    tag_352:\n        /* \"#utility.yul\":30008:30011   */\n      0x00\n        /* \"#utility.yul\":30029:30096   */\n      tag_613\n        /* \"#utility.yul\":30093:30095   */\n      0x16\n        /* \"#utility.yul\":30088:30091   */\n      dup4\n        /* \"#utility.yul\":30029:30096   */\n      tag_315\n      jump\t// in\n    tag_613:\n        /* \"#utility.yul\":30022:30096   */\n      swap2\n      pop\n        /* \"#utility.yul\":30105:30198   */\n      tag_614\n        /* \"#utility.yul\":30194:30197   */\n      dup3\n        /* \"#utility.yul\":30105:30198   */\n      tag_351\n      jump\t// in\n    tag_614:\n        /* \"#utility.yul\":30223:30225   */\n      0x20\n        /* \"#utility.yul\":30218:30221   */\n      dup3\n        /* \"#utility.yul\":30214:30226   */\n      add\n        /* \"#utility.yul\":30207:30226   */\n      swap1\n      pop\n        /* \"#utility.yul\":29866:30232   */\n      swap2\n      swap1\n      pop\n      jump\t// out\n        /* \"#utility.yul\":30238:30657   */\n    tag_221:\n        /* \"#utility.yul\":30404:30408   */\n      0x00\n        /* \"#utility.yul\":30442:30444   */\n      0x20\n        /* \"#utility.yul\":30431:30440   */\n      dup3\n        /* \"#utility.yul\":30427:30445   */\n      add\n        /* \"#utility.yul\":30419:30445   */\n      swap1\n      pop\n        /* \"#utility.yul\":30491:30500   */\n      dup2\n        /* \"#utility.yul\":30485:30489   */\n      dup2\n        /* \"#utility.yul\":30481:30501   */\n      sub\n        /* \"#utility.yul\":30477:30478   */\n      0x00\n        /* \"#utility.yul\":30466:30475   */\n      dup4\n        /* \"#utility.yul\":30462:30479   */\n      add\n        /* \"#utility.yul\":30455:30502   */\n      mstore\n        /* \"#utility.yul\":30519:30650   */\n      tag_616\n        /* \"#utility.yul\":30645:30649   */\n      dup2\n        /* \"#utility.yul\":30519:30650   */\n      tag_352\n      jump\t// in\n    tag_616:\n        /* \"#utility.yul\":30511:30650   */\n      swap1\n      pop\n        /* \"#utility.yul\":30238:30657   */\n      swap2\n      swap1\n      pop\n      jump\t// out\n        /* \"#utility.yul\":30663:30833   */\n    tag_353:\n        /* \"#utility.yul\":30803:30825   */\n      0x4e6f7420656e6f756768206c6971756964697479000000000000000000000000\n        /* \"#utility.yul\":30799:30800   */\n      0x00\n        /* \"#utility.yul\":30791:30797   */\n      dup3\n        /* \"#utility.yul\":30787:30801   */\n      add\n        /* \"#utility.yul\":30780:30826   */\n      mstore\n        /* \"#utility.yul\":30663:30833   */\n      pop\n      jump\t// out\n        /* \"#utility.yul\":30839:31205   */\n    tag_354:\n        /* \"#utility.yul\":30981:30984   */\n      0x00\n        /* \"#utility.yul\":31002:31069   */\n      tag_619\n        /* \"#utility.yul\":31066:31068   */\n      0x14\n        /* \"#utility.yul\":31061:31064   */\n      dup4\n        /* \"#utility.yul\":31002:31069   */\n      tag_315\n      jump\t// in\n    tag_619:\n        /* \"#utility.yul\":30995:31069   */\n      swap2\n      pop\n        /* \"#utility.yul\":31078:31171   */\n      tag_620\n        /* \"#utility.yul\":31167:31170   */\n      dup3\n        /* \"#utility.yul\":31078:31171   */\n      tag_353\n      jump\t// in\n    tag_620:\n        /* \"#utility.yul\":31196:31198   */\n      0x20\n        /* \"#utility.yul\":31191:31194   */\n      dup3\n        /* \"#utility.yul\":31187:31199   */\n      add\n        /* \"#utility.yul\":31180:31199   */\n      swap1\n      pop\n        /* \"#utility.yul\":30839:31205   */\n      swap2\n      swap1\n      pop\n      jump\t// out\n        /* \"#utility.yul\":31211:31630   */\n    tag_242:\n        /* \"#utility.yul\":31377:31381   */\n      0x00\n        /* \"#utility.yul\":31415:31417   */\n      0x20\n        /* \"#utility.yul\":31404:31413   */\n      dup3\n        /* \"#utility.yul\":31400:31418   */\n      add\n        /* \"#utility.yul\":31392:31418   */\n      swap1\n      pop\n        /* \"#utility.yul\":31464:31473   */\n      dup2\n        /* \"#utility.yul\":31458:31462   */\n      dup2\n        /* \"#utility.yul\":31454:31474   */\n      sub\n        /* \"#utility.yul\":31450:31451   */\n      0x00\n        /* \"#utility.yul\":31439:31448   */\n      dup4\n        /* \"#utility.yul\":31435:31452   */\n      add\n        /* \"#utility.yul\":31428:31475   */\n      mstore\n        /* \"#utility.yul\":31492:31623   */\n      tag_622\n        /* \"#utility.yul\":31618:31622   */\n      dup2\n        /* \"#utility.yul\":31492:31623   */\n      tag_354\n      jump\t// in\n    tag_622:\n        /* \"#utility.yul\":31484:31623   */\n      swap1\n      pop\n        /* \"#utility.yul\":31211:31630   */\n      swap2\n      swap1\n      pop\n      jump\t// out\n\n    auxdata: 0xa2646970667358221220cf126b52f40f434aafc1d0900564b94a9d1eb8a1fe038223b13c9a7a8065796464736f6c634300081e0033\n}\n",
				"bytecode": {
					"linkReferences": {},
					"object": "60c060405234801561000f575f5ffd5b50604051612c85380380612c85833981810160405281019061003191906101ec565b8173ffffffffffffffffffffffffffffffffffffffff168373ffffffffffffffffffffffffffffffffffffffff160361009f576040517f08c379a000000000000000000000000000000000000000000000000000000000815260040161009690610296565b60405180910390fd5b8273ffffffffffffffffffffffffffffffffffffffff1660808173ffffffffffffffffffffffffffffffffffffffff16815250508173ffffffffffffffffffffffffffffffffffffffff1660a08173ffffffffffffffffffffffffffffffffffffffff1681525050335f5f6101000a81548173ffffffffffffffffffffffffffffffffffffffff021916908373ffffffffffffffffffffffffffffffffffffffff1602179055508060015f6101000a81548173ffffffffffffffffffffffffffffffffffffffff021916908373ffffffffffffffffffffffffffffffffffffffff1602179055505050506102b4565b5f5ffd5b5f73ffffffffffffffffffffffffffffffffffffffff82169050919050565b5f6101bb82610192565b9050919050565b6101cb816101b1565b81146101d5575f5ffd5b50565b5f815190506101e6816101c2565b92915050565b5f5f5f606084860312156102035761020261018e565b5b5f610210868287016101d8565b9350506020610221868287016101d8565b9250506040610232868287016101d8565b9150509250925092565b5f82825260208201905092915050565b7f546f6b656e73206d75737420626520646966666572656e7400000000000000005f82015250565b5f61028060188361023c565b915061028b8261024c565b602082019050919050565b5f6020820190508181035f8301526102ad81610274565b9050919050565b60805160a05161294761033e5f395f81816103fd01528181610453015281816109ae01528181610a0401528181610c47015281816111cc015261188501525f818161027d015281816103a7015281816104a9015281816106090152818161095801528181610a5a01528181610aeb01528181610b4d015281816110f001526117ab01526129475ff3fe608060405234801561000f575f5ffd5b50600436106100b2575f3560e01c80635fcbd2851161006f5780635fcbd2851461018e5780638da5cb5b146101ac578063ac41865a146101ca578063dc5fa6c5146101fa578063ded998b914610218578063ed856cdc1461024a576100b2565b80630fc63d10146100b657806315770f92146100d457806319e36f3b146100f257806338ed1739146101105780634aa06652146101405780635f64b55b14610170575b5f5ffd5b6100be61027b565b6040516100cb9190611a70565b60405180910390f35b6100dc61029f565b6040516100e99190611aa1565b60405180910390f35b6100fa6102bd565b6040516101079190611aa1565b60405180910390f35b61012a60048036038101906101259190611b77565b6102c3565b6040516101379190611cc4565b60405180910390f35b61015a60048036038101906101559190611ce4565b610913565b6040516101679190611aa1565b60405180910390f35b610178610c45565b6040516101859190611a70565b60405180910390f35b610196610c69565b6040516101a39190611d8f565b60405180910390f35b6101b4610c8e565b6040516101c19190611a70565b60405180910390f35b6101e460048036038101906101df9190611da8565b610cb2565b6040516101f19190611aa1565b60405180910390f35b610202610f34565b60405161020f9190611aa1565b60405180910390f35b610232600480360381019061022d9190611de6565b610f3a565b60405161024193929190611e6f565b60405180910390f35b610264600480360381019061025f9190611ea4565b6113d3565b604051610272929190611f1b565b60405180910390f35b7f000000000000000000000000000000000000000000000000000000000000000081565b5f6102b86003546002546102b39190611f6f565b6119ba565b905090565b60035481565b606081421115610308576040517f08c379a00000000000000000000000000000000000000000000000000000000081526004016102ff9061200a565b60405180910390fd5b6002858590501461034e576040517f08c379a000000000000000000000000000000000000000000000000000000000815260040161034590612098565b60405180910390fd5b5f85855f818110610362576103616120b6565b5b905060200201602081019061037791906120e3565b90505f8686600181811061038e5761038d6120b6565b5b90506020020160208101906103a391906120e3565b90507f000000000000000000000000000000000000000000000000000000000000000073ffffffffffffffffffffffffffffffffffffffff168273ffffffffffffffffffffffffffffffffffffffff1614801561044b57507f000000000000000000000000000000000000000000000000000000000000000073ffffffffffffffffffffffffffffffffffffffff168173ffffffffffffffffffffffffffffffffffffffff16145b806104f857507f000000000000000000000000000000000000000000000000000000000000000073ffffffffffffffffffffffffffffffffffffffff168273ffffffffffffffffffffffffffffffffffffffff161480156104f757507f000000000000000000000000000000000000000000000000000000000000000073ffffffffffffffffffffffffffffffffffffffff168173ffffffffffffffffffffffffffffffffffffffff16145b5b610537576040517f08c379a000000000000000000000000000000000000000000000000000000000815260040161052e90612158565b60405180910390fd5b8173ffffffffffffffffffffffffffffffffffffffff166323b872dd33308c6040518463ffffffff1660e01b815260040161057493929190612176565b6020604051808303815f875af1158015610590573d5f5f3e3d5ffd5b505050506040513d601f19601f820116820180604052508101906105b491906121e0565b6105f3576040517f08c379a00000000000000000000000000000000000000000000000000000000081526004016105ea90612255565b60405180910390fd5b5f6103e58a6106029190611f6f565b90505f5f5f7f000000000000000000000000000000000000000000000000000000000000000073ffffffffffffffffffffffffffffffffffffffff168673ffffffffffffffffffffffffffffffffffffffff160361070d57600354846106689190611f6f565b9250836103e860025461067b9190611f6f565b6106859190612273565b9150818361069391906122d3565b90508b8110156106d8576040517f08c379a00000000000000000000000000000000000000000000000000000000081526004016106cf9061234d565b60405180910390fd5b8c60025f8282546106e99190612273565b925050819055508060035f828254610701919061236b565b925050819055506107bc565b6002548461071b9190611f6f565b9250836103e860035461072e9190611f6f565b6107389190612273565b9150818361074691906122d3565b90508b81101561078b576040517f08c379a00000000000000000000000000000000000000000000000000000000081526004016107829061234d565b60405180910390fd5b8c60035f82825461079c9190612273565b925050819055508060025f8282546107b4919061236b565b925050819055505b8473ffffffffffffffffffffffffffffffffffffffff1663a9059cbb8a836040518363ffffffff1660e01b81526004016107f792919061239e565b6020604051808303815f875af1158015610813573d5f5f3e3d5ffd5b505050506040513d601f19601f8201168201806040525081019061083791906121e0565b610876576040517f08c379a000000000000000000000000000000000000000000000000000000000815260040161086d9061240f565b60405180910390fd5b600267ffffffffffffffff8111156108915761089061242d565b5b6040519080825280602002602001820160405280156108bf5781602001602082028036833780820191505090505b5096508c875f815181106108d6576108d56120b6565b5b60200260200101818152505080876001815181106108f7576108f66120b6565b5b6020026020010181815250505050505050509695505050505050565b5f5f8211610956576040517f08c379a000000000000000000000000000000000000000000000000000000000815260040161094d906124a4565b60405180910390fd5b7f000000000000000000000000000000000000000000000000000000000000000073ffffffffffffffffffffffffffffffffffffffff168473ffffffffffffffffffffffffffffffffffffffff161480156109fc57507f000000000000000000000000000000000000000000000000000000000000000073ffffffffffffffffffffffffffffffffffffffff168373ffffffffffffffffffffffffffffffffffffffff16145b80610aa957507f000000000000000000000000000000000000000000000000000000000000000073ffffffffffffffffffffffffffffffffffffffff168473ffffffffffffffffffffffffffffffffffffffff16148015610aa857507f000000000000000000000000000000000000000000000000000000000000000073ffffffffffffffffffffffffffffffffffffffff168373ffffffffffffffffffffffffffffffffffffffff16145b5b610ae8576040517f08c379a0000000000000000000000000000000000000000000000000000000008152600401610adf9061250c565b60405180910390fd5b5f7f000000000000000000000000000000000000000000000000000000000000000073ffffffffffffffffffffffffffffffffffffffff168573ffffffffffffffffffffffffffffffffffffffff1614610b4457600354610b48565b6002545b90505f7f000000000000000000000000000000000000000000000000000000000000000073ffffffffffffffffffffffffffffffffffffffff168573ffffffffffffffffffffffffffffffffffffffff1614610ba657600354610baa565b6002545b90505f82118015610bba57505f81115b610bf9576040517f08c379a0000000000000000000000000000000000000000000000000000000008152600401610bf090612574565b60405180910390fd5b5f6103e585610c089190611f6f565b9050806103e884610c199190611f6f565b610c239190612273565b8282610c2f9190611f6f565b610c3991906122d3565b93505050509392505050565b7f000000000000000000000000000000000000000000000000000000000000000081565b60015f9054906101000a900473ffffffffffffffffffffffffffffffffffffffff1681565b5f5f9054906101000a900473ffffffffffffffffffffffffffffffffffffffff1681565b5f8173ffffffffffffffffffffffffffffffffffffffff168373ffffffffffffffffffffffffffffffffffffffff1603610d21576040517f08c379a0000000000000000000000000000000000000000000000000000000008152600401610d18906125dc565b60405180910390fd5b5f73ffffffffffffffffffffffffffffffffffffffff168373ffffffffffffffffffffffffffffffffffffffff1614158015610d8957505f73ffffffffffffffffffffffffffffffffffffffff168273ffffffffffffffffffffffffffffffffffffffff1614155b610dc8576040517f08c379a0000000000000000000000000000000000000000000000000000000008152600401610dbf90612644565b60405180910390fd5b5f8373ffffffffffffffffffffffffffffffffffffffff166370a08231306040518263ffffffff1660e01b8152600401610e029190611a70565b602060405180830381865afa158015610e1d573d5f5f3e3d5ffd5b505050506040513d601f19601f82011682018060405250810190610e419190612676565b90505f8373ffffffffffffffffffffffffffffffffffffffff166370a08231306040518263ffffffff1660e01b8152600401610e7d9190611a70565b602060405180830381865afa158015610e98573d5f5f3e3d5ffd5b505050506040513d601f19601f82011682018060405250810190610ebc9190612676565b90505f82118015610ecc57505f81115b610f0b576040517f08c379a0000000000000000000000000000000000000000000000000000000008152600401610f0290612574565b60405180910390fd5b81670de0b6b3a764000082610f209190611f6f565b610f2a91906122d3565b9250505092915050565b60025481565b5f5f5f83421115610f80576040517f08c379a0000000000000000000000000000000000000000000000000000000008152600401610f779061200a565b60405180910390fd5b5f73ffffffffffffffffffffffffffffffffffffffff168573ffffffffffffffffffffffffffffffffffffffff1603610fee576040517f08c379a0000000000000000000000000000000000000000000000000000000008152600401610fe5906126eb565b60405180910390fd5b5f60025414801561100057505f600354145b15611010578892508791506110ee565b5f6002546003548b6110229190611f6f565b61102c91906122d3565b90508881116110835786811015611078576040517f08c379a000000000000000000000000000000000000000000000000000000000815260040161106f90612753565b60405180910390fd5b8993508092506110ec565b5f6003546002548b6110959190611f6f565b61109f91906122d3565b9050888110156110e4576040517f08c379a00000000000000000000000000000000000000000000000000000000081526004016110db906127bb565b60405180910390fd5b809450899350505b505b7f000000000000000000000000000000000000000000000000000000000000000073ffffffffffffffffffffffffffffffffffffffff166323b872dd3330866040518463ffffffff1660e01b815260040161114b93929190612176565b6020604051808303815f875af1158015611167573d5f5f3e3d5ffd5b505050506040513d601f19601f8201168201806040525081019061118b91906121e0565b6111ca576040517f08c379a00000000000000000000000000000000000000000000000000000000081526004016111c190612823565b60405180910390fd5b7f000000000000000000000000000000000000000000000000000000000000000073ffffffffffffffffffffffffffffffffffffffff166323b872dd3330856040518463ffffffff1660e01b815260040161122793929190612176565b6020604051808303815f875af1158015611243573d5f5f3e3d5ffd5b505050506040513d601f19601f8201168201806040525081019061126791906121e0565b6112a6576040517f08c379a000000000000000000000000000000000000000000000000000000000815260040161129d9061288b565b60405180910390fd5b8260025f8282546112b79190612273565b925050819055508160035f8282546112cf9190612273565b925050819055506112ea82846112e59190611f6f565b6119ba565b905060015f9054906101000a900473ffffffffffffffffffffffffffffffffffffffff1673ffffffffffffffffffffffffffffffffffffffff166340c10f1986836040518363ffffffff1660e01b815260040161134892919061239e565b5f604051808303815f87803b15801561135f575f5ffd5b505af1158015611371573d5f5f3e3d5ffd5b505050508473ffffffffffffffffffffffffffffffffffffffff167f64b83944e79c3ce8d4c297411de637c3e102d064677aac0c163976ebdcd6f50e8484846040516113bf93929190611e6f565b60405180910390a296509650969350505050565b5f5f82421115611418576040517f08c379a000000000000000000000000000000000000000000000000000000000815260040161140f9061200a565b60405180910390fd5b5f73ffffffffffffffffffffffffffffffffffffffff168473ffffffffffffffffffffffffffffffffffffffff1603611486576040517f08c379a000000000000000000000000000000000000000000000000000000000815260040161147d906126eb565b60405180910390fd5b8660015f9054906101000a900473ffffffffffffffffffffffffffffffffffffffff1673ffffffffffffffffffffffffffffffffffffffff166370a08231336040518263ffffffff1660e01b81526004016114e19190611a70565b602060405180830381865afa1580156114fc573d5f5f3e3d5ffd5b505050506040513d601f19601f820116820180604052508101906115209190612676565b1015611561576040517f08c379a0000000000000000000000000000000000000000000000000000000008152600401611558906128f3565b60405180910390fd5b5f60015f9054906101000a900473ffffffffffffffffffffffffffffffffffffffff1673ffffffffffffffffffffffffffffffffffffffff166318160ddd6040518163ffffffff1660e01b8152600401602060405180830381865afa1580156115cc573d5f5f3e3d5ffd5b505050506040513d601f19601f820116820180604052508101906115f09190612676565b90505f8111611634576040517f08c379a000000000000000000000000000000000000000000000000000000000815260040161162b90612574565b60405180910390fd5b80600254896116439190611f6f565b61164d91906122d3565b9250806003548961165e9190611f6f565b61166891906122d3565b9150868310156116ad576040517f08c379a00000000000000000000000000000000000000000000000000000000081526004016116a4906127bb565b60405180910390fd5b858210156116f0576040517f08c379a00000000000000000000000000000000000000000000000000000000081526004016116e790612753565b60405180910390fd5b8260025f828254611701919061236b565b925050819055508160035f828254611719919061236b565b9250508190555060015f9054906101000a900473ffffffffffffffffffffffffffffffffffffffff1673ffffffffffffffffffffffffffffffffffffffff16639dc29fac338a6040518363ffffffff1660e01b815260040161177c92919061239e565b5f604051808303815f87803b158015611793575f5ffd5b505af11580156117a5573d5f5f3e3d5ffd5b505050507f000000000000000000000000000000000000000000000000000000000000000073ffffffffffffffffffffffffffffffffffffffff1663a9059cbb86856040518363ffffffff1660e01b815260040161180492919061239e565b6020604051808303815f875af1158015611820573d5f5f3e3d5ffd5b505050506040513d601f19601f8201168201806040525081019061184491906121e0565b611883576040517f08c379a000000000000000000000000000000000000000000000000000000000815260040161187a90612823565b60405180910390fd5b7f000000000000000000000000000000000000000000000000000000000000000073ffffffffffffffffffffffffffffffffffffffff1663a9059cbb86846040518363ffffffff1660e01b81526004016118de92919061239e565b6020604051808303815f875af11580156118fa573d5f5f3e3d5ffd5b505050506040513d601f19601f8201168201806040525081019061191e91906121e0565b61195d576040517f08c379a00000000000000000000000000000000000000000000000000000000081526004016119549061288b565b60405180910390fd5b8473ffffffffffffffffffffffffffffffffffffffff167f1dc8bb69df2b8e91fbdcbfcf93d951b3f0000f085a95fe3f7946d6161439245d84848b6040516119a793929190611e6f565b60405180910390a2509550959350505050565b5f6003821115611a1f578190505f60016002846119d791906122d3565b6119e19190612273565b90505b81811015611a195780915060028182856119fe91906122d3565b611a089190612273565b611a1291906122d3565b90506119e4565b50611a2c565b5f8214611a2b57600190505b5b919050565b5f73ffffffffffffffffffffffffffffffffffffffff82169050919050565b5f611a5a82611a31565b9050919050565b611a6a81611a50565b82525050565b5f602082019050611a835f830184611a61565b92915050565b5f819050919050565b611a9b81611a89565b82525050565b5f602082019050611ab45f830184611a92565b92915050565b5f5ffd5b5f5ffd5b611acb81611a89565b8114611ad5575f5ffd5b50565b5f81359050611ae681611ac2565b92915050565b5f5ffd5b5f5ffd5b5f5ffd5b5f5f83601f840112611b0d57611b0c611aec565b5b8235905067ffffffffffffffff811115611b2a57611b29611af0565b5b602083019150836020820283011115611b4657611b45611af4565b5b9250929050565b611b5681611a50565b8114611b60575f5ffd5b50565b5f81359050611b7181611b4d565b92915050565b5f5f5f5f5f5f60a08789031215611b9157611b90611aba565b5b5f611b9e89828a01611ad8565b9650506020611baf89828a01611ad8565b955050604087013567ffffffffffffffff811115611bd057611bcf611abe565b5b611bdc89828a01611af8565b94509450506060611bef89828a01611b63565b9250506080611c0089828a01611ad8565b9150509295509295509295565b5f81519050919050565b5f82825260208201905092915050565b5f819050602082019050919050565b611c3f81611a89565b82525050565b5f611c508383611c36565b60208301905092915050565b5f602082019050919050565b5f611c7282611c0d565b611c7c8185611c17565b9350611c8783611c27565b805f5b83811015611cb7578151611c9e8882611c45565b9750611ca983611c5c565b925050600181019050611c8a565b5085935050505092915050565b5f6020820190508181035f830152611cdc8184611c68565b905092915050565b5f5f5f60608486031215611cfb57611cfa611aba565b5b5f611d0886828701611b63565b9350506020611d1986828701611b63565b9250506040611d2a86828701611ad8565b9150509250925092565b5f819050919050565b5f611d57611d52611d4d84611a31565b611d34565b611a31565b9050919050565b5f611d6882611d3d565b9050919050565b5f611d7982611d5e565b9050919050565b611d8981611d6f565b82525050565b5f602082019050611da25f830184611d80565b92915050565b5f5f60408385031215611dbe57611dbd611aba565b5b5f611dcb85828601611b63565b9250506020611ddc85828601611b63565b9150509250929050565b5f5f5f5f5f5f60c08789031215611e0057611dff611aba565b5b5f611e0d89828a01611ad8565b9650506020611e1e89828a01611ad8565b9550506040611e2f89828a01611ad8565b9450506060611e4089828a01611ad8565b9350506080611e5189828a01611b63565b92505060a0611e6289828a01611ad8565b9150509295509295509295565b5f606082019050611e825f830186611a92565b611e8f6020830185611a92565b611e9c6040830184611a92565b949350505050565b5f5f5f5f5f60a08688031215611ebd57611ebc611aba565b5b5f611eca88828901611ad8565b9550506020611edb88828901611ad8565b9450506040611eec88828901611ad8565b9350506060611efd88828901611b63565b9250506080611f0e88828901611ad8565b9150509295509295909350565b5f604082019050611f2e5f830185611a92565b611f3b6020830184611a92565b9392505050565b7f4e487b71000000000000000000000000000000000000000000000000000000005f52601160045260245ffd5b5f611f7982611a89565b9150611f8483611a89565b9250828202611f9281611a89565b91508282048414831517611fa957611fa8611f42565b5b5092915050565b5f82825260208201905092915050565b7f5472616e73616374696f6e2065787069726564000000000000000000000000005f82015250565b5f611ff4601383611fb0565b9150611fff82611fc0565b602082019050919050565b5f6020820190508181035f83015261202181611fe8565b9050919050565b7f4f6e6c792064697265637420746f6b656e20737761707320737570706f7274655f8201527f6400000000000000000000000000000000000000000000000000000000000000602082015250565b5f612082602183611fb0565b915061208d82612028565b604082019050919050565b5f6020820190508181035f8301526120af81612076565b9050919050565b7f4e487b71000000000000000000000000000000000000000000000000000000005f52603260045260245ffd5b5f602082840312156120f8576120f7611aba565b5b5f61210584828501611b63565b91505092915050565b7f496e76616c696420746f6b656e207061746800000000000000000000000000005f82015250565b5f612142601283611fb0565b915061214d8261210e565b602082019050919050565b5f6020820190508181035f83015261216f81612136565b9050919050565b5f6060820190506121895f830186611a61565b6121966020830185611a61565b6121a36040830184611a92565b949350505050565b5f8115159050919050565b6121bf816121ab565b81146121c9575f5ffd5b50565b5f815190506121da816121b6565b92915050565b5f602082840312156121f5576121f4611aba565b5b5f612202848285016121cc565b91505092915050565b7f5472616e7366657246726f6d206661696c6564000000000000000000000000005f82015250565b5f61223f601383611fb0565b915061224a8261220b565b602082019050919050565b5f6020820190508181035f83015261226c81612233565b9050919050565b5f61227d82611a89565b915061228883611a89565b92508282019050808211156122a05761229f611f42565b5b92915050565b7f4e487b71000000000000000000000000000000000000000000000000000000005f52601260045260245ffd5b5f6122dd82611a89565b91506122e883611a89565b9250826122f8576122f76122a6565b5b828204905092915050565b7f496e73756666696369656e74206f7574707574000000000000000000000000005f82015250565b5f612337601383611fb0565b915061234282612303565b602082019050919050565b5f6020820190508181035f8301526123648161232b565b9050919050565b5f61237582611a89565b915061238083611a89565b925082820390508181111561239857612397611f42565b5b92915050565b5f6040820190506123b15f830185611a61565b6123be6020830184611a92565b9392505050565b7f5472616e73666572206f7574707574206661696c6564000000000000000000005f82015250565b5f6123f9601683611fb0565b9150612404826123c5565b602082019050919050565b5f6020820190508181035f830152612426816123ed565b9050919050565b7f4e487b71000000000000000000000000000000000000000000000000000000005f52604160045260245ffd5b7f496e76616c696420696e707574000000000000000000000000000000000000005f82015250565b5f61248e600d83611fb0565b91506124998261245a565b602082019050919050565b5f6020820190508181035f8301526124bb81612482565b9050919050565b7f496e76616c696420746f6b656e730000000000000000000000000000000000005f82015250565b5f6124f6600e83611fb0565b9150612501826124c2565b602082019050919050565b5f6020820190508181035f830152612523816124ea565b9050919050565b7f4e6f206c697175696469747900000000000000000000000000000000000000005f82015250565b5f61255e600c83611fb0565b91506125698261252a565b602082019050919050565b5f6020820190508181035f83015261258b81612552565b9050919050565b7f546f6b656e73206d7573742064696666657200000000000000000000000000005f82015250565b5f6125c6601283611fb0565b91506125d182612592565b602082019050919050565b5f6020820190508181035f8301526125f3816125ba565b9050919050565b7f496e76616c6964206164647265737300000000000000000000000000000000005f82015250565b5f61262e600f83611fb0565b9150612639826125fa565b602082019050919050565b5f6020820190508181035f83015261265b81612622565b9050919050565b5f8151905061267081611ac2565b92915050565b5f6020828403121561268b5761268a611aba565b5b5f61269884828501612662565b91505092915050565b7f496e76616c696420726563697069656e740000000000000000000000000000005f82015250565b5f6126d5601183611fb0565b91506126e0826126a1565b602082019050919050565b5f6020820190508181035f830152612702816126c9565b9050919050565b7f536c6970706167653a204220746f6f206c6f77000000000000000000000000005f82015250565b5f61273d601383611fb0565b915061274882612709565b602082019050919050565b5f6020820190508181035f83015261276a81612731565b9050919050565b7f536c6970706167653a204120746f6f206c6f77000000000000000000000000005f82015250565b5f6127a5601383611fb0565b91506127b082612771565b602082019050919050565b5f6020820190508181035f8301526127d281612799565b9050919050565b7f5472616e7366657220746f6b656e41206661696c6564000000000000000000005f82015250565b5f61280d601683611fb0565b9150612818826127d9565b602082019050919050565b5f6020820190508181035f83015261283a81612801565b9050919050565b7f5472616e7366657220746f6b656e42206661696c6564000000000000000000005f82015250565b5f612875601683611fb0565b915061288082612841565b602082019050919050565b5f6020820190508181035f8301526128a281612869565b9050919050565b7f4e6f7420656e6f756768206c69717569646974790000000000000000000000005f82015250565b5f6128dd601483611fb0565b91506128e8826128a9565b602082019050919050565b5f6020820190508181035f83015261290a816128d1565b905091905056fea2646970667358221220cf126b52f40f434aafc1d0900564b94a9d1eb8a1fe038223b13c9a7a8065796464736f6c634300081e0033",
					"opcodes": "PUSH1 0xC0 PUSH1 0x40 MSTORE CALLVALUE DUP1 ISZERO PUSH2 0xF JUMPI PUSH0 PUSH0 REVERT JUMPDEST POP PUSH1 0x40 MLOAD PUSH2 0x2C85 CODESIZE SUB DUP1 PUSH2 0x2C85 DUP4 CODECOPY DUP2 DUP2 ADD PUSH1 0x40 MSTORE DUP2 ADD SWAP1 PUSH2 0x31 SWAP2 SWAP1 PUSH2 0x1EC JUMP JUMPDEST DUP2 PUSH20 0xFFFFFFFFFFFFFFFFFFFFFFFFFFFFFFFFFFFFFFFF AND DUP4 PUSH20 0xFFFFFFFFFFFFFFFFFFFFFFFFFFFFFFFFFFFFFFFF AND SUB PUSH2 0x9F JUMPI PUSH1 0x40 MLOAD PUSH32 0x8C379A000000000000000000000000000000000000000000000000000000000 DUP2 MSTORE PUSH1 0x4 ADD PUSH2 0x96 SWAP1 PUSH2 0x296 JUMP JUMPDEST PUSH1 0x40 MLOAD DUP1 SWAP2 SUB SWAP1 REVERT JUMPDEST DUP3 PUSH20 0xFFFFFFFFFFFFFFFFFFFFFFFFFFFFFFFFFFFFFFFF AND PUSH1 0x80 DUP2 PUSH20 0xFFFFFFFFFFFFFFFFFFFFFFFFFFFFFFFFFFFFFFFF AND DUP2 MSTORE POP POP DUP2 PUSH20 0xFFFFFFFFFFFFFFFFFFFFFFFFFFFFFFFFFFFFFFFF AND PUSH1 0xA0 DUP2 PUSH20 0xFFFFFFFFFFFFFFFFFFFFFFFFFFFFFFFFFFFFFFFF AND DUP2 MSTORE POP POP CALLER PUSH0 PUSH0 PUSH2 0x100 EXP DUP2 SLOAD DUP2 PUSH20 0xFFFFFFFFFFFFFFFFFFFFFFFFFFFFFFFFFFFFFFFF MUL NOT AND SWAP1 DUP4 PUSH20 0xFFFFFFFFFFFFFFFFFFFFFFFFFFFFFFFFFFFFFFFF AND MUL OR SWAP1 SSTORE POP DUP1 PUSH1 0x1 PUSH0 PUSH2 0x100 EXP DUP2 SLOAD DUP2 PUSH20 0xFFFFFFFFFFFFFFFFFFFFFFFFFFFFFFFFFFFFFFFF MUL NOT AND SWAP1 DUP4 PUSH20 0xFFFFFFFFFFFFFFFFFFFFFFFFFFFFFFFFFFFFFFFF AND MUL OR SWAP1 SSTORE POP POP POP POP PUSH2 0x2B4 JUMP JUMPDEST PUSH0 PUSH0 REVERT JUMPDEST PUSH0 PUSH20 0xFFFFFFFFFFFFFFFFFFFFFFFFFFFFFFFFFFFFFFFF DUP3 AND SWAP1 POP SWAP2 SWAP1 POP JUMP JUMPDEST PUSH0 PUSH2 0x1BB DUP3 PUSH2 0x192 JUMP JUMPDEST SWAP1 POP SWAP2 SWAP1 POP JUMP JUMPDEST PUSH2 0x1CB DUP2 PUSH2 0x1B1 JUMP JUMPDEST DUP2 EQ PUSH2 0x1D5 JUMPI PUSH0 PUSH0 REVERT JUMPDEST POP JUMP JUMPDEST PUSH0 DUP2 MLOAD SWAP1 POP PUSH2 0x1E6 DUP2 PUSH2 0x1C2 JUMP JUMPDEST SWAP3 SWAP2 POP POP JUMP JUMPDEST PUSH0 PUSH0 PUSH0 PUSH1 0x60 DUP5 DUP7 SUB SLT ISZERO PUSH2 0x203 JUMPI PUSH2 0x202 PUSH2 0x18E JUMP JUMPDEST JUMPDEST PUSH0 PUSH2 0x210 DUP7 DUP3 DUP8 ADD PUSH2 0x1D8 JUMP JUMPDEST SWAP4 POP POP PUSH1 0x20 PUSH2 0x221 DUP7 DUP3 DUP8 ADD PUSH2 0x1D8 JUMP JUMPDEST SWAP3 POP POP PUSH1 0x40 PUSH2 0x232 DUP7 DUP3 DUP8 ADD PUSH2 0x1D8 JUMP JUMPDEST SWAP2 POP POP SWAP3 POP SWAP3 POP SWAP3 JUMP JUMPDEST PUSH0 DUP3 DUP3 MSTORE PUSH1 0x20 DUP3 ADD SWAP1 POP SWAP3 SWAP2 POP POP JUMP JUMPDEST PUSH32 0x546F6B656E73206D75737420626520646966666572656E740000000000000000 PUSH0 DUP3 ADD MSTORE POP JUMP JUMPDEST PUSH0 PUSH2 0x280 PUSH1 0x18 DUP4 PUSH2 0x23C JUMP JUMPDEST SWAP2 POP PUSH2 0x28B DUP3 PUSH2 0x24C JUMP JUMPDEST PUSH1 0x20 DUP3 ADD SWAP1 POP SWAP2 SWAP1 POP JUMP JUMPDEST PUSH0 PUSH1 0x20 DUP3 ADD SWAP1 POP DUP2 DUP2 SUB PUSH0 DUP4 ADD MSTORE PUSH2 0x2AD DUP2 PUSH2 0x274 JUMP JUMPDEST SWAP1 POP SWAP2 SWAP1 POP JUMP JUMPDEST PUSH1 0x80 MLOAD PUSH1 0xA0 MLOAD PUSH2 0x2947 PUSH2 0x33E PUSH0 CODECOPY PUSH0 DUP2 DUP2 PUSH2 0x3FD ADD MSTORE DUP2 DUP2 PUSH2 0x453 ADD MSTORE DUP2 DUP2 PUSH2 0x9AE ADD MSTORE DUP2 DUP2 PUSH2 0xA04 ADD MSTORE DUP2 DUP2 PUSH2 0xC47 ADD MSTORE DUP2 DUP2 PUSH2 0x11CC ADD MSTORE PUSH2 0x1885 ADD MSTORE PUSH0 DUP2 DUP2 PUSH2 0x27D ADD MSTORE DUP2 DUP2 PUSH2 0x3A7 ADD MSTORE DUP2 DUP2 PUSH2 0x4A9 ADD MSTORE DUP2 DUP2 PUSH2 0x609 ADD MSTORE DUP2 DUP2 PUSH2 0x958 ADD MSTORE DUP2 DUP2 PUSH2 0xA5A ADD MSTORE DUP2 DUP2 PUSH2 0xAEB ADD MSTORE DUP2 DUP2 PUSH2 0xB4D ADD MSTORE DUP2 DUP2 PUSH2 0x10F0 ADD MSTORE PUSH2 0x17AB ADD MSTORE PUSH2 0x2947 PUSH0 RETURN INVALID PUSH1 0x80 PUSH1 0x40 MSTORE CALLVALUE DUP1 ISZERO PUSH2 0xF JUMPI PUSH0 PUSH0 REVERT JUMPDEST POP PUSH1 0x4 CALLDATASIZE LT PUSH2 0xB2 JUMPI PUSH0 CALLDATALOAD PUSH1 0xE0 SHR DUP1 PUSH4 0x5FCBD285 GT PUSH2 0x6F JUMPI DUP1 PUSH4 0x5FCBD285 EQ PUSH2 0x18E JUMPI DUP1 PUSH4 0x8DA5CB5B EQ PUSH2 0x1AC JUMPI DUP1 PUSH4 0xAC41865A EQ PUSH2 0x1CA JUMPI DUP1 PUSH4 0xDC5FA6C5 EQ PUSH2 0x1FA JUMPI DUP1 PUSH4 0xDED998B9 EQ PUSH2 0x218 JUMPI DUP1 PUSH4 0xED856CDC EQ PUSH2 0x24A JUMPI PUSH2 0xB2 JUMP JUMPDEST DUP1 PUSH4 0xFC63D10 EQ PUSH2 0xB6 JUMPI DUP1 PUSH4 0x15770F92 EQ PUSH2 0xD4 JUMPI DUP1 PUSH4 0x19E36F3B EQ PUSH2 0xF2 JUMPI DUP1 PUSH4 0x38ED1739 EQ PUSH2 0x110 JUMPI DUP1 PUSH4 0x4AA06652 EQ PUSH2 0x140 JUMPI DUP1 PUSH4 0x5F64B55B EQ PUSH2 0x170 JUMPI JUMPDEST PUSH0 PUSH0 REVERT JUMPDEST PUSH2 0xBE PUSH2 0x27B JUMP JUMPDEST PUSH1 0x40 MLOAD PUSH2 0xCB SWAP2 SWAP1 PUSH2 0x1A70 JUMP JUMPDEST PUSH1 0x40 MLOAD DUP1 SWAP2 SUB SWAP1 RETURN JUMPDEST PUSH2 0xDC PUSH2 0x29F JUMP JUMPDEST PUSH1 0x40 MLOAD PUSH2 0xE9 SWAP2 SWAP1 PUSH2 0x1AA1 JUMP JUMPDEST PUSH1 0x40 MLOAD DUP1 SWAP2 SUB SWAP1 RETURN JUMPDEST PUSH2 0xFA PUSH2 0x2BD JUMP JUMPDEST PUSH1 0x40 MLOAD PUSH2 0x107 SWAP2 SWAP1 PUSH2 0x1AA1 JUMP JUMPDEST PUSH1 0x40 MLOAD DUP1 SWAP2 SUB SWAP1 RETURN JUMPDEST PUSH2 0x12A PUSH1 0x4 DUP1 CALLDATASIZE SUB DUP2 ADD SWAP1 PUSH2 0x125 SWAP2 SWAP1 PUSH2 0x1B77 JUMP JUMPDEST PUSH2 0x2C3 JUMP JUMPDEST PUSH1 0x40 MLOAD PUSH2 0x137 SWAP2 SWAP1 PUSH2 0x1CC4 JUMP JUMPDEST PUSH1 0x40 MLOAD DUP1 SWAP2 SUB SWAP1 RETURN JUMPDEST PUSH2 0x15A PUSH1 0x4 DUP1 CALLDATASIZE SUB DUP2 ADD SWAP1 PUSH2 0x155 SWAP2 SWAP1 PUSH2 0x1CE4 JUMP JUMPDEST PUSH2 0x913 JUMP JUMPDEST PUSH1 0x40 MLOAD PUSH2 0x167 SWAP2 SWAP1 PUSH2 0x1AA1 JUMP JUMPDEST PUSH1 0x40 MLOAD DUP1 SWAP2 SUB SWAP1 RETURN JUMPDEST PUSH2 0x178 PUSH2 0xC45 JUMP JUMPDEST PUSH1 0x40 MLOAD PUSH2 0x185 SWAP2 SWAP1 PUSH2 0x1A70 JUMP JUMPDEST PUSH1 0x40 MLOAD DUP1 SWAP2 SUB SWAP1 RETURN JUMPDEST PUSH2 0x196 PUSH2 0xC69 JUMP JUMPDEST PUSH1 0x40 MLOAD PUSH2 0x1A3 SWAP2 SWAP1 PUSH2 0x1D8F JUMP JUMPDEST PUSH1 0x40 MLOAD DUP1 SWAP2 SUB SWAP1 RETURN JUMPDEST PUSH2 0x1B4 PUSH2 0xC8E JUMP JUMPDEST PUSH1 0x40 MLOAD PUSH2 0x1C1 SWAP2 SWAP1 PUSH2 0x1A70 JUMP JUMPDEST PUSH1 0x40 MLOAD DUP1 SWAP2 SUB SWAP1 RETURN JUMPDEST PUSH2 0x1E4 PUSH1 0x4 DUP1 CALLDATASIZE SUB DUP2 ADD SWAP1 PUSH2 0x1DF SWAP2 SWAP1 PUSH2 0x1DA8 JUMP JUMPDEST PUSH2 0xCB2 JUMP JUMPDEST PUSH1 0x40 MLOAD PUSH2 0x1F1 SWAP2 SWAP1 PUSH2 0x1AA1 JUMP JUMPDEST PUSH1 0x40 MLOAD DUP1 SWAP2 SUB SWAP1 RETURN JUMPDEST PUSH2 0x202 PUSH2 0xF34 JUMP JUMPDEST PUSH1 0x40 MLOAD PUSH2 0x20F SWAP2 SWAP1 PUSH2 0x1AA1 JUMP JUMPDEST PUSH1 0x40 MLOAD DUP1 SWAP2 SUB SWAP1 RETURN JUMPDEST PUSH2 0x232 PUSH1 0x4 DUP1 CALLDATASIZE SUB DUP2 ADD SWAP1 PUSH2 0x22D SWAP2 SWAP1 PUSH2 0x1DE6 JUMP JUMPDEST PUSH2 0xF3A JUMP JUMPDEST PUSH1 0x40 MLOAD PUSH2 0x241 SWAP4 SWAP3 SWAP2 SWAP1 PUSH2 0x1E6F JUMP JUMPDEST PUSH1 0x40 MLOAD DUP1 SWAP2 SUB SWAP1 RETURN JUMPDEST PUSH2 0x264 PUSH1 0x4 DUP1 CALLDATASIZE SUB DUP2 ADD SWAP1 PUSH2 0x25F SWAP2 SWAP1 PUSH2 0x1EA4 JUMP JUMPDEST PUSH2 0x13D3 JUMP JUMPDEST PUSH1 0x40 MLOAD PUSH2 0x272 SWAP3 SWAP2 SWAP1 PUSH2 0x1F1B JUMP JUMPDEST PUSH1 0x40 MLOAD DUP1 SWAP2 SUB SWAP1 RETURN JUMPDEST PUSH32 0x0 DUP2 JUMP JUMPDEST PUSH0 PUSH2 0x2B8 PUSH1 0x3 SLOAD PUSH1 0x2 SLOAD PUSH2 0x2B3 SWAP2 SWAP1 PUSH2 0x1F6F JUMP JUMPDEST PUSH2 0x19BA JUMP JUMPDEST SWAP1 POP SWAP1 JUMP JUMPDEST PUSH1 0x3 SLOAD DUP2 JUMP JUMPDEST PUSH1 0x60 DUP2 TIMESTAMP GT ISZERO PUSH2 0x308 JUMPI PUSH1 0x40 MLOAD PUSH32 0x8C379A000000000000000000000000000000000000000000000000000000000 DUP2 MSTORE PUSH1 0x4 ADD PUSH2 0x2FF SWAP1 PUSH2 0x200A JUMP JUMPDEST PUSH1 0x40 MLOAD DUP1 SWAP2 SUB SWAP1 REVERT JUMPDEST PUSH1 0x2 DUP6 DUP6 SWAP1 POP EQ PUSH2 0x34E JUMPI PUSH1 0x40 MLOAD PUSH32 0x8C379A000000000000000000000000000000000000000000000000000000000 DUP2 MSTORE PUSH1 0x4 ADD PUSH2 0x345 SWAP1 PUSH2 0x2098 JUMP JUMPDEST PUSH1 0x40 MLOAD DUP1 SWAP2 SUB SWAP1 REVERT JUMPDEST PUSH0 DUP6 DUP6 PUSH0 DUP2 DUP2 LT PUSH2 0x362 JUMPI PUSH2 0x361 PUSH2 0x20B6 JUMP JUMPDEST JUMPDEST SWAP1 POP PUSH1 0x20 MUL ADD PUSH1 0x20 DUP2 ADD SWAP1 PUSH2 0x377 SWAP2 SWAP1 PUSH2 0x20E3 JUMP JUMPDEST SWAP1 POP PUSH0 DUP7 DUP7 PUSH1 0x1 DUP2 DUP2 LT PUSH2 0x38E JUMPI PUSH2 0x38D PUSH2 0x20B6 JUMP JUMPDEST JUMPDEST SWAP1 POP PUSH1 0x20 MUL ADD PUSH1 0x20 DUP2 ADD SWAP1 PUSH2 0x3A3 SWAP2 SWAP1 PUSH2 0x20E3 JUMP JUMPDEST SWAP1 POP PUSH32 0x0 PUSH20 0xFFFFFFFFFFFFFFFFFFFFFFFFFFFFFFFFFFFFFFFF AND DUP3 PUSH20 0xFFFFFFFFFFFFFFFFFFFFFFFFFFFFFFFFFFFFFFFF AND EQ DUP1 ISZERO PUSH2 0x44B JUMPI POP PUSH32 0x0 PUSH20 0xFFFFFFFFFFFFFFFFFFFFFFFFFFFFFFFFFFFFFFFF AND DUP2 PUSH20 0xFFFFFFFFFFFFFFFFFFFFFFFFFFFFFFFFFFFFFFFF AND EQ JUMPDEST DUP1 PUSH2 0x4F8 JUMPI POP PUSH32 0x0 PUSH20 0xFFFFFFFFFFFFFFFFFFFFFFFFFFFFFFFFFFFFFFFF AND DUP3 PUSH20 0xFFFFFFFFFFFFFFFFFFFFFFFFFFFFFFFFFFFFFFFF AND EQ DUP1 ISZERO PUSH2 0x4F7 JUMPI POP PUSH32 0x0 PUSH20 0xFFFFFFFFFFFFFFFFFFFFFFFFFFFFFFFFFFFFFFFF AND DUP2 PUSH20 0xFFFFFFFFFFFFFFFFFFFFFFFFFFFFFFFFFFFFFFFF AND EQ JUMPDEST JUMPDEST PUSH2 0x537 JUMPI PUSH1 0x40 MLOAD PUSH32 0x8C379A000000000000000000000000000000000000000000000000000000000 DUP2 MSTORE PUSH1 0x4 ADD PUSH2 0x52E SWAP1 PUSH2 0x2158 JUMP JUMPDEST PUSH1 0x40 MLOAD DUP1 SWAP2 SUB SWAP1 REVERT JUMPDEST DUP2 PUSH20 0xFFFFFFFFFFFFFFFFFFFFFFFFFFFFFFFFFFFFFFFF AND PUSH4 0x23B872DD CALLER ADDRESS DUP13 PUSH1 0x40 MLOAD DUP5 PUSH4 0xFFFFFFFF AND PUSH1 0xE0 SHL DUP2 MSTORE PUSH1 0x4 ADD PUSH2 0x574 SWAP4 SWAP3 SWAP2 SWAP1 PUSH2 0x2176 JUMP JUMPDEST PUSH1 0x20 PUSH1 0x40 MLOAD DUP1 DUP4 SUB DUP2 PUSH0 DUP8 GAS CALL ISZERO DUP1 ISZERO PUSH2 0x590 JUMPI RETURNDATASIZE PUSH0 PUSH0 RETURNDATACOPY RETURNDATASIZE PUSH0 REVERT JUMPDEST POP POP POP POP PUSH1 0x40 MLOAD RETURNDATASIZE PUSH1 0x1F NOT PUSH1 0x1F DUP3 ADD AND DUP3 ADD DUP1 PUSH1 0x40 MSTORE POP DUP2 ADD SWAP1 PUSH2 0x5B4 SWAP2 SWAP1 PUSH2 0x21E0 JUMP JUMPDEST PUSH2 0x5F3 JUMPI PUSH1 0x40 MLOAD PUSH32 0x8C379A000000000000000000000000000000000000000000000000000000000 DUP2 MSTORE PUSH1 0x4 ADD PUSH2 0x5EA SWAP1 PUSH2 0x2255 JUMP JUMPDEST PUSH1 0x40 MLOAD DUP1 SWAP2 SUB SWAP1 REVERT JUMPDEST PUSH0 PUSH2 0x3E5 DUP11 PUSH2 0x602 SWAP2 SWAP1 PUSH2 0x1F6F JUMP JUMPDEST SWAP1 POP PUSH0 PUSH0 PUSH0 PUSH32 0x0 PUSH20 0xFFFFFFFFFFFFFFFFFFFFFFFFFFFFFFFFFFFFFFFF AND DUP7 PUSH20 0xFFFFFFFFFFFFFFFFFFFFFFFFFFFFFFFFFFFFFFFF AND SUB PUSH2 0x70D JUMPI PUSH1 0x3 SLOAD DUP5 PUSH2 0x668 SWAP2 SWAP1 PUSH2 0x1F6F JUMP JUMPDEST SWAP3 POP DUP4 PUSH2 0x3E8 PUSH1 0x2 SLOAD PUSH2 0x67B SWAP2 SWAP1 PUSH2 0x1F6F JUMP JUMPDEST PUSH2 0x685 SWAP2 SWAP1 PUSH2 0x2273 JUMP JUMPDEST SWAP2 POP DUP2 DUP4 PUSH2 0x693 SWAP2 SWAP1 PUSH2 0x22D3 JUMP JUMPDEST SWAP1 POP DUP12 DUP2 LT ISZERO PUSH2 0x6D8 JUMPI PUSH1 0x40 MLOAD PUSH32 0x8C379A000000000000000000000000000000000000000000000000000000000 DUP2 MSTORE PUSH1 0x4 ADD PUSH2 0x6CF SWAP1 PUSH2 0x234D JUMP JUMPDEST PUSH1 0x40 MLOAD DUP1 SWAP2 SUB SWAP1 REVERT JUMPDEST DUP13 PUSH1 0x2 PUSH0 DUP3 DUP3 SLOAD PUSH2 0x6E9 SWAP2 SWAP1 PUSH2 0x2273 JUMP JUMPDEST SWAP3 POP POP DUP2 SWAP1 SSTORE POP DUP1 PUSH1 0x3 PUSH0 DUP3 DUP3 SLOAD PUSH2 0x701 SWAP2 SWAP1 PUSH2 0x236B JUMP JUMPDEST SWAP3 POP POP DUP2 SWAP1 SSTORE POP PUSH2 0x7BC JUMP JUMPDEST PUSH1 0x2 SLOAD DUP5 PUSH2 0x71B SWAP2 SWAP1 PUSH2 0x1F6F JUMP JUMPDEST SWAP3 POP DUP4 PUSH2 0x3E8 PUSH1 0x3 SLOAD PUSH2 0x72E SWAP2 SWAP1 PUSH2 0x1F6F JUMP JUMPDEST PUSH2 0x738 SWAP2 SWAP1 PUSH2 0x2273 JUMP JUMPDEST SWAP2 POP DUP2 DUP4 PUSH2 0x746 SWAP2 SWAP1 PUSH2 0x22D3 JUMP JUMPDEST SWAP1 POP DUP12 DUP2 LT ISZERO PUSH2 0x78B JUMPI PUSH1 0x40 MLOAD PUSH32 0x8C379A000000000000000000000000000000000000000000000000000000000 DUP2 MSTORE PUSH1 0x4 ADD PUSH2 0x782 SWAP1 PUSH2 0x234D JUMP JUMPDEST PUSH1 0x40 MLOAD DUP1 SWAP2 SUB SWAP1 REVERT JUMPDEST DUP13 PUSH1 0x3 PUSH0 DUP3 DUP3 SLOAD PUSH2 0x79C SWAP2 SWAP1 PUSH2 0x2273 JUMP JUMPDEST SWAP3 POP POP DUP2 SWAP1 SSTORE POP DUP1 PUSH1 0x2 PUSH0 DUP3 DUP3 SLOAD PUSH2 0x7B4 SWAP2 SWAP1 PUSH2 0x236B JUMP JUMPDEST SWAP3 POP POP DUP2 SWAP1 SSTORE POP JUMPDEST DUP5 PUSH20 0xFFFFFFFFFFFFFFFFFFFFFFFFFFFFFFFFFFFFFFFF AND PUSH4 0xA9059CBB DUP11 DUP4 PUSH1 0x40 MLOAD DUP4 PUSH4 0xFFFFFFFF AND PUSH1 0xE0 SHL DUP2 MSTORE PUSH1 0x4 ADD PUSH2 0x7F7 SWAP3 SWAP2 SWAP1 PUSH2 0x239E JUMP JUMPDEST PUSH1 0x20 PUSH1 0x40 MLOAD DUP1 DUP4 SUB DUP2 PUSH0 DUP8 GAS CALL ISZERO DUP1 ISZERO PUSH2 0x813 JUMPI RETURNDATASIZE PUSH0 PUSH0 RETURNDATACOPY RETURNDATASIZE PUSH0 REVERT JUMPDEST POP POP POP POP PUSH1 0x40 MLOAD RETURNDATASIZE PUSH1 0x1F NOT PUSH1 0x1F DUP3 ADD AND DUP3 ADD DUP1 PUSH1 0x40 MSTORE POP DUP2 ADD SWAP1 PUSH2 0x837 SWAP2 SWAP1 PUSH2 0x21E0 JUMP JUMPDEST PUSH2 0x876 JUMPI PUSH1 0x40 MLOAD PUSH32 0x8C379A000000000000000000000000000000000000000000000000000000000 DUP2 MSTORE PUSH1 0x4 ADD PUSH2 0x86D SWAP1 PUSH2 0x240F JUMP JUMPDEST PUSH1 0x40 MLOAD DUP1 SWAP2 SUB SWAP1 REVERT JUMPDEST PUSH1 0x2 PUSH8 0xFFFFFFFFFFFFFFFF DUP2 GT ISZERO PUSH2 0x891 JUMPI PUSH2 0x890 PUSH2 0x242D JUMP JUMPDEST JUMPDEST PUSH1 0x40 MLOAD SWAP1 DUP1 DUP3 MSTORE DUP1 PUSH1 0x20 MUL PUSH1 0x20 ADD DUP3 ADD PUSH1 0x40 MSTORE DUP1 ISZERO PUSH2 0x8BF JUMPI DUP2 PUSH1 0x20 ADD PUSH1 0x20 DUP3 MUL DUP1 CALLDATASIZE DUP4 CALLDATACOPY DUP1 DUP3 ADD SWAP2 POP POP SWAP1 POP JUMPDEST POP SWAP7 POP DUP13 DUP8 PUSH0 DUP2 MLOAD DUP2 LT PUSH2 0x8D6 JUMPI PUSH2 0x8D5 PUSH2 0x20B6 JUMP JUMPDEST JUMPDEST PUSH1 0x20 MUL PUSH1 0x20 ADD ADD DUP2 DUP2 MSTORE POP POP DUP1 DUP8 PUSH1 0x1 DUP2 MLOAD DUP2 LT PUSH2 0x8F7 JUMPI PUSH2 0x8F6 PUSH2 0x20B6 JUMP JUMPDEST JUMPDEST PUSH1 0x20 MUL PUSH1 0x20 ADD ADD DUP2 DUP2 MSTORE POP POP POP POP POP POP POP POP SWAP7 SWAP6 POP POP POP POP POP POP JUMP JUMPDEST PUSH0 PUSH0 DUP3 GT PUSH2 0x956 JUMPI PUSH1 0x40 MLOAD PUSH32 0x8C379A000000000000000000000000000000000000000000000000000000000 DUP2 MSTORE PUSH1 0x4 ADD PUSH2 0x94D SWAP1 PUSH2 0x24A4 JUMP JUMPDEST PUSH1 0x40 MLOAD DUP1 SWAP2 SUB SWAP1 REVERT JUMPDEST PUSH32 0x0 PUSH20 0xFFFFFFFFFFFFFFFFFFFFFFFFFFFFFFFFFFFFFFFF AND DUP5 PUSH20 0xFFFFFFFFFFFFFFFFFFFFFFFFFFFFFFFFFFFFFFFF AND EQ DUP1 ISZERO PUSH2 0x9FC JUMPI POP PUSH32 0x0 PUSH20 0xFFFFFFFFFFFFFFFFFFFFFFFFFFFFFFFFFFFFFFFF AND DUP4 PUSH20 0xFFFFFFFFFFFFFFFFFFFFFFFFFFFFFFFFFFFFFFFF AND EQ JUMPDEST DUP1 PUSH2 0xAA9 JUMPI POP PUSH32 0x0 PUSH20 0xFFFFFFFFFFFFFFFFFFFFFFFFFFFFFFFFFFFFFFFF AND DUP5 PUSH20 0xFFFFFFFFFFFFFFFFFFFFFFFFFFFFFFFFFFFFFFFF AND EQ DUP1 ISZERO PUSH2 0xAA8 JUMPI POP PUSH32 0x0 PUSH20 0xFFFFFFFFFFFFFFFFFFFFFFFFFFFFFFFFFFFFFFFF AND DUP4 PUSH20 0xFFFFFFFFFFFFFFFFFFFFFFFFFFFFFFFFFFFFFFFF AND EQ JUMPDEST JUMPDEST PUSH2 0xAE8 JUMPI PUSH1 0x40 MLOAD PUSH32 0x8C379A000000000000000000000000000000000000000000000000000000000 DUP2 MSTORE PUSH1 0x4 ADD PUSH2 0xADF SWAP1 PUSH2 0x250C JUMP JUMPDEST PUSH1 0x40 MLOAD DUP1 SWAP2 SUB SWAP1 REVERT JUMPDEST PUSH0 PUSH32 0x0 PUSH20 0xFFFFFFFFFFFFFFFFFFFFFFFFFFFFFFFFFFFFFFFF AND DUP6 PUSH20 0xFFFFFFFFFFFFFFFFFFFFFFFFFFFFFFFFFFFFFFFF AND EQ PUSH2 0xB44 JUMPI PUSH1 0x3 SLOAD PUSH2 0xB48 JUMP JUMPDEST PUSH1 0x2 SLOAD JUMPDEST SWAP1 POP PUSH0 PUSH32 0x0 PUSH20 0xFFFFFFFFFFFFFFFFFFFFFFFFFFFFFFFFFFFFFFFF AND DUP6 PUSH20 0xFFFFFFFFFFFFFFFFFFFFFFFFFFFFFFFFFFFFFFFF AND EQ PUSH2 0xBA6 JUMPI PUSH1 0x3 SLOAD PUSH2 0xBAA JUMP JUMPDEST PUSH1 0x2 SLOAD JUMPDEST SWAP1 POP PUSH0 DUP3 GT DUP1 ISZERO PUSH2 0xBBA JUMPI POP PUSH0 DUP2 GT JUMPDEST PUSH2 0xBF9 JUMPI PUSH1 0x40 MLOAD PUSH32 0x8C379A000000000000000000000000000000000000000000000000000000000 DUP2 MSTORE PUSH1 0x4 ADD PUSH2 0xBF0 SWAP1 PUSH2 0x2574 JUMP JUMPDEST PUSH1 0x40 MLOAD DUP1 SWAP2 SUB SWAP1 REVERT JUMPDEST PUSH0 PUSH2 0x3E5 DUP6 PUSH2 0xC08 SWAP2 SWAP1 PUSH2 0x1F6F JUMP JUMPDEST SWAP1 POP DUP1 PUSH2 0x3E8 DUP5 PUSH2 0xC19 SWAP2 SWAP1 PUSH2 0x1F6F JUMP JUMPDEST PUSH2 0xC23 SWAP2 SWAP1 PUSH2 0x2273 JUMP JUMPDEST DUP3 DUP3 PUSH2 0xC2F SWAP2 SWAP1 PUSH2 0x1F6F JUMP JUMPDEST PUSH2 0xC39 SWAP2 SWAP1 PUSH2 0x22D3 JUMP JUMPDEST SWAP4 POP POP POP POP SWAP4 SWAP3 POP POP POP JUMP JUMPDEST PUSH32 0x0 DUP2 JUMP JUMPDEST PUSH1 0x1 PUSH0 SWAP1 SLOAD SWAP1 PUSH2 0x100 EXP SWAP1 DIV PUSH20 0xFFFFFFFFFFFFFFFFFFFFFFFFFFFFFFFFFFFFFFFF AND DUP2 JUMP JUMPDEST PUSH0 PUSH0 SWAP1 SLOAD SWAP1 PUSH2 0x100 EXP SWAP1 DIV PUSH20 0xFFFFFFFFFFFFFFFFFFFFFFFFFFFFFFFFFFFFFFFF AND DUP2 JUMP JUMPDEST PUSH0 DUP2 PUSH20 0xFFFFFFFFFFFFFFFFFFFFFFFFFFFFFFFFFFFFFFFF AND DUP4 PUSH20 0xFFFFFFFFFFFFFFFFFFFFFFFFFFFFFFFFFFFFFFFF AND SUB PUSH2 0xD21 JUMPI PUSH1 0x40 MLOAD PUSH32 0x8C379A000000000000000000000000000000000000000000000000000000000 DUP2 MSTORE PUSH1 0x4 ADD PUSH2 0xD18 SWAP1 PUSH2 0x25DC JUMP JUMPDEST PUSH1 0x40 MLOAD DUP1 SWAP2 SUB SWAP1 REVERT JUMPDEST PUSH0 PUSH20 0xFFFFFFFFFFFFFFFFFFFFFFFFFFFFFFFFFFFFFFFF AND DUP4 PUSH20 0xFFFFFFFFFFFFFFFFFFFFFFFFFFFFFFFFFFFFFFFF AND EQ ISZERO DUP1 ISZERO PUSH2 0xD89 JUMPI POP PUSH0 PUSH20 0xFFFFFFFFFFFFFFFFFFFFFFFFFFFFFFFFFFFFFFFF AND DUP3 PUSH20 0xFFFFFFFFFFFFFFFFFFFFFFFFFFFFFFFFFFFFFFFF AND EQ ISZERO JUMPDEST PUSH2 0xDC8 JUMPI PUSH1 0x40 MLOAD PUSH32 0x8C379A000000000000000000000000000000000000000000000000000000000 DUP2 MSTORE PUSH1 0x4 ADD PUSH2 0xDBF SWAP1 PUSH2 0x2644 JUMP JUMPDEST PUSH1 0x40 MLOAD DUP1 SWAP2 SUB SWAP1 REVERT JUMPDEST PUSH0 DUP4 PUSH20 0xFFFFFFFFFFFFFFFFFFFFFFFFFFFFFFFFFFFFFFFF AND PUSH4 0x70A08231 ADDRESS PUSH1 0x40 MLOAD DUP3 PUSH4 0xFFFFFFFF AND PUSH1 0xE0 SHL DUP2 MSTORE PUSH1 0x4 ADD PUSH2 0xE02 SWAP2 SWAP1 PUSH2 0x1A70 JUMP JUMPDEST PUSH1 0x20 PUSH1 0x40 MLOAD DUP1 DUP4 SUB DUP2 DUP7 GAS STATICCALL ISZERO DUP1 ISZERO PUSH2 0xE1D JUMPI RETURNDATASIZE PUSH0 PUSH0 RETURNDATACOPY RETURNDATASIZE PUSH0 REVERT JUMPDEST POP POP POP POP PUSH1 0x40 MLOAD RETURNDATASIZE PUSH1 0x1F NOT PUSH1 0x1F DUP3 ADD AND DUP3 ADD DUP1 PUSH1 0x40 MSTORE POP DUP2 ADD SWAP1 PUSH2 0xE41 SWAP2 SWAP1 PUSH2 0x2676 JUMP JUMPDEST SWAP1 POP PUSH0 DUP4 PUSH20 0xFFFFFFFFFFFFFFFFFFFFFFFFFFFFFFFFFFFFFFFF AND PUSH4 0x70A08231 ADDRESS PUSH1 0x40 MLOAD DUP3 PUSH4 0xFFFFFFFF AND PUSH1 0xE0 SHL DUP2 MSTORE PUSH1 0x4 ADD PUSH2 0xE7D SWAP2 SWAP1 PUSH2 0x1A70 JUMP JUMPDEST PUSH1 0x20 PUSH1 0x40 MLOAD DUP1 DUP4 SUB DUP2 DUP7 GAS STATICCALL ISZERO DUP1 ISZERO PUSH2 0xE98 JUMPI RETURNDATASIZE PUSH0 PUSH0 RETURNDATACOPY RETURNDATASIZE PUSH0 REVERT JUMPDEST POP POP POP POP PUSH1 0x40 MLOAD RETURNDATASIZE PUSH1 0x1F NOT PUSH1 0x1F DUP3 ADD AND DUP3 ADD DUP1 PUSH1 0x40 MSTORE POP DUP2 ADD SWAP1 PUSH2 0xEBC SWAP2 SWAP1 PUSH2 0x2676 JUMP JUMPDEST SWAP1 POP PUSH0 DUP3 GT DUP1 ISZERO PUSH2 0xECC JUMPI POP PUSH0 DUP2 GT JUMPDEST PUSH2 0xF0B JUMPI PUSH1 0x40 MLOAD PUSH32 0x8C379A000000000000000000000000000000000000000000000000000000000 DUP2 MSTORE PUSH1 0x4 ADD PUSH2 0xF02 SWAP1 PUSH2 0x2574 JUMP JUMPDEST PUSH1 0x40 MLOAD DUP1 SWAP2 SUB SWAP1 REVERT JUMPDEST DUP2 PUSH8 0xDE0B6B3A7640000 DUP3 PUSH2 0xF20 SWAP2 SWAP1 PUSH2 0x1F6F JUMP JUMPDEST PUSH2 0xF2A SWAP2 SWAP1 PUSH2 0x22D3 JUMP JUMPDEST SWAP3 POP POP POP SWAP3 SWAP2 POP POP JUMP JUMPDEST PUSH1 0x2 SLOAD DUP2 JUMP JUMPDEST PUSH0 PUSH0 PUSH0 DUP4 TIMESTAMP GT ISZERO PUSH2 0xF80 JUMPI PUSH1 0x40 MLOAD PUSH32 0x8C379A000000000000000000000000000000000000000000000000000000000 DUP2 MSTORE PUSH1 0x4 ADD PUSH2 0xF77 SWAP1 PUSH2 0x200A JUMP JUMPDEST PUSH1 0x40 MLOAD DUP1 SWAP2 SUB SWAP1 REVERT JUMPDEST PUSH0 PUSH20 0xFFFFFFFFFFFFFFFFFFFFFFFFFFFFFFFFFFFFFFFF AND DUP6 PUSH20 0xFFFFFFFFFFFFFFFFFFFFFFFFFFFFFFFFFFFFFFFF AND SUB PUSH2 0xFEE JUMPI PUSH1 0x40 MLOAD PUSH32 0x8C379A000000000000000000000000000000000000000000000000000000000 DUP2 MSTORE PUSH1 0x4 ADD PUSH2 0xFE5 SWAP1 PUSH2 0x26EB JUMP JUMPDEST PUSH1 0x40 MLOAD DUP1 SWAP2 SUB SWAP1 REVERT JUMPDEST PUSH0 PUSH1 0x2 SLOAD EQ DUP1 ISZERO PUSH2 0x1000 JUMPI POP PUSH0 PUSH1 0x3 SLOAD EQ JUMPDEST ISZERO PUSH2 0x1010 JUMPI DUP9 SWAP3 POP DUP8 SWAP2 POP PUSH2 0x10EE JUMP JUMPDEST PUSH0 PUSH1 0x2 SLOAD PUSH1 0x3 SLOAD DUP12 PUSH2 0x1022 SWAP2 SWAP1 PUSH2 0x1F6F JUMP JUMPDEST PUSH2 0x102C SWAP2 SWAP1 PUSH2 0x22D3 JUMP JUMPDEST SWAP1 POP DUP9 DUP2 GT PUSH2 0x1083 JUMPI DUP7 DUP2 LT ISZERO PUSH2 0x1078 JUMPI PUSH1 0x40 MLOAD PUSH32 0x8C379A000000000000000000000000000000000000000000000000000000000 DUP2 MSTORE PUSH1 0x4 ADD PUSH2 0x106F SWAP1 PUSH2 0x2753 JUMP JUMPDEST PUSH1 0x40 MLOAD DUP1 SWAP2 SUB SWAP1 REVERT JUMPDEST DUP10 SWAP4 POP DUP1 SWAP3 POP PUSH2 0x10EC JUMP JUMPDEST PUSH0 PUSH1 0x3 SLOAD PUSH1 0x2 SLOAD DUP12 PUSH2 0x1095 SWAP2 SWAP1 PUSH2 0x1F6F JUMP JUMPDEST PUSH2 0x109F SWAP2 SWAP1 PUSH2 0x22D3 JUMP JUMPDEST SWAP1 POP DUP9 DUP2 LT ISZERO PUSH2 0x10E4 JUMPI PUSH1 0x40 MLOAD PUSH32 0x8C379A000000000000000000000000000000000000000000000000000000000 DUP2 MSTORE PUSH1 0x4 ADD PUSH2 0x10DB SWAP1 PUSH2 0x27BB JUMP JUMPDEST PUSH1 0x40 MLOAD DUP1 SWAP2 SUB SWAP1 REVERT JUMPDEST DUP1 SWAP5 POP DUP10 SWAP4 POP POP JUMPDEST POP JUMPDEST PUSH32 0x0 PUSH20 0xFFFFFFFFFFFFFFFFFFFFFFFFFFFFFFFFFFFFFFFF AND PUSH4 0x23B872DD CALLER ADDRESS DUP7 PUSH1 0x40 MLOAD DUP5 PUSH4 0xFFFFFFFF AND PUSH1 0xE0 SHL DUP2 MSTORE PUSH1 0x4 ADD PUSH2 0x114B SWAP4 SWAP3 SWAP2 SWAP1 PUSH2 0x2176 JUMP JUMPDEST PUSH1 0x20 PUSH1 0x40 MLOAD DUP1 DUP4 SUB DUP2 PUSH0 DUP8 GAS CALL ISZERO DUP1 ISZERO PUSH2 0x1167 JUMPI RETURNDATASIZE PUSH0 PUSH0 RETURNDATACOPY RETURNDATASIZE PUSH0 REVERT JUMPDEST POP POP POP POP PUSH1 0x40 MLOAD RETURNDATASIZE PUSH1 0x1F NOT PUSH1 0x1F DUP3 ADD AND DUP3 ADD DUP1 PUSH1 0x40 MSTORE POP DUP2 ADD SWAP1 PUSH2 0x118B SWAP2 SWAP1 PUSH2 0x21E0 JUMP JUMPDEST PUSH2 0x11CA JUMPI PUSH1 0x40 MLOAD PUSH32 0x8C379A000000000000000000000000000000000000000000000000000000000 DUP2 MSTORE PUSH1 0x4 ADD PUSH2 0x11C1 SWAP1 PUSH2 0x2823 JUMP JUMPDEST PUSH1 0x40 MLOAD DUP1 SWAP2 SUB SWAP1 REVERT JUMPDEST PUSH32 0x0 PUSH20 0xFFFFFFFFFFFFFFFFFFFFFFFFFFFFFFFFFFFFFFFF AND PUSH4 0x23B872DD CALLER ADDRESS DUP6 PUSH1 0x40 MLOAD DUP5 PUSH4 0xFFFFFFFF AND PUSH1 0xE0 SHL DUP2 MSTORE PUSH1 0x4 ADD PUSH2 0x1227 SWAP4 SWAP3 SWAP2 SWAP1 PUSH2 0x2176 JUMP JUMPDEST PUSH1 0x20 PUSH1 0x40 MLOAD DUP1 DUP4 SUB DUP2 PUSH0 DUP8 GAS CALL ISZERO DUP1 ISZERO PUSH2 0x1243 JUMPI RETURNDATASIZE PUSH0 PUSH0 RETURNDATACOPY RETURNDATASIZE PUSH0 REVERT JUMPDEST POP POP POP POP PUSH1 0x40 MLOAD RETURNDATASIZE PUSH1 0x1F NOT PUSH1 0x1F DUP3 ADD AND DUP3 ADD DUP1 PUSH1 0x40 MSTORE POP DUP2 ADD SWAP1 PUSH2 0x1267 SWAP2 SWAP1 PUSH2 0x21E0 JUMP JUMPDEST PUSH2 0x12A6 JUMPI PUSH1 0x40 MLOAD PUSH32 0x8C379A000000000000000000000000000000000000000000000000000000000 DUP2 MSTORE PUSH1 0x4 ADD PUSH2 0x129D SWAP1 PUSH2 0x288B JUMP JUMPDEST PUSH1 0x40 MLOAD DUP1 SWAP2 SUB SWAP1 REVERT JUMPDEST DUP3 PUSH1 0x2 PUSH0 DUP3 DUP3 SLOAD PUSH2 0x12B7 SWAP2 SWAP1 PUSH2 0x2273 JUMP JUMPDEST SWAP3 POP POP DUP2 SWAP1 SSTORE POP DUP2 PUSH1 0x3 PUSH0 DUP3 DUP3 SLOAD PUSH2 0x12CF SWAP2 SWAP1 PUSH2 0x2273 JUMP JUMPDEST SWAP3 POP POP DUP2 SWAP1 SSTORE POP PUSH2 0x12EA DUP3 DUP5 PUSH2 0x12E5 SWAP2 SWAP1 PUSH2 0x1F6F JUMP JUMPDEST PUSH2 0x19BA JUMP JUMPDEST SWAP1 POP PUSH1 0x1 PUSH0 SWAP1 SLOAD SWAP1 PUSH2 0x100 EXP SWAP1 DIV PUSH20 0xFFFFFFFFFFFFFFFFFFFFFFFFFFFFFFFFFFFFFFFF AND PUSH20 0xFFFFFFFFFFFFFFFFFFFFFFFFFFFFFFFFFFFFFFFF AND PUSH4 0x40C10F19 DUP7 DUP4 PUSH1 0x40 MLOAD DUP4 PUSH4 0xFFFFFFFF AND PUSH1 0xE0 SHL DUP2 MSTORE PUSH1 0x4 ADD PUSH2 0x1348 SWAP3 SWAP2 SWAP1 PUSH2 0x239E JUMP JUMPDEST PUSH0 PUSH1 0x40 MLOAD DUP1 DUP4 SUB DUP2 PUSH0 DUP8 DUP1 EXTCODESIZE ISZERO DUP1 ISZERO PUSH2 0x135F JUMPI PUSH0 PUSH0 REVERT JUMPDEST POP GAS CALL ISZERO DUP1 ISZERO PUSH2 0x1371 JUMPI RETURNDATASIZE PUSH0 PUSH0 RETURNDATACOPY RETURNDATASIZE PUSH0 REVERT JUMPDEST POP POP POP POP DUP5 PUSH20 0xFFFFFFFFFFFFFFFFFFFFFFFFFFFFFFFFFFFFFFFF AND PUSH32 0x64B83944E79C3CE8D4C297411DE637C3E102D064677AAC0C163976EBDCD6F50E DUP5 DUP5 DUP5 PUSH1 0x40 MLOAD PUSH2 0x13BF SWAP4 SWAP3 SWAP2 SWAP1 PUSH2 0x1E6F JUMP JUMPDEST PUSH1 0x40 MLOAD DUP1 SWAP2 SUB SWAP1 LOG2 SWAP7 POP SWAP7 POP SWAP7 SWAP4 POP POP POP POP JUMP JUMPDEST PUSH0 PUSH0 DUP3 TIMESTAMP GT ISZERO PUSH2 0x1418 JUMPI PUSH1 0x40 MLOAD PUSH32 0x8C379A000000000000000000000000000000000000000000000000000000000 DUP2 MSTORE PUSH1 0x4 ADD PUSH2 0x140F SWAP1 PUSH2 0x200A JUMP JUMPDEST PUSH1 0x40 MLOAD DUP1 SWAP2 SUB SWAP1 REVERT JUMPDEST PUSH0 PUSH20 0xFFFFFFFFFFFFFFFFFFFFFFFFFFFFFFFFFFFFFFFF AND DUP5 PUSH20 0xFFFFFFFFFFFFFFFFFFFFFFFFFFFFFFFFFFFFFFFF AND SUB PUSH2 0x1486 JUMPI PUSH1 0x40 MLOAD PUSH32 0x8C379A000000000000000000000000000000000000000000000000000000000 DUP2 MSTORE PUSH1 0x4 ADD PUSH2 0x147D SWAP1 PUSH2 0x26EB JUMP JUMPDEST PUSH1 0x40 MLOAD DUP1 SWAP2 SUB SWAP1 REVERT JUMPDEST DUP7 PUSH1 0x1 PUSH0 SWAP1 SLOAD SWAP1 PUSH2 0x100 EXP SWAP1 DIV PUSH20 0xFFFFFFFFFFFFFFFFFFFFFFFFFFFFFFFFFFFFFFFF AND PUSH20 0xFFFFFFFFFFFFFFFFFFFFFFFFFFFFFFFFFFFFFFFF AND PUSH4 0x70A08231 CALLER PUSH1 0x40 MLOAD DUP3 PUSH4 0xFFFFFFFF AND PUSH1 0xE0 SHL DUP2 MSTORE PUSH1 0x4 ADD PUSH2 0x14E1 SWAP2 SWAP1 PUSH2 0x1A70 JUMP JUMPDEST PUSH1 0x20 PUSH1 0x40 MLOAD DUP1 DUP4 SUB DUP2 DUP7 GAS STATICCALL ISZERO DUP1 ISZERO PUSH2 0x14FC JUMPI RETURNDATASIZE PUSH0 PUSH0 RETURNDATACOPY RETURNDATASIZE PUSH0 REVERT JUMPDEST POP POP POP POP PUSH1 0x40 MLOAD RETURNDATASIZE PUSH1 0x1F NOT PUSH1 0x1F DUP3 ADD AND DUP3 ADD DUP1 PUSH1 0x40 MSTORE POP DUP2 ADD SWAP1 PUSH2 0x1520 SWAP2 SWAP1 PUSH2 0x2676 JUMP JUMPDEST LT ISZERO PUSH2 0x1561 JUMPI PUSH1 0x40 MLOAD PUSH32 0x8C379A000000000000000000000000000000000000000000000000000000000 DUP2 MSTORE PUSH1 0x4 ADD PUSH2 0x1558 SWAP1 PUSH2 0x28F3 JUMP JUMPDEST PUSH1 0x40 MLOAD DUP1 SWAP2 SUB SWAP1 REVERT JUMPDEST PUSH0 PUSH1 0x1 PUSH0 SWAP1 SLOAD SWAP1 PUSH2 0x100 EXP SWAP1 DIV PUSH20 0xFFFFFFFFFFFFFFFFFFFFFFFFFFFFFFFFFFFFFFFF AND PUSH20 0xFFFFFFFFFFFFFFFFFFFFFFFFFFFFFFFFFFFFFFFF AND PUSH4 0x18160DDD PUSH1 0x40 MLOAD DUP2 PUSH4 0xFFFFFFFF AND PUSH1 0xE0 SHL DUP2 MSTORE PUSH1 0x4 ADD PUSH1 0x20 PUSH1 0x40 MLOAD DUP1 DUP4 SUB DUP2 DUP7 GAS STATICCALL ISZERO DUP1 ISZERO PUSH2 0x15CC JUMPI RETURNDATASIZE PUSH0 PUSH0 RETURNDATACOPY RETURNDATASIZE PUSH0 REVERT JUMPDEST POP POP POP POP PUSH1 0x40 MLOAD RETURNDATASIZE PUSH1 0x1F NOT PUSH1 0x1F DUP3 ADD AND DUP3 ADD DUP1 PUSH1 0x40 MSTORE POP DUP2 ADD SWAP1 PUSH2 0x15F0 SWAP2 SWAP1 PUSH2 0x2676 JUMP JUMPDEST SWAP1 POP PUSH0 DUP2 GT PUSH2 0x1634 JUMPI PUSH1 0x40 MLOAD PUSH32 0x8C379A000000000000000000000000000000000000000000000000000000000 DUP2 MSTORE PUSH1 0x4 ADD PUSH2 0x162B SWAP1 PUSH2 0x2574 JUMP JUMPDEST PUSH1 0x40 MLOAD DUP1 SWAP2 SUB SWAP1 REVERT JUMPDEST DUP1 PUSH1 0x2 SLOAD DUP10 PUSH2 0x1643 SWAP2 SWAP1 PUSH2 0x1F6F JUMP JUMPDEST PUSH2 0x164D SWAP2 SWAP1 PUSH2 0x22D3 JUMP JUMPDEST SWAP3 POP DUP1 PUSH1 0x3 SLOAD DUP10 PUSH2 0x165E SWAP2 SWAP1 PUSH2 0x1F6F JUMP JUMPDEST PUSH2 0x1668 SWAP2 SWAP1 PUSH2 0x22D3 JUMP JUMPDEST SWAP2 POP DUP7 DUP4 LT ISZERO PUSH2 0x16AD JUMPI PUSH1 0x40 MLOAD PUSH32 0x8C379A000000000000000000000000000000000000000000000000000000000 DUP2 MSTORE PUSH1 0x4 ADD PUSH2 0x16A4 SWAP1 PUSH2 0x27BB JUMP JUMPDEST PUSH1 0x40 MLOAD DUP1 SWAP2 SUB SWAP1 REVERT JUMPDEST DUP6 DUP3 LT ISZERO PUSH2 0x16F0 JUMPI PUSH1 0x40 MLOAD PUSH32 0x8C379A000000000000000000000000000000000000000000000000000000000 DUP2 MSTORE PUSH1 0x4 ADD PUSH2 0x16E7 SWAP1 PUSH2 0x2753 JUMP JUMPDEST PUSH1 0x40 MLOAD DUP1 SWAP2 SUB SWAP1 REVERT JUMPDEST DUP3 PUSH1 0x2 PUSH0 DUP3 DUP3 SLOAD PUSH2 0x1701 SWAP2 SWAP1 PUSH2 0x236B JUMP JUMPDEST SWAP3 POP POP DUP2 SWAP1 SSTORE POP DUP2 PUSH1 0x3 PUSH0 DUP3 DUP3 SLOAD PUSH2 0x1719 SWAP2 SWAP1 PUSH2 0x236B JUMP JUMPDEST SWAP3 POP POP DUP2 SWAP1 SSTORE POP PUSH1 0x1 PUSH0 SWAP1 SLOAD SWAP1 PUSH2 0x100 EXP SWAP1 DIV PUSH20 0xFFFFFFFFFFFFFFFFFFFFFFFFFFFFFFFFFFFFFFFF AND PUSH20 0xFFFFFFFFFFFFFFFFFFFFFFFFFFFFFFFFFFFFFFFF AND PUSH4 0x9DC29FAC CALLER DUP11 PUSH1 0x40 MLOAD DUP4 PUSH4 0xFFFFFFFF AND PUSH1 0xE0 SHL DUP2 MSTORE PUSH1 0x4 ADD PUSH2 0x177C SWAP3 SWAP2 SWAP1 PUSH2 0x239E JUMP JUMPDEST PUSH0 PUSH1 0x40 MLOAD DUP1 DUP4 SUB DUP2 PUSH0 DUP8 DUP1 EXTCODESIZE ISZERO DUP1 ISZERO PUSH2 0x1793 JUMPI PUSH0 PUSH0 REVERT JUMPDEST POP GAS CALL ISZERO DUP1 ISZERO PUSH2 0x17A5 JUMPI RETURNDATASIZE PUSH0 PUSH0 RETURNDATACOPY RETURNDATASIZE PUSH0 REVERT JUMPDEST POP POP POP POP PUSH32 0x0 PUSH20 0xFFFFFFFFFFFFFFFFFFFFFFFFFFFFFFFFFFFFFFFF AND PUSH4 0xA9059CBB DUP7 DUP6 PUSH1 0x40 MLOAD DUP4 PUSH4 0xFFFFFFFF AND PUSH1 0xE0 SHL DUP2 MSTORE PUSH1 0x4 ADD PUSH2 0x1804 SWAP3 SWAP2 SWAP1 PUSH2 0x239E JUMP JUMPDEST PUSH1 0x20 PUSH1 0x40 MLOAD DUP1 DUP4 SUB DUP2 PUSH0 DUP8 GAS CALL ISZERO DUP1 ISZERO PUSH2 0x1820 JUMPI RETURNDATASIZE PUSH0 PUSH0 RETURNDATACOPY RETURNDATASIZE PUSH0 REVERT JUMPDEST POP POP POP POP PUSH1 0x40 MLOAD RETURNDATASIZE PUSH1 0x1F NOT PUSH1 0x1F DUP3 ADD AND DUP3 ADD DUP1 PUSH1 0x40 MSTORE POP DUP2 ADD SWAP1 PUSH2 0x1844 SWAP2 SWAP1 PUSH2 0x21E0 JUMP JUMPDEST PUSH2 0x1883 JUMPI PUSH1 0x40 MLOAD PUSH32 0x8C379A000000000000000000000000000000000000000000000000000000000 DUP2 MSTORE PUSH1 0x4 ADD PUSH2 0x187A SWAP1 PUSH2 0x2823 JUMP JUMPDEST PUSH1 0x40 MLOAD DUP1 SWAP2 SUB SWAP1 REVERT JUMPDEST PUSH32 0x0 PUSH20 0xFFFFFFFFFFFFFFFFFFFFFFFFFFFFFFFFFFFFFFFF AND PUSH4 0xA9059CBB DUP7 DUP5 PUSH1 0x40 MLOAD DUP4 PUSH4 0xFFFFFFFF AND PUSH1 0xE0 SHL DUP2 MSTORE PUSH1 0x4 ADD PUSH2 0x18DE SWAP3 SWAP2 SWAP1 PUSH2 0x239E JUMP JUMPDEST PUSH1 0x20 PUSH1 0x40 MLOAD DUP1 DUP4 SUB DUP2 PUSH0 DUP8 GAS CALL ISZERO DUP1 ISZERO PUSH2 0x18FA JUMPI RETURNDATASIZE PUSH0 PUSH0 RETURNDATACOPY RETURNDATASIZE PUSH0 REVERT JUMPDEST POP POP POP POP PUSH1 0x40 MLOAD RETURNDATASIZE PUSH1 0x1F NOT PUSH1 0x1F DUP3 ADD AND DUP3 ADD DUP1 PUSH1 0x40 MSTORE POP DUP2 ADD SWAP1 PUSH2 0x191E SWAP2 SWAP1 PUSH2 0x21E0 JUMP JUMPDEST PUSH2 0x195D JUMPI PUSH1 0x40 MLOAD PUSH32 0x8C379A000000000000000000000000000000000000000000000000000000000 DUP2 MSTORE PUSH1 0x4 ADD PUSH2 0x1954 SWAP1 PUSH2 0x288B JUMP JUMPDEST PUSH1 0x40 MLOAD DUP1 SWAP2 SUB SWAP1 REVERT JUMPDEST DUP5 PUSH20 0xFFFFFFFFFFFFFFFFFFFFFFFFFFFFFFFFFFFFFFFF AND PUSH32 0x1DC8BB69DF2B8E91FBDCBFCF93D951B3F0000F085A95FE3F7946D6161439245D DUP5 DUP5 DUP12 PUSH1 0x40 MLOAD PUSH2 0x19A7 SWAP4 SWAP3 SWAP2 SWAP1 PUSH2 0x1E6F JUMP JUMPDEST PUSH1 0x40 MLOAD DUP1 SWAP2 SUB SWAP1 LOG2 POP SWAP6 POP SWAP6 SWAP4 POP POP POP POP JUMP JUMPDEST PUSH0 PUSH1 0x3 DUP3 GT ISZERO PUSH2 0x1A1F JUMPI DUP2 SWAP1 POP PUSH0 PUSH1 0x1 PUSH1 0x2 DUP5 PUSH2 0x19D7 SWAP2 SWAP1 PUSH2 0x22D3 JUMP JUMPDEST PUSH2 0x19E1 SWAP2 SWAP1 PUSH2 0x2273 JUMP JUMPDEST SWAP1 POP JUMPDEST DUP2 DUP2 LT ISZERO PUSH2 0x1A19 JUMPI DUP1 SWAP2 POP PUSH1 0x2 DUP2 DUP3 DUP6 PUSH2 0x19FE SWAP2 SWAP1 PUSH2 0x22D3 JUMP JUMPDEST PUSH2 0x1A08 SWAP2 SWAP1 PUSH2 0x2273 JUMP JUMPDEST PUSH2 0x1A12 SWAP2 SWAP1 PUSH2 0x22D3 JUMP JUMPDEST SWAP1 POP PUSH2 0x19E4 JUMP JUMPDEST POP PUSH2 0x1A2C JUMP JUMPDEST PUSH0 DUP3 EQ PUSH2 0x1A2B JUMPI PUSH1 0x1 SWAP1 POP JUMPDEST JUMPDEST SWAP2 SWAP1 POP JUMP JUMPDEST PUSH0 PUSH20 0xFFFFFFFFFFFFFFFFFFFFFFFFFFFFFFFFFFFFFFFF DUP3 AND SWAP1 POP SWAP2 SWAP1 POP JUMP JUMPDEST PUSH0 PUSH2 0x1A5A DUP3 PUSH2 0x1A31 JUMP JUMPDEST SWAP1 POP SWAP2 SWAP1 POP JUMP JUMPDEST PUSH2 0x1A6A DUP2 PUSH2 0x1A50 JUMP JUMPDEST DUP3 MSTORE POP POP JUMP JUMPDEST PUSH0 PUSH1 0x20 DUP3 ADD SWAP1 POP PUSH2 0x1A83 PUSH0 DUP4 ADD DUP5 PUSH2 0x1A61 JUMP JUMPDEST SWAP3 SWAP2 POP POP JUMP JUMPDEST PUSH0 DUP2 SWAP1 POP SWAP2 SWAP1 POP JUMP JUMPDEST PUSH2 0x1A9B DUP2 PUSH2 0x1A89 JUMP JUMPDEST DUP3 MSTORE POP POP JUMP JUMPDEST PUSH0 PUSH1 0x20 DUP3 ADD SWAP1 POP PUSH2 0x1AB4 PUSH0 DUP4 ADD DUP5 PUSH2 0x1A92 JUMP JUMPDEST SWAP3 SWAP2 POP POP JUMP JUMPDEST PUSH0 PUSH0 REVERT JUMPDEST PUSH0 PUSH0 REVERT JUMPDEST PUSH2 0x1ACB DUP2 PUSH2 0x1A89 JUMP JUMPDEST DUP2 EQ PUSH2 0x1AD5 JUMPI PUSH0 PUSH0 REVERT JUMPDEST POP JUMP JUMPDEST PUSH0 DUP2 CALLDATALOAD SWAP1 POP PUSH2 0x1AE6 DUP2 PUSH2 0x1AC2 JUMP JUMPDEST SWAP3 SWAP2 POP POP JUMP JUMPDEST PUSH0 PUSH0 REVERT JUMPDEST PUSH0 PUSH0 REVERT JUMPDEST PUSH0 PUSH0 REVERT JUMPDEST PUSH0 PUSH0 DUP4 PUSH1 0x1F DUP5 ADD SLT PUSH2 0x1B0D JUMPI PUSH2 0x1B0C PUSH2 0x1AEC JUMP JUMPDEST JUMPDEST DUP3 CALLDATALOAD SWAP1 POP PUSH8 0xFFFFFFFFFFFFFFFF DUP2 GT ISZERO PUSH2 0x1B2A JUMPI PUSH2 0x1B29 PUSH2 0x1AF0 JUMP JUMPDEST JUMPDEST PUSH1 0x20 DUP4 ADD SWAP2 POP DUP4 PUSH1 0x20 DUP3 MUL DUP4 ADD GT ISZERO PUSH2 0x1B46 JUMPI PUSH2 0x1B45 PUSH2 0x1AF4 JUMP JUMPDEST JUMPDEST SWAP3 POP SWAP3 SWAP1 POP JUMP JUMPDEST PUSH2 0x1B56 DUP2 PUSH2 0x1A50 JUMP JUMPDEST DUP2 EQ PUSH2 0x1B60 JUMPI PUSH0 PUSH0 REVERT JUMPDEST POP JUMP JUMPDEST PUSH0 DUP2 CALLDATALOAD SWAP1 POP PUSH2 0x1B71 DUP2 PUSH2 0x1B4D JUMP JUMPDEST SWAP3 SWAP2 POP POP JUMP JUMPDEST PUSH0 PUSH0 PUSH0 PUSH0 PUSH0 PUSH0 PUSH1 0xA0 DUP8 DUP10 SUB SLT ISZERO PUSH2 0x1B91 JUMPI PUSH2 0x1B90 PUSH2 0x1ABA JUMP JUMPDEST JUMPDEST PUSH0 PUSH2 0x1B9E DUP10 DUP3 DUP11 ADD PUSH2 0x1AD8 JUMP JUMPDEST SWAP7 POP POP PUSH1 0x20 PUSH2 0x1BAF DUP10 DUP3 DUP11 ADD PUSH2 0x1AD8 JUMP JUMPDEST SWAP6 POP POP PUSH1 0x40 DUP8 ADD CALLDATALOAD PUSH8 0xFFFFFFFFFFFFFFFF DUP2 GT ISZERO PUSH2 0x1BD0 JUMPI PUSH2 0x1BCF PUSH2 0x1ABE JUMP JUMPDEST JUMPDEST PUSH2 0x1BDC DUP10 DUP3 DUP11 ADD PUSH2 0x1AF8 JUMP JUMPDEST SWAP5 POP SWAP5 POP POP PUSH1 0x60 PUSH2 0x1BEF DUP10 DUP3 DUP11 ADD PUSH2 0x1B63 JUMP JUMPDEST SWAP3 POP POP PUSH1 0x80 PUSH2 0x1C00 DUP10 DUP3 DUP11 ADD PUSH2 0x1AD8 JUMP JUMPDEST SWAP2 POP POP SWAP3 SWAP6 POP SWAP3 SWAP6 POP SWAP3 SWAP6 JUMP JUMPDEST PUSH0 DUP2 MLOAD SWAP1 POP SWAP2 SWAP1 POP JUMP JUMPDEST PUSH0 DUP3 DUP3 MSTORE PUSH1 0x20 DUP3 ADD SWAP1 POP SWAP3 SWAP2 POP POP JUMP JUMPDEST PUSH0 DUP2 SWAP1 POP PUSH1 0x20 DUP3 ADD SWAP1 POP SWAP2 SWAP1 POP JUMP JUMPDEST PUSH2 0x1C3F DUP2 PUSH2 0x1A89 JUMP JUMPDEST DUP3 MSTORE POP POP JUMP JUMPDEST PUSH0 PUSH2 0x1C50 DUP4 DUP4 PUSH2 0x1C36 JUMP JUMPDEST PUSH1 0x20 DUP4 ADD SWAP1 POP SWAP3 SWAP2 POP POP JUMP JUMPDEST PUSH0 PUSH1 0x20 DUP3 ADD SWAP1 POP SWAP2 SWAP1 POP JUMP JUMPDEST PUSH0 PUSH2 0x1C72 DUP3 PUSH2 0x1C0D JUMP JUMPDEST PUSH2 0x1C7C DUP2 DUP6 PUSH2 0x1C17 JUMP JUMPDEST SWAP4 POP PUSH2 0x1C87 DUP4 PUSH2 0x1C27 JUMP JUMPDEST DUP1 PUSH0 JUMPDEST DUP4 DUP2 LT ISZERO PUSH2 0x1CB7 JUMPI DUP2 MLOAD PUSH2 0x1C9E DUP9 DUP3 PUSH2 0x1C45 JUMP JUMPDEST SWAP8 POP PUSH2 0x1CA9 DUP4 PUSH2 0x1C5C JUMP JUMPDEST SWAP3 POP POP PUSH1 0x1 DUP2 ADD SWAP1 POP PUSH2 0x1C8A JUMP JUMPDEST POP DUP6 SWAP4 POP POP POP POP SWAP3 SWAP2 POP POP JUMP JUMPDEST PUSH0 PUSH1 0x20 DUP3 ADD SWAP1 POP DUP2 DUP2 SUB PUSH0 DUP4 ADD MSTORE PUSH2 0x1CDC DUP2 DUP5 PUSH2 0x1C68 JUMP JUMPDEST SWAP1 POP SWAP3 SWAP2 POP POP JUMP JUMPDEST PUSH0 PUSH0 PUSH0 PUSH1 0x60 DUP5 DUP7 SUB SLT ISZERO PUSH2 0x1CFB JUMPI PUSH2 0x1CFA PUSH2 0x1ABA JUMP JUMPDEST JUMPDEST PUSH0 PUSH2 0x1D08 DUP7 DUP3 DUP8 ADD PUSH2 0x1B63 JUMP JUMPDEST SWAP4 POP POP PUSH1 0x20 PUSH2 0x1D19 DUP7 DUP3 DUP8 ADD PUSH2 0x1B63 JUMP JUMPDEST SWAP3 POP POP PUSH1 0x40 PUSH2 0x1D2A DUP7 DUP3 DUP8 ADD PUSH2 0x1AD8 JUMP JUMPDEST SWAP2 POP POP SWAP3 POP SWAP3 POP SWAP3 JUMP JUMPDEST PUSH0 DUP2 SWAP1 POP SWAP2 SWAP1 POP JUMP JUMPDEST PUSH0 PUSH2 0x1D57 PUSH2 0x1D52 PUSH2 0x1D4D DUP5 PUSH2 0x1A31 JUMP JUMPDEST PUSH2 0x1D34 JUMP JUMPDEST PUSH2 0x1A31 JUMP JUMPDEST SWAP1 POP SWAP2 SWAP1 POP JUMP JUMPDEST PUSH0 PUSH2 0x1D68 DUP3 PUSH2 0x1D3D JUMP JUMPDEST SWAP1 POP SWAP2 SWAP1 POP JUMP JUMPDEST PUSH0 PUSH2 0x1D79 DUP3 PUSH2 0x1D5E JUMP JUMPDEST SWAP1 POP SWAP2 SWAP1 POP JUMP JUMPDEST PUSH2 0x1D89 DUP2 PUSH2 0x1D6F JUMP JUMPDEST DUP3 MSTORE POP POP JUMP JUMPDEST PUSH0 PUSH1 0x20 DUP3 ADD SWAP1 POP PUSH2 0x1DA2 PUSH0 DUP4 ADD DUP5 PUSH2 0x1D80 JUMP JUMPDEST SWAP3 SWAP2 POP POP JUMP JUMPDEST PUSH0 PUSH0 PUSH1 0x40 DUP4 DUP6 SUB SLT ISZERO PUSH2 0x1DBE JUMPI PUSH2 0x1DBD PUSH2 0x1ABA JUMP JUMPDEST JUMPDEST PUSH0 PUSH2 0x1DCB DUP6 DUP3 DUP7 ADD PUSH2 0x1B63 JUMP JUMPDEST SWAP3 POP POP PUSH1 0x20 PUSH2 0x1DDC DUP6 DUP3 DUP7 ADD PUSH2 0x1B63 JUMP JUMPDEST SWAP2 POP POP SWAP3 POP SWAP3 SWAP1 POP JUMP JUMPDEST PUSH0 PUSH0 PUSH0 PUSH0 PUSH0 PUSH0 PUSH1 0xC0 DUP8 DUP10 SUB SLT ISZERO PUSH2 0x1E00 JUMPI PUSH2 0x1DFF PUSH2 0x1ABA JUMP JUMPDEST JUMPDEST PUSH0 PUSH2 0x1E0D DUP10 DUP3 DUP11 ADD PUSH2 0x1AD8 JUMP JUMPDEST SWAP7 POP POP PUSH1 0x20 PUSH2 0x1E1E DUP10 DUP3 DUP11 ADD PUSH2 0x1AD8 JUMP JUMPDEST SWAP6 POP POP PUSH1 0x40 PUSH2 0x1E2F DUP10 DUP3 DUP11 ADD PUSH2 0x1AD8 JUMP JUMPDEST SWAP5 POP POP PUSH1 0x60 PUSH2 0x1E40 DUP10 DUP3 DUP11 ADD PUSH2 0x1AD8 JUMP JUMPDEST SWAP4 POP POP PUSH1 0x80 PUSH2 0x1E51 DUP10 DUP3 DUP11 ADD PUSH2 0x1B63 JUMP JUMPDEST SWAP3 POP POP PUSH1 0xA0 PUSH2 0x1E62 DUP10 DUP3 DUP11 ADD PUSH2 0x1AD8 JUMP JUMPDEST SWAP2 POP POP SWAP3 SWAP6 POP SWAP3 SWAP6 POP SWAP3 SWAP6 JUMP JUMPDEST PUSH0 PUSH1 0x60 DUP3 ADD SWAP1 POP PUSH2 0x1E82 PUSH0 DUP4 ADD DUP7 PUSH2 0x1A92 JUMP JUMPDEST PUSH2 0x1E8F PUSH1 0x20 DUP4 ADD DUP6 PUSH2 0x1A92 JUMP JUMPDEST PUSH2 0x1E9C PUSH1 0x40 DUP4 ADD DUP5 PUSH2 0x1A92 JUMP JUMPDEST SWAP5 SWAP4 POP POP POP POP JUMP JUMPDEST PUSH0 PUSH0 PUSH0 PUSH0 PUSH0 PUSH1 0xA0 DUP7 DUP9 SUB SLT ISZERO PUSH2 0x1EBD JUMPI PUSH2 0x1EBC PUSH2 0x1ABA JUMP JUMPDEST JUMPDEST PUSH0 PUSH2 0x1ECA DUP9 DUP3 DUP10 ADD PUSH2 0x1AD8 JUMP JUMPDEST SWAP6 POP POP PUSH1 0x20 PUSH2 0x1EDB DUP9 DUP3 DUP10 ADD PUSH2 0x1AD8 JUMP JUMPDEST SWAP5 POP POP PUSH1 0x40 PUSH2 0x1EEC DUP9 DUP3 DUP10 ADD PUSH2 0x1AD8 JUMP JUMPDEST SWAP4 POP POP PUSH1 0x60 PUSH2 0x1EFD DUP9 DUP3 DUP10 ADD PUSH2 0x1B63 JUMP JUMPDEST SWAP3 POP POP PUSH1 0x80 PUSH2 0x1F0E DUP9 DUP3 DUP10 ADD PUSH2 0x1AD8 JUMP JUMPDEST SWAP2 POP POP SWAP3 SWAP6 POP SWAP3 SWAP6 SWAP1 SWAP4 POP JUMP JUMPDEST PUSH0 PUSH1 0x40 DUP3 ADD SWAP1 POP PUSH2 0x1F2E PUSH0 DUP4 ADD DUP6 PUSH2 0x1A92 JUMP JUMPDEST PUSH2 0x1F3B PUSH1 0x20 DUP4 ADD DUP5 PUSH2 0x1A92 JUMP JUMPDEST SWAP4 SWAP3 POP POP POP JUMP JUMPDEST PUSH32 0x4E487B7100000000000000000000000000000000000000000000000000000000 PUSH0 MSTORE PUSH1 0x11 PUSH1 0x4 MSTORE PUSH1 0x24 PUSH0 REVERT JUMPDEST PUSH0 PUSH2 0x1F79 DUP3 PUSH2 0x1A89 JUMP JUMPDEST SWAP2 POP PUSH2 0x1F84 DUP4 PUSH2 0x1A89 JUMP JUMPDEST SWAP3 POP DUP3 DUP3 MUL PUSH2 0x1F92 DUP2 PUSH2 0x1A89 JUMP JUMPDEST SWAP2 POP DUP3 DUP3 DIV DUP5 EQ DUP4 ISZERO OR PUSH2 0x1FA9 JUMPI PUSH2 0x1FA8 PUSH2 0x1F42 JUMP JUMPDEST JUMPDEST POP SWAP3 SWAP2 POP POP JUMP JUMPDEST PUSH0 DUP3 DUP3 MSTORE PUSH1 0x20 DUP3 ADD SWAP1 POP SWAP3 SWAP2 POP POP JUMP JUMPDEST PUSH32 0x5472616E73616374696F6E206578706972656400000000000000000000000000 PUSH0 DUP3 ADD MSTORE POP JUMP JUMPDEST PUSH0 PUSH2 0x1FF4 PUSH1 0x13 DUP4 PUSH2 0x1FB0 JUMP JUMPDEST SWAP2 POP PUSH2 0x1FFF DUP3 PUSH2 0x1FC0 JUMP JUMPDEST PUSH1 0x20 DUP3 ADD SWAP1 POP SWAP2 SWAP1 POP JUMP JUMPDEST PUSH0 PUSH1 0x20 DUP3 ADD SWAP1 POP DUP2 DUP2 SUB PUSH0 DUP4 ADD MSTORE PUSH2 0x2021 DUP2 PUSH2 0x1FE8 JUMP JUMPDEST SWAP1 POP SWAP2 SWAP1 POP JUMP JUMPDEST PUSH32 0x4F6E6C792064697265637420746F6B656E20737761707320737570706F727465 PUSH0 DUP3 ADD MSTORE PUSH32 0x6400000000000000000000000000000000000000000000000000000000000000 PUSH1 0x20 DUP3 ADD MSTORE POP JUMP JUMPDEST PUSH0 PUSH2 0x2082 PUSH1 0x21 DUP4 PUSH2 0x1FB0 JUMP JUMPDEST SWAP2 POP PUSH2 0x208D DUP3 PUSH2 0x2028 JUMP JUMPDEST PUSH1 0x40 DUP3 ADD SWAP1 POP SWAP2 SWAP1 POP JUMP JUMPDEST PUSH0 PUSH1 0x20 DUP3 ADD SWAP1 POP DUP2 DUP2 SUB PUSH0 DUP4 ADD MSTORE PUSH2 0x20AF DUP2 PUSH2 0x2076 JUMP JUMPDEST SWAP1 POP SWAP2 SWAP1 POP JUMP JUMPDEST PUSH32 0x4E487B7100000000000000000000000000000000000000000000000000000000 PUSH0 MSTORE PUSH1 0x32 PUSH1 0x4 MSTORE PUSH1 0x24 PUSH0 REVERT JUMPDEST PUSH0 PUSH1 0x20 DUP3 DUP5 SUB SLT ISZERO PUSH2 0x20F8 JUMPI PUSH2 0x20F7 PUSH2 0x1ABA JUMP JUMPDEST JUMPDEST PUSH0 PUSH2 0x2105 DUP5 DUP3 DUP6 ADD PUSH2 0x1B63 JUMP JUMPDEST SWAP2 POP POP SWAP3 SWAP2 POP POP JUMP JUMPDEST PUSH32 0x496E76616C696420746F6B656E20706174680000000000000000000000000000 PUSH0 DUP3 ADD MSTORE POP JUMP JUMPDEST PUSH0 PUSH2 0x2142 PUSH1 0x12 DUP4 PUSH2 0x1FB0 JUMP JUMPDEST SWAP2 POP PUSH2 0x214D DUP3 PUSH2 0x210E JUMP JUMPDEST PUSH1 0x20 DUP3 ADD SWAP1 POP SWAP2 SWAP1 POP JUMP JUMPDEST PUSH0 PUSH1 0x20 DUP3 ADD SWAP1 POP DUP2 DUP2 SUB PUSH0 DUP4 ADD MSTORE PUSH2 0x216F DUP2 PUSH2 0x2136 JUMP JUMPDEST SWAP1 POP SWAP2 SWAP1 POP JUMP JUMPDEST PUSH0 PUSH1 0x60 DUP3 ADD SWAP1 POP PUSH2 0x2189 PUSH0 DUP4 ADD DUP7 PUSH2 0x1A61 JUMP JUMPDEST PUSH2 0x2196 PUSH1 0x20 DUP4 ADD DUP6 PUSH2 0x1A61 JUMP JUMPDEST PUSH2 0x21A3 PUSH1 0x40 DUP4 ADD DUP5 PUSH2 0x1A92 JUMP JUMPDEST SWAP5 SWAP4 POP POP POP POP JUMP JUMPDEST PUSH0 DUP2 ISZERO ISZERO SWAP1 POP SWAP2 SWAP1 POP JUMP JUMPDEST PUSH2 0x21BF DUP2 PUSH2 0x21AB JUMP JUMPDEST DUP2 EQ PUSH2 0x21C9 JUMPI PUSH0 PUSH0 REVERT JUMPDEST POP JUMP JUMPDEST PUSH0 DUP2 MLOAD SWAP1 POP PUSH2 0x21DA DUP2 PUSH2 0x21B6 JUMP JUMPDEST SWAP3 SWAP2 POP POP JUMP JUMPDEST PUSH0 PUSH1 0x20 DUP3 DUP5 SUB SLT ISZERO PUSH2 0x21F5 JUMPI PUSH2 0x21F4 PUSH2 0x1ABA JUMP JUMPDEST JUMPDEST PUSH0 PUSH2 0x2202 DUP5 DUP3 DUP6 ADD PUSH2 0x21CC JUMP JUMPDEST SWAP2 POP POP SWAP3 SWAP2 POP POP JUMP JUMPDEST PUSH32 0x5472616E7366657246726F6D206661696C656400000000000000000000000000 PUSH0 DUP3 ADD MSTORE POP JUMP JUMPDEST PUSH0 PUSH2 0x223F PUSH1 0x13 DUP4 PUSH2 0x1FB0 JUMP JUMPDEST SWAP2 POP PUSH2 0x224A DUP3 PUSH2 0x220B JUMP JUMPDEST PUSH1 0x20 DUP3 ADD SWAP1 POP SWAP2 SWAP1 POP JUMP JUMPDEST PUSH0 PUSH1 0x20 DUP3 ADD SWAP1 POP DUP2 DUP2 SUB PUSH0 DUP4 ADD MSTORE PUSH2 0x226C DUP2 PUSH2 0x2233 JUMP JUMPDEST SWAP1 POP SWAP2 SWAP1 POP JUMP JUMPDEST PUSH0 PUSH2 0x227D DUP3 PUSH2 0x1A89 JUMP JUMPDEST SWAP2 POP PUSH2 0x2288 DUP4 PUSH2 0x1A89 JUMP JUMPDEST SWAP3 POP DUP3 DUP3 ADD SWAP1 POP DUP1 DUP3 GT ISZERO PUSH2 0x22A0 JUMPI PUSH2 0x229F PUSH2 0x1F42 JUMP JUMPDEST JUMPDEST SWAP3 SWAP2 POP POP JUMP JUMPDEST PUSH32 0x4E487B7100000000000000000000000000000000000000000000000000000000 PUSH0 MSTORE PUSH1 0x12 PUSH1 0x4 MSTORE PUSH1 0x24 PUSH0 REVERT JUMPDEST PUSH0 PUSH2 0x22DD DUP3 PUSH2 0x1A89 JUMP JUMPDEST SWAP2 POP PUSH2 0x22E8 DUP4 PUSH2 0x1A89 JUMP JUMPDEST SWAP3 POP DUP3 PUSH2 0x22F8 JUMPI PUSH2 0x22F7 PUSH2 0x22A6 JUMP JUMPDEST JUMPDEST DUP3 DUP3 DIV SWAP1 POP SWAP3 SWAP2 POP POP JUMP JUMPDEST PUSH32 0x496E73756666696369656E74206F757470757400000000000000000000000000 PUSH0 DUP3 ADD MSTORE POP JUMP JUMPDEST PUSH0 PUSH2 0x2337 PUSH1 0x13 DUP4 PUSH2 0x1FB0 JUMP JUMPDEST SWAP2 POP PUSH2 0x2342 DUP3 PUSH2 0x2303 JUMP JUMPDEST PUSH1 0x20 DUP3 ADD SWAP1 POP SWAP2 SWAP1 POP JUMP JUMPDEST PUSH0 PUSH1 0x20 DUP3 ADD SWAP1 POP DUP2 DUP2 SUB PUSH0 DUP4 ADD MSTORE PUSH2 0x2364 DUP2 PUSH2 0x232B JUMP JUMPDEST SWAP1 POP SWAP2 SWAP1 POP JUMP JUMPDEST PUSH0 PUSH2 0x2375 DUP3 PUSH2 0x1A89 JUMP JUMPDEST SWAP2 POP PUSH2 0x2380 DUP4 PUSH2 0x1A89 JUMP JUMPDEST SWAP3 POP DUP3 DUP3 SUB SWAP1 POP DUP2 DUP2 GT ISZERO PUSH2 0x2398 JUMPI PUSH2 0x2397 PUSH2 0x1F42 JUMP JUMPDEST JUMPDEST SWAP3 SWAP2 POP POP JUMP JUMPDEST PUSH0 PUSH1 0x40 DUP3 ADD SWAP1 POP PUSH2 0x23B1 PUSH0 DUP4 ADD DUP6 PUSH2 0x1A61 JUMP JUMPDEST PUSH2 0x23BE PUSH1 0x20 DUP4 ADD DUP5 PUSH2 0x1A92 JUMP JUMPDEST SWAP4 SWAP3 POP POP POP JUMP JUMPDEST PUSH32 0x5472616E73666572206F7574707574206661696C656400000000000000000000 PUSH0 DUP3 ADD MSTORE POP JUMP JUMPDEST PUSH0 PUSH2 0x23F9 PUSH1 0x16 DUP4 PUSH2 0x1FB0 JUMP JUMPDEST SWAP2 POP PUSH2 0x2404 DUP3 PUSH2 0x23C5 JUMP JUMPDEST PUSH1 0x20 DUP3 ADD SWAP1 POP SWAP2 SWAP1 POP JUMP JUMPDEST PUSH0 PUSH1 0x20 DUP3 ADD SWAP1 POP DUP2 DUP2 SUB PUSH0 DUP4 ADD MSTORE PUSH2 0x2426 DUP2 PUSH2 0x23ED JUMP JUMPDEST SWAP1 POP SWAP2 SWAP1 POP JUMP JUMPDEST PUSH32 0x4E487B7100000000000000000000000000000000000000000000000000000000 PUSH0 MSTORE PUSH1 0x41 PUSH1 0x4 MSTORE PUSH1 0x24 PUSH0 REVERT JUMPDEST PUSH32 0x496E76616C696420696E70757400000000000000000000000000000000000000 PUSH0 DUP3 ADD MSTORE POP JUMP JUMPDEST PUSH0 PUSH2 0x248E PUSH1 0xD DUP4 PUSH2 0x1FB0 JUMP JUMPDEST SWAP2 POP PUSH2 0x2499 DUP3 PUSH2 0x245A JUMP JUMPDEST PUSH1 0x20 DUP3 ADD SWAP1 POP SWAP2 SWAP1 POP JUMP JUMPDEST PUSH0 PUSH1 0x20 DUP3 ADD SWAP1 POP DUP2 DUP2 SUB PUSH0 DUP4 ADD MSTORE PUSH2 0x24BB DUP2 PUSH2 0x2482 JUMP JUMPDEST SWAP1 POP SWAP2 SWAP1 POP JUMP JUMPDEST PUSH32 0x496E76616C696420746F6B656E73000000000000000000000000000000000000 PUSH0 DUP3 ADD MSTORE POP JUMP JUMPDEST PUSH0 PUSH2 0x24F6 PUSH1 0xE DUP4 PUSH2 0x1FB0 JUMP JUMPDEST SWAP2 POP PUSH2 0x2501 DUP3 PUSH2 0x24C2 JUMP JUMPDEST PUSH1 0x20 DUP3 ADD SWAP1 POP SWAP2 SWAP1 POP JUMP JUMPDEST PUSH0 PUSH1 0x20 DUP3 ADD SWAP1 POP DUP2 DUP2 SUB PUSH0 DUP4 ADD MSTORE PUSH2 0x2523 DUP2 PUSH2 0x24EA JUMP JUMPDEST SWAP1 POP SWAP2 SWAP1 POP JUMP JUMPDEST PUSH32 0x4E6F206C69717569646974790000000000000000000000000000000000000000 PUSH0 DUP3 ADD MSTORE POP JUMP JUMPDEST PUSH0 PUSH2 0x255E PUSH1 0xC DUP4 PUSH2 0x1FB0 JUMP JUMPDEST SWAP2 POP PUSH2 0x2569 DUP3 PUSH2 0x252A JUMP JUMPDEST PUSH1 0x20 DUP3 ADD SWAP1 POP SWAP2 SWAP1 POP JUMP JUMPDEST PUSH0 PUSH1 0x20 DUP3 ADD SWAP1 POP DUP2 DUP2 SUB PUSH0 DUP4 ADD MSTORE PUSH2 0x258B DUP2 PUSH2 0x2552 JUMP JUMPDEST SWAP1 POP SWAP2 SWAP1 POP JUMP JUMPDEST PUSH32 0x546F6B656E73206D757374206469666665720000000000000000000000000000 PUSH0 DUP3 ADD MSTORE POP JUMP JUMPDEST PUSH0 PUSH2 0x25C6 PUSH1 0x12 DUP4 PUSH2 0x1FB0 JUMP JUMPDEST SWAP2 POP PUSH2 0x25D1 DUP3 PUSH2 0x2592 JUMP JUMPDEST PUSH1 0x20 DUP3 ADD SWAP1 POP SWAP2 SWAP1 POP JUMP JUMPDEST PUSH0 PUSH1 0x20 DUP3 ADD SWAP1 POP DUP2 DUP2 SUB PUSH0 DUP4 ADD MSTORE PUSH2 0x25F3 DUP2 PUSH2 0x25BA JUMP JUMPDEST SWAP1 POP SWAP2 SWAP1 POP JUMP JUMPDEST PUSH32 0x496E76616C696420616464726573730000000000000000000000000000000000 PUSH0 DUP3 ADD MSTORE POP JUMP JUMPDEST PUSH0 PUSH2 0x262E PUSH1 0xF DUP4 PUSH2 0x1FB0 JUMP JUMPDEST SWAP2 POP PUSH2 0x2639 DUP3 PUSH2 0x25FA JUMP JUMPDEST PUSH1 0x20 DUP3 ADD SWAP1 POP SWAP2 SWAP1 POP JUMP JUMPDEST PUSH0 PUSH1 0x20 DUP3 ADD SWAP1 POP DUP2 DUP2 SUB PUSH0 DUP4 ADD MSTORE PUSH2 0x265B DUP2 PUSH2 0x2622 JUMP JUMPDEST SWAP1 POP SWAP2 SWAP1 POP JUMP JUMPDEST PUSH0 DUP2 MLOAD SWAP1 POP PUSH2 0x2670 DUP2 PUSH2 0x1AC2 JUMP JUMPDEST SWAP3 SWAP2 POP POP JUMP JUMPDEST PUSH0 PUSH1 0x20 DUP3 DUP5 SUB SLT ISZERO PUSH2 0x268B JUMPI PUSH2 0x268A PUSH2 0x1ABA JUMP JUMPDEST JUMPDEST PUSH0 PUSH2 0x2698 DUP5 DUP3 DUP6 ADD PUSH2 0x2662 JUMP JUMPDEST SWAP2 POP POP SWAP3 SWAP2 POP POP JUMP JUMPDEST PUSH32 0x496E76616C696420726563697069656E74000000000000000000000000000000 PUSH0 DUP3 ADD MSTORE POP JUMP JUMPDEST PUSH0 PUSH2 0x26D5 PUSH1 0x11 DUP4 PUSH2 0x1FB0 JUMP JUMPDEST SWAP2 POP PUSH2 0x26E0 DUP3 PUSH2 0x26A1 JUMP JUMPDEST PUSH1 0x20 DUP3 ADD SWAP1 POP SWAP2 SWAP1 POP JUMP JUMPDEST PUSH0 PUSH1 0x20 DUP3 ADD SWAP1 POP DUP2 DUP2 SUB PUSH0 DUP4 ADD MSTORE PUSH2 0x2702 DUP2 PUSH2 0x26C9 JUMP JUMPDEST SWAP1 POP SWAP2 SWAP1 POP JUMP JUMPDEST PUSH32 0x536C6970706167653A204220746F6F206C6F7700000000000000000000000000 PUSH0 DUP3 ADD MSTORE POP JUMP JUMPDEST PUSH0 PUSH2 0x273D PUSH1 0x13 DUP4 PUSH2 0x1FB0 JUMP JUMPDEST SWAP2 POP PUSH2 0x2748 DUP3 PUSH2 0x2709 JUMP JUMPDEST PUSH1 0x20 DUP3 ADD SWAP1 POP SWAP2 SWAP1 POP JUMP JUMPDEST PUSH0 PUSH1 0x20 DUP3 ADD SWAP1 POP DUP2 DUP2 SUB PUSH0 DUP4 ADD MSTORE PUSH2 0x276A DUP2 PUSH2 0x2731 JUMP JUMPDEST SWAP1 POP SWAP2 SWAP1 POP JUMP JUMPDEST PUSH32 0x536C6970706167653A204120746F6F206C6F7700000000000000000000000000 PUSH0 DUP3 ADD MSTORE POP JUMP JUMPDEST PUSH0 PUSH2 0x27A5 PUSH1 0x13 DUP4 PUSH2 0x1FB0 JUMP JUMPDEST SWAP2 POP PUSH2 0x27B0 DUP3 PUSH2 0x2771 JUMP JUMPDEST PUSH1 0x20 DUP3 ADD SWAP1 POP SWAP2 SWAP1 POP JUMP JUMPDEST PUSH0 PUSH1 0x20 DUP3 ADD SWAP1 POP DUP2 DUP2 SUB PUSH0 DUP4 ADD MSTORE PUSH2 0x27D2 DUP2 PUSH2 0x2799 JUMP JUMPDEST SWAP1 POP SWAP2 SWAP1 POP JUMP JUMPDEST PUSH32 0x5472616E7366657220746F6B656E41206661696C656400000000000000000000 PUSH0 DUP3 ADD MSTORE POP JUMP JUMPDEST PUSH0 PUSH2 0x280D PUSH1 0x16 DUP4 PUSH2 0x1FB0 JUMP JUMPDEST SWAP2 POP PUSH2 0x2818 DUP3 PUSH2 0x27D9 JUMP JUMPDEST PUSH1 0x20 DUP3 ADD SWAP1 POP SWAP2 SWAP1 POP JUMP JUMPDEST PUSH0 PUSH1 0x20 DUP3 ADD SWAP1 POP DUP2 DUP2 SUB PUSH0 DUP4 ADD MSTORE PUSH2 0x283A DUP2 PUSH2 0x2801 JUMP JUMPDEST SWAP1 POP SWAP2 SWAP1 POP JUMP JUMPDEST PUSH32 0x5472616E7366657220746F6B656E42206661696C656400000000000000000000 PUSH0 DUP3 ADD MSTORE POP JUMP JUMPDEST PUSH0 PUSH2 0x2875 PUSH1 0x16 DUP4 PUSH2 0x1FB0 JUMP JUMPDEST SWAP2 POP PUSH2 0x2880 DUP3 PUSH2 0x2841 JUMP JUMPDEST PUSH1 0x20 DUP3 ADD SWAP1 POP SWAP2 SWAP1 POP JUMP JUMPDEST PUSH0 PUSH1 0x20 DUP3 ADD SWAP1 POP DUP2 DUP2 SUB PUSH0 DUP4 ADD MSTORE PUSH2 0x28A2 DUP2 PUSH2 0x2869 JUMP JUMPDEST SWAP1 POP SWAP2 SWAP1 POP JUMP JUMPDEST PUSH32 0x4E6F7420656E6F756768206C6971756964697479000000000000000000000000 PUSH0 DUP3 ADD MSTORE POP JUMP JUMPDEST PUSH0 PUSH2 0x28DD PUSH1 0x14 DUP4 PUSH2 0x1FB0 JUMP JUMPDEST SWAP2 POP PUSH2 0x28E8 DUP3 PUSH2 0x28A9 JUMP JUMPDEST PUSH1 0x20 DUP3 ADD SWAP1 POP SWAP2 SWAP1 POP JUMP JUMPDEST PUSH0 PUSH1 0x20 DUP3 ADD SWAP1 POP DUP2 DUP2 SUB PUSH0 DUP4 ADD MSTORE PUSH2 0x290A DUP2 PUSH2 0x28D1 JUMP JUMPDEST SWAP1 POP SWAP2 SWAP1 POP JUMP INVALID LOG2 PUSH5 0x6970667358 0x22 SLT KECCAK256 0xCF SLT PUSH12 0x52F40F434AAFC1D0900564B9 BLOBBASEFEE SWAP14 0x1E 0xB8 LOG1 INVALID SUB DUP3 0x23 0xB1 EXTCODECOPY SWAP11 PUSH27 0x8065796464736F6C634300081E0033000000000000000000000000 "
				},
				"gasEstimates": {
					"creation": {
						"codeDepositCost": "2113400",
						"executionCost": "infinite",
						"totalCost": "infinite"
					},
					"external": {
						"addLiquidity(uint256,uint256,uint256,uint256,address,uint256)": "infinite",
						"getAmountOut(address,address,uint256)": "infinite",
						"getPrice(address,address)": "infinite",
						"lpToken()": "infinite",
						"owner()": "2529",
						"removeLiquidity(uint256,uint256,uint256,address,uint256)": "infinite",
						"reserveA()": "2491",
						"reserveB()": "2470",
						"swapExactTokensForTokens(uint256,uint256,address[],address,uint256)": "infinite",
						"tokenA()": "infinite",
						"tokenB()": "infinite",
						"totalLiquidity()": "infinite"
					}
				},
				"methodIdentifiers": {
					"addLiquidity(uint256,uint256,uint256,uint256,address,uint256)": "ded998b9",
					"getAmountOut(address,address,uint256)": "4aa06652",
					"getPrice(address,address)": "ac41865a",
					"lpToken()": "5fcbd285",
					"owner()": "8da5cb5b",
					"removeLiquidity(uint256,uint256,uint256,address,uint256)": "ed856cdc",
					"reserveA()": "dc5fa6c5",
					"reserveB()": "19e36f3b",
					"swapExactTokensForTokens(uint256,uint256,address[],address,uint256)": "38ed1739",
					"tokenA()": "0fc63d10",
					"tokenB()": "5f64b55b",
					"totalLiquidity()": "15770f92"
				}
			},
			"storageLayout": {
				"storage": [
					{
						"astId": 148,
						"contract": "prueba.sol:SimpleSwap",
						"label": "owner",
						"offset": 0,
						"slot": "0",
						"type": "t_address"
					},
					{
						"astId": 151,
						"contract": "prueba.sol:SimpleSwap",
						"label": "lpToken",
						"offset": 0,
						"slot": "1",
						"type": "t_contract(ILPToken)138"
					},
					{
						"astId": 153,
						"contract": "prueba.sol:SimpleSwap",
						"label": "reserveA",
						"offset": 0,
						"slot": "2",
						"type": "t_uint256"
					},
					{
						"astId": 155,
						"contract": "prueba.sol:SimpleSwap",
						"label": "reserveB",
						"offset": 0,
						"slot": "3",
						"type": "t_uint256"
					}
				],
				"types": {
					"t_address": {
						"encoding": "inplace",
						"label": "address",
						"numberOfBytes": "20"
					},
					"t_contract(ILPToken)138": {
						"encoding": "inplace",
						"label": "contract ILPToken",
						"numberOfBytes": "20"
					},
					"t_uint256": {
						"encoding": "inplace",
						"label": "uint256",
						"numberOfBytes": "32"
					}
				}
			},
			"userdoc": {
				"kind": "user",
				"methods": {
					"addLiquidity(uint256,uint256,uint256,uint256,address,uint256)": {
						"notice": "Agrega liquidez al pool, calculando cantidades óptimas y minimas aceptables"
					},
					"constructor": {
						"notice": "Constructor para inicializar el par de tokens y el token LP asociado"
					},
					"getAmountOut(address,address,uint256)": {
						"notice": "Calcula la cantidad de tokens de salida para una cantidad dada de tokens de entrada según fórmula constante"
					},
					"getPrice(address,address)": {
						"notice": "Obtiene el precio del token base en términos del token cotizado (scaled by 1e18 para precisión)"
					},
					"removeLiquidity(uint256,uint256,uint256,address,uint256)": {
						"notice": "Remueve liquidez quemando tokens LP y devolviendo proporción de reservas"
					},
					"swapExactTokensForTokens(uint256,uint256,address[],address,uint256)": {
						"notice": "Intercambia una cantidad exacta de tokens por el otro token del par"
					},
					"totalLiquidity()": {
						"notice": "Calcula la liquidez total disponible como la raíz cuadrada del producto de reservas"
					}
				},
				"version": 1
			}
		}
	}
}